{
	"data": {
		"bytecode": {
			"linkReferences": {},
			"object": "608060405234801561001057600080fd5b50611de2806100206000396000f3fe608060405234801561001057600080fd5b50600436106100365760003560e01c806396bfb9c11461003b578063cc1a90ad14610066575b600080fd5b61004e610049366004611825565b610079565b60405161005d93929190611c66565b60405180910390f35b61004e61007436600461185b565b6109bf565b60608061008461167b565b61008c61169a565b6100be6040518060a0016040528060008152602001600081526020016000815260200160008152602001600081525090565b6100c66116e6565b6100f16040518060800160405280600081526020016000815260200160008152602001600081525090565b6040518060c0016040528060405180604001604052806004815260200163426c756560e01b81525081526020016040518060400160405280600581526020016423b932b2b760d91b81525081526020016040518060400160405280600481526020016350696e6b60e01b8152508152602001604051806040016040528060068152602001654f72616e676560d01b81525081526020016040518060400160405280600681526020016559656c6c6f7760d01b815250815260200160405180604001604052806006815260200165507572706c6560d01b8152508152508460000181905250604051806060016040528060405180604001604052806006815260200165507572706c6560d01b815250815260200160405180604001604052806004815260200163426c756560e01b8152508152602001604051806040016040528060068152602001654f72616e676560d01b815250815250846020018190525060405180608001604052806040518060400160405280600981526020016843686f636f6c61746560b81b81525081526020016040518060400160405280600381526020016213d85d60ea1b81525081526020016040518060400160405280600781526020016656616e696c6c6160c81b8152508152602001604051806040016040528060048152602001635241524560e01b815250815250846040018190525060405180608001604052806040518060400160405280600a8152602001695374726177626572727960b01b81525081526020016040518060400160405280600981526020016850696e6b626572727960b81b81525081526020016040518060400160405280600681526020016542616e616e6160d01b815250815260200160405180604001604052806009815260200168426c7565626572727960b81b81525081525084606001819052506040518060a0016040528060405180604001604052806006815260200165507572706c6560d01b815250815260200160405180604001604052806005815260200164576869746560d81b81525081526020016040518060400160405280600481526020016350696e6b60e01b815250815260200160405180604001604052806004815260200163426c756560e01b81525081526020016040518060400160405280600681526020016559656c6c6f7760d01b81525081525084608001819052508860006005811061046e5761046e611d96565b6020020151835288600160209081029190910151908401528860026020020151604084015288600360200201516060840152886004602090810291909101516080808601919091526040805160e08082018352600460a0808401828152634c6f766560e01b60c0808701919091529085528551808701875260058082526442756e6e7960d81b828b0152868a01919091528651808801885260078082526614da1bd8dad95960ca1b828c01528789019190915287518089018952858152634375746560e01b818c01526060808901919091528851808a018a528381526444697a7a7960d81b818d0152888b0152968c528751808a018952808901828152662932b3bab630b960c91b828a015281528851808a018a52838152641219585c9d60da1b818d0152818c01528c8b015287518087018952600681860181815265233637bbb2b960d11b8387015282528951808b018b5290815265111a5c1c195960d21b818d0152818c01528851808a018a52868152635761767960e01b818d0152818a01528851808a018a5291825266436c617373696360c81b828c01528088019190915287518089018952858152634e6f6e6560e01b818c01819052828b01919091528c89019190915287519586018852600993860193845268537072696e6b6c657360b81b9286019290925291845285518087018752600c81526b4d617273686d656c6c6f777360a01b818a0152848901528551808701875282815264053797275760dc1b818a0152848701528551808701875291825264537461727360d81b82890152838501919091528451808601909552908452948301949094529183015283015287600060200201518152876001602090810291909101519082015287600260200201516040820152876003602002015160608201526000886004602002015190506000604051806101400160405280866000015181526020018660200151815260200186604001518152602001866060015181526020018660800151815260200184600001518152602001846020015181526020018460400151815260200184606001518152602001838152509050600061078f86600001516113a7565b61079c87602001516113a7565b6107a988604001516113a7565b6107b689606001516113a7565b6107c38a608001516113a7565b88516107ce906113a7565b6107db8a602001516113a7565b6107e88b604001516113a7565b6107f58c606001516113a7565b60405160200161080d999897969594939291906118f7565b60408051601f19818403018152919052875187519192506000916006811061083757610837611d96565b6020020151886040015188604001516004811061085657610856611d96565b602002015160405160200161086c929190611ada565b60405160208183030381529060405290506000886060015188606001516004811061089957610899611d96565b602002015187604001518760400151600581106108b8576108b8611d96565b60200201516040516020016108ce9291906119b7565b6040516020818303038152906040529050600087606001518760600151600581106108fb576108fb611d96565b6020020151886020015188602001516002811061091a5761091a611d96565b6020020151604051602001610930929190611ba4565b60408051601f19818403018152919052885188519192506000916005811061095a5761095a611d96565b602002015160405160200161096f9190611a76565b60405160208183030381529060405290508383838360405160200161099794939291906118a0565b60408051601f198184030181529190529d50939b509399505050505050505050509250925092565b6060806109ca61167b565b6109d261169a565b610a046040518060a0016040528060008152602001600081526020016000815260200160008152602001600081525090565b610a0c6116e6565b610a376040518060800160405280600081526020016000815260200160008152602001600081525090565b6000610a44610234611567565b607b1415610a50575060015b6001891115610a7157610a646102b1611567565b6101411415610a71575060015b6032891115610a9257610a85610282611567565b6101a41415610a92575060015b6064891115610ab357610aa661022b611567565b6101a41415610ab3575060015b60c8891115610ad257610ac660fa611567565b60901415610ad2575060015b6040518060c0016040528060405180604001604052806004815260200163426c756560e01b81525081526020016040518060400160405280600581526020016423b932b2b760d91b81525081526020016040518060400160405280600481526020016350696e6b60e01b8152508152602001604051806040016040528060068152602001654f72616e676560d01b81525081526020016040518060400160405280600681526020016559656c6c6f7760d01b815250815260200160405180604001604052806006815260200165507572706c6560d01b8152508152508560000181905250604051806060016040528060405180604001604052806006815260200165507572706c6560d01b815250815260200160405180604001604052806004815260200163426c756560e01b8152508152602001604051806040016040528060068152602001654f72616e676560d01b815250815250856020018190525060405180608001604052806040518060400160405280600981526020016843686f636f6c61746560b81b81525081526020016040518060400160405280600381526020016213d85d60ea1b81525081526020016040518060400160405280600781526020016656616e696c6c6160c81b8152508152602001604051806040016040528060048152602001635241524560e01b815250815250856040018190525060405180608001604052806040518060400160405280600a8152602001695374726177626572727960b01b81525081526020016040518060400160405280600981526020016850696e6b626572727960b81b81525081526020016040518060400160405280600681526020016542616e616e6160d01b815250815260200160405180604001604052806009815260200168426c7565626572727960b81b81525081525085606001819052506040518060a0016040528060405180604001604052806006815260200165507572706c6560d01b815250815260200160405180604001604052806005815260200164576869746560d81b81525081526020016040518060400160405280600481526020016350696e6b60e01b815250815260200160405180604001604052806004815260200163426c756560e01b81525081526020016040518060400160405280600681526020016559656c6c6f7760d01b8152508152508560800181905250610e4c8560000151506006611567565b8452610e586003611567565b6020850152610e71610e6c60016004611d0f565b611567565b6040850152610e806004611567565b6060850152610e8f6005611567565b6080808601919091526040805160e08082018352600460a0808401828152634c6f766560e01b60c0808701919091529085528551808701875260058082526442756e6e7960d81b602083810191909152808801929092528751808901895260078082526614da1bd8dad95960ca1b82850152888a01919091528851808a018a52868152634375746560e01b818501526060808a01919091528951808b018b528381526444697a7a7960d81b81860152898c0152978d528851808b018a52808a01828152662932b3bab630b960c91b828b015281528951808b018b52838152641219585c9d60da1b81860152818501528d84015288518088018a52600681870181815265233637bbb2b960d11b8388015282528a51808c018c5290815265111a5c1c195960d21b81860152818501528951808b018b52878152635761767960e01b81860152818b01528951808b018b5291825266436c617373696360c81b82850152808901919091528851808a018a52868152634e6f6e6560e01b818501819052828c01919091528d8a019190915288519687018952600994870194855268537072696e6b6c657360b81b9387019390935292855286518088018852600c81526b4d617273686d656c6c6f777360a01b81830152858201528651808801885283815264053797275760dc1b81830152858801528651808801885283815264537461727360d81b8183015285870152865180880190975292865291850191909152938101929092528501526110c190611567565b82526110cd6002611567565b60208301526110dc6005611567565b60408301526110eb6005611567565b6060830152600181141561110b5761110560016004611d0f565b60408501525b6040805161014081018252855181526020808701518183015286830151828401526060808801518184015260808089015190840152855160a08401529085015160c08301529184015160e08201529083015161010082015261012081018290528451600090611179906113a7565b61118687602001516113a7565b61119388604001516113a7565b6111a089606001516113a7565b6111ad8a608001516113a7565b88516111b8906113a7565b6111c58a602001516113a7565b6111d28b604001516113a7565b6111df8c606001516113a7565b6040516020016111f7999897969594939291906118f7565b60408051601f19818403018152919052875187519192506000916006811061122157611221611d96565b6020020151886040015188604001516004811061124057611240611d96565b6020020151604051602001611256929190611ada565b60405160208183030381529060405290506000886060015188606001516004811061128357611283611d96565b602002015187604001518760400151600581106112a2576112a2611d96565b60200201516040516020016112b89291906119b7565b6040516020818303038152906040529050600087606001518760600151600581106112e5576112e5611d96565b6020020151886020015188602001516002811061130457611304611d96565b602002015160405160200161131a929190611ba4565b60408051601f19818403018152919052885188519192506000916005811061134457611344611d96565b60200201516040516020016113599190611a76565b60405160208183030381529060405290508383838360405160200161138194939291906118a0565b60408051808303601f190181529190529f949e50949c50929a5050505050505050505050565b6060816113cb5750506040805180820190915260018152600360fc1b602082015290565b81600114156113f15750506040805180820190915260018152603160f81b602082015290565b81600214156114175750506040805180820190915260018152601960f91b602082015290565b816003141561143d5750506040805180820190915260018152603360f81b602082015290565b81600414156114635750506040805180820190915260018152600d60fa1b602082015290565b81600514156114895750506040805180820190915260018152603560f81b602082015290565b81600614156114af5750506040805180820190915260018152601b60f91b602082015290565b81600714156114d55750506040805180820190915260018152603760f81b602082015290565b81600814156114fb5750506040805180820190915260018152600760fb1b602082015290565b81600914156115215750506040805180820190915260018152603960f81b602082015290565b81600a1415611548575050604080518082019091526002815261031360f41b602082015290565b505060408051808201909152600381526239393960e81b602082015290565b6040516bffffffffffffffffffffffff193360601b1660208201526000908190439042906034016040516020818303038152906040528051906020012060001c6115b19190611cdc565b4542866040516020016115c691815260200190565b6040516020818303038152906040528051906020012060001c6115e99190611cdc565b6115f34442611cc4565b6115fd9190611cc4565b6116079190611cc4565b6116119190611cc4565b61161b9190611cc4565b60405160200161162d91815260200190565b60408051601f1981840301815291905280516020909101209050826116546103e883611cdc565b611660906103e8611cf0565b61166a9083611d0f565b6116749190611d56565b9392505050565b604051806101400160405280600a906020820280368337509192915050565b6040518060a001604052806116ad611713565b81526020016116ba61173a565b81526020016116c7611754565b81526020016116d4611754565b81526020016116e161176e565b905290565b60405180608001604052806116f961176e565b8152602001611706611788565b81526020016116d461176e565b6040518060c001604052806006905b60608152602001906001900390816117225790505090565b604080516060808201909252908152600260208201611722565b604080516080810190915260608152600360208201611722565b6040805160a0810190915260608152600460208201611722565b6040805180820190915260608152600160208201611722565b600082601f8301126117b257600080fd5b60405160a0810181811067ffffffffffffffff821117156117e357634e487b7160e01b600052604160045260246000fd5b604052808360a081018610156117f857600080fd5b60005b600581101561181a5781358352602092830192909101906001016117fb565b509195945050505050565b600080610140838503121561183957600080fd5b61184384846117a1565b91506118528460a085016117a1565b90509250929050565b60006020828403121561186d57600080fd5b5035919050565b6000815180845261188c816020860160208601611d26565b601f01601f19169290920160200192915050565b600085516118b2818460208a01611d26565b8551908301906118c6818360208a01611d26565b85519101906118d9818360208901611d26565b84519101906118ec818360208801611d26565b019695505050505050565b60008a51611909818460208f01611d26565b8a5161191b8183860160208f01611d26565b8a519184010190611930818360208e01611d26565b89516119428183850160208e01611d26565b8951929091010190611958818360208c01611d26565b875191019061196b818360208b01611d26565b865161197d8183850160208b01611d26565b8651929091010190611993818360208901611d26565b84516119a58183850160208901611d26565b9101019b9a5050505050505050505050565b7f7b2274726169745f7479706522203a20224963696e67222c202020202020227681526830b63ab291101d101160b91b602082015260008351611a01816029850160208801611d26565b7f22207d2c207b2274726169745f7479706522203a20224963696e6720547970656029918401918201527111161010101010113b30b63ab291101d101160711b60498201528351611a5981605b840160208801611d26565b6308881f4b60e21b605b9290910191820152605f01949350505050565b7f7b2274726169745f7479706522203a202246616365222c20202020202020227681526830b63ab291101d101160b91b602082015260008251611ac0816029850160208701611d26565b6222207d60e81b6029939091019283015250602c01919050565b7f7b2274726169745f7479706522203a20224261636b67726f756e64222c20227681526830b63ab291101d101160b91b602082015260008351611b24816029850160208801611d26565b7f22207d2c202020202020207b2274726169745f7479706522203a2022446f75676029918401918201527f6820466c61766f7572222c20202276616c756522203a2022000000000000000060498201528351611b87816061840160208801611d26565b6308881f4b60e21b60619290910191820152606501949350505050565b7f7b2274726169745f7479706522203a2022546f7070696e6773222c202020227681526830b63ab291101d101160b91b602082015260008351611bee816029850160208801611d26565b7f22207d2c202020207b2274726169745f7479706522203a20225368617065222c6029918401918201527410101010101010101010113b30b63ab291101d101160591b60498201528351611c4981605e840160208801611d26565b6308881f4b60e21b605e9290910191820152606201949350505050565b6000610180808352611c7a81840187611874565b9050602083820381850152611c8f8287611874565b92506040840191508460005b600a811015611cb857815184529282019290820190600101611c9b565b50505050949350505050565b60008219821115611cd757611cd7611d6a565b500190565b600082611ceb57611ceb611d80565b500490565b6000816000190483118215151615611d0a57611d0a611d6a565b500290565b600082821015611d2157611d21611d6a565b500390565b60005b83811015611d41578181015183820152602001611d29565b83811115611d50576000848401525b50505050565b600082611d6557611d65611d80565b500690565b634e487b7160e01b600052601160045260246000fd5b634e487b7160e01b600052601260045260246000fd5b634e487b7160e01b600052603260045260246000fdfea26469706673582212209c7038227e75abcd2d4fb826c6e8cbe8efbe13aaad2acb91c9f7f2c708fbec5e64736f6c63430008070033",
			"opcodes": "PUSH1 0x80 PUSH1 0x40 MSTORE CALLVALUE DUP1 ISZERO PUSH2 0x10 JUMPI PUSH1 0x0 DUP1 REVERT JUMPDEST POP PUSH2 0x1DE2 DUP1 PUSH2 0x20 PUSH1 0x0 CODECOPY PUSH1 0x0 RETURN INVALID PUSH1 0x80 PUSH1 0x40 MSTORE CALLVALUE DUP1 ISZERO PUSH2 0x10 JUMPI PUSH1 0x0 DUP1 REVERT JUMPDEST POP PUSH1 0x4 CALLDATASIZE LT PUSH2 0x36 JUMPI PUSH1 0x0 CALLDATALOAD PUSH1 0xE0 SHR DUP1 PUSH4 0x96BFB9C1 EQ PUSH2 0x3B JUMPI DUP1 PUSH4 0xCC1A90AD EQ PUSH2 0x66 JUMPI JUMPDEST PUSH1 0x0 DUP1 REVERT JUMPDEST PUSH2 0x4E PUSH2 0x49 CALLDATASIZE PUSH1 0x4 PUSH2 0x1825 JUMP JUMPDEST PUSH2 0x79 JUMP JUMPDEST PUSH1 0x40 MLOAD PUSH2 0x5D SWAP4 SWAP3 SWAP2 SWAP1 PUSH2 0x1C66 JUMP JUMPDEST PUSH1 0x40 MLOAD DUP1 SWAP2 SUB SWAP1 RETURN JUMPDEST PUSH2 0x4E PUSH2 0x74 CALLDATASIZE PUSH1 0x4 PUSH2 0x185B JUMP JUMPDEST PUSH2 0x9BF JUMP JUMPDEST PUSH1 0x60 DUP1 PUSH2 0x84 PUSH2 0x167B JUMP JUMPDEST PUSH2 0x8C PUSH2 0x169A JUMP JUMPDEST PUSH2 0xBE PUSH1 0x40 MLOAD DUP1 PUSH1 0xA0 ADD PUSH1 0x40 MSTORE DUP1 PUSH1 0x0 DUP2 MSTORE PUSH1 0x20 ADD PUSH1 0x0 DUP2 MSTORE PUSH1 0x20 ADD PUSH1 0x0 DUP2 MSTORE PUSH1 0x20 ADD PUSH1 0x0 DUP2 MSTORE PUSH1 0x20 ADD PUSH1 0x0 DUP2 MSTORE POP SWAP1 JUMP JUMPDEST PUSH2 0xC6 PUSH2 0x16E6 JUMP JUMPDEST PUSH2 0xF1 PUSH1 0x40 MLOAD DUP1 PUSH1 0x80 ADD PUSH1 0x40 MSTORE DUP1 PUSH1 0x0 DUP2 MSTORE PUSH1 0x20 ADD PUSH1 0x0 DUP2 MSTORE PUSH1 0x20 ADD PUSH1 0x0 DUP2 MSTORE PUSH1 0x20 ADD PUSH1 0x0 DUP2 MSTORE POP SWAP1 JUMP JUMPDEST PUSH1 0x40 MLOAD DUP1 PUSH1 0xC0 ADD PUSH1 0x40 MSTORE DUP1 PUSH1 0x40 MLOAD DUP1 PUSH1 0x40 ADD PUSH1 0x40 MSTORE DUP1 PUSH1 0x4 DUP2 MSTORE PUSH1 0x20 ADD PUSH4 0x426C7565 PUSH1 0xE0 SHL DUP2 MSTORE POP DUP2 MSTORE PUSH1 0x20 ADD PUSH1 0x40 MLOAD DUP1 PUSH1 0x40 ADD PUSH1 0x40 MSTORE DUP1 PUSH1 0x5 DUP2 MSTORE PUSH1 0x20 ADD PUSH5 0x23B932B2B7 PUSH1 0xD9 SHL DUP2 MSTORE POP DUP2 MSTORE PUSH1 0x20 ADD PUSH1 0x40 MLOAD DUP1 PUSH1 0x40 ADD PUSH1 0x40 MSTORE DUP1 PUSH1 0x4 DUP2 MSTORE PUSH1 0x20 ADD PUSH4 0x50696E6B PUSH1 0xE0 SHL DUP2 MSTORE POP DUP2 MSTORE PUSH1 0x20 ADD PUSH1 0x40 MLOAD DUP1 PUSH1 0x40 ADD PUSH1 0x40 MSTORE DUP1 PUSH1 0x6 DUP2 MSTORE PUSH1 0x20 ADD PUSH6 0x4F72616E6765 PUSH1 0xD0 SHL DUP2 MSTORE POP DUP2 MSTORE PUSH1 0x20 ADD PUSH1 0x40 MLOAD DUP1 PUSH1 0x40 ADD PUSH1 0x40 MSTORE DUP1 PUSH1 0x6 DUP2 MSTORE PUSH1 0x20 ADD PUSH6 0x59656C6C6F77 PUSH1 0xD0 SHL DUP2 MSTORE POP DUP2 MSTORE PUSH1 0x20 ADD PUSH1 0x40 MLOAD DUP1 PUSH1 0x40 ADD PUSH1 0x40 MSTORE DUP1 PUSH1 0x6 DUP2 MSTORE PUSH1 0x20 ADD PUSH6 0x507572706C65 PUSH1 0xD0 SHL DUP2 MSTORE POP DUP2 MSTORE POP DUP5 PUSH1 0x0 ADD DUP2 SWAP1 MSTORE POP PUSH1 0x40 MLOAD DUP1 PUSH1 0x60 ADD PUSH1 0x40 MSTORE DUP1 PUSH1 0x40 MLOAD DUP1 PUSH1 0x40 ADD PUSH1 0x40 MSTORE DUP1 PUSH1 0x6 DUP2 MSTORE PUSH1 0x20 ADD PUSH6 0x507572706C65 PUSH1 0xD0 SHL DUP2 MSTORE POP DUP2 MSTORE PUSH1 0x20 ADD PUSH1 0x40 MLOAD DUP1 PUSH1 0x40 ADD PUSH1 0x40 MSTORE DUP1 PUSH1 0x4 DUP2 MSTORE PUSH1 0x20 ADD PUSH4 0x426C7565 PUSH1 0xE0 SHL DUP2 MSTORE POP DUP2 MSTORE PUSH1 0x20 ADD PUSH1 0x40 MLOAD DUP1 PUSH1 0x40 ADD PUSH1 0x40 MSTORE DUP1 PUSH1 0x6 DUP2 MSTORE PUSH1 0x20 ADD PUSH6 0x4F72616E6765 PUSH1 0xD0 SHL DUP2 MSTORE POP DUP2 MSTORE POP DUP5 PUSH1 0x20 ADD DUP2 SWAP1 MSTORE POP PUSH1 0x40 MLOAD DUP1 PUSH1 0x80 ADD PUSH1 0x40 MSTORE DUP1 PUSH1 0x40 MLOAD DUP1 PUSH1 0x40 ADD PUSH1 0x40 MSTORE DUP1 PUSH1 0x9 DUP2 MSTORE PUSH1 0x20 ADD PUSH9 0x43686F636F6C617465 PUSH1 0xB8 SHL DUP2 MSTORE POP DUP2 MSTORE PUSH1 0x20 ADD PUSH1 0x40 MLOAD DUP1 PUSH1 0x40 ADD PUSH1 0x40 MSTORE DUP1 PUSH1 0x3 DUP2 MSTORE PUSH1 0x20 ADD PUSH3 0x13D85D PUSH1 0xEA SHL DUP2 MSTORE POP DUP2 MSTORE PUSH1 0x20 ADD PUSH1 0x40 MLOAD DUP1 PUSH1 0x40 ADD PUSH1 0x40 MSTORE DUP1 PUSH1 0x7 DUP2 MSTORE PUSH1 0x20 ADD PUSH7 0x56616E696C6C61 PUSH1 0xC8 SHL DUP2 MSTORE POP DUP2 MSTORE PUSH1 0x20 ADD PUSH1 0x40 MLOAD DUP1 PUSH1 0x40 ADD PUSH1 0x40 MSTORE DUP1 PUSH1 0x4 DUP2 MSTORE PUSH1 0x20 ADD PUSH4 0x52415245 PUSH1 0xE0 SHL DUP2 MSTORE POP DUP2 MSTORE POP DUP5 PUSH1 0x40 ADD DUP2 SWAP1 MSTORE POP PUSH1 0x40 MLOAD DUP1 PUSH1 0x80 ADD PUSH1 0x40 MSTORE DUP1 PUSH1 0x40 MLOAD DUP1 PUSH1 0x40 ADD PUSH1 0x40 MSTORE DUP1 PUSH1 0xA DUP2 MSTORE PUSH1 0x20 ADD PUSH10 0x53747261776265727279 PUSH1 0xB0 SHL DUP2 MSTORE POP DUP2 MSTORE PUSH1 0x20 ADD PUSH1 0x40 MLOAD DUP1 PUSH1 0x40 ADD PUSH1 0x40 MSTORE DUP1 PUSH1 0x9 DUP2 MSTORE PUSH1 0x20 ADD PUSH9 0x50696E6B6265727279 PUSH1 0xB8 SHL DUP2 MSTORE POP DUP2 MSTORE PUSH1 0x20 ADD PUSH1 0x40 MLOAD DUP1 PUSH1 0x40 ADD PUSH1 0x40 MSTORE DUP1 PUSH1 0x6 DUP2 MSTORE PUSH1 0x20 ADD PUSH6 0x42616E616E61 PUSH1 0xD0 SHL DUP2 MSTORE POP DUP2 MSTORE PUSH1 0x20 ADD PUSH1 0x40 MLOAD DUP1 PUSH1 0x40 ADD PUSH1 0x40 MSTORE DUP1 PUSH1 0x9 DUP2 MSTORE PUSH1 0x20 ADD PUSH9 0x426C75656265727279 PUSH1 0xB8 SHL DUP2 MSTORE POP DUP2 MSTORE POP DUP5 PUSH1 0x60 ADD DUP2 SWAP1 MSTORE POP PUSH1 0x40 MLOAD DUP1 PUSH1 0xA0 ADD PUSH1 0x40 MSTORE DUP1 PUSH1 0x40 MLOAD DUP1 PUSH1 0x40 ADD PUSH1 0x40 MSTORE DUP1 PUSH1 0x6 DUP2 MSTORE PUSH1 0x20 ADD PUSH6 0x507572706C65 PUSH1 0xD0 SHL DUP2 MSTORE POP DUP2 MSTORE PUSH1 0x20 ADD PUSH1 0x40 MLOAD DUP1 PUSH1 0x40 ADD PUSH1 0x40 MSTORE DUP1 PUSH1 0x5 DUP2 MSTORE PUSH1 0x20 ADD PUSH5 0x5768697465 PUSH1 0xD8 SHL DUP2 MSTORE POP DUP2 MSTORE PUSH1 0x20 ADD PUSH1 0x40 MLOAD DUP1 PUSH1 0x40 ADD PUSH1 0x40 MSTORE DUP1 PUSH1 0x4 DUP2 MSTORE PUSH1 0x20 ADD PUSH4 0x50696E6B PUSH1 0xE0 SHL DUP2 MSTORE POP DUP2 MSTORE PUSH1 0x20 ADD PUSH1 0x40 MLOAD DUP1 PUSH1 0x40 ADD PUSH1 0x40 MSTORE DUP1 PUSH1 0x4 DUP2 MSTORE PUSH1 0x20 ADD PUSH4 0x426C7565 PUSH1 0xE0 SHL DUP2 MSTORE POP DUP2 MSTORE PUSH1 0x20 ADD PUSH1 0x40 MLOAD DUP1 PUSH1 0x40 ADD PUSH1 0x40 MSTORE DUP1 PUSH1 0x6 DUP2 MSTORE PUSH1 0x20 ADD PUSH6 0x59656C6C6F77 PUSH1 0xD0 SHL DUP2 MSTORE POP DUP2 MSTORE POP DUP5 PUSH1 0x80 ADD DUP2 SWAP1 MSTORE POP DUP9 PUSH1 0x0 PUSH1 0x5 DUP2 LT PUSH2 0x46E JUMPI PUSH2 0x46E PUSH2 0x1D96 JUMP JUMPDEST PUSH1 0x20 MUL ADD MLOAD DUP4 MSTORE DUP9 PUSH1 0x1 PUSH1 0x20 SWAP1 DUP2 MUL SWAP2 SWAP1 SWAP2 ADD MLOAD SWAP1 DUP5 ADD MSTORE DUP9 PUSH1 0x2 PUSH1 0x20 MUL ADD MLOAD PUSH1 0x40 DUP5 ADD MSTORE DUP9 PUSH1 0x3 PUSH1 0x20 MUL ADD MLOAD PUSH1 0x60 DUP5 ADD MSTORE DUP9 PUSH1 0x4 PUSH1 0x20 SWAP1 DUP2 MUL SWAP2 SWAP1 SWAP2 ADD MLOAD PUSH1 0x80 DUP1 DUP7 ADD SWAP2 SWAP1 SWAP2 MSTORE PUSH1 0x40 DUP1 MLOAD PUSH1 0xE0 DUP1 DUP3 ADD DUP4 MSTORE PUSH1 0x4 PUSH1 0xA0 DUP1 DUP5 ADD DUP3 DUP2 MSTORE PUSH4 0x4C6F7665 PUSH1 0xE0 SHL PUSH1 0xC0 DUP1 DUP8 ADD SWAP2 SWAP1 SWAP2 MSTORE SWAP1 DUP6 MSTORE DUP6 MLOAD DUP1 DUP8 ADD DUP8 MSTORE PUSH1 0x5 DUP1 DUP3 MSTORE PUSH5 0x42756E6E79 PUSH1 0xD8 SHL DUP3 DUP12 ADD MSTORE DUP7 DUP11 ADD SWAP2 SWAP1 SWAP2 MSTORE DUP7 MLOAD DUP1 DUP9 ADD DUP9 MSTORE PUSH1 0x7 DUP1 DUP3 MSTORE PUSH7 0x14DA1BD8DAD959 PUSH1 0xCA SHL DUP3 DUP13 ADD MSTORE DUP8 DUP10 ADD SWAP2 SWAP1 SWAP2 MSTORE DUP8 MLOAD DUP1 DUP10 ADD DUP10 MSTORE DUP6 DUP2 MSTORE PUSH4 0x43757465 PUSH1 0xE0 SHL DUP2 DUP13 ADD MSTORE PUSH1 0x60 DUP1 DUP10 ADD SWAP2 SWAP1 SWAP2 MSTORE DUP9 MLOAD DUP1 DUP11 ADD DUP11 MSTORE DUP4 DUP2 MSTORE PUSH5 0x44697A7A79 PUSH1 0xD8 SHL DUP2 DUP14 ADD MSTORE DUP9 DUP12 ADD MSTORE SWAP7 DUP13 MSTORE DUP8 MLOAD DUP1 DUP11 ADD DUP10 MSTORE DUP1 DUP10 ADD DUP3 DUP2 MSTORE PUSH7 0x2932B3BAB630B9 PUSH1 0xC9 SHL DUP3 DUP11 ADD MSTORE DUP2 MSTORE DUP9 MLOAD DUP1 DUP11 ADD DUP11 MSTORE DUP4 DUP2 MSTORE PUSH5 0x1219585C9D PUSH1 0xDA SHL DUP2 DUP14 ADD MSTORE DUP2 DUP13 ADD MSTORE DUP13 DUP12 ADD MSTORE DUP8 MLOAD DUP1 DUP8 ADD DUP10 MSTORE PUSH1 0x6 DUP2 DUP7 ADD DUP2 DUP2 MSTORE PUSH6 0x233637BBB2B9 PUSH1 0xD1 SHL DUP4 DUP8 ADD MSTORE DUP3 MSTORE DUP10 MLOAD DUP1 DUP12 ADD DUP12 MSTORE SWAP1 DUP2 MSTORE PUSH6 0x111A5C1C1959 PUSH1 0xD2 SHL DUP2 DUP14 ADD MSTORE DUP2 DUP13 ADD MSTORE DUP9 MLOAD DUP1 DUP11 ADD DUP11 MSTORE DUP7 DUP2 MSTORE PUSH4 0x57617679 PUSH1 0xE0 SHL DUP2 DUP14 ADD MSTORE DUP2 DUP11 ADD MSTORE DUP9 MLOAD DUP1 DUP11 ADD DUP11 MSTORE SWAP2 DUP3 MSTORE PUSH7 0x436C6173736963 PUSH1 0xC8 SHL DUP3 DUP13 ADD MSTORE DUP1 DUP9 ADD SWAP2 SWAP1 SWAP2 MSTORE DUP8 MLOAD DUP1 DUP10 ADD DUP10 MSTORE DUP6 DUP2 MSTORE PUSH4 0x4E6F6E65 PUSH1 0xE0 SHL DUP2 DUP13 ADD DUP2 SWAP1 MSTORE DUP3 DUP12 ADD SWAP2 SWAP1 SWAP2 MSTORE DUP13 DUP10 ADD SWAP2 SWAP1 SWAP2 MSTORE DUP8 MLOAD SWAP6 DUP7 ADD DUP9 MSTORE PUSH1 0x9 SWAP4 DUP7 ADD SWAP4 DUP5 MSTORE PUSH9 0x537072696E6B6C6573 PUSH1 0xB8 SHL SWAP3 DUP7 ADD SWAP3 SWAP1 SWAP3 MSTORE SWAP2 DUP5 MSTORE DUP6 MLOAD DUP1 DUP8 ADD DUP8 MSTORE PUSH1 0xC DUP2 MSTORE PUSH12 0x4D617273686D656C6C6F7773 PUSH1 0xA0 SHL DUP2 DUP11 ADD MSTORE DUP5 DUP10 ADD MSTORE DUP6 MLOAD DUP1 DUP8 ADD DUP8 MSTORE DUP3 DUP2 MSTORE PUSH5 0x537972757 PUSH1 0xDC SHL DUP2 DUP11 ADD MSTORE DUP5 DUP8 ADD MSTORE DUP6 MLOAD DUP1 DUP8 ADD DUP8 MSTORE SWAP2 DUP3 MSTORE PUSH5 0x5374617273 PUSH1 0xD8 SHL DUP3 DUP10 ADD MSTORE DUP4 DUP6 ADD SWAP2 SWAP1 SWAP2 MSTORE DUP5 MLOAD DUP1 DUP7 ADD SWAP1 SWAP6 MSTORE SWAP1 DUP5 MSTORE SWAP5 DUP4 ADD SWAP5 SWAP1 SWAP5 MSTORE SWAP2 DUP4 ADD MSTORE DUP4 ADD MSTORE DUP8 PUSH1 0x0 PUSH1 0x20 MUL ADD MLOAD DUP2 MSTORE DUP8 PUSH1 0x1 PUSH1 0x20 SWAP1 DUP2 MUL SWAP2 SWAP1 SWAP2 ADD MLOAD SWAP1 DUP3 ADD MSTORE DUP8 PUSH1 0x2 PUSH1 0x20 MUL ADD MLOAD PUSH1 0x40 DUP3 ADD MSTORE DUP8 PUSH1 0x3 PUSH1 0x20 MUL ADD MLOAD PUSH1 0x60 DUP3 ADD MSTORE PUSH1 0x0 DUP9 PUSH1 0x4 PUSH1 0x20 MUL ADD MLOAD SWAP1 POP PUSH1 0x0 PUSH1 0x40 MLOAD DUP1 PUSH2 0x140 ADD PUSH1 0x40 MSTORE DUP1 DUP7 PUSH1 0x0 ADD MLOAD DUP2 MSTORE PUSH1 0x20 ADD DUP7 PUSH1 0x20 ADD MLOAD DUP2 MSTORE PUSH1 0x20 ADD DUP7 PUSH1 0x40 ADD MLOAD DUP2 MSTORE PUSH1 0x20 ADD DUP7 PUSH1 0x60 ADD MLOAD DUP2 MSTORE PUSH1 0x20 ADD DUP7 PUSH1 0x80 ADD MLOAD DUP2 MSTORE PUSH1 0x20 ADD DUP5 PUSH1 0x0 ADD MLOAD DUP2 MSTORE PUSH1 0x20 ADD DUP5 PUSH1 0x20 ADD MLOAD DUP2 MSTORE PUSH1 0x20 ADD DUP5 PUSH1 0x40 ADD MLOAD DUP2 MSTORE PUSH1 0x20 ADD DUP5 PUSH1 0x60 ADD MLOAD DUP2 MSTORE PUSH1 0x20 ADD DUP4 DUP2 MSTORE POP SWAP1 POP PUSH1 0x0 PUSH2 0x78F DUP7 PUSH1 0x0 ADD MLOAD PUSH2 0x13A7 JUMP JUMPDEST PUSH2 0x79C DUP8 PUSH1 0x20 ADD MLOAD PUSH2 0x13A7 JUMP JUMPDEST PUSH2 0x7A9 DUP9 PUSH1 0x40 ADD MLOAD PUSH2 0x13A7 JUMP JUMPDEST PUSH2 0x7B6 DUP10 PUSH1 0x60 ADD MLOAD PUSH2 0x13A7 JUMP JUMPDEST PUSH2 0x7C3 DUP11 PUSH1 0x80 ADD MLOAD PUSH2 0x13A7 JUMP JUMPDEST DUP9 MLOAD PUSH2 0x7CE SWAP1 PUSH2 0x13A7 JUMP JUMPDEST PUSH2 0x7DB DUP11 PUSH1 0x20 ADD MLOAD PUSH2 0x13A7 JUMP JUMPDEST PUSH2 0x7E8 DUP12 PUSH1 0x40 ADD MLOAD PUSH2 0x13A7 JUMP JUMPDEST PUSH2 0x7F5 DUP13 PUSH1 0x60 ADD MLOAD PUSH2 0x13A7 JUMP JUMPDEST PUSH1 0x40 MLOAD PUSH1 0x20 ADD PUSH2 0x80D SWAP10 SWAP9 SWAP8 SWAP7 SWAP6 SWAP5 SWAP4 SWAP3 SWAP2 SWAP1 PUSH2 0x18F7 JUMP JUMPDEST PUSH1 0x40 DUP1 MLOAD PUSH1 0x1F NOT DUP2 DUP5 SUB ADD DUP2 MSTORE SWAP2 SWAP1 MSTORE DUP8 MLOAD DUP8 MLOAD SWAP2 SWAP3 POP PUSH1 0x0 SWAP2 PUSH1 0x6 DUP2 LT PUSH2 0x837 JUMPI PUSH2 0x837 PUSH2 0x1D96 JUMP JUMPDEST PUSH1 0x20 MUL ADD MLOAD DUP9 PUSH1 0x40 ADD MLOAD DUP9 PUSH1 0x40 ADD MLOAD PUSH1 0x4 DUP2 LT PUSH2 0x856 JUMPI PUSH2 0x856 PUSH2 0x1D96 JUMP JUMPDEST PUSH1 0x20 MUL ADD MLOAD PUSH1 0x40 MLOAD PUSH1 0x20 ADD PUSH2 0x86C SWAP3 SWAP2 SWAP1 PUSH2 0x1ADA JUMP JUMPDEST PUSH1 0x40 MLOAD PUSH1 0x20 DUP2 DUP4 SUB SUB DUP2 MSTORE SWAP1 PUSH1 0x40 MSTORE SWAP1 POP PUSH1 0x0 DUP9 PUSH1 0x60 ADD MLOAD DUP9 PUSH1 0x60 ADD MLOAD PUSH1 0x4 DUP2 LT PUSH2 0x899 JUMPI PUSH2 0x899 PUSH2 0x1D96 JUMP JUMPDEST PUSH1 0x20 MUL ADD MLOAD DUP8 PUSH1 0x40 ADD MLOAD DUP8 PUSH1 0x40 ADD MLOAD PUSH1 0x5 DUP2 LT PUSH2 0x8B8 JUMPI PUSH2 0x8B8 PUSH2 0x1D96 JUMP JUMPDEST PUSH1 0x20 MUL ADD MLOAD PUSH1 0x40 MLOAD PUSH1 0x20 ADD PUSH2 0x8CE SWAP3 SWAP2 SWAP1 PUSH2 0x19B7 JUMP JUMPDEST PUSH1 0x40 MLOAD PUSH1 0x20 DUP2 DUP4 SUB SUB DUP2 MSTORE SWAP1 PUSH1 0x40 MSTORE SWAP1 POP PUSH1 0x0 DUP8 PUSH1 0x60 ADD MLOAD DUP8 PUSH1 0x60 ADD MLOAD PUSH1 0x5 DUP2 LT PUSH2 0x8FB JUMPI PUSH2 0x8FB PUSH2 0x1D96 JUMP JUMPDEST PUSH1 0x20 MUL ADD MLOAD DUP9 PUSH1 0x20 ADD MLOAD DUP9 PUSH1 0x20 ADD MLOAD PUSH1 0x2 DUP2 LT PUSH2 0x91A JUMPI PUSH2 0x91A PUSH2 0x1D96 JUMP JUMPDEST PUSH1 0x20 MUL ADD MLOAD PUSH1 0x40 MLOAD PUSH1 0x20 ADD PUSH2 0x930 SWAP3 SWAP2 SWAP1 PUSH2 0x1BA4 JUMP JUMPDEST PUSH1 0x40 DUP1 MLOAD PUSH1 0x1F NOT DUP2 DUP5 SUB ADD DUP2 MSTORE SWAP2 SWAP1 MSTORE DUP9 MLOAD DUP9 MLOAD SWAP2 SWAP3 POP PUSH1 0x0 SWAP2 PUSH1 0x5 DUP2 LT PUSH2 0x95A JUMPI PUSH2 0x95A PUSH2 0x1D96 JUMP JUMPDEST PUSH1 0x20 MUL ADD MLOAD PUSH1 0x40 MLOAD PUSH1 0x20 ADD PUSH2 0x96F SWAP2 SWAP1 PUSH2 0x1A76 JUMP JUMPDEST PUSH1 0x40 MLOAD PUSH1 0x20 DUP2 DUP4 SUB SUB DUP2 MSTORE SWAP1 PUSH1 0x40 MSTORE SWAP1 POP DUP4 DUP4 DUP4 DUP4 PUSH1 0x40 MLOAD PUSH1 0x20 ADD PUSH2 0x997 SWAP5 SWAP4 SWAP3 SWAP2 SWAP1 PUSH2 0x18A0 JUMP JUMPDEST PUSH1 0x40 DUP1 MLOAD PUSH1 0x1F NOT DUP2 DUP5 SUB ADD DUP2 MSTORE SWAP2 SWAP1 MSTORE SWAP14 POP SWAP4 SWAP12 POP SWAP4 SWAP10 POP POP POP POP POP POP POP POP POP POP SWAP3 POP SWAP3 POP SWAP3 JUMP JUMPDEST PUSH1 0x60 DUP1 PUSH2 0x9CA PUSH2 0x167B JUMP JUMPDEST PUSH2 0x9D2 PUSH2 0x169A JUMP JUMPDEST PUSH2 0xA04 PUSH1 0x40 MLOAD DUP1 PUSH1 0xA0 ADD PUSH1 0x40 MSTORE DUP1 PUSH1 0x0 DUP2 MSTORE PUSH1 0x20 ADD PUSH1 0x0 DUP2 MSTORE PUSH1 0x20 ADD PUSH1 0x0 DUP2 MSTORE PUSH1 0x20 ADD PUSH1 0x0 DUP2 MSTORE PUSH1 0x20 ADD PUSH1 0x0 DUP2 MSTORE POP SWAP1 JUMP JUMPDEST PUSH2 0xA0C PUSH2 0x16E6 JUMP JUMPDEST PUSH2 0xA37 PUSH1 0x40 MLOAD DUP1 PUSH1 0x80 ADD PUSH1 0x40 MSTORE DUP1 PUSH1 0x0 DUP2 MSTORE PUSH1 0x20 ADD PUSH1 0x0 DUP2 MSTORE PUSH1 0x20 ADD PUSH1 0x0 DUP2 MSTORE PUSH1 0x20 ADD PUSH1 0x0 DUP2 MSTORE POP SWAP1 JUMP JUMPDEST PUSH1 0x0 PUSH2 0xA44 PUSH2 0x234 PUSH2 0x1567 JUMP JUMPDEST PUSH1 0x7B EQ ISZERO PUSH2 0xA50 JUMPI POP PUSH1 0x1 JUMPDEST PUSH1 0x1 DUP10 GT ISZERO PUSH2 0xA71 JUMPI PUSH2 0xA64 PUSH2 0x2B1 PUSH2 0x1567 JUMP JUMPDEST PUSH2 0x141 EQ ISZERO PUSH2 0xA71 JUMPI POP PUSH1 0x1 JUMPDEST PUSH1 0x32 DUP10 GT ISZERO PUSH2 0xA92 JUMPI PUSH2 0xA85 PUSH2 0x282 PUSH2 0x1567 JUMP JUMPDEST PUSH2 0x1A4 EQ ISZERO PUSH2 0xA92 JUMPI POP PUSH1 0x1 JUMPDEST PUSH1 0x64 DUP10 GT ISZERO PUSH2 0xAB3 JUMPI PUSH2 0xAA6 PUSH2 0x22B PUSH2 0x1567 JUMP JUMPDEST PUSH2 0x1A4 EQ ISZERO PUSH2 0xAB3 JUMPI POP PUSH1 0x1 JUMPDEST PUSH1 0xC8 DUP10 GT ISZERO PUSH2 0xAD2 JUMPI PUSH2 0xAC6 PUSH1 0xFA PUSH2 0x1567 JUMP JUMPDEST PUSH1 0x90 EQ ISZERO PUSH2 0xAD2 JUMPI POP PUSH1 0x1 JUMPDEST PUSH1 0x40 MLOAD DUP1 PUSH1 0xC0 ADD PUSH1 0x40 MSTORE DUP1 PUSH1 0x40 MLOAD DUP1 PUSH1 0x40 ADD PUSH1 0x40 MSTORE DUP1 PUSH1 0x4 DUP2 MSTORE PUSH1 0x20 ADD PUSH4 0x426C7565 PUSH1 0xE0 SHL DUP2 MSTORE POP DUP2 MSTORE PUSH1 0x20 ADD PUSH1 0x40 MLOAD DUP1 PUSH1 0x40 ADD PUSH1 0x40 MSTORE DUP1 PUSH1 0x5 DUP2 MSTORE PUSH1 0x20 ADD PUSH5 0x23B932B2B7 PUSH1 0xD9 SHL DUP2 MSTORE POP DUP2 MSTORE PUSH1 0x20 ADD PUSH1 0x40 MLOAD DUP1 PUSH1 0x40 ADD PUSH1 0x40 MSTORE DUP1 PUSH1 0x4 DUP2 MSTORE PUSH1 0x20 ADD PUSH4 0x50696E6B PUSH1 0xE0 SHL DUP2 MSTORE POP DUP2 MSTORE PUSH1 0x20 ADD PUSH1 0x40 MLOAD DUP1 PUSH1 0x40 ADD PUSH1 0x40 MSTORE DUP1 PUSH1 0x6 DUP2 MSTORE PUSH1 0x20 ADD PUSH6 0x4F72616E6765 PUSH1 0xD0 SHL DUP2 MSTORE POP DUP2 MSTORE PUSH1 0x20 ADD PUSH1 0x40 MLOAD DUP1 PUSH1 0x40 ADD PUSH1 0x40 MSTORE DUP1 PUSH1 0x6 DUP2 MSTORE PUSH1 0x20 ADD PUSH6 0x59656C6C6F77 PUSH1 0xD0 SHL DUP2 MSTORE POP DUP2 MSTORE PUSH1 0x20 ADD PUSH1 0x40 MLOAD DUP1 PUSH1 0x40 ADD PUSH1 0x40 MSTORE DUP1 PUSH1 0x6 DUP2 MSTORE PUSH1 0x20 ADD PUSH6 0x507572706C65 PUSH1 0xD0 SHL DUP2 MSTORE POP DUP2 MSTORE POP DUP6 PUSH1 0x0 ADD DUP2 SWAP1 MSTORE POP PUSH1 0x40 MLOAD DUP1 PUSH1 0x60 ADD PUSH1 0x40 MSTORE DUP1 PUSH1 0x40 MLOAD DUP1 PUSH1 0x40 ADD PUSH1 0x40 MSTORE DUP1 PUSH1 0x6 DUP2 MSTORE PUSH1 0x20 ADD PUSH6 0x507572706C65 PUSH1 0xD0 SHL DUP2 MSTORE POP DUP2 MSTORE PUSH1 0x20 ADD PUSH1 0x40 MLOAD DUP1 PUSH1 0x40 ADD PUSH1 0x40 MSTORE DUP1 PUSH1 0x4 DUP2 MSTORE PUSH1 0x20 ADD PUSH4 0x426C7565 PUSH1 0xE0 SHL DUP2 MSTORE POP DUP2 MSTORE PUSH1 0x20 ADD PUSH1 0x40 MLOAD DUP1 PUSH1 0x40 ADD PUSH1 0x40 MSTORE DUP1 PUSH1 0x6 DUP2 MSTORE PUSH1 0x20 ADD PUSH6 0x4F72616E6765 PUSH1 0xD0 SHL DUP2 MSTORE POP DUP2 MSTORE POP DUP6 PUSH1 0x20 ADD DUP2 SWAP1 MSTORE POP PUSH1 0x40 MLOAD DUP1 PUSH1 0x80 ADD PUSH1 0x40 MSTORE DUP1 PUSH1 0x40 MLOAD DUP1 PUSH1 0x40 ADD PUSH1 0x40 MSTORE DUP1 PUSH1 0x9 DUP2 MSTORE PUSH1 0x20 ADD PUSH9 0x43686F636F6C617465 PUSH1 0xB8 SHL DUP2 MSTORE POP DUP2 MSTORE PUSH1 0x20 ADD PUSH1 0x40 MLOAD DUP1 PUSH1 0x40 ADD PUSH1 0x40 MSTORE DUP1 PUSH1 0x3 DUP2 MSTORE PUSH1 0x20 ADD PUSH3 0x13D85D PUSH1 0xEA SHL DUP2 MSTORE POP DUP2 MSTORE PUSH1 0x20 ADD PUSH1 0x40 MLOAD DUP1 PUSH1 0x40 ADD PUSH1 0x40 MSTORE DUP1 PUSH1 0x7 DUP2 MSTORE PUSH1 0x20 ADD PUSH7 0x56616E696C6C61 PUSH1 0xC8 SHL DUP2 MSTORE POP DUP2 MSTORE PUSH1 0x20 ADD PUSH1 0x40 MLOAD DUP1 PUSH1 0x40 ADD PUSH1 0x40 MSTORE DUP1 PUSH1 0x4 DUP2 MSTORE PUSH1 0x20 ADD PUSH4 0x52415245 PUSH1 0xE0 SHL DUP2 MSTORE POP DUP2 MSTORE POP DUP6 PUSH1 0x40 ADD DUP2 SWAP1 MSTORE POP PUSH1 0x40 MLOAD DUP1 PUSH1 0x80 ADD PUSH1 0x40 MSTORE DUP1 PUSH1 0x40 MLOAD DUP1 PUSH1 0x40 ADD PUSH1 0x40 MSTORE DUP1 PUSH1 0xA DUP2 MSTORE PUSH1 0x20 ADD PUSH10 0x53747261776265727279 PUSH1 0xB0 SHL DUP2 MSTORE POP DUP2 MSTORE PUSH1 0x20 ADD PUSH1 0x40 MLOAD DUP1 PUSH1 0x40 ADD PUSH1 0x40 MSTORE DUP1 PUSH1 0x9 DUP2 MSTORE PUSH1 0x20 ADD PUSH9 0x50696E6B6265727279 PUSH1 0xB8 SHL DUP2 MSTORE POP DUP2 MSTORE PUSH1 0x20 ADD PUSH1 0x40 MLOAD DUP1 PUSH1 0x40 ADD PUSH1 0x40 MSTORE DUP1 PUSH1 0x6 DUP2 MSTORE PUSH1 0x20 ADD PUSH6 0x42616E616E61 PUSH1 0xD0 SHL DUP2 MSTORE POP DUP2 MSTORE PUSH1 0x20 ADD PUSH1 0x40 MLOAD DUP1 PUSH1 0x40 ADD PUSH1 0x40 MSTORE DUP1 PUSH1 0x9 DUP2 MSTORE PUSH1 0x20 ADD PUSH9 0x426C75656265727279 PUSH1 0xB8 SHL DUP2 MSTORE POP DUP2 MSTORE POP DUP6 PUSH1 0x60 ADD DUP2 SWAP1 MSTORE POP PUSH1 0x40 MLOAD DUP1 PUSH1 0xA0 ADD PUSH1 0x40 MSTORE DUP1 PUSH1 0x40 MLOAD DUP1 PUSH1 0x40 ADD PUSH1 0x40 MSTORE DUP1 PUSH1 0x6 DUP2 MSTORE PUSH1 0x20 ADD PUSH6 0x507572706C65 PUSH1 0xD0 SHL DUP2 MSTORE POP DUP2 MSTORE PUSH1 0x20 ADD PUSH1 0x40 MLOAD DUP1 PUSH1 0x40 ADD PUSH1 0x40 MSTORE DUP1 PUSH1 0x5 DUP2 MSTORE PUSH1 0x20 ADD PUSH5 0x5768697465 PUSH1 0xD8 SHL DUP2 MSTORE POP DUP2 MSTORE PUSH1 0x20 ADD PUSH1 0x40 MLOAD DUP1 PUSH1 0x40 ADD PUSH1 0x40 MSTORE DUP1 PUSH1 0x4 DUP2 MSTORE PUSH1 0x20 ADD PUSH4 0x50696E6B PUSH1 0xE0 SHL DUP2 MSTORE POP DUP2 MSTORE PUSH1 0x20 ADD PUSH1 0x40 MLOAD DUP1 PUSH1 0x40 ADD PUSH1 0x40 MSTORE DUP1 PUSH1 0x4 DUP2 MSTORE PUSH1 0x20 ADD PUSH4 0x426C7565 PUSH1 0xE0 SHL DUP2 MSTORE POP DUP2 MSTORE PUSH1 0x20 ADD PUSH1 0x40 MLOAD DUP1 PUSH1 0x40 ADD PUSH1 0x40 MSTORE DUP1 PUSH1 0x6 DUP2 MSTORE PUSH1 0x20 ADD PUSH6 0x59656C6C6F77 PUSH1 0xD0 SHL DUP2 MSTORE POP DUP2 MSTORE POP DUP6 PUSH1 0x80 ADD DUP2 SWAP1 MSTORE POP PUSH2 0xE4C DUP6 PUSH1 0x0 ADD MLOAD POP PUSH1 0x6 PUSH2 0x1567 JUMP JUMPDEST DUP5 MSTORE PUSH2 0xE58 PUSH1 0x3 PUSH2 0x1567 JUMP JUMPDEST PUSH1 0x20 DUP6 ADD MSTORE PUSH2 0xE71 PUSH2 0xE6C PUSH1 0x1 PUSH1 0x4 PUSH2 0x1D0F JUMP JUMPDEST PUSH2 0x1567 JUMP JUMPDEST PUSH1 0x40 DUP6 ADD MSTORE PUSH2 0xE80 PUSH1 0x4 PUSH2 0x1567 JUMP JUMPDEST PUSH1 0x60 DUP6 ADD MSTORE PUSH2 0xE8F PUSH1 0x5 PUSH2 0x1567 JUMP JUMPDEST PUSH1 0x80 DUP1 DUP7 ADD SWAP2 SWAP1 SWAP2 MSTORE PUSH1 0x40 DUP1 MLOAD PUSH1 0xE0 DUP1 DUP3 ADD DUP4 MSTORE PUSH1 0x4 PUSH1 0xA0 DUP1 DUP5 ADD DUP3 DUP2 MSTORE PUSH4 0x4C6F7665 PUSH1 0xE0 SHL PUSH1 0xC0 DUP1 DUP8 ADD SWAP2 SWAP1 SWAP2 MSTORE SWAP1 DUP6 MSTORE DUP6 MLOAD DUP1 DUP8 ADD DUP8 MSTORE PUSH1 0x5 DUP1 DUP3 MSTORE PUSH5 0x42756E6E79 PUSH1 0xD8 SHL PUSH1 0x20 DUP4 DUP2 ADD SWAP2 SWAP1 SWAP2 MSTORE DUP1 DUP9 ADD SWAP3 SWAP1 SWAP3 MSTORE DUP8 MLOAD DUP1 DUP10 ADD DUP10 MSTORE PUSH1 0x7 DUP1 DUP3 MSTORE PUSH7 0x14DA1BD8DAD959 PUSH1 0xCA SHL DUP3 DUP6 ADD MSTORE DUP9 DUP11 ADD SWAP2 SWAP1 SWAP2 MSTORE DUP9 MLOAD DUP1 DUP11 ADD DUP11 MSTORE DUP7 DUP2 MSTORE PUSH4 0x43757465 PUSH1 0xE0 SHL DUP2 DUP6 ADD MSTORE PUSH1 0x60 DUP1 DUP11 ADD SWAP2 SWAP1 SWAP2 MSTORE DUP10 MLOAD DUP1 DUP12 ADD DUP12 MSTORE DUP4 DUP2 MSTORE PUSH5 0x44697A7A79 PUSH1 0xD8 SHL DUP2 DUP7 ADD MSTORE DUP10 DUP13 ADD MSTORE SWAP8 DUP14 MSTORE DUP9 MLOAD DUP1 DUP12 ADD DUP11 MSTORE DUP1 DUP11 ADD DUP3 DUP2 MSTORE PUSH7 0x2932B3BAB630B9 PUSH1 0xC9 SHL DUP3 DUP12 ADD MSTORE DUP2 MSTORE DUP10 MLOAD DUP1 DUP12 ADD DUP12 MSTORE DUP4 DUP2 MSTORE PUSH5 0x1219585C9D PUSH1 0xDA SHL DUP2 DUP7 ADD MSTORE DUP2 DUP6 ADD MSTORE DUP14 DUP5 ADD MSTORE DUP9 MLOAD DUP1 DUP9 ADD DUP11 MSTORE PUSH1 0x6 DUP2 DUP8 ADD DUP2 DUP2 MSTORE PUSH6 0x233637BBB2B9 PUSH1 0xD1 SHL DUP4 DUP9 ADD MSTORE DUP3 MSTORE DUP11 MLOAD DUP1 DUP13 ADD DUP13 MSTORE SWAP1 DUP2 MSTORE PUSH6 0x111A5C1C1959 PUSH1 0xD2 SHL DUP2 DUP7 ADD MSTORE DUP2 DUP6 ADD MSTORE DUP10 MLOAD DUP1 DUP12 ADD DUP12 MSTORE DUP8 DUP2 MSTORE PUSH4 0x57617679 PUSH1 0xE0 SHL DUP2 DUP7 ADD MSTORE DUP2 DUP12 ADD MSTORE DUP10 MLOAD DUP1 DUP12 ADD DUP12 MSTORE SWAP2 DUP3 MSTORE PUSH7 0x436C6173736963 PUSH1 0xC8 SHL DUP3 DUP6 ADD MSTORE DUP1 DUP10 ADD SWAP2 SWAP1 SWAP2 MSTORE DUP9 MLOAD DUP1 DUP11 ADD DUP11 MSTORE DUP7 DUP2 MSTORE PUSH4 0x4E6F6E65 PUSH1 0xE0 SHL DUP2 DUP6 ADD DUP2 SWAP1 MSTORE DUP3 DUP13 ADD SWAP2 SWAP1 SWAP2 MSTORE DUP14 DUP11 ADD SWAP2 SWAP1 SWAP2 MSTORE DUP9 MLOAD SWAP7 DUP8 ADD DUP10 MSTORE PUSH1 0x9 SWAP5 DUP8 ADD SWAP5 DUP6 MSTORE PUSH9 0x537072696E6B6C6573 PUSH1 0xB8 SHL SWAP4 DUP8 ADD SWAP4 SWAP1 SWAP4 MSTORE SWAP3 DUP6 MSTORE DUP7 MLOAD DUP1 DUP9 ADD DUP9 MSTORE PUSH1 0xC DUP2 MSTORE PUSH12 0x4D617273686D656C6C6F7773 PUSH1 0xA0 SHL DUP2 DUP4 ADD MSTORE DUP6 DUP3 ADD MSTORE DUP7 MLOAD DUP1 DUP9 ADD DUP9 MSTORE DUP4 DUP2 MSTORE PUSH5 0x537972757 PUSH1 0xDC SHL DUP2 DUP4 ADD MSTORE DUP6 DUP9 ADD MSTORE DUP7 MLOAD DUP1 DUP9 ADD DUP9 MSTORE DUP4 DUP2 MSTORE PUSH5 0x5374617273 PUSH1 0xD8 SHL DUP2 DUP4 ADD MSTORE DUP6 DUP8 ADD MSTORE DUP7 MLOAD DUP1 DUP9 ADD SWAP1 SWAP8 MSTORE SWAP3 DUP7 MSTORE SWAP2 DUP6 ADD SWAP2 SWAP1 SWAP2 MSTORE SWAP4 DUP2 ADD SWAP3 SWAP1 SWAP3 MSTORE DUP6 ADD MSTORE PUSH2 0x10C1 SWAP1 PUSH2 0x1567 JUMP JUMPDEST DUP3 MSTORE PUSH2 0x10CD PUSH1 0x2 PUSH2 0x1567 JUMP JUMPDEST PUSH1 0x20 DUP4 ADD MSTORE PUSH2 0x10DC PUSH1 0x5 PUSH2 0x1567 JUMP JUMPDEST PUSH1 0x40 DUP4 ADD MSTORE PUSH2 0x10EB PUSH1 0x5 PUSH2 0x1567 JUMP JUMPDEST PUSH1 0x60 DUP4 ADD MSTORE PUSH1 0x1 DUP2 EQ ISZERO PUSH2 0x110B JUMPI PUSH2 0x1105 PUSH1 0x1 PUSH1 0x4 PUSH2 0x1D0F JUMP JUMPDEST PUSH1 0x40 DUP6 ADD MSTORE JUMPDEST PUSH1 0x40 DUP1 MLOAD PUSH2 0x140 DUP2 ADD DUP3 MSTORE DUP6 MLOAD DUP2 MSTORE PUSH1 0x20 DUP1 DUP8 ADD MLOAD DUP2 DUP4 ADD MSTORE DUP7 DUP4 ADD MLOAD DUP3 DUP5 ADD MSTORE PUSH1 0x60 DUP1 DUP9 ADD MLOAD DUP2 DUP5 ADD MSTORE PUSH1 0x80 DUP1 DUP10 ADD MLOAD SWAP1 DUP5 ADD MSTORE DUP6 MLOAD PUSH1 0xA0 DUP5 ADD MSTORE SWAP1 DUP6 ADD MLOAD PUSH1 0xC0 DUP4 ADD MSTORE SWAP2 DUP5 ADD MLOAD PUSH1 0xE0 DUP3 ADD MSTORE SWAP1 DUP4 ADD MLOAD PUSH2 0x100 DUP3 ADD MSTORE PUSH2 0x120 DUP2 ADD DUP3 SWAP1 MSTORE DUP5 MLOAD PUSH1 0x0 SWAP1 PUSH2 0x1179 SWAP1 PUSH2 0x13A7 JUMP JUMPDEST PUSH2 0x1186 DUP8 PUSH1 0x20 ADD MLOAD PUSH2 0x13A7 JUMP JUMPDEST PUSH2 0x1193 DUP9 PUSH1 0x40 ADD MLOAD PUSH2 0x13A7 JUMP JUMPDEST PUSH2 0x11A0 DUP10 PUSH1 0x60 ADD MLOAD PUSH2 0x13A7 JUMP JUMPDEST PUSH2 0x11AD DUP11 PUSH1 0x80 ADD MLOAD PUSH2 0x13A7 JUMP JUMPDEST DUP9 MLOAD PUSH2 0x11B8 SWAP1 PUSH2 0x13A7 JUMP JUMPDEST PUSH2 0x11C5 DUP11 PUSH1 0x20 ADD MLOAD PUSH2 0x13A7 JUMP JUMPDEST PUSH2 0x11D2 DUP12 PUSH1 0x40 ADD MLOAD PUSH2 0x13A7 JUMP JUMPDEST PUSH2 0x11DF DUP13 PUSH1 0x60 ADD MLOAD PUSH2 0x13A7 JUMP JUMPDEST PUSH1 0x40 MLOAD PUSH1 0x20 ADD PUSH2 0x11F7 SWAP10 SWAP9 SWAP8 SWAP7 SWAP6 SWAP5 SWAP4 SWAP3 SWAP2 SWAP1 PUSH2 0x18F7 JUMP JUMPDEST PUSH1 0x40 DUP1 MLOAD PUSH1 0x1F NOT DUP2 DUP5 SUB ADD DUP2 MSTORE SWAP2 SWAP1 MSTORE DUP8 MLOAD DUP8 MLOAD SWAP2 SWAP3 POP PUSH1 0x0 SWAP2 PUSH1 0x6 DUP2 LT PUSH2 0x1221 JUMPI PUSH2 0x1221 PUSH2 0x1D96 JUMP JUMPDEST PUSH1 0x20 MUL ADD MLOAD DUP9 PUSH1 0x40 ADD MLOAD DUP9 PUSH1 0x40 ADD MLOAD PUSH1 0x4 DUP2 LT PUSH2 0x1240 JUMPI PUSH2 0x1240 PUSH2 0x1D96 JUMP JUMPDEST PUSH1 0x20 MUL ADD MLOAD PUSH1 0x40 MLOAD PUSH1 0x20 ADD PUSH2 0x1256 SWAP3 SWAP2 SWAP1 PUSH2 0x1ADA JUMP JUMPDEST PUSH1 0x40 MLOAD PUSH1 0x20 DUP2 DUP4 SUB SUB DUP2 MSTORE SWAP1 PUSH1 0x40 MSTORE SWAP1 POP PUSH1 0x0 DUP9 PUSH1 0x60 ADD MLOAD DUP9 PUSH1 0x60 ADD MLOAD PUSH1 0x4 DUP2 LT PUSH2 0x1283 JUMPI PUSH2 0x1283 PUSH2 0x1D96 JUMP JUMPDEST PUSH1 0x20 MUL ADD MLOAD DUP8 PUSH1 0x40 ADD MLOAD DUP8 PUSH1 0x40 ADD MLOAD PUSH1 0x5 DUP2 LT PUSH2 0x12A2 JUMPI PUSH2 0x12A2 PUSH2 0x1D96 JUMP JUMPDEST PUSH1 0x20 MUL ADD MLOAD PUSH1 0x40 MLOAD PUSH1 0x20 ADD PUSH2 0x12B8 SWAP3 SWAP2 SWAP1 PUSH2 0x19B7 JUMP JUMPDEST PUSH1 0x40 MLOAD PUSH1 0x20 DUP2 DUP4 SUB SUB DUP2 MSTORE SWAP1 PUSH1 0x40 MSTORE SWAP1 POP PUSH1 0x0 DUP8 PUSH1 0x60 ADD MLOAD DUP8 PUSH1 0x60 ADD MLOAD PUSH1 0x5 DUP2 LT PUSH2 0x12E5 JUMPI PUSH2 0x12E5 PUSH2 0x1D96 JUMP JUMPDEST PUSH1 0x20 MUL ADD MLOAD DUP9 PUSH1 0x20 ADD MLOAD DUP9 PUSH1 0x20 ADD MLOAD PUSH1 0x2 DUP2 LT PUSH2 0x1304 JUMPI PUSH2 0x1304 PUSH2 0x1D96 JUMP JUMPDEST PUSH1 0x20 MUL ADD MLOAD PUSH1 0x40 MLOAD PUSH1 0x20 ADD PUSH2 0x131A SWAP3 SWAP2 SWAP1 PUSH2 0x1BA4 JUMP JUMPDEST PUSH1 0x40 DUP1 MLOAD PUSH1 0x1F NOT DUP2 DUP5 SUB ADD DUP2 MSTORE SWAP2 SWAP1 MSTORE DUP9 MLOAD DUP9 MLOAD SWAP2 SWAP3 POP PUSH1 0x0 SWAP2 PUSH1 0x5 DUP2 LT PUSH2 0x1344 JUMPI PUSH2 0x1344 PUSH2 0x1D96 JUMP JUMPDEST PUSH1 0x20 MUL ADD MLOAD PUSH1 0x40 MLOAD PUSH1 0x20 ADD PUSH2 0x1359 SWAP2 SWAP1 PUSH2 0x1A76 JUMP JUMPDEST PUSH1 0x40 MLOAD PUSH1 0x20 DUP2 DUP4 SUB SUB DUP2 MSTORE SWAP1 PUSH1 0x40 MSTORE SWAP1 POP DUP4 DUP4 DUP4 DUP4 PUSH1 0x40 MLOAD PUSH1 0x20 ADD PUSH2 0x1381 SWAP5 SWAP4 SWAP3 SWAP2 SWAP1 PUSH2 0x18A0 JUMP JUMPDEST PUSH1 0x40 DUP1 MLOAD DUP1 DUP4 SUB PUSH1 0x1F NOT ADD DUP2 MSTORE SWAP2 SWAP1 MSTORE SWAP16 SWAP5 SWAP15 POP SWAP5 SWAP13 POP SWAP3 SWAP11 POP POP POP POP POP POP POP POP POP POP POP JUMP JUMPDEST PUSH1 0x60 DUP2 PUSH2 0x13CB JUMPI POP POP PUSH1 0x40 DUP1 MLOAD DUP1 DUP3 ADD SWAP1 SWAP2 MSTORE PUSH1 0x1 DUP2 MSTORE PUSH1 0x3 PUSH1 0xFC SHL PUSH1 0x20 DUP3 ADD MSTORE SWAP1 JUMP JUMPDEST DUP2 PUSH1 0x1 EQ ISZERO PUSH2 0x13F1 JUMPI POP POP PUSH1 0x40 DUP1 MLOAD DUP1 DUP3 ADD SWAP1 SWAP2 MSTORE PUSH1 0x1 DUP2 MSTORE PUSH1 0x31 PUSH1 0xF8 SHL PUSH1 0x20 DUP3 ADD MSTORE SWAP1 JUMP JUMPDEST DUP2 PUSH1 0x2 EQ ISZERO PUSH2 0x1417 JUMPI POP POP PUSH1 0x40 DUP1 MLOAD DUP1 DUP3 ADD SWAP1 SWAP2 MSTORE PUSH1 0x1 DUP2 MSTORE PUSH1 0x19 PUSH1 0xF9 SHL PUSH1 0x20 DUP3 ADD MSTORE SWAP1 JUMP JUMPDEST DUP2 PUSH1 0x3 EQ ISZERO PUSH2 0x143D JUMPI POP POP PUSH1 0x40 DUP1 MLOAD DUP1 DUP3 ADD SWAP1 SWAP2 MSTORE PUSH1 0x1 DUP2 MSTORE PUSH1 0x33 PUSH1 0xF8 SHL PUSH1 0x20 DUP3 ADD MSTORE SWAP1 JUMP JUMPDEST DUP2 PUSH1 0x4 EQ ISZERO PUSH2 0x1463 JUMPI POP POP PUSH1 0x40 DUP1 MLOAD DUP1 DUP3 ADD SWAP1 SWAP2 MSTORE PUSH1 0x1 DUP2 MSTORE PUSH1 0xD PUSH1 0xFA SHL PUSH1 0x20 DUP3 ADD MSTORE SWAP1 JUMP JUMPDEST DUP2 PUSH1 0x5 EQ ISZERO PUSH2 0x1489 JUMPI POP POP PUSH1 0x40 DUP1 MLOAD DUP1 DUP3 ADD SWAP1 SWAP2 MSTORE PUSH1 0x1 DUP2 MSTORE PUSH1 0x35 PUSH1 0xF8 SHL PUSH1 0x20 DUP3 ADD MSTORE SWAP1 JUMP JUMPDEST DUP2 PUSH1 0x6 EQ ISZERO PUSH2 0x14AF JUMPI POP POP PUSH1 0x40 DUP1 MLOAD DUP1 DUP3 ADD SWAP1 SWAP2 MSTORE PUSH1 0x1 DUP2 MSTORE PUSH1 0x1B PUSH1 0xF9 SHL PUSH1 0x20 DUP3 ADD MSTORE SWAP1 JUMP JUMPDEST DUP2 PUSH1 0x7 EQ ISZERO PUSH2 0x14D5 JUMPI POP POP PUSH1 0x40 DUP1 MLOAD DUP1 DUP3 ADD SWAP1 SWAP2 MSTORE PUSH1 0x1 DUP2 MSTORE PUSH1 0x37 PUSH1 0xF8 SHL PUSH1 0x20 DUP3 ADD MSTORE SWAP1 JUMP JUMPDEST DUP2 PUSH1 0x8 EQ ISZERO PUSH2 0x14FB JUMPI POP POP PUSH1 0x40 DUP1 MLOAD DUP1 DUP3 ADD SWAP1 SWAP2 MSTORE PUSH1 0x1 DUP2 MSTORE PUSH1 0x7 PUSH1 0xFB SHL PUSH1 0x20 DUP3 ADD MSTORE SWAP1 JUMP JUMPDEST DUP2 PUSH1 0x9 EQ ISZERO PUSH2 0x1521 JUMPI POP POP PUSH1 0x40 DUP1 MLOAD DUP1 DUP3 ADD SWAP1 SWAP2 MSTORE PUSH1 0x1 DUP2 MSTORE PUSH1 0x39 PUSH1 0xF8 SHL PUSH1 0x20 DUP3 ADD MSTORE SWAP1 JUMP JUMPDEST DUP2 PUSH1 0xA EQ ISZERO PUSH2 0x1548 JUMPI POP POP PUSH1 0x40 DUP1 MLOAD DUP1 DUP3 ADD SWAP1 SWAP2 MSTORE PUSH1 0x2 DUP2 MSTORE PUSH2 0x313 PUSH1 0xF4 SHL PUSH1 0x20 DUP3 ADD MSTORE SWAP1 JUMP JUMPDEST POP POP PUSH1 0x40 DUP1 MLOAD DUP1 DUP3 ADD SWAP1 SWAP2 MSTORE PUSH1 0x3 DUP2 MSTORE PUSH3 0x393939 PUSH1 0xE8 SHL PUSH1 0x20 DUP3 ADD MSTORE SWAP1 JUMP JUMPDEST PUSH1 0x40 MLOAD PUSH12 0xFFFFFFFFFFFFFFFFFFFFFFFF NOT CALLER PUSH1 0x60 SHL AND PUSH1 0x20 DUP3 ADD MSTORE PUSH1 0x0 SWAP1 DUP2 SWAP1 NUMBER SWAP1 TIMESTAMP SWAP1 PUSH1 0x34 ADD PUSH1 0x40 MLOAD PUSH1 0x20 DUP2 DUP4 SUB SUB DUP2 MSTORE SWAP1 PUSH1 0x40 MSTORE DUP1 MLOAD SWAP1 PUSH1 0x20 ADD KECCAK256 PUSH1 0x0 SHR PUSH2 0x15B1 SWAP2 SWAP1 PUSH2 0x1CDC JUMP JUMPDEST GASLIMIT TIMESTAMP DUP7 PUSH1 0x40 MLOAD PUSH1 0x20 ADD PUSH2 0x15C6 SWAP2 DUP2 MSTORE PUSH1 0x20 ADD SWAP1 JUMP JUMPDEST PUSH1 0x40 MLOAD PUSH1 0x20 DUP2 DUP4 SUB SUB DUP2 MSTORE SWAP1 PUSH1 0x40 MSTORE DUP1 MLOAD SWAP1 PUSH1 0x20 ADD KECCAK256 PUSH1 0x0 SHR PUSH2 0x15E9 SWAP2 SWAP1 PUSH2 0x1CDC JUMP JUMPDEST PUSH2 0x15F3 DIFFICULTY TIMESTAMP PUSH2 0x1CC4 JUMP JUMPDEST PUSH2 0x15FD SWAP2 SWAP1 PUSH2 0x1CC4 JUMP JUMPDEST PUSH2 0x1607 SWAP2 SWAP1 PUSH2 0x1CC4 JUMP JUMPDEST PUSH2 0x1611 SWAP2 SWAP1 PUSH2 0x1CC4 JUMP JUMPDEST PUSH2 0x161B SWAP2 SWAP1 PUSH2 0x1CC4 JUMP JUMPDEST PUSH1 0x40 MLOAD PUSH1 0x20 ADD PUSH2 0x162D SWAP2 DUP2 MSTORE PUSH1 0x20 ADD SWAP1 JUMP JUMPDEST PUSH1 0x40 DUP1 MLOAD PUSH1 0x1F NOT DUP2 DUP5 SUB ADD DUP2 MSTORE SWAP2 SWAP1 MSTORE DUP1 MLOAD PUSH1 0x20 SWAP1 SWAP2 ADD KECCAK256 SWAP1 POP DUP3 PUSH2 0x1654 PUSH2 0x3E8 DUP4 PUSH2 0x1CDC JUMP JUMPDEST PUSH2 0x1660 SWAP1 PUSH2 0x3E8 PUSH2 0x1CF0 JUMP JUMPDEST PUSH2 0x166A SWAP1 DUP4 PUSH2 0x1D0F JUMP JUMPDEST PUSH2 0x1674 SWAP2 SWAP1 PUSH2 0x1D56 JUMP JUMPDEST SWAP4 SWAP3 POP POP POP JUMP JUMPDEST PUSH1 0x40 MLOAD DUP1 PUSH2 0x140 ADD PUSH1 0x40 MSTORE DUP1 PUSH1 0xA SWAP1 PUSH1 0x20 DUP3 MUL DUP1 CALLDATASIZE DUP4 CALLDATACOPY POP SWAP2 SWAP3 SWAP2 POP POP JUMP JUMPDEST PUSH1 0x40 MLOAD DUP1 PUSH1 0xA0 ADD PUSH1 0x40 MSTORE DUP1 PUSH2 0x16AD PUSH2 0x1713 JUMP JUMPDEST DUP2 MSTORE PUSH1 0x20 ADD PUSH2 0x16BA PUSH2 0x173A JUMP JUMPDEST DUP2 MSTORE PUSH1 0x20 ADD PUSH2 0x16C7 PUSH2 0x1754 JUMP JUMPDEST DUP2 MSTORE PUSH1 0x20 ADD PUSH2 0x16D4 PUSH2 0x1754 JUMP JUMPDEST DUP2 MSTORE PUSH1 0x20 ADD PUSH2 0x16E1 PUSH2 0x176E JUMP JUMPDEST SWAP1 MSTORE SWAP1 JUMP JUMPDEST PUSH1 0x40 MLOAD DUP1 PUSH1 0x80 ADD PUSH1 0x40 MSTORE DUP1 PUSH2 0x16F9 PUSH2 0x176E JUMP JUMPDEST DUP2 MSTORE PUSH1 0x20 ADD PUSH2 0x1706 PUSH2 0x1788 JUMP JUMPDEST DUP2 MSTORE PUSH1 0x20 ADD PUSH2 0x16D4 PUSH2 0x176E JUMP JUMPDEST PUSH1 0x40 MLOAD DUP1 PUSH1 0xC0 ADD PUSH1 0x40 MSTORE DUP1 PUSH1 0x6 SWAP1 JUMPDEST PUSH1 0x60 DUP2 MSTORE PUSH1 0x20 ADD SWAP1 PUSH1 0x1 SWAP1 SUB SWAP1 DUP2 PUSH2 0x1722 JUMPI SWAP1 POP POP SWAP1 JUMP JUMPDEST PUSH1 0x40 DUP1 MLOAD PUSH1 0x60 DUP1 DUP3 ADD SWAP1 SWAP3 MSTORE SWAP1 DUP2 MSTORE PUSH1 0x2 PUSH1 0x20 DUP3 ADD PUSH2 0x1722 JUMP JUMPDEST PUSH1 0x40 DUP1 MLOAD PUSH1 0x80 DUP2 ADD SWAP1 SWAP2 MSTORE PUSH1 0x60 DUP2 MSTORE PUSH1 0x3 PUSH1 0x20 DUP3 ADD PUSH2 0x1722 JUMP JUMPDEST PUSH1 0x40 DUP1 MLOAD PUSH1 0xA0 DUP2 ADD SWAP1 SWAP2 MSTORE PUSH1 0x60 DUP2 MSTORE PUSH1 0x4 PUSH1 0x20 DUP3 ADD PUSH2 0x1722 JUMP JUMPDEST PUSH1 0x40 DUP1 MLOAD DUP1 DUP3 ADD SWAP1 SWAP2 MSTORE PUSH1 0x60 DUP2 MSTORE PUSH1 0x1 PUSH1 0x20 DUP3 ADD PUSH2 0x1722 JUMP JUMPDEST PUSH1 0x0 DUP3 PUSH1 0x1F DUP4 ADD SLT PUSH2 0x17B2 JUMPI PUSH1 0x0 DUP1 REVERT JUMPDEST PUSH1 0x40 MLOAD PUSH1 0xA0 DUP2 ADD DUP2 DUP2 LT PUSH8 0xFFFFFFFFFFFFFFFF DUP3 GT OR ISZERO PUSH2 0x17E3 JUMPI PUSH4 0x4E487B71 PUSH1 0xE0 SHL PUSH1 0x0 MSTORE PUSH1 0x41 PUSH1 0x4 MSTORE PUSH1 0x24 PUSH1 0x0 REVERT JUMPDEST PUSH1 0x40 MSTORE DUP1 DUP4 PUSH1 0xA0 DUP2 ADD DUP7 LT ISZERO PUSH2 0x17F8 JUMPI PUSH1 0x0 DUP1 REVERT JUMPDEST PUSH1 0x0 JUMPDEST PUSH1 0x5 DUP2 LT ISZERO PUSH2 0x181A JUMPI DUP2 CALLDATALOAD DUP4 MSTORE PUSH1 0x20 SWAP3 DUP4 ADD SWAP3 SWAP1 SWAP2 ADD SWAP1 PUSH1 0x1 ADD PUSH2 0x17FB JUMP JUMPDEST POP SWAP2 SWAP6 SWAP5 POP POP POP POP POP JUMP JUMPDEST PUSH1 0x0 DUP1 PUSH2 0x140 DUP4 DUP6 SUB SLT ISZERO PUSH2 0x1839 JUMPI PUSH1 0x0 DUP1 REVERT JUMPDEST PUSH2 0x1843 DUP5 DUP5 PUSH2 0x17A1 JUMP JUMPDEST SWAP2 POP PUSH2 0x1852 DUP5 PUSH1 0xA0 DUP6 ADD PUSH2 0x17A1 JUMP JUMPDEST SWAP1 POP SWAP3 POP SWAP3 SWAP1 POP JUMP JUMPDEST PUSH1 0x0 PUSH1 0x20 DUP3 DUP5 SUB SLT ISZERO PUSH2 0x186D JUMPI PUSH1 0x0 DUP1 REVERT JUMPDEST POP CALLDATALOAD SWAP2 SWAP1 POP JUMP JUMPDEST PUSH1 0x0 DUP2 MLOAD DUP1 DUP5 MSTORE PUSH2 0x188C DUP2 PUSH1 0x20 DUP7 ADD PUSH1 0x20 DUP7 ADD PUSH2 0x1D26 JUMP JUMPDEST PUSH1 0x1F ADD PUSH1 0x1F NOT AND SWAP3 SWAP1 SWAP3 ADD PUSH1 0x20 ADD SWAP3 SWAP2 POP POP JUMP JUMPDEST PUSH1 0x0 DUP6 MLOAD PUSH2 0x18B2 DUP2 DUP5 PUSH1 0x20 DUP11 ADD PUSH2 0x1D26 JUMP JUMPDEST DUP6 MLOAD SWAP1 DUP4 ADD SWAP1 PUSH2 0x18C6 DUP2 DUP4 PUSH1 0x20 DUP11 ADD PUSH2 0x1D26 JUMP JUMPDEST DUP6 MLOAD SWAP2 ADD SWAP1 PUSH2 0x18D9 DUP2 DUP4 PUSH1 0x20 DUP10 ADD PUSH2 0x1D26 JUMP JUMPDEST DUP5 MLOAD SWAP2 ADD SWAP1 PUSH2 0x18EC DUP2 DUP4 PUSH1 0x20 DUP9 ADD PUSH2 0x1D26 JUMP JUMPDEST ADD SWAP7 SWAP6 POP POP POP POP POP POP JUMP JUMPDEST PUSH1 0x0 DUP11 MLOAD PUSH2 0x1909 DUP2 DUP5 PUSH1 0x20 DUP16 ADD PUSH2 0x1D26 JUMP JUMPDEST DUP11 MLOAD PUSH2 0x191B DUP2 DUP4 DUP7 ADD PUSH1 0x20 DUP16 ADD PUSH2 0x1D26 JUMP JUMPDEST DUP11 MLOAD SWAP2 DUP5 ADD ADD SWAP1 PUSH2 0x1930 DUP2 DUP4 PUSH1 0x20 DUP15 ADD PUSH2 0x1D26 JUMP JUMPDEST DUP10 MLOAD PUSH2 0x1942 DUP2 DUP4 DUP6 ADD PUSH1 0x20 DUP15 ADD PUSH2 0x1D26 JUMP JUMPDEST DUP10 MLOAD SWAP3 SWAP1 SWAP2 ADD ADD SWAP1 PUSH2 0x1958 DUP2 DUP4 PUSH1 0x20 DUP13 ADD PUSH2 0x1D26 JUMP JUMPDEST DUP8 MLOAD SWAP2 ADD SWAP1 PUSH2 0x196B DUP2 DUP4 PUSH1 0x20 DUP12 ADD PUSH2 0x1D26 JUMP JUMPDEST DUP7 MLOAD PUSH2 0x197D DUP2 DUP4 DUP6 ADD PUSH1 0x20 DUP12 ADD PUSH2 0x1D26 JUMP JUMPDEST DUP7 MLOAD SWAP3 SWAP1 SWAP2 ADD ADD SWAP1 PUSH2 0x1993 DUP2 DUP4 PUSH1 0x20 DUP10 ADD PUSH2 0x1D26 JUMP JUMPDEST DUP5 MLOAD PUSH2 0x19A5 DUP2 DUP4 DUP6 ADD PUSH1 0x20 DUP10 ADD PUSH2 0x1D26 JUMP JUMPDEST SWAP2 ADD ADD SWAP12 SWAP11 POP POP POP POP POP POP POP POP POP POP POP JUMP JUMPDEST PUSH32 0x7B2274726169745F7479706522203A20224963696E67222C2020202020202276 DUP2 MSTORE PUSH9 0x30B63AB291101D1011 PUSH1 0xB9 SHL PUSH1 0x20 DUP3 ADD MSTORE PUSH1 0x0 DUP4 MLOAD PUSH2 0x1A01 DUP2 PUSH1 0x29 DUP6 ADD PUSH1 0x20 DUP9 ADD PUSH2 0x1D26 JUMP JUMPDEST PUSH32 0x22207D2C207B2274726169745F7479706522203A20224963696E672054797065 PUSH1 0x29 SWAP2 DUP5 ADD SWAP2 DUP3 ADD MSTORE PUSH18 0x11161010101010113B30B63AB291101D1011 PUSH1 0x71 SHL PUSH1 0x49 DUP3 ADD MSTORE DUP4 MLOAD PUSH2 0x1A59 DUP2 PUSH1 0x5B DUP5 ADD PUSH1 0x20 DUP9 ADD PUSH2 0x1D26 JUMP JUMPDEST PUSH4 0x8881F4B PUSH1 0xE2 SHL PUSH1 0x5B SWAP3 SWAP1 SWAP2 ADD SWAP2 DUP3 ADD MSTORE PUSH1 0x5F ADD SWAP5 SWAP4 POP POP POP POP JUMP JUMPDEST PUSH32 0x7B2274726169745F7479706522203A202246616365222C202020202020202276 DUP2 MSTORE PUSH9 0x30B63AB291101D1011 PUSH1 0xB9 SHL PUSH1 0x20 DUP3 ADD MSTORE PUSH1 0x0 DUP3 MLOAD PUSH2 0x1AC0 DUP2 PUSH1 0x29 DUP6 ADD PUSH1 0x20 DUP8 ADD PUSH2 0x1D26 JUMP JUMPDEST PUSH3 0x22207D PUSH1 0xE8 SHL PUSH1 0x29 SWAP4 SWAP1 SWAP2 ADD SWAP3 DUP4 ADD MSTORE POP PUSH1 0x2C ADD SWAP2 SWAP1 POP JUMP JUMPDEST PUSH32 0x7B2274726169745F7479706522203A20224261636B67726F756E64222C202276 DUP2 MSTORE PUSH9 0x30B63AB291101D1011 PUSH1 0xB9 SHL PUSH1 0x20 DUP3 ADD MSTORE PUSH1 0x0 DUP4 MLOAD PUSH2 0x1B24 DUP2 PUSH1 0x29 DUP6 ADD PUSH1 0x20 DUP9 ADD PUSH2 0x1D26 JUMP JUMPDEST PUSH32 0x22207D2C202020202020207B2274726169745F7479706522203A2022446F7567 PUSH1 0x29 SWAP2 DUP5 ADD SWAP2 DUP3 ADD MSTORE PUSH32 0x6820466C61766F7572222C20202276616C756522203A20220000000000000000 PUSH1 0x49 DUP3 ADD MSTORE DUP4 MLOAD PUSH2 0x1B87 DUP2 PUSH1 0x61 DUP5 ADD PUSH1 0x20 DUP9 ADD PUSH2 0x1D26 JUMP JUMPDEST PUSH4 0x8881F4B PUSH1 0xE2 SHL PUSH1 0x61 SWAP3 SWAP1 SWAP2 ADD SWAP2 DUP3 ADD MSTORE PUSH1 0x65 ADD SWAP5 SWAP4 POP POP POP POP JUMP JUMPDEST PUSH32 0x7B2274726169745F7479706522203A2022546F7070696E6773222C2020202276 DUP2 MSTORE PUSH9 0x30B63AB291101D1011 PUSH1 0xB9 SHL PUSH1 0x20 DUP3 ADD MSTORE PUSH1 0x0 DUP4 MLOAD PUSH2 0x1BEE DUP2 PUSH1 0x29 DUP6 ADD PUSH1 0x20 DUP9 ADD PUSH2 0x1D26 JUMP JUMPDEST PUSH32 0x22207D2C202020207B2274726169745F7479706522203A20225368617065222C PUSH1 0x29 SWAP2 DUP5 ADD SWAP2 DUP3 ADD MSTORE PUSH21 0x10101010101010101010113B30B63AB291101D1011 PUSH1 0x59 SHL PUSH1 0x49 DUP3 ADD MSTORE DUP4 MLOAD PUSH2 0x1C49 DUP2 PUSH1 0x5E DUP5 ADD PUSH1 0x20 DUP9 ADD PUSH2 0x1D26 JUMP JUMPDEST PUSH4 0x8881F4B PUSH1 0xE2 SHL PUSH1 0x5E SWAP3 SWAP1 SWAP2 ADD SWAP2 DUP3 ADD MSTORE PUSH1 0x62 ADD SWAP5 SWAP4 POP POP POP POP JUMP JUMPDEST PUSH1 0x0 PUSH2 0x180 DUP1 DUP4 MSTORE PUSH2 0x1C7A DUP2 DUP5 ADD DUP8 PUSH2 0x1874 JUMP JUMPDEST SWAP1 POP PUSH1 0x20 DUP4 DUP3 SUB DUP2 DUP6 ADD MSTORE PUSH2 0x1C8F DUP3 DUP8 PUSH2 0x1874 JUMP JUMPDEST SWAP3 POP PUSH1 0x40 DUP5 ADD SWAP2 POP DUP5 PUSH1 0x0 JUMPDEST PUSH1 0xA DUP2 LT ISZERO PUSH2 0x1CB8 JUMPI DUP2 MLOAD DUP5 MSTORE SWAP3 DUP3 ADD SWAP3 SWAP1 DUP3 ADD SWAP1 PUSH1 0x1 ADD PUSH2 0x1C9B JUMP JUMPDEST POP POP POP POP SWAP5 SWAP4 POP POP POP POP JUMP JUMPDEST PUSH1 0x0 DUP3 NOT DUP3 GT ISZERO PUSH2 0x1CD7 JUMPI PUSH2 0x1CD7 PUSH2 0x1D6A JUMP JUMPDEST POP ADD SWAP1 JUMP JUMPDEST PUSH1 0x0 DUP3 PUSH2 0x1CEB JUMPI PUSH2 0x1CEB PUSH2 0x1D80 JUMP JUMPDEST POP DIV SWAP1 JUMP JUMPDEST PUSH1 0x0 DUP2 PUSH1 0x0 NOT DIV DUP4 GT DUP3 ISZERO ISZERO AND ISZERO PUSH2 0x1D0A JUMPI PUSH2 0x1D0A PUSH2 0x1D6A JUMP JUMPDEST POP MUL SWAP1 JUMP JUMPDEST PUSH1 0x0 DUP3 DUP3 LT ISZERO PUSH2 0x1D21 JUMPI PUSH2 0x1D21 PUSH2 0x1D6A JUMP JUMPDEST POP SUB SWAP1 JUMP JUMPDEST PUSH1 0x0 JUMPDEST DUP4 DUP2 LT ISZERO PUSH2 0x1D41 JUMPI DUP2 DUP2 ADD MLOAD DUP4 DUP3 ADD MSTORE PUSH1 0x20 ADD PUSH2 0x1D29 JUMP JUMPDEST DUP4 DUP2 GT ISZERO PUSH2 0x1D50 JUMPI PUSH1 0x0 DUP5 DUP5 ADD MSTORE JUMPDEST POP POP POP POP JUMP JUMPDEST PUSH1 0x0 DUP3 PUSH2 0x1D65 JUMPI PUSH2 0x1D65 PUSH2 0x1D80 JUMP JUMPDEST POP MOD SWAP1 JUMP JUMPDEST PUSH4 0x4E487B71 PUSH1 0xE0 SHL PUSH1 0x0 MSTORE PUSH1 0x11 PUSH1 0x4 MSTORE PUSH1 0x24 PUSH1 0x0 REVERT JUMPDEST PUSH4 0x4E487B71 PUSH1 0xE0 SHL PUSH1 0x0 MSTORE PUSH1 0x12 PUSH1 0x4 MSTORE PUSH1 0x24 PUSH1 0x0 REVERT JUMPDEST PUSH4 0x4E487B71 PUSH1 0xE0 SHL PUSH1 0x0 MSTORE PUSH1 0x32 PUSH1 0x4 MSTORE PUSH1 0x24 PUSH1 0x0 REVERT INVALID LOG2 PUSH5 0x6970667358 0x22 SLT KECCAK256 SWAP13 PUSH17 0x38227E75ABCD2D4FB826C6E8CBE8EFBE13 0xAA 0xAD 0x2A 0xCB SWAP2 0xC9 0xF7 CALLCODE 0xC7 ADDMOD 0xFB 0xEC 0x5E PUSH5 0x736F6C6343 STOP ADDMOD SMOD STOP CALLER "
		},
		"gasEstimates": {
			"creation": {
				"codeDepositCost": "1530000",
				"executionCost": "1603",
				"totalCost": "1531603"
			},
			"external": {
				"buildBunny(uint256)": "infinite",
				"paintBunny(uint256[5],uint256[5])": "infinite"
			},
			"internal": {
				"random(uint256)": "infinite",
				"uint2str(uint256)": "infinite"
			}
		},
		"methodIdentifiers": {
			"buildBunny(uint256)": "cc1a90ad",
			"paintBunny(uint256[5],uint256[5])": "96bfb9c1"
		}
	},
	"abi": [
		{
			"inputs": [
				{
					"internalType": "uint256",
					"name": "points",
					"type": "uint256"
				}
			],
			"name": "buildBunny",
			"outputs": [
				{
					"internalType": "string",
					"name": "",
					"type": "string"
				},
				{
					"internalType": "string",
					"name": "",
					"type": "string"
				},
				{
					"internalType": "uint256[10]",
					"name": "",
					"type": "uint256[10]"
				}
			],
			"stateMutability": "view",
			"type": "function"
		},
		{
			"inputs": [
				{
					"internalType": "uint256[5]",
					"name": "colourSet",
					"type": "uint256[5]"
				},
				{
					"internalType": "uint256[5]",
					"name": "lockedSet",
					"type": "uint256[5]"
				}
			],
			"name": "paintBunny",
			"outputs": [
				{
					"internalType": "string",
					"name": "",
					"type": "string"
				},
				{
					"internalType": "string",
					"name": "",
					"type": "string"
				},
				{
					"internalType": "uint256[10]",
					"name": "",
					"type": "uint256[10]"
				}
			],
			"stateMutability": "pure",
			"type": "function"
		}
	]
}