{
	"data": {
		"bytecode": {
			"linkReferences": {},
			"object": "608060405234801561001057600080fd5b50614750806100206000396000f3fe608060405234801561001057600080fd5b506004361061002b5760003560e01c8063eaf723db14610030575b600080fd5b61004361003e3660046117da565b610059565b6040516100509190614661565b60405180910390f35b606061008d6040518060a0016040528060608152602001606081526020016060815260200160608152602001606081525090565b6100b86040518060800160405280606081526020016060815260200160608152602001606081525090565b6040805161010081018252600760c082018181526611b13332b0b33360c91b60e0840152825282518084018452818152662362666666636160c81b60208083019190915280840191909152835180850185528281526611b3333133313360c91b818301528385015283518085018552828152662366666165376560c81b818301526060840152835180850185528281526611b29a32b31c3160c91b8183015260808401528351808501909452908352662364666239663760c81b9083015260a0810191909152855160068110610190576101906146ee565b6020908102919091015183526040805160a081018252600760608201818152662337363439393560c81b6080840152825282518084018452818152662334333536623360c81b818601528285015282518084018452908152662363393933343360c81b81850152918101919091529086015160038110610212576102126146ee565b602090810291909101518382019081526040805160c08101825260076080820181815266046c2cc6c6866760cb1b60a0840152825282518084018452818152662366666633633960c81b818701528286015282518084018452908152662364666139376160c81b948101949094528082019390935290516060830152860151600481106102a1576102a16146ee565b60209081029190910151604080850191909152805160c081018252600760808201818152662361643237323760c81b60a0840152825282518084018452818152662364373437393760c81b818601528285015282518084018452818152662365316364343160c81b818601528284015282518084019093528252662333656131643160c81b92820192909252606082015285600360200201516004811061034a5761034a6146ee565b602090810291909101516060848101919091526040805160e081018252600760a082018181526608d90e4d18999960ca1b60c0840152825282518084018452818152662366666631666160c81b818701528286015282518084018452818152662366663865643760c81b81870152828401528251808401845281815266119b9c1c1cb33360c91b8187015293820193909352815180830190925291815266046cc60cccc6e760cb1b928101929092526080808201929092529086015160058110610416576104166146ee565b6020020151826080018190525060008260000151836040015160405160200161044092919061237b565b60408051808303601f190181529190526101208701519091506001141561048e578251602080850151604080870151905161047c94930161227f565b60405160208183030381529060405290505b600083604001516040516020016104a5919061343a565b60408051808303601f19018152919052610120880151909150600114156104ed576020808501516040516104db9282910161242b565b60405160208183030381529060405290505b6040805160a081019091527f3c7061746820643d226d36352e3632382036382e3739342d322e303439382d3160c08201527f2e363539392d312e3938323220312e3734303622202f3e3c7061746820643d2260e08201527f6d36332e3538372036372e323131732d302e32353930332d322e3231333220316101008201527f2e383234352d322e3732303463312e393539372d302e343731343520322e39306101208201527f353720312e3639343520322e3930353720312e3639343522202f3e3c706174686101408201527f20643d226d36332e3538372036372e32313173302e31373131392d322e3232346101608201527f372d312e393933352d322e36323832632d322e303338352d302e333832372d326101808201527f2e39313720312e383231332d322e39313720312e3832313322202f3e3c7061746101a08201527f6820643d226d35372e3336342037322e353638632d302e353539393120302e346101c08201527f363837352d312e3431303620302e34353238322d312e393633392d302e3035306101e08201527f362d302e35333931372d302e3530342d302e35353734382d312e333038342d306102008201527f2e303536312d312e383331386c322e3032352d312e3838383620322e303234396102208201527f20312e3838383663302e353031333520302e353233333720302e3438313834206102408201527f312e333331322d302e3035363120312e383331382d302e353836393220302e356102608201527f373237322d312e3439393320302e34333038332d312e3937333720302e3035306102808201527f367a22202f3e3c7061746820643d226d36392e3237312037322e3535632d302e6102a08201527f3536303120302e343632352d312e34313120302e34343637372d312e393634366102c08201527f2d302e303439392d302e35333933362d302e34393732362d302e35353736382d6102e08201527f312e323930392d302e303536322d312e383037336c322e303235362d312e38366103008201527f333420322e3032353620312e3836333463302e353031353320302e35313633396103208201527f20302e34383220312e333133342d302e3035363220312e383037332d302e35386103408201527f37313120302e35363530382d312e3439393820302e34323530392d312e3937346103608201526c19901817181a1c9cbd1110179f60991b6103808201528061038d81016040516020818303038152906040528152602001604051602001610a7a907f3c7061746820643d226d36312e3237382036392e32333520322e32382d312e3881527f3820322e323820312e383822202f3e3c7061746820643d226d36332e3535382060208201527f36372e323335762d312e383822202f3e3c7061746820643d226d36302e30393360408201527f2036362e32333573332e35342d332e393820362e393320302e31343822202f3e60608201527f3c7061746820643d226d37312e3831382037322e32333563302d312e32372d3060808201527f2e37392d322e33312d312e37362d322e33312d302e39373320302d312e37362060a08201527f312e30332d312e373620322e3331203020312e323720302e37393120322e333160c08201527f20312e373620322e333120302e393735203020312e37362d312e303320312e3760e08201527f362d322e333122202f3e3c7061746820643d226d35382e3831382037322e32336101008201527f3563302d312e32372d302e3738382d322e33312d312e37362d322e33312d302e6101208201527f39373320302d312e373620312e30332d312e373620322e3331203020312e32376101408201527f20302e37393120322e333120312e373620322e333120302e393736203020312e610160820152741b9b16989718199018971b9b16991719989110179f60591b6101808201526101950190565b6040516020818303038152906040528152602001604051602001610c53907f3c7061746820643d226d36312e3733372036362e33393663302d322e3539203381527f2e38362d322e353620332e38362d302e303234203020322e35342d332e38362060208201527f322e36312d332e383620302e3032347a22202f3e3c7061746820643d226d363860408201527f2e3132372037312e33393663302d312e313120302e3638372d322e303120312e60608201527f35342d322e303120302e383438203020312e353420302e39303120312e35342060808201527f322e3031732d302e36383920322e30312d312e353420322e3031632d302e383560a08201527f20302d312e35342d302e3930312d312e35342d322e303122202f3e3c7061746860c08201527f20643d226d35362e3132372037312e33393663302d312e313120302e3638382d60e08201527f322e303120312e35342d322e303120302e383438203020312e353420302e39306101008201527f3120312e353420322e3031203020312e31312d302e36383920322e30312d312e6101208201527f353420322e30312d302e38343920302d312e35342d302e3930312d312e35342d61014082015267191718189110179f60c11b6101608201526101680190565b6040516020818303038152906040528152602001604051602001610f52907f3c7061746820643d226d36382e3539362037312e30373663302d312e3035363781527f20302e35373937362d312e3930383520312e323934372d312e3930383520302e60208201527f3731353838203020312e3239343720302e383537363420312e3239343720312e60408201527f39303835732d302e353831363520312e393038352d312e3239343720312e393060608201527f3835632d302e373137373920302d312e323934372d302e38353736342d312e3260808201527f3934372d312e3930383522202f3e3c7061746820643d226d35362e373932203760a08201527f312e30373663302d312e3035363720302e353830372d312e3930383520312e3260c08201527f3934372d312e3930383520302e3731353838203020312e3239343720302e383560e08201527f37363620312e3239343720312e39303835732d302e353831363620312e3930386101008201527f352d312e3239343720312e39303835632d302e373136383320302d312e3239346101208201527f372d302e38353736362d312e323934372d312e3930383522202f3e3c706174686101408201527f20643d226d36332e3938352036372e38323173302e32303836352d322e3731316101608201527f362d322e343239372d332e32303333632d322e343834362d302e34363634342d6101808201527f332e3535353320322e323139382d332e3535353320322e3231393822202f3e3c6101a08201527f7061746820643d226d36332e3938352036372e383231732d302e33313537322d6101c08201527f322e3639373520322e323233382d332e3331353763322e333838352d302e35376101e08201527f34363220332e3534313620322e3036353320332e3534313620322e30363533226102008201527f202f3e3c7061746820643d226d36362e3437322036392e3735312d322e3439386102208201527f342d322e303233312d322e34313620322e3132313522202f3e000000000000006102408201526102590190565b60405160208183030381529060405281526020016040516020016112e6907f3c7061746820643d226d37312c3733206320302c302e32202d302e332c30202d81527f302e342c2d302e3120302c2d302e3420302e342c2d302e3620302e372c2d302e60208201527f3620302e352c3020302e392c302e3620302e382c31202d302e312c302e38202d60408201527f312c312e32202d312e362c31202d312c2d302e31202d312e352c2d312e31202d60608201527f312e332c2d3220302e332c2d312e3120312e362c2d312e3720322e372c2d312e60808201527f3420312e332c302e3320322c312e3820312e372c33202d302e352c312e35202d60a08201527f322e322c322e33202d332e362c312e39206120332e312c332e3120302030203160c08201527f202d312e372c2d3522202f3e3c7061746820643d226d35382c3733206320302c60e08201527f302e32202d302e332c30202d302e342c2d302e3120302c2d302e3420302e342c6101008201527f2d302e3620302e372c2d302e3620302e352c3020302e392c302e3620302e382c6101208201527f31202d302e312c302e38202d312c312e32202d312e362c31202d312c2d302e316101408201527f202d312e352c2d312e31202d312e332c2d3220302e332c2d312e3120312e362c6101608201527f2d312e3720322e372c2d312e3420312e332c302e3320322c312e3820312e372c6101808201527f33202d302e352c312e35202d322e322c322e33202d332e362c312e39206120336101a08201527f2e312c332e31203020302031202d312e372c2d3522202f3e3c7061746820643d6101c08201527f226d36332e3938352036372e38323173302e32303836352d322e373131362d326101e08201527f2e343239372d332e32303333632d322e343834362d302e34363634342d332e356102008201527f35353320322e323139382d332e3535353320322e3231393822202f3e3c7061746102208201527f6820643d226d36332e3938352036372e383231732d302e33313537322d322e366102408201527f39373520322e323233382d332e3331353763322e333838352d302e35373436326102608201527f20332e3534313620322e3036353320332e3534313620322e3036353322202f3e6102808201527f3c7061746820643d226d36362e3437322036392e3735312d322e343938342d326102a08201527517181919989699171a189b1019171899189a9110179f60511b6102c08201526102d60190565b60408051808303601f19018152919052905260a08801516005811061130d5761130d6146ee565b60200201518352604080518082019091527f3c7061746820643d226d37362e30322034382e30333963302d362e33312d352e60608201527f332d31312e342d31312e382d31312e342d362e353420302d31312e3820352e3160808201527f322d31312e382031312e34203020362e333120352e332031312e342031312e3860a08201527f2031312e3420362e353420302031312e382d352e31322031312e382d31312e3460c0820152633d11179f60e11b60e08201528060e4810160405160208183030381529060405281526020016040516020016114be907f3c7061746820643d226d36342e3232392035372e30333963322e393220322e3681527f3220372e343320322e35332031302e322d302e32383320322e38312d322e383260208201527f20322e39312d372e333120302e3239332d31302e326c2d31302e352d31302e3660408201527f2d31302e352031302e36632d322e363220322e39332d322e353220372e34332060608201527f302e3239332031302e3220322e383220322e383120372e333220322e3931203160808201526d181719101817191c19bd1110179f60911b60a082015260ae0190565b60408051808303601f19018152919052905260c0880151600281106114e5576114e56146ee565b60209081029190910151848201819052858201518551875160405160009561151295859392909101613a31565b60408051601f1981840301815260a083019091526060870151909250819061153d9060c08301613478565b60405160208183030381529060405281526020018660600151876060015160405160200161156c929190612e86565b6040516020818303038152906040528152602001866060015160405160200161159591906136b8565b604051602081830303815290604052815260200186606001516040516020016115be9190613970565b60408051808303601f19018152918152908252805160208082019092526000815291015260e0890151600581106115f7576115f76146ee565b602002015184604001819052506040518060a00160405280866080015160405160200161162491906131c3565b6040516020818303038152906040528152602001866080015160405160200161164d9190613eb9565b60405160208183030381529060405281526020018660800151604051602001611676919061273e565b6040516020818303038152906040528152602001866080015160405160200161169f9190611c19565b60408051808303601f190181529181529082528051602080820190925260008152910152610100890151600581106116d9576116d96146ee565b6020020151846060018190525060008560200151886040516020016116ff929190613b4a565b60408051601f1981840301815282825290870151606088015191935061173092879287929187908790602001611b9a565b604051602081830303815290604052965050505050505092915050565b600082601f83011261175e57600080fd5b813567ffffffffffffffff8082111561177957611779614704565b604051601f8301601f19908116603f011681019082821181831017156117a1576117a1614704565b816040528381528660208588010111156117ba57600080fd5b836020870160208301376000602085830101528094505050505092915050565b60008061016083850312156117ee57600080fd5b83601f8401126117fd57600080fd5b611805614694565b808461014086018781111561181957600080fd5b60005b600a81101561183b57823585526020948501949092019160010161181c565b509194505035905067ffffffffffffffff81111561185857600080fd5b6118648582860161174d565b9150509250929050565b600081516118808185602086016146be565b9290920192915050565b7f2220643d226d3130322e37332039312e32323563382e36322031362e312d322e81527f32382032382e382d31342e332032342e312d31322e392d352e30352d31352e3260208201527f2d33302e372d31352e342d33322e312d322e393620302e3731312d362e30362060408201527f312e30392d392e323520312e30392d332e313720302d362e32352d302e33383160608201527f2d392e322d312e30382d302e31343220312e35332d322e352032372d31352e3460808201527f2033322e312d31322e3120342e372d32332e312d372e36352d31342e342d323460a08201527f2e3120342e34382d382e34372031322e372d31362e342031322e372d31362e3460c08201527f2d372e342d362e36382d31312e382d31362e362d31312e382d32372e3120302d60e08201527f32302e322031372e312d33362e362033382e312d33362e367333382e312031366101008201527f2e342033382e312033362e3663302031302e352d342e33382032302e342d31316101208201527f2e382032372e3120302e3139372d302e333232203020302030203073382e313261014082015272101b971c9a901899171b10189b171a1110179f60691b6101608201526101730190565b7f3c7376672076696577426f783d22302030203132372e3438203132372e34382281527f20786d6c6e733a786c696e6b3d22687474703a2f2f7777772e77332e6f72672f60208201527f313939392f786c696e6b2220786d6c6e733d22687474703a2f2f7777772e773360408201527f2e6f72672f323030302f737667223e3c67207472616e73666f726d3d22726f7460608201527f617465283138302036332e3733392036332e3733392922207374796c653d227360808201527f74726f6b652d6c696e656361703a726f756e643b7374726f6b652d6c696e656a60a08201527f6f696e3a726f756e643b66696c6c3a6e6f6e653b223e3c7265637420636c617360c08201527f733d226267222077696474683d223132372e343822206865696768743d22313260e08201526b1b971a1c11103334b6361e9160a11b61010082015261010c0190565b600087516020611bad8285838d016146be565b885191840191611bc08184848d016146be565b8851920191611bd28184848c016146be565b8751920191611be48184848b016146be565b8651920191611bf68184848a016146be565b8551920191611c0881848489016146be565b919091019998505050505050505050565b681e33903334b6361e9160b91b81528151600090611c3e8160098501602087016146be565b7f223e3c7061746820643d226d38372036342d312e352d312d312e3720302e362060099390910192830152507f302e342d312e372d312e312d312e3468312e386c302e392d312e3520302e362060298201527f312e3720312e3720302e342d312e3420312e317a222f3e3c7061746820643d2260498201527f6d38312035332d302e35342d312e372d312e372d302e3620312e342d312e312060698201527f302e3032322d312e3820312e3420312e3120312e362d302e362d302e3620312e60898201527f3720312e3120312e342d312e382d302e3032327a222f3e3c7061746820643d2260a98201527f6d39332034332d312e3820302e33352d302e373820312e362d302e39322d312e60c98201527f352d312e382d302e323120312e332d312e332d302e34322d312e3720312e362060e982018190527f302e373820312e352d302e39322d302e323120312e387a222f3e3c706174682061010983018190527f643d226d37392034322d302e39332d312e352d312e382d302e313820312e312d6101298401527f312e342d302e342d312e3720312e3620302e373620312e352d302e39382d302e6101498401527f313820312e3820312e3420312e312d312e3720302e347a222f3e3c70617468206101698401527f643d226d35302034372d312e352d312d312e3720302e3620302e342d312e372d6101898401527f312e312d312e3468312e386c302e392d312e3520302e3620312e3720312e37206101a98401527f302e342d312e3420312e317a222f3e3c7061746820643d226d38382033332d316101c98401527f2e3820302e33352d302e373820312e362d302e39322d312e352d312e382d302e6101e98401527f323120312e332d312e332d302e34322d312e3720312e3620302e373820312e356102098401527f2d302e39322d302e323120312e387a222f3e3c7061746820643d226d353820336102298401527f352d302e35342d312e372d312e372d302e3620312e342d312e3120302e3032326102498401527f2d312e3820312e3420312e3120312e362d302e362d302e3620312e3720312e316102698401527f20312e342d312e382d302e3032327a222f3e3c7061746820643d226d353020366102898401527f392d312e362d302e37342d312e3620302e383720302e31322d312e372d312e336102a98401527f2d312e3220312e382d302e323920302e36352d312e3620302e383720312e36206102c98401527f312e3720302e31322d312e3220312e337a222f3e3c7061746820643d226d34306102e98401527f2035332d312e3820302e33352d302e373820312e362d302e39322d312e352d316103098401527f2e382d302e323120312e332d312e332d302e34322d312e3720312e3620302e376103298401527f3820312e352d302e39322d302e323120312e387a222f3e3c7061746820643d226103498401527f6d34312034322d312e3820302e33352d302e373820312e362d302e39322d312e6103698401526103898301919091526103a98201527f643d226d35302035352d312e3220312e3320302e333120312e382d312e362d306103c98201527f2e36372d312e3620302e383620302e32392d312e382d312e332d312e3120312e6103e98201527f382d302e333120302e36372d312e3620302e383620312e367a222f3e3c7061746104098201527f6820643d226d35342032332d312e3820302e33352d302e373820312e362d302e6104298201527f39322d312e352d312e382d302e323120312e332d312e332d302e34322d312e376104498201527f20312e3620302e373820312e352d302e39322d302e323120312e387a222f3e3c6104698201527f7061746820643d226d35302033342d312e362d302e38372d312e3620302e37346104898201527f20302e32352d312e372d312e322d312e3320312e382d302e313520302e37372d6104a98201527f312e3620302e373420312e3620312e3720302e32352d312e3320312e327a222f6104c98201527f3e3c7061746820643d226d37322033342d302e35342d312e372d312e372d302e6104e98201527f3620312e342d312e3120302e3032322d312e3820312e3420312e3120312e362d6105098201527f302e362d302e3620312e3720312e3120312e342d312e382d302e3032327a222f610529820152641f1e17b39f60d91b61054982015261054e01919050565b600061228a82611a50565b855161229a818360208a016146be565b69111039ba3937b5b29e9160b11b910190815284516122c081600a8401602089016146be565b7f22207374726f6b652d77696474683d223322207374726f6b652d646173686172600a92909101918201527f7261793d223130203130203430203130222f3e3c70617468207374796c653d22602a8201527f66696c7465723a2064726f702d736861646f7728307078203070782031307078604a8201526e1011b33333149d91103334b6361e9160891b606a82015283516123628160798401602088016146be565b61237060798284010161188a565b979650505050505050565b600061238682611a50565b84516123968183602089016146be565b8082019150507f22207374796c653d226f7061636974793a302e38222f3e3c706174682073747981527f6c653d2266696c7465723a2064726f702d736861646f772830707820307078206020820152711c383c1011b33333149d91103334b6361e9160711b604082015283516124138160528401602088016146be565b61242160528284010161188a565b9695505050505050565b7f3c706174682069643d227261726550617468222066696c6c3d2200000000000081526000835161246381601a8501602088016146be565b7f2220643d226d3130322e37332039312e32323563382e36322031362e312d322e601a918401918201527f32382032382e382d31342e332032342e312d31322e392d352e30352d31352e32603a8201527f2d33302e372d31352e342d33322e312d322e393620302e3731312d362e303620605a8201527f312e30392d392e323520312e30392d332e313720302d362e32352d302e333831607a8201527f2d392e322d312e30382d302e31343220312e35332d322e352032372d31352e34609a8201527f2033322e312d31322e3120342e372d32332e312d372e36352d31342e342d323460ba8201527f2e3120342e34382d382e34372031322e372d31362e342031322e372d31362e3460da8201527f2d372e342d362e36382d31312e382d31362e362d31312e382d32372e3120302d60fa8201527f32302e322031372e312d33362e362033382e312d33362e367333382e3120313661011a8201527f2e342033382e312033362e3663302031302e352d342e33382032302e342d313161013a8201527f2e382032372e3120302e3139372d302e333232203020302030203073382e313261015a8201527f20372e39352031322e362031362e3422202f3e3c74657874207374796c653d2261017a8201527f666f6e742d66616d696c793a73616e732d73657269663b666f6e742d7765696761019a8201527f68743a3930303b666f6e742d73697a653a313170783b6c65747465722d7370616101ba8201526e31b4b7339d1698b83c1db334b6361d60891b6101da8201526127356126ab6101e983018661186e565b7f3b223e3c74657874506174682073746172744f66667365743d2232303022207881527f6c696e6b3a687265663d22237261726550617468223e3c747370616e2064783d60208201527f2230222064793d222d332e35223e524152453c2f747370616e3e3c2f7465787460408201526b2830ba341f1e17ba32bc3a1f60a11b6060820152606c0190565b95945050505050565b6a1e339039ba3937b5b29e9160a91b8152815160009061276581600b8501602087016146be565b7f22207374726f6b652d77696474683d22312e3522207374796c653d226d69782d600b9390910192830152507f626c656e642d6d6f64653a20686172642d6c696768743b223e3c706174682064602b8201527f3d224d37372e362036312e3761382e3220382e322030203020302d312e372036604b8201527f2e37632e3220312e35203120332032203461362e3820362e3820302030203020606b8201527f31302e382d312e3220362e3720362e372030203020302d2e352d372e34632d31608b8201527f2d312e332d322e342d322e312d332e362d332e3261372e3620372e362030203060ab8201527f20312d312e362d312e38632d2e342d2e372d2e372d312e352d2e362d322e336160cb8201527f34203420302030203120312d322e332036203620302030203120322d312e346360eb8201527f312e352d2e3820332e322d3120342e382d312e3420312e342d2e3420322e382d61010b8201527f3120342d312e3820312e322d3120322e322d322e3120322e372d332e35732e3461012b8201527f2d332d2e332d342e33632d2e342d2e372d2e392d312e322d312e352d312e362d61014b8201527f2e372d2e342d312e342d2e362d322e322d2e352d3120302d32202e352d322e3861016b8201527f20312e32732d312e3520312e362d3220322e356c2d312e3920322e376136203661018b8201527f2030203020312d322e3620312e38632d2e372e332d312e352e332d322e332e316101ab8201527f613520352030203020312d322d31632d312e332d312d322d322e352d322e312d6101cb8201527f3420302d312e362e352d332e3220312e342d342e3573322e322d322e3220332e6101eb8201527f362d322e396c332d3163312d2e3320312e392d2e3820322e372d312e3561352e61020b8201527f3520352e3520302030203020312e372d352e3220362e3220362e32203020302061022b8201527f302d332e332d342e3420362e3920362e392030203020302d352e362d2e31203761024b8201527f2e3720372e372030203020302d342034632d2e3720312e352d2e3920332e332d61026b8201527f312e3420352d2e332e392d2e3620312e372d312e3120322e345337322e39203361028b8201527f362037322033362e33613420342030203020312d322e352030203520352030206102ab8201527f3020312d322d312e33632d312e322d312e332d312e382d332d322d342e366c2d6102cb8201527f2e352d3561392e3720392e372030203020302d312e362d342e3720352e3920356102eb8201527f2e392030203020302d322e342d32203520352030203020302d332d2e32632d3161030b8201527f202e322d32202e382d322e3620312e36613420342030203020302d2e3820336361032b8201527f2e312e362e3420312e332e3820312e386c312e3320312e36632e352e362e392061034b8201527f3120312e3320312e372e332e362e3620312e322e3720312e392e3120312d2e3361036b8201527f20322e322d312033732d312e3920312e322d3320312e332d322e322d2e332d3361038b8201527f2d31613620362030203020312d322d322e35632d2e362d312e332d2e372d322e6103ab8201527f382d312d342e3161372e3320372e332030203020302d312e342d332e39632d2e6103cb8201527f352d2e352d312e322d312d322d312e322d2e362d2e322d312e342d2e332d322e6103eb8201527f322d2e3261352e3320352e332030203020302d332e3620322e36632d2e37203161040b8201527f2e332d3120322e392d2e3620342e3361372e3320372e3320302030203020322e61042b8201527f3320332e39633220312e3820342e3820322e342037203461372037203020302061044b8201527f3120322e362033632e332e352e3420312e322e3420312e39732d2e3320312e3361046b8201527f2d2e3620312e39632d2e352e372d312e3320312e322d322e3120312e342d2e3861048b8201527f2e322d312e372e332d322e362e312d312e362d2e322d332e322d312d342e382d6104ab8201527f312e372d312e342d2e362d322e392d312d342e342d312e31732d332e312e322d6104cb8201527f342e34203161352e3820352e382030203020302d322e3520352e3520352e38206104eb8201527f352e3820302030203020332e3720342e3763312e382e3720332e372e3420352e61050b8201527f352e352031203020312e392e3220322e372e366134203420302030203120322061052b8201527f312e38632e342e382e3520312e382e3320322e372d2e3320312d2e3720312e3861054b8201527f2d312e3320322e352d3120312e362d322e3420332d3320342e3761352e38203561056b8201527f2e38203020302030203120352e3263312e3120312e35203320322e3320342e3861058b8201527f20322e3273332e362d312e3220342e352d322e3863312d312e3520312d332e366105ab8201526d1719969a97191110179f1e17b39f60911b6105cb8201526105d901919050565b6a1e339039ba3937b5b29e9160a91b81528251600090612ead81600b8501602088016146be565b6711103334b6361e9160c11b600b918401918201528351612ed58160138401602088016146be565b7f22207374726f6b652d77696474683d2232223e3c7061746820643d226d34312e601392909101918201527f342035302e30332d362e39392d332e33732d362e393520342e32332d372e353160338201527f20322e3136632d342e33382d31362e312031362e352d33372e322033372e362d60538201527f33382e3320382e343920302e353820323020352e31312032362e392031312e3760738201527f20362e3220362e39382031312e332031362e382031302e322032362e342d302e60938201527f353320332e31352d382e34362d322e31352d382e34362d322e31356c2d362e3460b38201527f3120332e33352d342e39312d332e30362d352e353120302e3536322d32332e3760d38201527f20302e33372d342e39332d312e34387a22207374796c653d227374726f6b653a60f38201527f6e6f6e653b222f3e3c7061746820643d226d32372e312034392e353163312e356101138201527f3920302e36353820332e353720302e31333120342e39312d312e343920312e376101338201527f392d322e313620342e34382d312e333720352e393720302e34333220312e34396101538201527f20312e3820342e353820312e393220362e35372d302e34333220312e34342d316101738201527f2e3720342e35342d322e343520372e303420302e3031383422207374796c653d6101938201527f2266696c6c3a6e6f6e653b222f3e3c7061746820643d226d3130312e303720346101b38201527f392e3531632d312e363220302e3635382d332e363520302e3133312d352e30326101d38201527f2d312e34392d312e38332d322e31362d342e35382d312e33372d362e313120306101f38201527f2e3433322d312e353320312e382d342e363820312e39322d362e37322d302e346102138201527f33322d312e34372d312e372d342e36352d322e34352d372e3220302e303138346102338201527f22207374796c653d2266696c6c3a6e6f6e653b222f3e3c2f673e00000000000061025382015261026d01949350505050565b6a1e339039ba3937b5b29e9160a91b815281516000906131ea81600b8501602087016146be565b7f22207374726f6b652d77696474683d2232223e3c7061746820643d226d37312e600b9390910192830152507f32332033332e303920302e3237332d342e303422202f3e3c7061746820643d22602b8201527f6d35362e32332033322e303920332e38322d312e323322202f3e3c7061746820604b8201527f643d226d36312e32332032332e3039203420302e333722202f3e3c7061746820606b8201527f643d226d34342e32332033362e303920312e383220332e363122202f3e3c7061608b8201527f746820643d226d35302e32332032372e30392d312e313420332e383922202f3e60ab8201527f3c7061746820643d226d34312e32332035362e30392d312e313420332e38392260cb8201527f202f3e3c7061746820643d226d38332e32332035382e303920322e393220322e60eb8201527f373822202f3e3c7061746820643d226d34362e32332035302e303920302e363461010b8201527f38203422202f3e3c7061746820643d226d37392e32332035362e303920302e3661012b8201527f37352d3422202f3e3c7061746820643d226d33372e32332034362e303920332e61014b8201527f39392d302e34343122202f3e3c7061746820643d226d38372e32332034382e3061016b8201527f3920332e31312d322e353622202f3e3c7061746820643d226d38302e3233203461018b8201527f312e3039203420302e32383522202f3e3c7061746820643d226d37382e3233206101ab8201527f32392e303920312e373220332e363722202f3e3c2f673e0000000000000000006101cb8201526101e201919050565b6b1e3830ba34103334b6361e9160a11b8152815160009061346281600c8501602087016146be565b613470600c8285010161188a565b949350505050565b6b1e3830ba34103334b6361e9160a11b815281516000906134a081600c8501602087016146be565b7f2220643d224d39362034362e3461372e3220372e322030203020312d332e3120600c9390910192830152507f342e3120372e3220372e322030203020312d332031322e34632e3420312e342e602c8201527f3520322e39203020342e3461372e3220372e322030203020312d382e31203541604c8201527f372e3220372e322030203020312036392e3720373761372e3220372e32203020606c8201527f3020312d3133202e3220372e3220372e322030203020312d31312e362d362e35608c8201527f20372e3220372e322030203020312d392e322d352e34632d2e342d322e312e3160ac8201527f2d342e3220312e332d352e382d2e3320302d2e3720302d312d2e3261372e322060cc8201527f372e322030203020312d322e352d31322e35632d312e372d312e382d322e342d60ec8201527f342e342d312e372d3761372e3220372e3220302030203120352e382d3520372e61010c8201527f3220372e3220302030203120372e382d31302e3320372e3220372e322030203061012c8201527f20312031312e332d352e3120372e3220372e322030203020312031332031203761014c8201527f2e3220372e322030203020312031322e3320352e396c2e362d2e3261372e322061016c8201527f372e3220302030203120372e332031312e336c31202e3263332e3920312e312061018c8201526b1b101a9718901a901c91179f60a11b6101ac8201526101b801919050565b6b1e3830ba34103334b6361e9160a11b815281516000906136e081600c8501602087016146be565b7f22207374796c653d227472616e73666f726d3a207472616e736c61746559282d600c9390910192830152507f33317078293b2220643d224d36312e322034362e33632d352e312e352d332e38602c8201527f20332e372d382e3220352e312d342e3720312e352d362e372d2e382d392e3720604c8201527f312e372d332e3820332e332d312e3220352e342d342e3220382e332d3320332d606c8201527f352e3920322e352d362e3820372e342d2e372034203120342e3620312e322038608c8201527f2e342e3120332e372d332e3520352e332d322e3420392e3220312e312034203460ac8201527f2e3720342e32203620372e3220312e3220332d2e3320362e3120322e3820392e60cc8201527f3220332e3120332e3220342e3620312e3220382e3420322e3420332e3720312e60ec8201527f3320322e3820352e3520382e3320362e3420352e362e3820352d312e3720392e61010c8201527f342d322e3220342d2e3520352e3920322e3820392e36203120332e382d32203361012c8201527f2e322d362e3520372e342d372e3920342e332d312e3420362e332d2e3820382d61014c8201527f342e3420312e382d332e362d2e382d3820322e332d31302e3720332d322e372061016c8201527f342e342d362e3820322e312d392e392d322e342d332e322d332d342d322d382e61018c8201527f3420312d342e392d312e352d382e332d352e312d382e392d332e342d2e342d336101ac8201527f2e372d322e312d352e332d362e322d312e352d342d352e322d352e312d382e386101cc8201527f2d342e322d332e3620312d35202e322d372d312e322d322e312d312e342d332e6101ec8201526e1a1699171b169b16991719bd11179f60891b61020c82015261021b01919050565b6b1e3830ba34103334b6361e9160a11b8152815160009061399881600c8501602087016146be565b7f2220643d226d36332e3537372038302e3535356334332e38383220302e333630600c9390910192830152507f32332034332e3130372d36342e38303320302e33323734322d36342e3939382d602c8201527f34322e3731392d302e31343139342d34342e3236392036342e3630372d302e33604c8201526f191b9a19101b1a171c9c9c3d1110179f60811b606c820152607c01919050565b7f3c67207374796c653d227374726f6b652d77696474683a312e333b7374726f6b815261329d60f11b602082015260008651613a74816022850160208b016146be565b621d911f60e91b6022918401918201528651613a97816025840160208b016146be565b7f3c2f673e3c67207374796c653d227374726f6b652d77696474683a333b737472602592909101918201526337b5b29d60e11b60458201528551613ae2816049840160208a016146be565b651db334b6361d60d11b604992909101918201528451613b0981604f8401602089016146be565b613b3d613b2d613b27604f84860101621d911f60e91b815260030190565b8761186e565b631e17b39f60e11b815260040190565b9998505050505050505050565b7f3c673e3c706174682069643d22706174683632343522207374726f6b652d776981526f323a341e9119911039ba3937b5b29e9160811b602082015260008351613b9b8160308501602088016146be565b7f2220643d226d3130302e3431203131342e3033632d362e313520342e37322d316030918401918201527f352e3220312e36392d31392e312d342e34372d352e33312d372e372d372e323760508201527f2d31372e322d382e33342d32362e332d362e303320312e34352d31322e34203160708201527f2e34362d31382e3420302e3031332d312e32382031302e322d332e333820323160908201527f2e312d31302e362032382e392d352e313720352e35392d31352e3520352e383460b08201527f2d31392e382d302e3930332d352d372e34352d312e37372d31372e3220322e3960d08201527f342d32332e3920332e30312d342e353120362e35332d382e36362031302e342d60f08201527f31322e352d31332e342d31312e392d31352e382d33342e312d342e37352d34386101108201527f2e332031302e352d31342e362033312e352d31392e352034372e362d31312e386101308201527f2031342e3320362e332032332e362032322e332032312e332033372e392d302e6101508201527f39343920382e342d352e352031372d31312e352032322e3220342e383320342e6101708201527f393320392e33312031302e332031322e362031362e3420342e303420362e39376101908201527f20342e38342031372e342d322e32332032322e387a22202f3e3c7465787420736101b08201527f74796c653d2266696c6c3a236666666666663b666f6e742d66616d696c793a736101d08201527f616e732d73657269663b666f6e742d73697a653a312e333670783b6c696e652d6101f08201527f6865696768743a312e32353b6d69782d626c656e642d6d6f64653a206f7665726102108201527f6c61793b776f72642d73706163696e673a307078223e3c7465787450617468206102308201527f786c696e6b3a687265663d22237061746836323435223e3c747370616e2064786102508201526d1e91181110323c9e9118171b111f60911b610270820152612735613e7f61027e83018661186e565b7f3c2f747370616e3e3c2f74657874506174683e3c2f746578743e3c2f673e3c2f815267339f1e17b9bb339f60c11b602082015260280190565b6d1e3830ba341039ba3937b5b29e9160911b81528151600090613ee381600e8501602087016146be565b7f22207374726f6b652d77696474683d22332e3522207374796c653d227374726f600e9390910192830152507f6b652d6461736861727261793a352c20373b7472616e73666f726d3a206d6174602e8201527f72697828302e39352c302c302c2d302e39352c302c30293b7472616e73666f72604e8201527f6d2d6f726967696e3a2063656e7465723b2220643d224d34392e382036352e38606e8201527f61382e3220382e3220302030203020312e382d362e37632d2e322d312e352d31608e8201527f2d332d322d3461362e3820362e382030203020302d31302e3820312e3220362e60ae8201527f3720362e37203020302030202e3520372e34633120312e3320322e3420322e3160ce8201527f20332e3620332e322e362e3520312e3220312e3120312e3620312e38732e362060ee8201527f312e352e3620322e33613420342030203020312d3120322e33632d2e352e362d61010e8201527f312e3220312e312d3220312e352d312e352e372d332e3220312d342e3820312e61012e8201527f332d312e362e342d332e312e392d342e3520312e3861372e3520372e3520302061014e8201527f3020302d3320332e37632d2e332e372d2e3420312e362d2e3320322e3420302061016e8201527f2e382e3320312e362e3820322e322e342e3720312e3120312e3220312e39203161018e8201527f2e352e372e3320312e362e3320322e332e312e382d2e3220312e342d2e3720326101ae8201527f2d312e326c312e332d312e39632e372d312e3320312e342d322e3720322e362d6101ce8201527f332e376135203520302030203120342e372d2e3863312e362e3520322e3920316101ee8201527f2e3720332e3520332e332e3620312e352e3620332e33203020342e3861372e3261020e8201527f20372e322030203020312d332e3420332e35632d2e392e352d312e392e382d3261022e8201527f2e3920312e31732d312e392e382d322e3720312e3561352e3220352e3220302061024e8201527f3020302d312e3620352036203620302030203020332e3320342e31203720372061026e8201527f302030203020352e342e3263312e372d2e3720332e322d3220342e312d332e3661028e8201527f2e382d312e3220312e322d322e3720312e392d34202e332d2e372e372d312e336102ae8201527f20312e332d312e3873312e322d3120312e392d312e31632e372d2e3220312e356102ce8201527f2d2e3120322e312e312e372e3320312e342e3720312e3920312e3261382038206102ee8201527f3020302031203220332e39632e3320312e342e3420322e382e3620342e332e3361030e8201527f20312e342e3720322e3920312e3520346136203620302030203020322e34203261032e8201527f2e322035203520302030203020332e322e3463312d2e3320322d2e3920322e3661034e8201527f2d312e382e362d2e392e382d32202e352d33613520352030203020302d312d3161036e8201527f2e396c2d312e342d312e35632d2e342d2e352d312d312d312e322d312e372d2e61038e8201527f342d2e362d2e352d312e332d2e342d32202e312d2e382e362d312e3420312e326103ae8201527f2d312e392e372d2e3420312e342d2e3620322e322d2e352e38203020312e352e6103ce8201527f3320322e312e382e372e3420312e32203120312e3620312e362e362e382031206103ee8201527f312e3720312e3420322e366c312e3620322e366136203620302030203020332e61040e8201527f3820312e3763312e35203020322e392d2e3520342d312e3573312e352d322e3561042e8201527f20312e342d332e39613520352030203020302d312e382d332e37632d2e372d2e61044e8201527f362d312e362d312d322e352d312e326c2d322e372d2e37632d2e382d2e332d3161046e8201527f2e372d2e362d322e352d312e3241332e3920332e39203020302031203737203961048e8201527f30632d2e312d2e3520302d312e3120302d312e362e322d2e362e352d31202e386104ae8201527f2d312e352e382d2e3820312e382d312e3320322e382d312e3620322e322d2e366104ce8201527f20342e34203020362e36203020312e332e3220322e352e3220332e38203061386104ee8201527f203820302030203020332e352d312e3620352e3620352e36203020302030203261050e8201527f2e332d342e38632d2e312d312d2e342d312e382d2e392d322e36732d312e322d61052e8201527f312e342d322d312e38613820382030203020302d332e342d2e346c2d332e352e61054e8201527f35632d312e322e312d322e332e332d332e3420302d2e362d2e322d312d2e342d61056e8201527f312e352d2e38732d2e392d2e382d312e312d312e33632d2e322d2e352d2e332d61058e8201527f312e312d2e332d312e376137203720302030203120322e352d342e316c322e366105ae8201527f2d322e32632e382d2e3820312e352d312e3720312e382d322e382e352d312e346105ce8201527f2e322d332d2e372d342e3261342e3720342e372030203020302d372e372e33636105ee8201527f2d2e3820312e322d3120322e392d2e3320342e33222f3e00000000000000000061060e82015261062501919050565b60208152600082518060208401526146808160408501602087016146be565b601f01601f19169190910160400192915050565b604051610140810167ffffffffffffffff811182821017156146b8576146b8614704565b60405290565b60005b838110156146d95781810151838201526020016146c1565b838111156146e8576000848401525b50505050565b634e487b7160e01b600052603260045260246000fd5b634e487b7160e01b600052604160045260246000fdfea2646970667358221220881ccfa0588681373ec8dcb382ccd947e984f8c4363a8646dd31d4abbcc7951264736f6c63430008070033",
			"opcodes": "PUSH1 0x80 PUSH1 0x40 MSTORE CALLVALUE DUP1 ISZERO PUSH2 0x10 JUMPI PUSH1 0x0 DUP1 REVERT JUMPDEST POP PUSH2 0x4750 DUP1 PUSH2 0x20 PUSH1 0x0 CODECOPY PUSH1 0x0 RETURN INVALID PUSH1 0x80 PUSH1 0x40 MSTORE CALLVALUE DUP1 ISZERO PUSH2 0x10 JUMPI PUSH1 0x0 DUP1 REVERT JUMPDEST POP PUSH1 0x4 CALLDATASIZE LT PUSH2 0x2B JUMPI PUSH1 0x0 CALLDATALOAD PUSH1 0xE0 SHR DUP1 PUSH4 0xEAF723DB EQ PUSH2 0x30 JUMPI JUMPDEST PUSH1 0x0 DUP1 REVERT JUMPDEST PUSH2 0x43 PUSH2 0x3E CALLDATASIZE PUSH1 0x4 PUSH2 0x17DA JUMP JUMPDEST PUSH2 0x59 JUMP JUMPDEST PUSH1 0x40 MLOAD PUSH2 0x50 SWAP2 SWAP1 PUSH2 0x4661 JUMP JUMPDEST PUSH1 0x40 MLOAD DUP1 SWAP2 SUB SWAP1 RETURN JUMPDEST PUSH1 0x60 PUSH2 0x8D PUSH1 0x40 MLOAD DUP1 PUSH1 0xA0 ADD PUSH1 0x40 MSTORE DUP1 PUSH1 0x60 DUP2 MSTORE PUSH1 0x20 ADD PUSH1 0x60 DUP2 MSTORE PUSH1 0x20 ADD PUSH1 0x60 DUP2 MSTORE PUSH1 0x20 ADD PUSH1 0x60 DUP2 MSTORE PUSH1 0x20 ADD PUSH1 0x60 DUP2 MSTORE POP SWAP1 JUMP JUMPDEST PUSH2 0xB8 PUSH1 0x40 MLOAD DUP1 PUSH1 0x80 ADD PUSH1 0x40 MSTORE DUP1 PUSH1 0x60 DUP2 MSTORE PUSH1 0x20 ADD PUSH1 0x60 DUP2 MSTORE PUSH1 0x20 ADD PUSH1 0x60 DUP2 MSTORE PUSH1 0x20 ADD PUSH1 0x60 DUP2 MSTORE POP SWAP1 JUMP JUMPDEST PUSH1 0x40 DUP1 MLOAD PUSH2 0x100 DUP2 ADD DUP3 MSTORE PUSH1 0x7 PUSH1 0xC0 DUP3 ADD DUP2 DUP2 MSTORE PUSH7 0x11B13332B0B333 PUSH1 0xC9 SHL PUSH1 0xE0 DUP5 ADD MSTORE DUP3 MSTORE DUP3 MLOAD DUP1 DUP5 ADD DUP5 MSTORE DUP2 DUP2 MSTORE PUSH7 0x23626666666361 PUSH1 0xC8 SHL PUSH1 0x20 DUP1 DUP4 ADD SWAP2 SWAP1 SWAP2 MSTORE DUP1 DUP5 ADD SWAP2 SWAP1 SWAP2 MSTORE DUP4 MLOAD DUP1 DUP6 ADD DUP6 MSTORE DUP3 DUP2 MSTORE PUSH7 0x11B33331333133 PUSH1 0xC9 SHL DUP2 DUP4 ADD MSTORE DUP4 DUP6 ADD MSTORE DUP4 MLOAD DUP1 DUP6 ADD DUP6 MSTORE DUP3 DUP2 MSTORE PUSH7 0x23666661653765 PUSH1 0xC8 SHL DUP2 DUP4 ADD MSTORE PUSH1 0x60 DUP5 ADD MSTORE DUP4 MLOAD DUP1 DUP6 ADD DUP6 MSTORE DUP3 DUP2 MSTORE PUSH7 0x11B29A32B31C31 PUSH1 0xC9 SHL DUP2 DUP4 ADD MSTORE PUSH1 0x80 DUP5 ADD MSTORE DUP4 MLOAD DUP1 DUP6 ADD SWAP1 SWAP5 MSTORE SWAP1 DUP4 MSTORE PUSH7 0x23646662396637 PUSH1 0xC8 SHL SWAP1 DUP4 ADD MSTORE PUSH1 0xA0 DUP2 ADD SWAP2 SWAP1 SWAP2 MSTORE DUP6 MLOAD PUSH1 0x6 DUP2 LT PUSH2 0x190 JUMPI PUSH2 0x190 PUSH2 0x46EE JUMP JUMPDEST PUSH1 0x20 SWAP1 DUP2 MUL SWAP2 SWAP1 SWAP2 ADD MLOAD DUP4 MSTORE PUSH1 0x40 DUP1 MLOAD PUSH1 0xA0 DUP2 ADD DUP3 MSTORE PUSH1 0x7 PUSH1 0x60 DUP3 ADD DUP2 DUP2 MSTORE PUSH7 0x23373634393935 PUSH1 0xC8 SHL PUSH1 0x80 DUP5 ADD MSTORE DUP3 MSTORE DUP3 MLOAD DUP1 DUP5 ADD DUP5 MSTORE DUP2 DUP2 MSTORE PUSH7 0x23343335366233 PUSH1 0xC8 SHL DUP2 DUP7 ADD MSTORE DUP3 DUP6 ADD MSTORE DUP3 MLOAD DUP1 DUP5 ADD DUP5 MSTORE SWAP1 DUP2 MSTORE PUSH7 0x23633939333433 PUSH1 0xC8 SHL DUP2 DUP6 ADD MSTORE SWAP2 DUP2 ADD SWAP2 SWAP1 SWAP2 MSTORE SWAP1 DUP7 ADD MLOAD PUSH1 0x3 DUP2 LT PUSH2 0x212 JUMPI PUSH2 0x212 PUSH2 0x46EE JUMP JUMPDEST PUSH1 0x20 SWAP1 DUP2 MUL SWAP2 SWAP1 SWAP2 ADD MLOAD DUP4 DUP3 ADD SWAP1 DUP2 MSTORE PUSH1 0x40 DUP1 MLOAD PUSH1 0xC0 DUP2 ADD DUP3 MSTORE PUSH1 0x7 PUSH1 0x80 DUP3 ADD DUP2 DUP2 MSTORE PUSH7 0x46C2CC6C68667 PUSH1 0xCB SHL PUSH1 0xA0 DUP5 ADD MSTORE DUP3 MSTORE DUP3 MLOAD DUP1 DUP5 ADD DUP5 MSTORE DUP2 DUP2 MSTORE PUSH7 0x23666666336339 PUSH1 0xC8 SHL DUP2 DUP8 ADD MSTORE DUP3 DUP7 ADD MSTORE DUP3 MLOAD DUP1 DUP5 ADD DUP5 MSTORE SWAP1 DUP2 MSTORE PUSH7 0x23646661393761 PUSH1 0xC8 SHL SWAP5 DUP2 ADD SWAP5 SWAP1 SWAP5 MSTORE DUP1 DUP3 ADD SWAP4 SWAP1 SWAP4 MSTORE SWAP1 MLOAD PUSH1 0x60 DUP4 ADD MSTORE DUP7 ADD MLOAD PUSH1 0x4 DUP2 LT PUSH2 0x2A1 JUMPI PUSH2 0x2A1 PUSH2 0x46EE JUMP JUMPDEST PUSH1 0x20 SWAP1 DUP2 MUL SWAP2 SWAP1 SWAP2 ADD MLOAD PUSH1 0x40 DUP1 DUP6 ADD SWAP2 SWAP1 SWAP2 MSTORE DUP1 MLOAD PUSH1 0xC0 DUP2 ADD DUP3 MSTORE PUSH1 0x7 PUSH1 0x80 DUP3 ADD DUP2 DUP2 MSTORE PUSH7 0x23616432373237 PUSH1 0xC8 SHL PUSH1 0xA0 DUP5 ADD MSTORE DUP3 MSTORE DUP3 MLOAD DUP1 DUP5 ADD DUP5 MSTORE DUP2 DUP2 MSTORE PUSH7 0x23643734373937 PUSH1 0xC8 SHL DUP2 DUP7 ADD MSTORE DUP3 DUP6 ADD MSTORE DUP3 MLOAD DUP1 DUP5 ADD DUP5 MSTORE DUP2 DUP2 MSTORE PUSH7 0x23653163643431 PUSH1 0xC8 SHL DUP2 DUP7 ADD MSTORE DUP3 DUP5 ADD MSTORE DUP3 MLOAD DUP1 DUP5 ADD SWAP1 SWAP4 MSTORE DUP3 MSTORE PUSH7 0x23336561316431 PUSH1 0xC8 SHL SWAP3 DUP3 ADD SWAP3 SWAP1 SWAP3 MSTORE PUSH1 0x60 DUP3 ADD MSTORE DUP6 PUSH1 0x3 PUSH1 0x20 MUL ADD MLOAD PUSH1 0x4 DUP2 LT PUSH2 0x34A JUMPI PUSH2 0x34A PUSH2 0x46EE JUMP JUMPDEST PUSH1 0x20 SWAP1 DUP2 MUL SWAP2 SWAP1 SWAP2 ADD MLOAD PUSH1 0x60 DUP5 DUP2 ADD SWAP2 SWAP1 SWAP2 MSTORE PUSH1 0x40 DUP1 MLOAD PUSH1 0xE0 DUP2 ADD DUP3 MSTORE PUSH1 0x7 PUSH1 0xA0 DUP3 ADD DUP2 DUP2 MSTORE PUSH7 0x8D90E4D189999 PUSH1 0xCA SHL PUSH1 0xC0 DUP5 ADD MSTORE DUP3 MSTORE DUP3 MLOAD DUP1 DUP5 ADD DUP5 MSTORE DUP2 DUP2 MSTORE PUSH7 0x23666666316661 PUSH1 0xC8 SHL DUP2 DUP8 ADD MSTORE DUP3 DUP7 ADD MSTORE DUP3 MLOAD DUP1 DUP5 ADD DUP5 MSTORE DUP2 DUP2 MSTORE PUSH7 0x23666638656437 PUSH1 0xC8 SHL DUP2 DUP8 ADD MSTORE DUP3 DUP5 ADD MSTORE DUP3 MLOAD DUP1 DUP5 ADD DUP5 MSTORE DUP2 DUP2 MSTORE PUSH7 0x119B9C1C1CB333 PUSH1 0xC9 SHL DUP2 DUP8 ADD MSTORE SWAP4 DUP3 ADD SWAP4 SWAP1 SWAP4 MSTORE DUP2 MLOAD DUP1 DUP4 ADD SWAP1 SWAP3 MSTORE SWAP2 DUP2 MSTORE PUSH7 0x46CC60CCCC6E7 PUSH1 0xCB SHL SWAP3 DUP2 ADD SWAP3 SWAP1 SWAP3 MSTORE PUSH1 0x80 DUP1 DUP3 ADD SWAP3 SWAP1 SWAP3 MSTORE SWAP1 DUP7 ADD MLOAD PUSH1 0x5 DUP2 LT PUSH2 0x416 JUMPI PUSH2 0x416 PUSH2 0x46EE JUMP JUMPDEST PUSH1 0x20 MUL ADD MLOAD DUP3 PUSH1 0x80 ADD DUP2 SWAP1 MSTORE POP PUSH1 0x0 DUP3 PUSH1 0x0 ADD MLOAD DUP4 PUSH1 0x40 ADD MLOAD PUSH1 0x40 MLOAD PUSH1 0x20 ADD PUSH2 0x440 SWAP3 SWAP2 SWAP1 PUSH2 0x237B JUMP JUMPDEST PUSH1 0x40 DUP1 MLOAD DUP1 DUP4 SUB PUSH1 0x1F NOT ADD DUP2 MSTORE SWAP2 SWAP1 MSTORE PUSH2 0x120 DUP8 ADD MLOAD SWAP1 SWAP2 POP PUSH1 0x1 EQ ISZERO PUSH2 0x48E JUMPI DUP3 MLOAD PUSH1 0x20 DUP1 DUP6 ADD MLOAD PUSH1 0x40 DUP1 DUP8 ADD MLOAD SWAP1 MLOAD PUSH2 0x47C SWAP5 SWAP4 ADD PUSH2 0x227F JUMP JUMPDEST PUSH1 0x40 MLOAD PUSH1 0x20 DUP2 DUP4 SUB SUB DUP2 MSTORE SWAP1 PUSH1 0x40 MSTORE SWAP1 POP JUMPDEST PUSH1 0x0 DUP4 PUSH1 0x40 ADD MLOAD PUSH1 0x40 MLOAD PUSH1 0x20 ADD PUSH2 0x4A5 SWAP2 SWAP1 PUSH2 0x343A JUMP JUMPDEST PUSH1 0x40 DUP1 MLOAD DUP1 DUP4 SUB PUSH1 0x1F NOT ADD DUP2 MSTORE SWAP2 SWAP1 MSTORE PUSH2 0x120 DUP9 ADD MLOAD SWAP1 SWAP2 POP PUSH1 0x1 EQ ISZERO PUSH2 0x4ED JUMPI PUSH1 0x20 DUP1 DUP6 ADD MLOAD PUSH1 0x40 MLOAD PUSH2 0x4DB SWAP3 DUP3 SWAP2 ADD PUSH2 0x242B JUMP JUMPDEST PUSH1 0x40 MLOAD PUSH1 0x20 DUP2 DUP4 SUB SUB DUP2 MSTORE SWAP1 PUSH1 0x40 MSTORE SWAP1 POP JUMPDEST PUSH1 0x40 DUP1 MLOAD PUSH1 0xA0 DUP2 ADD SWAP1 SWAP2 MSTORE PUSH32 0x3C7061746820643D226D36352E3632382036382E3739342D322E303439382D31 PUSH1 0xC0 DUP3 ADD MSTORE PUSH32 0x2E363539392D312E3938323220312E3734303622202F3E3C7061746820643D22 PUSH1 0xE0 DUP3 ADD MSTORE PUSH32 0x6D36332E3538372036372E323131732D302E32353930332D322E323133322031 PUSH2 0x100 DUP3 ADD MSTORE PUSH32 0x2E383234352D322E3732303463312E393539372D302E343731343520322E3930 PUSH2 0x120 DUP3 ADD MSTORE PUSH32 0x353720312E3639343520322E3930353720312E3639343522202F3E3C70617468 PUSH2 0x140 DUP3 ADD MSTORE PUSH32 0x20643D226D36332E3538372036372E32313173302E31373131392D322E323234 PUSH2 0x160 DUP3 ADD MSTORE PUSH32 0x372D312E393933352D322E36323832632D322E303338352D302E333832372D32 PUSH2 0x180 DUP3 ADD MSTORE PUSH32 0x2E39313720312E383231332D322E39313720312E3832313322202F3E3C706174 PUSH2 0x1A0 DUP3 ADD MSTORE PUSH32 0x6820643D226D35372E3336342037322E353638632D302E353539393120302E34 PUSH2 0x1C0 DUP3 ADD MSTORE PUSH32 0x363837352D312E3431303620302E34353238322D312E393633392D302E303530 PUSH2 0x1E0 DUP3 ADD MSTORE PUSH32 0x362D302E35333931372D302E3530342D302E35353734382D312E333038342D30 PUSH2 0x200 DUP3 ADD MSTORE PUSH32 0x2E303536312D312E383331386C322E3032352D312E3838383620322E30323439 PUSH2 0x220 DUP3 ADD MSTORE PUSH32 0x20312E3838383663302E353031333520302E353233333720302E343831383420 PUSH2 0x240 DUP3 ADD MSTORE PUSH32 0x312E333331322D302E3035363120312E383331382D302E353836393220302E35 PUSH2 0x260 DUP3 ADD MSTORE PUSH32 0x373237322D312E3439393320302E34333038332D312E3937333720302E303530 PUSH2 0x280 DUP3 ADD MSTORE PUSH32 0x367A22202F3E3C7061746820643D226D36392E3237312037322E3535632D302E PUSH2 0x2A0 DUP3 ADD MSTORE PUSH32 0x3536303120302E343632352D312E34313120302E34343637372D312E39363436 PUSH2 0x2C0 DUP3 ADD MSTORE PUSH32 0x2D302E303439392D302E35333933362D302E34393732362D302E35353736382D PUSH2 0x2E0 DUP3 ADD MSTORE PUSH32 0x312E323930392D302E303536322D312E383037336C322E303235362D312E3836 PUSH2 0x300 DUP3 ADD MSTORE PUSH32 0x333420322E3032353620312E3836333463302E353031353320302E3531363339 PUSH2 0x320 DUP3 ADD MSTORE PUSH32 0x20302E34383220312E333133342D302E3035363220312E383037332D302E3538 PUSH2 0x340 DUP3 ADD MSTORE PUSH32 0x37313120302E35363530382D312E3439393820302E34323530392D312E393734 PUSH2 0x360 DUP3 ADD MSTORE PUSH13 0x19901817181A1C9CBD1110179F PUSH1 0x99 SHL PUSH2 0x380 DUP3 ADD MSTORE DUP1 PUSH2 0x38D DUP2 ADD PUSH1 0x40 MLOAD PUSH1 0x20 DUP2 DUP4 SUB SUB DUP2 MSTORE SWAP1 PUSH1 0x40 MSTORE DUP2 MSTORE PUSH1 0x20 ADD PUSH1 0x40 MLOAD PUSH1 0x20 ADD PUSH2 0xA7A SWAP1 PUSH32 0x3C7061746820643D226D36312E3237382036392E32333520322E32382D312E38 DUP2 MSTORE PUSH32 0x3820322E323820312E383822202F3E3C7061746820643D226D36332E35353820 PUSH1 0x20 DUP3 ADD MSTORE PUSH32 0x36372E323335762D312E383822202F3E3C7061746820643D226D36302E303933 PUSH1 0x40 DUP3 ADD MSTORE PUSH32 0x2036362E32333573332E35342D332E393820362E393320302E31343822202F3E PUSH1 0x60 DUP3 ADD MSTORE PUSH32 0x3C7061746820643D226D37312E3831382037322E32333563302D312E32372D30 PUSH1 0x80 DUP3 ADD MSTORE PUSH32 0x2E37392D322E33312D312E37362D322E33312D302E39373320302D312E373620 PUSH1 0xA0 DUP3 ADD MSTORE PUSH32 0x312E30332D312E373620322E3331203020312E323720302E37393120322E3331 PUSH1 0xC0 DUP3 ADD MSTORE PUSH32 0x20312E373620322E333120302E393735203020312E37362D312E303320312E37 PUSH1 0xE0 DUP3 ADD MSTORE PUSH32 0x362D322E333122202F3E3C7061746820643D226D35382E3831382037322E3233 PUSH2 0x100 DUP3 ADD MSTORE PUSH32 0x3563302D312E32372D302E3738382D322E33312D312E37362D322E33312D302E PUSH2 0x120 DUP3 ADD MSTORE PUSH32 0x39373320302D312E373620312E30332D312E373620322E3331203020312E3237 PUSH2 0x140 DUP3 ADD MSTORE PUSH32 0x20302E37393120322E333120312E373620322E333120302E393736203020312E PUSH2 0x160 DUP3 ADD MSTORE PUSH21 0x1B9B16989718199018971B9B16991719989110179F PUSH1 0x59 SHL PUSH2 0x180 DUP3 ADD MSTORE PUSH2 0x195 ADD SWAP1 JUMP JUMPDEST PUSH1 0x40 MLOAD PUSH1 0x20 DUP2 DUP4 SUB SUB DUP2 MSTORE SWAP1 PUSH1 0x40 MSTORE DUP2 MSTORE PUSH1 0x20 ADD PUSH1 0x40 MLOAD PUSH1 0x20 ADD PUSH2 0xC53 SWAP1 PUSH32 0x3C7061746820643D226D36312E3733372036362E33393663302D322E35392033 DUP2 MSTORE PUSH32 0x2E38362D322E353620332E38362D302E303234203020322E35342D332E383620 PUSH1 0x20 DUP3 ADD MSTORE PUSH32 0x322E36312D332E383620302E3032347A22202F3E3C7061746820643D226D3638 PUSH1 0x40 DUP3 ADD MSTORE PUSH32 0x2E3132372037312E33393663302D312E313120302E3638372D322E303120312E PUSH1 0x60 DUP3 ADD MSTORE PUSH32 0x35342D322E303120302E383438203020312E353420302E39303120312E353420 PUSH1 0x80 DUP3 ADD MSTORE PUSH32 0x322E3031732D302E36383920322E30312D312E353420322E3031632D302E3835 PUSH1 0xA0 DUP3 ADD MSTORE PUSH32 0x20302D312E35342D302E3930312D312E35342D322E303122202F3E3C70617468 PUSH1 0xC0 DUP3 ADD MSTORE PUSH32 0x20643D226D35362E3132372037312E33393663302D312E313120302E3638382D PUSH1 0xE0 DUP3 ADD MSTORE PUSH32 0x322E303120312E35342D322E303120302E383438203020312E353420302E3930 PUSH2 0x100 DUP3 ADD MSTORE PUSH32 0x3120312E353420322E3031203020312E31312D302E36383920322E30312D312E PUSH2 0x120 DUP3 ADD MSTORE PUSH32 0x353420322E30312D302E38343920302D312E35342D302E3930312D312E35342D PUSH2 0x140 DUP3 ADD MSTORE PUSH8 0x191718189110179F PUSH1 0xC1 SHL PUSH2 0x160 DUP3 ADD MSTORE PUSH2 0x168 ADD SWAP1 JUMP JUMPDEST PUSH1 0x40 MLOAD PUSH1 0x20 DUP2 DUP4 SUB SUB DUP2 MSTORE SWAP1 PUSH1 0x40 MSTORE DUP2 MSTORE PUSH1 0x20 ADD PUSH1 0x40 MLOAD PUSH1 0x20 ADD PUSH2 0xF52 SWAP1 PUSH32 0x3C7061746820643D226D36382E3539362037312E30373663302D312E30353637 DUP2 MSTORE PUSH32 0x20302E35373937362D312E3930383520312E323934372D312E3930383520302E PUSH1 0x20 DUP3 ADD MSTORE PUSH32 0x3731353838203020312E3239343720302E383537363420312E3239343720312E PUSH1 0x40 DUP3 ADD MSTORE PUSH32 0x39303835732D302E353831363520312E393038352D312E3239343720312E3930 PUSH1 0x60 DUP3 ADD MSTORE PUSH32 0x3835632D302E373137373920302D312E323934372D302E38353736342D312E32 PUSH1 0x80 DUP3 ADD MSTORE PUSH32 0x3934372D312E3930383522202F3E3C7061746820643D226D35362E3739322037 PUSH1 0xA0 DUP3 ADD MSTORE PUSH32 0x312E30373663302D312E3035363720302E353830372D312E3930383520312E32 PUSH1 0xC0 DUP3 ADD MSTORE PUSH32 0x3934372D312E3930383520302E3731353838203020312E3239343720302E3835 PUSH1 0xE0 DUP3 ADD MSTORE PUSH32 0x37363620312E3239343720312E39303835732D302E353831363620312E393038 PUSH2 0x100 DUP3 ADD MSTORE PUSH32 0x352D312E3239343720312E39303835632D302E373136383320302D312E323934 PUSH2 0x120 DUP3 ADD MSTORE PUSH32 0x372D302E38353736362D312E323934372D312E3930383522202F3E3C70617468 PUSH2 0x140 DUP3 ADD MSTORE PUSH32 0x20643D226D36332E3938352036372E38323173302E32303836352D322E373131 PUSH2 0x160 DUP3 ADD MSTORE PUSH32 0x362D322E343239372D332E32303333632D322E343834362D302E34363634342D PUSH2 0x180 DUP3 ADD MSTORE PUSH32 0x332E3535353320322E323139382D332E3535353320322E3231393822202F3E3C PUSH2 0x1A0 DUP3 ADD MSTORE PUSH32 0x7061746820643D226D36332E3938352036372E383231732D302E33313537322D PUSH2 0x1C0 DUP3 ADD MSTORE PUSH32 0x322E3639373520322E323233382D332E3331353763322E333838352D302E3537 PUSH2 0x1E0 DUP3 ADD MSTORE PUSH32 0x34363220332E3534313620322E3036353320332E3534313620322E3036353322 PUSH2 0x200 DUP3 ADD MSTORE PUSH32 0x202F3E3C7061746820643D226D36362E3437322036392E3735312D322E343938 PUSH2 0x220 DUP3 ADD MSTORE PUSH32 0x342D322E303233312D322E34313620322E3132313522202F3E00000000000000 PUSH2 0x240 DUP3 ADD MSTORE PUSH2 0x259 ADD SWAP1 JUMP JUMPDEST PUSH1 0x40 MLOAD PUSH1 0x20 DUP2 DUP4 SUB SUB DUP2 MSTORE SWAP1 PUSH1 0x40 MSTORE DUP2 MSTORE PUSH1 0x20 ADD PUSH1 0x40 MLOAD PUSH1 0x20 ADD PUSH2 0x12E6 SWAP1 PUSH32 0x3C7061746820643D226D37312C3733206320302C302E32202D302E332C30202D DUP2 MSTORE PUSH32 0x302E342C2D302E3120302C2D302E3420302E342C2D302E3620302E372C2D302E PUSH1 0x20 DUP3 ADD MSTORE PUSH32 0x3620302E352C3020302E392C302E3620302E382C31202D302E312C302E38202D PUSH1 0x40 DUP3 ADD MSTORE PUSH32 0x312C312E32202D312E362C31202D312C2D302E31202D312E352C2D312E31202D PUSH1 0x60 DUP3 ADD MSTORE PUSH32 0x312E332C2D3220302E332C2D312E3120312E362C2D312E3720322E372C2D312E PUSH1 0x80 DUP3 ADD MSTORE PUSH32 0x3420312E332C302E3320322C312E3820312E372C33202D302E352C312E35202D PUSH1 0xA0 DUP3 ADD MSTORE PUSH32 0x322E322C322E33202D332E362C312E39206120332E312C332E31203020302031 PUSH1 0xC0 DUP3 ADD MSTORE PUSH32 0x202D312E372C2D3522202F3E3C7061746820643D226D35382C3733206320302C PUSH1 0xE0 DUP3 ADD MSTORE PUSH32 0x302E32202D302E332C30202D302E342C2D302E3120302C2D302E3420302E342C PUSH2 0x100 DUP3 ADD MSTORE PUSH32 0x2D302E3620302E372C2D302E3620302E352C3020302E392C302E3620302E382C PUSH2 0x120 DUP3 ADD MSTORE PUSH32 0x31202D302E312C302E38202D312C312E32202D312E362C31202D312C2D302E31 PUSH2 0x140 DUP3 ADD MSTORE PUSH32 0x202D312E352C2D312E31202D312E332C2D3220302E332C2D312E3120312E362C PUSH2 0x160 DUP3 ADD MSTORE PUSH32 0x2D312E3720322E372C2D312E3420312E332C302E3320322C312E3820312E372C PUSH2 0x180 DUP3 ADD MSTORE PUSH32 0x33202D302E352C312E35202D322E322C322E33202D332E362C312E3920612033 PUSH2 0x1A0 DUP3 ADD MSTORE PUSH32 0x2E312C332E31203020302031202D312E372C2D3522202F3E3C7061746820643D PUSH2 0x1C0 DUP3 ADD MSTORE PUSH32 0x226D36332E3938352036372E38323173302E32303836352D322E373131362D32 PUSH2 0x1E0 DUP3 ADD MSTORE PUSH32 0x2E343239372D332E32303333632D322E343834362D302E34363634342D332E35 PUSH2 0x200 DUP3 ADD MSTORE PUSH32 0x35353320322E323139382D332E3535353320322E3231393822202F3E3C706174 PUSH2 0x220 DUP3 ADD MSTORE PUSH32 0x6820643D226D36332E3938352036372E383231732D302E33313537322D322E36 PUSH2 0x240 DUP3 ADD MSTORE PUSH32 0x39373520322E323233382D332E3331353763322E333838352D302E3537343632 PUSH2 0x260 DUP3 ADD MSTORE PUSH32 0x20332E3534313620322E3036353320332E3534313620322E3036353322202F3E PUSH2 0x280 DUP3 ADD MSTORE PUSH32 0x3C7061746820643D226D36362E3437322036392E3735312D322E343938342D32 PUSH2 0x2A0 DUP3 ADD MSTORE PUSH22 0x17181919989699171A189B1019171899189A9110179F PUSH1 0x51 SHL PUSH2 0x2C0 DUP3 ADD MSTORE PUSH2 0x2D6 ADD SWAP1 JUMP JUMPDEST PUSH1 0x40 DUP1 MLOAD DUP1 DUP4 SUB PUSH1 0x1F NOT ADD DUP2 MSTORE SWAP2 SWAP1 MSTORE SWAP1 MSTORE PUSH1 0xA0 DUP9 ADD MLOAD PUSH1 0x5 DUP2 LT PUSH2 0x130D JUMPI PUSH2 0x130D PUSH2 0x46EE JUMP JUMPDEST PUSH1 0x20 MUL ADD MLOAD DUP4 MSTORE PUSH1 0x40 DUP1 MLOAD DUP1 DUP3 ADD SWAP1 SWAP2 MSTORE PUSH32 0x3C7061746820643D226D37362E30322034382E30333963302D362E33312D352E PUSH1 0x60 DUP3 ADD MSTORE PUSH32 0x332D31312E342D31312E382D31312E342D362E353420302D31312E3820352E31 PUSH1 0x80 DUP3 ADD MSTORE PUSH32 0x322D31312E382031312E34203020362E333120352E332031312E342031312E38 PUSH1 0xA0 DUP3 ADD MSTORE PUSH32 0x2031312E3420362E353420302031312E382D352E31322031312E382D31312E34 PUSH1 0xC0 DUP3 ADD MSTORE PUSH4 0x3D11179F PUSH1 0xE1 SHL PUSH1 0xE0 DUP3 ADD MSTORE DUP1 PUSH1 0xE4 DUP2 ADD PUSH1 0x40 MLOAD PUSH1 0x20 DUP2 DUP4 SUB SUB DUP2 MSTORE SWAP1 PUSH1 0x40 MSTORE DUP2 MSTORE PUSH1 0x20 ADD PUSH1 0x40 MLOAD PUSH1 0x20 ADD PUSH2 0x14BE SWAP1 PUSH32 0x3C7061746820643D226D36342E3232392035372E30333963322E393220322E36 DUP2 MSTORE PUSH32 0x3220372E343320322E35332031302E322D302E32383320322E38312D322E3832 PUSH1 0x20 DUP3 ADD MSTORE PUSH32 0x20322E39312D372E333120302E3239332D31302E326C2D31302E352D31302E36 PUSH1 0x40 DUP3 ADD MSTORE PUSH32 0x2D31302E352031302E36632D322E363220322E39332D322E353220372E343320 PUSH1 0x60 DUP3 ADD MSTORE PUSH32 0x302E3239332031302E3220322E383220322E383120372E333220322E39312031 PUSH1 0x80 DUP3 ADD MSTORE PUSH14 0x181719101817191C19BD1110179F PUSH1 0x91 SHL PUSH1 0xA0 DUP3 ADD MSTORE PUSH1 0xAE ADD SWAP1 JUMP JUMPDEST PUSH1 0x40 DUP1 MLOAD DUP1 DUP4 SUB PUSH1 0x1F NOT ADD DUP2 MSTORE SWAP2 SWAP1 MSTORE SWAP1 MSTORE PUSH1 0xC0 DUP9 ADD MLOAD PUSH1 0x2 DUP2 LT PUSH2 0x14E5 JUMPI PUSH2 0x14E5 PUSH2 0x46EE JUMP JUMPDEST PUSH1 0x20 SWAP1 DUP2 MUL SWAP2 SWAP1 SWAP2 ADD MLOAD DUP5 DUP3 ADD DUP2 SWAP1 MSTORE DUP6 DUP3 ADD MLOAD DUP6 MLOAD DUP8 MLOAD PUSH1 0x40 MLOAD PUSH1 0x0 SWAP6 PUSH2 0x1512 SWAP6 DUP6 SWAP4 SWAP3 SWAP1 SWAP2 ADD PUSH2 0x3A31 JUMP JUMPDEST PUSH1 0x40 DUP1 MLOAD PUSH1 0x1F NOT DUP2 DUP5 SUB ADD DUP2 MSTORE PUSH1 0xA0 DUP4 ADD SWAP1 SWAP2 MSTORE PUSH1 0x60 DUP8 ADD MLOAD SWAP1 SWAP3 POP DUP2 SWAP1 PUSH2 0x153D SWAP1 PUSH1 0xC0 DUP4 ADD PUSH2 0x3478 JUMP JUMPDEST PUSH1 0x40 MLOAD PUSH1 0x20 DUP2 DUP4 SUB SUB DUP2 MSTORE SWAP1 PUSH1 0x40 MSTORE DUP2 MSTORE PUSH1 0x20 ADD DUP7 PUSH1 0x60 ADD MLOAD DUP8 PUSH1 0x60 ADD MLOAD PUSH1 0x40 MLOAD PUSH1 0x20 ADD PUSH2 0x156C SWAP3 SWAP2 SWAP1 PUSH2 0x2E86 JUMP JUMPDEST PUSH1 0x40 MLOAD PUSH1 0x20 DUP2 DUP4 SUB SUB DUP2 MSTORE SWAP1 PUSH1 0x40 MSTORE DUP2 MSTORE PUSH1 0x20 ADD DUP7 PUSH1 0x60 ADD MLOAD PUSH1 0x40 MLOAD PUSH1 0x20 ADD PUSH2 0x1595 SWAP2 SWAP1 PUSH2 0x36B8 JUMP JUMPDEST PUSH1 0x40 MLOAD PUSH1 0x20 DUP2 DUP4 SUB SUB DUP2 MSTORE SWAP1 PUSH1 0x40 MSTORE DUP2 MSTORE PUSH1 0x20 ADD DUP7 PUSH1 0x60 ADD MLOAD PUSH1 0x40 MLOAD PUSH1 0x20 ADD PUSH2 0x15BE SWAP2 SWAP1 PUSH2 0x3970 JUMP JUMPDEST PUSH1 0x40 DUP1 MLOAD DUP1 DUP4 SUB PUSH1 0x1F NOT ADD DUP2 MSTORE SWAP2 DUP2 MSTORE SWAP1 DUP3 MSTORE DUP1 MLOAD PUSH1 0x20 DUP1 DUP3 ADD SWAP1 SWAP3 MSTORE PUSH1 0x0 DUP2 MSTORE SWAP2 ADD MSTORE PUSH1 0xE0 DUP10 ADD MLOAD PUSH1 0x5 DUP2 LT PUSH2 0x15F7 JUMPI PUSH2 0x15F7 PUSH2 0x46EE JUMP JUMPDEST PUSH1 0x20 MUL ADD MLOAD DUP5 PUSH1 0x40 ADD DUP2 SWAP1 MSTORE POP PUSH1 0x40 MLOAD DUP1 PUSH1 0xA0 ADD PUSH1 0x40 MSTORE DUP1 DUP7 PUSH1 0x80 ADD MLOAD PUSH1 0x40 MLOAD PUSH1 0x20 ADD PUSH2 0x1624 SWAP2 SWAP1 PUSH2 0x31C3 JUMP JUMPDEST PUSH1 0x40 MLOAD PUSH1 0x20 DUP2 DUP4 SUB SUB DUP2 MSTORE SWAP1 PUSH1 0x40 MSTORE DUP2 MSTORE PUSH1 0x20 ADD DUP7 PUSH1 0x80 ADD MLOAD PUSH1 0x40 MLOAD PUSH1 0x20 ADD PUSH2 0x164D SWAP2 SWAP1 PUSH2 0x3EB9 JUMP JUMPDEST PUSH1 0x40 MLOAD PUSH1 0x20 DUP2 DUP4 SUB SUB DUP2 MSTORE SWAP1 PUSH1 0x40 MSTORE DUP2 MSTORE PUSH1 0x20 ADD DUP7 PUSH1 0x80 ADD MLOAD PUSH1 0x40 MLOAD PUSH1 0x20 ADD PUSH2 0x1676 SWAP2 SWAP1 PUSH2 0x273E JUMP JUMPDEST PUSH1 0x40 MLOAD PUSH1 0x20 DUP2 DUP4 SUB SUB DUP2 MSTORE SWAP1 PUSH1 0x40 MSTORE DUP2 MSTORE PUSH1 0x20 ADD DUP7 PUSH1 0x80 ADD MLOAD PUSH1 0x40 MLOAD PUSH1 0x20 ADD PUSH2 0x169F SWAP2 SWAP1 PUSH2 0x1C19 JUMP JUMPDEST PUSH1 0x40 DUP1 MLOAD DUP1 DUP4 SUB PUSH1 0x1F NOT ADD DUP2 MSTORE SWAP2 DUP2 MSTORE SWAP1 DUP3 MSTORE DUP1 MLOAD PUSH1 0x20 DUP1 DUP3 ADD SWAP1 SWAP3 MSTORE PUSH1 0x0 DUP2 MSTORE SWAP2 ADD MSTORE PUSH2 0x100 DUP10 ADD MLOAD PUSH1 0x5 DUP2 LT PUSH2 0x16D9 JUMPI PUSH2 0x16D9 PUSH2 0x46EE JUMP JUMPDEST PUSH1 0x20 MUL ADD MLOAD DUP5 PUSH1 0x60 ADD DUP2 SWAP1 MSTORE POP PUSH1 0x0 DUP6 PUSH1 0x20 ADD MLOAD DUP9 PUSH1 0x40 MLOAD PUSH1 0x20 ADD PUSH2 0x16FF SWAP3 SWAP2 SWAP1 PUSH2 0x3B4A JUMP JUMPDEST PUSH1 0x40 DUP1 MLOAD PUSH1 0x1F NOT DUP2 DUP5 SUB ADD DUP2 MSTORE DUP3 DUP3 MSTORE SWAP1 DUP8 ADD MLOAD PUSH1 0x60 DUP9 ADD MLOAD SWAP2 SWAP4 POP PUSH2 0x1730 SWAP3 DUP8 SWAP3 DUP8 SWAP3 SWAP2 DUP8 SWAP1 DUP8 SWAP1 PUSH1 0x20 ADD PUSH2 0x1B9A JUMP JUMPDEST PUSH1 0x40 MLOAD PUSH1 0x20 DUP2 DUP4 SUB SUB DUP2 MSTORE SWAP1 PUSH1 0x40 MSTORE SWAP7 POP POP POP POP POP POP POP SWAP3 SWAP2 POP POP JUMP JUMPDEST PUSH1 0x0 DUP3 PUSH1 0x1F DUP4 ADD SLT PUSH2 0x175E JUMPI PUSH1 0x0 DUP1 REVERT JUMPDEST DUP2 CALLDATALOAD PUSH8 0xFFFFFFFFFFFFFFFF DUP1 DUP3 GT ISZERO PUSH2 0x1779 JUMPI PUSH2 0x1779 PUSH2 0x4704 JUMP JUMPDEST PUSH1 0x40 MLOAD PUSH1 0x1F DUP4 ADD PUSH1 0x1F NOT SWAP1 DUP2 AND PUSH1 0x3F ADD AND DUP2 ADD SWAP1 DUP3 DUP3 GT DUP2 DUP4 LT OR ISZERO PUSH2 0x17A1 JUMPI PUSH2 0x17A1 PUSH2 0x4704 JUMP JUMPDEST DUP2 PUSH1 0x40 MSTORE DUP4 DUP2 MSTORE DUP7 PUSH1 0x20 DUP6 DUP9 ADD ADD GT ISZERO PUSH2 0x17BA JUMPI PUSH1 0x0 DUP1 REVERT JUMPDEST DUP4 PUSH1 0x20 DUP8 ADD PUSH1 0x20 DUP4 ADD CALLDATACOPY PUSH1 0x0 PUSH1 0x20 DUP6 DUP4 ADD ADD MSTORE DUP1 SWAP5 POP POP POP POP POP SWAP3 SWAP2 POP POP JUMP JUMPDEST PUSH1 0x0 DUP1 PUSH2 0x160 DUP4 DUP6 SUB SLT ISZERO PUSH2 0x17EE JUMPI PUSH1 0x0 DUP1 REVERT JUMPDEST DUP4 PUSH1 0x1F DUP5 ADD SLT PUSH2 0x17FD JUMPI PUSH1 0x0 DUP1 REVERT JUMPDEST PUSH2 0x1805 PUSH2 0x4694 JUMP JUMPDEST DUP1 DUP5 PUSH2 0x140 DUP7 ADD DUP8 DUP2 GT ISZERO PUSH2 0x1819 JUMPI PUSH1 0x0 DUP1 REVERT JUMPDEST PUSH1 0x0 JUMPDEST PUSH1 0xA DUP2 LT ISZERO PUSH2 0x183B JUMPI DUP3 CALLDATALOAD DUP6 MSTORE PUSH1 0x20 SWAP5 DUP6 ADD SWAP5 SWAP1 SWAP3 ADD SWAP2 PUSH1 0x1 ADD PUSH2 0x181C JUMP JUMPDEST POP SWAP2 SWAP5 POP POP CALLDATALOAD SWAP1 POP PUSH8 0xFFFFFFFFFFFFFFFF DUP2 GT ISZERO PUSH2 0x1858 JUMPI PUSH1 0x0 DUP1 REVERT JUMPDEST PUSH2 0x1864 DUP6 DUP3 DUP7 ADD PUSH2 0x174D JUMP JUMPDEST SWAP2 POP POP SWAP3 POP SWAP3 SWAP1 POP JUMP JUMPDEST PUSH1 0x0 DUP2 MLOAD PUSH2 0x1880 DUP2 DUP6 PUSH1 0x20 DUP7 ADD PUSH2 0x46BE JUMP JUMPDEST SWAP3 SWAP1 SWAP3 ADD SWAP3 SWAP2 POP POP JUMP JUMPDEST PUSH32 0x2220643D226D3130322E37332039312E32323563382E36322031362E312D322E DUP2 MSTORE PUSH32 0x32382032382E382D31342E332032342E312D31322E392D352E30352D31352E32 PUSH1 0x20 DUP3 ADD MSTORE PUSH32 0x2D33302E372D31352E342D33322E312D322E393620302E3731312D362E303620 PUSH1 0x40 DUP3 ADD MSTORE PUSH32 0x312E30392D392E323520312E30392D332E313720302D362E32352D302E333831 PUSH1 0x60 DUP3 ADD MSTORE PUSH32 0x2D392E322D312E30382D302E31343220312E35332D322E352032372D31352E34 PUSH1 0x80 DUP3 ADD MSTORE PUSH32 0x2033322E312D31322E3120342E372D32332E312D372E36352D31342E342D3234 PUSH1 0xA0 DUP3 ADD MSTORE PUSH32 0x2E3120342E34382D382E34372031322E372D31362E342031322E372D31362E34 PUSH1 0xC0 DUP3 ADD MSTORE PUSH32 0x2D372E342D362E36382D31312E382D31362E362D31312E382D32372E3120302D PUSH1 0xE0 DUP3 ADD MSTORE PUSH32 0x32302E322031372E312D33362E362033382E312D33362E367333382E31203136 PUSH2 0x100 DUP3 ADD MSTORE PUSH32 0x2E342033382E312033362E3663302031302E352D342E33382032302E342D3131 PUSH2 0x120 DUP3 ADD MSTORE PUSH32 0x2E382032372E3120302E3139372D302E333232203020302030203073382E3132 PUSH2 0x140 DUP3 ADD MSTORE PUSH19 0x101B971C9A901899171B10189B171A1110179F PUSH1 0x69 SHL PUSH2 0x160 DUP3 ADD MSTORE PUSH2 0x173 ADD SWAP1 JUMP JUMPDEST PUSH32 0x3C7376672076696577426F783D22302030203132372E3438203132372E343822 DUP2 MSTORE PUSH32 0x20786D6C6E733A786C696E6B3D22687474703A2F2F7777772E77332E6F72672F PUSH1 0x20 DUP3 ADD MSTORE PUSH32 0x313939392F786C696E6B2220786D6C6E733D22687474703A2F2F7777772E7733 PUSH1 0x40 DUP3 ADD MSTORE PUSH32 0x2E6F72672F323030302F737667223E3C67207472616E73666F726D3D22726F74 PUSH1 0x60 DUP3 ADD MSTORE PUSH32 0x617465283138302036332E3733392036332E3733392922207374796C653D2273 PUSH1 0x80 DUP3 ADD MSTORE PUSH32 0x74726F6B652D6C696E656361703A726F756E643B7374726F6B652D6C696E656A PUSH1 0xA0 DUP3 ADD MSTORE PUSH32 0x6F696E3A726F756E643B66696C6C3A6E6F6E653B223E3C7265637420636C6173 PUSH1 0xC0 DUP3 ADD MSTORE PUSH32 0x733D226267222077696474683D223132372E343822206865696768743D223132 PUSH1 0xE0 DUP3 ADD MSTORE PUSH12 0x1B971A1C11103334B6361E91 PUSH1 0xA1 SHL PUSH2 0x100 DUP3 ADD MSTORE PUSH2 0x10C ADD SWAP1 JUMP JUMPDEST PUSH1 0x0 DUP8 MLOAD PUSH1 0x20 PUSH2 0x1BAD DUP3 DUP6 DUP4 DUP14 ADD PUSH2 0x46BE JUMP JUMPDEST DUP9 MLOAD SWAP2 DUP5 ADD SWAP2 PUSH2 0x1BC0 DUP2 DUP5 DUP5 DUP14 ADD PUSH2 0x46BE JUMP JUMPDEST DUP9 MLOAD SWAP3 ADD SWAP2 PUSH2 0x1BD2 DUP2 DUP5 DUP5 DUP13 ADD PUSH2 0x46BE JUMP JUMPDEST DUP8 MLOAD SWAP3 ADD SWAP2 PUSH2 0x1BE4 DUP2 DUP5 DUP5 DUP12 ADD PUSH2 0x46BE JUMP JUMPDEST DUP7 MLOAD SWAP3 ADD SWAP2 PUSH2 0x1BF6 DUP2 DUP5 DUP5 DUP11 ADD PUSH2 0x46BE JUMP JUMPDEST DUP6 MLOAD SWAP3 ADD SWAP2 PUSH2 0x1C08 DUP2 DUP5 DUP5 DUP10 ADD PUSH2 0x46BE JUMP JUMPDEST SWAP2 SWAP1 SWAP2 ADD SWAP10 SWAP9 POP POP POP POP POP POP POP POP POP JUMP JUMPDEST PUSH9 0x1E33903334B6361E91 PUSH1 0xB9 SHL DUP2 MSTORE DUP2 MLOAD PUSH1 0x0 SWAP1 PUSH2 0x1C3E DUP2 PUSH1 0x9 DUP6 ADD PUSH1 0x20 DUP8 ADD PUSH2 0x46BE JUMP JUMPDEST PUSH32 0x223E3C7061746820643D226D38372036342D312E352D312D312E3720302E3620 PUSH1 0x9 SWAP4 SWAP1 SWAP2 ADD SWAP3 DUP4 ADD MSTORE POP PUSH32 0x302E342D312E372D312E312D312E3468312E386C302E392D312E3520302E3620 PUSH1 0x29 DUP3 ADD MSTORE PUSH32 0x312E3720312E3720302E342D312E3420312E317A222F3E3C7061746820643D22 PUSH1 0x49 DUP3 ADD MSTORE PUSH32 0x6D38312035332D302E35342D312E372D312E372D302E3620312E342D312E3120 PUSH1 0x69 DUP3 ADD MSTORE PUSH32 0x302E3032322D312E3820312E3420312E3120312E362D302E362D302E3620312E PUSH1 0x89 DUP3 ADD MSTORE PUSH32 0x3720312E3120312E342D312E382D302E3032327A222F3E3C7061746820643D22 PUSH1 0xA9 DUP3 ADD MSTORE PUSH32 0x6D39332034332D312E3820302E33352D302E373820312E362D302E39322D312E PUSH1 0xC9 DUP3 ADD MSTORE PUSH32 0x352D312E382D302E323120312E332D312E332D302E34322D312E3720312E3620 PUSH1 0xE9 DUP3 ADD DUP2 SWAP1 MSTORE PUSH32 0x302E373820312E352D302E39322D302E323120312E387A222F3E3C7061746820 PUSH2 0x109 DUP4 ADD DUP2 SWAP1 MSTORE PUSH32 0x643D226D37392034322D302E39332D312E352D312E382D302E313820312E312D PUSH2 0x129 DUP5 ADD MSTORE PUSH32 0x312E342D302E342D312E3720312E3620302E373620312E352D302E39382D302E PUSH2 0x149 DUP5 ADD MSTORE PUSH32 0x313820312E3820312E3420312E312D312E3720302E347A222F3E3C7061746820 PUSH2 0x169 DUP5 ADD MSTORE PUSH32 0x643D226D35302034372D312E352D312D312E3720302E3620302E342D312E372D PUSH2 0x189 DUP5 ADD MSTORE PUSH32 0x312E312D312E3468312E386C302E392D312E3520302E3620312E3720312E3720 PUSH2 0x1A9 DUP5 ADD MSTORE PUSH32 0x302E342D312E3420312E317A222F3E3C7061746820643D226D38382033332D31 PUSH2 0x1C9 DUP5 ADD MSTORE PUSH32 0x2E3820302E33352D302E373820312E362D302E39322D312E352D312E382D302E PUSH2 0x1E9 DUP5 ADD MSTORE PUSH32 0x323120312E332D312E332D302E34322D312E3720312E3620302E373820312E35 PUSH2 0x209 DUP5 ADD MSTORE PUSH32 0x2D302E39322D302E323120312E387A222F3E3C7061746820643D226D35382033 PUSH2 0x229 DUP5 ADD MSTORE PUSH32 0x352D302E35342D312E372D312E372D302E3620312E342D312E3120302E303232 PUSH2 0x249 DUP5 ADD MSTORE PUSH32 0x2D312E3820312E3420312E3120312E362D302E362D302E3620312E3720312E31 PUSH2 0x269 DUP5 ADD MSTORE PUSH32 0x20312E342D312E382D302E3032327A222F3E3C7061746820643D226D35302036 PUSH2 0x289 DUP5 ADD MSTORE PUSH32 0x392D312E362D302E37342D312E3620302E383720302E31322D312E372D312E33 PUSH2 0x2A9 DUP5 ADD MSTORE PUSH32 0x2D312E3220312E382D302E323920302E36352D312E3620302E383720312E3620 PUSH2 0x2C9 DUP5 ADD MSTORE PUSH32 0x312E3720302E31322D312E3220312E337A222F3E3C7061746820643D226D3430 PUSH2 0x2E9 DUP5 ADD MSTORE PUSH32 0x2035332D312E3820302E33352D302E373820312E362D302E39322D312E352D31 PUSH2 0x309 DUP5 ADD MSTORE PUSH32 0x2E382D302E323120312E332D312E332D302E34322D312E3720312E3620302E37 PUSH2 0x329 DUP5 ADD MSTORE PUSH32 0x3820312E352D302E39322D302E323120312E387A222F3E3C7061746820643D22 PUSH2 0x349 DUP5 ADD MSTORE PUSH32 0x6D34312034322D312E3820302E33352D302E373820312E362D302E39322D312E PUSH2 0x369 DUP5 ADD MSTORE PUSH2 0x389 DUP4 ADD SWAP2 SWAP1 SWAP2 MSTORE PUSH2 0x3A9 DUP3 ADD MSTORE PUSH32 0x643D226D35302035352D312E3220312E3320302E333120312E382D312E362D30 PUSH2 0x3C9 DUP3 ADD MSTORE PUSH32 0x2E36372D312E3620302E383620302E32392D312E382D312E332D312E3120312E PUSH2 0x3E9 DUP3 ADD MSTORE PUSH32 0x382D302E333120302E36372D312E3620302E383620312E367A222F3E3C706174 PUSH2 0x409 DUP3 ADD MSTORE PUSH32 0x6820643D226D35342032332D312E3820302E33352D302E373820312E362D302E PUSH2 0x429 DUP3 ADD MSTORE PUSH32 0x39322D312E352D312E382D302E323120312E332D312E332D302E34322D312E37 PUSH2 0x449 DUP3 ADD MSTORE PUSH32 0x20312E3620302E373820312E352D302E39322D302E323120312E387A222F3E3C PUSH2 0x469 DUP3 ADD MSTORE PUSH32 0x7061746820643D226D35302033342D312E362D302E38372D312E3620302E3734 PUSH2 0x489 DUP3 ADD MSTORE PUSH32 0x20302E32352D312E372D312E322D312E3320312E382D302E313520302E37372D PUSH2 0x4A9 DUP3 ADD MSTORE PUSH32 0x312E3620302E373420312E3620312E3720302E32352D312E3320312E327A222F PUSH2 0x4C9 DUP3 ADD MSTORE PUSH32 0x3E3C7061746820643D226D37322033342D302E35342D312E372D312E372D302E PUSH2 0x4E9 DUP3 ADD MSTORE PUSH32 0x3620312E342D312E3120302E3032322D312E3820312E3420312E3120312E362D PUSH2 0x509 DUP3 ADD MSTORE PUSH32 0x302E362D302E3620312E3720312E3120312E342D312E382D302E3032327A222F PUSH2 0x529 DUP3 ADD MSTORE PUSH5 0x1F1E17B39F PUSH1 0xD9 SHL PUSH2 0x549 DUP3 ADD MSTORE PUSH2 0x54E ADD SWAP2 SWAP1 POP JUMP JUMPDEST PUSH1 0x0 PUSH2 0x228A DUP3 PUSH2 0x1A50 JUMP JUMPDEST DUP6 MLOAD PUSH2 0x229A DUP2 DUP4 PUSH1 0x20 DUP11 ADD PUSH2 0x46BE JUMP JUMPDEST PUSH10 0x111039BA3937B5B29E91 PUSH1 0xB1 SHL SWAP2 ADD SWAP1 DUP2 MSTORE DUP5 MLOAD PUSH2 0x22C0 DUP2 PUSH1 0xA DUP5 ADD PUSH1 0x20 DUP10 ADD PUSH2 0x46BE JUMP JUMPDEST PUSH32 0x22207374726F6B652D77696474683D223322207374726F6B652D646173686172 PUSH1 0xA SWAP3 SWAP1 SWAP2 ADD SWAP2 DUP3 ADD MSTORE PUSH32 0x7261793D223130203130203430203130222F3E3C70617468207374796C653D22 PUSH1 0x2A DUP3 ADD MSTORE PUSH32 0x66696C7465723A2064726F702D736861646F7728307078203070782031307078 PUSH1 0x4A DUP3 ADD MSTORE PUSH15 0x1011B33333149D91103334B6361E91 PUSH1 0x89 SHL PUSH1 0x6A DUP3 ADD MSTORE DUP4 MLOAD PUSH2 0x2362 DUP2 PUSH1 0x79 DUP5 ADD PUSH1 0x20 DUP9 ADD PUSH2 0x46BE JUMP JUMPDEST PUSH2 0x2370 PUSH1 0x79 DUP3 DUP5 ADD ADD PUSH2 0x188A JUMP JUMPDEST SWAP8 SWAP7 POP POP POP POP POP POP POP JUMP JUMPDEST PUSH1 0x0 PUSH2 0x2386 DUP3 PUSH2 0x1A50 JUMP JUMPDEST DUP5 MLOAD PUSH2 0x2396 DUP2 DUP4 PUSH1 0x20 DUP10 ADD PUSH2 0x46BE JUMP JUMPDEST DUP1 DUP3 ADD SWAP2 POP POP PUSH32 0x22207374796C653D226F7061636974793A302E38222F3E3C7061746820737479 DUP2 MSTORE PUSH32 0x6C653D2266696C7465723A2064726F702D736861646F77283070782030707820 PUSH1 0x20 DUP3 ADD MSTORE PUSH18 0x1C383C1011B33333149D91103334B6361E91 PUSH1 0x71 SHL PUSH1 0x40 DUP3 ADD MSTORE DUP4 MLOAD PUSH2 0x2413 DUP2 PUSH1 0x52 DUP5 ADD PUSH1 0x20 DUP9 ADD PUSH2 0x46BE JUMP JUMPDEST PUSH2 0x2421 PUSH1 0x52 DUP3 DUP5 ADD ADD PUSH2 0x188A JUMP JUMPDEST SWAP7 SWAP6 POP POP POP POP POP POP JUMP JUMPDEST PUSH32 0x3C706174682069643D227261726550617468222066696C6C3D22000000000000 DUP2 MSTORE PUSH1 0x0 DUP4 MLOAD PUSH2 0x2463 DUP2 PUSH1 0x1A DUP6 ADD PUSH1 0x20 DUP9 ADD PUSH2 0x46BE JUMP JUMPDEST PUSH32 0x2220643D226D3130322E37332039312E32323563382E36322031362E312D322E PUSH1 0x1A SWAP2 DUP5 ADD SWAP2 DUP3 ADD MSTORE PUSH32 0x32382032382E382D31342E332032342E312D31322E392D352E30352D31352E32 PUSH1 0x3A DUP3 ADD MSTORE PUSH32 0x2D33302E372D31352E342D33322E312D322E393620302E3731312D362E303620 PUSH1 0x5A DUP3 ADD MSTORE PUSH32 0x312E30392D392E323520312E30392D332E313720302D362E32352D302E333831 PUSH1 0x7A DUP3 ADD MSTORE PUSH32 0x2D392E322D312E30382D302E31343220312E35332D322E352032372D31352E34 PUSH1 0x9A DUP3 ADD MSTORE PUSH32 0x2033322E312D31322E3120342E372D32332E312D372E36352D31342E342D3234 PUSH1 0xBA DUP3 ADD MSTORE PUSH32 0x2E3120342E34382D382E34372031322E372D31362E342031322E372D31362E34 PUSH1 0xDA DUP3 ADD MSTORE PUSH32 0x2D372E342D362E36382D31312E382D31362E362D31312E382D32372E3120302D PUSH1 0xFA DUP3 ADD MSTORE PUSH32 0x32302E322031372E312D33362E362033382E312D33362E367333382E31203136 PUSH2 0x11A DUP3 ADD MSTORE PUSH32 0x2E342033382E312033362E3663302031302E352D342E33382032302E342D3131 PUSH2 0x13A DUP3 ADD MSTORE PUSH32 0x2E382032372E3120302E3139372D302E333232203020302030203073382E3132 PUSH2 0x15A DUP3 ADD MSTORE PUSH32 0x20372E39352031322E362031362E3422202F3E3C74657874207374796C653D22 PUSH2 0x17A DUP3 ADD MSTORE PUSH32 0x666F6E742D66616D696C793A73616E732D73657269663B666F6E742D77656967 PUSH2 0x19A DUP3 ADD MSTORE PUSH32 0x68743A3930303B666F6E742D73697A653A313170783B6C65747465722D737061 PUSH2 0x1BA DUP3 ADD MSTORE PUSH15 0x31B4B7339D1698B83C1DB334B6361D PUSH1 0x89 SHL PUSH2 0x1DA DUP3 ADD MSTORE PUSH2 0x2735 PUSH2 0x26AB PUSH2 0x1E9 DUP4 ADD DUP7 PUSH2 0x186E JUMP JUMPDEST PUSH32 0x3B223E3C74657874506174682073746172744F66667365743D22323030222078 DUP2 MSTORE PUSH32 0x6C696E6B3A687265663D22237261726550617468223E3C747370616E2064783D PUSH1 0x20 DUP3 ADD MSTORE PUSH32 0x2230222064793D222D332E35223E524152453C2F747370616E3E3C2F74657874 PUSH1 0x40 DUP3 ADD MSTORE PUSH12 0x2830BA341F1E17BA32BC3A1F PUSH1 0xA1 SHL PUSH1 0x60 DUP3 ADD MSTORE PUSH1 0x6C ADD SWAP1 JUMP JUMPDEST SWAP6 SWAP5 POP POP POP POP POP JUMP JUMPDEST PUSH11 0x1E339039BA3937B5B29E91 PUSH1 0xA9 SHL DUP2 MSTORE DUP2 MLOAD PUSH1 0x0 SWAP1 PUSH2 0x2765 DUP2 PUSH1 0xB DUP6 ADD PUSH1 0x20 DUP8 ADD PUSH2 0x46BE JUMP JUMPDEST PUSH32 0x22207374726F6B652D77696474683D22312E3522207374796C653D226D69782D PUSH1 0xB SWAP4 SWAP1 SWAP2 ADD SWAP3 DUP4 ADD MSTORE POP PUSH32 0x626C656E642D6D6F64653A20686172642D6C696768743B223E3C706174682064 PUSH1 0x2B DUP3 ADD MSTORE PUSH32 0x3D224D37372E362036312E3761382E3220382E322030203020302D312E372036 PUSH1 0x4B DUP3 ADD MSTORE PUSH32 0x2E37632E3220312E35203120332032203461362E3820362E3820302030203020 PUSH1 0x6B DUP3 ADD MSTORE PUSH32 0x31302E382D312E3220362E3720362E372030203020302D2E352D372E34632D31 PUSH1 0x8B DUP3 ADD MSTORE PUSH32 0x2D312E332D322E342D322E312D332E362D332E3261372E3620372E3620302030 PUSH1 0xAB DUP3 ADD MSTORE PUSH32 0x20312D312E362D312E38632D2E342D2E372D2E372D312E352D2E362D322E3361 PUSH1 0xCB DUP3 ADD MSTORE PUSH32 0x34203420302030203120312D322E332036203620302030203120322D312E3463 PUSH1 0xEB DUP3 ADD MSTORE PUSH32 0x312E352D2E3820332E322D3120342E382D312E3420312E342D2E3420322E382D PUSH2 0x10B DUP3 ADD MSTORE PUSH32 0x3120342D312E3820312E322D3120322E322D322E3120322E372D332E35732E34 PUSH2 0x12B DUP3 ADD MSTORE PUSH32 0x2D332D2E332D342E33632D2E342D2E372D2E392D312E322D312E352D312E362D PUSH2 0x14B DUP3 ADD MSTORE PUSH32 0x2E372D2E342D312E342D2E362D322E322D2E352D3120302D32202E352D322E38 PUSH2 0x16B DUP3 ADD MSTORE PUSH32 0x20312E32732D312E3520312E362D3220322E356C2D312E3920322E3761362036 PUSH2 0x18B DUP3 ADD MSTORE PUSH32 0x2030203020312D322E3620312E38632D2E372E332D312E352E332D322E332E31 PUSH2 0x1AB DUP3 ADD MSTORE PUSH32 0x613520352030203020312D322D31632D312E332D312D322D322E352D322E312D PUSH2 0x1CB DUP3 ADD MSTORE PUSH32 0x3420302D312E362E352D332E3220312E342D342E3573322E322D322E3220332E PUSH2 0x1EB DUP3 ADD MSTORE PUSH32 0x362D322E396C332D3163312D2E3320312E392D2E3820322E372D312E3561352E PUSH2 0x20B DUP3 ADD MSTORE PUSH32 0x3520352E3520302030203020312E372D352E3220362E3220362E322030203020 PUSH2 0x22B DUP3 ADD MSTORE PUSH32 0x302D332E332D342E3420362E3920362E392030203020302D352E362D2E312037 PUSH2 0x24B DUP3 ADD MSTORE PUSH32 0x2E3720372E372030203020302D342034632D2E3720312E352D2E3920332E332D PUSH2 0x26B DUP3 ADD MSTORE PUSH32 0x312E3420352D2E332E392D2E3620312E372D312E3120322E345337322E392033 PUSH2 0x28B DUP3 ADD MSTORE PUSH32 0x362037322033362E33613420342030203020312D322E35203020352035203020 PUSH2 0x2AB DUP3 ADD MSTORE PUSH32 0x3020312D322D312E33632D312E322D312E332D312E382D332D322D342E366C2D PUSH2 0x2CB DUP3 ADD MSTORE PUSH32 0x2E352D3561392E3720392E372030203020302D312E362D342E3720352E392035 PUSH2 0x2EB DUP3 ADD MSTORE PUSH32 0x2E392030203020302D322E342D32203520352030203020302D332D2E32632D31 PUSH2 0x30B DUP3 ADD MSTORE PUSH32 0x202E322D32202E382D322E3620312E36613420342030203020302D2E38203363 PUSH2 0x32B DUP3 ADD MSTORE PUSH32 0x2E312E362E3420312E332E3820312E386C312E3320312E36632E352E362E3920 PUSH2 0x34B DUP3 ADD MSTORE PUSH32 0x3120312E3320312E372E332E362E3620312E322E3720312E392E3120312D2E33 PUSH2 0x36B DUP3 ADD MSTORE PUSH32 0x20322E322D312033732D312E3920312E322D3320312E332D322E322D2E332D33 PUSH2 0x38B DUP3 ADD MSTORE PUSH32 0x2D31613620362030203020312D322D322E35632D2E362D312E332D2E372D322E PUSH2 0x3AB DUP3 ADD MSTORE PUSH32 0x382D312D342E3161372E3320372E332030203020302D312E342D332E39632D2E PUSH2 0x3CB DUP3 ADD MSTORE PUSH32 0x352D2E352D312E322D312D322D312E322D2E362D2E322D312E342D2E332D322E PUSH2 0x3EB DUP3 ADD MSTORE PUSH32 0x322D2E3261352E3320352E332030203020302D332E3620322E36632D2E372031 PUSH2 0x40B DUP3 ADD MSTORE PUSH32 0x2E332D3120322E392D2E3620342E3361372E3320372E3320302030203020322E PUSH2 0x42B DUP3 ADD MSTORE PUSH32 0x3320332E39633220312E3820342E3820322E3420372034613720372030203020 PUSH2 0x44B DUP3 ADD MSTORE PUSH32 0x3120322E362033632E332E352E3420312E322E3420312E39732D2E3320312E33 PUSH2 0x46B DUP3 ADD MSTORE PUSH32 0x2D2E3620312E39632D2E352E372D312E3320312E322D322E3120312E342D2E38 PUSH2 0x48B DUP3 ADD MSTORE PUSH32 0x2E322D312E372E332D322E362E312D312E362D2E322D332E322D312D342E382D PUSH2 0x4AB DUP3 ADD MSTORE PUSH32 0x312E372D312E342D2E362D322E392D312D342E342D312E31732D332E312E322D PUSH2 0x4CB DUP3 ADD MSTORE PUSH32 0x342E34203161352E3820352E382030203020302D322E3520352E3520352E3820 PUSH2 0x4EB DUP3 ADD MSTORE PUSH32 0x352E3820302030203020332E3720342E3763312E382E3720332E372E3420352E PUSH2 0x50B DUP3 ADD MSTORE PUSH32 0x352E352031203020312E392E3220322E372E3661342034203020302031203220 PUSH2 0x52B DUP3 ADD MSTORE PUSH32 0x312E38632E342E382E3520312E382E3320322E372D2E3320312D2E3720312E38 PUSH2 0x54B DUP3 ADD MSTORE PUSH32 0x2D312E3320322E352D3120312E362D322E3420332D3320342E3761352E382035 PUSH2 0x56B DUP3 ADD MSTORE PUSH32 0x2E38203020302030203120352E3263312E3120312E35203320322E3320342E38 PUSH2 0x58B DUP3 ADD MSTORE PUSH32 0x20322E3273332E362D312E3220342E352D322E3863312D312E3520312D332E36 PUSH2 0x5AB DUP3 ADD MSTORE PUSH14 0x1719969A97191110179F1E17B39F PUSH1 0x91 SHL PUSH2 0x5CB DUP3 ADD MSTORE PUSH2 0x5D9 ADD SWAP2 SWAP1 POP JUMP JUMPDEST PUSH11 0x1E339039BA3937B5B29E91 PUSH1 0xA9 SHL DUP2 MSTORE DUP3 MLOAD PUSH1 0x0 SWAP1 PUSH2 0x2EAD DUP2 PUSH1 0xB DUP6 ADD PUSH1 0x20 DUP9 ADD PUSH2 0x46BE JUMP JUMPDEST PUSH8 0x11103334B6361E91 PUSH1 0xC1 SHL PUSH1 0xB SWAP2 DUP5 ADD SWAP2 DUP3 ADD MSTORE DUP4 MLOAD PUSH2 0x2ED5 DUP2 PUSH1 0x13 DUP5 ADD PUSH1 0x20 DUP9 ADD PUSH2 0x46BE JUMP JUMPDEST PUSH32 0x22207374726F6B652D77696474683D2232223E3C7061746820643D226D34312E PUSH1 0x13 SWAP3 SWAP1 SWAP2 ADD SWAP2 DUP3 ADD MSTORE PUSH32 0x342035302E30332D362E39392D332E33732D362E393520342E32332D372E3531 PUSH1 0x33 DUP3 ADD MSTORE PUSH32 0x20322E3136632D342E33382D31362E312031362E352D33372E322033372E362D PUSH1 0x53 DUP3 ADD MSTORE PUSH32 0x33382E3320382E343920302E353820323020352E31312032362E392031312E37 PUSH1 0x73 DUP3 ADD MSTORE PUSH32 0x20362E3220362E39382031312E332031362E382031302E322032362E342D302E PUSH1 0x93 DUP3 ADD MSTORE PUSH32 0x353320332E31352D382E34362D322E31352D382E34362D322E31356C2D362E34 PUSH1 0xB3 DUP3 ADD MSTORE PUSH32 0x3120332E33352D342E39312D332E30362D352E353120302E3536322D32332E37 PUSH1 0xD3 DUP3 ADD MSTORE PUSH32 0x20302E33372D342E39332D312E34387A22207374796C653D227374726F6B653A PUSH1 0xF3 DUP3 ADD MSTORE PUSH32 0x6E6F6E653B222F3E3C7061746820643D226D32372E312034392E353163312E35 PUSH2 0x113 DUP3 ADD MSTORE PUSH32 0x3920302E36353820332E353720302E31333120342E39312D312E343920312E37 PUSH2 0x133 DUP3 ADD MSTORE PUSH32 0x392D322E313620342E34382D312E333720352E393720302E34333220312E3439 PUSH2 0x153 DUP3 ADD MSTORE PUSH32 0x20312E3820342E353820312E393220362E35372D302E34333220312E34342D31 PUSH2 0x173 DUP3 ADD MSTORE PUSH32 0x2E3720342E35342D322E343520372E303420302E3031383422207374796C653D PUSH2 0x193 DUP3 ADD MSTORE PUSH32 0x2266696C6C3A6E6F6E653B222F3E3C7061746820643D226D3130312E30372034 PUSH2 0x1B3 DUP3 ADD MSTORE PUSH32 0x392E3531632D312E363220302E3635382D332E363520302E3133312D352E3032 PUSH2 0x1D3 DUP3 ADD MSTORE PUSH32 0x2D312E34392D312E38332D322E31362D342E35382D312E33372D362E31312030 PUSH2 0x1F3 DUP3 ADD MSTORE PUSH32 0x2E3433322D312E353320312E382D342E363820312E39322D362E37322D302E34 PUSH2 0x213 DUP3 ADD MSTORE PUSH32 0x33322D312E34372D312E372D342E36352D322E34352D372E3220302E30313834 PUSH2 0x233 DUP3 ADD MSTORE PUSH32 0x22207374796C653D2266696C6C3A6E6F6E653B222F3E3C2F673E000000000000 PUSH2 0x253 DUP3 ADD MSTORE PUSH2 0x26D ADD SWAP5 SWAP4 POP POP POP POP JUMP JUMPDEST PUSH11 0x1E339039BA3937B5B29E91 PUSH1 0xA9 SHL DUP2 MSTORE DUP2 MLOAD PUSH1 0x0 SWAP1 PUSH2 0x31EA DUP2 PUSH1 0xB DUP6 ADD PUSH1 0x20 DUP8 ADD PUSH2 0x46BE JUMP JUMPDEST PUSH32 0x22207374726F6B652D77696474683D2232223E3C7061746820643D226D37312E PUSH1 0xB SWAP4 SWAP1 SWAP2 ADD SWAP3 DUP4 ADD MSTORE POP PUSH32 0x32332033332E303920302E3237332D342E303422202F3E3C7061746820643D22 PUSH1 0x2B DUP3 ADD MSTORE PUSH32 0x6D35362E32332033322E303920332E38322D312E323322202F3E3C7061746820 PUSH1 0x4B DUP3 ADD MSTORE PUSH32 0x643D226D36312E32332032332E3039203420302E333722202F3E3C7061746820 PUSH1 0x6B DUP3 ADD MSTORE PUSH32 0x643D226D34342E32332033362E303920312E383220332E363122202F3E3C7061 PUSH1 0x8B DUP3 ADD MSTORE PUSH32 0x746820643D226D35302E32332032372E30392D312E313420332E383922202F3E PUSH1 0xAB DUP3 ADD MSTORE PUSH32 0x3C7061746820643D226D34312E32332035362E30392D312E313420332E383922 PUSH1 0xCB DUP3 ADD MSTORE PUSH32 0x202F3E3C7061746820643D226D38332E32332035382E303920322E393220322E PUSH1 0xEB DUP3 ADD MSTORE PUSH32 0x373822202F3E3C7061746820643D226D34362E32332035302E303920302E3634 PUSH2 0x10B DUP3 ADD MSTORE PUSH32 0x38203422202F3E3C7061746820643D226D37392E32332035362E303920302E36 PUSH2 0x12B DUP3 ADD MSTORE PUSH32 0x37352D3422202F3E3C7061746820643D226D33372E32332034362E303920332E PUSH2 0x14B DUP3 ADD MSTORE PUSH32 0x39392D302E34343122202F3E3C7061746820643D226D38372E32332034382E30 PUSH2 0x16B DUP3 ADD MSTORE PUSH32 0x3920332E31312D322E353622202F3E3C7061746820643D226D38302E32332034 PUSH2 0x18B DUP3 ADD MSTORE PUSH32 0x312E3039203420302E32383522202F3E3C7061746820643D226D37382E323320 PUSH2 0x1AB DUP3 ADD MSTORE PUSH32 0x32392E303920312E373220332E363722202F3E3C2F673E000000000000000000 PUSH2 0x1CB DUP3 ADD MSTORE PUSH2 0x1E2 ADD SWAP2 SWAP1 POP JUMP JUMPDEST PUSH12 0x1E3830BA34103334B6361E91 PUSH1 0xA1 SHL DUP2 MSTORE DUP2 MLOAD PUSH1 0x0 SWAP1 PUSH2 0x3462 DUP2 PUSH1 0xC DUP6 ADD PUSH1 0x20 DUP8 ADD PUSH2 0x46BE JUMP JUMPDEST PUSH2 0x3470 PUSH1 0xC DUP3 DUP6 ADD ADD PUSH2 0x188A JUMP JUMPDEST SWAP5 SWAP4 POP POP POP POP JUMP JUMPDEST PUSH12 0x1E3830BA34103334B6361E91 PUSH1 0xA1 SHL DUP2 MSTORE DUP2 MLOAD PUSH1 0x0 SWAP1 PUSH2 0x34A0 DUP2 PUSH1 0xC DUP6 ADD PUSH1 0x20 DUP8 ADD PUSH2 0x46BE JUMP JUMPDEST PUSH32 0x2220643D224D39362034362E3461372E3220372E322030203020312D332E3120 PUSH1 0xC SWAP4 SWAP1 SWAP2 ADD SWAP3 DUP4 ADD MSTORE POP PUSH32 0x342E3120372E3220372E322030203020312D332031322E34632E3420312E342E PUSH1 0x2C DUP3 ADD MSTORE PUSH32 0x3520322E39203020342E3461372E3220372E322030203020312D382E31203541 PUSH1 0x4C DUP3 ADD MSTORE PUSH32 0x372E3220372E322030203020312036392E3720373761372E3220372E32203020 PUSH1 0x6C DUP3 ADD MSTORE PUSH32 0x3020312D3133202E3220372E3220372E322030203020312D31312E362D362E35 PUSH1 0x8C DUP3 ADD MSTORE PUSH32 0x20372E3220372E322030203020312D392E322D352E34632D2E342D322E312E31 PUSH1 0xAC DUP3 ADD MSTORE PUSH32 0x2D342E3220312E332D352E382D2E3320302D2E3720302D312D2E3261372E3220 PUSH1 0xCC DUP3 ADD MSTORE PUSH32 0x372E322030203020312D322E352D31322E35632D312E372D312E382D322E342D PUSH1 0xEC DUP3 ADD MSTORE PUSH32 0x342E342D312E372D3761372E3220372E3220302030203120352E382D3520372E PUSH2 0x10C DUP3 ADD MSTORE PUSH32 0x3220372E3220302030203120372E382D31302E3320372E3220372E3220302030 PUSH2 0x12C DUP3 ADD MSTORE PUSH32 0x20312031312E332D352E3120372E3220372E3220302030203120313320312037 PUSH2 0x14C DUP3 ADD MSTORE PUSH32 0x2E3220372E322030203020312031322E3320352E396C2E362D2E3261372E3220 PUSH2 0x16C DUP3 ADD MSTORE PUSH32 0x372E3220302030203120372E332031312E336C31202E3263332E3920312E3120 PUSH2 0x18C DUP3 ADD MSTORE PUSH12 0x1B101A9718901A901C91179F PUSH1 0xA1 SHL PUSH2 0x1AC DUP3 ADD MSTORE PUSH2 0x1B8 ADD SWAP2 SWAP1 POP JUMP JUMPDEST PUSH12 0x1E3830BA34103334B6361E91 PUSH1 0xA1 SHL DUP2 MSTORE DUP2 MLOAD PUSH1 0x0 SWAP1 PUSH2 0x36E0 DUP2 PUSH1 0xC DUP6 ADD PUSH1 0x20 DUP8 ADD PUSH2 0x46BE JUMP JUMPDEST PUSH32 0x22207374796C653D227472616E73666F726D3A207472616E736C61746559282D PUSH1 0xC SWAP4 SWAP1 SWAP2 ADD SWAP3 DUP4 ADD MSTORE POP PUSH32 0x33317078293B2220643D224D36312E322034362E33632D352E312E352D332E38 PUSH1 0x2C DUP3 ADD MSTORE PUSH32 0x20332E372D382E3220352E312D342E3720312E352D362E372D2E382D392E3720 PUSH1 0x4C DUP3 ADD MSTORE PUSH32 0x312E372D332E3820332E332D312E3220352E342D342E3220382E332D3320332D PUSH1 0x6C DUP3 ADD MSTORE PUSH32 0x352E3920322E352D362E3820372E342D2E372034203120342E3620312E322038 PUSH1 0x8C DUP3 ADD MSTORE PUSH32 0x2E342E3120332E372D332E3520352E332D322E3420392E3220312E3120342034 PUSH1 0xAC DUP3 ADD MSTORE PUSH32 0x2E3720342E32203620372E3220312E3220332D2E3320362E3120322E3820392E PUSH1 0xCC DUP3 ADD MSTORE PUSH32 0x3220332E3120332E3220342E3620312E3220382E3420322E3420332E3720312E PUSH1 0xEC DUP3 ADD MSTORE PUSH32 0x3320322E3820352E3520382E3320362E3420352E362E3820352D312E3720392E PUSH2 0x10C DUP3 ADD MSTORE PUSH32 0x342D322E3220342D2E3520352E3920322E3820392E36203120332E382D322033 PUSH2 0x12C DUP3 ADD MSTORE PUSH32 0x2E322D362E3520372E342D372E3920342E332D312E3420362E332D2E3820382D PUSH2 0x14C DUP3 ADD MSTORE PUSH32 0x342E3420312E382D332E362D2E382D3820322E332D31302E3720332D322E3720 PUSH2 0x16C DUP3 ADD MSTORE PUSH32 0x342E342D362E3820322E312D392E392D322E342D332E322D332D342D322D382E PUSH2 0x18C DUP3 ADD MSTORE PUSH32 0x3420312D342E392D312E352D382E332D352E312D382E392D332E342D2E342D33 PUSH2 0x1AC DUP3 ADD MSTORE PUSH32 0x2E372D322E312D352E332D362E322D312E352D342D352E322D352E312D382E38 PUSH2 0x1CC DUP3 ADD MSTORE PUSH32 0x2D342E322D332E3620312D35202E322D372D312E322D322E312D312E342D332E PUSH2 0x1EC DUP3 ADD MSTORE PUSH15 0x1A1699171B169B16991719BD11179F PUSH1 0x89 SHL PUSH2 0x20C DUP3 ADD MSTORE PUSH2 0x21B ADD SWAP2 SWAP1 POP JUMP JUMPDEST PUSH12 0x1E3830BA34103334B6361E91 PUSH1 0xA1 SHL DUP2 MSTORE DUP2 MLOAD PUSH1 0x0 SWAP1 PUSH2 0x3998 DUP2 PUSH1 0xC DUP6 ADD PUSH1 0x20 DUP8 ADD PUSH2 0x46BE JUMP JUMPDEST PUSH32 0x2220643D226D36332E3537372038302E3535356334332E38383220302E333630 PUSH1 0xC SWAP4 SWAP1 SWAP2 ADD SWAP3 DUP4 ADD MSTORE POP PUSH32 0x32332034332E3130372D36342E38303320302E33323734322D36342E3939382D PUSH1 0x2C DUP3 ADD MSTORE PUSH32 0x34322E3731392D302E31343139342D34342E3236392036342E3630372D302E33 PUSH1 0x4C DUP3 ADD MSTORE PUSH16 0x191B9A19101B1A171C9C9C3D1110179F PUSH1 0x81 SHL PUSH1 0x6C DUP3 ADD MSTORE PUSH1 0x7C ADD SWAP2 SWAP1 POP JUMP JUMPDEST PUSH32 0x3C67207374796C653D227374726F6B652D77696474683A312E333B7374726F6B DUP2 MSTORE PUSH2 0x329D PUSH1 0xF1 SHL PUSH1 0x20 DUP3 ADD MSTORE PUSH1 0x0 DUP7 MLOAD PUSH2 0x3A74 DUP2 PUSH1 0x22 DUP6 ADD PUSH1 0x20 DUP12 ADD PUSH2 0x46BE JUMP JUMPDEST PUSH3 0x1D911F PUSH1 0xE9 SHL PUSH1 0x22 SWAP2 DUP5 ADD SWAP2 DUP3 ADD MSTORE DUP7 MLOAD PUSH2 0x3A97 DUP2 PUSH1 0x25 DUP5 ADD PUSH1 0x20 DUP12 ADD PUSH2 0x46BE JUMP JUMPDEST PUSH32 0x3C2F673E3C67207374796C653D227374726F6B652D77696474683A333B737472 PUSH1 0x25 SWAP3 SWAP1 SWAP2 ADD SWAP2 DUP3 ADD MSTORE PUSH4 0x37B5B29D PUSH1 0xE1 SHL PUSH1 0x45 DUP3 ADD MSTORE DUP6 MLOAD PUSH2 0x3AE2 DUP2 PUSH1 0x49 DUP5 ADD PUSH1 0x20 DUP11 ADD PUSH2 0x46BE JUMP JUMPDEST PUSH6 0x1DB334B6361D PUSH1 0xD1 SHL PUSH1 0x49 SWAP3 SWAP1 SWAP2 ADD SWAP2 DUP3 ADD MSTORE DUP5 MLOAD PUSH2 0x3B09 DUP2 PUSH1 0x4F DUP5 ADD PUSH1 0x20 DUP10 ADD PUSH2 0x46BE JUMP JUMPDEST PUSH2 0x3B3D PUSH2 0x3B2D PUSH2 0x3B27 PUSH1 0x4F DUP5 DUP7 ADD ADD PUSH3 0x1D911F PUSH1 0xE9 SHL DUP2 MSTORE PUSH1 0x3 ADD SWAP1 JUMP JUMPDEST DUP8 PUSH2 0x186E JUMP JUMPDEST PUSH4 0x1E17B39F PUSH1 0xE1 SHL DUP2 MSTORE PUSH1 0x4 ADD SWAP1 JUMP JUMPDEST SWAP10 SWAP9 POP POP POP POP POP POP POP POP POP JUMP JUMPDEST PUSH32 0x3C673E3C706174682069643D22706174683632343522207374726F6B652D7769 DUP2 MSTORE PUSH16 0x323A341E9119911039BA3937B5B29E91 PUSH1 0x81 SHL PUSH1 0x20 DUP3 ADD MSTORE PUSH1 0x0 DUP4 MLOAD PUSH2 0x3B9B DUP2 PUSH1 0x30 DUP6 ADD PUSH1 0x20 DUP9 ADD PUSH2 0x46BE JUMP JUMPDEST PUSH32 0x2220643D226D3130302E3431203131342E3033632D362E313520342E37322D31 PUSH1 0x30 SWAP2 DUP5 ADD SWAP2 DUP3 ADD MSTORE PUSH32 0x352E3220312E36392D31392E312D342E34372D352E33312D372E372D372E3237 PUSH1 0x50 DUP3 ADD MSTORE PUSH32 0x2D31372E322D382E33342D32362E332D362E303320312E34352D31322E342031 PUSH1 0x70 DUP3 ADD MSTORE PUSH32 0x2E34362D31382E3420302E3031332D312E32382031302E322D332E3338203231 PUSH1 0x90 DUP3 ADD MSTORE PUSH32 0x2E312D31302E362032382E392D352E313720352E35392D31352E3520352E3834 PUSH1 0xB0 DUP3 ADD MSTORE PUSH32 0x2D31392E382D302E3930332D352D372E34352D312E37372D31372E3220322E39 PUSH1 0xD0 DUP3 ADD MSTORE PUSH32 0x342D32332E3920332E30312D342E353120362E35332D382E36362031302E342D PUSH1 0xF0 DUP3 ADD MSTORE PUSH32 0x31322E352D31332E342D31312E392D31352E382D33342E312D342E37352D3438 PUSH2 0x110 DUP3 ADD MSTORE PUSH32 0x2E332031302E352D31342E362033312E352D31392E352034372E362D31312E38 PUSH2 0x130 DUP3 ADD MSTORE PUSH32 0x2031342E3320362E332032332E362032322E332032312E332033372E392D302E PUSH2 0x150 DUP3 ADD MSTORE PUSH32 0x39343920382E342D352E352031372D31312E352032322E3220342E383320342E PUSH2 0x170 DUP3 ADD MSTORE PUSH32 0x393320392E33312031302E332031322E362031362E3420342E303420362E3937 PUSH2 0x190 DUP3 ADD MSTORE PUSH32 0x20342E38342031372E342D322E32332032322E387A22202F3E3C746578742073 PUSH2 0x1B0 DUP3 ADD MSTORE PUSH32 0x74796C653D2266696C6C3A236666666666663B666F6E742D66616D696C793A73 PUSH2 0x1D0 DUP3 ADD MSTORE PUSH32 0x616E732D73657269663B666F6E742D73697A653A312E333670783B6C696E652D PUSH2 0x1F0 DUP3 ADD MSTORE PUSH32 0x6865696768743A312E32353B6D69782D626C656E642D6D6F64653A206F766572 PUSH2 0x210 DUP3 ADD MSTORE PUSH32 0x6C61793B776F72642D73706163696E673A307078223E3C746578745061746820 PUSH2 0x230 DUP3 ADD MSTORE PUSH32 0x786C696E6B3A687265663D22237061746836323435223E3C747370616E206478 PUSH2 0x250 DUP3 ADD MSTORE PUSH14 0x1E91181110323C9E9118171B111F PUSH1 0x91 SHL PUSH2 0x270 DUP3 ADD MSTORE PUSH2 0x2735 PUSH2 0x3E7F PUSH2 0x27E DUP4 ADD DUP7 PUSH2 0x186E JUMP JUMPDEST PUSH32 0x3C2F747370616E3E3C2F74657874506174683E3C2F746578743E3C2F673E3C2F DUP2 MSTORE PUSH8 0x339F1E17B9BB339F PUSH1 0xC1 SHL PUSH1 0x20 DUP3 ADD MSTORE PUSH1 0x28 ADD SWAP1 JUMP JUMPDEST PUSH14 0x1E3830BA341039BA3937B5B29E91 PUSH1 0x91 SHL DUP2 MSTORE DUP2 MLOAD PUSH1 0x0 SWAP1 PUSH2 0x3EE3 DUP2 PUSH1 0xE DUP6 ADD PUSH1 0x20 DUP8 ADD PUSH2 0x46BE JUMP JUMPDEST PUSH32 0x22207374726F6B652D77696474683D22332E3522207374796C653D227374726F PUSH1 0xE SWAP4 SWAP1 SWAP2 ADD SWAP3 DUP4 ADD MSTORE POP PUSH32 0x6B652D6461736861727261793A352C20373B7472616E73666F726D3A206D6174 PUSH1 0x2E DUP3 ADD MSTORE PUSH32 0x72697828302E39352C302C302C2D302E39352C302C30293B7472616E73666F72 PUSH1 0x4E DUP3 ADD MSTORE PUSH32 0x6D2D6F726967696E3A2063656E7465723B2220643D224D34392E382036352E38 PUSH1 0x6E DUP3 ADD MSTORE PUSH32 0x61382E3220382E3220302030203020312E382D362E37632D2E322D312E352D31 PUSH1 0x8E DUP3 ADD MSTORE PUSH32 0x2D332D322D3461362E3820362E382030203020302D31302E3820312E3220362E PUSH1 0xAE DUP3 ADD MSTORE PUSH32 0x3720362E37203020302030202E3520372E34633120312E3320322E3420322E31 PUSH1 0xCE DUP3 ADD MSTORE PUSH32 0x20332E3620332E322E362E3520312E3220312E3120312E3620312E38732E3620 PUSH1 0xEE DUP3 ADD MSTORE PUSH32 0x312E352E3620322E33613420342030203020312D3120322E33632D2E352E362D PUSH2 0x10E DUP3 ADD MSTORE PUSH32 0x312E3220312E312D3220312E352D312E352E372D332E3220312D342E3820312E PUSH2 0x12E DUP3 ADD MSTORE PUSH32 0x332D312E362E342D332E312E392D342E3520312E3861372E3520372E35203020 PUSH2 0x14E DUP3 ADD MSTORE PUSH32 0x3020302D3320332E37632D2E332E372D2E3420312E362D2E3320322E34203020 PUSH2 0x16E DUP3 ADD MSTORE PUSH32 0x2E382E3320312E362E3820322E322E342E3720312E3120312E3220312E392031 PUSH2 0x18E DUP3 ADD MSTORE PUSH32 0x2E352E372E3320312E362E3320322E332E312E382D2E3220312E342D2E372032 PUSH2 0x1AE DUP3 ADD MSTORE PUSH32 0x2D312E326C312E332D312E39632E372D312E3320312E342D322E3720322E362D PUSH2 0x1CE DUP3 ADD MSTORE PUSH32 0x332E376135203520302030203120342E372D2E3863312E362E3520322E392031 PUSH2 0x1EE DUP3 ADD MSTORE PUSH32 0x2E3720332E3520332E332E3620312E352E3620332E33203020342E3861372E32 PUSH2 0x20E DUP3 ADD MSTORE PUSH32 0x20372E322030203020312D332E3420332E35632D2E392E352D312E392E382D32 PUSH2 0x22E DUP3 ADD MSTORE PUSH32 0x2E3920312E31732D312E392E382D322E3720312E3561352E3220352E32203020 PUSH2 0x24E DUP3 ADD MSTORE PUSH32 0x3020302D312E3620352036203620302030203020332E3320342E312037203720 PUSH2 0x26E DUP3 ADD MSTORE PUSH32 0x302030203020352E342E3263312E372D2E3720332E322D3220342E312D332E36 PUSH2 0x28E DUP3 ADD MSTORE PUSH32 0x2E382D312E3220312E322D322E3720312E392D34202E332D2E372E372D312E33 PUSH2 0x2AE DUP3 ADD MSTORE PUSH32 0x20312E332D312E3873312E322D3120312E392D312E31632E372D2E3220312E35 PUSH2 0x2CE DUP3 ADD MSTORE PUSH32 0x2D2E3120322E312E312E372E3320312E342E3720312E3920312E326138203820 PUSH2 0x2EE DUP3 ADD MSTORE PUSH32 0x3020302031203220332E39632E3320312E342E3420322E382E3620342E332E33 PUSH2 0x30E DUP3 ADD MSTORE PUSH32 0x20312E342E3720322E3920312E3520346136203620302030203020322E342032 PUSH2 0x32E DUP3 ADD MSTORE PUSH32 0x2E322035203520302030203020332E322E3463312D2E3320322D2E3920322E36 PUSH2 0x34E DUP3 ADD MSTORE PUSH32 0x2D312E382E362D2E392E382D32202E352D33613520352030203020302D312D31 PUSH2 0x36E DUP3 ADD MSTORE PUSH32 0x2E396C2D312E342D312E35632D2E342D2E352D312D312D312E322D312E372D2E PUSH2 0x38E DUP3 ADD MSTORE PUSH32 0x342D2E362D2E352D312E332D2E342D32202E312D2E382E362D312E3420312E32 PUSH2 0x3AE DUP3 ADD MSTORE PUSH32 0x2D312E392E372D2E3420312E342D2E3620322E322D2E352E38203020312E352E PUSH2 0x3CE DUP3 ADD MSTORE PUSH32 0x3320322E312E382E372E3420312E32203120312E3620312E362E362E38203120 PUSH2 0x3EE DUP3 ADD MSTORE PUSH32 0x312E3720312E3420322E366C312E3620322E366136203620302030203020332E PUSH2 0x40E DUP3 ADD MSTORE PUSH32 0x3820312E3763312E35203020322E392D2E3520342D312E3573312E352D322E35 PUSH2 0x42E DUP3 ADD MSTORE PUSH32 0x20312E342D332E39613520352030203020302D312E382D332E37632D2E372D2E PUSH2 0x44E DUP3 ADD MSTORE PUSH32 0x362D312E362D312D322E352D312E326C2D322E372D2E37632D2E382D2E332D31 PUSH2 0x46E DUP3 ADD MSTORE PUSH32 0x2E372D2E362D322E352D312E3241332E3920332E392030203020312037372039 PUSH2 0x48E DUP3 ADD MSTORE PUSH32 0x30632D2E312D2E3520302D312E3120302D312E362E322D2E362E352D31202E38 PUSH2 0x4AE DUP3 ADD MSTORE PUSH32 0x2D312E352E382D2E3820312E382D312E3320322E382D312E3620322E322D2E36 PUSH2 0x4CE DUP3 ADD MSTORE PUSH32 0x20342E34203020362E36203020312E332E3220322E352E3220332E3820306138 PUSH2 0x4EE DUP3 ADD MSTORE PUSH32 0x203820302030203020332E352D312E3620352E3620352E362030203020302032 PUSH2 0x50E DUP3 ADD MSTORE PUSH32 0x2E332D342E38632D2E312D312D2E342D312E382D2E392D322E36732D312E322D PUSH2 0x52E DUP3 ADD MSTORE PUSH32 0x312E342D322D312E38613820382030203020302D332E342D2E346C2D332E352E PUSH2 0x54E DUP3 ADD MSTORE PUSH32 0x35632D312E322E312D322E332E332D332E3420302D2E362D2E322D312D2E342D PUSH2 0x56E DUP3 ADD MSTORE PUSH32 0x312E352D2E38732D2E392D2E382D312E312D312E33632D2E322D2E352D2E332D PUSH2 0x58E DUP3 ADD MSTORE PUSH32 0x312E312D2E332D312E376137203720302030203120322E352D342E316C322E36 PUSH2 0x5AE DUP3 ADD MSTORE PUSH32 0x2D322E32632E382D2E3820312E352D312E3720312E382D322E382E352D312E34 PUSH2 0x5CE DUP3 ADD MSTORE PUSH32 0x2E322D332D2E372D342E3261342E3720342E372030203020302D372E372E3363 PUSH2 0x5EE DUP3 ADD MSTORE PUSH32 0x2D2E3820312E322D3120322E392D2E3320342E33222F3E000000000000000000 PUSH2 0x60E DUP3 ADD MSTORE PUSH2 0x625 ADD SWAP2 SWAP1 POP JUMP JUMPDEST PUSH1 0x20 DUP2 MSTORE PUSH1 0x0 DUP3 MLOAD DUP1 PUSH1 0x20 DUP5 ADD MSTORE PUSH2 0x4680 DUP2 PUSH1 0x40 DUP6 ADD PUSH1 0x20 DUP8 ADD PUSH2 0x46BE JUMP JUMPDEST PUSH1 0x1F ADD PUSH1 0x1F NOT AND SWAP2 SWAP1 SWAP2 ADD PUSH1 0x40 ADD SWAP3 SWAP2 POP POP JUMP JUMPDEST PUSH1 0x40 MLOAD PUSH2 0x140 DUP2 ADD PUSH8 0xFFFFFFFFFFFFFFFF DUP2 GT DUP3 DUP3 LT OR ISZERO PUSH2 0x46B8 JUMPI PUSH2 0x46B8 PUSH2 0x4704 JUMP JUMPDEST PUSH1 0x40 MSTORE SWAP1 JUMP JUMPDEST PUSH1 0x0 JUMPDEST DUP4 DUP2 LT ISZERO PUSH2 0x46D9 JUMPI DUP2 DUP2 ADD MLOAD DUP4 DUP3 ADD MSTORE PUSH1 0x20 ADD PUSH2 0x46C1 JUMP JUMPDEST DUP4 DUP2 GT ISZERO PUSH2 0x46E8 JUMPI PUSH1 0x0 DUP5 DUP5 ADD MSTORE JUMPDEST POP POP POP POP JUMP JUMPDEST PUSH4 0x4E487B71 PUSH1 0xE0 SHL PUSH1 0x0 MSTORE PUSH1 0x32 PUSH1 0x4 MSTORE PUSH1 0x24 PUSH1 0x0 REVERT JUMPDEST PUSH4 0x4E487B71 PUSH1 0xE0 SHL PUSH1 0x0 MSTORE PUSH1 0x41 PUSH1 0x4 MSTORE PUSH1 0x24 PUSH1 0x0 REVERT INVALID LOG2 PUSH5 0x6970667358 0x22 SLT KECCAK256 DUP9 SHR 0xCF LOG0 PC DUP7 DUP2 CALLDATACOPY RETURNDATACOPY 0xC8 0xDC 0xB3 DUP3 0xCC 0xD9 SELFBALANCE 0xE9 DUP5 0xF8 0xC4 CALLDATASIZE GASPRICE DUP7 CHAINID 0xDD BALANCE 0xD4 0xAB 0xBC 0xC7 SWAP6 SLT PUSH5 0x736F6C6343 STOP ADDMOD SMOD STOP CALLER "
		},
		"gasEstimates": {
			"creation": {
				"codeDepositCost": "3651200",
				"executionCost": "4113",
				"totalCost": "3655313"
			},
			"external": {
				"renderBunny(uint256[10],string)": "infinite"
			}
		},
		"methodIdentifiers": {
			"renderBunny(uint256[10],string)": "eaf723db"
		}
	},
	"abi": [
		{
			"inputs": [
				{
					"internalType": "uint256[10]",
					"name": "renderCode",
					"type": "uint256[10]"
				},
				{
					"internalType": "string",
					"name": "bunnyName",
					"type": "string"
				}
			],
			"name": "renderBunny",
			"outputs": [
				{
					"internalType": "string",
					"name": "",
					"type": "string"
				}
			],
			"stateMutability": "pure",
			"type": "function"
		}
	]
}