{
	"data": {
		"bytecode": {
			"linkReferences": {},
			"object": "60e0604052738f26d3ef8437c1d10b118d7f75d33e7d01da59b673ffffffffffffffffffffffffffffffffffffffff1660809073ffffffffffffffffffffffffffffffffffffffff1660601b815250736d5783a1d14ab3b52a613a9a9157e2ac4a7900dc73ffffffffffffffffffffffffffffffffffffffff1660a09073ffffffffffffffffffffffffffffffffffffffff1660601b815250738c4a71d0f7a4cd2a1cafb55f57f53c9e08a79bda73ffffffffffffffffffffffffffffffffffffffff1660c09073ffffffffffffffffffffffffffffffffffffffff1660601b815250734302b4ad74b0cffe844f881dc1471dea6d52be33601060006101000a81548173ffffffffffffffffffffffffffffffffffffffff021916908373ffffffffffffffffffffffffffffffffffffffff1602179055506105dc601155681b1ae4d6e2ef5000006012556040518060400160405280601c81526020017f68747470733a2f2f646f6e757462756e6e792e6e65742f766965772f0000000081525060139080519060200190620001979291906200033a565b50348015620001a557600080fd5b506040518060400160405280600b81526020017f446f6e75742042756e6e790000000000000000000000000000000000000000008152506040518060400160405280600a81526020017f444f4e555442554e4e590000000000000000000000000000000000000000000081525081600090805190602001906200022a9291906200033a565b508060019080519060200190620002439291906200033a565b505050620002666200025a6200026c60201b60201c565b6200027460201b60201c565b6200044f565b600033905090565b6000600b60009054906101000a900473ffffffffffffffffffffffffffffffffffffffff16905081600b60006101000a81548173ffffffffffffffffffffffffffffffffffffffff021916908373ffffffffffffffffffffffffffffffffffffffff1602179055508173ffffffffffffffffffffffffffffffffffffffff168173ffffffffffffffffffffffffffffffffffffffff167f8be0079c531659141344cd1fd0a4f28419497f9722a3daafe3b4186f6b6457e060405160405180910390a35050565b8280546200034890620003ea565b90600052602060002090601f0160209004810192826200036c5760008555620003b8565b82601f106200038757805160ff1916838001178555620003b8565b82800160010185558215620003b8579182015b82811115620003b75782518255916020019190600101906200039a565b5b509050620003c79190620003cb565b5090565b5b80821115620003e6576000816000905550600101620003cc565b5090565b600060028204905060018216806200040357607f821691505b602082108114156200041a576200041962000420565b5b50919050565b7f4e487b7100000000000000000000000000000000000000000000000000000000600052602260045260246000fd5b60805160601c60a05160601c60c05160601c615ba96200049660003960006107a6015260008181610f6601526111ba01526000818161086501526115aa0152615ba96000f3fe608060405234801561001057600080fd5b506004361061018e5760003560e01c80637f1921ef116100de578063bd9975ee11610097578063e8a3d48511610071578063e8a3d4851461047f578063e985e9c51461049d578063f0bc7cd3146104cd578063f2fde38b146104e95761018e565b8063bd9975ee14610417578063c87b56dd14610433578063d7f677c3146104635761018e565b80637f1921ef146103575780638da5cb5b1461037357806395d89b41146103915780639bac5f7a146103af578063a22cb465146103df578063b88d4fde146103fb5761018e565b806323b872dd1161014b5780634f6ccce7116101255780634f6ccce7146102bd5780636352211e146102ed57806370a082311461031d578063715018a61461034d5761018e565b806323b872dd146102555780632f745c591461027157806342842e0e146102a15761018e565b806301ffc9a71461019357806306fdde03146101c3578063081812fc146101e1578063095ea7b3146102115780631249c58b1461022d57806318160ddd14610237575b600080fd5b6101ad60048036038101906101a891906132fb565b610505565b6040516101ba9190613f22565b60405180910390f35b6101cb610517565b6040516101d89190613f3d565b60405180910390f35b6101fb60048036038101906101f69190613473565b6105a9565b6040516102089190613e36565b60405180910390f35b61022b600480360381019061022691906132bb565b61062e565b005b610235610746565b005b61023f610a41565b60405161024c91906141df565b60405180910390f35b61026f600480360381019061026a91906131a5565b610a4e565b005b61028b600480360381019061028691906132bb565b610aae565b60405161029891906141df565b60405180910390f35b6102bb60048036038101906102b691906131a5565b610b53565b005b6102d760048036038101906102d29190613473565b610b73565b6040516102e491906141df565b60405180910390f35b61030760048036038101906103029190613473565b610be4565b6040516103149190613e36565b60405180910390f35b61033760048036038101906103329190613138565b610c96565b60405161034491906141df565b60405180910390f35b610355610d4e565b005b610371600480360381019061036c9190613473565b610dd6565b005b61037b610e5c565b6040516103889190613e36565b60405180910390f35b610399610e86565b6040516103a69190613f3d565b60405180910390f35b6103c960048036038101906103c49190613473565b610f18565b6040516103d69190613f3d565b60405180910390f35b6103f960048036038101906103f4919061327b565b61105e565b005b610415600480360381019061041091906131f8565b611074565b005b610431600480360381019061042c9190613355565b6110d6565b005b61044d60048036038101906104489190613473565b61116c565b60405161045a9190613f3d565b60405180910390f35b61047d600480360381019061047891906134cd565b6113bd565b005b6104876116e3565b6040516104949190613f3d565b60405180910390f35b6104b760048036038101906104b29190613165565b61177e565b6040516104c49190613f22565b60405180910390f35b6104e760048036038101906104e29190613138565b611812565b005b61050360048036038101906104fe9190613138565b6118d2565b005b6000610510826119ca565b9050919050565b60606000805461052690614554565b80601f016020809104026020016040519081016040528092919081815260200182805461055290614554565b801561059f5780601f106105745761010080835404028352916020019161059f565b820191906000526020600020905b81548152906001019060200180831161058257829003601f168201915b5050505050905090565b60006105b482611a44565b6105f3576040517f08c379a00000000000000000000000000000000000000000000000000000000081526004016105ea9061411f565b60405180910390fd5b6004600083815260200190815260200160002060009054906101000a900473ffffffffffffffffffffffffffffffffffffffff169050919050565b600061063982610be4565b90508073ffffffffffffffffffffffffffffffffffffffff168373ffffffffffffffffffffffffffffffffffffffff1614156106aa576040517f08c379a00000000000000000000000000000000000000000000000000000000081526004016106a19061417f565b60405180910390fd5b8073ffffffffffffffffffffffffffffffffffffffff166106c9611ab0565b73ffffffffffffffffffffffffffffffffffffffff1614806106f857506106f7816106f2611ab0565b61177e565b5b610737576040517f08c379a000000000000000000000000000000000000000000000000000000000815260040161072e9061407f565b60405180910390fd5b6107418383611ab8565b505050565b6000610750610a41565b9050601154811115610797576040517f08c379a000000000000000000000000000000000000000000000000000000000815260040161078e90613f5f565b60405180910390fd5b6060806107a2612d1e565b60007f0000000000000000000000000000000000000000000000000000000000000000905060008173ffffffffffffffffffffffffffffffffffffffff16633456e3eb6107ed611ab0565b6012546040518363ffffffff1660e01b815260040161080d929190613e9d565b602060405180830381600087803b15801561082757600080fd5b505af115801561083b573d6000803e3d6000fd5b505050506040513d601f19601f8201168201806040525081019061085f91906134a0565b905060007f0000000000000000000000000000000000000000000000000000000000000000905060005b806109a1578173ffffffffffffffffffffffffffffffffffffffff1663cc1a90ad846040518263ffffffff1660e01b81526004016108c791906141df565b60006040518083038186803b1580156108df57600080fd5b505afa1580156108f3573d6000803e3d6000fd5b505050506040513d6000823e3d601f19601f8201168201806040525081019061091c91906133e7565b80975081985082995050505060001515600c8760405161093c9190613c5e565b908152602001604051809103902060009054906101000a900460ff161515141561099c57600190506001600c876040516109769190613c5e565b908152602001604051809103902060006101000a81548160ff0219169083151502179055505b610889565b60006001896109b0919061437f565b905086600e600083815260200190815260200160002090805190602001906109d9929190612d41565b5085600d600083815260200190815260200160002090600a6109fc929190612dc7565b5087600f60008381526020019081526020016000209080519060200190610a24929190612d41565b50610a36610a30611ab0565b82611b71565b505050505050505050565b6000600980549050905090565b610a5f610a59611ab0565b82611d4b565b610a9e576040517f08c379a0000000000000000000000000000000000000000000000000000000008152600401610a959061419f565b60405180910390fd5b610aa9838383611e29565b505050565b6000610ab983610c96565b8210610afa576040517f08c379a0000000000000000000000000000000000000000000000000000000008152600401610af190613f7f565b60405180910390fd5b600760008473ffffffffffffffffffffffffffffffffffffffff1673ffffffffffffffffffffffffffffffffffffffff168152602001908152602001600020600083815260200190815260200160002054905092915050565b610b6e83838360405180602001604052806000815250611074565b505050565b6000610b7d610a41565b8210610bbe576040517f08c379a0000000000000000000000000000000000000000000000000000000008152600401610bb5906141bf565b60405180910390fd5b60098281548110610bd257610bd161472b565b5b90600052602060002001549050919050565b6000806002600084815260200190815260200160002060009054906101000a900473ffffffffffffffffffffffffffffffffffffffff169050600073ffffffffffffffffffffffffffffffffffffffff168173ffffffffffffffffffffffffffffffffffffffff161415610c8d576040517f08c379a0000000000000000000000000000000000000000000000000000000008152600401610c84906140bf565b60405180910390fd5b80915050919050565b60008073ffffffffffffffffffffffffffffffffffffffff168273ffffffffffffffffffffffffffffffffffffffff161415610d07576040517f08c379a0000000000000000000000000000000000000000000000000000000008152600401610cfe9061409f565b60405180910390fd5b600360008373ffffffffffffffffffffffffffffffffffffffff1673ffffffffffffffffffffffffffffffffffffffff168152602001908152602001600020549050919050565b610d56611ab0565b73ffffffffffffffffffffffffffffffffffffffff16610d74610e5c565b73ffffffffffffffffffffffffffffffffffffffff1614610dca576040517f08c379a0000000000000000000000000000000000000000000000000000000008152600401610dc19061413f565b60405180910390fd5b610dd46000612090565b565b610dde611ab0565b73ffffffffffffffffffffffffffffffffffffffff16610dfc610e5c565b73ffffffffffffffffffffffffffffffffffffffff1614610e52576040517f08c379a0000000000000000000000000000000000000000000000000000000008152600401610e499061413f565b60405180910390fd5b8060128190555050565b6000600b60009054906101000a900473ffffffffffffffffffffffffffffffffffffffff16905090565b606060018054610e9590614554565b80601f0160208091040260200160405190810160405280929190818152602001828054610ec190614554565b8015610f0e5780601f10610ee357610100808354040283529160200191610f0e565b820191906000526020600020905b815481529060010190602001808311610ef157829003601f168201915b5050505050905090565b6060610f2382611a44565b610f62576040517f08c379a0000000000000000000000000000000000000000000000000000000008152600401610f599061415f565b60405180910390fd5b60007f000000000000000000000000000000000000000000000000000000000000000090506000610f9284612156565b604051602001610fa29190613d17565b60405160208183030381529060405290508173ffffffffffffffffffffffffffffffffffffffff1663eaf723db600d6000878152602001908152602001600020836040518363ffffffff1660e01b8152600401611000929190613ec6565b60006040518083038186803b15801561101857600080fd5b505afa15801561102c573d6000803e3d6000fd5b505050506040513d6000823e3d601f19601f82011682018060405250810190611055919061339e565b92505050919050565b611070611069611ab0565b83836122b7565b5050565b61108561107f611ab0565b83611d4b565b6110c4576040517f08c379a00000000000000000000000000000000000000000000000000000000081526004016110bb9061419f565b60405180910390fd5b6110d084848484612424565b50505050565b6110de611ab0565b73ffffffffffffffffffffffffffffffffffffffff166110fc610e5c565b73ffffffffffffffffffffffffffffffffffffffff1614611152576040517f08c379a00000000000000000000000000000000000000000000000000000000081526004016111499061413f565b60405180910390fd5b8060139080519060200190611168929190612d41565b5050565b606061117782611a44565b6111b6576040517f08c379a00000000000000000000000000000000000000000000000000000000081526004016111ad9061415f565b60405180910390fd5b60007f0000000000000000000000000000000000000000000000000000000000000000905060006111e684612156565b6040516020016111f69190613d17565b60405160208183030381529060405290506000600e600086815260200190815260200160002060405160200161122c9190613c75565b60405160208183030381529060405290506001600d60008781526020019081526020016000206009600a81106112655761126461472b565b5b015414156112a257600e60008681526020019081526020016000206040516020016112909190613df2565b60405160208183030381529060405290505b60008373ffffffffffffffffffffffffffffffffffffffff1663eaf723db600d6000898152602001908152602001600020856040518363ffffffff1660e01b81526004016112f1929190613ec6565b60006040518083038186803b15801561130957600080fd5b505afa15801561131d573d6000803e3d6000fd5b505050506040513d6000823e3d601f19601f82011682018060405250810190611346919061339e565b905061139383836013600f60008b815260200190815260200160002061136b86612480565b60405160200161137f959493929190613d39565b604051602081830303815290604052612480565b6040516020016113a39190613e14565b604051602081830303815290604052945050505050919050565b6113c682610be4565b73ffffffffffffffffffffffffffffffffffffffff166113e4611ab0565b73ffffffffffffffffffffffffffffffffffffffff161461143a576040517f08c379a0000000000000000000000000000000000000000000000000000000008152600401611431906140df565b60405180910390fd5b606080611445612d1e565b61144d612e07565b600d60008781526020019081526020016000206005600a81106114735761147261472b565b5b0154816000600581106114895761148861472b565b5b602002018181525050600d60008781526020019081526020016000206006600a81106114b8576114b761472b565b5b0154816001600581106114ce576114cd61472b565b5b602002018181525050600d60008781526020019081526020016000206007600a81106114fd576114fc61472b565b5b0154816002600581106115135761151261472b565b5b602002018181525050600d60008781526020019081526020016000206008600a81106115425761154161472b565b5b0154816003600581106115585761155761472b565b5b602002018181525050600d60008781526020019081526020016000206009600a81106115875761158661472b565b5b01548160046005811061159d5761159c61472b565b5b60200201818152505060007f000000000000000000000000000000000000000000000000000000000000000090508073ffffffffffffffffffffffffffffffffffffffff166396bfb9c187846040518363ffffffff1660e01b8152600401611606929190613ef8565b60006040518083038186803b15801561161e57600080fd5b505afa158015611632573d6000803e3d6000fd5b505050506040513d6000823e3d601f19601f8201168201806040525081019061165b91906133e7565b80955081965082975050505083600e6000898152602001908152602001600020908051906020019061168e929190612d41565b5082600d600089815260200190815260200160002090600a6116b1929190612dc7565b5084600f600089815260200190815260200160002090805190602001906116d9929190612d41565b5050505050505050565b60606000604051806108a00160405280610870815260200161530461087091399050611759601060009054906101000a900473ffffffffffffffffffffffffffffffffffffffff1661173483612480565b604051602001611745929190613c97565b604051602081830303815290604052612480565b6040516020016117699190613e14565b60405160208183030381529060405291505090565b6000600560008473ffffffffffffffffffffffffffffffffffffffff1673ffffffffffffffffffffffffffffffffffffffff16815260200190815260200160002060008373ffffffffffffffffffffffffffffffffffffffff1673ffffffffffffffffffffffffffffffffffffffff16815260200190815260200160002060009054906101000a900460ff16905092915050565b61181a611ab0565b73ffffffffffffffffffffffffffffffffffffffff16611838610e5c565b73ffffffffffffffffffffffffffffffffffffffff161461188e576040517f08c379a00000000000000000000000000000000000000000000000000000000081526004016118859061413f565b60405180910390fd5b80601060006101000a81548173ffffffffffffffffffffffffffffffffffffffff021916908373ffffffffffffffffffffffffffffffffffffffff16021790555050565b6118da611ab0565b73ffffffffffffffffffffffffffffffffffffffff166118f8610e5c565b73ffffffffffffffffffffffffffffffffffffffff161461194e576040517f08c379a00000000000000000000000000000000000000000000000000000000081526004016119459061413f565b60405180910390fd5b600073ffffffffffffffffffffffffffffffffffffffff168173ffffffffffffffffffffffffffffffffffffffff1614156119be576040517f08c379a00000000000000000000000000000000000000000000000000000000081526004016119b590613fbf565b60405180910390fd5b6119c781612090565b50565b60007f780e9d63000000000000000000000000000000000000000000000000000000007bffffffffffffffffffffffffffffffffffffffffffffffffffffffff1916827bffffffffffffffffffffffffffffffffffffffffffffffffffffffff19161480611a3d5750611a3c826125e4565b5b9050919050565b60008073ffffffffffffffffffffffffffffffffffffffff166002600084815260200190815260200160002060009054906101000a900473ffffffffffffffffffffffffffffffffffffffff1673ffffffffffffffffffffffffffffffffffffffff1614159050919050565b600033905090565b816004600083815260200190815260200160002060006101000a81548173ffffffffffffffffffffffffffffffffffffffff021916908373ffffffffffffffffffffffffffffffffffffffff160217905550808273ffffffffffffffffffffffffffffffffffffffff16611b2b83610be4565b73ffffffffffffffffffffffffffffffffffffffff167f8c5be1e5ebec7d5bd14f71427d1e84f3dd0314c0f7b2291e5b200ac8c7c3b92560405160405180910390a45050565b600073ffffffffffffffffffffffffffffffffffffffff168273ffffffffffffffffffffffffffffffffffffffff161415611be1576040517f08c379a0000000000000000000000000000000000000000000000000000000008152600401611bd8906140ff565b60405180910390fd5b611bea81611a44565b15611c2a576040517f08c379a0000000000000000000000000000000000000000000000000000000008152600401611c2190613fff565b60405180910390fd5b611c36600083836126c6565b6001600360008473ffffffffffffffffffffffffffffffffffffffff1673ffffffffffffffffffffffffffffffffffffffff1681526020019081526020016000206000828254611c86919061437f565b92505081905550816002600083815260200190815260200160002060006101000a81548173ffffffffffffffffffffffffffffffffffffffff021916908373ffffffffffffffffffffffffffffffffffffffff160217905550808273ffffffffffffffffffffffffffffffffffffffff16600073ffffffffffffffffffffffffffffffffffffffff167fddf252ad1be2c89b69c2b068fc378daa952ba7f163c4a11628f55a4df523b3ef60405160405180910390a4611d47600083836126d6565b5050565b6000611d5682611a44565b611d95576040517f08c379a0000000000000000000000000000000000000000000000000000000008152600401611d8c9061405f565b60405180910390fd5b6000611da083610be4565b90508073ffffffffffffffffffffffffffffffffffffffff168473ffffffffffffffffffffffffffffffffffffffff161480611e0f57508373ffffffffffffffffffffffffffffffffffffffff16611df7846105a9565b73ffffffffffffffffffffffffffffffffffffffff16145b80611e205750611e1f818561177e565b5b91505092915050565b8273ffffffffffffffffffffffffffffffffffffffff16611e4982610be4565b73ffffffffffffffffffffffffffffffffffffffff1614611e9f576040517f08c379a0000000000000000000000000000000000000000000000000000000008152600401611e9690613fdf565b60405180910390fd5b600073ffffffffffffffffffffffffffffffffffffffff168273ffffffffffffffffffffffffffffffffffffffff161415611f0f576040517f08c379a0000000000000000000000000000000000000000000000000000000008152600401611f069061401f565b60405180910390fd5b611f1a8383836126c6565b611f25600082611ab8565b6001600360008573ffffffffffffffffffffffffffffffffffffffff1673ffffffffffffffffffffffffffffffffffffffff1681526020019081526020016000206000828254611f759190614460565b925050819055506001600360008473ffffffffffffffffffffffffffffffffffffffff1673ffffffffffffffffffffffffffffffffffffffff1681526020019081526020016000206000828254611fcc919061437f565b92505081905550816002600083815260200190815260200160002060006101000a81548173ffffffffffffffffffffffffffffffffffffffff021916908373ffffffffffffffffffffffffffffffffffffffff160217905550808273ffffffffffffffffffffffffffffffffffffffff168473ffffffffffffffffffffffffffffffffffffffff167fddf252ad1be2c89b69c2b068fc378daa952ba7f163c4a11628f55a4df523b3ef60405160405180910390a461208b8383836126d6565b505050565b6000600b60009054906101000a900473ffffffffffffffffffffffffffffffffffffffff16905081600b60006101000a81548173ffffffffffffffffffffffffffffffffffffffff021916908373ffffffffffffffffffffffffffffffffffffffff1602179055508173ffffffffffffffffffffffffffffffffffffffff168173ffffffffffffffffffffffffffffffffffffffff167f8be0079c531659141344cd1fd0a4f28419497f9722a3daafe3b4186f6b6457e060405160405180910390a35050565b6060600082141561219e576040518060400160405280600181526020017f300000000000000000000000000000000000000000000000000000000000000081525090506122b2565b600082905060005b600082146121d05780806121b9906145d1565b915050600a826121c991906143d5565b91506121a6565b60008167ffffffffffffffff8111156121ec576121eb61475a565b5b6040519080825280601f01601f19166020018201604052801561221e5781602001600182028036833780820191505090505b5090505b600085146122ab576001826122379190614460565b9150600a85612246919061463e565b6030612252919061437f565b60f81b8183815181106122685761226761472b565b5b60200101907effffffffffffffffffffffffffffffffffffffffffffffffffffffffffffff1916908160001a905350600a856122a491906143d5565b9450612222565b8093505050505b919050565b8173ffffffffffffffffffffffffffffffffffffffff168373ffffffffffffffffffffffffffffffffffffffff161415612326576040517f08c379a000000000000000000000000000000000000000000000000000000000815260040161231d9061403f565b60405180910390fd5b80600560008573ffffffffffffffffffffffffffffffffffffffff1673ffffffffffffffffffffffffffffffffffffffff16815260200190815260200160002060008473ffffffffffffffffffffffffffffffffffffffff1673ffffffffffffffffffffffffffffffffffffffff16815260200190815260200160002060006101000a81548160ff0219169083151502179055508173ffffffffffffffffffffffffffffffffffffffff168373ffffffffffffffffffffffffffffffffffffffff167f17307eab39ab6107e8899845ad3d59bd9653f200f220920489ca2b5937696c31836040516124179190613f22565b60405180910390a3505050565b61242f848484611e29565b61243b848484846126db565b61247a576040517f08c379a000000000000000000000000000000000000000000000000000000000815260040161247190613f9f565b60405180910390fd5b50505050565b60606000825114156124a3576040518060200160405280600081525090506125df565b60006040518060600160405280604081526020016152c460409139905060006003600285516124d2919061437f565b6124dc91906143d5565b60046124e89190614406565b67ffffffffffffffff8111156125015761250061475a565b5b6040519080825280601f01601f1916602001820160405280156125335781602001600182028036833780820191505090505b509050600182016020820185865187015b8082101561259f576003820191508151603f8160121c168501518453600184019350603f81600c1c168501518453600184019350603f8160061c168501518453600184019350603f8116850151845360018401935050612544565b50506003865106600181146125bb57600281146125ce576125d6565b603d6001830353603d60028303536125d6565b603d60018303535b50505080925050505b919050565b60007f80ac58cd000000000000000000000000000000000000000000000000000000007bffffffffffffffffffffffffffffffffffffffffffffffffffffffff1916827bffffffffffffffffffffffffffffffffffffffffffffffffffffffff191614806126af57507f5b5e139f000000000000000000000000000000000000000000000000000000007bffffffffffffffffffffffffffffffffffffffffffffffffffffffff1916827bffffffffffffffffffffffffffffffffffffffffffffffffffffffff1916145b806126bf57506126be82612872565b5b9050919050565b6126d18383836128dc565b505050565b505050565b60006126fc8473ffffffffffffffffffffffffffffffffffffffff166129f0565b15612865578373ffffffffffffffffffffffffffffffffffffffff1663150b7a02612725611ab0565b8786866040518563ffffffff1660e01b81526004016127479493929190613e51565b602060405180830381600087803b15801561276157600080fd5b505af192505050801561279257506040513d601f19601f8201168201806040525081019061278f9190613328565b60015b612815573d80600081146127c2576040519150601f19603f3d011682016040523d82523d6000602084013e6127c7565b606091505b5060008151141561280d576040517f08c379a000000000000000000000000000000000000000000000000000000000815260040161280490613f9f565b60405180910390fd5b805181602001fd5b63150b7a0260e01b7bffffffffffffffffffffffffffffffffffffffffffffffffffffffff1916817bffffffffffffffffffffffffffffffffffffffffffffffffffffffff19161491505061286a565b600190505b949350505050565b60007f01ffc9a7000000000000000000000000000000000000000000000000000000007bffffffffffffffffffffffffffffffffffffffffffffffffffffffff1916827bffffffffffffffffffffffffffffffffffffffffffffffffffffffff1916149050919050565b6128e7838383612a13565b600073ffffffffffffffffffffffffffffffffffffffff168373ffffffffffffffffffffffffffffffffffffffff16141561292a5761292581612a18565b612969565b8173ffffffffffffffffffffffffffffffffffffffff168373ffffffffffffffffffffffffffffffffffffffff1614612968576129678382612a61565b5b5b600073ffffffffffffffffffffffffffffffffffffffff168273ffffffffffffffffffffffffffffffffffffffff1614156129ac576129a781612bce565b6129eb565b8273ffffffffffffffffffffffffffffffffffffffff168273ffffffffffffffffffffffffffffffffffffffff16146129ea576129e98282612c9f565b5b5b505050565b6000808273ffffffffffffffffffffffffffffffffffffffff163b119050919050565b505050565b600980549050600a600083815260200190815260200160002081905550600981908060018154018082558091505060019003906000526020600020016000909190919091505550565b60006001612a6e84610c96565b612a789190614460565b9050600060086000848152602001908152602001600020549050818114612b5d576000600760008673ffffffffffffffffffffffffffffffffffffffff1673ffffffffffffffffffffffffffffffffffffffff168152602001908152602001600020600084815260200190815260200160002054905080600760008773ffffffffffffffffffffffffffffffffffffffff1673ffffffffffffffffffffffffffffffffffffffff168152602001908152602001600020600084815260200190815260200160002081905550816008600083815260200190815260200160002081905550505b6008600084815260200190815260200160002060009055600760008573ffffffffffffffffffffffffffffffffffffffff1673ffffffffffffffffffffffffffffffffffffffff16815260200190815260200160002060008381526020019081526020016000206000905550505050565b60006001600980549050612be29190614460565b90506000600a6000848152602001908152602001600020549050600060098381548110612c1257612c1161472b565b5b906000526020600020015490508060098381548110612c3457612c3361472b565b5b906000526020600020018190555081600a600083815260200190815260200160002081905550600a6000858152602001908152602001600020600090556009805480612c8357612c826146fc565b5b6001900381819060005260206000200160009055905550505050565b6000612caa83610c96565b905081600760008573ffffffffffffffffffffffffffffffffffffffff1673ffffffffffffffffffffffffffffffffffffffff168152602001908152602001600020600083815260200190815260200160002081905550806008600084815260200190815260200160002081905550505050565b604051806101400160405280600a90602082028036833780820191505090505090565b828054612d4d90614554565b90600052602060002090601f016020900481019282612d6f5760008555612db6565b82601f10612d8857805160ff1916838001178555612db6565b82800160010185558215612db6579182015b82811115612db5578251825591602001919060010190612d9a565b5b509050612dc39190612e29565b5090565b82600a8101928215612df6579160200282015b82811115612df5578251825591602001919060010190612dda565b5b509050612e039190612e29565b5090565b6040518060a00160405280600590602082028036833780820191505090505090565b5b80821115612e42576000816000905550600101612e2a565b5090565b6000612e59612e548461421f565b6141fa565b90508082856020860282011115612e7357612e726147a1565b5b60005b85811015612ea35781612e898882613123565b845260208401935060208301925050600181019050612e76565b5050509392505050565b6000612ec0612ebb84614245565b6141fa565b90508082856020860282011115612eda57612ed96147a1565b5b60005b85811015612f0a5781612ef0888261310e565b845260208401935060208301925050600181019050612edd565b5050509392505050565b6000612f27612f228461426b565b6141fa565b905082815260208101848484011115612f4357612f426147a6565b5b612f4e848285614512565b509392505050565b6000612f69612f648461429c565b6141fa565b905082815260208101848484011115612f8557612f846147a6565b5b612f90848285614512565b509392505050565b6000612fab612fa68461429c565b6141fa565b905082815260208101848484011115612fc757612fc66147a6565b5b612fd2848285614521565b509392505050565b600081359050612fe981615267565b92915050565b600082601f8301126130045761300361479c565b5b600a613011848285612e46565b91505092915050565b600082601f83011261302f5761302e61479c565b5b600561303c848285612ead565b91505092915050565b6000813590506130548161527e565b92915050565b60008135905061306981615295565b92915050565b60008151905061307e81615295565b92915050565b600082601f8301126130995761309861479c565b5b81356130a9848260208601612f14565b91505092915050565b600082601f8301126130c7576130c661479c565b5b81356130d7848260208601612f56565b91505092915050565b600082601f8301126130f5576130f461479c565b5b8151613105848260208601612f98565b91505092915050565b60008135905061311d816152ac565b92915050565b600081519050613132816152ac565b92915050565b60006020828403121561314e5761314d6147b0565b5b600061315c84828501612fda565b91505092915050565b6000806040838503121561317c5761317b6147b0565b5b600061318a85828601612fda565b925050602061319b85828601612fda565b9150509250929050565b6000806000606084860312156131be576131bd6147b0565b5b60006131cc86828701612fda565b93505060206131dd86828701612fda565b92505060406131ee8682870161310e565b9150509250925092565b60008060008060808587031215613212576132116147b0565b5b600061322087828801612fda565b945050602061323187828801612fda565b93505060406132428782880161310e565b925050606085013567ffffffffffffffff811115613263576132626147ab565b5b61326f87828801613084565b91505092959194509250565b60008060408385031215613292576132916147b0565b5b60006132a085828601612fda565b92505060206132b185828601613045565b9150509250929050565b600080604083850312156132d2576132d16147b0565b5b60006132e085828601612fda565b92505060206132f18582860161310e565b9150509250929050565b600060208284031215613311576133106147b0565b5b600061331f8482850161305a565b91505092915050565b60006020828403121561333e5761333d6147b0565b5b600061334c8482850161306f565b91505092915050565b60006020828403121561336b5761336a6147b0565b5b600082013567ffffffffffffffff811115613389576133886147ab565b5b613395848285016130b2565b91505092915050565b6000602082840312156133b4576133b36147b0565b5b600082015167ffffffffffffffff8111156133d2576133d16147ab565b5b6133de848285016130e0565b91505092915050565b60008060006101808486031215613401576134006147b0565b5b600084015167ffffffffffffffff81111561341f5761341e6147ab565b5b61342b868287016130e0565b935050602084015167ffffffffffffffff81111561344c5761344b6147ab565b5b613458868287016130e0565b925050604061346986828701612fef565b9150509250925092565b600060208284031215613489576134886147b0565b5b60006134978482850161310e565b91505092915050565b6000602082840312156134b6576134b56147b0565b5b60006134c484828501613123565b91505092915050565b60008060c083850312156134e4576134e36147b0565b5b60006134f28582860161310e565b92505060206135038582860161301a565b9150509250929050565b60006135198383613c40565b60208301905092915050565b61352e8161449e565b82525050565b6135456135408261449e565b61461a565b82525050565b613554816142f6565b61355e818461433c565b9250613569826142cd565b8060005b838110156135a15761357e82614789565b613588878261350d565b965061359383614322565b92505060018101905061356d565b505050505050565b6135b281614301565b6135bc8184614347565b92506135c7826142d7565b8060005b838110156135f85781516135df878261350d565b96506135ea8361432f565b9250506001810190506135cb565b505050505050565b613609816144b0565b82525050565b600061361a8261430c565b6136248185614352565b9350613634818560208601614521565b61363d816147b5565b840191505092915050565b600061365382614317565b61365d8185614363565b935061366d818560208601614521565b613676816147b5565b840191505092915050565b600061368c82614317565b6136968185614374565b93506136a6818560208601614521565b80840191505092915050565b600081546136bf81614554565b6136c98186614374565b945060018216600081146136e457600181146136f557613728565b60ff19831686528186019350613728565b6136fe856142e1565b60005b8381101561372057815481890152600182019150602081019050613701565b838801955050505b50505092915050565b600061373e606783614363565b9150613749826147e0565b608082019050919050565b6000613761606183614374565b915061376c8261487b565b606182019050919050565b6000613784602b83614363565b915061378f82614916565b604082019050919050565b60006137a7603283614363565b91506137b282614965565b604082019050919050565b60006137ca602683614363565b91506137d5826149b4565b604082019050919050565b60006137ed600283614374565b91506137f882614a03565b600282019050919050565b6000613810601483614374565b915061381b82614a2c565b601482019050919050565b6000613833602583614363565b915061383e82614a55565b604082019050919050565b6000613856601183614374565b915061386182614aa4565b601182019050919050565b6000613879601c83614363565b915061388482614acd565b602082019050919050565b600061389c602483614363565b91506138a782614af6565b604082019050919050565b60006138bf601983614363565b91506138ca82614b45565b602082019050919050565b60006138e2601883614374565b91506138ed82614b6e565b601882019050919050565b6000613905600783614374565b915061391082614b97565b600782019050919050565b6000613928602c83614363565b915061393382614bc0565b604082019050919050565b600061394b602383614374565b915061395682614c0f565b602382019050919050565b600061396e608c83614374565b915061397982614c5e565b608c82019050919050565b6000613991600b83614374565b915061399c82614d1f565b600b82019050919050565b60006139b4603883614363565b91506139bf82614d48565b604082019050919050565b60006139d7602a83614363565b91506139e282614d97565b604082019050919050565b60006139fa602983614363565b9150613a0582614de6565b604082019050919050565b6000613a1d600283614374565b9150613a2882614e35565b600282019050919050565b6000613a40603b83614363565b9150613a4b82614e5e565b604082019050919050565b6000613a63606e83614374565b9150613a6e82614ead565b606e82019050919050565b6000613a86602083614363565b9150613a9182614f48565b602082019050919050565b6000613aa9600283614374565b9150613ab482614f71565b600282019050919050565b6000613acc601283614374565b9150613ad782614f9a565b601282019050919050565b6000613aef602c83614363565b9150613afa82614fc3565b604082019050919050565b6000613b12602683614374565b9150613b1d82615012565b602682019050919050565b6000613b35602083614363565b9150613b4082615061565b602082019050919050565b6000613b58602f83614363565b9150613b638261508a565b604082019050919050565b6000613b7b602183614363565b9150613b86826150d9565b604082019050919050565b6000613b9e601d83614374565b9150613ba982615128565b601d82019050919050565b6000613bc1603183614363565b9150613bcc82615151565b604082019050919050565b6000613be4602c83614363565b9150613bef826151a0565b604082019050919050565b6000613c07602c83614374565b9150613c12826151ef565b602c82019050919050565b6000613c2a601383614374565b9150613c358261523e565b601382019050919050565b613c4981614508565b82525050565b613c5881614508565b82525050565b6000613c6a8284613681565b915081905092915050565b6000613c8082613754565b9150613c8c82846136b2565b915081905092915050565b6000613ca2826138d5565b9150613cad82613961565b9150613cb882613bfa565b9150613cc38261393e565b9150613cce82613803565b9150613cda8285613534565b601482019150613ce9826137e0565b9150613cf482613b05565b9150613d008284613681565b9150613d0b82613a10565b91508190509392505050565b6000613d22826138f8565b9150613d2e8284613681565b915081905092915050565b6000613d4482613984565b9150613d508288613681565b9150613d5b826137e0565b9150613d6682613abf565b9150613d728287613681565b9150613d7d826137e0565b9150613d8882613c1d565b9150613d9482866136b2565b9150613d9f826137e0565b9150613daa82613849565b9150613db682856136b2565b9150613dc182613a9c565b9150613dcc82613b05565b9150613dd88284613681565b9150613de382613a10565b91508190509695505050505050565b6000613dfd82613a56565b9150613e0982846136b2565b915081905092915050565b6000613e1f82613b91565b9150613e2b8284613681565b915081905092915050565b6000602082019050613e4b6000830184613525565b92915050565b6000608082019050613e666000830187613525565b613e736020830186613525565b613e806040830185613c4f565b8181036060830152613e92818461360f565b905095945050505050565b6000604082019050613eb26000830185613525565b613ebf6020830184613c4f565b9392505050565b600061016082019050613edc600083018561354b565b818103610140830152613eef8184613648565b90509392505050565b600061014082019050613f0e60008301856135a9565b613f1b60a08301846135a9565b9392505050565b6000602082019050613f376000830184613600565b92915050565b60006020820190508181036000830152613f578184613648565b905092915050565b60006020820190508181036000830152613f7881613731565b9050919050565b60006020820190508181036000830152613f9881613777565b9050919050565b60006020820190508181036000830152613fb88161379a565b9050919050565b60006020820190508181036000830152613fd8816137bd565b9050919050565b60006020820190508181036000830152613ff881613826565b9050919050565b600060208201905081810360008301526140188161386c565b9050919050565b600060208201905081810360008301526140388161388f565b9050919050565b60006020820190508181036000830152614058816138b2565b9050919050565b600060208201905081810360008301526140788161391b565b9050919050565b60006020820190508181036000830152614098816139a7565b9050919050565b600060208201905081810360008301526140b8816139ca565b9050919050565b600060208201905081810360008301526140d8816139ed565b9050919050565b600060208201905081810360008301526140f881613a33565b9050919050565b6000602082019050818103600083015261411881613a79565b9050919050565b6000602082019050818103600083015261413881613ae2565b9050919050565b6000602082019050818103600083015261415881613b28565b9050919050565b6000602082019050818103600083015261417881613b4b565b9050919050565b6000602082019050818103600083015261419881613b6e565b9050919050565b600060208201905081810360008301526141b881613bb4565b9050919050565b600060208201905081810360008301526141d881613bd7565b9050919050565b60006020820190506141f46000830184613c4f565b92915050565b6000614204614215565b905061421082826145a0565b919050565b6000604051905090565b600067ffffffffffffffff82111561423a5761423961475a565b5b602082029050919050565b600067ffffffffffffffff8211156142605761425f61475a565b5b602082029050919050565b600067ffffffffffffffff8211156142865761428561475a565b5b61428f826147b5565b9050602081019050919050565b600067ffffffffffffffff8211156142b7576142b661475a565b5b6142c0826147b5565b9050602081019050919050565b6000819050919050565b6000819050919050565b60008190508160005260206000209050919050565b6000600a9050919050565b600060059050919050565b600081519050919050565b600081519050919050565b6000600182019050919050565b6000602082019050919050565b600081905092915050565b600081905092915050565b600082825260208201905092915050565b600082825260208201905092915050565b600081905092915050565b600061438a82614508565b915061439583614508565b9250827fffffffffffffffffffffffffffffffffffffffffffffffffffffffffffffffff038211156143ca576143c961466f565b5b828201905092915050565b60006143e082614508565b91506143eb83614508565b9250826143fb576143fa61469e565b5b828204905092915050565b600061441182614508565b915061441c83614508565b9250817fffffffffffffffffffffffffffffffffffffffffffffffffffffffffffffffff04831182151516156144555761445461466f565b5b828202905092915050565b600061446b82614508565b915061447683614508565b9250828210156144895761448861466f565b5b828203905092915050565b6000819050919050565b60006144a9826144e8565b9050919050565b60008115159050919050565b60007fffffffff0000000000000000000000000000000000000000000000000000000082169050919050565b600073ffffffffffffffffffffffffffffffffffffffff82169050919050565b6000819050919050565b82818337600083830152505050565b60005b8381101561453f578082015181840152602081019050614524565b8381111561454e576000848401525b50505050565b6000600282049050600182168061456c57607f821691505b602082108114156145805761457f6146cd565b5b50919050565b6000614599614594836147d3565b614494565b9050919050565b6145a9826147b5565b810181811067ffffffffffffffff821117156145c8576145c761475a565b5b80604052505050565b60006145dc82614508565b91507fffffffffffffffffffffffffffffffffffffffffffffffffffffffffffffffff82141561460f5761460e61466f565b5b600182019050919050565b60006146258261462c565b9050919050565b6000614637826147c6565b9050919050565b600061464982614508565b915061465483614508565b9250826146645761466361469e565b5b828206905092915050565b7f4e487b7100000000000000000000000000000000000000000000000000000000600052601160045260246000fd5b7f4e487b7100000000000000000000000000000000000000000000000000000000600052601260045260246000fd5b7f4e487b7100000000000000000000000000000000000000000000000000000000600052602260045260246000fd5b7f4e487b7100000000000000000000000000000000000000000000000000000000600052603160045260246000fd5b7f4e487b7100000000000000000000000000000000000000000000000000000000600052603260045260246000fd5b7f4e487b7100000000000000000000000000000000000000000000000000000000600052604160045260246000fd5b60006147958254614586565b9050919050565b600080fd5b600080fd5b600080fd5b600080fd5b600080fd5b6000601f19601f8301169050919050565b60008160601b9050919050565b60008160001c9050919050565b7f534f4c44204f555420464f5245564552202d20546865726520617265206e6f2060008201527f6d6f726520446f6e75742042756e6e7973206c6566742c20636865636b206f7560208201527f74206f7572206e65787420636f6c6c656374696f6e20617420446f6e7574546f60408201527f6b656e2e6e657400000000000000000000000000000000000000000000000000606082015250565b7f4920616d206120446f6e75742042756e6e79202d206d696e7465642c2067656e60008201527f65726174656420616e642073746f7265642031303025206f6e2d636861696e2060208201527f666f726576657221204d792042756e6e792052656e64657220436f646520697360408201527f2000000000000000000000000000000000000000000000000000000000000000606082015250565b7f455243373231456e756d657261626c653a206f776e657220696e646578206f7560008201527f74206f6620626f756e6473000000000000000000000000000000000000000000602082015250565b7f4552433732313a207472616e7366657220746f206e6f6e20455243373231526560008201527f63656976657220696d706c656d656e7465720000000000000000000000000000602082015250565b7f4f776e61626c653a206e6577206f776e657220697320746865207a65726f206160008201527f6464726573730000000000000000000000000000000000000000000000000000602082015250565b7f222c000000000000000000000000000000000000000000000000000000000000600082015250565b7f20226665655f726563697069656e7422203a2022000000000000000000000000600082015250565b7f4552433732313a207472616e736665722066726f6d20696e636f72726563742060008201527f6f776e6572000000000000000000000000000000000000000000000000000000602082015250565b7f20226174747269627574657322203a205b000000000000000000000000000000600082015250565b7f4552433732313a20746f6b656e20616c7265616479206d696e74656400000000600082015250565b7f4552433732313a207472616e7366657220746f20746865207a65726f2061646460008201527f7265737300000000000000000000000000000000000000000000000000000000602082015250565b7f4552433732313a20617070726f766520746f2063616c6c657200000000000000600082015250565b7f7b226e616d6522203a2022446f6e75742042756e6e79222c0000000000000000600082015250565b7f42756e6e79202300000000000000000000000000000000000000000000000000600082015250565b7f4552433732313a206f70657261746f7220717565727920666f72206e6f6e657860008201527f697374656e7420746f6b656e0000000000000000000000000000000000000000602082015250565b7f202273656c6c65725f6665655f62617369735f706f696e747322203a2022313060008201527f30222c0000000000000000000000000000000000000000000000000000000000602082015250565b7f20226465736372697074696f6e22203a2022446f6e75742042756e6e7973206160008201527f7265206120756e697175652066756c6c79206f6e20636861696e204e4654207460208201527f686174206973206d696e74656420616e642073746f72656420656e746972656c60408201527f79206f6e20636861696e2e204f776e20796f7572206669727374207265616c2060608201527f4e465420746f64617921222c0000000000000000000000000000000000000000608082015250565b7f7b226e616d6522203a2022000000000000000000000000000000000000000000600082015250565b7f4552433732313a20617070726f76652063616c6c6572206973206e6f74206f7760008201527f6e6572206e6f7220617070726f76656420666f7220616c6c0000000000000000602082015250565b7f4552433732313a2062616c616e636520717565727920666f7220746865207a6560008201527f726f206164647265737300000000000000000000000000000000000000000000602082015250565b7f4552433732313a206f776e657220717565727920666f72206e6f6e657869737460008201527f656e7420746f6b656e0000000000000000000000000000000000000000000000602082015250565b7f227d000000000000000000000000000000000000000000000000000000000000600082015250565b7f4f6e6c79207468652063757272656e74206f776e6572206f662074686973204460008201527f6f6e75742042756e6e79204e46542063616e20646f2074686973210000000000602082015250565b7f4920616d206120524152452045444954494f4e20446f6e75742042756e6e792060008201527f2d206d696e7465642c2067656e65726174656420616e642073746f726564203160208201527f303025206f6e2d636861696e20666f726576657221204d792042756e6e79205260408201527f656e64657220436f646520697320000000000000000000000000000000000000606082015250565b7f4552433732313a206d696e7420746f20746865207a65726f2061646472657373600082015250565b7f5d2c000000000000000000000000000000000000000000000000000000000000600082015250565b7f20226465736372697074696f6e22203a20220000000000000000000000000000600082015250565b7f4552433732313a20617070726f76656420717565727920666f72206e6f6e657860008201527f697374656e7420746f6b656e0000000000000000000000000000000000000000602082015250565b7f2022696d61676522203a2022646174613a696d6167652f7376672b786d6c3b6260008201527f61736536342c0000000000000000000000000000000000000000000000000000602082015250565b7f4f776e61626c653a2063616c6c6572206973206e6f7420746865206f776e6572600082015250565b7f4552433732314d657461646174613a2055524920717565727920666f72206e6f60008201527f6e6578697374656e7420746f6b656e0000000000000000000000000000000000602082015250565b7f4552433732313a20617070726f76616c20746f2063757272656e74206f776e6560008201527f7200000000000000000000000000000000000000000000000000000000000000602082015250565b7f646174613a6170706c69636174696f6e2f6a736f6e3b6261736536342c000000600082015250565b7f4552433732313a207472616e736665722063616c6c6572206973206e6f74206f60008201527f776e6572206e6f7220617070726f766564000000000000000000000000000000602082015250565b7f455243373231456e756d657261626c653a20676c6f62616c20696e646578206f60008201527f7574206f6620626f756e64730000000000000000000000000000000000000000602082015250565b7f202265787465726e616c5f6c696e6b22203a202268747470733a2f2f646f6e7560008201527f7462756e6e792e6e6574222c0000000000000000000000000000000000000000602082015250565b7f202265787465726e616c5f75726c22203a202200000000000000000000000000600082015250565b6152708161449e565b811461527b57600080fd5b50565b615287816144b0565b811461529257600080fd5b50565b61529e816144bc565b81146152a957600080fd5b50565b6152b581614508565b81146152c057600080fd5b5056fe4142434445464748494a4b4c4d4e4f505152535455565758595a6162636465666768696a6b6c6d6e6f707172737475767778797a303132333435363738392b2f3c73766720786d6c6e733d22687474703a2f2f7777772e77332e6f72672f323030302f7376672220636c6173733d22696e74726f2d737667222076696577426f783d223020302033302e36392033382e3133223e3c6720636c6173733d2262756e6e79223e3c706174682066696c6c3d222366366534643922207374726f6b653d222338303762623422207374726f6b652d6c696e656361703d22726f756e6422207374726f6b652d6c696e656a6f696e3d22726f756e6422207374726f6b652d6d697465726c696d69743d2231302220643d224d352e312e3543312e35362e332d312e303820342e323920312e3620392e333763312e3538203320342e343820352e373920342e343820352e37396131322e392031322e392030203020302d342e313520392e3536633020372e313420362e30312031322e39322031332e34332031322e39325332382e382033312e38352032382e382032342e373163302d332e37312d312e35352d372e322d342e31352d392e35362030203020322e38362d322e3820342e34362d352e37394333322e313520332e372032382e332d2e382032342e30352e3836632d342e353520312e37382d352e33382031302e38312d352e34322031312e33326131332e39372031332e39372030203020302d362e35312030632d2e30352d2e35352d2e38382d392e35352d352e34352d31312e333241352e3120352e3120302030203020352e31312e355a6d31302e322031392e383363322e3332203020342e3220312e383220342e3220342e303661342e313420342e31342030203020312d342e3220342e303620342e313420342e31342030203020312d342e322d342e303620342e313320342e313320302030203120342e322d342e30367a222f3e3c706174682066696c6c3d22236564626563322220643d224d31352e31372031332e3237632d2e393720302d312e38362e35342d322e3320312e3461322e3620322e362030203020302d312e36332d2e353320322e353520322e35352030203020302d322e3520322e3820322e353720322e35372030203020302d332e323720312e3920322e3520322e35203020302030202e343520322e303420322e353220322e35322030203020302d312e323520342e343820322e3520322e352030203020302d2e3620322e343420322e353620322e353620302030203020322e303620312e3820322e343820322e34382030203020302d2e313620312e383241322e353820322e353820302030203020382e392033332e3261322e353620322e353620302030203020322e353620322e323620322e3620322e3620302030203020312e34382d2e343620322e353820322e353820302030203020342e36332d2e333620322e353920322e353920302030203020342e342d312e38336c2d2e30312d2e32332e32322e303663312e342e323820322e37362d2e3620332e30342d312e393661322e3520322e352030203020302d2e34352d322e303320322e353220322e353220302030203020322e31322d332e3241322e353220322e35322030203020302032352e373620323461322e3520322e352030203020302d312e30382d342e3335632e31382d2e352e322d312e30332e30342d312e353461322e353820322e35382030203020302d322e39332d312e373820322e353920322e35392030203020302d342e332d312e3620322e353820322e35382030203020302d322e33322d312e34367a6d2e313120362e363263322e36203020342e3720322e303320342e3720342e3533203020322e352d322e3120342e35342d342e3720342e353461342e363220342e36322030203020312d342e36392d342e353463302d322e3520322e312d342e353320342e372d342e35337a222f3e3c706174682066696c6c3d22233261333135342220643d224d31372e372031352e39326330202e33362e32342e36352e35342e36352e332030202e35352d2e332e35352d2e363520302d2e33362d2e32352d2e36352d2e35352d2e36352d2e3320302d2e35342e32392d2e35342e36356d2d3520306330202e33362e32342e36352e35342e36352e332030202e35352d2e332e35352d2e363520302d2e33362d2e32352d2e36352d2e35352d2e36352d2e3320302d2e35342e32392d2e35342e3635222f3e3c706174682066696c6c3d226e6f6e6522207374726f6b653d222332613331353422207374726f6b652d6c696e656361703d22726f756e6422207374726f6b652d6c696e656a6f696e3d22726f756e6422207374726f6b652d6d697465726c696d69743d22313022207374726f6b652d77696474683d222e34382220643d226d31362e35352031352e39392d2e38352e372d2e38352d2e376d2e38352e3834762e376d312e32392d2e3333732d312e333220312e352d322e35382d2e3035222f3e3c706174682066696c6c3d226e6f6e6522207374726f6b653d222337633737623222207374726f6b652d6c696e656361703d22726f756e6422207374726f6b652d6c696e656a6f696e3d22726f756e6422207374726f6b652d6d697465726c696d69743d22313022207374726f6b652d77696474683d222e392220643d226d31322e36362033302e31352d2e3120312e356d352e35342d312e31372d312e34332e34366d2d2e343120322e39352d312e352d2e31346d372e39362d342e37332d2e36382d312e33346d2d312e353220342e39362e34332d312e34356d322e39392d392e35342e34332d312e34356d2d31362e33312e38332d312e312d312e30344d32312e37362032346c2d2e32342d312e34396d2d31312e342d2e37372d2e323520312e34396d31352e333620322e33372d312e34392e31364d362e36322032342e366c2d312e31362e39366d332e383420312e38322d312e352d2e316d312e393520342e34394c392e312033302e342220636c6173733d22737072696e6b6c65222f3e3c2f673e3c2f7376673ea2646970667358221220649fad14daa349697a42f5958af67cbdbfa661f3b89f0e4a881570fe752f9c8964736f6c63430008070033",
			"opcodes": "PUSH1 0xE0 PUSH1 0x40 MSTORE PUSH20 0x8F26D3EF8437C1D10B118D7F75D33E7D01DA59B6 PUSH20 0xFFFFFFFFFFFFFFFFFFFFFFFFFFFFFFFFFFFFFFFF AND PUSH1 0x80 SWAP1 PUSH20 0xFFFFFFFFFFFFFFFFFFFFFFFFFFFFFFFFFFFFFFFF AND PUSH1 0x60 SHL DUP2 MSTORE POP PUSH20 0x6D5783A1D14AB3B52A613A9A9157E2AC4A7900DC PUSH20 0xFFFFFFFFFFFFFFFFFFFFFFFFFFFFFFFFFFFFFFFF AND PUSH1 0xA0 SWAP1 PUSH20 0xFFFFFFFFFFFFFFFFFFFFFFFFFFFFFFFFFFFFFFFF AND PUSH1 0x60 SHL DUP2 MSTORE POP PUSH20 0x8C4A71D0F7A4CD2A1CAFB55F57F53C9E08A79BDA PUSH20 0xFFFFFFFFFFFFFFFFFFFFFFFFFFFFFFFFFFFFFFFF AND PUSH1 0xC0 SWAP1 PUSH20 0xFFFFFFFFFFFFFFFFFFFFFFFFFFFFFFFFFFFFFFFF AND PUSH1 0x60 SHL DUP2 MSTORE POP PUSH20 0x4302B4AD74B0CFFE844F881DC1471DEA6D52BE33 PUSH1 0x10 PUSH1 0x0 PUSH2 0x100 EXP DUP2 SLOAD DUP2 PUSH20 0xFFFFFFFFFFFFFFFFFFFFFFFFFFFFFFFFFFFFFFFF MUL NOT AND SWAP1 DUP4 PUSH20 0xFFFFFFFFFFFFFFFFFFFFFFFFFFFFFFFFFFFFFFFF AND MUL OR SWAP1 SSTORE POP PUSH2 0x5DC PUSH1 0x11 SSTORE PUSH9 0x1B1AE4D6E2EF500000 PUSH1 0x12 SSTORE PUSH1 0x40 MLOAD DUP1 PUSH1 0x40 ADD PUSH1 0x40 MSTORE DUP1 PUSH1 0x1C DUP2 MSTORE PUSH1 0x20 ADD PUSH32 0x68747470733A2F2F646F6E757462756E6E792E6E65742F766965772F00000000 DUP2 MSTORE POP PUSH1 0x13 SWAP1 DUP1 MLOAD SWAP1 PUSH1 0x20 ADD SWAP1 PUSH3 0x197 SWAP3 SWAP2 SWAP1 PUSH3 0x33A JUMP JUMPDEST POP CALLVALUE DUP1 ISZERO PUSH3 0x1A5 JUMPI PUSH1 0x0 DUP1 REVERT JUMPDEST POP PUSH1 0x40 MLOAD DUP1 PUSH1 0x40 ADD PUSH1 0x40 MSTORE DUP1 PUSH1 0xB DUP2 MSTORE PUSH1 0x20 ADD PUSH32 0x446F6E75742042756E6E79000000000000000000000000000000000000000000 DUP2 MSTORE POP PUSH1 0x40 MLOAD DUP1 PUSH1 0x40 ADD PUSH1 0x40 MSTORE DUP1 PUSH1 0xA DUP2 MSTORE PUSH1 0x20 ADD PUSH32 0x444F4E555442554E4E5900000000000000000000000000000000000000000000 DUP2 MSTORE POP DUP2 PUSH1 0x0 SWAP1 DUP1 MLOAD SWAP1 PUSH1 0x20 ADD SWAP1 PUSH3 0x22A SWAP3 SWAP2 SWAP1 PUSH3 0x33A JUMP JUMPDEST POP DUP1 PUSH1 0x1 SWAP1 DUP1 MLOAD SWAP1 PUSH1 0x20 ADD SWAP1 PUSH3 0x243 SWAP3 SWAP2 SWAP1 PUSH3 0x33A JUMP JUMPDEST POP POP POP PUSH3 0x266 PUSH3 0x25A PUSH3 0x26C PUSH1 0x20 SHL PUSH1 0x20 SHR JUMP JUMPDEST PUSH3 0x274 PUSH1 0x20 SHL PUSH1 0x20 SHR JUMP JUMPDEST PUSH3 0x44F JUMP JUMPDEST PUSH1 0x0 CALLER SWAP1 POP SWAP1 JUMP JUMPDEST PUSH1 0x0 PUSH1 0xB PUSH1 0x0 SWAP1 SLOAD SWAP1 PUSH2 0x100 EXP SWAP1 DIV PUSH20 0xFFFFFFFFFFFFFFFFFFFFFFFFFFFFFFFFFFFFFFFF AND SWAP1 POP DUP2 PUSH1 0xB PUSH1 0x0 PUSH2 0x100 EXP DUP2 SLOAD DUP2 PUSH20 0xFFFFFFFFFFFFFFFFFFFFFFFFFFFFFFFFFFFFFFFF MUL NOT AND SWAP1 DUP4 PUSH20 0xFFFFFFFFFFFFFFFFFFFFFFFFFFFFFFFFFFFFFFFF AND MUL OR SWAP1 SSTORE POP DUP2 PUSH20 0xFFFFFFFFFFFFFFFFFFFFFFFFFFFFFFFFFFFFFFFF AND DUP2 PUSH20 0xFFFFFFFFFFFFFFFFFFFFFFFFFFFFFFFFFFFFFFFF AND PUSH32 0x8BE0079C531659141344CD1FD0A4F28419497F9722A3DAAFE3B4186F6B6457E0 PUSH1 0x40 MLOAD PUSH1 0x40 MLOAD DUP1 SWAP2 SUB SWAP1 LOG3 POP POP JUMP JUMPDEST DUP3 DUP1 SLOAD PUSH3 0x348 SWAP1 PUSH3 0x3EA JUMP JUMPDEST SWAP1 PUSH1 0x0 MSTORE PUSH1 0x20 PUSH1 0x0 KECCAK256 SWAP1 PUSH1 0x1F ADD PUSH1 0x20 SWAP1 DIV DUP2 ADD SWAP3 DUP3 PUSH3 0x36C JUMPI PUSH1 0x0 DUP6 SSTORE PUSH3 0x3B8 JUMP JUMPDEST DUP3 PUSH1 0x1F LT PUSH3 0x387 JUMPI DUP1 MLOAD PUSH1 0xFF NOT AND DUP4 DUP1 ADD OR DUP6 SSTORE PUSH3 0x3B8 JUMP JUMPDEST DUP3 DUP1 ADD PUSH1 0x1 ADD DUP6 SSTORE DUP3 ISZERO PUSH3 0x3B8 JUMPI SWAP2 DUP3 ADD JUMPDEST DUP3 DUP2 GT ISZERO PUSH3 0x3B7 JUMPI DUP3 MLOAD DUP3 SSTORE SWAP2 PUSH1 0x20 ADD SWAP2 SWAP1 PUSH1 0x1 ADD SWAP1 PUSH3 0x39A JUMP JUMPDEST JUMPDEST POP SWAP1 POP PUSH3 0x3C7 SWAP2 SWAP1 PUSH3 0x3CB JUMP JUMPDEST POP SWAP1 JUMP JUMPDEST JUMPDEST DUP1 DUP3 GT ISZERO PUSH3 0x3E6 JUMPI PUSH1 0x0 DUP2 PUSH1 0x0 SWAP1 SSTORE POP PUSH1 0x1 ADD PUSH3 0x3CC JUMP JUMPDEST POP SWAP1 JUMP JUMPDEST PUSH1 0x0 PUSH1 0x2 DUP3 DIV SWAP1 POP PUSH1 0x1 DUP3 AND DUP1 PUSH3 0x403 JUMPI PUSH1 0x7F DUP3 AND SWAP2 POP JUMPDEST PUSH1 0x20 DUP3 LT DUP2 EQ ISZERO PUSH3 0x41A JUMPI PUSH3 0x419 PUSH3 0x420 JUMP JUMPDEST JUMPDEST POP SWAP2 SWAP1 POP JUMP JUMPDEST PUSH32 0x4E487B7100000000000000000000000000000000000000000000000000000000 PUSH1 0x0 MSTORE PUSH1 0x22 PUSH1 0x4 MSTORE PUSH1 0x24 PUSH1 0x0 REVERT JUMPDEST PUSH1 0x80 MLOAD PUSH1 0x60 SHR PUSH1 0xA0 MLOAD PUSH1 0x60 SHR PUSH1 0xC0 MLOAD PUSH1 0x60 SHR PUSH2 0x5BA9 PUSH3 0x496 PUSH1 0x0 CODECOPY PUSH1 0x0 PUSH2 0x7A6 ADD MSTORE PUSH1 0x0 DUP2 DUP2 PUSH2 0xF66 ADD MSTORE PUSH2 0x11BA ADD MSTORE PUSH1 0x0 DUP2 DUP2 PUSH2 0x865 ADD MSTORE PUSH2 0x15AA ADD MSTORE PUSH2 0x5BA9 PUSH1 0x0 RETURN INVALID PUSH1 0x80 PUSH1 0x40 MSTORE CALLVALUE DUP1 ISZERO PUSH2 0x10 JUMPI PUSH1 0x0 DUP1 REVERT JUMPDEST POP PUSH1 0x4 CALLDATASIZE LT PUSH2 0x18E JUMPI PUSH1 0x0 CALLDATALOAD PUSH1 0xE0 SHR DUP1 PUSH4 0x7F1921EF GT PUSH2 0xDE JUMPI DUP1 PUSH4 0xBD9975EE GT PUSH2 0x97 JUMPI DUP1 PUSH4 0xE8A3D485 GT PUSH2 0x71 JUMPI DUP1 PUSH4 0xE8A3D485 EQ PUSH2 0x47F JUMPI DUP1 PUSH4 0xE985E9C5 EQ PUSH2 0x49D JUMPI DUP1 PUSH4 0xF0BC7CD3 EQ PUSH2 0x4CD JUMPI DUP1 PUSH4 0xF2FDE38B EQ PUSH2 0x4E9 JUMPI PUSH2 0x18E JUMP JUMPDEST DUP1 PUSH4 0xBD9975EE EQ PUSH2 0x417 JUMPI DUP1 PUSH4 0xC87B56DD EQ PUSH2 0x433 JUMPI DUP1 PUSH4 0xD7F677C3 EQ PUSH2 0x463 JUMPI PUSH2 0x18E JUMP JUMPDEST DUP1 PUSH4 0x7F1921EF EQ PUSH2 0x357 JUMPI DUP1 PUSH4 0x8DA5CB5B EQ PUSH2 0x373 JUMPI DUP1 PUSH4 0x95D89B41 EQ PUSH2 0x391 JUMPI DUP1 PUSH4 0x9BAC5F7A EQ PUSH2 0x3AF JUMPI DUP1 PUSH4 0xA22CB465 EQ PUSH2 0x3DF JUMPI DUP1 PUSH4 0xB88D4FDE EQ PUSH2 0x3FB JUMPI PUSH2 0x18E JUMP JUMPDEST DUP1 PUSH4 0x23B872DD GT PUSH2 0x14B JUMPI DUP1 PUSH4 0x4F6CCCE7 GT PUSH2 0x125 JUMPI DUP1 PUSH4 0x4F6CCCE7 EQ PUSH2 0x2BD JUMPI DUP1 PUSH4 0x6352211E EQ PUSH2 0x2ED JUMPI DUP1 PUSH4 0x70A08231 EQ PUSH2 0x31D JUMPI DUP1 PUSH4 0x715018A6 EQ PUSH2 0x34D JUMPI PUSH2 0x18E JUMP JUMPDEST DUP1 PUSH4 0x23B872DD EQ PUSH2 0x255 JUMPI DUP1 PUSH4 0x2F745C59 EQ PUSH2 0x271 JUMPI DUP1 PUSH4 0x42842E0E EQ PUSH2 0x2A1 JUMPI PUSH2 0x18E JUMP JUMPDEST DUP1 PUSH4 0x1FFC9A7 EQ PUSH2 0x193 JUMPI DUP1 PUSH4 0x6FDDE03 EQ PUSH2 0x1C3 JUMPI DUP1 PUSH4 0x81812FC EQ PUSH2 0x1E1 JUMPI DUP1 PUSH4 0x95EA7B3 EQ PUSH2 0x211 JUMPI DUP1 PUSH4 0x1249C58B EQ PUSH2 0x22D JUMPI DUP1 PUSH4 0x18160DDD EQ PUSH2 0x237 JUMPI JUMPDEST PUSH1 0x0 DUP1 REVERT JUMPDEST PUSH2 0x1AD PUSH1 0x4 DUP1 CALLDATASIZE SUB DUP2 ADD SWAP1 PUSH2 0x1A8 SWAP2 SWAP1 PUSH2 0x32FB JUMP JUMPDEST PUSH2 0x505 JUMP JUMPDEST PUSH1 0x40 MLOAD PUSH2 0x1BA SWAP2 SWAP1 PUSH2 0x3F22 JUMP JUMPDEST PUSH1 0x40 MLOAD DUP1 SWAP2 SUB SWAP1 RETURN JUMPDEST PUSH2 0x1CB PUSH2 0x517 JUMP JUMPDEST PUSH1 0x40 MLOAD PUSH2 0x1D8 SWAP2 SWAP1 PUSH2 0x3F3D JUMP JUMPDEST PUSH1 0x40 MLOAD DUP1 SWAP2 SUB SWAP1 RETURN JUMPDEST PUSH2 0x1FB PUSH1 0x4 DUP1 CALLDATASIZE SUB DUP2 ADD SWAP1 PUSH2 0x1F6 SWAP2 SWAP1 PUSH2 0x3473 JUMP JUMPDEST PUSH2 0x5A9 JUMP JUMPDEST PUSH1 0x40 MLOAD PUSH2 0x208 SWAP2 SWAP1 PUSH2 0x3E36 JUMP JUMPDEST PUSH1 0x40 MLOAD DUP1 SWAP2 SUB SWAP1 RETURN JUMPDEST PUSH2 0x22B PUSH1 0x4 DUP1 CALLDATASIZE SUB DUP2 ADD SWAP1 PUSH2 0x226 SWAP2 SWAP1 PUSH2 0x32BB JUMP JUMPDEST PUSH2 0x62E JUMP JUMPDEST STOP JUMPDEST PUSH2 0x235 PUSH2 0x746 JUMP JUMPDEST STOP JUMPDEST PUSH2 0x23F PUSH2 0xA41 JUMP JUMPDEST PUSH1 0x40 MLOAD PUSH2 0x24C SWAP2 SWAP1 PUSH2 0x41DF JUMP JUMPDEST PUSH1 0x40 MLOAD DUP1 SWAP2 SUB SWAP1 RETURN JUMPDEST PUSH2 0x26F PUSH1 0x4 DUP1 CALLDATASIZE SUB DUP2 ADD SWAP1 PUSH2 0x26A SWAP2 SWAP1 PUSH2 0x31A5 JUMP JUMPDEST PUSH2 0xA4E JUMP JUMPDEST STOP JUMPDEST PUSH2 0x28B PUSH1 0x4 DUP1 CALLDATASIZE SUB DUP2 ADD SWAP1 PUSH2 0x286 SWAP2 SWAP1 PUSH2 0x32BB JUMP JUMPDEST PUSH2 0xAAE JUMP JUMPDEST PUSH1 0x40 MLOAD PUSH2 0x298 SWAP2 SWAP1 PUSH2 0x41DF JUMP JUMPDEST PUSH1 0x40 MLOAD DUP1 SWAP2 SUB SWAP1 RETURN JUMPDEST PUSH2 0x2BB PUSH1 0x4 DUP1 CALLDATASIZE SUB DUP2 ADD SWAP1 PUSH2 0x2B6 SWAP2 SWAP1 PUSH2 0x31A5 JUMP JUMPDEST PUSH2 0xB53 JUMP JUMPDEST STOP JUMPDEST PUSH2 0x2D7 PUSH1 0x4 DUP1 CALLDATASIZE SUB DUP2 ADD SWAP1 PUSH2 0x2D2 SWAP2 SWAP1 PUSH2 0x3473 JUMP JUMPDEST PUSH2 0xB73 JUMP JUMPDEST PUSH1 0x40 MLOAD PUSH2 0x2E4 SWAP2 SWAP1 PUSH2 0x41DF JUMP JUMPDEST PUSH1 0x40 MLOAD DUP1 SWAP2 SUB SWAP1 RETURN JUMPDEST PUSH2 0x307 PUSH1 0x4 DUP1 CALLDATASIZE SUB DUP2 ADD SWAP1 PUSH2 0x302 SWAP2 SWAP1 PUSH2 0x3473 JUMP JUMPDEST PUSH2 0xBE4 JUMP JUMPDEST PUSH1 0x40 MLOAD PUSH2 0x314 SWAP2 SWAP1 PUSH2 0x3E36 JUMP JUMPDEST PUSH1 0x40 MLOAD DUP1 SWAP2 SUB SWAP1 RETURN JUMPDEST PUSH2 0x337 PUSH1 0x4 DUP1 CALLDATASIZE SUB DUP2 ADD SWAP1 PUSH2 0x332 SWAP2 SWAP1 PUSH2 0x3138 JUMP JUMPDEST PUSH2 0xC96 JUMP JUMPDEST PUSH1 0x40 MLOAD PUSH2 0x344 SWAP2 SWAP1 PUSH2 0x41DF JUMP JUMPDEST PUSH1 0x40 MLOAD DUP1 SWAP2 SUB SWAP1 RETURN JUMPDEST PUSH2 0x355 PUSH2 0xD4E JUMP JUMPDEST STOP JUMPDEST PUSH2 0x371 PUSH1 0x4 DUP1 CALLDATASIZE SUB DUP2 ADD SWAP1 PUSH2 0x36C SWAP2 SWAP1 PUSH2 0x3473 JUMP JUMPDEST PUSH2 0xDD6 JUMP JUMPDEST STOP JUMPDEST PUSH2 0x37B PUSH2 0xE5C JUMP JUMPDEST PUSH1 0x40 MLOAD PUSH2 0x388 SWAP2 SWAP1 PUSH2 0x3E36 JUMP JUMPDEST PUSH1 0x40 MLOAD DUP1 SWAP2 SUB SWAP1 RETURN JUMPDEST PUSH2 0x399 PUSH2 0xE86 JUMP JUMPDEST PUSH1 0x40 MLOAD PUSH2 0x3A6 SWAP2 SWAP1 PUSH2 0x3F3D JUMP JUMPDEST PUSH1 0x40 MLOAD DUP1 SWAP2 SUB SWAP1 RETURN JUMPDEST PUSH2 0x3C9 PUSH1 0x4 DUP1 CALLDATASIZE SUB DUP2 ADD SWAP1 PUSH2 0x3C4 SWAP2 SWAP1 PUSH2 0x3473 JUMP JUMPDEST PUSH2 0xF18 JUMP JUMPDEST PUSH1 0x40 MLOAD PUSH2 0x3D6 SWAP2 SWAP1 PUSH2 0x3F3D JUMP JUMPDEST PUSH1 0x40 MLOAD DUP1 SWAP2 SUB SWAP1 RETURN JUMPDEST PUSH2 0x3F9 PUSH1 0x4 DUP1 CALLDATASIZE SUB DUP2 ADD SWAP1 PUSH2 0x3F4 SWAP2 SWAP1 PUSH2 0x327B JUMP JUMPDEST PUSH2 0x105E JUMP JUMPDEST STOP JUMPDEST PUSH2 0x415 PUSH1 0x4 DUP1 CALLDATASIZE SUB DUP2 ADD SWAP1 PUSH2 0x410 SWAP2 SWAP1 PUSH2 0x31F8 JUMP JUMPDEST PUSH2 0x1074 JUMP JUMPDEST STOP JUMPDEST PUSH2 0x431 PUSH1 0x4 DUP1 CALLDATASIZE SUB DUP2 ADD SWAP1 PUSH2 0x42C SWAP2 SWAP1 PUSH2 0x3355 JUMP JUMPDEST PUSH2 0x10D6 JUMP JUMPDEST STOP JUMPDEST PUSH2 0x44D PUSH1 0x4 DUP1 CALLDATASIZE SUB DUP2 ADD SWAP1 PUSH2 0x448 SWAP2 SWAP1 PUSH2 0x3473 JUMP JUMPDEST PUSH2 0x116C JUMP JUMPDEST PUSH1 0x40 MLOAD PUSH2 0x45A SWAP2 SWAP1 PUSH2 0x3F3D JUMP JUMPDEST PUSH1 0x40 MLOAD DUP1 SWAP2 SUB SWAP1 RETURN JUMPDEST PUSH2 0x47D PUSH1 0x4 DUP1 CALLDATASIZE SUB DUP2 ADD SWAP1 PUSH2 0x478 SWAP2 SWAP1 PUSH2 0x34CD JUMP JUMPDEST PUSH2 0x13BD JUMP JUMPDEST STOP JUMPDEST PUSH2 0x487 PUSH2 0x16E3 JUMP JUMPDEST PUSH1 0x40 MLOAD PUSH2 0x494 SWAP2 SWAP1 PUSH2 0x3F3D JUMP JUMPDEST PUSH1 0x40 MLOAD DUP1 SWAP2 SUB SWAP1 RETURN JUMPDEST PUSH2 0x4B7 PUSH1 0x4 DUP1 CALLDATASIZE SUB DUP2 ADD SWAP1 PUSH2 0x4B2 SWAP2 SWAP1 PUSH2 0x3165 JUMP JUMPDEST PUSH2 0x177E JUMP JUMPDEST PUSH1 0x40 MLOAD PUSH2 0x4C4 SWAP2 SWAP1 PUSH2 0x3F22 JUMP JUMPDEST PUSH1 0x40 MLOAD DUP1 SWAP2 SUB SWAP1 RETURN JUMPDEST PUSH2 0x4E7 PUSH1 0x4 DUP1 CALLDATASIZE SUB DUP2 ADD SWAP1 PUSH2 0x4E2 SWAP2 SWAP1 PUSH2 0x3138 JUMP JUMPDEST PUSH2 0x1812 JUMP JUMPDEST STOP JUMPDEST PUSH2 0x503 PUSH1 0x4 DUP1 CALLDATASIZE SUB DUP2 ADD SWAP1 PUSH2 0x4FE SWAP2 SWAP1 PUSH2 0x3138 JUMP JUMPDEST PUSH2 0x18D2 JUMP JUMPDEST STOP JUMPDEST PUSH1 0x0 PUSH2 0x510 DUP3 PUSH2 0x19CA JUMP JUMPDEST SWAP1 POP SWAP2 SWAP1 POP JUMP JUMPDEST PUSH1 0x60 PUSH1 0x0 DUP1 SLOAD PUSH2 0x526 SWAP1 PUSH2 0x4554 JUMP JUMPDEST DUP1 PUSH1 0x1F ADD PUSH1 0x20 DUP1 SWAP2 DIV MUL PUSH1 0x20 ADD PUSH1 0x40 MLOAD SWAP1 DUP2 ADD PUSH1 0x40 MSTORE DUP1 SWAP3 SWAP2 SWAP1 DUP2 DUP2 MSTORE PUSH1 0x20 ADD DUP3 DUP1 SLOAD PUSH2 0x552 SWAP1 PUSH2 0x4554 JUMP JUMPDEST DUP1 ISZERO PUSH2 0x59F JUMPI DUP1 PUSH1 0x1F LT PUSH2 0x574 JUMPI PUSH2 0x100 DUP1 DUP4 SLOAD DIV MUL DUP4 MSTORE SWAP2 PUSH1 0x20 ADD SWAP2 PUSH2 0x59F JUMP JUMPDEST DUP3 ADD SWAP2 SWAP1 PUSH1 0x0 MSTORE PUSH1 0x20 PUSH1 0x0 KECCAK256 SWAP1 JUMPDEST DUP2 SLOAD DUP2 MSTORE SWAP1 PUSH1 0x1 ADD SWAP1 PUSH1 0x20 ADD DUP1 DUP4 GT PUSH2 0x582 JUMPI DUP3 SWAP1 SUB PUSH1 0x1F AND DUP3 ADD SWAP2 JUMPDEST POP POP POP POP POP SWAP1 POP SWAP1 JUMP JUMPDEST PUSH1 0x0 PUSH2 0x5B4 DUP3 PUSH2 0x1A44 JUMP JUMPDEST PUSH2 0x5F3 JUMPI PUSH1 0x40 MLOAD PUSH32 0x8C379A000000000000000000000000000000000000000000000000000000000 DUP2 MSTORE PUSH1 0x4 ADD PUSH2 0x5EA SWAP1 PUSH2 0x411F JUMP JUMPDEST PUSH1 0x40 MLOAD DUP1 SWAP2 SUB SWAP1 REVERT JUMPDEST PUSH1 0x4 PUSH1 0x0 DUP4 DUP2 MSTORE PUSH1 0x20 ADD SWAP1 DUP2 MSTORE PUSH1 0x20 ADD PUSH1 0x0 KECCAK256 PUSH1 0x0 SWAP1 SLOAD SWAP1 PUSH2 0x100 EXP SWAP1 DIV PUSH20 0xFFFFFFFFFFFFFFFFFFFFFFFFFFFFFFFFFFFFFFFF AND SWAP1 POP SWAP2 SWAP1 POP JUMP JUMPDEST PUSH1 0x0 PUSH2 0x639 DUP3 PUSH2 0xBE4 JUMP JUMPDEST SWAP1 POP DUP1 PUSH20 0xFFFFFFFFFFFFFFFFFFFFFFFFFFFFFFFFFFFFFFFF AND DUP4 PUSH20 0xFFFFFFFFFFFFFFFFFFFFFFFFFFFFFFFFFFFFFFFF AND EQ ISZERO PUSH2 0x6AA JUMPI PUSH1 0x40 MLOAD PUSH32 0x8C379A000000000000000000000000000000000000000000000000000000000 DUP2 MSTORE PUSH1 0x4 ADD PUSH2 0x6A1 SWAP1 PUSH2 0x417F JUMP JUMPDEST PUSH1 0x40 MLOAD DUP1 SWAP2 SUB SWAP1 REVERT JUMPDEST DUP1 PUSH20 0xFFFFFFFFFFFFFFFFFFFFFFFFFFFFFFFFFFFFFFFF AND PUSH2 0x6C9 PUSH2 0x1AB0 JUMP JUMPDEST PUSH20 0xFFFFFFFFFFFFFFFFFFFFFFFFFFFFFFFFFFFFFFFF AND EQ DUP1 PUSH2 0x6F8 JUMPI POP PUSH2 0x6F7 DUP2 PUSH2 0x6F2 PUSH2 0x1AB0 JUMP JUMPDEST PUSH2 0x177E JUMP JUMPDEST JUMPDEST PUSH2 0x737 JUMPI PUSH1 0x40 MLOAD PUSH32 0x8C379A000000000000000000000000000000000000000000000000000000000 DUP2 MSTORE PUSH1 0x4 ADD PUSH2 0x72E SWAP1 PUSH2 0x407F JUMP JUMPDEST PUSH1 0x40 MLOAD DUP1 SWAP2 SUB SWAP1 REVERT JUMPDEST PUSH2 0x741 DUP4 DUP4 PUSH2 0x1AB8 JUMP JUMPDEST POP POP POP JUMP JUMPDEST PUSH1 0x0 PUSH2 0x750 PUSH2 0xA41 JUMP JUMPDEST SWAP1 POP PUSH1 0x11 SLOAD DUP2 GT ISZERO PUSH2 0x797 JUMPI PUSH1 0x40 MLOAD PUSH32 0x8C379A000000000000000000000000000000000000000000000000000000000 DUP2 MSTORE PUSH1 0x4 ADD PUSH2 0x78E SWAP1 PUSH2 0x3F5F JUMP JUMPDEST PUSH1 0x40 MLOAD DUP1 SWAP2 SUB SWAP1 REVERT JUMPDEST PUSH1 0x60 DUP1 PUSH2 0x7A2 PUSH2 0x2D1E JUMP JUMPDEST PUSH1 0x0 PUSH32 0x0 SWAP1 POP PUSH1 0x0 DUP2 PUSH20 0xFFFFFFFFFFFFFFFFFFFFFFFFFFFFFFFFFFFFFFFF AND PUSH4 0x3456E3EB PUSH2 0x7ED PUSH2 0x1AB0 JUMP JUMPDEST PUSH1 0x12 SLOAD PUSH1 0x40 MLOAD DUP4 PUSH4 0xFFFFFFFF AND PUSH1 0xE0 SHL DUP2 MSTORE PUSH1 0x4 ADD PUSH2 0x80D SWAP3 SWAP2 SWAP1 PUSH2 0x3E9D JUMP JUMPDEST PUSH1 0x20 PUSH1 0x40 MLOAD DUP1 DUP4 SUB DUP2 PUSH1 0x0 DUP8 DUP1 EXTCODESIZE ISZERO DUP1 ISZERO PUSH2 0x827 JUMPI PUSH1 0x0 DUP1 REVERT JUMPDEST POP GAS CALL ISZERO DUP1 ISZERO PUSH2 0x83B JUMPI RETURNDATASIZE PUSH1 0x0 DUP1 RETURNDATACOPY RETURNDATASIZE PUSH1 0x0 REVERT JUMPDEST POP POP POP POP PUSH1 0x40 MLOAD RETURNDATASIZE PUSH1 0x1F NOT PUSH1 0x1F DUP3 ADD AND DUP3 ADD DUP1 PUSH1 0x40 MSTORE POP DUP2 ADD SWAP1 PUSH2 0x85F SWAP2 SWAP1 PUSH2 0x34A0 JUMP JUMPDEST SWAP1 POP PUSH1 0x0 PUSH32 0x0 SWAP1 POP PUSH1 0x0 JUMPDEST DUP1 PUSH2 0x9A1 JUMPI DUP2 PUSH20 0xFFFFFFFFFFFFFFFFFFFFFFFFFFFFFFFFFFFFFFFF AND PUSH4 0xCC1A90AD DUP5 PUSH1 0x40 MLOAD DUP3 PUSH4 0xFFFFFFFF AND PUSH1 0xE0 SHL DUP2 MSTORE PUSH1 0x4 ADD PUSH2 0x8C7 SWAP2 SWAP1 PUSH2 0x41DF JUMP JUMPDEST PUSH1 0x0 PUSH1 0x40 MLOAD DUP1 DUP4 SUB DUP2 DUP7 DUP1 EXTCODESIZE ISZERO DUP1 ISZERO PUSH2 0x8DF JUMPI PUSH1 0x0 DUP1 REVERT JUMPDEST POP GAS STATICCALL ISZERO DUP1 ISZERO PUSH2 0x8F3 JUMPI RETURNDATASIZE PUSH1 0x0 DUP1 RETURNDATACOPY RETURNDATASIZE PUSH1 0x0 REVERT JUMPDEST POP POP POP POP PUSH1 0x40 MLOAD RETURNDATASIZE PUSH1 0x0 DUP3 RETURNDATACOPY RETURNDATASIZE PUSH1 0x1F NOT PUSH1 0x1F DUP3 ADD AND DUP3 ADD DUP1 PUSH1 0x40 MSTORE POP DUP2 ADD SWAP1 PUSH2 0x91C SWAP2 SWAP1 PUSH2 0x33E7 JUMP JUMPDEST DUP1 SWAP8 POP DUP2 SWAP9 POP DUP3 SWAP10 POP POP POP POP PUSH1 0x0 ISZERO ISZERO PUSH1 0xC DUP8 PUSH1 0x40 MLOAD PUSH2 0x93C SWAP2 SWAP1 PUSH2 0x3C5E JUMP JUMPDEST SWAP1 DUP2 MSTORE PUSH1 0x20 ADD PUSH1 0x40 MLOAD DUP1 SWAP2 SUB SWAP1 KECCAK256 PUSH1 0x0 SWAP1 SLOAD SWAP1 PUSH2 0x100 EXP SWAP1 DIV PUSH1 0xFF AND ISZERO ISZERO EQ ISZERO PUSH2 0x99C JUMPI PUSH1 0x1 SWAP1 POP PUSH1 0x1 PUSH1 0xC DUP8 PUSH1 0x40 MLOAD PUSH2 0x976 SWAP2 SWAP1 PUSH2 0x3C5E JUMP JUMPDEST SWAP1 DUP2 MSTORE PUSH1 0x20 ADD PUSH1 0x40 MLOAD DUP1 SWAP2 SUB SWAP1 KECCAK256 PUSH1 0x0 PUSH2 0x100 EXP DUP2 SLOAD DUP2 PUSH1 0xFF MUL NOT AND SWAP1 DUP4 ISZERO ISZERO MUL OR SWAP1 SSTORE POP JUMPDEST PUSH2 0x889 JUMP JUMPDEST PUSH1 0x0 PUSH1 0x1 DUP10 PUSH2 0x9B0 SWAP2 SWAP1 PUSH2 0x437F JUMP JUMPDEST SWAP1 POP DUP7 PUSH1 0xE PUSH1 0x0 DUP4 DUP2 MSTORE PUSH1 0x20 ADD SWAP1 DUP2 MSTORE PUSH1 0x20 ADD PUSH1 0x0 KECCAK256 SWAP1 DUP1 MLOAD SWAP1 PUSH1 0x20 ADD SWAP1 PUSH2 0x9D9 SWAP3 SWAP2 SWAP1 PUSH2 0x2D41 JUMP JUMPDEST POP DUP6 PUSH1 0xD PUSH1 0x0 DUP4 DUP2 MSTORE PUSH1 0x20 ADD SWAP1 DUP2 MSTORE PUSH1 0x20 ADD PUSH1 0x0 KECCAK256 SWAP1 PUSH1 0xA PUSH2 0x9FC SWAP3 SWAP2 SWAP1 PUSH2 0x2DC7 JUMP JUMPDEST POP DUP8 PUSH1 0xF PUSH1 0x0 DUP4 DUP2 MSTORE PUSH1 0x20 ADD SWAP1 DUP2 MSTORE PUSH1 0x20 ADD PUSH1 0x0 KECCAK256 SWAP1 DUP1 MLOAD SWAP1 PUSH1 0x20 ADD SWAP1 PUSH2 0xA24 SWAP3 SWAP2 SWAP1 PUSH2 0x2D41 JUMP JUMPDEST POP PUSH2 0xA36 PUSH2 0xA30 PUSH2 0x1AB0 JUMP JUMPDEST DUP3 PUSH2 0x1B71 JUMP JUMPDEST POP POP POP POP POP POP POP POP POP JUMP JUMPDEST PUSH1 0x0 PUSH1 0x9 DUP1 SLOAD SWAP1 POP SWAP1 POP SWAP1 JUMP JUMPDEST PUSH2 0xA5F PUSH2 0xA59 PUSH2 0x1AB0 JUMP JUMPDEST DUP3 PUSH2 0x1D4B JUMP JUMPDEST PUSH2 0xA9E JUMPI PUSH1 0x40 MLOAD PUSH32 0x8C379A000000000000000000000000000000000000000000000000000000000 DUP2 MSTORE PUSH1 0x4 ADD PUSH2 0xA95 SWAP1 PUSH2 0x419F JUMP JUMPDEST PUSH1 0x40 MLOAD DUP1 SWAP2 SUB SWAP1 REVERT JUMPDEST PUSH2 0xAA9 DUP4 DUP4 DUP4 PUSH2 0x1E29 JUMP JUMPDEST POP POP POP JUMP JUMPDEST PUSH1 0x0 PUSH2 0xAB9 DUP4 PUSH2 0xC96 JUMP JUMPDEST DUP3 LT PUSH2 0xAFA JUMPI PUSH1 0x40 MLOAD PUSH32 0x8C379A000000000000000000000000000000000000000000000000000000000 DUP2 MSTORE PUSH1 0x4 ADD PUSH2 0xAF1 SWAP1 PUSH2 0x3F7F JUMP JUMPDEST PUSH1 0x40 MLOAD DUP1 SWAP2 SUB SWAP1 REVERT JUMPDEST PUSH1 0x7 PUSH1 0x0 DUP5 PUSH20 0xFFFFFFFFFFFFFFFFFFFFFFFFFFFFFFFFFFFFFFFF AND PUSH20 0xFFFFFFFFFFFFFFFFFFFFFFFFFFFFFFFFFFFFFFFF AND DUP2 MSTORE PUSH1 0x20 ADD SWAP1 DUP2 MSTORE PUSH1 0x20 ADD PUSH1 0x0 KECCAK256 PUSH1 0x0 DUP4 DUP2 MSTORE PUSH1 0x20 ADD SWAP1 DUP2 MSTORE PUSH1 0x20 ADD PUSH1 0x0 KECCAK256 SLOAD SWAP1 POP SWAP3 SWAP2 POP POP JUMP JUMPDEST PUSH2 0xB6E DUP4 DUP4 DUP4 PUSH1 0x40 MLOAD DUP1 PUSH1 0x20 ADD PUSH1 0x40 MSTORE DUP1 PUSH1 0x0 DUP2 MSTORE POP PUSH2 0x1074 JUMP JUMPDEST POP POP POP JUMP JUMPDEST PUSH1 0x0 PUSH2 0xB7D PUSH2 0xA41 JUMP JUMPDEST DUP3 LT PUSH2 0xBBE JUMPI PUSH1 0x40 MLOAD PUSH32 0x8C379A000000000000000000000000000000000000000000000000000000000 DUP2 MSTORE PUSH1 0x4 ADD PUSH2 0xBB5 SWAP1 PUSH2 0x41BF JUMP JUMPDEST PUSH1 0x40 MLOAD DUP1 SWAP2 SUB SWAP1 REVERT JUMPDEST PUSH1 0x9 DUP3 DUP2 SLOAD DUP2 LT PUSH2 0xBD2 JUMPI PUSH2 0xBD1 PUSH2 0x472B JUMP JUMPDEST JUMPDEST SWAP1 PUSH1 0x0 MSTORE PUSH1 0x20 PUSH1 0x0 KECCAK256 ADD SLOAD SWAP1 POP SWAP2 SWAP1 POP JUMP JUMPDEST PUSH1 0x0 DUP1 PUSH1 0x2 PUSH1 0x0 DUP5 DUP2 MSTORE PUSH1 0x20 ADD SWAP1 DUP2 MSTORE PUSH1 0x20 ADD PUSH1 0x0 KECCAK256 PUSH1 0x0 SWAP1 SLOAD SWAP1 PUSH2 0x100 EXP SWAP1 DIV PUSH20 0xFFFFFFFFFFFFFFFFFFFFFFFFFFFFFFFFFFFFFFFF AND SWAP1 POP PUSH1 0x0 PUSH20 0xFFFFFFFFFFFFFFFFFFFFFFFFFFFFFFFFFFFFFFFF AND DUP2 PUSH20 0xFFFFFFFFFFFFFFFFFFFFFFFFFFFFFFFFFFFFFFFF AND EQ ISZERO PUSH2 0xC8D JUMPI PUSH1 0x40 MLOAD PUSH32 0x8C379A000000000000000000000000000000000000000000000000000000000 DUP2 MSTORE PUSH1 0x4 ADD PUSH2 0xC84 SWAP1 PUSH2 0x40BF JUMP JUMPDEST PUSH1 0x40 MLOAD DUP1 SWAP2 SUB SWAP1 REVERT JUMPDEST DUP1 SWAP2 POP POP SWAP2 SWAP1 POP JUMP JUMPDEST PUSH1 0x0 DUP1 PUSH20 0xFFFFFFFFFFFFFFFFFFFFFFFFFFFFFFFFFFFFFFFF AND DUP3 PUSH20 0xFFFFFFFFFFFFFFFFFFFFFFFFFFFFFFFFFFFFFFFF AND EQ ISZERO PUSH2 0xD07 JUMPI PUSH1 0x40 MLOAD PUSH32 0x8C379A000000000000000000000000000000000000000000000000000000000 DUP2 MSTORE PUSH1 0x4 ADD PUSH2 0xCFE SWAP1 PUSH2 0x409F JUMP JUMPDEST PUSH1 0x40 MLOAD DUP1 SWAP2 SUB SWAP1 REVERT JUMPDEST PUSH1 0x3 PUSH1 0x0 DUP4 PUSH20 0xFFFFFFFFFFFFFFFFFFFFFFFFFFFFFFFFFFFFFFFF AND PUSH20 0xFFFFFFFFFFFFFFFFFFFFFFFFFFFFFFFFFFFFFFFF AND DUP2 MSTORE PUSH1 0x20 ADD SWAP1 DUP2 MSTORE PUSH1 0x20 ADD PUSH1 0x0 KECCAK256 SLOAD SWAP1 POP SWAP2 SWAP1 POP JUMP JUMPDEST PUSH2 0xD56 PUSH2 0x1AB0 JUMP JUMPDEST PUSH20 0xFFFFFFFFFFFFFFFFFFFFFFFFFFFFFFFFFFFFFFFF AND PUSH2 0xD74 PUSH2 0xE5C JUMP JUMPDEST PUSH20 0xFFFFFFFFFFFFFFFFFFFFFFFFFFFFFFFFFFFFFFFF AND EQ PUSH2 0xDCA JUMPI PUSH1 0x40 MLOAD PUSH32 0x8C379A000000000000000000000000000000000000000000000000000000000 DUP2 MSTORE PUSH1 0x4 ADD PUSH2 0xDC1 SWAP1 PUSH2 0x413F JUMP JUMPDEST PUSH1 0x40 MLOAD DUP1 SWAP2 SUB SWAP1 REVERT JUMPDEST PUSH2 0xDD4 PUSH1 0x0 PUSH2 0x2090 JUMP JUMPDEST JUMP JUMPDEST PUSH2 0xDDE PUSH2 0x1AB0 JUMP JUMPDEST PUSH20 0xFFFFFFFFFFFFFFFFFFFFFFFFFFFFFFFFFFFFFFFF AND PUSH2 0xDFC PUSH2 0xE5C JUMP JUMPDEST PUSH20 0xFFFFFFFFFFFFFFFFFFFFFFFFFFFFFFFFFFFFFFFF AND EQ PUSH2 0xE52 JUMPI PUSH1 0x40 MLOAD PUSH32 0x8C379A000000000000000000000000000000000000000000000000000000000 DUP2 MSTORE PUSH1 0x4 ADD PUSH2 0xE49 SWAP1 PUSH2 0x413F JUMP JUMPDEST PUSH1 0x40 MLOAD DUP1 SWAP2 SUB SWAP1 REVERT JUMPDEST DUP1 PUSH1 0x12 DUP2 SWAP1 SSTORE POP POP JUMP JUMPDEST PUSH1 0x0 PUSH1 0xB PUSH1 0x0 SWAP1 SLOAD SWAP1 PUSH2 0x100 EXP SWAP1 DIV PUSH20 0xFFFFFFFFFFFFFFFFFFFFFFFFFFFFFFFFFFFFFFFF AND SWAP1 POP SWAP1 JUMP JUMPDEST PUSH1 0x60 PUSH1 0x1 DUP1 SLOAD PUSH2 0xE95 SWAP1 PUSH2 0x4554 JUMP JUMPDEST DUP1 PUSH1 0x1F ADD PUSH1 0x20 DUP1 SWAP2 DIV MUL PUSH1 0x20 ADD PUSH1 0x40 MLOAD SWAP1 DUP2 ADD PUSH1 0x40 MSTORE DUP1 SWAP3 SWAP2 SWAP1 DUP2 DUP2 MSTORE PUSH1 0x20 ADD DUP3 DUP1 SLOAD PUSH2 0xEC1 SWAP1 PUSH2 0x4554 JUMP JUMPDEST DUP1 ISZERO PUSH2 0xF0E JUMPI DUP1 PUSH1 0x1F LT PUSH2 0xEE3 JUMPI PUSH2 0x100 DUP1 DUP4 SLOAD DIV MUL DUP4 MSTORE SWAP2 PUSH1 0x20 ADD SWAP2 PUSH2 0xF0E JUMP JUMPDEST DUP3 ADD SWAP2 SWAP1 PUSH1 0x0 MSTORE PUSH1 0x20 PUSH1 0x0 KECCAK256 SWAP1 JUMPDEST DUP2 SLOAD DUP2 MSTORE SWAP1 PUSH1 0x1 ADD SWAP1 PUSH1 0x20 ADD DUP1 DUP4 GT PUSH2 0xEF1 JUMPI DUP3 SWAP1 SUB PUSH1 0x1F AND DUP3 ADD SWAP2 JUMPDEST POP POP POP POP POP SWAP1 POP SWAP1 JUMP JUMPDEST PUSH1 0x60 PUSH2 0xF23 DUP3 PUSH2 0x1A44 JUMP JUMPDEST PUSH2 0xF62 JUMPI PUSH1 0x40 MLOAD PUSH32 0x8C379A000000000000000000000000000000000000000000000000000000000 DUP2 MSTORE PUSH1 0x4 ADD PUSH2 0xF59 SWAP1 PUSH2 0x415F JUMP JUMPDEST PUSH1 0x40 MLOAD DUP1 SWAP2 SUB SWAP1 REVERT JUMPDEST PUSH1 0x0 PUSH32 0x0 SWAP1 POP PUSH1 0x0 PUSH2 0xF92 DUP5 PUSH2 0x2156 JUMP JUMPDEST PUSH1 0x40 MLOAD PUSH1 0x20 ADD PUSH2 0xFA2 SWAP2 SWAP1 PUSH2 0x3D17 JUMP JUMPDEST PUSH1 0x40 MLOAD PUSH1 0x20 DUP2 DUP4 SUB SUB DUP2 MSTORE SWAP1 PUSH1 0x40 MSTORE SWAP1 POP DUP2 PUSH20 0xFFFFFFFFFFFFFFFFFFFFFFFFFFFFFFFFFFFFFFFF AND PUSH4 0xEAF723DB PUSH1 0xD PUSH1 0x0 DUP8 DUP2 MSTORE PUSH1 0x20 ADD SWAP1 DUP2 MSTORE PUSH1 0x20 ADD PUSH1 0x0 KECCAK256 DUP4 PUSH1 0x40 MLOAD DUP4 PUSH4 0xFFFFFFFF AND PUSH1 0xE0 SHL DUP2 MSTORE PUSH1 0x4 ADD PUSH2 0x1000 SWAP3 SWAP2 SWAP1 PUSH2 0x3EC6 JUMP JUMPDEST PUSH1 0x0 PUSH1 0x40 MLOAD DUP1 DUP4 SUB DUP2 DUP7 DUP1 EXTCODESIZE ISZERO DUP1 ISZERO PUSH2 0x1018 JUMPI PUSH1 0x0 DUP1 REVERT JUMPDEST POP GAS STATICCALL ISZERO DUP1 ISZERO PUSH2 0x102C JUMPI RETURNDATASIZE PUSH1 0x0 DUP1 RETURNDATACOPY RETURNDATASIZE PUSH1 0x0 REVERT JUMPDEST POP POP POP POP PUSH1 0x40 MLOAD RETURNDATASIZE PUSH1 0x0 DUP3 RETURNDATACOPY RETURNDATASIZE PUSH1 0x1F NOT PUSH1 0x1F DUP3 ADD AND DUP3 ADD DUP1 PUSH1 0x40 MSTORE POP DUP2 ADD SWAP1 PUSH2 0x1055 SWAP2 SWAP1 PUSH2 0x339E JUMP JUMPDEST SWAP3 POP POP POP SWAP2 SWAP1 POP JUMP JUMPDEST PUSH2 0x1070 PUSH2 0x1069 PUSH2 0x1AB0 JUMP JUMPDEST DUP4 DUP4 PUSH2 0x22B7 JUMP JUMPDEST POP POP JUMP JUMPDEST PUSH2 0x1085 PUSH2 0x107F PUSH2 0x1AB0 JUMP JUMPDEST DUP4 PUSH2 0x1D4B JUMP JUMPDEST PUSH2 0x10C4 JUMPI PUSH1 0x40 MLOAD PUSH32 0x8C379A000000000000000000000000000000000000000000000000000000000 DUP2 MSTORE PUSH1 0x4 ADD PUSH2 0x10BB SWAP1 PUSH2 0x419F JUMP JUMPDEST PUSH1 0x40 MLOAD DUP1 SWAP2 SUB SWAP1 REVERT JUMPDEST PUSH2 0x10D0 DUP5 DUP5 DUP5 DUP5 PUSH2 0x2424 JUMP JUMPDEST POP POP POP POP JUMP JUMPDEST PUSH2 0x10DE PUSH2 0x1AB0 JUMP JUMPDEST PUSH20 0xFFFFFFFFFFFFFFFFFFFFFFFFFFFFFFFFFFFFFFFF AND PUSH2 0x10FC PUSH2 0xE5C JUMP JUMPDEST PUSH20 0xFFFFFFFFFFFFFFFFFFFFFFFFFFFFFFFFFFFFFFFF AND EQ PUSH2 0x1152 JUMPI PUSH1 0x40 MLOAD PUSH32 0x8C379A000000000000000000000000000000000000000000000000000000000 DUP2 MSTORE PUSH1 0x4 ADD PUSH2 0x1149 SWAP1 PUSH2 0x413F JUMP JUMPDEST PUSH1 0x40 MLOAD DUP1 SWAP2 SUB SWAP1 REVERT JUMPDEST DUP1 PUSH1 0x13 SWAP1 DUP1 MLOAD SWAP1 PUSH1 0x20 ADD SWAP1 PUSH2 0x1168 SWAP3 SWAP2 SWAP1 PUSH2 0x2D41 JUMP JUMPDEST POP POP JUMP JUMPDEST PUSH1 0x60 PUSH2 0x1177 DUP3 PUSH2 0x1A44 JUMP JUMPDEST PUSH2 0x11B6 JUMPI PUSH1 0x40 MLOAD PUSH32 0x8C379A000000000000000000000000000000000000000000000000000000000 DUP2 MSTORE PUSH1 0x4 ADD PUSH2 0x11AD SWAP1 PUSH2 0x415F JUMP JUMPDEST PUSH1 0x40 MLOAD DUP1 SWAP2 SUB SWAP1 REVERT JUMPDEST PUSH1 0x0 PUSH32 0x0 SWAP1 POP PUSH1 0x0 PUSH2 0x11E6 DUP5 PUSH2 0x2156 JUMP JUMPDEST PUSH1 0x40 MLOAD PUSH1 0x20 ADD PUSH2 0x11F6 SWAP2 SWAP1 PUSH2 0x3D17 JUMP JUMPDEST PUSH1 0x40 MLOAD PUSH1 0x20 DUP2 DUP4 SUB SUB DUP2 MSTORE SWAP1 PUSH1 0x40 MSTORE SWAP1 POP PUSH1 0x0 PUSH1 0xE PUSH1 0x0 DUP7 DUP2 MSTORE PUSH1 0x20 ADD SWAP1 DUP2 MSTORE PUSH1 0x20 ADD PUSH1 0x0 KECCAK256 PUSH1 0x40 MLOAD PUSH1 0x20 ADD PUSH2 0x122C SWAP2 SWAP1 PUSH2 0x3C75 JUMP JUMPDEST PUSH1 0x40 MLOAD PUSH1 0x20 DUP2 DUP4 SUB SUB DUP2 MSTORE SWAP1 PUSH1 0x40 MSTORE SWAP1 POP PUSH1 0x1 PUSH1 0xD PUSH1 0x0 DUP8 DUP2 MSTORE PUSH1 0x20 ADD SWAP1 DUP2 MSTORE PUSH1 0x20 ADD PUSH1 0x0 KECCAK256 PUSH1 0x9 PUSH1 0xA DUP2 LT PUSH2 0x1265 JUMPI PUSH2 0x1264 PUSH2 0x472B JUMP JUMPDEST JUMPDEST ADD SLOAD EQ ISZERO PUSH2 0x12A2 JUMPI PUSH1 0xE PUSH1 0x0 DUP7 DUP2 MSTORE PUSH1 0x20 ADD SWAP1 DUP2 MSTORE PUSH1 0x20 ADD PUSH1 0x0 KECCAK256 PUSH1 0x40 MLOAD PUSH1 0x20 ADD PUSH2 0x1290 SWAP2 SWAP1 PUSH2 0x3DF2 JUMP JUMPDEST PUSH1 0x40 MLOAD PUSH1 0x20 DUP2 DUP4 SUB SUB DUP2 MSTORE SWAP1 PUSH1 0x40 MSTORE SWAP1 POP JUMPDEST PUSH1 0x0 DUP4 PUSH20 0xFFFFFFFFFFFFFFFFFFFFFFFFFFFFFFFFFFFFFFFF AND PUSH4 0xEAF723DB PUSH1 0xD PUSH1 0x0 DUP10 DUP2 MSTORE PUSH1 0x20 ADD SWAP1 DUP2 MSTORE PUSH1 0x20 ADD PUSH1 0x0 KECCAK256 DUP6 PUSH1 0x40 MLOAD DUP4 PUSH4 0xFFFFFFFF AND PUSH1 0xE0 SHL DUP2 MSTORE PUSH1 0x4 ADD PUSH2 0x12F1 SWAP3 SWAP2 SWAP1 PUSH2 0x3EC6 JUMP JUMPDEST PUSH1 0x0 PUSH1 0x40 MLOAD DUP1 DUP4 SUB DUP2 DUP7 DUP1 EXTCODESIZE ISZERO DUP1 ISZERO PUSH2 0x1309 JUMPI PUSH1 0x0 DUP1 REVERT JUMPDEST POP GAS STATICCALL ISZERO DUP1 ISZERO PUSH2 0x131D JUMPI RETURNDATASIZE PUSH1 0x0 DUP1 RETURNDATACOPY RETURNDATASIZE PUSH1 0x0 REVERT JUMPDEST POP POP POP POP PUSH1 0x40 MLOAD RETURNDATASIZE PUSH1 0x0 DUP3 RETURNDATACOPY RETURNDATASIZE PUSH1 0x1F NOT PUSH1 0x1F DUP3 ADD AND DUP3 ADD DUP1 PUSH1 0x40 MSTORE POP DUP2 ADD SWAP1 PUSH2 0x1346 SWAP2 SWAP1 PUSH2 0x339E JUMP JUMPDEST SWAP1 POP PUSH2 0x1393 DUP4 DUP4 PUSH1 0x13 PUSH1 0xF PUSH1 0x0 DUP12 DUP2 MSTORE PUSH1 0x20 ADD SWAP1 DUP2 MSTORE PUSH1 0x20 ADD PUSH1 0x0 KECCAK256 PUSH2 0x136B DUP7 PUSH2 0x2480 JUMP JUMPDEST PUSH1 0x40 MLOAD PUSH1 0x20 ADD PUSH2 0x137F SWAP6 SWAP5 SWAP4 SWAP3 SWAP2 SWAP1 PUSH2 0x3D39 JUMP JUMPDEST PUSH1 0x40 MLOAD PUSH1 0x20 DUP2 DUP4 SUB SUB DUP2 MSTORE SWAP1 PUSH1 0x40 MSTORE PUSH2 0x2480 JUMP JUMPDEST PUSH1 0x40 MLOAD PUSH1 0x20 ADD PUSH2 0x13A3 SWAP2 SWAP1 PUSH2 0x3E14 JUMP JUMPDEST PUSH1 0x40 MLOAD PUSH1 0x20 DUP2 DUP4 SUB SUB DUP2 MSTORE SWAP1 PUSH1 0x40 MSTORE SWAP5 POP POP POP POP POP SWAP2 SWAP1 POP JUMP JUMPDEST PUSH2 0x13C6 DUP3 PUSH2 0xBE4 JUMP JUMPDEST PUSH20 0xFFFFFFFFFFFFFFFFFFFFFFFFFFFFFFFFFFFFFFFF AND PUSH2 0x13E4 PUSH2 0x1AB0 JUMP JUMPDEST PUSH20 0xFFFFFFFFFFFFFFFFFFFFFFFFFFFFFFFFFFFFFFFF AND EQ PUSH2 0x143A JUMPI PUSH1 0x40 MLOAD PUSH32 0x8C379A000000000000000000000000000000000000000000000000000000000 DUP2 MSTORE PUSH1 0x4 ADD PUSH2 0x1431 SWAP1 PUSH2 0x40DF JUMP JUMPDEST PUSH1 0x40 MLOAD DUP1 SWAP2 SUB SWAP1 REVERT JUMPDEST PUSH1 0x60 DUP1 PUSH2 0x1445 PUSH2 0x2D1E JUMP JUMPDEST PUSH2 0x144D PUSH2 0x2E07 JUMP JUMPDEST PUSH1 0xD PUSH1 0x0 DUP8 DUP2 MSTORE PUSH1 0x20 ADD SWAP1 DUP2 MSTORE PUSH1 0x20 ADD PUSH1 0x0 KECCAK256 PUSH1 0x5 PUSH1 0xA DUP2 LT PUSH2 0x1473 JUMPI PUSH2 0x1472 PUSH2 0x472B JUMP JUMPDEST JUMPDEST ADD SLOAD DUP2 PUSH1 0x0 PUSH1 0x5 DUP2 LT PUSH2 0x1489 JUMPI PUSH2 0x1488 PUSH2 0x472B JUMP JUMPDEST JUMPDEST PUSH1 0x20 MUL ADD DUP2 DUP2 MSTORE POP POP PUSH1 0xD PUSH1 0x0 DUP8 DUP2 MSTORE PUSH1 0x20 ADD SWAP1 DUP2 MSTORE PUSH1 0x20 ADD PUSH1 0x0 KECCAK256 PUSH1 0x6 PUSH1 0xA DUP2 LT PUSH2 0x14B8 JUMPI PUSH2 0x14B7 PUSH2 0x472B JUMP JUMPDEST JUMPDEST ADD SLOAD DUP2 PUSH1 0x1 PUSH1 0x5 DUP2 LT PUSH2 0x14CE JUMPI PUSH2 0x14CD PUSH2 0x472B JUMP JUMPDEST JUMPDEST PUSH1 0x20 MUL ADD DUP2 DUP2 MSTORE POP POP PUSH1 0xD PUSH1 0x0 DUP8 DUP2 MSTORE PUSH1 0x20 ADD SWAP1 DUP2 MSTORE PUSH1 0x20 ADD PUSH1 0x0 KECCAK256 PUSH1 0x7 PUSH1 0xA DUP2 LT PUSH2 0x14FD JUMPI PUSH2 0x14FC PUSH2 0x472B JUMP JUMPDEST JUMPDEST ADD SLOAD DUP2 PUSH1 0x2 PUSH1 0x5 DUP2 LT PUSH2 0x1513 JUMPI PUSH2 0x1512 PUSH2 0x472B JUMP JUMPDEST JUMPDEST PUSH1 0x20 MUL ADD DUP2 DUP2 MSTORE POP POP PUSH1 0xD PUSH1 0x0 DUP8 DUP2 MSTORE PUSH1 0x20 ADD SWAP1 DUP2 MSTORE PUSH1 0x20 ADD PUSH1 0x0 KECCAK256 PUSH1 0x8 PUSH1 0xA DUP2 LT PUSH2 0x1542 JUMPI PUSH2 0x1541 PUSH2 0x472B JUMP JUMPDEST JUMPDEST ADD SLOAD DUP2 PUSH1 0x3 PUSH1 0x5 DUP2 LT PUSH2 0x1558 JUMPI PUSH2 0x1557 PUSH2 0x472B JUMP JUMPDEST JUMPDEST PUSH1 0x20 MUL ADD DUP2 DUP2 MSTORE POP POP PUSH1 0xD PUSH1 0x0 DUP8 DUP2 MSTORE PUSH1 0x20 ADD SWAP1 DUP2 MSTORE PUSH1 0x20 ADD PUSH1 0x0 KECCAK256 PUSH1 0x9 PUSH1 0xA DUP2 LT PUSH2 0x1587 JUMPI PUSH2 0x1586 PUSH2 0x472B JUMP JUMPDEST JUMPDEST ADD SLOAD DUP2 PUSH1 0x4 PUSH1 0x5 DUP2 LT PUSH2 0x159D JUMPI PUSH2 0x159C PUSH2 0x472B JUMP JUMPDEST JUMPDEST PUSH1 0x20 MUL ADD DUP2 DUP2 MSTORE POP POP PUSH1 0x0 PUSH32 0x0 SWAP1 POP DUP1 PUSH20 0xFFFFFFFFFFFFFFFFFFFFFFFFFFFFFFFFFFFFFFFF AND PUSH4 0x96BFB9C1 DUP8 DUP5 PUSH1 0x40 MLOAD DUP4 PUSH4 0xFFFFFFFF AND PUSH1 0xE0 SHL DUP2 MSTORE PUSH1 0x4 ADD PUSH2 0x1606 SWAP3 SWAP2 SWAP1 PUSH2 0x3EF8 JUMP JUMPDEST PUSH1 0x0 PUSH1 0x40 MLOAD DUP1 DUP4 SUB DUP2 DUP7 DUP1 EXTCODESIZE ISZERO DUP1 ISZERO PUSH2 0x161E JUMPI PUSH1 0x0 DUP1 REVERT JUMPDEST POP GAS STATICCALL ISZERO DUP1 ISZERO PUSH2 0x1632 JUMPI RETURNDATASIZE PUSH1 0x0 DUP1 RETURNDATACOPY RETURNDATASIZE PUSH1 0x0 REVERT JUMPDEST POP POP POP POP PUSH1 0x40 MLOAD RETURNDATASIZE PUSH1 0x0 DUP3 RETURNDATACOPY RETURNDATASIZE PUSH1 0x1F NOT PUSH1 0x1F DUP3 ADD AND DUP3 ADD DUP1 PUSH1 0x40 MSTORE POP DUP2 ADD SWAP1 PUSH2 0x165B SWAP2 SWAP1 PUSH2 0x33E7 JUMP JUMPDEST DUP1 SWAP6 POP DUP2 SWAP7 POP DUP3 SWAP8 POP POP POP POP DUP4 PUSH1 0xE PUSH1 0x0 DUP10 DUP2 MSTORE PUSH1 0x20 ADD SWAP1 DUP2 MSTORE PUSH1 0x20 ADD PUSH1 0x0 KECCAK256 SWAP1 DUP1 MLOAD SWAP1 PUSH1 0x20 ADD SWAP1 PUSH2 0x168E SWAP3 SWAP2 SWAP1 PUSH2 0x2D41 JUMP JUMPDEST POP DUP3 PUSH1 0xD PUSH1 0x0 DUP10 DUP2 MSTORE PUSH1 0x20 ADD SWAP1 DUP2 MSTORE PUSH1 0x20 ADD PUSH1 0x0 KECCAK256 SWAP1 PUSH1 0xA PUSH2 0x16B1 SWAP3 SWAP2 SWAP1 PUSH2 0x2DC7 JUMP JUMPDEST POP DUP5 PUSH1 0xF PUSH1 0x0 DUP10 DUP2 MSTORE PUSH1 0x20 ADD SWAP1 DUP2 MSTORE PUSH1 0x20 ADD PUSH1 0x0 KECCAK256 SWAP1 DUP1 MLOAD SWAP1 PUSH1 0x20 ADD SWAP1 PUSH2 0x16D9 SWAP3 SWAP2 SWAP1 PUSH2 0x2D41 JUMP JUMPDEST POP POP POP POP POP POP POP POP JUMP JUMPDEST PUSH1 0x60 PUSH1 0x0 PUSH1 0x40 MLOAD DUP1 PUSH2 0x8A0 ADD PUSH1 0x40 MSTORE DUP1 PUSH2 0x870 DUP2 MSTORE PUSH1 0x20 ADD PUSH2 0x5304 PUSH2 0x870 SWAP2 CODECOPY SWAP1 POP PUSH2 0x1759 PUSH1 0x10 PUSH1 0x0 SWAP1 SLOAD SWAP1 PUSH2 0x100 EXP SWAP1 DIV PUSH20 0xFFFFFFFFFFFFFFFFFFFFFFFFFFFFFFFFFFFFFFFF AND PUSH2 0x1734 DUP4 PUSH2 0x2480 JUMP JUMPDEST PUSH1 0x40 MLOAD PUSH1 0x20 ADD PUSH2 0x1745 SWAP3 SWAP2 SWAP1 PUSH2 0x3C97 JUMP JUMPDEST PUSH1 0x40 MLOAD PUSH1 0x20 DUP2 DUP4 SUB SUB DUP2 MSTORE SWAP1 PUSH1 0x40 MSTORE PUSH2 0x2480 JUMP JUMPDEST PUSH1 0x40 MLOAD PUSH1 0x20 ADD PUSH2 0x1769 SWAP2 SWAP1 PUSH2 0x3E14 JUMP JUMPDEST PUSH1 0x40 MLOAD PUSH1 0x20 DUP2 DUP4 SUB SUB DUP2 MSTORE SWAP1 PUSH1 0x40 MSTORE SWAP2 POP POP SWAP1 JUMP JUMPDEST PUSH1 0x0 PUSH1 0x5 PUSH1 0x0 DUP5 PUSH20 0xFFFFFFFFFFFFFFFFFFFFFFFFFFFFFFFFFFFFFFFF AND PUSH20 0xFFFFFFFFFFFFFFFFFFFFFFFFFFFFFFFFFFFFFFFF AND DUP2 MSTORE PUSH1 0x20 ADD SWAP1 DUP2 MSTORE PUSH1 0x20 ADD PUSH1 0x0 KECCAK256 PUSH1 0x0 DUP4 PUSH20 0xFFFFFFFFFFFFFFFFFFFFFFFFFFFFFFFFFFFFFFFF AND PUSH20 0xFFFFFFFFFFFFFFFFFFFFFFFFFFFFFFFFFFFFFFFF AND DUP2 MSTORE PUSH1 0x20 ADD SWAP1 DUP2 MSTORE PUSH1 0x20 ADD PUSH1 0x0 KECCAK256 PUSH1 0x0 SWAP1 SLOAD SWAP1 PUSH2 0x100 EXP SWAP1 DIV PUSH1 0xFF AND SWAP1 POP SWAP3 SWAP2 POP POP JUMP JUMPDEST PUSH2 0x181A PUSH2 0x1AB0 JUMP JUMPDEST PUSH20 0xFFFFFFFFFFFFFFFFFFFFFFFFFFFFFFFFFFFFFFFF AND PUSH2 0x1838 PUSH2 0xE5C JUMP JUMPDEST PUSH20 0xFFFFFFFFFFFFFFFFFFFFFFFFFFFFFFFFFFFFFFFF AND EQ PUSH2 0x188E JUMPI PUSH1 0x40 MLOAD PUSH32 0x8C379A000000000000000000000000000000000000000000000000000000000 DUP2 MSTORE PUSH1 0x4 ADD PUSH2 0x1885 SWAP1 PUSH2 0x413F JUMP JUMPDEST PUSH1 0x40 MLOAD DUP1 SWAP2 SUB SWAP1 REVERT JUMPDEST DUP1 PUSH1 0x10 PUSH1 0x0 PUSH2 0x100 EXP DUP2 SLOAD DUP2 PUSH20 0xFFFFFFFFFFFFFFFFFFFFFFFFFFFFFFFFFFFFFFFF MUL NOT AND SWAP1 DUP4 PUSH20 0xFFFFFFFFFFFFFFFFFFFFFFFFFFFFFFFFFFFFFFFF AND MUL OR SWAP1 SSTORE POP POP JUMP JUMPDEST PUSH2 0x18DA PUSH2 0x1AB0 JUMP JUMPDEST PUSH20 0xFFFFFFFFFFFFFFFFFFFFFFFFFFFFFFFFFFFFFFFF AND PUSH2 0x18F8 PUSH2 0xE5C JUMP JUMPDEST PUSH20 0xFFFFFFFFFFFFFFFFFFFFFFFFFFFFFFFFFFFFFFFF AND EQ PUSH2 0x194E JUMPI PUSH1 0x40 MLOAD PUSH32 0x8C379A000000000000000000000000000000000000000000000000000000000 DUP2 MSTORE PUSH1 0x4 ADD PUSH2 0x1945 SWAP1 PUSH2 0x413F JUMP JUMPDEST PUSH1 0x40 MLOAD DUP1 SWAP2 SUB SWAP1 REVERT JUMPDEST PUSH1 0x0 PUSH20 0xFFFFFFFFFFFFFFFFFFFFFFFFFFFFFFFFFFFFFFFF AND DUP2 PUSH20 0xFFFFFFFFFFFFFFFFFFFFFFFFFFFFFFFFFFFFFFFF AND EQ ISZERO PUSH2 0x19BE JUMPI PUSH1 0x40 MLOAD PUSH32 0x8C379A000000000000000000000000000000000000000000000000000000000 DUP2 MSTORE PUSH1 0x4 ADD PUSH2 0x19B5 SWAP1 PUSH2 0x3FBF JUMP JUMPDEST PUSH1 0x40 MLOAD DUP1 SWAP2 SUB SWAP1 REVERT JUMPDEST PUSH2 0x19C7 DUP2 PUSH2 0x2090 JUMP JUMPDEST POP JUMP JUMPDEST PUSH1 0x0 PUSH32 0x780E9D6300000000000000000000000000000000000000000000000000000000 PUSH28 0xFFFFFFFFFFFFFFFFFFFFFFFFFFFFFFFFFFFFFFFFFFFFFFFFFFFFFFFF NOT AND DUP3 PUSH28 0xFFFFFFFFFFFFFFFFFFFFFFFFFFFFFFFFFFFFFFFFFFFFFFFFFFFFFFFF NOT AND EQ DUP1 PUSH2 0x1A3D JUMPI POP PUSH2 0x1A3C DUP3 PUSH2 0x25E4 JUMP JUMPDEST JUMPDEST SWAP1 POP SWAP2 SWAP1 POP JUMP JUMPDEST PUSH1 0x0 DUP1 PUSH20 0xFFFFFFFFFFFFFFFFFFFFFFFFFFFFFFFFFFFFFFFF AND PUSH1 0x2 PUSH1 0x0 DUP5 DUP2 MSTORE PUSH1 0x20 ADD SWAP1 DUP2 MSTORE PUSH1 0x20 ADD PUSH1 0x0 KECCAK256 PUSH1 0x0 SWAP1 SLOAD SWAP1 PUSH2 0x100 EXP SWAP1 DIV PUSH20 0xFFFFFFFFFFFFFFFFFFFFFFFFFFFFFFFFFFFFFFFF AND PUSH20 0xFFFFFFFFFFFFFFFFFFFFFFFFFFFFFFFFFFFFFFFF AND EQ ISZERO SWAP1 POP SWAP2 SWAP1 POP JUMP JUMPDEST PUSH1 0x0 CALLER SWAP1 POP SWAP1 JUMP JUMPDEST DUP2 PUSH1 0x4 PUSH1 0x0 DUP4 DUP2 MSTORE PUSH1 0x20 ADD SWAP1 DUP2 MSTORE PUSH1 0x20 ADD PUSH1 0x0 KECCAK256 PUSH1 0x0 PUSH2 0x100 EXP DUP2 SLOAD DUP2 PUSH20 0xFFFFFFFFFFFFFFFFFFFFFFFFFFFFFFFFFFFFFFFF MUL NOT AND SWAP1 DUP4 PUSH20 0xFFFFFFFFFFFFFFFFFFFFFFFFFFFFFFFFFFFFFFFF AND MUL OR SWAP1 SSTORE POP DUP1 DUP3 PUSH20 0xFFFFFFFFFFFFFFFFFFFFFFFFFFFFFFFFFFFFFFFF AND PUSH2 0x1B2B DUP4 PUSH2 0xBE4 JUMP JUMPDEST PUSH20 0xFFFFFFFFFFFFFFFFFFFFFFFFFFFFFFFFFFFFFFFF AND PUSH32 0x8C5BE1E5EBEC7D5BD14F71427D1E84F3DD0314C0F7B2291E5B200AC8C7C3B925 PUSH1 0x40 MLOAD PUSH1 0x40 MLOAD DUP1 SWAP2 SUB SWAP1 LOG4 POP POP JUMP JUMPDEST PUSH1 0x0 PUSH20 0xFFFFFFFFFFFFFFFFFFFFFFFFFFFFFFFFFFFFFFFF AND DUP3 PUSH20 0xFFFFFFFFFFFFFFFFFFFFFFFFFFFFFFFFFFFFFFFF AND EQ ISZERO PUSH2 0x1BE1 JUMPI PUSH1 0x40 MLOAD PUSH32 0x8C379A000000000000000000000000000000000000000000000000000000000 DUP2 MSTORE PUSH1 0x4 ADD PUSH2 0x1BD8 SWAP1 PUSH2 0x40FF JUMP JUMPDEST PUSH1 0x40 MLOAD DUP1 SWAP2 SUB SWAP1 REVERT JUMPDEST PUSH2 0x1BEA DUP2 PUSH2 0x1A44 JUMP JUMPDEST ISZERO PUSH2 0x1C2A JUMPI PUSH1 0x40 MLOAD PUSH32 0x8C379A000000000000000000000000000000000000000000000000000000000 DUP2 MSTORE PUSH1 0x4 ADD PUSH2 0x1C21 SWAP1 PUSH2 0x3FFF JUMP JUMPDEST PUSH1 0x40 MLOAD DUP1 SWAP2 SUB SWAP1 REVERT JUMPDEST PUSH2 0x1C36 PUSH1 0x0 DUP4 DUP4 PUSH2 0x26C6 JUMP JUMPDEST PUSH1 0x1 PUSH1 0x3 PUSH1 0x0 DUP5 PUSH20 0xFFFFFFFFFFFFFFFFFFFFFFFFFFFFFFFFFFFFFFFF AND PUSH20 0xFFFFFFFFFFFFFFFFFFFFFFFFFFFFFFFFFFFFFFFF AND DUP2 MSTORE PUSH1 0x20 ADD SWAP1 DUP2 MSTORE PUSH1 0x20 ADD PUSH1 0x0 KECCAK256 PUSH1 0x0 DUP3 DUP3 SLOAD PUSH2 0x1C86 SWAP2 SWAP1 PUSH2 0x437F JUMP JUMPDEST SWAP3 POP POP DUP2 SWAP1 SSTORE POP DUP2 PUSH1 0x2 PUSH1 0x0 DUP4 DUP2 MSTORE PUSH1 0x20 ADD SWAP1 DUP2 MSTORE PUSH1 0x20 ADD PUSH1 0x0 KECCAK256 PUSH1 0x0 PUSH2 0x100 EXP DUP2 SLOAD DUP2 PUSH20 0xFFFFFFFFFFFFFFFFFFFFFFFFFFFFFFFFFFFFFFFF MUL NOT AND SWAP1 DUP4 PUSH20 0xFFFFFFFFFFFFFFFFFFFFFFFFFFFFFFFFFFFFFFFF AND MUL OR SWAP1 SSTORE POP DUP1 DUP3 PUSH20 0xFFFFFFFFFFFFFFFFFFFFFFFFFFFFFFFFFFFFFFFF AND PUSH1 0x0 PUSH20 0xFFFFFFFFFFFFFFFFFFFFFFFFFFFFFFFFFFFFFFFF AND PUSH32 0xDDF252AD1BE2C89B69C2B068FC378DAA952BA7F163C4A11628F55A4DF523B3EF PUSH1 0x40 MLOAD PUSH1 0x40 MLOAD DUP1 SWAP2 SUB SWAP1 LOG4 PUSH2 0x1D47 PUSH1 0x0 DUP4 DUP4 PUSH2 0x26D6 JUMP JUMPDEST POP POP JUMP JUMPDEST PUSH1 0x0 PUSH2 0x1D56 DUP3 PUSH2 0x1A44 JUMP JUMPDEST PUSH2 0x1D95 JUMPI PUSH1 0x40 MLOAD PUSH32 0x8C379A000000000000000000000000000000000000000000000000000000000 DUP2 MSTORE PUSH1 0x4 ADD PUSH2 0x1D8C SWAP1 PUSH2 0x405F JUMP JUMPDEST PUSH1 0x40 MLOAD DUP1 SWAP2 SUB SWAP1 REVERT JUMPDEST PUSH1 0x0 PUSH2 0x1DA0 DUP4 PUSH2 0xBE4 JUMP JUMPDEST SWAP1 POP DUP1 PUSH20 0xFFFFFFFFFFFFFFFFFFFFFFFFFFFFFFFFFFFFFFFF AND DUP5 PUSH20 0xFFFFFFFFFFFFFFFFFFFFFFFFFFFFFFFFFFFFFFFF AND EQ DUP1 PUSH2 0x1E0F JUMPI POP DUP4 PUSH20 0xFFFFFFFFFFFFFFFFFFFFFFFFFFFFFFFFFFFFFFFF AND PUSH2 0x1DF7 DUP5 PUSH2 0x5A9 JUMP JUMPDEST PUSH20 0xFFFFFFFFFFFFFFFFFFFFFFFFFFFFFFFFFFFFFFFF AND EQ JUMPDEST DUP1 PUSH2 0x1E20 JUMPI POP PUSH2 0x1E1F DUP2 DUP6 PUSH2 0x177E JUMP JUMPDEST JUMPDEST SWAP2 POP POP SWAP3 SWAP2 POP POP JUMP JUMPDEST DUP3 PUSH20 0xFFFFFFFFFFFFFFFFFFFFFFFFFFFFFFFFFFFFFFFF AND PUSH2 0x1E49 DUP3 PUSH2 0xBE4 JUMP JUMPDEST PUSH20 0xFFFFFFFFFFFFFFFFFFFFFFFFFFFFFFFFFFFFFFFF AND EQ PUSH2 0x1E9F JUMPI PUSH1 0x40 MLOAD PUSH32 0x8C379A000000000000000000000000000000000000000000000000000000000 DUP2 MSTORE PUSH1 0x4 ADD PUSH2 0x1E96 SWAP1 PUSH2 0x3FDF JUMP JUMPDEST PUSH1 0x40 MLOAD DUP1 SWAP2 SUB SWAP1 REVERT JUMPDEST PUSH1 0x0 PUSH20 0xFFFFFFFFFFFFFFFFFFFFFFFFFFFFFFFFFFFFFFFF AND DUP3 PUSH20 0xFFFFFFFFFFFFFFFFFFFFFFFFFFFFFFFFFFFFFFFF AND EQ ISZERO PUSH2 0x1F0F JUMPI PUSH1 0x40 MLOAD PUSH32 0x8C379A000000000000000000000000000000000000000000000000000000000 DUP2 MSTORE PUSH1 0x4 ADD PUSH2 0x1F06 SWAP1 PUSH2 0x401F JUMP JUMPDEST PUSH1 0x40 MLOAD DUP1 SWAP2 SUB SWAP1 REVERT JUMPDEST PUSH2 0x1F1A DUP4 DUP4 DUP4 PUSH2 0x26C6 JUMP JUMPDEST PUSH2 0x1F25 PUSH1 0x0 DUP3 PUSH2 0x1AB8 JUMP JUMPDEST PUSH1 0x1 PUSH1 0x3 PUSH1 0x0 DUP6 PUSH20 0xFFFFFFFFFFFFFFFFFFFFFFFFFFFFFFFFFFFFFFFF AND PUSH20 0xFFFFFFFFFFFFFFFFFFFFFFFFFFFFFFFFFFFFFFFF AND DUP2 MSTORE PUSH1 0x20 ADD SWAP1 DUP2 MSTORE PUSH1 0x20 ADD PUSH1 0x0 KECCAK256 PUSH1 0x0 DUP3 DUP3 SLOAD PUSH2 0x1F75 SWAP2 SWAP1 PUSH2 0x4460 JUMP JUMPDEST SWAP3 POP POP DUP2 SWAP1 SSTORE POP PUSH1 0x1 PUSH1 0x3 PUSH1 0x0 DUP5 PUSH20 0xFFFFFFFFFFFFFFFFFFFFFFFFFFFFFFFFFFFFFFFF AND PUSH20 0xFFFFFFFFFFFFFFFFFFFFFFFFFFFFFFFFFFFFFFFF AND DUP2 MSTORE PUSH1 0x20 ADD SWAP1 DUP2 MSTORE PUSH1 0x20 ADD PUSH1 0x0 KECCAK256 PUSH1 0x0 DUP3 DUP3 SLOAD PUSH2 0x1FCC SWAP2 SWAP1 PUSH2 0x437F JUMP JUMPDEST SWAP3 POP POP DUP2 SWAP1 SSTORE POP DUP2 PUSH1 0x2 PUSH1 0x0 DUP4 DUP2 MSTORE PUSH1 0x20 ADD SWAP1 DUP2 MSTORE PUSH1 0x20 ADD PUSH1 0x0 KECCAK256 PUSH1 0x0 PUSH2 0x100 EXP DUP2 SLOAD DUP2 PUSH20 0xFFFFFFFFFFFFFFFFFFFFFFFFFFFFFFFFFFFFFFFF MUL NOT AND SWAP1 DUP4 PUSH20 0xFFFFFFFFFFFFFFFFFFFFFFFFFFFFFFFFFFFFFFFF AND MUL OR SWAP1 SSTORE POP DUP1 DUP3 PUSH20 0xFFFFFFFFFFFFFFFFFFFFFFFFFFFFFFFFFFFFFFFF AND DUP5 PUSH20 0xFFFFFFFFFFFFFFFFFFFFFFFFFFFFFFFFFFFFFFFF AND PUSH32 0xDDF252AD1BE2C89B69C2B068FC378DAA952BA7F163C4A11628F55A4DF523B3EF PUSH1 0x40 MLOAD PUSH1 0x40 MLOAD DUP1 SWAP2 SUB SWAP1 LOG4 PUSH2 0x208B DUP4 DUP4 DUP4 PUSH2 0x26D6 JUMP JUMPDEST POP POP POP JUMP JUMPDEST PUSH1 0x0 PUSH1 0xB PUSH1 0x0 SWAP1 SLOAD SWAP1 PUSH2 0x100 EXP SWAP1 DIV PUSH20 0xFFFFFFFFFFFFFFFFFFFFFFFFFFFFFFFFFFFFFFFF AND SWAP1 POP DUP2 PUSH1 0xB PUSH1 0x0 PUSH2 0x100 EXP DUP2 SLOAD DUP2 PUSH20 0xFFFFFFFFFFFFFFFFFFFFFFFFFFFFFFFFFFFFFFFF MUL NOT AND SWAP1 DUP4 PUSH20 0xFFFFFFFFFFFFFFFFFFFFFFFFFFFFFFFFFFFFFFFF AND MUL OR SWAP1 SSTORE POP DUP2 PUSH20 0xFFFFFFFFFFFFFFFFFFFFFFFFFFFFFFFFFFFFFFFF AND DUP2 PUSH20 0xFFFFFFFFFFFFFFFFFFFFFFFFFFFFFFFFFFFFFFFF AND PUSH32 0x8BE0079C531659141344CD1FD0A4F28419497F9722A3DAAFE3B4186F6B6457E0 PUSH1 0x40 MLOAD PUSH1 0x40 MLOAD DUP1 SWAP2 SUB SWAP1 LOG3 POP POP JUMP JUMPDEST PUSH1 0x60 PUSH1 0x0 DUP3 EQ ISZERO PUSH2 0x219E JUMPI PUSH1 0x40 MLOAD DUP1 PUSH1 0x40 ADD PUSH1 0x40 MSTORE DUP1 PUSH1 0x1 DUP2 MSTORE PUSH1 0x20 ADD PUSH32 0x3000000000000000000000000000000000000000000000000000000000000000 DUP2 MSTORE POP SWAP1 POP PUSH2 0x22B2 JUMP JUMPDEST PUSH1 0x0 DUP3 SWAP1 POP PUSH1 0x0 JUMPDEST PUSH1 0x0 DUP3 EQ PUSH2 0x21D0 JUMPI DUP1 DUP1 PUSH2 0x21B9 SWAP1 PUSH2 0x45D1 JUMP JUMPDEST SWAP2 POP POP PUSH1 0xA DUP3 PUSH2 0x21C9 SWAP2 SWAP1 PUSH2 0x43D5 JUMP JUMPDEST SWAP2 POP PUSH2 0x21A6 JUMP JUMPDEST PUSH1 0x0 DUP2 PUSH8 0xFFFFFFFFFFFFFFFF DUP2 GT ISZERO PUSH2 0x21EC JUMPI PUSH2 0x21EB PUSH2 0x475A JUMP JUMPDEST JUMPDEST PUSH1 0x40 MLOAD SWAP1 DUP1 DUP3 MSTORE DUP1 PUSH1 0x1F ADD PUSH1 0x1F NOT AND PUSH1 0x20 ADD DUP3 ADD PUSH1 0x40 MSTORE DUP1 ISZERO PUSH2 0x221E JUMPI DUP2 PUSH1 0x20 ADD PUSH1 0x1 DUP3 MUL DUP1 CALLDATASIZE DUP4 CALLDATACOPY DUP1 DUP3 ADD SWAP2 POP POP SWAP1 POP JUMPDEST POP SWAP1 POP JUMPDEST PUSH1 0x0 DUP6 EQ PUSH2 0x22AB JUMPI PUSH1 0x1 DUP3 PUSH2 0x2237 SWAP2 SWAP1 PUSH2 0x4460 JUMP JUMPDEST SWAP2 POP PUSH1 0xA DUP6 PUSH2 0x2246 SWAP2 SWAP1 PUSH2 0x463E JUMP JUMPDEST PUSH1 0x30 PUSH2 0x2252 SWAP2 SWAP1 PUSH2 0x437F JUMP JUMPDEST PUSH1 0xF8 SHL DUP2 DUP4 DUP2 MLOAD DUP2 LT PUSH2 0x2268 JUMPI PUSH2 0x2267 PUSH2 0x472B JUMP JUMPDEST JUMPDEST PUSH1 0x20 ADD ADD SWAP1 PUSH31 0xFFFFFFFFFFFFFFFFFFFFFFFFFFFFFFFFFFFFFFFFFFFFFFFFFFFFFFFFFFFFFF NOT AND SWAP1 DUP2 PUSH1 0x0 BYTE SWAP1 MSTORE8 POP PUSH1 0xA DUP6 PUSH2 0x22A4 SWAP2 SWAP1 PUSH2 0x43D5 JUMP JUMPDEST SWAP5 POP PUSH2 0x2222 JUMP JUMPDEST DUP1 SWAP4 POP POP POP POP JUMPDEST SWAP2 SWAP1 POP JUMP JUMPDEST DUP2 PUSH20 0xFFFFFFFFFFFFFFFFFFFFFFFFFFFFFFFFFFFFFFFF AND DUP4 PUSH20 0xFFFFFFFFFFFFFFFFFFFFFFFFFFFFFFFFFFFFFFFF AND EQ ISZERO PUSH2 0x2326 JUMPI PUSH1 0x40 MLOAD PUSH32 0x8C379A000000000000000000000000000000000000000000000000000000000 DUP2 MSTORE PUSH1 0x4 ADD PUSH2 0x231D SWAP1 PUSH2 0x403F JUMP JUMPDEST PUSH1 0x40 MLOAD DUP1 SWAP2 SUB SWAP1 REVERT JUMPDEST DUP1 PUSH1 0x5 PUSH1 0x0 DUP6 PUSH20 0xFFFFFFFFFFFFFFFFFFFFFFFFFFFFFFFFFFFFFFFF AND PUSH20 0xFFFFFFFFFFFFFFFFFFFFFFFFFFFFFFFFFFFFFFFF AND DUP2 MSTORE PUSH1 0x20 ADD SWAP1 DUP2 MSTORE PUSH1 0x20 ADD PUSH1 0x0 KECCAK256 PUSH1 0x0 DUP5 PUSH20 0xFFFFFFFFFFFFFFFFFFFFFFFFFFFFFFFFFFFFFFFF AND PUSH20 0xFFFFFFFFFFFFFFFFFFFFFFFFFFFFFFFFFFFFFFFF AND DUP2 MSTORE PUSH1 0x20 ADD SWAP1 DUP2 MSTORE PUSH1 0x20 ADD PUSH1 0x0 KECCAK256 PUSH1 0x0 PUSH2 0x100 EXP DUP2 SLOAD DUP2 PUSH1 0xFF MUL NOT AND SWAP1 DUP4 ISZERO ISZERO MUL OR SWAP1 SSTORE POP DUP2 PUSH20 0xFFFFFFFFFFFFFFFFFFFFFFFFFFFFFFFFFFFFFFFF AND DUP4 PUSH20 0xFFFFFFFFFFFFFFFFFFFFFFFFFFFFFFFFFFFFFFFF AND PUSH32 0x17307EAB39AB6107E8899845AD3D59BD9653F200F220920489CA2B5937696C31 DUP4 PUSH1 0x40 MLOAD PUSH2 0x2417 SWAP2 SWAP1 PUSH2 0x3F22 JUMP JUMPDEST PUSH1 0x40 MLOAD DUP1 SWAP2 SUB SWAP1 LOG3 POP POP POP JUMP JUMPDEST PUSH2 0x242F DUP5 DUP5 DUP5 PUSH2 0x1E29 JUMP JUMPDEST PUSH2 0x243B DUP5 DUP5 DUP5 DUP5 PUSH2 0x26DB JUMP JUMPDEST PUSH2 0x247A JUMPI PUSH1 0x40 MLOAD PUSH32 0x8C379A000000000000000000000000000000000000000000000000000000000 DUP2 MSTORE PUSH1 0x4 ADD PUSH2 0x2471 SWAP1 PUSH2 0x3F9F JUMP JUMPDEST PUSH1 0x40 MLOAD DUP1 SWAP2 SUB SWAP1 REVERT JUMPDEST POP POP POP POP JUMP JUMPDEST PUSH1 0x60 PUSH1 0x0 DUP3 MLOAD EQ ISZERO PUSH2 0x24A3 JUMPI PUSH1 0x40 MLOAD DUP1 PUSH1 0x20 ADD PUSH1 0x40 MSTORE DUP1 PUSH1 0x0 DUP2 MSTORE POP SWAP1 POP PUSH2 0x25DF JUMP JUMPDEST PUSH1 0x0 PUSH1 0x40 MLOAD DUP1 PUSH1 0x60 ADD PUSH1 0x40 MSTORE DUP1 PUSH1 0x40 DUP2 MSTORE PUSH1 0x20 ADD PUSH2 0x52C4 PUSH1 0x40 SWAP2 CODECOPY SWAP1 POP PUSH1 0x0 PUSH1 0x3 PUSH1 0x2 DUP6 MLOAD PUSH2 0x24D2 SWAP2 SWAP1 PUSH2 0x437F JUMP JUMPDEST PUSH2 0x24DC SWAP2 SWAP1 PUSH2 0x43D5 JUMP JUMPDEST PUSH1 0x4 PUSH2 0x24E8 SWAP2 SWAP1 PUSH2 0x4406 JUMP JUMPDEST PUSH8 0xFFFFFFFFFFFFFFFF DUP2 GT ISZERO PUSH2 0x2501 JUMPI PUSH2 0x2500 PUSH2 0x475A JUMP JUMPDEST JUMPDEST PUSH1 0x40 MLOAD SWAP1 DUP1 DUP3 MSTORE DUP1 PUSH1 0x1F ADD PUSH1 0x1F NOT AND PUSH1 0x20 ADD DUP3 ADD PUSH1 0x40 MSTORE DUP1 ISZERO PUSH2 0x2533 JUMPI DUP2 PUSH1 0x20 ADD PUSH1 0x1 DUP3 MUL DUP1 CALLDATASIZE DUP4 CALLDATACOPY DUP1 DUP3 ADD SWAP2 POP POP SWAP1 POP JUMPDEST POP SWAP1 POP PUSH1 0x1 DUP3 ADD PUSH1 0x20 DUP3 ADD DUP6 DUP7 MLOAD DUP8 ADD JUMPDEST DUP1 DUP3 LT ISZERO PUSH2 0x259F JUMPI PUSH1 0x3 DUP3 ADD SWAP2 POP DUP2 MLOAD PUSH1 0x3F DUP2 PUSH1 0x12 SHR AND DUP6 ADD MLOAD DUP5 MSTORE8 PUSH1 0x1 DUP5 ADD SWAP4 POP PUSH1 0x3F DUP2 PUSH1 0xC SHR AND DUP6 ADD MLOAD DUP5 MSTORE8 PUSH1 0x1 DUP5 ADD SWAP4 POP PUSH1 0x3F DUP2 PUSH1 0x6 SHR AND DUP6 ADD MLOAD DUP5 MSTORE8 PUSH1 0x1 DUP5 ADD SWAP4 POP PUSH1 0x3F DUP2 AND DUP6 ADD MLOAD DUP5 MSTORE8 PUSH1 0x1 DUP5 ADD SWAP4 POP POP PUSH2 0x2544 JUMP JUMPDEST POP POP PUSH1 0x3 DUP7 MLOAD MOD PUSH1 0x1 DUP2 EQ PUSH2 0x25BB JUMPI PUSH1 0x2 DUP2 EQ PUSH2 0x25CE JUMPI PUSH2 0x25D6 JUMP JUMPDEST PUSH1 0x3D PUSH1 0x1 DUP4 SUB MSTORE8 PUSH1 0x3D PUSH1 0x2 DUP4 SUB MSTORE8 PUSH2 0x25D6 JUMP JUMPDEST PUSH1 0x3D PUSH1 0x1 DUP4 SUB MSTORE8 JUMPDEST POP POP POP DUP1 SWAP3 POP POP POP JUMPDEST SWAP2 SWAP1 POP JUMP JUMPDEST PUSH1 0x0 PUSH32 0x80AC58CD00000000000000000000000000000000000000000000000000000000 PUSH28 0xFFFFFFFFFFFFFFFFFFFFFFFFFFFFFFFFFFFFFFFFFFFFFFFFFFFFFFFF NOT AND DUP3 PUSH28 0xFFFFFFFFFFFFFFFFFFFFFFFFFFFFFFFFFFFFFFFFFFFFFFFFFFFFFFFF NOT AND EQ DUP1 PUSH2 0x26AF JUMPI POP PUSH32 0x5B5E139F00000000000000000000000000000000000000000000000000000000 PUSH28 0xFFFFFFFFFFFFFFFFFFFFFFFFFFFFFFFFFFFFFFFFFFFFFFFFFFFFFFFF NOT AND DUP3 PUSH28 0xFFFFFFFFFFFFFFFFFFFFFFFFFFFFFFFFFFFFFFFFFFFFFFFFFFFFFFFF NOT AND EQ JUMPDEST DUP1 PUSH2 0x26BF JUMPI POP PUSH2 0x26BE DUP3 PUSH2 0x2872 JUMP JUMPDEST JUMPDEST SWAP1 POP SWAP2 SWAP1 POP JUMP JUMPDEST PUSH2 0x26D1 DUP4 DUP4 DUP4 PUSH2 0x28DC JUMP JUMPDEST POP POP POP JUMP JUMPDEST POP POP POP JUMP JUMPDEST PUSH1 0x0 PUSH2 0x26FC DUP5 PUSH20 0xFFFFFFFFFFFFFFFFFFFFFFFFFFFFFFFFFFFFFFFF AND PUSH2 0x29F0 JUMP JUMPDEST ISZERO PUSH2 0x2865 JUMPI DUP4 PUSH20 0xFFFFFFFFFFFFFFFFFFFFFFFFFFFFFFFFFFFFFFFF AND PUSH4 0x150B7A02 PUSH2 0x2725 PUSH2 0x1AB0 JUMP JUMPDEST DUP8 DUP7 DUP7 PUSH1 0x40 MLOAD DUP6 PUSH4 0xFFFFFFFF AND PUSH1 0xE0 SHL DUP2 MSTORE PUSH1 0x4 ADD PUSH2 0x2747 SWAP5 SWAP4 SWAP3 SWAP2 SWAP1 PUSH2 0x3E51 JUMP JUMPDEST PUSH1 0x20 PUSH1 0x40 MLOAD DUP1 DUP4 SUB DUP2 PUSH1 0x0 DUP8 DUP1 EXTCODESIZE ISZERO DUP1 ISZERO PUSH2 0x2761 JUMPI PUSH1 0x0 DUP1 REVERT JUMPDEST POP GAS CALL SWAP3 POP POP POP DUP1 ISZERO PUSH2 0x2792 JUMPI POP PUSH1 0x40 MLOAD RETURNDATASIZE PUSH1 0x1F NOT PUSH1 0x1F DUP3 ADD AND DUP3 ADD DUP1 PUSH1 0x40 MSTORE POP DUP2 ADD SWAP1 PUSH2 0x278F SWAP2 SWAP1 PUSH2 0x3328 JUMP JUMPDEST PUSH1 0x1 JUMPDEST PUSH2 0x2815 JUMPI RETURNDATASIZE DUP1 PUSH1 0x0 DUP2 EQ PUSH2 0x27C2 JUMPI PUSH1 0x40 MLOAD SWAP2 POP PUSH1 0x1F NOT PUSH1 0x3F RETURNDATASIZE ADD AND DUP3 ADD PUSH1 0x40 MSTORE RETURNDATASIZE DUP3 MSTORE RETURNDATASIZE PUSH1 0x0 PUSH1 0x20 DUP5 ADD RETURNDATACOPY PUSH2 0x27C7 JUMP JUMPDEST PUSH1 0x60 SWAP2 POP JUMPDEST POP PUSH1 0x0 DUP2 MLOAD EQ ISZERO PUSH2 0x280D JUMPI PUSH1 0x40 MLOAD PUSH32 0x8C379A000000000000000000000000000000000000000000000000000000000 DUP2 MSTORE PUSH1 0x4 ADD PUSH2 0x2804 SWAP1 PUSH2 0x3F9F JUMP JUMPDEST PUSH1 0x40 MLOAD DUP1 SWAP2 SUB SWAP1 REVERT JUMPDEST DUP1 MLOAD DUP2 PUSH1 0x20 ADD REVERT JUMPDEST PUSH4 0x150B7A02 PUSH1 0xE0 SHL PUSH28 0xFFFFFFFFFFFFFFFFFFFFFFFFFFFFFFFFFFFFFFFFFFFFFFFFFFFFFFFF NOT AND DUP2 PUSH28 0xFFFFFFFFFFFFFFFFFFFFFFFFFFFFFFFFFFFFFFFFFFFFFFFFFFFFFFFF NOT AND EQ SWAP2 POP POP PUSH2 0x286A JUMP JUMPDEST PUSH1 0x1 SWAP1 POP JUMPDEST SWAP5 SWAP4 POP POP POP POP JUMP JUMPDEST PUSH1 0x0 PUSH32 0x1FFC9A700000000000000000000000000000000000000000000000000000000 PUSH28 0xFFFFFFFFFFFFFFFFFFFFFFFFFFFFFFFFFFFFFFFFFFFFFFFFFFFFFFFF NOT AND DUP3 PUSH28 0xFFFFFFFFFFFFFFFFFFFFFFFFFFFFFFFFFFFFFFFFFFFFFFFFFFFFFFFF NOT AND EQ SWAP1 POP SWAP2 SWAP1 POP JUMP JUMPDEST PUSH2 0x28E7 DUP4 DUP4 DUP4 PUSH2 0x2A13 JUMP JUMPDEST PUSH1 0x0 PUSH20 0xFFFFFFFFFFFFFFFFFFFFFFFFFFFFFFFFFFFFFFFF AND DUP4 PUSH20 0xFFFFFFFFFFFFFFFFFFFFFFFFFFFFFFFFFFFFFFFF AND EQ ISZERO PUSH2 0x292A JUMPI PUSH2 0x2925 DUP2 PUSH2 0x2A18 JUMP JUMPDEST PUSH2 0x2969 JUMP JUMPDEST DUP2 PUSH20 0xFFFFFFFFFFFFFFFFFFFFFFFFFFFFFFFFFFFFFFFF AND DUP4 PUSH20 0xFFFFFFFFFFFFFFFFFFFFFFFFFFFFFFFFFFFFFFFF AND EQ PUSH2 0x2968 JUMPI PUSH2 0x2967 DUP4 DUP3 PUSH2 0x2A61 JUMP JUMPDEST JUMPDEST JUMPDEST PUSH1 0x0 PUSH20 0xFFFFFFFFFFFFFFFFFFFFFFFFFFFFFFFFFFFFFFFF AND DUP3 PUSH20 0xFFFFFFFFFFFFFFFFFFFFFFFFFFFFFFFFFFFFFFFF AND EQ ISZERO PUSH2 0x29AC JUMPI PUSH2 0x29A7 DUP2 PUSH2 0x2BCE JUMP JUMPDEST PUSH2 0x29EB JUMP JUMPDEST DUP3 PUSH20 0xFFFFFFFFFFFFFFFFFFFFFFFFFFFFFFFFFFFFFFFF AND DUP3 PUSH20 0xFFFFFFFFFFFFFFFFFFFFFFFFFFFFFFFFFFFFFFFF AND EQ PUSH2 0x29EA JUMPI PUSH2 0x29E9 DUP3 DUP3 PUSH2 0x2C9F JUMP JUMPDEST JUMPDEST JUMPDEST POP POP POP JUMP JUMPDEST PUSH1 0x0 DUP1 DUP3 PUSH20 0xFFFFFFFFFFFFFFFFFFFFFFFFFFFFFFFFFFFFFFFF AND EXTCODESIZE GT SWAP1 POP SWAP2 SWAP1 POP JUMP JUMPDEST POP POP POP JUMP JUMPDEST PUSH1 0x9 DUP1 SLOAD SWAP1 POP PUSH1 0xA PUSH1 0x0 DUP4 DUP2 MSTORE PUSH1 0x20 ADD SWAP1 DUP2 MSTORE PUSH1 0x20 ADD PUSH1 0x0 KECCAK256 DUP2 SWAP1 SSTORE POP PUSH1 0x9 DUP2 SWAP1 DUP1 PUSH1 0x1 DUP2 SLOAD ADD DUP1 DUP3 SSTORE DUP1 SWAP2 POP POP PUSH1 0x1 SWAP1 SUB SWAP1 PUSH1 0x0 MSTORE PUSH1 0x20 PUSH1 0x0 KECCAK256 ADD PUSH1 0x0 SWAP1 SWAP2 SWAP1 SWAP2 SWAP1 SWAP2 POP SSTORE POP JUMP JUMPDEST PUSH1 0x0 PUSH1 0x1 PUSH2 0x2A6E DUP5 PUSH2 0xC96 JUMP JUMPDEST PUSH2 0x2A78 SWAP2 SWAP1 PUSH2 0x4460 JUMP JUMPDEST SWAP1 POP PUSH1 0x0 PUSH1 0x8 PUSH1 0x0 DUP5 DUP2 MSTORE PUSH1 0x20 ADD SWAP1 DUP2 MSTORE PUSH1 0x20 ADD PUSH1 0x0 KECCAK256 SLOAD SWAP1 POP DUP2 DUP2 EQ PUSH2 0x2B5D JUMPI PUSH1 0x0 PUSH1 0x7 PUSH1 0x0 DUP7 PUSH20 0xFFFFFFFFFFFFFFFFFFFFFFFFFFFFFFFFFFFFFFFF AND PUSH20 0xFFFFFFFFFFFFFFFFFFFFFFFFFFFFFFFFFFFFFFFF AND DUP2 MSTORE PUSH1 0x20 ADD SWAP1 DUP2 MSTORE PUSH1 0x20 ADD PUSH1 0x0 KECCAK256 PUSH1 0x0 DUP5 DUP2 MSTORE PUSH1 0x20 ADD SWAP1 DUP2 MSTORE PUSH1 0x20 ADD PUSH1 0x0 KECCAK256 SLOAD SWAP1 POP DUP1 PUSH1 0x7 PUSH1 0x0 DUP8 PUSH20 0xFFFFFFFFFFFFFFFFFFFFFFFFFFFFFFFFFFFFFFFF AND PUSH20 0xFFFFFFFFFFFFFFFFFFFFFFFFFFFFFFFFFFFFFFFF AND DUP2 MSTORE PUSH1 0x20 ADD SWAP1 DUP2 MSTORE PUSH1 0x20 ADD PUSH1 0x0 KECCAK256 PUSH1 0x0 DUP5 DUP2 MSTORE PUSH1 0x20 ADD SWAP1 DUP2 MSTORE PUSH1 0x20 ADD PUSH1 0x0 KECCAK256 DUP2 SWAP1 SSTORE POP DUP2 PUSH1 0x8 PUSH1 0x0 DUP4 DUP2 MSTORE PUSH1 0x20 ADD SWAP1 DUP2 MSTORE PUSH1 0x20 ADD PUSH1 0x0 KECCAK256 DUP2 SWAP1 SSTORE POP POP JUMPDEST PUSH1 0x8 PUSH1 0x0 DUP5 DUP2 MSTORE PUSH1 0x20 ADD SWAP1 DUP2 MSTORE PUSH1 0x20 ADD PUSH1 0x0 KECCAK256 PUSH1 0x0 SWAP1 SSTORE PUSH1 0x7 PUSH1 0x0 DUP6 PUSH20 0xFFFFFFFFFFFFFFFFFFFFFFFFFFFFFFFFFFFFFFFF AND PUSH20 0xFFFFFFFFFFFFFFFFFFFFFFFFFFFFFFFFFFFFFFFF AND DUP2 MSTORE PUSH1 0x20 ADD SWAP1 DUP2 MSTORE PUSH1 0x20 ADD PUSH1 0x0 KECCAK256 PUSH1 0x0 DUP4 DUP2 MSTORE PUSH1 0x20 ADD SWAP1 DUP2 MSTORE PUSH1 0x20 ADD PUSH1 0x0 KECCAK256 PUSH1 0x0 SWAP1 SSTORE POP POP POP POP JUMP JUMPDEST PUSH1 0x0 PUSH1 0x1 PUSH1 0x9 DUP1 SLOAD SWAP1 POP PUSH2 0x2BE2 SWAP2 SWAP1 PUSH2 0x4460 JUMP JUMPDEST SWAP1 POP PUSH1 0x0 PUSH1 0xA PUSH1 0x0 DUP5 DUP2 MSTORE PUSH1 0x20 ADD SWAP1 DUP2 MSTORE PUSH1 0x20 ADD PUSH1 0x0 KECCAK256 SLOAD SWAP1 POP PUSH1 0x0 PUSH1 0x9 DUP4 DUP2 SLOAD DUP2 LT PUSH2 0x2C12 JUMPI PUSH2 0x2C11 PUSH2 0x472B JUMP JUMPDEST JUMPDEST SWAP1 PUSH1 0x0 MSTORE PUSH1 0x20 PUSH1 0x0 KECCAK256 ADD SLOAD SWAP1 POP DUP1 PUSH1 0x9 DUP4 DUP2 SLOAD DUP2 LT PUSH2 0x2C34 JUMPI PUSH2 0x2C33 PUSH2 0x472B JUMP JUMPDEST JUMPDEST SWAP1 PUSH1 0x0 MSTORE PUSH1 0x20 PUSH1 0x0 KECCAK256 ADD DUP2 SWAP1 SSTORE POP DUP2 PUSH1 0xA PUSH1 0x0 DUP4 DUP2 MSTORE PUSH1 0x20 ADD SWAP1 DUP2 MSTORE PUSH1 0x20 ADD PUSH1 0x0 KECCAK256 DUP2 SWAP1 SSTORE POP PUSH1 0xA PUSH1 0x0 DUP6 DUP2 MSTORE PUSH1 0x20 ADD SWAP1 DUP2 MSTORE PUSH1 0x20 ADD PUSH1 0x0 KECCAK256 PUSH1 0x0 SWAP1 SSTORE PUSH1 0x9 DUP1 SLOAD DUP1 PUSH2 0x2C83 JUMPI PUSH2 0x2C82 PUSH2 0x46FC JUMP JUMPDEST JUMPDEST PUSH1 0x1 SWAP1 SUB DUP2 DUP2 SWAP1 PUSH1 0x0 MSTORE PUSH1 0x20 PUSH1 0x0 KECCAK256 ADD PUSH1 0x0 SWAP1 SSTORE SWAP1 SSTORE POP POP POP POP JUMP JUMPDEST PUSH1 0x0 PUSH2 0x2CAA DUP4 PUSH2 0xC96 JUMP JUMPDEST SWAP1 POP DUP2 PUSH1 0x7 PUSH1 0x0 DUP6 PUSH20 0xFFFFFFFFFFFFFFFFFFFFFFFFFFFFFFFFFFFFFFFF AND PUSH20 0xFFFFFFFFFFFFFFFFFFFFFFFFFFFFFFFFFFFFFFFF AND DUP2 MSTORE PUSH1 0x20 ADD SWAP1 DUP2 MSTORE PUSH1 0x20 ADD PUSH1 0x0 KECCAK256 PUSH1 0x0 DUP4 DUP2 MSTORE PUSH1 0x20 ADD SWAP1 DUP2 MSTORE PUSH1 0x20 ADD PUSH1 0x0 KECCAK256 DUP2 SWAP1 SSTORE POP DUP1 PUSH1 0x8 PUSH1 0x0 DUP5 DUP2 MSTORE PUSH1 0x20 ADD SWAP1 DUP2 MSTORE PUSH1 0x20 ADD PUSH1 0x0 KECCAK256 DUP2 SWAP1 SSTORE POP POP POP POP JUMP JUMPDEST PUSH1 0x40 MLOAD DUP1 PUSH2 0x140 ADD PUSH1 0x40 MSTORE DUP1 PUSH1 0xA SWAP1 PUSH1 0x20 DUP3 MUL DUP1 CALLDATASIZE DUP4 CALLDATACOPY DUP1 DUP3 ADD SWAP2 POP POP SWAP1 POP POP SWAP1 JUMP JUMPDEST DUP3 DUP1 SLOAD PUSH2 0x2D4D SWAP1 PUSH2 0x4554 JUMP JUMPDEST SWAP1 PUSH1 0x0 MSTORE PUSH1 0x20 PUSH1 0x0 KECCAK256 SWAP1 PUSH1 0x1F ADD PUSH1 0x20 SWAP1 DIV DUP2 ADD SWAP3 DUP3 PUSH2 0x2D6F JUMPI PUSH1 0x0 DUP6 SSTORE PUSH2 0x2DB6 JUMP JUMPDEST DUP3 PUSH1 0x1F LT PUSH2 0x2D88 JUMPI DUP1 MLOAD PUSH1 0xFF NOT AND DUP4 DUP1 ADD OR DUP6 SSTORE PUSH2 0x2DB6 JUMP JUMPDEST DUP3 DUP1 ADD PUSH1 0x1 ADD DUP6 SSTORE DUP3 ISZERO PUSH2 0x2DB6 JUMPI SWAP2 DUP3 ADD JUMPDEST DUP3 DUP2 GT ISZERO PUSH2 0x2DB5 JUMPI DUP3 MLOAD DUP3 SSTORE SWAP2 PUSH1 0x20 ADD SWAP2 SWAP1 PUSH1 0x1 ADD SWAP1 PUSH2 0x2D9A JUMP JUMPDEST JUMPDEST POP SWAP1 POP PUSH2 0x2DC3 SWAP2 SWAP1 PUSH2 0x2E29 JUMP JUMPDEST POP SWAP1 JUMP JUMPDEST DUP3 PUSH1 0xA DUP2 ADD SWAP3 DUP3 ISZERO PUSH2 0x2DF6 JUMPI SWAP2 PUSH1 0x20 MUL DUP3 ADD JUMPDEST DUP3 DUP2 GT ISZERO PUSH2 0x2DF5 JUMPI DUP3 MLOAD DUP3 SSTORE SWAP2 PUSH1 0x20 ADD SWAP2 SWAP1 PUSH1 0x1 ADD SWAP1 PUSH2 0x2DDA JUMP JUMPDEST JUMPDEST POP SWAP1 POP PUSH2 0x2E03 SWAP2 SWAP1 PUSH2 0x2E29 JUMP JUMPDEST POP SWAP1 JUMP JUMPDEST PUSH1 0x40 MLOAD DUP1 PUSH1 0xA0 ADD PUSH1 0x40 MSTORE DUP1 PUSH1 0x5 SWAP1 PUSH1 0x20 DUP3 MUL DUP1 CALLDATASIZE DUP4 CALLDATACOPY DUP1 DUP3 ADD SWAP2 POP POP SWAP1 POP POP SWAP1 JUMP JUMPDEST JUMPDEST DUP1 DUP3 GT ISZERO PUSH2 0x2E42 JUMPI PUSH1 0x0 DUP2 PUSH1 0x0 SWAP1 SSTORE POP PUSH1 0x1 ADD PUSH2 0x2E2A JUMP JUMPDEST POP SWAP1 JUMP JUMPDEST PUSH1 0x0 PUSH2 0x2E59 PUSH2 0x2E54 DUP5 PUSH2 0x421F JUMP JUMPDEST PUSH2 0x41FA JUMP JUMPDEST SWAP1 POP DUP1 DUP3 DUP6 PUSH1 0x20 DUP7 MUL DUP3 ADD GT ISZERO PUSH2 0x2E73 JUMPI PUSH2 0x2E72 PUSH2 0x47A1 JUMP JUMPDEST JUMPDEST PUSH1 0x0 JUMPDEST DUP6 DUP2 LT ISZERO PUSH2 0x2EA3 JUMPI DUP2 PUSH2 0x2E89 DUP9 DUP3 PUSH2 0x3123 JUMP JUMPDEST DUP5 MSTORE PUSH1 0x20 DUP5 ADD SWAP4 POP PUSH1 0x20 DUP4 ADD SWAP3 POP POP PUSH1 0x1 DUP2 ADD SWAP1 POP PUSH2 0x2E76 JUMP JUMPDEST POP POP POP SWAP4 SWAP3 POP POP POP JUMP JUMPDEST PUSH1 0x0 PUSH2 0x2EC0 PUSH2 0x2EBB DUP5 PUSH2 0x4245 JUMP JUMPDEST PUSH2 0x41FA JUMP JUMPDEST SWAP1 POP DUP1 DUP3 DUP6 PUSH1 0x20 DUP7 MUL DUP3 ADD GT ISZERO PUSH2 0x2EDA JUMPI PUSH2 0x2ED9 PUSH2 0x47A1 JUMP JUMPDEST JUMPDEST PUSH1 0x0 JUMPDEST DUP6 DUP2 LT ISZERO PUSH2 0x2F0A JUMPI DUP2 PUSH2 0x2EF0 DUP9 DUP3 PUSH2 0x310E JUMP JUMPDEST DUP5 MSTORE PUSH1 0x20 DUP5 ADD SWAP4 POP PUSH1 0x20 DUP4 ADD SWAP3 POP POP PUSH1 0x1 DUP2 ADD SWAP1 POP PUSH2 0x2EDD JUMP JUMPDEST POP POP POP SWAP4 SWAP3 POP POP POP JUMP JUMPDEST PUSH1 0x0 PUSH2 0x2F27 PUSH2 0x2F22 DUP5 PUSH2 0x426B JUMP JUMPDEST PUSH2 0x41FA JUMP JUMPDEST SWAP1 POP DUP3 DUP2 MSTORE PUSH1 0x20 DUP2 ADD DUP5 DUP5 DUP5 ADD GT ISZERO PUSH2 0x2F43 JUMPI PUSH2 0x2F42 PUSH2 0x47A6 JUMP JUMPDEST JUMPDEST PUSH2 0x2F4E DUP5 DUP3 DUP6 PUSH2 0x4512 JUMP JUMPDEST POP SWAP4 SWAP3 POP POP POP JUMP JUMPDEST PUSH1 0x0 PUSH2 0x2F69 PUSH2 0x2F64 DUP5 PUSH2 0x429C JUMP JUMPDEST PUSH2 0x41FA JUMP JUMPDEST SWAP1 POP DUP3 DUP2 MSTORE PUSH1 0x20 DUP2 ADD DUP5 DUP5 DUP5 ADD GT ISZERO PUSH2 0x2F85 JUMPI PUSH2 0x2F84 PUSH2 0x47A6 JUMP JUMPDEST JUMPDEST PUSH2 0x2F90 DUP5 DUP3 DUP6 PUSH2 0x4512 JUMP JUMPDEST POP SWAP4 SWAP3 POP POP POP JUMP JUMPDEST PUSH1 0x0 PUSH2 0x2FAB PUSH2 0x2FA6 DUP5 PUSH2 0x429C JUMP JUMPDEST PUSH2 0x41FA JUMP JUMPDEST SWAP1 POP DUP3 DUP2 MSTORE PUSH1 0x20 DUP2 ADD DUP5 DUP5 DUP5 ADD GT ISZERO PUSH2 0x2FC7 JUMPI PUSH2 0x2FC6 PUSH2 0x47A6 JUMP JUMPDEST JUMPDEST PUSH2 0x2FD2 DUP5 DUP3 DUP6 PUSH2 0x4521 JUMP JUMPDEST POP SWAP4 SWAP3 POP POP POP JUMP JUMPDEST PUSH1 0x0 DUP2 CALLDATALOAD SWAP1 POP PUSH2 0x2FE9 DUP2 PUSH2 0x5267 JUMP JUMPDEST SWAP3 SWAP2 POP POP JUMP JUMPDEST PUSH1 0x0 DUP3 PUSH1 0x1F DUP4 ADD SLT PUSH2 0x3004 JUMPI PUSH2 0x3003 PUSH2 0x479C JUMP JUMPDEST JUMPDEST PUSH1 0xA PUSH2 0x3011 DUP5 DUP3 DUP6 PUSH2 0x2E46 JUMP JUMPDEST SWAP2 POP POP SWAP3 SWAP2 POP POP JUMP JUMPDEST PUSH1 0x0 DUP3 PUSH1 0x1F DUP4 ADD SLT PUSH2 0x302F JUMPI PUSH2 0x302E PUSH2 0x479C JUMP JUMPDEST JUMPDEST PUSH1 0x5 PUSH2 0x303C DUP5 DUP3 DUP6 PUSH2 0x2EAD JUMP JUMPDEST SWAP2 POP POP SWAP3 SWAP2 POP POP JUMP JUMPDEST PUSH1 0x0 DUP2 CALLDATALOAD SWAP1 POP PUSH2 0x3054 DUP2 PUSH2 0x527E JUMP JUMPDEST SWAP3 SWAP2 POP POP JUMP JUMPDEST PUSH1 0x0 DUP2 CALLDATALOAD SWAP1 POP PUSH2 0x3069 DUP2 PUSH2 0x5295 JUMP JUMPDEST SWAP3 SWAP2 POP POP JUMP JUMPDEST PUSH1 0x0 DUP2 MLOAD SWAP1 POP PUSH2 0x307E DUP2 PUSH2 0x5295 JUMP JUMPDEST SWAP3 SWAP2 POP POP JUMP JUMPDEST PUSH1 0x0 DUP3 PUSH1 0x1F DUP4 ADD SLT PUSH2 0x3099 JUMPI PUSH2 0x3098 PUSH2 0x479C JUMP JUMPDEST JUMPDEST DUP2 CALLDATALOAD PUSH2 0x30A9 DUP5 DUP3 PUSH1 0x20 DUP7 ADD PUSH2 0x2F14 JUMP JUMPDEST SWAP2 POP POP SWAP3 SWAP2 POP POP JUMP JUMPDEST PUSH1 0x0 DUP3 PUSH1 0x1F DUP4 ADD SLT PUSH2 0x30C7 JUMPI PUSH2 0x30C6 PUSH2 0x479C JUMP JUMPDEST JUMPDEST DUP2 CALLDATALOAD PUSH2 0x30D7 DUP5 DUP3 PUSH1 0x20 DUP7 ADD PUSH2 0x2F56 JUMP JUMPDEST SWAP2 POP POP SWAP3 SWAP2 POP POP JUMP JUMPDEST PUSH1 0x0 DUP3 PUSH1 0x1F DUP4 ADD SLT PUSH2 0x30F5 JUMPI PUSH2 0x30F4 PUSH2 0x479C JUMP JUMPDEST JUMPDEST DUP2 MLOAD PUSH2 0x3105 DUP5 DUP3 PUSH1 0x20 DUP7 ADD PUSH2 0x2F98 JUMP JUMPDEST SWAP2 POP POP SWAP3 SWAP2 POP POP JUMP JUMPDEST PUSH1 0x0 DUP2 CALLDATALOAD SWAP1 POP PUSH2 0x311D DUP2 PUSH2 0x52AC JUMP JUMPDEST SWAP3 SWAP2 POP POP JUMP JUMPDEST PUSH1 0x0 DUP2 MLOAD SWAP1 POP PUSH2 0x3132 DUP2 PUSH2 0x52AC JUMP JUMPDEST SWAP3 SWAP2 POP POP JUMP JUMPDEST PUSH1 0x0 PUSH1 0x20 DUP3 DUP5 SUB SLT ISZERO PUSH2 0x314E JUMPI PUSH2 0x314D PUSH2 0x47B0 JUMP JUMPDEST JUMPDEST PUSH1 0x0 PUSH2 0x315C DUP5 DUP3 DUP6 ADD PUSH2 0x2FDA JUMP JUMPDEST SWAP2 POP POP SWAP3 SWAP2 POP POP JUMP JUMPDEST PUSH1 0x0 DUP1 PUSH1 0x40 DUP4 DUP6 SUB SLT ISZERO PUSH2 0x317C JUMPI PUSH2 0x317B PUSH2 0x47B0 JUMP JUMPDEST JUMPDEST PUSH1 0x0 PUSH2 0x318A DUP6 DUP3 DUP7 ADD PUSH2 0x2FDA JUMP JUMPDEST SWAP3 POP POP PUSH1 0x20 PUSH2 0x319B DUP6 DUP3 DUP7 ADD PUSH2 0x2FDA JUMP JUMPDEST SWAP2 POP POP SWAP3 POP SWAP3 SWAP1 POP JUMP JUMPDEST PUSH1 0x0 DUP1 PUSH1 0x0 PUSH1 0x60 DUP5 DUP7 SUB SLT ISZERO PUSH2 0x31BE JUMPI PUSH2 0x31BD PUSH2 0x47B0 JUMP JUMPDEST JUMPDEST PUSH1 0x0 PUSH2 0x31CC DUP7 DUP3 DUP8 ADD PUSH2 0x2FDA JUMP JUMPDEST SWAP4 POP POP PUSH1 0x20 PUSH2 0x31DD DUP7 DUP3 DUP8 ADD PUSH2 0x2FDA JUMP JUMPDEST SWAP3 POP POP PUSH1 0x40 PUSH2 0x31EE DUP7 DUP3 DUP8 ADD PUSH2 0x310E JUMP JUMPDEST SWAP2 POP POP SWAP3 POP SWAP3 POP SWAP3 JUMP JUMPDEST PUSH1 0x0 DUP1 PUSH1 0x0 DUP1 PUSH1 0x80 DUP6 DUP8 SUB SLT ISZERO PUSH2 0x3212 JUMPI PUSH2 0x3211 PUSH2 0x47B0 JUMP JUMPDEST JUMPDEST PUSH1 0x0 PUSH2 0x3220 DUP8 DUP3 DUP9 ADD PUSH2 0x2FDA JUMP JUMPDEST SWAP5 POP POP PUSH1 0x20 PUSH2 0x3231 DUP8 DUP3 DUP9 ADD PUSH2 0x2FDA JUMP JUMPDEST SWAP4 POP POP PUSH1 0x40 PUSH2 0x3242 DUP8 DUP3 DUP9 ADD PUSH2 0x310E JUMP JUMPDEST SWAP3 POP POP PUSH1 0x60 DUP6 ADD CALLDATALOAD PUSH8 0xFFFFFFFFFFFFFFFF DUP2 GT ISZERO PUSH2 0x3263 JUMPI PUSH2 0x3262 PUSH2 0x47AB JUMP JUMPDEST JUMPDEST PUSH2 0x326F DUP8 DUP3 DUP9 ADD PUSH2 0x3084 JUMP JUMPDEST SWAP2 POP POP SWAP3 SWAP6 SWAP2 SWAP5 POP SWAP3 POP JUMP JUMPDEST PUSH1 0x0 DUP1 PUSH1 0x40 DUP4 DUP6 SUB SLT ISZERO PUSH2 0x3292 JUMPI PUSH2 0x3291 PUSH2 0x47B0 JUMP JUMPDEST JUMPDEST PUSH1 0x0 PUSH2 0x32A0 DUP6 DUP3 DUP7 ADD PUSH2 0x2FDA JUMP JUMPDEST SWAP3 POP POP PUSH1 0x20 PUSH2 0x32B1 DUP6 DUP3 DUP7 ADD PUSH2 0x3045 JUMP JUMPDEST SWAP2 POP POP SWAP3 POP SWAP3 SWAP1 POP JUMP JUMPDEST PUSH1 0x0 DUP1 PUSH1 0x40 DUP4 DUP6 SUB SLT ISZERO PUSH2 0x32D2 JUMPI PUSH2 0x32D1 PUSH2 0x47B0 JUMP JUMPDEST JUMPDEST PUSH1 0x0 PUSH2 0x32E0 DUP6 DUP3 DUP7 ADD PUSH2 0x2FDA JUMP JUMPDEST SWAP3 POP POP PUSH1 0x20 PUSH2 0x32F1 DUP6 DUP3 DUP7 ADD PUSH2 0x310E JUMP JUMPDEST SWAP2 POP POP SWAP3 POP SWAP3 SWAP1 POP JUMP JUMPDEST PUSH1 0x0 PUSH1 0x20 DUP3 DUP5 SUB SLT ISZERO PUSH2 0x3311 JUMPI PUSH2 0x3310 PUSH2 0x47B0 JUMP JUMPDEST JUMPDEST PUSH1 0x0 PUSH2 0x331F DUP5 DUP3 DUP6 ADD PUSH2 0x305A JUMP JUMPDEST SWAP2 POP POP SWAP3 SWAP2 POP POP JUMP JUMPDEST PUSH1 0x0 PUSH1 0x20 DUP3 DUP5 SUB SLT ISZERO PUSH2 0x333E JUMPI PUSH2 0x333D PUSH2 0x47B0 JUMP JUMPDEST JUMPDEST PUSH1 0x0 PUSH2 0x334C DUP5 DUP3 DUP6 ADD PUSH2 0x306F JUMP JUMPDEST SWAP2 POP POP SWAP3 SWAP2 POP POP JUMP JUMPDEST PUSH1 0x0 PUSH1 0x20 DUP3 DUP5 SUB SLT ISZERO PUSH2 0x336B JUMPI PUSH2 0x336A PUSH2 0x47B0 JUMP JUMPDEST JUMPDEST PUSH1 0x0 DUP3 ADD CALLDATALOAD PUSH8 0xFFFFFFFFFFFFFFFF DUP2 GT ISZERO PUSH2 0x3389 JUMPI PUSH2 0x3388 PUSH2 0x47AB JUMP JUMPDEST JUMPDEST PUSH2 0x3395 DUP5 DUP3 DUP6 ADD PUSH2 0x30B2 JUMP JUMPDEST SWAP2 POP POP SWAP3 SWAP2 POP POP JUMP JUMPDEST PUSH1 0x0 PUSH1 0x20 DUP3 DUP5 SUB SLT ISZERO PUSH2 0x33B4 JUMPI PUSH2 0x33B3 PUSH2 0x47B0 JUMP JUMPDEST JUMPDEST PUSH1 0x0 DUP3 ADD MLOAD PUSH8 0xFFFFFFFFFFFFFFFF DUP2 GT ISZERO PUSH2 0x33D2 JUMPI PUSH2 0x33D1 PUSH2 0x47AB JUMP JUMPDEST JUMPDEST PUSH2 0x33DE DUP5 DUP3 DUP6 ADD PUSH2 0x30E0 JUMP JUMPDEST SWAP2 POP POP SWAP3 SWAP2 POP POP JUMP JUMPDEST PUSH1 0x0 DUP1 PUSH1 0x0 PUSH2 0x180 DUP5 DUP7 SUB SLT ISZERO PUSH2 0x3401 JUMPI PUSH2 0x3400 PUSH2 0x47B0 JUMP JUMPDEST JUMPDEST PUSH1 0x0 DUP5 ADD MLOAD PUSH8 0xFFFFFFFFFFFFFFFF DUP2 GT ISZERO PUSH2 0x341F JUMPI PUSH2 0x341E PUSH2 0x47AB JUMP JUMPDEST JUMPDEST PUSH2 0x342B DUP7 DUP3 DUP8 ADD PUSH2 0x30E0 JUMP JUMPDEST SWAP4 POP POP PUSH1 0x20 DUP5 ADD MLOAD PUSH8 0xFFFFFFFFFFFFFFFF DUP2 GT ISZERO PUSH2 0x344C JUMPI PUSH2 0x344B PUSH2 0x47AB JUMP JUMPDEST JUMPDEST PUSH2 0x3458 DUP7 DUP3 DUP8 ADD PUSH2 0x30E0 JUMP JUMPDEST SWAP3 POP POP PUSH1 0x40 PUSH2 0x3469 DUP7 DUP3 DUP8 ADD PUSH2 0x2FEF JUMP JUMPDEST SWAP2 POP POP SWAP3 POP SWAP3 POP SWAP3 JUMP JUMPDEST PUSH1 0x0 PUSH1 0x20 DUP3 DUP5 SUB SLT ISZERO PUSH2 0x3489 JUMPI PUSH2 0x3488 PUSH2 0x47B0 JUMP JUMPDEST JUMPDEST PUSH1 0x0 PUSH2 0x3497 DUP5 DUP3 DUP6 ADD PUSH2 0x310E JUMP JUMPDEST SWAP2 POP POP SWAP3 SWAP2 POP POP JUMP JUMPDEST PUSH1 0x0 PUSH1 0x20 DUP3 DUP5 SUB SLT ISZERO PUSH2 0x34B6 JUMPI PUSH2 0x34B5 PUSH2 0x47B0 JUMP JUMPDEST JUMPDEST PUSH1 0x0 PUSH2 0x34C4 DUP5 DUP3 DUP6 ADD PUSH2 0x3123 JUMP JUMPDEST SWAP2 POP POP SWAP3 SWAP2 POP POP JUMP JUMPDEST PUSH1 0x0 DUP1 PUSH1 0xC0 DUP4 DUP6 SUB SLT ISZERO PUSH2 0x34E4 JUMPI PUSH2 0x34E3 PUSH2 0x47B0 JUMP JUMPDEST JUMPDEST PUSH1 0x0 PUSH2 0x34F2 DUP6 DUP3 DUP7 ADD PUSH2 0x310E JUMP JUMPDEST SWAP3 POP POP PUSH1 0x20 PUSH2 0x3503 DUP6 DUP3 DUP7 ADD PUSH2 0x301A JUMP JUMPDEST SWAP2 POP POP SWAP3 POP SWAP3 SWAP1 POP JUMP JUMPDEST PUSH1 0x0 PUSH2 0x3519 DUP4 DUP4 PUSH2 0x3C40 JUMP JUMPDEST PUSH1 0x20 DUP4 ADD SWAP1 POP SWAP3 SWAP2 POP POP JUMP JUMPDEST PUSH2 0x352E DUP2 PUSH2 0x449E JUMP JUMPDEST DUP3 MSTORE POP POP JUMP JUMPDEST PUSH2 0x3545 PUSH2 0x3540 DUP3 PUSH2 0x449E JUMP JUMPDEST PUSH2 0x461A JUMP JUMPDEST DUP3 MSTORE POP POP JUMP JUMPDEST PUSH2 0x3554 DUP2 PUSH2 0x42F6 JUMP JUMPDEST PUSH2 0x355E DUP2 DUP5 PUSH2 0x433C JUMP JUMPDEST SWAP3 POP PUSH2 0x3569 DUP3 PUSH2 0x42CD JUMP JUMPDEST DUP1 PUSH1 0x0 JUMPDEST DUP4 DUP2 LT ISZERO PUSH2 0x35A1 JUMPI PUSH2 0x357E DUP3 PUSH2 0x4789 JUMP JUMPDEST PUSH2 0x3588 DUP8 DUP3 PUSH2 0x350D JUMP JUMPDEST SWAP7 POP PUSH2 0x3593 DUP4 PUSH2 0x4322 JUMP JUMPDEST SWAP3 POP POP PUSH1 0x1 DUP2 ADD SWAP1 POP PUSH2 0x356D JUMP JUMPDEST POP POP POP POP POP POP JUMP JUMPDEST PUSH2 0x35B2 DUP2 PUSH2 0x4301 JUMP JUMPDEST PUSH2 0x35BC DUP2 DUP5 PUSH2 0x4347 JUMP JUMPDEST SWAP3 POP PUSH2 0x35C7 DUP3 PUSH2 0x42D7 JUMP JUMPDEST DUP1 PUSH1 0x0 JUMPDEST DUP4 DUP2 LT ISZERO PUSH2 0x35F8 JUMPI DUP2 MLOAD PUSH2 0x35DF DUP8 DUP3 PUSH2 0x350D JUMP JUMPDEST SWAP7 POP PUSH2 0x35EA DUP4 PUSH2 0x432F JUMP JUMPDEST SWAP3 POP POP PUSH1 0x1 DUP2 ADD SWAP1 POP PUSH2 0x35CB JUMP JUMPDEST POP POP POP POP POP POP JUMP JUMPDEST PUSH2 0x3609 DUP2 PUSH2 0x44B0 JUMP JUMPDEST DUP3 MSTORE POP POP JUMP JUMPDEST PUSH1 0x0 PUSH2 0x361A DUP3 PUSH2 0x430C JUMP JUMPDEST PUSH2 0x3624 DUP2 DUP6 PUSH2 0x4352 JUMP JUMPDEST SWAP4 POP PUSH2 0x3634 DUP2 DUP6 PUSH1 0x20 DUP7 ADD PUSH2 0x4521 JUMP JUMPDEST PUSH2 0x363D DUP2 PUSH2 0x47B5 JUMP JUMPDEST DUP5 ADD SWAP2 POP POP SWAP3 SWAP2 POP POP JUMP JUMPDEST PUSH1 0x0 PUSH2 0x3653 DUP3 PUSH2 0x4317 JUMP JUMPDEST PUSH2 0x365D DUP2 DUP6 PUSH2 0x4363 JUMP JUMPDEST SWAP4 POP PUSH2 0x366D DUP2 DUP6 PUSH1 0x20 DUP7 ADD PUSH2 0x4521 JUMP JUMPDEST PUSH2 0x3676 DUP2 PUSH2 0x47B5 JUMP JUMPDEST DUP5 ADD SWAP2 POP POP SWAP3 SWAP2 POP POP JUMP JUMPDEST PUSH1 0x0 PUSH2 0x368C DUP3 PUSH2 0x4317 JUMP JUMPDEST PUSH2 0x3696 DUP2 DUP6 PUSH2 0x4374 JUMP JUMPDEST SWAP4 POP PUSH2 0x36A6 DUP2 DUP6 PUSH1 0x20 DUP7 ADD PUSH2 0x4521 JUMP JUMPDEST DUP1 DUP5 ADD SWAP2 POP POP SWAP3 SWAP2 POP POP JUMP JUMPDEST PUSH1 0x0 DUP2 SLOAD PUSH2 0x36BF DUP2 PUSH2 0x4554 JUMP JUMPDEST PUSH2 0x36C9 DUP2 DUP7 PUSH2 0x4374 JUMP JUMPDEST SWAP5 POP PUSH1 0x1 DUP3 AND PUSH1 0x0 DUP2 EQ PUSH2 0x36E4 JUMPI PUSH1 0x1 DUP2 EQ PUSH2 0x36F5 JUMPI PUSH2 0x3728 JUMP JUMPDEST PUSH1 0xFF NOT DUP4 AND DUP7 MSTORE DUP2 DUP7 ADD SWAP4 POP PUSH2 0x3728 JUMP JUMPDEST PUSH2 0x36FE DUP6 PUSH2 0x42E1 JUMP JUMPDEST PUSH1 0x0 JUMPDEST DUP4 DUP2 LT ISZERO PUSH2 0x3720 JUMPI DUP2 SLOAD DUP2 DUP10 ADD MSTORE PUSH1 0x1 DUP3 ADD SWAP2 POP PUSH1 0x20 DUP2 ADD SWAP1 POP PUSH2 0x3701 JUMP JUMPDEST DUP4 DUP9 ADD SWAP6 POP POP POP JUMPDEST POP POP POP SWAP3 SWAP2 POP POP JUMP JUMPDEST PUSH1 0x0 PUSH2 0x373E PUSH1 0x67 DUP4 PUSH2 0x4363 JUMP JUMPDEST SWAP2 POP PUSH2 0x3749 DUP3 PUSH2 0x47E0 JUMP JUMPDEST PUSH1 0x80 DUP3 ADD SWAP1 POP SWAP2 SWAP1 POP JUMP JUMPDEST PUSH1 0x0 PUSH2 0x3761 PUSH1 0x61 DUP4 PUSH2 0x4374 JUMP JUMPDEST SWAP2 POP PUSH2 0x376C DUP3 PUSH2 0x487B JUMP JUMPDEST PUSH1 0x61 DUP3 ADD SWAP1 POP SWAP2 SWAP1 POP JUMP JUMPDEST PUSH1 0x0 PUSH2 0x3784 PUSH1 0x2B DUP4 PUSH2 0x4363 JUMP JUMPDEST SWAP2 POP PUSH2 0x378F DUP3 PUSH2 0x4916 JUMP JUMPDEST PUSH1 0x40 DUP3 ADD SWAP1 POP SWAP2 SWAP1 POP JUMP JUMPDEST PUSH1 0x0 PUSH2 0x37A7 PUSH1 0x32 DUP4 PUSH2 0x4363 JUMP JUMPDEST SWAP2 POP PUSH2 0x37B2 DUP3 PUSH2 0x4965 JUMP JUMPDEST PUSH1 0x40 DUP3 ADD SWAP1 POP SWAP2 SWAP1 POP JUMP JUMPDEST PUSH1 0x0 PUSH2 0x37CA PUSH1 0x26 DUP4 PUSH2 0x4363 JUMP JUMPDEST SWAP2 POP PUSH2 0x37D5 DUP3 PUSH2 0x49B4 JUMP JUMPDEST PUSH1 0x40 DUP3 ADD SWAP1 POP SWAP2 SWAP1 POP JUMP JUMPDEST PUSH1 0x0 PUSH2 0x37ED PUSH1 0x2 DUP4 PUSH2 0x4374 JUMP JUMPDEST SWAP2 POP PUSH2 0x37F8 DUP3 PUSH2 0x4A03 JUMP JUMPDEST PUSH1 0x2 DUP3 ADD SWAP1 POP SWAP2 SWAP1 POP JUMP JUMPDEST PUSH1 0x0 PUSH2 0x3810 PUSH1 0x14 DUP4 PUSH2 0x4374 JUMP JUMPDEST SWAP2 POP PUSH2 0x381B DUP3 PUSH2 0x4A2C JUMP JUMPDEST PUSH1 0x14 DUP3 ADD SWAP1 POP SWAP2 SWAP1 POP JUMP JUMPDEST PUSH1 0x0 PUSH2 0x3833 PUSH1 0x25 DUP4 PUSH2 0x4363 JUMP JUMPDEST SWAP2 POP PUSH2 0x383E DUP3 PUSH2 0x4A55 JUMP JUMPDEST PUSH1 0x40 DUP3 ADD SWAP1 POP SWAP2 SWAP1 POP JUMP JUMPDEST PUSH1 0x0 PUSH2 0x3856 PUSH1 0x11 DUP4 PUSH2 0x4374 JUMP JUMPDEST SWAP2 POP PUSH2 0x3861 DUP3 PUSH2 0x4AA4 JUMP JUMPDEST PUSH1 0x11 DUP3 ADD SWAP1 POP SWAP2 SWAP1 POP JUMP JUMPDEST PUSH1 0x0 PUSH2 0x3879 PUSH1 0x1C DUP4 PUSH2 0x4363 JUMP JUMPDEST SWAP2 POP PUSH2 0x3884 DUP3 PUSH2 0x4ACD JUMP JUMPDEST PUSH1 0x20 DUP3 ADD SWAP1 POP SWAP2 SWAP1 POP JUMP JUMPDEST PUSH1 0x0 PUSH2 0x389C PUSH1 0x24 DUP4 PUSH2 0x4363 JUMP JUMPDEST SWAP2 POP PUSH2 0x38A7 DUP3 PUSH2 0x4AF6 JUMP JUMPDEST PUSH1 0x40 DUP3 ADD SWAP1 POP SWAP2 SWAP1 POP JUMP JUMPDEST PUSH1 0x0 PUSH2 0x38BF PUSH1 0x19 DUP4 PUSH2 0x4363 JUMP JUMPDEST SWAP2 POP PUSH2 0x38CA DUP3 PUSH2 0x4B45 JUMP JUMPDEST PUSH1 0x20 DUP3 ADD SWAP1 POP SWAP2 SWAP1 POP JUMP JUMPDEST PUSH1 0x0 PUSH2 0x38E2 PUSH1 0x18 DUP4 PUSH2 0x4374 JUMP JUMPDEST SWAP2 POP PUSH2 0x38ED DUP3 PUSH2 0x4B6E JUMP JUMPDEST PUSH1 0x18 DUP3 ADD SWAP1 POP SWAP2 SWAP1 POP JUMP JUMPDEST PUSH1 0x0 PUSH2 0x3905 PUSH1 0x7 DUP4 PUSH2 0x4374 JUMP JUMPDEST SWAP2 POP PUSH2 0x3910 DUP3 PUSH2 0x4B97 JUMP JUMPDEST PUSH1 0x7 DUP3 ADD SWAP1 POP SWAP2 SWAP1 POP JUMP JUMPDEST PUSH1 0x0 PUSH2 0x3928 PUSH1 0x2C DUP4 PUSH2 0x4363 JUMP JUMPDEST SWAP2 POP PUSH2 0x3933 DUP3 PUSH2 0x4BC0 JUMP JUMPDEST PUSH1 0x40 DUP3 ADD SWAP1 POP SWAP2 SWAP1 POP JUMP JUMPDEST PUSH1 0x0 PUSH2 0x394B PUSH1 0x23 DUP4 PUSH2 0x4374 JUMP JUMPDEST SWAP2 POP PUSH2 0x3956 DUP3 PUSH2 0x4C0F JUMP JUMPDEST PUSH1 0x23 DUP3 ADD SWAP1 POP SWAP2 SWAP1 POP JUMP JUMPDEST PUSH1 0x0 PUSH2 0x396E PUSH1 0x8C DUP4 PUSH2 0x4374 JUMP JUMPDEST SWAP2 POP PUSH2 0x3979 DUP3 PUSH2 0x4C5E JUMP JUMPDEST PUSH1 0x8C DUP3 ADD SWAP1 POP SWAP2 SWAP1 POP JUMP JUMPDEST PUSH1 0x0 PUSH2 0x3991 PUSH1 0xB DUP4 PUSH2 0x4374 JUMP JUMPDEST SWAP2 POP PUSH2 0x399C DUP3 PUSH2 0x4D1F JUMP JUMPDEST PUSH1 0xB DUP3 ADD SWAP1 POP SWAP2 SWAP1 POP JUMP JUMPDEST PUSH1 0x0 PUSH2 0x39B4 PUSH1 0x38 DUP4 PUSH2 0x4363 JUMP JUMPDEST SWAP2 POP PUSH2 0x39BF DUP3 PUSH2 0x4D48 JUMP JUMPDEST PUSH1 0x40 DUP3 ADD SWAP1 POP SWAP2 SWAP1 POP JUMP JUMPDEST PUSH1 0x0 PUSH2 0x39D7 PUSH1 0x2A DUP4 PUSH2 0x4363 JUMP JUMPDEST SWAP2 POP PUSH2 0x39E2 DUP3 PUSH2 0x4D97 JUMP JUMPDEST PUSH1 0x40 DUP3 ADD SWAP1 POP SWAP2 SWAP1 POP JUMP JUMPDEST PUSH1 0x0 PUSH2 0x39FA PUSH1 0x29 DUP4 PUSH2 0x4363 JUMP JUMPDEST SWAP2 POP PUSH2 0x3A05 DUP3 PUSH2 0x4DE6 JUMP JUMPDEST PUSH1 0x40 DUP3 ADD SWAP1 POP SWAP2 SWAP1 POP JUMP JUMPDEST PUSH1 0x0 PUSH2 0x3A1D PUSH1 0x2 DUP4 PUSH2 0x4374 JUMP JUMPDEST SWAP2 POP PUSH2 0x3A28 DUP3 PUSH2 0x4E35 JUMP JUMPDEST PUSH1 0x2 DUP3 ADD SWAP1 POP SWAP2 SWAP1 POP JUMP JUMPDEST PUSH1 0x0 PUSH2 0x3A40 PUSH1 0x3B DUP4 PUSH2 0x4363 JUMP JUMPDEST SWAP2 POP PUSH2 0x3A4B DUP3 PUSH2 0x4E5E JUMP JUMPDEST PUSH1 0x40 DUP3 ADD SWAP1 POP SWAP2 SWAP1 POP JUMP JUMPDEST PUSH1 0x0 PUSH2 0x3A63 PUSH1 0x6E DUP4 PUSH2 0x4374 JUMP JUMPDEST SWAP2 POP PUSH2 0x3A6E DUP3 PUSH2 0x4EAD JUMP JUMPDEST PUSH1 0x6E DUP3 ADD SWAP1 POP SWAP2 SWAP1 POP JUMP JUMPDEST PUSH1 0x0 PUSH2 0x3A86 PUSH1 0x20 DUP4 PUSH2 0x4363 JUMP JUMPDEST SWAP2 POP PUSH2 0x3A91 DUP3 PUSH2 0x4F48 JUMP JUMPDEST PUSH1 0x20 DUP3 ADD SWAP1 POP SWAP2 SWAP1 POP JUMP JUMPDEST PUSH1 0x0 PUSH2 0x3AA9 PUSH1 0x2 DUP4 PUSH2 0x4374 JUMP JUMPDEST SWAP2 POP PUSH2 0x3AB4 DUP3 PUSH2 0x4F71 JUMP JUMPDEST PUSH1 0x2 DUP3 ADD SWAP1 POP SWAP2 SWAP1 POP JUMP JUMPDEST PUSH1 0x0 PUSH2 0x3ACC PUSH1 0x12 DUP4 PUSH2 0x4374 JUMP JUMPDEST SWAP2 POP PUSH2 0x3AD7 DUP3 PUSH2 0x4F9A JUMP JUMPDEST PUSH1 0x12 DUP3 ADD SWAP1 POP SWAP2 SWAP1 POP JUMP JUMPDEST PUSH1 0x0 PUSH2 0x3AEF PUSH1 0x2C DUP4 PUSH2 0x4363 JUMP JUMPDEST SWAP2 POP PUSH2 0x3AFA DUP3 PUSH2 0x4FC3 JUMP JUMPDEST PUSH1 0x40 DUP3 ADD SWAP1 POP SWAP2 SWAP1 POP JUMP JUMPDEST PUSH1 0x0 PUSH2 0x3B12 PUSH1 0x26 DUP4 PUSH2 0x4374 JUMP JUMPDEST SWAP2 POP PUSH2 0x3B1D DUP3 PUSH2 0x5012 JUMP JUMPDEST PUSH1 0x26 DUP3 ADD SWAP1 POP SWAP2 SWAP1 POP JUMP JUMPDEST PUSH1 0x0 PUSH2 0x3B35 PUSH1 0x20 DUP4 PUSH2 0x4363 JUMP JUMPDEST SWAP2 POP PUSH2 0x3B40 DUP3 PUSH2 0x5061 JUMP JUMPDEST PUSH1 0x20 DUP3 ADD SWAP1 POP SWAP2 SWAP1 POP JUMP JUMPDEST PUSH1 0x0 PUSH2 0x3B58 PUSH1 0x2F DUP4 PUSH2 0x4363 JUMP JUMPDEST SWAP2 POP PUSH2 0x3B63 DUP3 PUSH2 0x508A JUMP JUMPDEST PUSH1 0x40 DUP3 ADD SWAP1 POP SWAP2 SWAP1 POP JUMP JUMPDEST PUSH1 0x0 PUSH2 0x3B7B PUSH1 0x21 DUP4 PUSH2 0x4363 JUMP JUMPDEST SWAP2 POP PUSH2 0x3B86 DUP3 PUSH2 0x50D9 JUMP JUMPDEST PUSH1 0x40 DUP3 ADD SWAP1 POP SWAP2 SWAP1 POP JUMP JUMPDEST PUSH1 0x0 PUSH2 0x3B9E PUSH1 0x1D DUP4 PUSH2 0x4374 JUMP JUMPDEST SWAP2 POP PUSH2 0x3BA9 DUP3 PUSH2 0x5128 JUMP JUMPDEST PUSH1 0x1D DUP3 ADD SWAP1 POP SWAP2 SWAP1 POP JUMP JUMPDEST PUSH1 0x0 PUSH2 0x3BC1 PUSH1 0x31 DUP4 PUSH2 0x4363 JUMP JUMPDEST SWAP2 POP PUSH2 0x3BCC DUP3 PUSH2 0x5151 JUMP JUMPDEST PUSH1 0x40 DUP3 ADD SWAP1 POP SWAP2 SWAP1 POP JUMP JUMPDEST PUSH1 0x0 PUSH2 0x3BE4 PUSH1 0x2C DUP4 PUSH2 0x4363 JUMP JUMPDEST SWAP2 POP PUSH2 0x3BEF DUP3 PUSH2 0x51A0 JUMP JUMPDEST PUSH1 0x40 DUP3 ADD SWAP1 POP SWAP2 SWAP1 POP JUMP JUMPDEST PUSH1 0x0 PUSH2 0x3C07 PUSH1 0x2C DUP4 PUSH2 0x4374 JUMP JUMPDEST SWAP2 POP PUSH2 0x3C12 DUP3 PUSH2 0x51EF JUMP JUMPDEST PUSH1 0x2C DUP3 ADD SWAP1 POP SWAP2 SWAP1 POP JUMP JUMPDEST PUSH1 0x0 PUSH2 0x3C2A PUSH1 0x13 DUP4 PUSH2 0x4374 JUMP JUMPDEST SWAP2 POP PUSH2 0x3C35 DUP3 PUSH2 0x523E JUMP JUMPDEST PUSH1 0x13 DUP3 ADD SWAP1 POP SWAP2 SWAP1 POP JUMP JUMPDEST PUSH2 0x3C49 DUP2 PUSH2 0x4508 JUMP JUMPDEST DUP3 MSTORE POP POP JUMP JUMPDEST PUSH2 0x3C58 DUP2 PUSH2 0x4508 JUMP JUMPDEST DUP3 MSTORE POP POP JUMP JUMPDEST PUSH1 0x0 PUSH2 0x3C6A DUP3 DUP5 PUSH2 0x3681 JUMP JUMPDEST SWAP2 POP DUP2 SWAP1 POP SWAP3 SWAP2 POP POP JUMP JUMPDEST PUSH1 0x0 PUSH2 0x3C80 DUP3 PUSH2 0x3754 JUMP JUMPDEST SWAP2 POP PUSH2 0x3C8C DUP3 DUP5 PUSH2 0x36B2 JUMP JUMPDEST SWAP2 POP DUP2 SWAP1 POP SWAP3 SWAP2 POP POP JUMP JUMPDEST PUSH1 0x0 PUSH2 0x3CA2 DUP3 PUSH2 0x38D5 JUMP JUMPDEST SWAP2 POP PUSH2 0x3CAD DUP3 PUSH2 0x3961 JUMP JUMPDEST SWAP2 POP PUSH2 0x3CB8 DUP3 PUSH2 0x3BFA JUMP JUMPDEST SWAP2 POP PUSH2 0x3CC3 DUP3 PUSH2 0x393E JUMP JUMPDEST SWAP2 POP PUSH2 0x3CCE DUP3 PUSH2 0x3803 JUMP JUMPDEST SWAP2 POP PUSH2 0x3CDA DUP3 DUP6 PUSH2 0x3534 JUMP JUMPDEST PUSH1 0x14 DUP3 ADD SWAP2 POP PUSH2 0x3CE9 DUP3 PUSH2 0x37E0 JUMP JUMPDEST SWAP2 POP PUSH2 0x3CF4 DUP3 PUSH2 0x3B05 JUMP JUMPDEST SWAP2 POP PUSH2 0x3D00 DUP3 DUP5 PUSH2 0x3681 JUMP JUMPDEST SWAP2 POP PUSH2 0x3D0B DUP3 PUSH2 0x3A10 JUMP JUMPDEST SWAP2 POP DUP2 SWAP1 POP SWAP4 SWAP3 POP POP POP JUMP JUMPDEST PUSH1 0x0 PUSH2 0x3D22 DUP3 PUSH2 0x38F8 JUMP JUMPDEST SWAP2 POP PUSH2 0x3D2E DUP3 DUP5 PUSH2 0x3681 JUMP JUMPDEST SWAP2 POP DUP2 SWAP1 POP SWAP3 SWAP2 POP POP JUMP JUMPDEST PUSH1 0x0 PUSH2 0x3D44 DUP3 PUSH2 0x3984 JUMP JUMPDEST SWAP2 POP PUSH2 0x3D50 DUP3 DUP9 PUSH2 0x3681 JUMP JUMPDEST SWAP2 POP PUSH2 0x3D5B DUP3 PUSH2 0x37E0 JUMP JUMPDEST SWAP2 POP PUSH2 0x3D66 DUP3 PUSH2 0x3ABF JUMP JUMPDEST SWAP2 POP PUSH2 0x3D72 DUP3 DUP8 PUSH2 0x3681 JUMP JUMPDEST SWAP2 POP PUSH2 0x3D7D DUP3 PUSH2 0x37E0 JUMP JUMPDEST SWAP2 POP PUSH2 0x3D88 DUP3 PUSH2 0x3C1D JUMP JUMPDEST SWAP2 POP PUSH2 0x3D94 DUP3 DUP7 PUSH2 0x36B2 JUMP JUMPDEST SWAP2 POP PUSH2 0x3D9F DUP3 PUSH2 0x37E0 JUMP JUMPDEST SWAP2 POP PUSH2 0x3DAA DUP3 PUSH2 0x3849 JUMP JUMPDEST SWAP2 POP PUSH2 0x3DB6 DUP3 DUP6 PUSH2 0x36B2 JUMP JUMPDEST SWAP2 POP PUSH2 0x3DC1 DUP3 PUSH2 0x3A9C JUMP JUMPDEST SWAP2 POP PUSH2 0x3DCC DUP3 PUSH2 0x3B05 JUMP JUMPDEST SWAP2 POP PUSH2 0x3DD8 DUP3 DUP5 PUSH2 0x3681 JUMP JUMPDEST SWAP2 POP PUSH2 0x3DE3 DUP3 PUSH2 0x3A10 JUMP JUMPDEST SWAP2 POP DUP2 SWAP1 POP SWAP7 SWAP6 POP POP POP POP POP POP JUMP JUMPDEST PUSH1 0x0 PUSH2 0x3DFD DUP3 PUSH2 0x3A56 JUMP JUMPDEST SWAP2 POP PUSH2 0x3E09 DUP3 DUP5 PUSH2 0x36B2 JUMP JUMPDEST SWAP2 POP DUP2 SWAP1 POP SWAP3 SWAP2 POP POP JUMP JUMPDEST PUSH1 0x0 PUSH2 0x3E1F DUP3 PUSH2 0x3B91 JUMP JUMPDEST SWAP2 POP PUSH2 0x3E2B DUP3 DUP5 PUSH2 0x3681 JUMP JUMPDEST SWAP2 POP DUP2 SWAP1 POP SWAP3 SWAP2 POP POP JUMP JUMPDEST PUSH1 0x0 PUSH1 0x20 DUP3 ADD SWAP1 POP PUSH2 0x3E4B PUSH1 0x0 DUP4 ADD DUP5 PUSH2 0x3525 JUMP JUMPDEST SWAP3 SWAP2 POP POP JUMP JUMPDEST PUSH1 0x0 PUSH1 0x80 DUP3 ADD SWAP1 POP PUSH2 0x3E66 PUSH1 0x0 DUP4 ADD DUP8 PUSH2 0x3525 JUMP JUMPDEST PUSH2 0x3E73 PUSH1 0x20 DUP4 ADD DUP7 PUSH2 0x3525 JUMP JUMPDEST PUSH2 0x3E80 PUSH1 0x40 DUP4 ADD DUP6 PUSH2 0x3C4F JUMP JUMPDEST DUP2 DUP2 SUB PUSH1 0x60 DUP4 ADD MSTORE PUSH2 0x3E92 DUP2 DUP5 PUSH2 0x360F JUMP JUMPDEST SWAP1 POP SWAP6 SWAP5 POP POP POP POP POP JUMP JUMPDEST PUSH1 0x0 PUSH1 0x40 DUP3 ADD SWAP1 POP PUSH2 0x3EB2 PUSH1 0x0 DUP4 ADD DUP6 PUSH2 0x3525 JUMP JUMPDEST PUSH2 0x3EBF PUSH1 0x20 DUP4 ADD DUP5 PUSH2 0x3C4F JUMP JUMPDEST SWAP4 SWAP3 POP POP POP JUMP JUMPDEST PUSH1 0x0 PUSH2 0x160 DUP3 ADD SWAP1 POP PUSH2 0x3EDC PUSH1 0x0 DUP4 ADD DUP6 PUSH2 0x354B JUMP JUMPDEST DUP2 DUP2 SUB PUSH2 0x140 DUP4 ADD MSTORE PUSH2 0x3EEF DUP2 DUP5 PUSH2 0x3648 JUMP JUMPDEST SWAP1 POP SWAP4 SWAP3 POP POP POP JUMP JUMPDEST PUSH1 0x0 PUSH2 0x140 DUP3 ADD SWAP1 POP PUSH2 0x3F0E PUSH1 0x0 DUP4 ADD DUP6 PUSH2 0x35A9 JUMP JUMPDEST PUSH2 0x3F1B PUSH1 0xA0 DUP4 ADD DUP5 PUSH2 0x35A9 JUMP JUMPDEST SWAP4 SWAP3 POP POP POP JUMP JUMPDEST PUSH1 0x0 PUSH1 0x20 DUP3 ADD SWAP1 POP PUSH2 0x3F37 PUSH1 0x0 DUP4 ADD DUP5 PUSH2 0x3600 JUMP JUMPDEST SWAP3 SWAP2 POP POP JUMP JUMPDEST PUSH1 0x0 PUSH1 0x20 DUP3 ADD SWAP1 POP DUP2 DUP2 SUB PUSH1 0x0 DUP4 ADD MSTORE PUSH2 0x3F57 DUP2 DUP5 PUSH2 0x3648 JUMP JUMPDEST SWAP1 POP SWAP3 SWAP2 POP POP JUMP JUMPDEST PUSH1 0x0 PUSH1 0x20 DUP3 ADD SWAP1 POP DUP2 DUP2 SUB PUSH1 0x0 DUP4 ADD MSTORE PUSH2 0x3F78 DUP2 PUSH2 0x3731 JUMP JUMPDEST SWAP1 POP SWAP2 SWAP1 POP JUMP JUMPDEST PUSH1 0x0 PUSH1 0x20 DUP3 ADD SWAP1 POP DUP2 DUP2 SUB PUSH1 0x0 DUP4 ADD MSTORE PUSH2 0x3F98 DUP2 PUSH2 0x3777 JUMP JUMPDEST SWAP1 POP SWAP2 SWAP1 POP JUMP JUMPDEST PUSH1 0x0 PUSH1 0x20 DUP3 ADD SWAP1 POP DUP2 DUP2 SUB PUSH1 0x0 DUP4 ADD MSTORE PUSH2 0x3FB8 DUP2 PUSH2 0x379A JUMP JUMPDEST SWAP1 POP SWAP2 SWAP1 POP JUMP JUMPDEST PUSH1 0x0 PUSH1 0x20 DUP3 ADD SWAP1 POP DUP2 DUP2 SUB PUSH1 0x0 DUP4 ADD MSTORE PUSH2 0x3FD8 DUP2 PUSH2 0x37BD JUMP JUMPDEST SWAP1 POP SWAP2 SWAP1 POP JUMP JUMPDEST PUSH1 0x0 PUSH1 0x20 DUP3 ADD SWAP1 POP DUP2 DUP2 SUB PUSH1 0x0 DUP4 ADD MSTORE PUSH2 0x3FF8 DUP2 PUSH2 0x3826 JUMP JUMPDEST SWAP1 POP SWAP2 SWAP1 POP JUMP JUMPDEST PUSH1 0x0 PUSH1 0x20 DUP3 ADD SWAP1 POP DUP2 DUP2 SUB PUSH1 0x0 DUP4 ADD MSTORE PUSH2 0x4018 DUP2 PUSH2 0x386C JUMP JUMPDEST SWAP1 POP SWAP2 SWAP1 POP JUMP JUMPDEST PUSH1 0x0 PUSH1 0x20 DUP3 ADD SWAP1 POP DUP2 DUP2 SUB PUSH1 0x0 DUP4 ADD MSTORE PUSH2 0x4038 DUP2 PUSH2 0x388F JUMP JUMPDEST SWAP1 POP SWAP2 SWAP1 POP JUMP JUMPDEST PUSH1 0x0 PUSH1 0x20 DUP3 ADD SWAP1 POP DUP2 DUP2 SUB PUSH1 0x0 DUP4 ADD MSTORE PUSH2 0x4058 DUP2 PUSH2 0x38B2 JUMP JUMPDEST SWAP1 POP SWAP2 SWAP1 POP JUMP JUMPDEST PUSH1 0x0 PUSH1 0x20 DUP3 ADD SWAP1 POP DUP2 DUP2 SUB PUSH1 0x0 DUP4 ADD MSTORE PUSH2 0x4078 DUP2 PUSH2 0x391B JUMP JUMPDEST SWAP1 POP SWAP2 SWAP1 POP JUMP JUMPDEST PUSH1 0x0 PUSH1 0x20 DUP3 ADD SWAP1 POP DUP2 DUP2 SUB PUSH1 0x0 DUP4 ADD MSTORE PUSH2 0x4098 DUP2 PUSH2 0x39A7 JUMP JUMPDEST SWAP1 POP SWAP2 SWAP1 POP JUMP JUMPDEST PUSH1 0x0 PUSH1 0x20 DUP3 ADD SWAP1 POP DUP2 DUP2 SUB PUSH1 0x0 DUP4 ADD MSTORE PUSH2 0x40B8 DUP2 PUSH2 0x39CA JUMP JUMPDEST SWAP1 POP SWAP2 SWAP1 POP JUMP JUMPDEST PUSH1 0x0 PUSH1 0x20 DUP3 ADD SWAP1 POP DUP2 DUP2 SUB PUSH1 0x0 DUP4 ADD MSTORE PUSH2 0x40D8 DUP2 PUSH2 0x39ED JUMP JUMPDEST SWAP1 POP SWAP2 SWAP1 POP JUMP JUMPDEST PUSH1 0x0 PUSH1 0x20 DUP3 ADD SWAP1 POP DUP2 DUP2 SUB PUSH1 0x0 DUP4 ADD MSTORE PUSH2 0x40F8 DUP2 PUSH2 0x3A33 JUMP JUMPDEST SWAP1 POP SWAP2 SWAP1 POP JUMP JUMPDEST PUSH1 0x0 PUSH1 0x20 DUP3 ADD SWAP1 POP DUP2 DUP2 SUB PUSH1 0x0 DUP4 ADD MSTORE PUSH2 0x4118 DUP2 PUSH2 0x3A79 JUMP JUMPDEST SWAP1 POP SWAP2 SWAP1 POP JUMP JUMPDEST PUSH1 0x0 PUSH1 0x20 DUP3 ADD SWAP1 POP DUP2 DUP2 SUB PUSH1 0x0 DUP4 ADD MSTORE PUSH2 0x4138 DUP2 PUSH2 0x3AE2 JUMP JUMPDEST SWAP1 POP SWAP2 SWAP1 POP JUMP JUMPDEST PUSH1 0x0 PUSH1 0x20 DUP3 ADD SWAP1 POP DUP2 DUP2 SUB PUSH1 0x0 DUP4 ADD MSTORE PUSH2 0x4158 DUP2 PUSH2 0x3B28 JUMP JUMPDEST SWAP1 POP SWAP2 SWAP1 POP JUMP JUMPDEST PUSH1 0x0 PUSH1 0x20 DUP3 ADD SWAP1 POP DUP2 DUP2 SUB PUSH1 0x0 DUP4 ADD MSTORE PUSH2 0x4178 DUP2 PUSH2 0x3B4B JUMP JUMPDEST SWAP1 POP SWAP2 SWAP1 POP JUMP JUMPDEST PUSH1 0x0 PUSH1 0x20 DUP3 ADD SWAP1 POP DUP2 DUP2 SUB PUSH1 0x0 DUP4 ADD MSTORE PUSH2 0x4198 DUP2 PUSH2 0x3B6E JUMP JUMPDEST SWAP1 POP SWAP2 SWAP1 POP JUMP JUMPDEST PUSH1 0x0 PUSH1 0x20 DUP3 ADD SWAP1 POP DUP2 DUP2 SUB PUSH1 0x0 DUP4 ADD MSTORE PUSH2 0x41B8 DUP2 PUSH2 0x3BB4 JUMP JUMPDEST SWAP1 POP SWAP2 SWAP1 POP JUMP JUMPDEST PUSH1 0x0 PUSH1 0x20 DUP3 ADD SWAP1 POP DUP2 DUP2 SUB PUSH1 0x0 DUP4 ADD MSTORE PUSH2 0x41D8 DUP2 PUSH2 0x3BD7 JUMP JUMPDEST SWAP1 POP SWAP2 SWAP1 POP JUMP JUMPDEST PUSH1 0x0 PUSH1 0x20 DUP3 ADD SWAP1 POP PUSH2 0x41F4 PUSH1 0x0 DUP4 ADD DUP5 PUSH2 0x3C4F JUMP JUMPDEST SWAP3 SWAP2 POP POP JUMP JUMPDEST PUSH1 0x0 PUSH2 0x4204 PUSH2 0x4215 JUMP JUMPDEST SWAP1 POP PUSH2 0x4210 DUP3 DUP3 PUSH2 0x45A0 JUMP JUMPDEST SWAP2 SWAP1 POP JUMP JUMPDEST PUSH1 0x0 PUSH1 0x40 MLOAD SWAP1 POP SWAP1 JUMP JUMPDEST PUSH1 0x0 PUSH8 0xFFFFFFFFFFFFFFFF DUP3 GT ISZERO PUSH2 0x423A JUMPI PUSH2 0x4239 PUSH2 0x475A JUMP JUMPDEST JUMPDEST PUSH1 0x20 DUP3 MUL SWAP1 POP SWAP2 SWAP1 POP JUMP JUMPDEST PUSH1 0x0 PUSH8 0xFFFFFFFFFFFFFFFF DUP3 GT ISZERO PUSH2 0x4260 JUMPI PUSH2 0x425F PUSH2 0x475A JUMP JUMPDEST JUMPDEST PUSH1 0x20 DUP3 MUL SWAP1 POP SWAP2 SWAP1 POP JUMP JUMPDEST PUSH1 0x0 PUSH8 0xFFFFFFFFFFFFFFFF DUP3 GT ISZERO PUSH2 0x4286 JUMPI PUSH2 0x4285 PUSH2 0x475A JUMP JUMPDEST JUMPDEST PUSH2 0x428F DUP3 PUSH2 0x47B5 JUMP JUMPDEST SWAP1 POP PUSH1 0x20 DUP2 ADD SWAP1 POP SWAP2 SWAP1 POP JUMP JUMPDEST PUSH1 0x0 PUSH8 0xFFFFFFFFFFFFFFFF DUP3 GT ISZERO PUSH2 0x42B7 JUMPI PUSH2 0x42B6 PUSH2 0x475A JUMP JUMPDEST JUMPDEST PUSH2 0x42C0 DUP3 PUSH2 0x47B5 JUMP JUMPDEST SWAP1 POP PUSH1 0x20 DUP2 ADD SWAP1 POP SWAP2 SWAP1 POP JUMP JUMPDEST PUSH1 0x0 DUP2 SWAP1 POP SWAP2 SWAP1 POP JUMP JUMPDEST PUSH1 0x0 DUP2 SWAP1 POP SWAP2 SWAP1 POP JUMP JUMPDEST PUSH1 0x0 DUP2 SWAP1 POP DUP2 PUSH1 0x0 MSTORE PUSH1 0x20 PUSH1 0x0 KECCAK256 SWAP1 POP SWAP2 SWAP1 POP JUMP JUMPDEST PUSH1 0x0 PUSH1 0xA SWAP1 POP SWAP2 SWAP1 POP JUMP JUMPDEST PUSH1 0x0 PUSH1 0x5 SWAP1 POP SWAP2 SWAP1 POP JUMP JUMPDEST PUSH1 0x0 DUP2 MLOAD SWAP1 POP SWAP2 SWAP1 POP JUMP JUMPDEST PUSH1 0x0 DUP2 MLOAD SWAP1 POP SWAP2 SWAP1 POP JUMP JUMPDEST PUSH1 0x0 PUSH1 0x1 DUP3 ADD SWAP1 POP SWAP2 SWAP1 POP JUMP JUMPDEST PUSH1 0x0 PUSH1 0x20 DUP3 ADD SWAP1 POP SWAP2 SWAP1 POP JUMP JUMPDEST PUSH1 0x0 DUP2 SWAP1 POP SWAP3 SWAP2 POP POP JUMP JUMPDEST PUSH1 0x0 DUP2 SWAP1 POP SWAP3 SWAP2 POP POP JUMP JUMPDEST PUSH1 0x0 DUP3 DUP3 MSTORE PUSH1 0x20 DUP3 ADD SWAP1 POP SWAP3 SWAP2 POP POP JUMP JUMPDEST PUSH1 0x0 DUP3 DUP3 MSTORE PUSH1 0x20 DUP3 ADD SWAP1 POP SWAP3 SWAP2 POP POP JUMP JUMPDEST PUSH1 0x0 DUP2 SWAP1 POP SWAP3 SWAP2 POP POP JUMP JUMPDEST PUSH1 0x0 PUSH2 0x438A DUP3 PUSH2 0x4508 JUMP JUMPDEST SWAP2 POP PUSH2 0x4395 DUP4 PUSH2 0x4508 JUMP JUMPDEST SWAP3 POP DUP3 PUSH32 0xFFFFFFFFFFFFFFFFFFFFFFFFFFFFFFFFFFFFFFFFFFFFFFFFFFFFFFFFFFFFFFFF SUB DUP3 GT ISZERO PUSH2 0x43CA JUMPI PUSH2 0x43C9 PUSH2 0x466F JUMP JUMPDEST JUMPDEST DUP3 DUP3 ADD SWAP1 POP SWAP3 SWAP2 POP POP JUMP JUMPDEST PUSH1 0x0 PUSH2 0x43E0 DUP3 PUSH2 0x4508 JUMP JUMPDEST SWAP2 POP PUSH2 0x43EB DUP4 PUSH2 0x4508 JUMP JUMPDEST SWAP3 POP DUP3 PUSH2 0x43FB JUMPI PUSH2 0x43FA PUSH2 0x469E JUMP JUMPDEST JUMPDEST DUP3 DUP3 DIV SWAP1 POP SWAP3 SWAP2 POP POP JUMP JUMPDEST PUSH1 0x0 PUSH2 0x4411 DUP3 PUSH2 0x4508 JUMP JUMPDEST SWAP2 POP PUSH2 0x441C DUP4 PUSH2 0x4508 JUMP JUMPDEST SWAP3 POP DUP2 PUSH32 0xFFFFFFFFFFFFFFFFFFFFFFFFFFFFFFFFFFFFFFFFFFFFFFFFFFFFFFFFFFFFFFFF DIV DUP4 GT DUP3 ISZERO ISZERO AND ISZERO PUSH2 0x4455 JUMPI PUSH2 0x4454 PUSH2 0x466F JUMP JUMPDEST JUMPDEST DUP3 DUP3 MUL SWAP1 POP SWAP3 SWAP2 POP POP JUMP JUMPDEST PUSH1 0x0 PUSH2 0x446B DUP3 PUSH2 0x4508 JUMP JUMPDEST SWAP2 POP PUSH2 0x4476 DUP4 PUSH2 0x4508 JUMP JUMPDEST SWAP3 POP DUP3 DUP3 LT ISZERO PUSH2 0x4489 JUMPI PUSH2 0x4488 PUSH2 0x466F JUMP JUMPDEST JUMPDEST DUP3 DUP3 SUB SWAP1 POP SWAP3 SWAP2 POP POP JUMP JUMPDEST PUSH1 0x0 DUP2 SWAP1 POP SWAP2 SWAP1 POP JUMP JUMPDEST PUSH1 0x0 PUSH2 0x44A9 DUP3 PUSH2 0x44E8 JUMP JUMPDEST SWAP1 POP SWAP2 SWAP1 POP JUMP JUMPDEST PUSH1 0x0 DUP2 ISZERO ISZERO SWAP1 POP SWAP2 SWAP1 POP JUMP JUMPDEST PUSH1 0x0 PUSH32 0xFFFFFFFF00000000000000000000000000000000000000000000000000000000 DUP3 AND SWAP1 POP SWAP2 SWAP1 POP JUMP JUMPDEST PUSH1 0x0 PUSH20 0xFFFFFFFFFFFFFFFFFFFFFFFFFFFFFFFFFFFFFFFF DUP3 AND SWAP1 POP SWAP2 SWAP1 POP JUMP JUMPDEST PUSH1 0x0 DUP2 SWAP1 POP SWAP2 SWAP1 POP JUMP JUMPDEST DUP3 DUP2 DUP4 CALLDATACOPY PUSH1 0x0 DUP4 DUP4 ADD MSTORE POP POP POP JUMP JUMPDEST PUSH1 0x0 JUMPDEST DUP4 DUP2 LT ISZERO PUSH2 0x453F JUMPI DUP1 DUP3 ADD MLOAD DUP2 DUP5 ADD MSTORE PUSH1 0x20 DUP2 ADD SWAP1 POP PUSH2 0x4524 JUMP JUMPDEST DUP4 DUP2 GT ISZERO PUSH2 0x454E JUMPI PUSH1 0x0 DUP5 DUP5 ADD MSTORE JUMPDEST POP POP POP POP JUMP JUMPDEST PUSH1 0x0 PUSH1 0x2 DUP3 DIV SWAP1 POP PUSH1 0x1 DUP3 AND DUP1 PUSH2 0x456C JUMPI PUSH1 0x7F DUP3 AND SWAP2 POP JUMPDEST PUSH1 0x20 DUP3 LT DUP2 EQ ISZERO PUSH2 0x4580 JUMPI PUSH2 0x457F PUSH2 0x46CD JUMP JUMPDEST JUMPDEST POP SWAP2 SWAP1 POP JUMP JUMPDEST PUSH1 0x0 PUSH2 0x4599 PUSH2 0x4594 DUP4 PUSH2 0x47D3 JUMP JUMPDEST PUSH2 0x4494 JUMP JUMPDEST SWAP1 POP SWAP2 SWAP1 POP JUMP JUMPDEST PUSH2 0x45A9 DUP3 PUSH2 0x47B5 JUMP JUMPDEST DUP2 ADD DUP2 DUP2 LT PUSH8 0xFFFFFFFFFFFFFFFF DUP3 GT OR ISZERO PUSH2 0x45C8 JUMPI PUSH2 0x45C7 PUSH2 0x475A JUMP JUMPDEST JUMPDEST DUP1 PUSH1 0x40 MSTORE POP POP POP JUMP JUMPDEST PUSH1 0x0 PUSH2 0x45DC DUP3 PUSH2 0x4508 JUMP JUMPDEST SWAP2 POP PUSH32 0xFFFFFFFFFFFFFFFFFFFFFFFFFFFFFFFFFFFFFFFFFFFFFFFFFFFFFFFFFFFFFFFF DUP3 EQ ISZERO PUSH2 0x460F JUMPI PUSH2 0x460E PUSH2 0x466F JUMP JUMPDEST JUMPDEST PUSH1 0x1 DUP3 ADD SWAP1 POP SWAP2 SWAP1 POP JUMP JUMPDEST PUSH1 0x0 PUSH2 0x4625 DUP3 PUSH2 0x462C JUMP JUMPDEST SWAP1 POP SWAP2 SWAP1 POP JUMP JUMPDEST PUSH1 0x0 PUSH2 0x4637 DUP3 PUSH2 0x47C6 JUMP JUMPDEST SWAP1 POP SWAP2 SWAP1 POP JUMP JUMPDEST PUSH1 0x0 PUSH2 0x4649 DUP3 PUSH2 0x4508 JUMP JUMPDEST SWAP2 POP PUSH2 0x4654 DUP4 PUSH2 0x4508 JUMP JUMPDEST SWAP3 POP DUP3 PUSH2 0x4664 JUMPI PUSH2 0x4663 PUSH2 0x469E JUMP JUMPDEST JUMPDEST DUP3 DUP3 MOD SWAP1 POP SWAP3 SWAP2 POP POP JUMP JUMPDEST PUSH32 0x4E487B7100000000000000000000000000000000000000000000000000000000 PUSH1 0x0 MSTORE PUSH1 0x11 PUSH1 0x4 MSTORE PUSH1 0x24 PUSH1 0x0 REVERT JUMPDEST PUSH32 0x4E487B7100000000000000000000000000000000000000000000000000000000 PUSH1 0x0 MSTORE PUSH1 0x12 PUSH1 0x4 MSTORE PUSH1 0x24 PUSH1 0x0 REVERT JUMPDEST PUSH32 0x4E487B7100000000000000000000000000000000000000000000000000000000 PUSH1 0x0 MSTORE PUSH1 0x22 PUSH1 0x4 MSTORE PUSH1 0x24 PUSH1 0x0 REVERT JUMPDEST PUSH32 0x4E487B7100000000000000000000000000000000000000000000000000000000 PUSH1 0x0 MSTORE PUSH1 0x31 PUSH1 0x4 MSTORE PUSH1 0x24 PUSH1 0x0 REVERT JUMPDEST PUSH32 0x4E487B7100000000000000000000000000000000000000000000000000000000 PUSH1 0x0 MSTORE PUSH1 0x32 PUSH1 0x4 MSTORE PUSH1 0x24 PUSH1 0x0 REVERT JUMPDEST PUSH32 0x4E487B7100000000000000000000000000000000000000000000000000000000 PUSH1 0x0 MSTORE PUSH1 0x41 PUSH1 0x4 MSTORE PUSH1 0x24 PUSH1 0x0 REVERT JUMPDEST PUSH1 0x0 PUSH2 0x4795 DUP3 SLOAD PUSH2 0x4586 JUMP JUMPDEST SWAP1 POP SWAP2 SWAP1 POP JUMP JUMPDEST PUSH1 0x0 DUP1 REVERT JUMPDEST PUSH1 0x0 DUP1 REVERT JUMPDEST PUSH1 0x0 DUP1 REVERT JUMPDEST PUSH1 0x0 DUP1 REVERT JUMPDEST PUSH1 0x0 DUP1 REVERT JUMPDEST PUSH1 0x0 PUSH1 0x1F NOT PUSH1 0x1F DUP4 ADD AND SWAP1 POP SWAP2 SWAP1 POP JUMP JUMPDEST PUSH1 0x0 DUP2 PUSH1 0x60 SHL SWAP1 POP SWAP2 SWAP1 POP JUMP JUMPDEST PUSH1 0x0 DUP2 PUSH1 0x0 SHR SWAP1 POP SWAP2 SWAP1 POP JUMP JUMPDEST PUSH32 0x534F4C44204F555420464F5245564552202D20546865726520617265206E6F20 PUSH1 0x0 DUP3 ADD MSTORE PUSH32 0x6D6F726520446F6E75742042756E6E7973206C6566742C20636865636B206F75 PUSH1 0x20 DUP3 ADD MSTORE PUSH32 0x74206F7572206E65787420636F6C6C656374696F6E20617420446F6E7574546F PUSH1 0x40 DUP3 ADD MSTORE PUSH32 0x6B656E2E6E657400000000000000000000000000000000000000000000000000 PUSH1 0x60 DUP3 ADD MSTORE POP JUMP JUMPDEST PUSH32 0x4920616D206120446F6E75742042756E6E79202D206D696E7465642C2067656E PUSH1 0x0 DUP3 ADD MSTORE PUSH32 0x65726174656420616E642073746F7265642031303025206F6E2D636861696E20 PUSH1 0x20 DUP3 ADD MSTORE PUSH32 0x666F726576657221204D792042756E6E792052656E64657220436F6465206973 PUSH1 0x40 DUP3 ADD MSTORE PUSH32 0x2000000000000000000000000000000000000000000000000000000000000000 PUSH1 0x60 DUP3 ADD MSTORE POP JUMP JUMPDEST PUSH32 0x455243373231456E756D657261626C653A206F776E657220696E646578206F75 PUSH1 0x0 DUP3 ADD MSTORE PUSH32 0x74206F6620626F756E6473000000000000000000000000000000000000000000 PUSH1 0x20 DUP3 ADD MSTORE POP JUMP JUMPDEST PUSH32 0x4552433732313A207472616E7366657220746F206E6F6E204552433732315265 PUSH1 0x0 DUP3 ADD MSTORE PUSH32 0x63656976657220696D706C656D656E7465720000000000000000000000000000 PUSH1 0x20 DUP3 ADD MSTORE POP JUMP JUMPDEST PUSH32 0x4F776E61626C653A206E6577206F776E657220697320746865207A65726F2061 PUSH1 0x0 DUP3 ADD MSTORE PUSH32 0x6464726573730000000000000000000000000000000000000000000000000000 PUSH1 0x20 DUP3 ADD MSTORE POP JUMP JUMPDEST PUSH32 0x222C000000000000000000000000000000000000000000000000000000000000 PUSH1 0x0 DUP3 ADD MSTORE POP JUMP JUMPDEST PUSH32 0x20226665655F726563697069656E7422203A2022000000000000000000000000 PUSH1 0x0 DUP3 ADD MSTORE POP JUMP JUMPDEST PUSH32 0x4552433732313A207472616E736665722066726F6D20696E636F727265637420 PUSH1 0x0 DUP3 ADD MSTORE PUSH32 0x6F776E6572000000000000000000000000000000000000000000000000000000 PUSH1 0x20 DUP3 ADD MSTORE POP JUMP JUMPDEST PUSH32 0x20226174747269627574657322203A205B000000000000000000000000000000 PUSH1 0x0 DUP3 ADD MSTORE POP JUMP JUMPDEST PUSH32 0x4552433732313A20746F6B656E20616C7265616479206D696E74656400000000 PUSH1 0x0 DUP3 ADD MSTORE POP JUMP JUMPDEST PUSH32 0x4552433732313A207472616E7366657220746F20746865207A65726F20616464 PUSH1 0x0 DUP3 ADD MSTORE PUSH32 0x7265737300000000000000000000000000000000000000000000000000000000 PUSH1 0x20 DUP3 ADD MSTORE POP JUMP JUMPDEST PUSH32 0x4552433732313A20617070726F766520746F2063616C6C657200000000000000 PUSH1 0x0 DUP3 ADD MSTORE POP JUMP JUMPDEST PUSH32 0x7B226E616D6522203A2022446F6E75742042756E6E79222C0000000000000000 PUSH1 0x0 DUP3 ADD MSTORE POP JUMP JUMPDEST PUSH32 0x42756E6E79202300000000000000000000000000000000000000000000000000 PUSH1 0x0 DUP3 ADD MSTORE POP JUMP JUMPDEST PUSH32 0x4552433732313A206F70657261746F7220717565727920666F72206E6F6E6578 PUSH1 0x0 DUP3 ADD MSTORE PUSH32 0x697374656E7420746F6B656E0000000000000000000000000000000000000000 PUSH1 0x20 DUP3 ADD MSTORE POP JUMP JUMPDEST PUSH32 0x202273656C6C65725F6665655F62617369735F706F696E747322203A20223130 PUSH1 0x0 DUP3 ADD MSTORE PUSH32 0x30222C0000000000000000000000000000000000000000000000000000000000 PUSH1 0x20 DUP3 ADD MSTORE POP JUMP JUMPDEST PUSH32 0x20226465736372697074696F6E22203A2022446F6E75742042756E6E79732061 PUSH1 0x0 DUP3 ADD MSTORE PUSH32 0x7265206120756E697175652066756C6C79206F6E20636861696E204E46542074 PUSH1 0x20 DUP3 ADD MSTORE PUSH32 0x686174206973206D696E74656420616E642073746F72656420656E746972656C PUSH1 0x40 DUP3 ADD MSTORE PUSH32 0x79206F6E20636861696E2E204F776E20796F7572206669727374207265616C20 PUSH1 0x60 DUP3 ADD MSTORE PUSH32 0x4E465420746F64617921222C0000000000000000000000000000000000000000 PUSH1 0x80 DUP3 ADD MSTORE POP JUMP JUMPDEST PUSH32 0x7B226E616D6522203A2022000000000000000000000000000000000000000000 PUSH1 0x0 DUP3 ADD MSTORE POP JUMP JUMPDEST PUSH32 0x4552433732313A20617070726F76652063616C6C6572206973206E6F74206F77 PUSH1 0x0 DUP3 ADD MSTORE PUSH32 0x6E6572206E6F7220617070726F76656420666F7220616C6C0000000000000000 PUSH1 0x20 DUP3 ADD MSTORE POP JUMP JUMPDEST PUSH32 0x4552433732313A2062616C616E636520717565727920666F7220746865207A65 PUSH1 0x0 DUP3 ADD MSTORE PUSH32 0x726F206164647265737300000000000000000000000000000000000000000000 PUSH1 0x20 DUP3 ADD MSTORE POP JUMP JUMPDEST PUSH32 0x4552433732313A206F776E657220717565727920666F72206E6F6E6578697374 PUSH1 0x0 DUP3 ADD MSTORE PUSH32 0x656E7420746F6B656E0000000000000000000000000000000000000000000000 PUSH1 0x20 DUP3 ADD MSTORE POP JUMP JUMPDEST PUSH32 0x227D000000000000000000000000000000000000000000000000000000000000 PUSH1 0x0 DUP3 ADD MSTORE POP JUMP JUMPDEST PUSH32 0x4F6E6C79207468652063757272656E74206F776E6572206F6620746869732044 PUSH1 0x0 DUP3 ADD MSTORE PUSH32 0x6F6E75742042756E6E79204E46542063616E20646F2074686973210000000000 PUSH1 0x20 DUP3 ADD MSTORE POP JUMP JUMPDEST PUSH32 0x4920616D206120524152452045444954494F4E20446F6E75742042756E6E7920 PUSH1 0x0 DUP3 ADD MSTORE PUSH32 0x2D206D696E7465642C2067656E65726174656420616E642073746F7265642031 PUSH1 0x20 DUP3 ADD MSTORE PUSH32 0x303025206F6E2D636861696E20666F726576657221204D792042756E6E792052 PUSH1 0x40 DUP3 ADD MSTORE PUSH32 0x656E64657220436F646520697320000000000000000000000000000000000000 PUSH1 0x60 DUP3 ADD MSTORE POP JUMP JUMPDEST PUSH32 0x4552433732313A206D696E7420746F20746865207A65726F2061646472657373 PUSH1 0x0 DUP3 ADD MSTORE POP JUMP JUMPDEST PUSH32 0x5D2C000000000000000000000000000000000000000000000000000000000000 PUSH1 0x0 DUP3 ADD MSTORE POP JUMP JUMPDEST PUSH32 0x20226465736372697074696F6E22203A20220000000000000000000000000000 PUSH1 0x0 DUP3 ADD MSTORE POP JUMP JUMPDEST PUSH32 0x4552433732313A20617070726F76656420717565727920666F72206E6F6E6578 PUSH1 0x0 DUP3 ADD MSTORE PUSH32 0x697374656E7420746F6B656E0000000000000000000000000000000000000000 PUSH1 0x20 DUP3 ADD MSTORE POP JUMP JUMPDEST PUSH32 0x2022696D61676522203A2022646174613A696D6167652F7376672B786D6C3B62 PUSH1 0x0 DUP3 ADD MSTORE PUSH32 0x61736536342C0000000000000000000000000000000000000000000000000000 PUSH1 0x20 DUP3 ADD MSTORE POP JUMP JUMPDEST PUSH32 0x4F776E61626C653A2063616C6C6572206973206E6F7420746865206F776E6572 PUSH1 0x0 DUP3 ADD MSTORE POP JUMP JUMPDEST PUSH32 0x4552433732314D657461646174613A2055524920717565727920666F72206E6F PUSH1 0x0 DUP3 ADD MSTORE PUSH32 0x6E6578697374656E7420746F6B656E0000000000000000000000000000000000 PUSH1 0x20 DUP3 ADD MSTORE POP JUMP JUMPDEST PUSH32 0x4552433732313A20617070726F76616C20746F2063757272656E74206F776E65 PUSH1 0x0 DUP3 ADD MSTORE PUSH32 0x7200000000000000000000000000000000000000000000000000000000000000 PUSH1 0x20 DUP3 ADD MSTORE POP JUMP JUMPDEST PUSH32 0x646174613A6170706C69636174696F6E2F6A736F6E3B6261736536342C000000 PUSH1 0x0 DUP3 ADD MSTORE POP JUMP JUMPDEST PUSH32 0x4552433732313A207472616E736665722063616C6C6572206973206E6F74206F PUSH1 0x0 DUP3 ADD MSTORE PUSH32 0x776E6572206E6F7220617070726F766564000000000000000000000000000000 PUSH1 0x20 DUP3 ADD MSTORE POP JUMP JUMPDEST PUSH32 0x455243373231456E756D657261626C653A20676C6F62616C20696E646578206F PUSH1 0x0 DUP3 ADD MSTORE PUSH32 0x7574206F6620626F756E64730000000000000000000000000000000000000000 PUSH1 0x20 DUP3 ADD MSTORE POP JUMP JUMPDEST PUSH32 0x202265787465726E616C5F6C696E6B22203A202268747470733A2F2F646F6E75 PUSH1 0x0 DUP3 ADD MSTORE PUSH32 0x7462756E6E792E6E6574222C0000000000000000000000000000000000000000 PUSH1 0x20 DUP3 ADD MSTORE POP JUMP JUMPDEST PUSH32 0x202265787465726E616C5F75726C22203A202200000000000000000000000000 PUSH1 0x0 DUP3 ADD MSTORE POP JUMP JUMPDEST PUSH2 0x5270 DUP2 PUSH2 0x449E JUMP JUMPDEST DUP2 EQ PUSH2 0x527B JUMPI PUSH1 0x0 DUP1 REVERT JUMPDEST POP JUMP JUMPDEST PUSH2 0x5287 DUP2 PUSH2 0x44B0 JUMP JUMPDEST DUP2 EQ PUSH2 0x5292 JUMPI PUSH1 0x0 DUP1 REVERT JUMPDEST POP JUMP JUMPDEST PUSH2 0x529E DUP2 PUSH2 0x44BC JUMP JUMPDEST DUP2 EQ PUSH2 0x52A9 JUMPI PUSH1 0x0 DUP1 REVERT JUMPDEST POP JUMP JUMPDEST PUSH2 0x52B5 DUP2 PUSH2 0x4508 JUMP JUMPDEST DUP2 EQ PUSH2 0x52C0 JUMPI PUSH1 0x0 DUP1 REVERT JUMPDEST POP JUMP INVALID COINBASE TIMESTAMP NUMBER DIFFICULTY GASLIMIT CHAINID SELFBALANCE BASEFEE 0x49 0x4A 0x4B 0x4C 0x4D 0x4E 0x4F POP MLOAD MSTORE MSTORE8 SLOAD SSTORE JUMP JUMPI PC MSIZE GAS PUSH2 0x6263 PUSH5 0x6566676869 PUSH11 0x6B6C6D6E6F707172737475 PUSH23 0x7778797A303132333435363738392B2F3C73766720786D PUSH13 0x6E733D22687474703A2F2F7777 PUSH24 0x2E77332E6F72672F323030302F7376672220636C6173733D 0x22 PUSH10 0x6E74726F2D7376672220 PUSH23 0x696577426F783D223020302033302E36392033382E3133 0x22 RETURNDATACOPY EXTCODECOPY PUSH8 0x20636C6173733D22 PUSH3 0x756E6E PUSH26 0x223E3C706174682066696C6C3D22236636653464392220737472 PUSH16 0x6B653D22233830376262342220737472 PUSH16 0x6B652D6C696E656361703D22726F756E PUSH5 0x2220737472 PUSH16 0x6B652D6C696E656A6F696E3D22726F75 PUSH15 0x6422207374726F6B652D6D69746572 PUSH13 0x696D69743D2231302220643D22 0x4D CALLDATALOAD 0x2E BALANCE 0x2E CALLDATALOAD NUMBER BALANCE 0x2E CALLDATALOAD CALLDATASIZE 0x2E CALLER 0x2D BALANCE 0x2E ADDRESS CODESIZE KECCAK256 CALLVALUE 0x2E ORIGIN CODECOPY KECCAK256 BALANCE 0x2E CALLDATASIZE KECCAK256 CODECOPY 0x2E CALLER CALLDATACOPY PUSH4 0x312E3538 KECCAK256 CALLER KECCAK256 CALLVALUE 0x2E CALLVALUE CODESIZE KECCAK256 CALLDATALOAD 0x2E CALLDATACOPY CODECOPY KECCAK256 CALLVALUE 0x2E CALLVALUE CODESIZE KECCAK256 CALLDATALOAD 0x2E CALLDATACOPY CODECOPY PUSH2 0x3132 0x2E CODECOPY KECCAK256 BALANCE ORIGIN 0x2E CODECOPY KECCAK256 ADDRESS KECCAK256 ADDRESS KECCAK256 ADDRESS 0x2D CALLVALUE 0x2E BALANCE CALLDATALOAD KECCAK256 CODECOPY 0x2E CALLDATALOAD CALLDATASIZE PUSH4 0x3020372E BALANCE CALLVALUE KECCAK256 CALLDATASIZE 0x2E ADDRESS BALANCE KECCAK256 BALANCE ORIGIN 0x2E CODECOPY ORIGIN KECCAK256 BALANCE CALLER 0x2E CALLVALUE CALLER KECCAK256 BALANCE ORIGIN 0x2E CODECOPY ORIGIN MSTORE8 ORIGIN CODESIZE 0x2E CODESIZE KECCAK256 CALLER BALANCE 0x2E CODESIZE CALLDATALOAD KECCAK256 ORIGIN CODESIZE 0x2E CODESIZE KECCAK256 ORIGIN CALLVALUE 0x2E CALLDATACOPY BALANCE PUSH4 0x302D332E CALLDATACOPY BALANCE 0x2D BALANCE 0x2E CALLDATALOAD CALLDATALOAD 0x2D CALLDATACOPY 0x2E ORIGIN 0x2D CALLVALUE 0x2E BALANCE CALLDATALOAD 0x2D CODECOPY 0x2E CALLDATALOAD CALLDATASIZE KECCAK256 ADDRESS KECCAK256 ADDRESS KECCAK256 ORIGIN 0x2E CODESIZE CALLDATASIZE 0x2D ORIGIN 0x2E CODESIZE KECCAK256 CALLVALUE 0x2E CALLVALUE CALLDATASIZE 0x2D CALLDATALOAD 0x2E CALLDATACOPY CODECOPY NUMBER CALLER ORIGIN 0x2E BALANCE CALLDATALOAD KECCAK256 CALLER 0x2E CALLDATACOPY KECCAK256 ORIGIN CODESIZE 0x2E CALLER 0x2D 0x2E CODESIZE KECCAK256 ORIGIN CALLVALUE 0x2E ADDRESS CALLDATALOAD 0x2E CODESIZE CALLDATASIZE PUSH4 0x2D342E35 CALLDATALOAD KECCAK256 BALANCE 0x2E CALLDATACOPY CODESIZE 0x2D CALLDATALOAD 0x2E CALLER CODESIZE KECCAK256 BALANCE ADDRESS 0x2E CODESIZE BALANCE 0x2D CALLDATALOAD 0x2E CALLVALUE ORIGIN KECCAK256 BALANCE BALANCE 0x2E CALLER ORIGIN PUSH2 0x3133 0x2E CODECOPY CALLDATACOPY KECCAK256 BALANCE CALLER 0x2E CODECOPY CALLDATACOPY KECCAK256 ADDRESS KECCAK256 ADDRESS KECCAK256 ADDRESS 0x2D CALLDATASIZE 0x2E CALLDATALOAD BALANCE KECCAK256 ADDRESS PUSH4 0x2D2E3035 0x2D 0x2E CALLDATALOAD CALLDATALOAD 0x2D 0x2E CODESIZE CODESIZE 0x2D CODECOPY 0x2E CALLDATALOAD CALLDATALOAD 0x2D CALLDATALOAD 0x2E CALLVALUE CALLDATALOAD 0x2D BALANCE BALANCE 0x2E CALLER ORIGIN COINBASE CALLDATALOAD 0x2E BALANCE KECCAK256 CALLDATALOAD 0x2E BALANCE KECCAK256 ADDRESS KECCAK256 ADDRESS KECCAK256 ADDRESS KECCAK256 CALLDATALOAD 0x2E BALANCE BALANCE 0x2E CALLDATALOAD GAS PUSH14 0x31302E322031392E383363322E33 ORIGIN KECCAK256 ADDRESS KECCAK256 CALLVALUE 0x2E ORIGIN KECCAK256 BALANCE 0x2E CODESIZE ORIGIN KECCAK256 CALLVALUE 0x2E ORIGIN KECCAK256 CALLVALUE 0x2E ADDRESS CALLDATASIZE PUSH2 0x342E BALANCE CALLVALUE KECCAK256 CALLVALUE 0x2E BALANCE CALLVALUE KECCAK256 ADDRESS KECCAK256 ADDRESS KECCAK256 BALANCE 0x2D CALLVALUE 0x2E ORIGIN KECCAK256 CALLVALUE 0x2E ADDRESS CALLDATASIZE KECCAK256 CALLVALUE 0x2E BALANCE CALLVALUE KECCAK256 CALLVALUE 0x2E BALANCE CALLVALUE KECCAK256 ADDRESS KECCAK256 ADDRESS KECCAK256 BALANCE 0x2D CALLVALUE 0x2E ORIGIN 0x2D CALLVALUE 0x2E ADDRESS CALLDATASIZE KECCAK256 CALLVALUE 0x2E BALANCE CALLER KECCAK256 CALLVALUE 0x2E BALANCE CALLER KECCAK256 ADDRESS KECCAK256 ADDRESS KECCAK256 BALANCE KECCAK256 CALLVALUE 0x2E ORIGIN 0x2D CALLVALUE 0x2E ADDRESS CALLDATASIZE PUSH27 0x222F3E3C706174682066696C6C3D22236564626563322220643D22 0x4D BALANCE CALLDATALOAD 0x2E BALANCE CALLDATACOPY KECCAK256 BALANCE CALLER 0x2E ORIGIN CALLDATACOPY PUSH4 0x2D2E3937 KECCAK256 ADDRESS 0x2D BALANCE 0x2E CODESIZE CALLDATASIZE 0x2E CALLDATALOAD CALLVALUE 0x2D ORIGIN 0x2E CALLER KECCAK256 BALANCE 0x2E CALLVALUE PUSH2 0x322E CALLDATASIZE KECCAK256 ORIGIN 0x2E CALLDATASIZE KECCAK256 ADDRESS KECCAK256 ADDRESS KECCAK256 ADDRESS 0x2D BALANCE 0x2E CALLDATASIZE CALLER 0x2D 0x2E CALLDATALOAD CALLER KECCAK256 ORIGIN 0x2E CALLDATALOAD CALLDATALOAD KECCAK256 ORIGIN 0x2E CALLDATALOAD CALLDATALOAD KECCAK256 ADDRESS KECCAK256 ADDRESS KECCAK256 ADDRESS 0x2D ORIGIN 0x2E CALLDATALOAD KECCAK256 ORIGIN 0x2E CODESIZE KECCAK256 ORIGIN 0x2E CALLDATALOAD CALLDATACOPY KECCAK256 ORIGIN 0x2E CALLDATALOAD CALLDATACOPY KECCAK256 ADDRESS KECCAK256 ADDRESS KECCAK256 ADDRESS 0x2D CALLER 0x2E ORIGIN CALLDATACOPY KECCAK256 BALANCE 0x2E CODECOPY KECCAK256 ORIGIN 0x2E CALLDATALOAD KECCAK256 ORIGIN 0x2E CALLDATALOAD KECCAK256 ADDRESS KECCAK256 ADDRESS KECCAK256 ADDRESS KECCAK256 0x2E CALLVALUE CALLDATALOAD KECCAK256 ORIGIN 0x2E ADDRESS CALLVALUE KECCAK256 ORIGIN 0x2E CALLDATALOAD ORIGIN KECCAK256 ORIGIN 0x2E CALLDATALOAD ORIGIN KECCAK256 ADDRESS KECCAK256 ADDRESS KECCAK256 ADDRESS 0x2D BALANCE 0x2E ORIGIN CALLDATALOAD KECCAK256 CALLVALUE 0x2E CALLVALUE CODESIZE KECCAK256 ORIGIN 0x2E CALLDATALOAD KECCAK256 ORIGIN 0x2E CALLDATALOAD KECCAK256 ADDRESS KECCAK256 ADDRESS KECCAK256 ADDRESS 0x2D 0x2E CALLDATASIZE KECCAK256 ORIGIN 0x2E CALLVALUE CALLVALUE KECCAK256 ORIGIN 0x2E CALLDATALOAD CALLDATASIZE KECCAK256 ORIGIN 0x2E CALLDATALOAD CALLDATASIZE KECCAK256 ADDRESS KECCAK256 ADDRESS KECCAK256 ADDRESS KECCAK256 ORIGIN 0x2E ADDRESS CALLDATASIZE KECCAK256 BALANCE 0x2E CODESIZE KECCAK256 ORIGIN 0x2E CALLVALUE CODESIZE KECCAK256 ORIGIN 0x2E CALLVALUE CODESIZE KECCAK256 ADDRESS KECCAK256 ADDRESS KECCAK256 ADDRESS 0x2D 0x2E BALANCE CALLDATASIZE KECCAK256 BALANCE 0x2E CODESIZE ORIGIN COINBASE ORIGIN 0x2E CALLDATALOAD CODESIZE KECCAK256 ORIGIN 0x2E CALLDATALOAD CODESIZE KECCAK256 ADDRESS KECCAK256 ADDRESS KECCAK256 ADDRESS KECCAK256 CODESIZE 0x2E CODECOPY KECCAK256 CALLER CALLER 0x2E ORIGIN PUSH2 0x322E CALLDATALOAD CALLDATASIZE KECCAK256 ORIGIN 0x2E CALLDATALOAD CALLDATASIZE KECCAK256 ADDRESS KECCAK256 ADDRESS KECCAK256 ADDRESS KECCAK256 ORIGIN 0x2E CALLDATALOAD CALLDATASIZE KECCAK256 ORIGIN 0x2E ORIGIN CALLDATASIZE KECCAK256 ORIGIN 0x2E CALLDATASIZE KECCAK256 ORIGIN 0x2E CALLDATASIZE KECCAK256 ADDRESS KECCAK256 ADDRESS KECCAK256 ADDRESS KECCAK256 BALANCE 0x2E CALLVALUE CODESIZE 0x2D 0x2E CALLVALUE CALLDATASIZE KECCAK256 ORIGIN 0x2E CALLDATALOAD CODESIZE KECCAK256 ORIGIN 0x2E CALLDATALOAD CODESIZE KECCAK256 ADDRESS KECCAK256 ADDRESS KECCAK256 ADDRESS KECCAK256 CALLVALUE 0x2E CALLDATASIZE CALLER 0x2D 0x2E CALLER CALLDATASIZE KECCAK256 ORIGIN 0x2E CALLDATALOAD CODECOPY KECCAK256 ORIGIN 0x2E CALLDATALOAD CODECOPY KECCAK256 ADDRESS KECCAK256 ADDRESS KECCAK256 ADDRESS KECCAK256 CALLVALUE 0x2E CALLVALUE 0x2D BALANCE 0x2E CODESIZE CALLER PUSH13 0x2D2E30312D2E32332E32322E30 CALLDATASIZE PUSH4 0x312E342E ORIGIN CODESIZE KECCAK256 ORIGIN 0x2E CALLDATACOPY CALLDATASIZE 0x2D 0x2E CALLDATASIZE KECCAK256 CALLER 0x2E ADDRESS CALLVALUE 0x2D BALANCE 0x2E CODECOPY CALLDATASIZE PUSH2 0x322E CALLDATALOAD KECCAK256 ORIGIN 0x2E CALLDATALOAD KECCAK256 ADDRESS KECCAK256 ADDRESS KECCAK256 ADDRESS 0x2D 0x2E CALLVALUE CALLDATALOAD 0x2D ORIGIN 0x2E ADDRESS CALLER KECCAK256 ORIGIN 0x2E CALLDATALOAD ORIGIN KECCAK256 ORIGIN 0x2E CALLDATALOAD ORIGIN KECCAK256 ADDRESS KECCAK256 ADDRESS KECCAK256 ADDRESS KECCAK256 ORIGIN 0x2E BALANCE ORIGIN 0x2D CALLER 0x2E ORIGIN COINBASE ORIGIN 0x2E CALLDATALOAD ORIGIN KECCAK256 ORIGIN 0x2E CALLDATALOAD ORIGIN KECCAK256 ADDRESS KECCAK256 ADDRESS KECCAK256 ADDRESS KECCAK256 ORIGIN CALLDATALOAD 0x2E CALLDATACOPY CALLDATASIZE KECCAK256 ORIGIN CALLVALUE PUSH2 0x322E CALLDATALOAD KECCAK256 ORIGIN 0x2E CALLDATALOAD KECCAK256 ADDRESS KECCAK256 ADDRESS KECCAK256 ADDRESS 0x2D BALANCE 0x2E ADDRESS CODESIZE 0x2D CALLVALUE 0x2E CALLER CALLDATALOAD PUSH4 0x2E31382D 0x2E CALLDATALOAD 0x2E ORIGIN 0x2D BALANCE 0x2E ADDRESS CALLER 0x2E ADDRESS CALLVALUE 0x2D BALANCE 0x2E CALLDATALOAD CALLVALUE PUSH2 0x322E CALLDATALOAD CODESIZE KECCAK256 ORIGIN 0x2E CALLDATALOAD CODESIZE KECCAK256 ADDRESS KECCAK256 ADDRESS KECCAK256 ADDRESS 0x2D ORIGIN 0x2E CODECOPY CALLER 0x2D BALANCE 0x2E CALLDATACOPY CODESIZE KECCAK256 ORIGIN 0x2E CALLDATALOAD CODECOPY KECCAK256 ORIGIN 0x2E CALLDATALOAD CODECOPY KECCAK256 ADDRESS KECCAK256 ADDRESS KECCAK256 ADDRESS 0x2D CALLVALUE 0x2E CALLER 0x2D BALANCE 0x2E CALLDATASIZE KECCAK256 ORIGIN 0x2E CALLDATALOAD CODESIZE KECCAK256 ORIGIN 0x2E CALLDATALOAD CODESIZE KECCAK256 ADDRESS KECCAK256 ADDRESS KECCAK256 ADDRESS 0x2D ORIGIN 0x2E CALLER ORIGIN 0x2D BALANCE 0x2E CALLVALUE CALLDATASIZE PUSH27 0x6D2E313120362E363263322E36203020342E3720322E303320342E CALLDATACOPY KECCAK256 CALLVALUE 0x2E CALLDATALOAD CALLER KECCAK256 ADDRESS KECCAK256 ORIGIN 0x2E CALLDATALOAD 0x2D ORIGIN 0x2E BALANCE KECCAK256 CALLVALUE 0x2E CALLDATALOAD CALLVALUE 0x2D CALLVALUE 0x2E CALLDATACOPY KECCAK256 CALLVALUE 0x2E CALLDATALOAD CALLVALUE PUSH2 0x342E CALLDATASIZE ORIGIN KECCAK256 CALLVALUE 0x2E CALLDATASIZE ORIGIN KECCAK256 ADDRESS KECCAK256 ADDRESS KECCAK256 BALANCE 0x2D CALLVALUE 0x2E CALLDATASIZE CODECOPY 0x2D CALLVALUE 0x2E CALLDATALOAD CALLVALUE PUSH4 0x302D322E CALLDATALOAD KECCAK256 ORIGIN 0x2E BALANCE 0x2D CALLVALUE 0x2E CALLDATALOAD CALLER KECCAK256 CALLVALUE 0x2E CALLDATACOPY 0x2D CALLVALUE 0x2E CALLDATALOAD CALLER PUSH27 0x222F3E3C706174682066696C6C3D22233261333135342220643D22 0x4D BALANCE CALLDATACOPY 0x2E CALLDATACOPY KECCAK256 BALANCE CALLDATALOAD 0x2E CODECOPY ORIGIN PUSH4 0x30202E33 CALLDATASIZE 0x2E ORIGIN CALLVALUE 0x2E CALLDATASIZE CALLDATALOAD 0x2E CALLDATALOAD CALLVALUE 0x2E CALLDATASIZE CALLDATALOAD 0x2E CALLER KECCAK256 ADDRESS KECCAK256 0x2E CALLDATALOAD CALLDATALOAD 0x2D 0x2E CALLER 0x2E CALLDATALOAD CALLDATALOAD 0x2D 0x2E CALLDATASIZE CALLDATALOAD KECCAK256 ADDRESS 0x2D 0x2E CALLER CALLDATASIZE 0x2D 0x2E ORIGIN CALLDATALOAD 0x2D 0x2E CALLDATASIZE CALLDATALOAD 0x2D 0x2E CALLDATALOAD CALLDATALOAD 0x2D 0x2E CALLDATASIZE CALLDATALOAD 0x2D 0x2E CALLER KECCAK256 ADDRESS 0x2D 0x2E CALLDATALOAD CALLVALUE 0x2E ORIGIN CODECOPY 0x2D 0x2E CALLDATALOAD CALLVALUE 0x2E CALLDATASIZE CALLDATALOAD PUSH14 0x2D3520306330202E33362E32342E CALLDATASIZE CALLDATALOAD 0x2E CALLDATALOAD CALLVALUE 0x2E CALLDATASIZE CALLDATALOAD 0x2E CALLER KECCAK256 ADDRESS KECCAK256 0x2E CALLDATALOAD CALLDATALOAD 0x2D 0x2E CALLER 0x2E CALLDATALOAD CALLDATALOAD 0x2D 0x2E CALLDATASIZE CALLDATALOAD KECCAK256 ADDRESS 0x2D 0x2E CALLER CALLDATASIZE 0x2D 0x2E ORIGIN CALLDATALOAD 0x2D 0x2E CALLDATASIZE CALLDATALOAD 0x2D 0x2E CALLDATALOAD CALLDATALOAD 0x2D 0x2E CALLDATASIZE CALLDATALOAD 0x2D 0x2E CALLER KECCAK256 ADDRESS 0x2D 0x2E CALLDATALOAD CALLVALUE 0x2E ORIGIN CODECOPY 0x2D 0x2E CALLDATALOAD CALLVALUE 0x2E CALLDATASIZE CALLDATALOAD 0x22 0x2F RETURNDATACOPY EXTCODECOPY PUSH17 0x6174682066696C6C3D226E6F6E65222073 PUSH21 0x726F6B653D222332613331353422207374726F6B65 0x2D PUSH13 0x696E656361703D22726F756E64 0x22 KECCAK256 PUSH20 0x74726F6B652D6C696E656A6F696E3D22726F756E PUSH5 0x2220737472 PUSH16 0x6B652D6D697465726C696D69743D2231 ADDRESS 0x22 KECCAK256 PUSH20 0x74726F6B652D77696474683D222E34382220643D 0x22 PUSH14 0x31362E35352031352E39392D2E38 CALLDATALOAD 0x2E CALLDATACOPY 0x2D 0x2E CODESIZE CALLDATALOAD 0x2D 0x2E CALLDATACOPY PUSH14 0x2E38352E3834762E376D312E3239 0x2D 0x2E CALLER CALLER PUSH20 0x2D312E333220312E352D322E35382D2E3035222F RETURNDATACOPY EXTCODECOPY PUSH17 0x6174682066696C6C3D226E6F6E65222073 PUSH21 0x726F6B653D222337633737623222207374726F6B65 0x2D PUSH13 0x696E656361703D22726F756E64 0x22 KECCAK256 PUSH20 0x74726F6B652D6C696E656A6F696E3D22726F756E PUSH5 0x2220737472 PUSH16 0x6B652D6D697465726C696D69743D2231 ADDRESS 0x22 KECCAK256 PUSH20 0x74726F6B652D77696474683D222E392220643D22 PUSH14 0x31322E36362033302E31352D2E31 KECCAK256 BALANCE 0x2E CALLDATALOAD PUSH14 0x352E35342D312E31372D312E3433 0x2E CALLVALUE CALLDATASIZE PUSH14 0x2D2E343120322E39352D312E352D 0x2E BALANCE CALLVALUE PUSH14 0x372E39362D342E37332D2E36382D BALANCE 0x2E CALLER CALLVALUE PUSH14 0x2D312E353220342E39362E34332D BALANCE 0x2E CALLVALUE CALLDATALOAD PUSH14 0x322E39392D392E35342E34332D31 0x2E CALLVALUE CALLDATALOAD PUSH14 0x2D31362E33312E38332D312E312D BALANCE 0x2E ADDRESS CALLVALUE 0x4D ORIGIN BALANCE 0x2E CALLDATACOPY CALLDATASIZE KECCAK256 ORIGIN CALLVALUE PUSH13 0x2D2E32342D312E34396D2D3131 0x2E CALLVALUE 0x2D 0x2E CALLDATACOPY CALLDATACOPY 0x2D 0x2E ORIGIN CALLDATALOAD KECCAK256 BALANCE 0x2E CALLVALUE CODECOPY PUSH14 0x31352E333620322E33372D312E34 CODECOPY 0x2E BALANCE CALLDATASIZE 0x4D CALLDATASIZE 0x2E CALLDATASIZE ORIGIN KECCAK256 ORIGIN CALLVALUE 0x2E CALLDATASIZE PUSH13 0x2D312E31362E39366D332E3834 KECCAK256 BALANCE 0x2E CODESIZE ORIGIN 0x2D BALANCE 0x2E CALLDATALOAD 0x2D 0x2E BALANCE PUSH14 0x312E393520342E34394C392E3120 CALLER ADDRESS 0x2E CALLVALUE 0x22 KECCAK256 PUSH4 0x6C617373 RETURNDATASIZE 0x22 PUSH20 0x7072696E6B6C65222F3E3C2F673E3C2F7376673E LOG2 PUSH5 0x6970667358 0x22 SLT KECCAK256 PUSH5 0x9FAD14DAA3 0x49 PUSH10 0x7A42F5958AF67CBDBFA6 PUSH2 0xF3B8 SWAP16 0xE 0x4A DUP9 ISZERO PUSH17 0xFE752F9C8964736F6C6343000807003300 "
		},
		"gasEstimates": {
			"creation": {
				"codeDepositCost": "4693000",
				"executionCost": "infinite",
				"totalCost": "infinite"
			},
			"external": {
				"approve(address,uint256)": "infinite",
				"balanceOf(address)": "2968",
				"changeExtURL(string)": "infinite",
				"changeFeeRec(address)": "27050",
				"changeMintCost(uint256)": "24783",
				"contractURI()": "infinite",
				"getApproved(uint256)": "5228",
				"isApprovedForAll(address,address)": "infinite",
				"mint()": "infinite",
				"name()": "infinite",
				"owner()": "2567",
				"ownerOf(uint256)": "3044",
				"renounceOwnership()": "30485",
				"safeTransferFrom(address,address,uint256)": "infinite",
				"safeTransferFrom(address,address,uint256,bytes)": "infinite",
				"setApprovalForAll(address,bool)": "infinite",
				"supportsInterface(bytes4)": "929",
				"symbol()": "infinite",
				"tokenByIndex(uint256)": "infinite",
				"tokenOfOwnerByIndex(address,uint256)": "infinite",
				"tokenSVG(uint256)": "infinite",
				"tokenURI(uint256)": "infinite",
				"totalSupply()": "2579",
				"transferFrom(address,address,uint256)": "infinite",
				"transferOwnership(address)": "30833",
				"usePaintbrush(uint256,uint256[5])": "infinite"
			},
			"internal": {
				"_beforeTokenTransfer(address,address,uint256)": "infinite",
				"_burn(uint256)": "infinite"
			}
		},
		"methodIdentifiers": {
			"approve(address,uint256)": "095ea7b3",
			"balanceOf(address)": "70a08231",
			"changeExtURL(string)": "bd9975ee",
			"changeFeeRec(address)": "f0bc7cd3",
			"changeMintCost(uint256)": "7f1921ef",
			"contractURI()": "e8a3d485",
			"getApproved(uint256)": "081812fc",
			"isApprovedForAll(address,address)": "e985e9c5",
			"mint()": "1249c58b",
			"name()": "06fdde03",
			"owner()": "8da5cb5b",
			"ownerOf(uint256)": "6352211e",
			"renounceOwnership()": "715018a6",
			"safeTransferFrom(address,address,uint256)": "42842e0e",
			"safeTransferFrom(address,address,uint256,bytes)": "b88d4fde",
			"setApprovalForAll(address,bool)": "a22cb465",
			"supportsInterface(bytes4)": "01ffc9a7",
			"symbol()": "95d89b41",
			"tokenByIndex(uint256)": "4f6ccce7",
			"tokenOfOwnerByIndex(address,uint256)": "2f745c59",
			"tokenSVG(uint256)": "9bac5f7a",
			"tokenURI(uint256)": "c87b56dd",
			"totalSupply()": "18160ddd",
			"transferFrom(address,address,uint256)": "23b872dd",
			"transferOwnership(address)": "f2fde38b",
			"usePaintbrush(uint256,uint256[5])": "d7f677c3"
		}
	},
	"abi": [
		{
			"inputs": [],
			"stateMutability": "nonpayable",
			"type": "constructor"
		},
		{
			"anonymous": false,
			"inputs": [
				{
					"indexed": true,
					"internalType": "address",
					"name": "owner",
					"type": "address"
				},
				{
					"indexed": true,
					"internalType": "address",
					"name": "approved",
					"type": "address"
				},
				{
					"indexed": true,
					"internalType": "uint256",
					"name": "tokenId",
					"type": "uint256"
				}
			],
			"name": "Approval",
			"type": "event"
		},
		{
			"anonymous": false,
			"inputs": [
				{
					"indexed": true,
					"internalType": "address",
					"name": "owner",
					"type": "address"
				},
				{
					"indexed": true,
					"internalType": "address",
					"name": "operator",
					"type": "address"
				},
				{
					"indexed": false,
					"internalType": "bool",
					"name": "approved",
					"type": "bool"
				}
			],
			"name": "ApprovalForAll",
			"type": "event"
		},
		{
			"anonymous": false,
			"inputs": [
				{
					"indexed": true,
					"internalType": "address",
					"name": "previousOwner",
					"type": "address"
				},
				{
					"indexed": true,
					"internalType": "address",
					"name": "newOwner",
					"type": "address"
				}
			],
			"name": "OwnershipTransferred",
			"type": "event"
		},
		{
			"anonymous": false,
			"inputs": [
				{
					"indexed": false,
					"internalType": "string",
					"name": "_value",
					"type": "string"
				},
				{
					"indexed": true,
					"internalType": "uint256",
					"name": "_id",
					"type": "uint256"
				}
			],
			"name": "PermanentURI",
			"type": "event"
		},
		{
			"anonymous": false,
			"inputs": [
				{
					"indexed": true,
					"internalType": "address",
					"name": "from",
					"type": "address"
				},
				{
					"indexed": true,
					"internalType": "address",
					"name": "to",
					"type": "address"
				},
				{
					"indexed": true,
					"internalType": "uint256",
					"name": "tokenId",
					"type": "uint256"
				}
			],
			"name": "Transfer",
			"type": "event"
		},
		{
			"inputs": [
				{
					"internalType": "address",
					"name": "to",
					"type": "address"
				},
				{
					"internalType": "uint256",
					"name": "tokenId",
					"type": "uint256"
				}
			],
			"name": "approve",
			"outputs": [],
			"stateMutability": "nonpayable",
			"type": "function"
		},
		{
			"inputs": [
				{
					"internalType": "address",
					"name": "owner",
					"type": "address"
				}
			],
			"name": "balanceOf",
			"outputs": [
				{
					"internalType": "uint256",
					"name": "",
					"type": "uint256"
				}
			],
			"stateMutability": "view",
			"type": "function"
		},
		{
			"inputs": [
				{
					"internalType": "string",
					"name": "newURL",
					"type": "string"
				}
			],
			"name": "changeExtURL",
			"outputs": [],
			"stateMutability": "nonpayable",
			"type": "function"
		},
		{
			"inputs": [
				{
					"internalType": "address",
					"name": "newRec",
					"type": "address"
				}
			],
			"name": "changeFeeRec",
			"outputs": [],
			"stateMutability": "nonpayable",
			"type": "function"
		},
		{
			"inputs": [
				{
					"internalType": "uint256",
					"name": "newCost",
					"type": "uint256"
				}
			],
			"name": "changeMintCost",
			"outputs": [],
			"stateMutability": "nonpayable",
			"type": "function"
		},
		{
			"inputs": [],
			"name": "contractURI",
			"outputs": [
				{
					"internalType": "string",
					"name": "",
					"type": "string"
				}
			],
			"stateMutability": "view",
			"type": "function"
		},
		{
			"inputs": [
				{
					"internalType": "uint256",
					"name": "tokenId",
					"type": "uint256"
				}
			],
			"name": "getApproved",
			"outputs": [
				{
					"internalType": "address",
					"name": "",
					"type": "address"
				}
			],
			"stateMutability": "view",
			"type": "function"
		},
		{
			"inputs": [
				{
					"internalType": "address",
					"name": "owner",
					"type": "address"
				},
				{
					"internalType": "address",
					"name": "operator",
					"type": "address"
				}
			],
			"name": "isApprovedForAll",
			"outputs": [
				{
					"internalType": "bool",
					"name": "",
					"type": "bool"
				}
			],
			"stateMutability": "view",
			"type": "function"
		},
		{
			"inputs": [],
			"name": "mint",
			"outputs": [],
			"stateMutability": "nonpayable",
			"type": "function"
		},
		{
			"inputs": [],
			"name": "name",
			"outputs": [
				{
					"internalType": "string",
					"name": "",
					"type": "string"
				}
			],
			"stateMutability": "view",
			"type": "function"
		},
		{
			"inputs": [],
			"name": "owner",
			"outputs": [
				{
					"internalType": "address",
					"name": "",
					"type": "address"
				}
			],
			"stateMutability": "view",
			"type": "function"
		},
		{
			"inputs": [
				{
					"internalType": "uint256",
					"name": "tokenId",
					"type": "uint256"
				}
			],
			"name": "ownerOf",
			"outputs": [
				{
					"internalType": "address",
					"name": "",
					"type": "address"
				}
			],
			"stateMutability": "view",
			"type": "function"
		},
		{
			"inputs": [],
			"name": "renounceOwnership",
			"outputs": [],
			"stateMutability": "nonpayable",
			"type": "function"
		},
		{
			"inputs": [
				{
					"internalType": "address",
					"name": "from",
					"type": "address"
				},
				{
					"internalType": "address",
					"name": "to",
					"type": "address"
				},
				{
					"internalType": "uint256",
					"name": "tokenId",
					"type": "uint256"
				}
			],
			"name": "safeTransferFrom",
			"outputs": [],
			"stateMutability": "nonpayable",
			"type": "function"
		},
		{
			"inputs": [
				{
					"internalType": "address",
					"name": "from",
					"type": "address"
				},
				{
					"internalType": "address",
					"name": "to",
					"type": "address"
				},
				{
					"internalType": "uint256",
					"name": "tokenId",
					"type": "uint256"
				},
				{
					"internalType": "bytes",
					"name": "_data",
					"type": "bytes"
				}
			],
			"name": "safeTransferFrom",
			"outputs": [],
			"stateMutability": "nonpayable",
			"type": "function"
		},
		{
			"inputs": [
				{
					"internalType": "address",
					"name": "operator",
					"type": "address"
				},
				{
					"internalType": "bool",
					"name": "approved",
					"type": "bool"
				}
			],
			"name": "setApprovalForAll",
			"outputs": [],
			"stateMutability": "nonpayable",
			"type": "function"
		},
		{
			"inputs": [
				{
					"internalType": "bytes4",
					"name": "interfaceId",
					"type": "bytes4"
				}
			],
			"name": "supportsInterface",
			"outputs": [
				{
					"internalType": "bool",
					"name": "",
					"type": "bool"
				}
			],
			"stateMutability": "view",
			"type": "function"
		},
		{
			"inputs": [],
			"name": "symbol",
			"outputs": [
				{
					"internalType": "string",
					"name": "",
					"type": "string"
				}
			],
			"stateMutability": "view",
			"type": "function"
		},
		{
			"inputs": [
				{
					"internalType": "uint256",
					"name": "index",
					"type": "uint256"
				}
			],
			"name": "tokenByIndex",
			"outputs": [
				{
					"internalType": "uint256",
					"name": "",
					"type": "uint256"
				}
			],
			"stateMutability": "view",
			"type": "function"
		},
		{
			"inputs": [
				{
					"internalType": "address",
					"name": "owner",
					"type": "address"
				},
				{
					"internalType": "uint256",
					"name": "index",
					"type": "uint256"
				}
			],
			"name": "tokenOfOwnerByIndex",
			"outputs": [
				{
					"internalType": "uint256",
					"name": "",
					"type": "uint256"
				}
			],
			"stateMutability": "view",
			"type": "function"
		},
		{
			"inputs": [
				{
					"internalType": "uint256",
					"name": "tokenId",
					"type": "uint256"
				}
			],
			"name": "tokenSVG",
			"outputs": [
				{
					"internalType": "string",
					"name": "",
					"type": "string"
				}
			],
			"stateMutability": "view",
			"type": "function"
		},
		{
			"inputs": [
				{
					"internalType": "uint256",
					"name": "tokenId",
					"type": "uint256"
				}
			],
			"name": "tokenURI",
			"outputs": [
				{
					"internalType": "string",
					"name": "",
					"type": "string"
				}
			],
			"stateMutability": "view",
			"type": "function"
		},
		{
			"inputs": [],
			"name": "totalSupply",
			"outputs": [
				{
					"internalType": "uint256",
					"name": "",
					"type": "uint256"
				}
			],
			"stateMutability": "view",
			"type": "function"
		},
		{
			"inputs": [
				{
					"internalType": "address",
					"name": "from",
					"type": "address"
				},
				{
					"internalType": "address",
					"name": "to",
					"type": "address"
				},
				{
					"internalType": "uint256",
					"name": "tokenId",
					"type": "uint256"
				}
			],
			"name": "transferFrom",
			"outputs": [],
			"stateMutability": "nonpayable",
			"type": "function"
		},
		{
			"inputs": [
				{
					"internalType": "address",
					"name": "newOwner",
					"type": "address"
				}
			],
			"name": "transferOwnership",
			"outputs": [],
			"stateMutability": "nonpayable",
			"type": "function"
		},
		{
			"inputs": [
				{
					"internalType": "uint256",
					"name": "tokenId",
					"type": "uint256"
				},
				{
					"internalType": "uint256[5]",
					"name": "newColourConfig",
					"type": "uint256[5]"
				}
			],
			"name": "usePaintbrush",
			"outputs": [],
			"stateMutability": "nonpayable",
			"type": "function"
		}
	]
}