{
	"data": {
		"bytecode": {
			"linkReferences": {},
			"object": "610100604052600d60c08190526c23b2b6a1b0bb32902a37b5b2b760991b60e09081526200003191600491906200053b565b506040805180820190915260048082526347454d5360e01b60209092019182526200005f916005916200053b565b5060068054600960ff19909116811790915560036007819055600880547310ed43c718714eb63d5aa57b78b54704e256024e6001600160a01b031991821617909155825473497d6c2b7567b6756f4d6cec52d1f507da3d12509082168117909355600a805482169093178355600b805461dead9083168117909155600c8054831682179055600d80549092161781556005600f81905560159390935568056bc75e2d6310000060165560016017819055600060188190556019819055601a929092556004601b819055601c94909455601d839055601e839055601f83905560208490556021929092556022929092556023805463ffffffff19166301010101179055680d8d726b7177a80000602481905560255560268290556027919091556028805462ffffff191690911790553480156200019a57600080fd5b50620001a633620004eb565b33600081815260016020908152604080832069152d02c7e14af68000009081905590519081527fddf252ad1be2c89b69c2b068fc378daa952ba7f163c4a11628f55a4df523b3ef910160405180910390a36008546040805163c45a015560e01b815290516001600160a01b0390921691829163c45a0155916004808301926020929190829003018186803b1580156200023e57600080fd5b505afa15801562000253573d6000803e3d6000fd5b505050506040513d601f19601f82011682018060405250810190620002799190620005e1565b6001600160a01b031663c9c6539630836001600160a01b031663ad5c46486040518163ffffffff1660e01b815260040160206040518083038186803b158015620002c257600080fd5b505afa158015620002d7573d6000803e3d6000fd5b505050506040513d601f19601f82011682018060405250810190620002fd9190620005e1565b6040516001600160e01b031960e085901b1681526001600160a01b03928316600482015291166024820152604401602060405180830381600087803b1580156200034657600080fd5b505af11580156200035b573d6000803e3d6000fd5b505050506040513d601f19601f82011682018060405250810190620003819190620005e1565b6001600160601b0319606091821b811660a0529082901b16608052600160036000620003aa3390565b6001600160a01b03908116825260208083019390935260409182016000908120805495151560ff1996871617905560039093527f262bb27bbdd95c1cdc8e16957e36e38579ea44f7f6413dd7a9c75939def06b2c805485166001908117909155600954821684528284208054861682179055600a548216845282842080548616821790556008549091168352908220805490931681179092556010906200044e3390565b6001600160a01b03908116825260208083019390935260409182016000908120805495151560ff1996871617905560109093527f9e93e1db4a1f807cc22b2aecf4deeb0bf5745f1ecb319e87c68c5624c0fa6b69805485166001908117909155600954821684528284208054861682179055600a548216845282842080548616821790556008549091168352912080549092161790555062000650565b600080546001600160a01b038381166001600160a01b0319831681178455604051919092169283917f8be0079c531659141344cd1fd0a4f28419497f9722a3daafe3b4186f6b6457e09190a35050565b828054620005499062000613565b90600052602060002090601f0160209004810192826200056d5760008555620005b8565b82601f106200058857805160ff1916838001178555620005b8565b82800160010185558215620005b8579182015b82811115620005b85782518255916020019190600101906200059b565b50620005c6929150620005ca565b5090565b5b80821115620005c65760008155600101620005cb565b600060208284031215620005f457600080fd5b81516001600160a01b03811681146200060c57600080fd5b9392505050565b600181811c908216806200062857607f821691505b602082108114156200064a57634e487b7160e01b600052602260045260246000fd5b50919050565b60805160601c60a05160601c613f03620006b46000396000818161090101528181612a2601528181612e2a01528181612fcd015261300a0152600081816106c1015281816137e7015281816138af015281816138da01526139160152613f036000f3fe6080604052600436106105255760003560e01c806383f43bf7116102a2578063ba49bece11610165578063d9e66460116100cc578063f2d9e6af11610085578063f2d9e6af14611059578063f2eef73b14611079578063f2fde38b14611099578063f4405c18146110b9578063f8ae7d99146110cf578063fcbb765b146110ef57600080fd5b8063d9e6646014610f91578063dd62ed3e14610fb1578063e1cc9a1c14610ff7578063e20d15031461100d578063e5eebf4614611023578063e7037a221461104357600080fd5b8063c623305f1161011e578063c623305f14610ed7578063c9e8ee3414610ef7578063ca9ab1f014610f17578063cb71159514610f31578063ceda4a3214610f51578063d4f9a29e14610f7157600080fd5b8063ba49bece14610e2d578063bafc98d414610e4d578063bec385a014610e63578063c02556e914610e83578063c1b757cb14610ea1578063c28d16a614610ec157600080fd5b80639fc79cc511610209578063aa9ad663116101c2578063aa9ad66314610db7578063b243a22414610be0578063b345a71014610dd7578063b87f137a14610ded578063b9ca882e14610e0d578063ba09c10214610be057600080fd5b80639fc79cc514610ceb5780639ff0ebc914610d01578063a315a6ff14610d21578063a3e7620714610d41578063a9059cbb14610d77578063a9211d7f14610d9757600080fd5b80639456a4251161025b5780639456a42514610c205780639471e30c14610c4057806395d89b4114610c6057806395de8ad414610c75578063972f47e314610c955780639a04f85e14610ccb57600080fd5b806383f43bf714610b565780638d50f37514610b8c5780638da5cb5b14610bac5780638f3fa86014610bca5780638f9ad75014610be057806390e21ee014610c0057600080fd5b80633456e3eb116103ea5780635f19e33c116103515780636ff422691161030a5780636ff4226914610a9557806370a0823114610ab5578063715018a614610aeb57806372a6e52614610b0057806375cc1acf14610b20578063789046b814610b4057600080fd5b80635f19e33c146109ef57806362ab61a614610a0f578063647d2d8514610a2557806366e670fe14610a3b57806367d98b9614610a5b5780636c17908d14610a7557600080fd5b80634ec39ba9116103a35780634ec39ba9146109395780634edea0f214610959578063515069ba14610979578063521dbf651461099957806353970c36146109b95780635e6e3b1e146109d957600080fd5b80633456e3eb1461088357806334946dbb146108a35780633a9db6fe146108b957806341eaf9c0146108cf57806349bd5a5e146108ef57806349d4ec6a1461092357600080fd5b806318160ddd1161048e5780632a4ce562116104475780632a4ce562146107b65780632dc0562d146107ec5780632ec3d76d1461080c57806330dabc041461082b578063313ce56714610841578063340a76ef1461086357600080fd5b806318160ddd146107035780631ae430a81461072a5780631f7c85cc1461074a57806323b872dd1461076057806326ff3e341461078057806328758ce11461079657600080fd5b8063095ea7b3116104e0578063095ea7b3146106215780630bd11f8a146106415780630dd277e61461067a5780630fd9094c1461069a5780631694505e146106af57806316c2be6b146106e357600080fd5b8062c751e314610531578062e5c66814610553578063010a147314610590578063013e9f49146105bf57806304db6e68146105df57806306fdde03146105ff57600080fd5b3661052c57005b600080fd5b34801561053d57600080fd5b5061055161054c366004613a12565b611105565b005b34801561055f57600080fd5b50600b54610573906001600160a01b031681565b6040516001600160a01b0390911681526020015b60405180910390f35b34801561059c57600080fd5b506023546105af90610100900460ff1681565b6040519015158152602001610587565b3480156105cb57600080fd5b506105516105da366004613be6565b611159565b3480156105eb57600080fd5b506105516105fa366004613a12565b611188565b34801561060b57600080fd5b506106146111d4565b6040516105879190613c43565b34801561062d57600080fd5b506105af61063c366004613ac6565b611266565b34801561064d57600080fd5b506105af61065c366004613a12565b6001600160a01b031660009081526010602052604090205460ff1690565b34801561068657600080fd5b50610551610695366004613bc4565b61127c565b3480156106a657600080fd5b506105516112b9565b3480156106bb57600080fd5b506105737f000000000000000000000000000000000000000000000000000000000000000081565b3480156106ef57600080fd5b506105af6106fe366004613a12565b6112f1565b34801561070f57600080fd5b5069152d02c7e14af68000005b604051908152602001610587565b34801561073657600080fd5b50610551610745366004613be6565b61130f565b34801561075657600080fd5b5061071c60265481565b34801561076c57600080fd5b506105af61077b366004613a85565b61133e565b34801561078c57600080fd5b5061071c60205481565b3480156107a257600080fd5b506105736107b1366004613be6565b61138f565b3480156107c257600080fd5b5061071c6107d1366004613a12565b6001600160a01b03166000908152600e602052604090205490565b3480156107f857600080fd5b50600954610573906001600160a01b031681565b34801561081857600080fd5b506028546105af90610100900460ff1681565b34801561083757600080fd5b5061071c60175481565b34801561084d57600080fd5b5060065460405160ff9091168152602001610587565b34801561086f57600080fd5b5061055161087e366004613a12565b6113b9565b34801561088f57600080fd5b5061071c61089e366004613ac6565b611405565b3480156108af57600080fd5b5061071c60245481565b3480156108c557600080fd5b5061071c60275481565b3480156108db57600080fd5b506105516108ea366004613bc4565b611671565b3480156108fb57600080fd5b506105737f000000000000000000000000000000000000000000000000000000000000000081565b34801561092f57600080fd5b5061071c601d5481565b34801561094557600080fd5b50600a54610573906001600160a01b031681565b34801561096557600080fd5b50610551610974366004613a12565b6116b7565b34801561098557600080fd5b50610551610994366004613be6565b6116fb565b3480156109a557600080fd5b506105516109b4366004613ac6565b61172a565b3480156109c557600080fd5b506105516109d4366004613be6565b61183c565b3480156109e557600080fd5b5061071c60165481565b3480156109fb57600080fd5b50610551610a0a366004613a12565b61186b565b348015610a1b57600080fd5b5061071c60075481565b348015610a3157600080fd5b5061071c601c5481565b348015610a4757600080fd5b50610551610a56366004613a12565b6118b7565b348015610a6757600080fd5b506023546105af9060ff1681565b348015610a8157600080fd5b50600c54610573906001600160a01b031681565b348015610aa157600080fd5b50610551610ab0366004613be6565b61196e565b348015610ac157600080fd5b5061071c610ad0366004613a12565b6001600160a01b031660009081526001602052604090205490565b348015610af757600080fd5b5061055161199d565b348015610b0c57600080fd5b50610551610b1b366004613be6565b6119ef565b348015610b2c57600080fd5b50610551610b3b366004613be6565b611a1e565b348015610b4c57600080fd5b5061071c601e5481565b348015610b6257600080fd5b5061071c610b71366004613a12565b6001600160a01b031660009081526012602052604090205490565b348015610b9857600080fd5b50610551610ba7366004613be6565b611a4d565b348015610bb857600080fd5b506000546001600160a01b0316610573565b348015610bd657600080fd5b5061071c600f5481565b348015610bec57600080fd5b50610551610bfb366004613be6565b611a7c565b348015610c0c57600080fd5b50610551610c1b366004613bc4565b611aab565b348015610c2c57600080fd5b50610551610c3b366004613af2565b611aef565b348015610c4c57600080fd5b50610551610c5b366004613bc4565b611bcb565b348015610c6c57600080fd5b50610614611c0f565b348015610c8157600080fd5b50610551610c90366004613a12565b611c1e565b348015610ca157600080fd5b5061071c610cb0366004613a12565b6001600160a01b031660009081526011602052604090205490565b348015610cd757600080fd5b50610551610ce6366004613be6565b611c6a565b348015610cf757600080fd5b5061071c60195481565b348015610d0d57600080fd5b50610551610d1c366004613a12565b611c99565b348015610d2d57600080fd5b50610551610d3c366004613be6565b611d4c565b348015610d4d57600080fd5b5061071c610d5c366004613a12565b6001600160a01b031660009081526013602052604090205490565b348015610d8357600080fd5b506105af610d92366004613ac6565b611d7b565b348015610da357600080fd5b506023546105af9062010000900460ff1681565b348015610dc357600080fd5b50610551610dd2366004613af2565b611d88565b348015610de357600080fd5b5061071c601b5481565b348015610df957600080fd5b50610551610e08366004613be6565b611f88565b348015610e1957600080fd5b50610551610e28366004613be6565b611fb7565b348015610e3957600080fd5b50610551610e48366004613bc4565b611fe6565b348015610e5957600080fd5b5061071c60185481565b348015610e6f57600080fd5b50610551610e7e366004613a12565b612023565b348015610e8f57600080fd5b5061071c69152d02c7e14af680000081565b348015610ead57600080fd5b50600d54610573906001600160a01b031681565b348015610ecd57600080fd5b5061071c60225481565b348015610ee357600080fd5b50610551610ef2366004613a12565b612071565b348015610f0357600080fd5b50610551610f12366004613a12565b6120bd565b348015610f2357600080fd5b506028546105af9060ff1681565b348015610f3d57600080fd5b50610551610f4c366004613a12565b612101565b348015610f5d57600080fd5b50610551610f6c366004613be6565b61214d565b348015610f7d57600080fd5b50610551610f8c366004613af2565b61217c565b348015610f9d57600080fd5b50600854610573906001600160a01b031681565b348015610fbd57600080fd5b5061071c610fcc366004613a4c565b6001600160a01b03918216600090815260026020908152604080832093909416825291909152205490565b34801561100357600080fd5b5061071c601f5481565b34801561101957600080fd5b5061071c601a5481565b34801561102f57600080fd5b5061055161103e366004613a12565b612252565b34801561104f57600080fd5b5061071c60155481565b34801561106557600080fd5b50610551611074366004613af2565b6122b5565b34801561108557600080fd5b50610551611094366004613be6565b6124b6565b3480156110a557600080fd5b506105516110b4366004613a12565b6124e5565b3480156110c557600080fd5b5061071c60215481565b3480156110db57600080fd5b506105516110ea366004613be6565b612580565b3480156110fb57600080fd5b5061071c60255481565b6000546001600160a01b031633146111385760405162461bcd60e51b815260040161112f90613cde565b60405180910390fd5b6001600160a01b03166000908152601060205260409020805460ff19169055565b6000546001600160a01b031633146111835760405162461bcd60e51b815260040161112f90613cde565b601b55565b6000546001600160a01b031633146111b25760405162461bcd60e51b815260040161112f90613cde565b600880546001600160a01b0319166001600160a01b0392909216919091179055565b6060600480546111e390613de0565b80601f016020809104026020016040519081016040528092919081815260200182805461120f90613de0565b801561125c5780601f106112315761010080835404028352916020019161125c565b820191906000526020600020905b81548152906001019060200180831161123f57829003601f168201915b5050505050905090565b60006112733384846125af565b50600192915050565b6000546001600160a01b031633146112a65760405162461bcd60e51b815260040161112f90613cde565b6023805460ff1916911515919091179055565b6000546001600160a01b031633146112e35760405162461bcd60e51b815260040161112f90613cde565b6112ef601460006139d0565b565b6001600160a01b031660009081526003602052604090205460ff1690565b6000546001600160a01b031633146113395760405162461bcd60e51b815260040161112f90613cde565b602055565b600061134b8484846126d3565b6001600160a01b0384166000908152600260209081526040808320338085529252909120546113859186916113809086613709565b6125af565b5060019392505050565b6014818154811061139f57600080fd5b6000918252602090912001546001600160a01b0316905081565b6000546001600160a01b031633146113e35760405162461bcd60e51b815260040161112f90613cde565b600b80546001600160a01b0319166001600160a01b0392909216919091179055565b600b5460009081906001600160a01b0316336001600160a01b0316141561142a575060015b600c546001600160a01b0316336001600160a01b0316141561144a575060015b600d546001600160a01b0316336001600160a01b0316141561146a575060015b806114d65760405162461bcd60e51b815260206004820152603660248201527f46756e6374696f6e2063616e206f6e6c792062652063616c6c65642066726f6d60448201527508185c1c1c9bdd9959081391950810dbdb9d1c9858dd60521b606482015260840161112f565b6001600160a01b0384166000908152600e602052604090205415611536576001600160a01b0384166000908152600e6020526040902054611518906001613709565b6001600160a01b0385166000908152600e6020526040902055611653565b6001600160a01b0384166000908152600160205260409020548311156115b95760405162461bcd60e51b815260206004820152603260248201527f57616c6c657420646f6573206e6f7420686f6c6420746f6b656e73206f72204e60448201527111950818dc99591a5d1cc81d1bc81b5a5b9d60721b606482015260840161112f565b61dead6000526001602052600080516020613e8e833981519152546115de908461371c565b6001602052600080516020613e8e833981519152556001600160a01b038416600090815260409020546116119084613709565b6001600160a01b038516600081815260016020908152604091829020939093555185815261dead92600080516020613eae833981519152910160405180910390a35b5050506001600160a01b031660009081526012602052604090205490565b6000546001600160a01b0316331461169b5760405162461bcd60e51b815260040161112f90613cde565b60238054911515620100000262ff000019909216919091179055565b6000546001600160a01b031633146116e15760405162461bcd60e51b815260040161112f90613cde565b6001600160a01b0316600090815260136020526040812055565b6000546001600160a01b031633146117255760405162461bcd60e51b815260040161112f90613cde565b601755565b6000546001600160a01b031633146117545760405162461bcd60e51b815260040161112f90613cde565b306000908152600160205260409020548111156117aa5760405162461bcd60e51b81526020600482015260146024820152732bb0b63632ba103130b630b731b29032b93937b960611b604482015260640161112f565b6001600160a01b0382166000908152600160205260409020546117cd908261371c565b6001600160a01b0383166000908152600160205260408082209290925530815220546117f99082613709565b3060008181526001602090815260409182902093909355518381526001600160a01b03851692600080516020613eae833981519152910160405180910390a35050565b6000546001600160a01b031633146118665760405162461bcd60e51b815260040161112f90613cde565b602255565b6000546001600160a01b031633146118955760405162461bcd60e51b815260040161112f90613cde565b600c80546001600160a01b0319166001600160a01b0392909216919091179055565b6000546001600160a01b031633146118e15760405162461bcd60e51b815260040161112f90613cde565b6001600160a01b03811660009081526003602052604090205460ff161561194a5760405162461bcd60e51b815260206004820152601d60248201527f4163636f756e7420697320616c726561647920746178206578656d7074000000604482015260640161112f565b6001600160a01b03166000908152600360205260409020805460ff19166001179055565b6000546001600160a01b031633146119985760405162461bcd60e51b815260040161112f90613cde565b602555565b6000546001600160a01b031633146119c75760405162461bcd60e51b815260040161112f90613cde565b306000908152600160205260409020546604c01db400b0c914156112ef576112ef6000613728565b6000546001600160a01b03163314611a195760405162461bcd60e51b815260040161112f90613cde565b600755565b6000546001600160a01b03163314611a485760405162461bcd60e51b815260040161112f90613cde565b602455565b6000546001600160a01b03163314611a775760405162461bcd60e51b815260040161112f90613cde565b601855565b6000546001600160a01b03163314611aa65760405162461bcd60e51b815260040161112f90613cde565b601d55565b6000546001600160a01b03163314611ad55760405162461bcd60e51b815260040161112f90613cde565b602380549115156101000261ff0019909216919091179055565b6000546001600160a01b03163314611b195760405162461bcd60e51b815260040161112f90613cde565b815160005b81811015611bc55782600e6000868481518110611b3d57611b3d613e4c565b60200260200101516001600160a01b03166001600160a01b0316815260200190815260200160002054611b709190613d70565b600e6000868481518110611b8657611b86613e4c565b60200260200101516001600160a01b03166001600160a01b03168152602001908152602001600020819055508080611bbd90613e1b565b915050611b1e565b50505050565b6000546001600160a01b03163314611bf55760405162461bcd60e51b815260040161112f90613cde565b602880549115156101000261ff0019909216919091179055565b6060600580546111e390613de0565b6000546001600160a01b03163314611c485760405162461bcd60e51b815260040161112f90613cde565b600a80546001600160a01b0319166001600160a01b0392909216919091179055565b6000546001600160a01b03163314611c945760405162461bcd60e51b815260040161112f90613cde565b601955565b6000546001600160a01b03163314611cc35760405162461bcd60e51b815260040161112f90613cde565b6001600160a01b03811660009081526003602052604090205460ff16611d2b5760405162461bcd60e51b815260206004820152601960248201527f4163636f756e74206973206e6f7420746178206578656d707400000000000000604482015260640161112f565b6001600160a01b03166000908152600360205260409020805460ff19169055565b6000546001600160a01b03163314611d765760405162461bcd60e51b815260040161112f90613cde565b601c55565b60006112733384846126d3565b6000546001600160a01b03163314611db25760405162461bcd60e51b815260040161112f90613cde565b815160005b81811015611bc55760116000858381518110611dd557611dd5613e4c565b60200260200101516001600160a01b03166001600160a01b031681526020019081526020016000205460001415611f325760145460008115611edf5760005b82811015611e8457868481518110611e2e57611e2e613e4c565b60200260200101516001600160a01b031660148281548110611e5257611e52613e4c565b6000918252602090912001546001600160a01b03161415611e7257600191505b80611e7c81613e1b565b915050611e14565b5080611eda576014868481518110611e9e57611e9e613e4c565b60209081029190910181015182546001810184556000938452919092200180546001600160a01b0319166001600160a01b039092169190911790555b611f2f565b6014868481518110611ef357611ef3613e4c565b60209081029190910181015182546001810184556000938452919092200180546001600160a01b0319166001600160a01b039092169190911790555b50505b8260116000868481518110611f4957611f49613e4c565b60200260200101516001600160a01b03166001600160a01b03168152602001908152602001600020819055508080611f8090613e1b565b915050611db7565b6000546001600160a01b03163314611fb25760405162461bcd60e51b815260040161112f90613cde565b600f55565b6000546001600160a01b03163314611fe15760405162461bcd60e51b815260040161112f90613cde565b601655565b6000546001600160a01b031633146120105760405162461bcd60e51b815260040161112f90613cde565b6028805460ff1916911515919091179055565b6000546001600160a01b0316331461204d5760405162461bcd60e51b815260040161112f90613cde565b6001600160a01b03166000908152601060205260409020805460ff19166001179055565b6000546001600160a01b0316331461209b5760405162461bcd60e51b815260040161112f90613cde565b600d80546001600160a01b0319166001600160a01b0392909216919091179055565b6000546001600160a01b031633146120e75760405162461bcd60e51b815260040161112f90613cde565b6001600160a01b03166000908152600e6020526040812055565b6000546001600160a01b0316331461212b5760405162461bcd60e51b815260040161112f90613cde565b600980546001600160a01b0319166001600160a01b0392909216919091179055565b6000546001600160a01b031633146121775760405162461bcd60e51b815260040161112f90613cde565b602155565b6000546001600160a01b031633146121a65760405162461bcd60e51b815260040161112f90613cde565b815160005b81811015611bc55782601360008684815181106121ca576121ca613e4c565b60200260200101516001600160a01b03166001600160a01b03168152602001908152602001600020546121fd9190613d70565b6013600086848151811061221357612213613e4c565b60200260200101516001600160a01b03166001600160a01b0316815260200190815260200160002081905550808061224a90613e1b565b9150506121ab565b6000546001600160a01b0316331461227c5760405162461bcd60e51b815260040161112f90613cde565b6040516001600160a01b038216904780156108fc02916000818181858888f193505050501580156122b1573d6000803e3d6000fd5b5050565b6000546001600160a01b031633146122df5760405162461bcd60e51b815260040161112f90613cde565b815160005b81811015611bc557601454600081156123c55760005b8281101561236a5786848151811061231457612314613e4c565b60200260200101516001600160a01b03166014828154811061233857612338613e4c565b6000918252602090912001546001600160a01b0316141561235857600191505b8061236281613e1b565b9150506122fa565b50806123c057601486848151811061238457612384613e4c565b60209081029190910181015182546001810184556000938452919092200180546001600160a01b0319166001600160a01b039092169190911790555b612415565b60148684815181106123d9576123d9613e4c565b60209081029190910181015182546001810184556000938452919092200180546001600160a01b0319166001600160a01b039092169190911790555b846011600088868151811061242c5761242c613e4c565b60200260200101516001600160a01b03166001600160a01b031681526020019081526020016000205461245f9190613d70565b6011600088868151811061247557612475613e4c565b60200260200101516001600160a01b03166001600160a01b0316815260200190815260200160002081905550505080806124ae90613e1b565b9150506122e4565b6000546001600160a01b031633146124e05760405162461bcd60e51b815260040161112f90613cde565b601a55565b6000546001600160a01b0316331461250f5760405162461bcd60e51b815260040161112f90613cde565b6001600160a01b0381166125745760405162461bcd60e51b815260206004820152602660248201527f4f776e61626c653a206e6577206f776e657220697320746865207a65726f206160448201526564647265737360d01b606482015260840161112f565b61257d81613728565b50565b6000546001600160a01b031633146125aa5760405162461bcd60e51b815260040161112f90613cde565b601555565b6001600160a01b0383166126115760405162461bcd60e51b8152602060048201526024808201527f45524332303a20617070726f76652066726f6d20746865207a65726f206164646044820152637265737360e01b606482015260840161112f565b6001600160a01b0382166126725760405162461bcd60e51b815260206004820152602260248201527f45524332303a20617070726f766520746f20746865207a65726f206164647265604482015261737360f01b606482015260840161112f565b6001600160a01b0383811660008181526002602090815260408083209487168084529482529182902085905590518481527f8c5be1e5ebec7d5bd14f71427d1e84f3dd0314c0f7b2291e5b200ac8c7c3b925910160405180910390a3505050565b600081116127355760405162461bcd60e51b815260206004820152602960248201527f5472616e7366657220616d6f756e74206d7573742062652067726561746572206044820152687468616e207a65726f60b81b606482015260840161112f565b6001600160a01b0383166127995760405162461bcd60e51b815260206004820152602560248201527f45524332303a207472616e736665722066726f6d20746865207a65726f206164604482015264647265737360d81b606482015260840161112f565b6001600160a01b03831661dead14156128095760405162461bcd60e51b815260206004820152602c60248201527f42617365526669546f6b656e3a207472616e736665722066726f6d207468652060448201526b6275726e206164647265737360a01b606482015260840161112f565b6001600160a01b0383166000908152600160205260409020548111156128685760405162461bcd60e51b8152602060048201526014602482015273496e73756666696369656e742062616c616e636560601b604482015260640161112f565b6000546001600160a01b038481169116146128df576001600160a01b0382166128df5760405162461bcd60e51b815260206004820152602360248201527f45524332303a207472616e7366657220746f20746865207a65726f206164647260448201526265737360e81b606482015260840161112f565b6023805463ff00000019166301000000179055602854819060009081908190819062010000900460ff161561291c576023805463ff000000191690555b6007546000906129419061293b69152d02c7e14af68000006064613778565b90613784565b90506129556000546001600160a01b031690565b6001600160a01b0316886001600160a01b03161415801561298457506000546001600160a01b038a8116911614155b80156129965750612994896112f1565b155b80156129a857506129a6886112f1565b155b80156129bd57506023546301000000900460ff165b15612a245780871115612a245760405162461bcd60e51b815260206004820152602960248201527f5472616e7366657220616d6f756e74206578636565647320746865206d6178546044820152683c2832b931b2b73a1760b91b606482015260840161112f565b7f00000000000000000000000000000000000000000000000000000000000000006001600160a01b0316896001600160a01b03161415612e2857612a67886112f1565b80612a7a5750602354610100900460ff16155b15612a8d576023805463ff000000191690555b6001600160a01b03881660009081526013602052604090205415612af6576023805463ff000000191690556001600160a01b038816600090815260136020526040902054612adc906001613709565b6001600160a01b0389166000908152601360205260409020555b6001600160a01b03881660009081526010602052604090205460ff16612b86576001600160a01b038816600090815260016020526040812054612b39908961371c565b90506000612b61600f5461293b606469152d02c7e14af680000061377890919063ffffffff16565b905080821115612b835760405162461bcd60e51b815260040161112f90613c98565b50505b601854601b54601e5460215460285493985091965094509250610100900460ff168015612bbc575060285462010000900460ff16155b15612c75576024543060009081526001602052604090205410158015612be6575060245460265410155b15612c1b576028805462ff0000191662010000179055602454600954612c1591906001600160a01b0316613790565b60006026555b6025543060009081526001602052604090205410158015612c40575060255460275410155b15612c75576028805462ff0000191662010000179055602554600a54612c6f91906001600160a01b0316613790565b60006027555b6016548710158015612c9057506001600160a01b0388163014155b15612e28576001600160a01b038816600090815260116020526040902054612dbd5760145460008115612d6e5760005b82811015612d17578a6001600160a01b031660148281548110612ce557612ce5613e4c565b6000918252602090912001546001600160a01b03161415612d0557600191505b80612d0f81613e1b565b915050612cc0565b5080612d6957601480546001810182556000919091527fce6d7b5282bd9a3661ae061feed1dbda4e52ab073b1f9285be6e155d9c38d4ec0180546001600160a01b0319166001600160a01b038c161790555b612dba565b601480546001810182556000919091527fce6d7b5282bd9a3661ae061feed1dbda4e52ab073b1f9285be6e155d9c38d4ec0180546001600160a01b0319166001600160a01b038c161790555b50505b6000612dd46016548961377890919063ffffffff16565b9050612e0d612dee8260155461378490919063ffffffff16565b6001600160a01b038b166000908152601160205260409020549061371c565b6001600160a01b038a16600090815260116020526040902055505b7f00000000000000000000000000000000000000000000000000000000000000006001600160a01b0316886001600160a01b03161415612fcb57612e6b896112f1565b80612e79575060235460ff16155b15612e8c576023805463ff000000191690555b601754601a54601d546020546028549398509196509450925060ff168015612ebd575060285462010000900460ff16155b15612f76576024543060009081526001602052604090205410158015612ee7575060245460265410155b15612f1c576028805462ff0000191662010000179055602454600954612f1691906001600160a01b0316613790565b60006026555b6025543060009081526001602052604090205410158015612f41575060255460275410155b15612f76576028805462ff0000191662010000179055602554600a54612f7091906001600160a01b0316613790565b60006027555b6001600160a01b03891660009081526011602052604090205415612fb1576001600160a01b0389166000908152601160205260409020600190555b6001600160a01b0389166000908152601360205260408120555b7f00000000000000000000000000000000000000000000000000000000000000006001600160a01b0316896001600160a01b03161415801561303f57507f00000000000000000000000000000000000000000000000000000000000000006001600160a01b0316886001600160a01b031614155b156131285761304d896112f1565b8061305c575061305c886112f1565b80613070575060235462010000900460ff16155b15613083576023805463ff000000191690555b6001600160a01b03881660009081526010602052604090205460ff16613113576001600160a01b0388166000908152600160205260408120546130c6908961371c565b905060006130ee600f5461293b606469152d02c7e14af680000061377890919063ffffffff16565b9050808211156131105760405162461bcd60e51b815260040161112f90613c98565b50505b6019549450601c549350601f54925060225491505b6023546301000000900460ff16156136685784156131da5760006131518661293b8a6064613778565b61dead6000526001602052600080516020613e8e83398151915254909150613179908261371c565b61dead60008190526001602052600080516020613e8e833981519152919091556040516001600160a01b038c1690600080516020613eae833981519152906131c49085815260200190565b60405180910390a36131d68782613709565b9650505b831561326a5760006131f18561293b8a6064613778565b3060009081526001602052604090205490915061320e908261371c565b3060009081526001602052604090205560265461322b908261371c565b60265560405181815230906001600160a01b038c1690600080516020613eae8339815191529060200160405180910390a36132668782613709565b9650505b81156133765760006132818361293b8a6064613778565b90506000613290826002613778565b600a546001600160a01b03166000908152600160205260409020549091506132b8908261371c565b600a546001600160a01b03166000908152600160205260408082209290925530815220546132e6908261371c565b30600090815260016020526040902055602754613303908261371c565b60275560405181815230906001600160a01b038d1690600080516020613eae8339815191529060200160405180910390a3600a546040518281526001600160a01b03918216918d1690600080516020613eae8339815191529060200160405180910390a36133718883613709565b975050505b821561366857600061338d8461293b8a6064613778565b6001600160a01b038b1660009081526001602052604090205490915084116136665760145480156136645760006133c48383613778565b905060005b8281101561366157600060116000601484815481106133ea576133ea613e4c565b60009182526020808320909101546001600160a01b03168352820192909252604001902054111561364f578c6001600160a01b03166014828154811061343257613432613e4c565b6000918252602090912001546001600160a01b03161480159061348557508b6001600160a01b03166014828154811061346d5761346d613e4c565b6000918252602090912001546001600160a01b031614155b1561364f576134d08260016000601485815481106134a5576134a5613e4c565b60009182526020808320909101546001600160a01b031683528201929092526040019020549061371c565b60016000601484815481106134e7576134e7613e4c565b60009182526020808320909101546001600160a01b03168352820192909252604001902055601480548290811061352057613520613e4c565b6000918252602090912001546040516001600160a01b03918216918f1690600080516020613eae8339815191529061355b9086815260200190565b60405180910390a361356d8a83613709565b99506135b66001601160006014858154811061358b5761358b613e4c565b60009182526020808320909101546001600160a01b0316835282019290925260400190205490613709565b60116000601484815481106135cd576135cd613e4c565b60009182526020808320909101546001600160a01b0316835282019290925260400181209190915560148054613612928592601292869081106134a5576134a5613e4c565b601260006014848154811061362957613629613e4c565b60009182526020808320909101546001600160a01b031683528201929092526040019020555b8061365981613e1b565b9150506133c9565b50505b505b505b6001600160a01b03881660009081526001602052604090205461368b908761371c565b6001600160a01b03808a1660009081526001602052604080822093909355908b16815220546136ba9088613709565b6001600160a01b038a81166000818152600160209081526040918290209490945551898152918b16929091600080516020613eae833981519152910160405180910390a3505050505050505050565b60006137158284613dc9565b9392505050565b60006137158284613d70565b600080546001600160a01b038381166001600160a01b0319831681178455604051919092169283917f8be0079c531659141344cd1fd0a4f28419497f9722a3daafe3b4186f6b6457e09190a35050565b60006137158284613d88565b60006137158284613daa565b60408051600280825260608201835260009260208301908036833701905050905030816000815181106137c5576137c5613e4c565b60200260200101906001600160a01b031690816001600160a01b0316815250507f00000000000000000000000000000000000000000000000000000000000000006001600160a01b031663ad5c46486040518163ffffffff1660e01b815260040160206040518083038186803b15801561383e57600080fd5b505afa158015613852573d6000803e3d6000fd5b505050506040513d601f19601f820116820180604052508101906138769190613a2f565b8160018151811061388957613889613e4c565b60200260200101906001600160a01b031690816001600160a01b0316815250506138d4307f0000000000000000000000000000000000000000000000000000000000000000856125af565b6138ff827f0000000000000000000000000000000000000000000000000000000000000000856125af565b60405163791ac94760e01b81526001600160a01b037f0000000000000000000000000000000000000000000000000000000000000000169063791ac94790613954908690600090869088904290600401613d34565b600060405180830381600087803b15801561396e57600080fd5b505af1158015613982573d6000803e3d6000fd5b505050507f32cde87eb454f3a0b875ab23547023107cfad454363ec88ba5695e2c24aa52a783826040516139b7929190613d13565b60405180910390a150506028805462ff00001916905550565b508054600082559060005260206000209081019061257d91905b808211156139fe57600081556001016139ea565b5090565b8035613a0d81613e78565b919050565b600060208284031215613a2457600080fd5b813561371581613e78565b600060208284031215613a4157600080fd5b815161371581613e78565b60008060408385031215613a5f57600080fd5b8235613a6a81613e78565b91506020830135613a7a81613e78565b809150509250929050565b600080600060608486031215613a9a57600080fd5b8335613aa581613e78565b92506020840135613ab581613e78565b929592945050506040919091013590565b60008060408385031215613ad957600080fd5b8235613ae481613e78565b946020939093013593505050565b60008060408385031215613b0557600080fd5b823567ffffffffffffffff80821115613b1d57600080fd5b818501915085601f830112613b3157600080fd5b8135602082821115613b4557613b45613e62565b8160051b604051601f19603f83011681018181108682111715613b6a57613b6a613e62565b604052838152828101945085830182870184018b1015613b8957600080fd5b600096505b84871015613bb357613b9f81613a02565b865260019690960195948301948301613b8e565b509997909101359750505050505050565b600060208284031215613bd657600080fd5b8135801515811461371557600080fd5b600060208284031215613bf857600080fd5b5035919050565b600081518084526020808501945080840160005b83811015613c385781516001600160a01b031687529582019590820190600101613c13565b509495945050505050565b600060208083528351808285015260005b81811015613c7057858101830151858201604001528201613c54565b81811115613c82576000604083870101525b50601f01601f1916929092016040019392505050565b60208082526026908201527f57616c6c657420776f756c642065786365656420746865206d617857616c6c656040820152653a29b4bd329760d11b606082015260800190565b6020808252818101527f4f776e61626c653a2063616c6c6572206973206e6f7420746865206f776e6572604082015260600190565b828152604060208201526000613d2c6040830184613bff565b949350505050565b85815284602082015260a060408201526000613d5360a0830186613bff565b6001600160a01b0394909416606083015250608001529392505050565b60008219821115613d8357613d83613e36565b500190565b600082613da557634e487b7160e01b600052601260045260246000fd5b500490565b6000816000190483118215151615613dc457613dc4613e36565b500290565b600082821015613ddb57613ddb613e36565b500390565b600181811c90821680613df457607f821691505b60208210811415613e1557634e487b7160e01b600052602260045260246000fd5b50919050565b6000600019821415613e2f57613e2f613e36565b5060010190565b634e487b7160e01b600052601160045260246000fd5b634e487b7160e01b600052603260045260246000fd5b634e487b7160e01b600052604160045260246000fd5b6001600160a01b038116811461257d57600080fdfeb34209a263f6c38fe55f099e9e70f9d67e93982480ff3234a5e0108028ad164dddf252ad1be2c89b69c2b068fc378daa952ba7f163c4a11628f55a4df523b3efa264697066735822122087fcb85c898243d899953567aee3d759c8dc00c828606e25ec056a79e5f6acd364736f6c63430008070033",
			"opcodes": "PUSH2 0x100 PUSH1 0x40 MSTORE PUSH1 0xD PUSH1 0xC0 DUP2 SWAP1 MSTORE PUSH13 0x23B2B6A1B0BB32902A37B5B2B7 PUSH1 0x99 SHL PUSH1 0xE0 SWAP1 DUP2 MSTORE PUSH3 0x31 SWAP2 PUSH1 0x4 SWAP2 SWAP1 PUSH3 0x53B JUMP JUMPDEST POP PUSH1 0x40 DUP1 MLOAD DUP1 DUP3 ADD SWAP1 SWAP2 MSTORE PUSH1 0x4 DUP1 DUP3 MSTORE PUSH4 0x47454D53 PUSH1 0xE0 SHL PUSH1 0x20 SWAP1 SWAP3 ADD SWAP2 DUP3 MSTORE PUSH3 0x5F SWAP2 PUSH1 0x5 SWAP2 PUSH3 0x53B JUMP JUMPDEST POP PUSH1 0x6 DUP1 SLOAD PUSH1 0x9 PUSH1 0xFF NOT SWAP1 SWAP2 AND DUP2 OR SWAP1 SWAP2 SSTORE PUSH1 0x3 PUSH1 0x7 DUP2 SWAP1 SSTORE PUSH1 0x8 DUP1 SLOAD PUSH20 0x10ED43C718714EB63D5AA57B78B54704E256024E PUSH1 0x1 PUSH1 0x1 PUSH1 0xA0 SHL SUB NOT SWAP2 DUP3 AND OR SWAP1 SWAP2 SSTORE DUP3 SLOAD PUSH20 0x497D6C2B7567B6756F4D6CEC52D1F507DA3D1250 SWAP1 DUP3 AND DUP2 OR SWAP1 SWAP4 SSTORE PUSH1 0xA DUP1 SLOAD DUP3 AND SWAP1 SWAP4 OR DUP4 SSTORE PUSH1 0xB DUP1 SLOAD PUSH2 0xDEAD SWAP1 DUP4 AND DUP2 OR SWAP1 SWAP2 SSTORE PUSH1 0xC DUP1 SLOAD DUP4 AND DUP3 OR SWAP1 SSTORE PUSH1 0xD DUP1 SLOAD SWAP1 SWAP3 AND OR DUP2 SSTORE PUSH1 0x5 PUSH1 0xF DUP2 SWAP1 SSTORE PUSH1 0x15 SWAP4 SWAP1 SWAP4 SSTORE PUSH9 0x56BC75E2D63100000 PUSH1 0x16 SSTORE PUSH1 0x1 PUSH1 0x17 DUP2 SWAP1 SSTORE PUSH1 0x0 PUSH1 0x18 DUP2 SWAP1 SSTORE PUSH1 0x19 DUP2 SWAP1 SSTORE PUSH1 0x1A SWAP3 SWAP1 SWAP3 SSTORE PUSH1 0x4 PUSH1 0x1B DUP2 SWAP1 SSTORE PUSH1 0x1C SWAP5 SWAP1 SWAP5 SSTORE PUSH1 0x1D DUP4 SWAP1 SSTORE PUSH1 0x1E DUP4 SWAP1 SSTORE PUSH1 0x1F DUP4 SWAP1 SSTORE PUSH1 0x20 DUP5 SWAP1 SSTORE PUSH1 0x21 SWAP3 SWAP1 SWAP3 SSTORE PUSH1 0x22 SWAP3 SWAP1 SWAP3 SSTORE PUSH1 0x23 DUP1 SLOAD PUSH4 0xFFFFFFFF NOT AND PUSH4 0x1010101 OR SWAP1 SSTORE PUSH9 0xD8D726B7177A80000 PUSH1 0x24 DUP2 SWAP1 SSTORE PUSH1 0x25 SSTORE PUSH1 0x26 DUP3 SWAP1 SSTORE PUSH1 0x27 SWAP2 SWAP1 SWAP2 SSTORE PUSH1 0x28 DUP1 SLOAD PUSH3 0xFFFFFF NOT AND SWAP1 SWAP2 OR SWAP1 SSTORE CALLVALUE DUP1 ISZERO PUSH3 0x19A JUMPI PUSH1 0x0 DUP1 REVERT JUMPDEST POP PUSH3 0x1A6 CALLER PUSH3 0x4EB JUMP JUMPDEST CALLER PUSH1 0x0 DUP2 DUP2 MSTORE PUSH1 0x1 PUSH1 0x20 SWAP1 DUP2 MSTORE PUSH1 0x40 DUP1 DUP4 KECCAK256 PUSH10 0x152D02C7E14AF6800000 SWAP1 DUP2 SWAP1 SSTORE SWAP1 MLOAD SWAP1 DUP2 MSTORE PUSH32 0xDDF252AD1BE2C89B69C2B068FC378DAA952BA7F163C4A11628F55A4DF523B3EF SWAP2 ADD PUSH1 0x40 MLOAD DUP1 SWAP2 SUB SWAP1 LOG3 PUSH1 0x8 SLOAD PUSH1 0x40 DUP1 MLOAD PUSH4 0xC45A0155 PUSH1 0xE0 SHL DUP2 MSTORE SWAP1 MLOAD PUSH1 0x1 PUSH1 0x1 PUSH1 0xA0 SHL SUB SWAP1 SWAP3 AND SWAP2 DUP3 SWAP2 PUSH4 0xC45A0155 SWAP2 PUSH1 0x4 DUP1 DUP4 ADD SWAP3 PUSH1 0x20 SWAP3 SWAP2 SWAP1 DUP3 SWAP1 SUB ADD DUP2 DUP7 DUP1 EXTCODESIZE ISZERO DUP1 ISZERO PUSH3 0x23E JUMPI PUSH1 0x0 DUP1 REVERT JUMPDEST POP GAS STATICCALL ISZERO DUP1 ISZERO PUSH3 0x253 JUMPI RETURNDATASIZE PUSH1 0x0 DUP1 RETURNDATACOPY RETURNDATASIZE PUSH1 0x0 REVERT JUMPDEST POP POP POP POP PUSH1 0x40 MLOAD RETURNDATASIZE PUSH1 0x1F NOT PUSH1 0x1F DUP3 ADD AND DUP3 ADD DUP1 PUSH1 0x40 MSTORE POP DUP2 ADD SWAP1 PUSH3 0x279 SWAP2 SWAP1 PUSH3 0x5E1 JUMP JUMPDEST PUSH1 0x1 PUSH1 0x1 PUSH1 0xA0 SHL SUB AND PUSH4 0xC9C65396 ADDRESS DUP4 PUSH1 0x1 PUSH1 0x1 PUSH1 0xA0 SHL SUB AND PUSH4 0xAD5C4648 PUSH1 0x40 MLOAD DUP2 PUSH4 0xFFFFFFFF AND PUSH1 0xE0 SHL DUP2 MSTORE PUSH1 0x4 ADD PUSH1 0x20 PUSH1 0x40 MLOAD DUP1 DUP4 SUB DUP2 DUP7 DUP1 EXTCODESIZE ISZERO DUP1 ISZERO PUSH3 0x2C2 JUMPI PUSH1 0x0 DUP1 REVERT JUMPDEST POP GAS STATICCALL ISZERO DUP1 ISZERO PUSH3 0x2D7 JUMPI RETURNDATASIZE PUSH1 0x0 DUP1 RETURNDATACOPY RETURNDATASIZE PUSH1 0x0 REVERT JUMPDEST POP POP POP POP PUSH1 0x40 MLOAD RETURNDATASIZE PUSH1 0x1F NOT PUSH1 0x1F DUP3 ADD AND DUP3 ADD DUP1 PUSH1 0x40 MSTORE POP DUP2 ADD SWAP1 PUSH3 0x2FD SWAP2 SWAP1 PUSH3 0x5E1 JUMP JUMPDEST PUSH1 0x40 MLOAD PUSH1 0x1 PUSH1 0x1 PUSH1 0xE0 SHL SUB NOT PUSH1 0xE0 DUP6 SWAP1 SHL AND DUP2 MSTORE PUSH1 0x1 PUSH1 0x1 PUSH1 0xA0 SHL SUB SWAP3 DUP4 AND PUSH1 0x4 DUP3 ADD MSTORE SWAP2 AND PUSH1 0x24 DUP3 ADD MSTORE PUSH1 0x44 ADD PUSH1 0x20 PUSH1 0x40 MLOAD DUP1 DUP4 SUB DUP2 PUSH1 0x0 DUP8 DUP1 EXTCODESIZE ISZERO DUP1 ISZERO PUSH3 0x346 JUMPI PUSH1 0x0 DUP1 REVERT JUMPDEST POP GAS CALL ISZERO DUP1 ISZERO PUSH3 0x35B JUMPI RETURNDATASIZE PUSH1 0x0 DUP1 RETURNDATACOPY RETURNDATASIZE PUSH1 0x0 REVERT JUMPDEST POP POP POP POP PUSH1 0x40 MLOAD RETURNDATASIZE PUSH1 0x1F NOT PUSH1 0x1F DUP3 ADD AND DUP3 ADD DUP1 PUSH1 0x40 MSTORE POP DUP2 ADD SWAP1 PUSH3 0x381 SWAP2 SWAP1 PUSH3 0x5E1 JUMP JUMPDEST PUSH1 0x1 PUSH1 0x1 PUSH1 0x60 SHL SUB NOT PUSH1 0x60 SWAP2 DUP3 SHL DUP2 AND PUSH1 0xA0 MSTORE SWAP1 DUP3 SWAP1 SHL AND PUSH1 0x80 MSTORE PUSH1 0x1 PUSH1 0x3 PUSH1 0x0 PUSH3 0x3AA CALLER SWAP1 JUMP JUMPDEST PUSH1 0x1 PUSH1 0x1 PUSH1 0xA0 SHL SUB SWAP1 DUP2 AND DUP3 MSTORE PUSH1 0x20 DUP1 DUP4 ADD SWAP4 SWAP1 SWAP4 MSTORE PUSH1 0x40 SWAP2 DUP3 ADD PUSH1 0x0 SWAP1 DUP2 KECCAK256 DUP1 SLOAD SWAP6 ISZERO ISZERO PUSH1 0xFF NOT SWAP7 DUP8 AND OR SWAP1 SSTORE PUSH1 0x3 SWAP1 SWAP4 MSTORE PUSH32 0x262BB27BBDD95C1CDC8E16957E36E38579EA44F7F6413DD7A9C75939DEF06B2C DUP1 SLOAD DUP6 AND PUSH1 0x1 SWAP1 DUP2 OR SWAP1 SWAP2 SSTORE PUSH1 0x9 SLOAD DUP3 AND DUP5 MSTORE DUP3 DUP5 KECCAK256 DUP1 SLOAD DUP7 AND DUP3 OR SWAP1 SSTORE PUSH1 0xA SLOAD DUP3 AND DUP5 MSTORE DUP3 DUP5 KECCAK256 DUP1 SLOAD DUP7 AND DUP3 OR SWAP1 SSTORE PUSH1 0x8 SLOAD SWAP1 SWAP2 AND DUP4 MSTORE SWAP1 DUP3 KECCAK256 DUP1 SLOAD SWAP1 SWAP4 AND DUP2 OR SWAP1 SWAP3 SSTORE PUSH1 0x10 SWAP1 PUSH3 0x44E CALLER SWAP1 JUMP JUMPDEST PUSH1 0x1 PUSH1 0x1 PUSH1 0xA0 SHL SUB SWAP1 DUP2 AND DUP3 MSTORE PUSH1 0x20 DUP1 DUP4 ADD SWAP4 SWAP1 SWAP4 MSTORE PUSH1 0x40 SWAP2 DUP3 ADD PUSH1 0x0 SWAP1 DUP2 KECCAK256 DUP1 SLOAD SWAP6 ISZERO ISZERO PUSH1 0xFF NOT SWAP7 DUP8 AND OR SWAP1 SSTORE PUSH1 0x10 SWAP1 SWAP4 MSTORE PUSH32 0x9E93E1DB4A1F807CC22B2AECF4DEEB0BF5745F1ECB319E87C68C5624C0FA6B69 DUP1 SLOAD DUP6 AND PUSH1 0x1 SWAP1 DUP2 OR SWAP1 SWAP2 SSTORE PUSH1 0x9 SLOAD DUP3 AND DUP5 MSTORE DUP3 DUP5 KECCAK256 DUP1 SLOAD DUP7 AND DUP3 OR SWAP1 SSTORE PUSH1 0xA SLOAD DUP3 AND DUP5 MSTORE DUP3 DUP5 KECCAK256 DUP1 SLOAD DUP7 AND DUP3 OR SWAP1 SSTORE PUSH1 0x8 SLOAD SWAP1 SWAP2 AND DUP4 MSTORE SWAP2 KECCAK256 DUP1 SLOAD SWAP1 SWAP3 AND OR SWAP1 SSTORE POP PUSH3 0x650 JUMP JUMPDEST PUSH1 0x0 DUP1 SLOAD PUSH1 0x1 PUSH1 0x1 PUSH1 0xA0 SHL SUB DUP4 DUP2 AND PUSH1 0x1 PUSH1 0x1 PUSH1 0xA0 SHL SUB NOT DUP4 AND DUP2 OR DUP5 SSTORE PUSH1 0x40 MLOAD SWAP2 SWAP1 SWAP3 AND SWAP3 DUP4 SWAP2 PUSH32 0x8BE0079C531659141344CD1FD0A4F28419497F9722A3DAAFE3B4186F6B6457E0 SWAP2 SWAP1 LOG3 POP POP JUMP JUMPDEST DUP3 DUP1 SLOAD PUSH3 0x549 SWAP1 PUSH3 0x613 JUMP JUMPDEST SWAP1 PUSH1 0x0 MSTORE PUSH1 0x20 PUSH1 0x0 KECCAK256 SWAP1 PUSH1 0x1F ADD PUSH1 0x20 SWAP1 DIV DUP2 ADD SWAP3 DUP3 PUSH3 0x56D JUMPI PUSH1 0x0 DUP6 SSTORE PUSH3 0x5B8 JUMP JUMPDEST DUP3 PUSH1 0x1F LT PUSH3 0x588 JUMPI DUP1 MLOAD PUSH1 0xFF NOT AND DUP4 DUP1 ADD OR DUP6 SSTORE PUSH3 0x5B8 JUMP JUMPDEST DUP3 DUP1 ADD PUSH1 0x1 ADD DUP6 SSTORE DUP3 ISZERO PUSH3 0x5B8 JUMPI SWAP2 DUP3 ADD JUMPDEST DUP3 DUP2 GT ISZERO PUSH3 0x5B8 JUMPI DUP3 MLOAD DUP3 SSTORE SWAP2 PUSH1 0x20 ADD SWAP2 SWAP1 PUSH1 0x1 ADD SWAP1 PUSH3 0x59B JUMP JUMPDEST POP PUSH3 0x5C6 SWAP3 SWAP2 POP PUSH3 0x5CA JUMP JUMPDEST POP SWAP1 JUMP JUMPDEST JUMPDEST DUP1 DUP3 GT ISZERO PUSH3 0x5C6 JUMPI PUSH1 0x0 DUP2 SSTORE PUSH1 0x1 ADD PUSH3 0x5CB JUMP JUMPDEST PUSH1 0x0 PUSH1 0x20 DUP3 DUP5 SUB SLT ISZERO PUSH3 0x5F4 JUMPI PUSH1 0x0 DUP1 REVERT JUMPDEST DUP2 MLOAD PUSH1 0x1 PUSH1 0x1 PUSH1 0xA0 SHL SUB DUP2 AND DUP2 EQ PUSH3 0x60C JUMPI PUSH1 0x0 DUP1 REVERT JUMPDEST SWAP4 SWAP3 POP POP POP JUMP JUMPDEST PUSH1 0x1 DUP2 DUP2 SHR SWAP1 DUP3 AND DUP1 PUSH3 0x628 JUMPI PUSH1 0x7F DUP3 AND SWAP2 POP JUMPDEST PUSH1 0x20 DUP3 LT DUP2 EQ ISZERO PUSH3 0x64A JUMPI PUSH4 0x4E487B71 PUSH1 0xE0 SHL PUSH1 0x0 MSTORE PUSH1 0x22 PUSH1 0x4 MSTORE PUSH1 0x24 PUSH1 0x0 REVERT JUMPDEST POP SWAP2 SWAP1 POP JUMP JUMPDEST PUSH1 0x80 MLOAD PUSH1 0x60 SHR PUSH1 0xA0 MLOAD PUSH1 0x60 SHR PUSH2 0x3F03 PUSH3 0x6B4 PUSH1 0x0 CODECOPY PUSH1 0x0 DUP2 DUP2 PUSH2 0x901 ADD MSTORE DUP2 DUP2 PUSH2 0x2A26 ADD MSTORE DUP2 DUP2 PUSH2 0x2E2A ADD MSTORE DUP2 DUP2 PUSH2 0x2FCD ADD MSTORE PUSH2 0x300A ADD MSTORE PUSH1 0x0 DUP2 DUP2 PUSH2 0x6C1 ADD MSTORE DUP2 DUP2 PUSH2 0x37E7 ADD MSTORE DUP2 DUP2 PUSH2 0x38AF ADD MSTORE DUP2 DUP2 PUSH2 0x38DA ADD MSTORE PUSH2 0x3916 ADD MSTORE PUSH2 0x3F03 PUSH1 0x0 RETURN INVALID PUSH1 0x80 PUSH1 0x40 MSTORE PUSH1 0x4 CALLDATASIZE LT PUSH2 0x525 JUMPI PUSH1 0x0 CALLDATALOAD PUSH1 0xE0 SHR DUP1 PUSH4 0x83F43BF7 GT PUSH2 0x2A2 JUMPI DUP1 PUSH4 0xBA49BECE GT PUSH2 0x165 JUMPI DUP1 PUSH4 0xD9E66460 GT PUSH2 0xCC JUMPI DUP1 PUSH4 0xF2D9E6AF GT PUSH2 0x85 JUMPI DUP1 PUSH4 0xF2D9E6AF EQ PUSH2 0x1059 JUMPI DUP1 PUSH4 0xF2EEF73B EQ PUSH2 0x1079 JUMPI DUP1 PUSH4 0xF2FDE38B EQ PUSH2 0x1099 JUMPI DUP1 PUSH4 0xF4405C18 EQ PUSH2 0x10B9 JUMPI DUP1 PUSH4 0xF8AE7D99 EQ PUSH2 0x10CF JUMPI DUP1 PUSH4 0xFCBB765B EQ PUSH2 0x10EF JUMPI PUSH1 0x0 DUP1 REVERT JUMPDEST DUP1 PUSH4 0xD9E66460 EQ PUSH2 0xF91 JUMPI DUP1 PUSH4 0xDD62ED3E EQ PUSH2 0xFB1 JUMPI DUP1 PUSH4 0xE1CC9A1C EQ PUSH2 0xFF7 JUMPI DUP1 PUSH4 0xE20D1503 EQ PUSH2 0x100D JUMPI DUP1 PUSH4 0xE5EEBF46 EQ PUSH2 0x1023 JUMPI DUP1 PUSH4 0xE7037A22 EQ PUSH2 0x1043 JUMPI PUSH1 0x0 DUP1 REVERT JUMPDEST DUP1 PUSH4 0xC623305F GT PUSH2 0x11E JUMPI DUP1 PUSH4 0xC623305F EQ PUSH2 0xED7 JUMPI DUP1 PUSH4 0xC9E8EE34 EQ PUSH2 0xEF7 JUMPI DUP1 PUSH4 0xCA9AB1F0 EQ PUSH2 0xF17 JUMPI DUP1 PUSH4 0xCB711595 EQ PUSH2 0xF31 JUMPI DUP1 PUSH4 0xCEDA4A32 EQ PUSH2 0xF51 JUMPI DUP1 PUSH4 0xD4F9A29E EQ PUSH2 0xF71 JUMPI PUSH1 0x0 DUP1 REVERT JUMPDEST DUP1 PUSH4 0xBA49BECE EQ PUSH2 0xE2D JUMPI DUP1 PUSH4 0xBAFC98D4 EQ PUSH2 0xE4D JUMPI DUP1 PUSH4 0xBEC385A0 EQ PUSH2 0xE63 JUMPI DUP1 PUSH4 0xC02556E9 EQ PUSH2 0xE83 JUMPI DUP1 PUSH4 0xC1B757CB EQ PUSH2 0xEA1 JUMPI DUP1 PUSH4 0xC28D16A6 EQ PUSH2 0xEC1 JUMPI PUSH1 0x0 DUP1 REVERT JUMPDEST DUP1 PUSH4 0x9FC79CC5 GT PUSH2 0x209 JUMPI DUP1 PUSH4 0xAA9AD663 GT PUSH2 0x1C2 JUMPI DUP1 PUSH4 0xAA9AD663 EQ PUSH2 0xDB7 JUMPI DUP1 PUSH4 0xB243A224 EQ PUSH2 0xBE0 JUMPI DUP1 PUSH4 0xB345A710 EQ PUSH2 0xDD7 JUMPI DUP1 PUSH4 0xB87F137A EQ PUSH2 0xDED JUMPI DUP1 PUSH4 0xB9CA882E EQ PUSH2 0xE0D JUMPI DUP1 PUSH4 0xBA09C102 EQ PUSH2 0xBE0 JUMPI PUSH1 0x0 DUP1 REVERT JUMPDEST DUP1 PUSH4 0x9FC79CC5 EQ PUSH2 0xCEB JUMPI DUP1 PUSH4 0x9FF0EBC9 EQ PUSH2 0xD01 JUMPI DUP1 PUSH4 0xA315A6FF EQ PUSH2 0xD21 JUMPI DUP1 PUSH4 0xA3E76207 EQ PUSH2 0xD41 JUMPI DUP1 PUSH4 0xA9059CBB EQ PUSH2 0xD77 JUMPI DUP1 PUSH4 0xA9211D7F EQ PUSH2 0xD97 JUMPI PUSH1 0x0 DUP1 REVERT JUMPDEST DUP1 PUSH4 0x9456A425 GT PUSH2 0x25B JUMPI DUP1 PUSH4 0x9456A425 EQ PUSH2 0xC20 JUMPI DUP1 PUSH4 0x9471E30C EQ PUSH2 0xC40 JUMPI DUP1 PUSH4 0x95D89B41 EQ PUSH2 0xC60 JUMPI DUP1 PUSH4 0x95DE8AD4 EQ PUSH2 0xC75 JUMPI DUP1 PUSH4 0x972F47E3 EQ PUSH2 0xC95 JUMPI DUP1 PUSH4 0x9A04F85E EQ PUSH2 0xCCB JUMPI PUSH1 0x0 DUP1 REVERT JUMPDEST DUP1 PUSH4 0x83F43BF7 EQ PUSH2 0xB56 JUMPI DUP1 PUSH4 0x8D50F375 EQ PUSH2 0xB8C JUMPI DUP1 PUSH4 0x8DA5CB5B EQ PUSH2 0xBAC JUMPI DUP1 PUSH4 0x8F3FA860 EQ PUSH2 0xBCA JUMPI DUP1 PUSH4 0x8F9AD750 EQ PUSH2 0xBE0 JUMPI DUP1 PUSH4 0x90E21EE0 EQ PUSH2 0xC00 JUMPI PUSH1 0x0 DUP1 REVERT JUMPDEST DUP1 PUSH4 0x3456E3EB GT PUSH2 0x3EA JUMPI DUP1 PUSH4 0x5F19E33C GT PUSH2 0x351 JUMPI DUP1 PUSH4 0x6FF42269 GT PUSH2 0x30A JUMPI DUP1 PUSH4 0x6FF42269 EQ PUSH2 0xA95 JUMPI DUP1 PUSH4 0x70A08231 EQ PUSH2 0xAB5 JUMPI DUP1 PUSH4 0x715018A6 EQ PUSH2 0xAEB JUMPI DUP1 PUSH4 0x72A6E526 EQ PUSH2 0xB00 JUMPI DUP1 PUSH4 0x75CC1ACF EQ PUSH2 0xB20 JUMPI DUP1 PUSH4 0x789046B8 EQ PUSH2 0xB40 JUMPI PUSH1 0x0 DUP1 REVERT JUMPDEST DUP1 PUSH4 0x5F19E33C EQ PUSH2 0x9EF JUMPI DUP1 PUSH4 0x62AB61A6 EQ PUSH2 0xA0F JUMPI DUP1 PUSH4 0x647D2D85 EQ PUSH2 0xA25 JUMPI DUP1 PUSH4 0x66E670FE EQ PUSH2 0xA3B JUMPI DUP1 PUSH4 0x67D98B96 EQ PUSH2 0xA5B JUMPI DUP1 PUSH4 0x6C17908D EQ PUSH2 0xA75 JUMPI PUSH1 0x0 DUP1 REVERT JUMPDEST DUP1 PUSH4 0x4EC39BA9 GT PUSH2 0x3A3 JUMPI DUP1 PUSH4 0x4EC39BA9 EQ PUSH2 0x939 JUMPI DUP1 PUSH4 0x4EDEA0F2 EQ PUSH2 0x959 JUMPI DUP1 PUSH4 0x515069BA EQ PUSH2 0x979 JUMPI DUP1 PUSH4 0x521DBF65 EQ PUSH2 0x999 JUMPI DUP1 PUSH4 0x53970C36 EQ PUSH2 0x9B9 JUMPI DUP1 PUSH4 0x5E6E3B1E EQ PUSH2 0x9D9 JUMPI PUSH1 0x0 DUP1 REVERT JUMPDEST DUP1 PUSH4 0x3456E3EB EQ PUSH2 0x883 JUMPI DUP1 PUSH4 0x34946DBB EQ PUSH2 0x8A3 JUMPI DUP1 PUSH4 0x3A9DB6FE EQ PUSH2 0x8B9 JUMPI DUP1 PUSH4 0x41EAF9C0 EQ PUSH2 0x8CF JUMPI DUP1 PUSH4 0x49BD5A5E EQ PUSH2 0x8EF JUMPI DUP1 PUSH4 0x49D4EC6A EQ PUSH2 0x923 JUMPI PUSH1 0x0 DUP1 REVERT JUMPDEST DUP1 PUSH4 0x18160DDD GT PUSH2 0x48E JUMPI DUP1 PUSH4 0x2A4CE562 GT PUSH2 0x447 JUMPI DUP1 PUSH4 0x2A4CE562 EQ PUSH2 0x7B6 JUMPI DUP1 PUSH4 0x2DC0562D EQ PUSH2 0x7EC JUMPI DUP1 PUSH4 0x2EC3D76D EQ PUSH2 0x80C JUMPI DUP1 PUSH4 0x30DABC04 EQ PUSH2 0x82B JUMPI DUP1 PUSH4 0x313CE567 EQ PUSH2 0x841 JUMPI DUP1 PUSH4 0x340A76EF EQ PUSH2 0x863 JUMPI PUSH1 0x0 DUP1 REVERT JUMPDEST DUP1 PUSH4 0x18160DDD EQ PUSH2 0x703 JUMPI DUP1 PUSH4 0x1AE430A8 EQ PUSH2 0x72A JUMPI DUP1 PUSH4 0x1F7C85CC EQ PUSH2 0x74A JUMPI DUP1 PUSH4 0x23B872DD EQ PUSH2 0x760 JUMPI DUP1 PUSH4 0x26FF3E34 EQ PUSH2 0x780 JUMPI DUP1 PUSH4 0x28758CE1 EQ PUSH2 0x796 JUMPI PUSH1 0x0 DUP1 REVERT JUMPDEST DUP1 PUSH4 0x95EA7B3 GT PUSH2 0x4E0 JUMPI DUP1 PUSH4 0x95EA7B3 EQ PUSH2 0x621 JUMPI DUP1 PUSH4 0xBD11F8A EQ PUSH2 0x641 JUMPI DUP1 PUSH4 0xDD277E6 EQ PUSH2 0x67A JUMPI DUP1 PUSH4 0xFD9094C EQ PUSH2 0x69A JUMPI DUP1 PUSH4 0x1694505E EQ PUSH2 0x6AF JUMPI DUP1 PUSH4 0x16C2BE6B EQ PUSH2 0x6E3 JUMPI PUSH1 0x0 DUP1 REVERT JUMPDEST DUP1 PUSH3 0xC751E3 EQ PUSH2 0x531 JUMPI DUP1 PUSH3 0xE5C668 EQ PUSH2 0x553 JUMPI DUP1 PUSH4 0x10A1473 EQ PUSH2 0x590 JUMPI DUP1 PUSH4 0x13E9F49 EQ PUSH2 0x5BF JUMPI DUP1 PUSH4 0x4DB6E68 EQ PUSH2 0x5DF JUMPI DUP1 PUSH4 0x6FDDE03 EQ PUSH2 0x5FF JUMPI PUSH1 0x0 DUP1 REVERT JUMPDEST CALLDATASIZE PUSH2 0x52C JUMPI STOP JUMPDEST PUSH1 0x0 DUP1 REVERT JUMPDEST CALLVALUE DUP1 ISZERO PUSH2 0x53D JUMPI PUSH1 0x0 DUP1 REVERT JUMPDEST POP PUSH2 0x551 PUSH2 0x54C CALLDATASIZE PUSH1 0x4 PUSH2 0x3A12 JUMP JUMPDEST PUSH2 0x1105 JUMP JUMPDEST STOP JUMPDEST CALLVALUE DUP1 ISZERO PUSH2 0x55F JUMPI PUSH1 0x0 DUP1 REVERT JUMPDEST POP PUSH1 0xB SLOAD PUSH2 0x573 SWAP1 PUSH1 0x1 PUSH1 0x1 PUSH1 0xA0 SHL SUB AND DUP2 JUMP JUMPDEST PUSH1 0x40 MLOAD PUSH1 0x1 PUSH1 0x1 PUSH1 0xA0 SHL SUB SWAP1 SWAP2 AND DUP2 MSTORE PUSH1 0x20 ADD JUMPDEST PUSH1 0x40 MLOAD DUP1 SWAP2 SUB SWAP1 RETURN JUMPDEST CALLVALUE DUP1 ISZERO PUSH2 0x59C JUMPI PUSH1 0x0 DUP1 REVERT JUMPDEST POP PUSH1 0x23 SLOAD PUSH2 0x5AF SWAP1 PUSH2 0x100 SWAP1 DIV PUSH1 0xFF AND DUP2 JUMP JUMPDEST PUSH1 0x40 MLOAD SWAP1 ISZERO ISZERO DUP2 MSTORE PUSH1 0x20 ADD PUSH2 0x587 JUMP JUMPDEST CALLVALUE DUP1 ISZERO PUSH2 0x5CB JUMPI PUSH1 0x0 DUP1 REVERT JUMPDEST POP PUSH2 0x551 PUSH2 0x5DA CALLDATASIZE PUSH1 0x4 PUSH2 0x3BE6 JUMP JUMPDEST PUSH2 0x1159 JUMP JUMPDEST CALLVALUE DUP1 ISZERO PUSH2 0x5EB JUMPI PUSH1 0x0 DUP1 REVERT JUMPDEST POP PUSH2 0x551 PUSH2 0x5FA CALLDATASIZE PUSH1 0x4 PUSH2 0x3A12 JUMP JUMPDEST PUSH2 0x1188 JUMP JUMPDEST CALLVALUE DUP1 ISZERO PUSH2 0x60B JUMPI PUSH1 0x0 DUP1 REVERT JUMPDEST POP PUSH2 0x614 PUSH2 0x11D4 JUMP JUMPDEST PUSH1 0x40 MLOAD PUSH2 0x587 SWAP2 SWAP1 PUSH2 0x3C43 JUMP JUMPDEST CALLVALUE DUP1 ISZERO PUSH2 0x62D JUMPI PUSH1 0x0 DUP1 REVERT JUMPDEST POP PUSH2 0x5AF PUSH2 0x63C CALLDATASIZE PUSH1 0x4 PUSH2 0x3AC6 JUMP JUMPDEST PUSH2 0x1266 JUMP JUMPDEST CALLVALUE DUP1 ISZERO PUSH2 0x64D JUMPI PUSH1 0x0 DUP1 REVERT JUMPDEST POP PUSH2 0x5AF PUSH2 0x65C CALLDATASIZE PUSH1 0x4 PUSH2 0x3A12 JUMP JUMPDEST PUSH1 0x1 PUSH1 0x1 PUSH1 0xA0 SHL SUB AND PUSH1 0x0 SWAP1 DUP2 MSTORE PUSH1 0x10 PUSH1 0x20 MSTORE PUSH1 0x40 SWAP1 KECCAK256 SLOAD PUSH1 0xFF AND SWAP1 JUMP JUMPDEST CALLVALUE DUP1 ISZERO PUSH2 0x686 JUMPI PUSH1 0x0 DUP1 REVERT JUMPDEST POP PUSH2 0x551 PUSH2 0x695 CALLDATASIZE PUSH1 0x4 PUSH2 0x3BC4 JUMP JUMPDEST PUSH2 0x127C JUMP JUMPDEST CALLVALUE DUP1 ISZERO PUSH2 0x6A6 JUMPI PUSH1 0x0 DUP1 REVERT JUMPDEST POP PUSH2 0x551 PUSH2 0x12B9 JUMP JUMPDEST CALLVALUE DUP1 ISZERO PUSH2 0x6BB JUMPI PUSH1 0x0 DUP1 REVERT JUMPDEST POP PUSH2 0x573 PUSH32 0x0 DUP2 JUMP JUMPDEST CALLVALUE DUP1 ISZERO PUSH2 0x6EF JUMPI PUSH1 0x0 DUP1 REVERT JUMPDEST POP PUSH2 0x5AF PUSH2 0x6FE CALLDATASIZE PUSH1 0x4 PUSH2 0x3A12 JUMP JUMPDEST PUSH2 0x12F1 JUMP JUMPDEST CALLVALUE DUP1 ISZERO PUSH2 0x70F JUMPI PUSH1 0x0 DUP1 REVERT JUMPDEST POP PUSH10 0x152D02C7E14AF6800000 JUMPDEST PUSH1 0x40 MLOAD SWAP1 DUP2 MSTORE PUSH1 0x20 ADD PUSH2 0x587 JUMP JUMPDEST CALLVALUE DUP1 ISZERO PUSH2 0x736 JUMPI PUSH1 0x0 DUP1 REVERT JUMPDEST POP PUSH2 0x551 PUSH2 0x745 CALLDATASIZE PUSH1 0x4 PUSH2 0x3BE6 JUMP JUMPDEST PUSH2 0x130F JUMP JUMPDEST CALLVALUE DUP1 ISZERO PUSH2 0x756 JUMPI PUSH1 0x0 DUP1 REVERT JUMPDEST POP PUSH2 0x71C PUSH1 0x26 SLOAD DUP2 JUMP JUMPDEST CALLVALUE DUP1 ISZERO PUSH2 0x76C JUMPI PUSH1 0x0 DUP1 REVERT JUMPDEST POP PUSH2 0x5AF PUSH2 0x77B CALLDATASIZE PUSH1 0x4 PUSH2 0x3A85 JUMP JUMPDEST PUSH2 0x133E JUMP JUMPDEST CALLVALUE DUP1 ISZERO PUSH2 0x78C JUMPI PUSH1 0x0 DUP1 REVERT JUMPDEST POP PUSH2 0x71C PUSH1 0x20 SLOAD DUP2 JUMP JUMPDEST CALLVALUE DUP1 ISZERO PUSH2 0x7A2 JUMPI PUSH1 0x0 DUP1 REVERT JUMPDEST POP PUSH2 0x573 PUSH2 0x7B1 CALLDATASIZE PUSH1 0x4 PUSH2 0x3BE6 JUMP JUMPDEST PUSH2 0x138F JUMP JUMPDEST CALLVALUE DUP1 ISZERO PUSH2 0x7C2 JUMPI PUSH1 0x0 DUP1 REVERT JUMPDEST POP PUSH2 0x71C PUSH2 0x7D1 CALLDATASIZE PUSH1 0x4 PUSH2 0x3A12 JUMP JUMPDEST PUSH1 0x1 PUSH1 0x1 PUSH1 0xA0 SHL SUB AND PUSH1 0x0 SWAP1 DUP2 MSTORE PUSH1 0xE PUSH1 0x20 MSTORE PUSH1 0x40 SWAP1 KECCAK256 SLOAD SWAP1 JUMP JUMPDEST CALLVALUE DUP1 ISZERO PUSH2 0x7F8 JUMPI PUSH1 0x0 DUP1 REVERT JUMPDEST POP PUSH1 0x9 SLOAD PUSH2 0x573 SWAP1 PUSH1 0x1 PUSH1 0x1 PUSH1 0xA0 SHL SUB AND DUP2 JUMP JUMPDEST CALLVALUE DUP1 ISZERO PUSH2 0x818 JUMPI PUSH1 0x0 DUP1 REVERT JUMPDEST POP PUSH1 0x28 SLOAD PUSH2 0x5AF SWAP1 PUSH2 0x100 SWAP1 DIV PUSH1 0xFF AND DUP2 JUMP JUMPDEST CALLVALUE DUP1 ISZERO PUSH2 0x837 JUMPI PUSH1 0x0 DUP1 REVERT JUMPDEST POP PUSH2 0x71C PUSH1 0x17 SLOAD DUP2 JUMP JUMPDEST CALLVALUE DUP1 ISZERO PUSH2 0x84D JUMPI PUSH1 0x0 DUP1 REVERT JUMPDEST POP PUSH1 0x6 SLOAD PUSH1 0x40 MLOAD PUSH1 0xFF SWAP1 SWAP2 AND DUP2 MSTORE PUSH1 0x20 ADD PUSH2 0x587 JUMP JUMPDEST CALLVALUE DUP1 ISZERO PUSH2 0x86F JUMPI PUSH1 0x0 DUP1 REVERT JUMPDEST POP PUSH2 0x551 PUSH2 0x87E CALLDATASIZE PUSH1 0x4 PUSH2 0x3A12 JUMP JUMPDEST PUSH2 0x13B9 JUMP JUMPDEST CALLVALUE DUP1 ISZERO PUSH2 0x88F JUMPI PUSH1 0x0 DUP1 REVERT JUMPDEST POP PUSH2 0x71C PUSH2 0x89E CALLDATASIZE PUSH1 0x4 PUSH2 0x3AC6 JUMP JUMPDEST PUSH2 0x1405 JUMP JUMPDEST CALLVALUE DUP1 ISZERO PUSH2 0x8AF JUMPI PUSH1 0x0 DUP1 REVERT JUMPDEST POP PUSH2 0x71C PUSH1 0x24 SLOAD DUP2 JUMP JUMPDEST CALLVALUE DUP1 ISZERO PUSH2 0x8C5 JUMPI PUSH1 0x0 DUP1 REVERT JUMPDEST POP PUSH2 0x71C PUSH1 0x27 SLOAD DUP2 JUMP JUMPDEST CALLVALUE DUP1 ISZERO PUSH2 0x8DB JUMPI PUSH1 0x0 DUP1 REVERT JUMPDEST POP PUSH2 0x551 PUSH2 0x8EA CALLDATASIZE PUSH1 0x4 PUSH2 0x3BC4 JUMP JUMPDEST PUSH2 0x1671 JUMP JUMPDEST CALLVALUE DUP1 ISZERO PUSH2 0x8FB JUMPI PUSH1 0x0 DUP1 REVERT JUMPDEST POP PUSH2 0x573 PUSH32 0x0 DUP2 JUMP JUMPDEST CALLVALUE DUP1 ISZERO PUSH2 0x92F JUMPI PUSH1 0x0 DUP1 REVERT JUMPDEST POP PUSH2 0x71C PUSH1 0x1D SLOAD DUP2 JUMP JUMPDEST CALLVALUE DUP1 ISZERO PUSH2 0x945 JUMPI PUSH1 0x0 DUP1 REVERT JUMPDEST POP PUSH1 0xA SLOAD PUSH2 0x573 SWAP1 PUSH1 0x1 PUSH1 0x1 PUSH1 0xA0 SHL SUB AND DUP2 JUMP JUMPDEST CALLVALUE DUP1 ISZERO PUSH2 0x965 JUMPI PUSH1 0x0 DUP1 REVERT JUMPDEST POP PUSH2 0x551 PUSH2 0x974 CALLDATASIZE PUSH1 0x4 PUSH2 0x3A12 JUMP JUMPDEST PUSH2 0x16B7 JUMP JUMPDEST CALLVALUE DUP1 ISZERO PUSH2 0x985 JUMPI PUSH1 0x0 DUP1 REVERT JUMPDEST POP PUSH2 0x551 PUSH2 0x994 CALLDATASIZE PUSH1 0x4 PUSH2 0x3BE6 JUMP JUMPDEST PUSH2 0x16FB JUMP JUMPDEST CALLVALUE DUP1 ISZERO PUSH2 0x9A5 JUMPI PUSH1 0x0 DUP1 REVERT JUMPDEST POP PUSH2 0x551 PUSH2 0x9B4 CALLDATASIZE PUSH1 0x4 PUSH2 0x3AC6 JUMP JUMPDEST PUSH2 0x172A JUMP JUMPDEST CALLVALUE DUP1 ISZERO PUSH2 0x9C5 JUMPI PUSH1 0x0 DUP1 REVERT JUMPDEST POP PUSH2 0x551 PUSH2 0x9D4 CALLDATASIZE PUSH1 0x4 PUSH2 0x3BE6 JUMP JUMPDEST PUSH2 0x183C JUMP JUMPDEST CALLVALUE DUP1 ISZERO PUSH2 0x9E5 JUMPI PUSH1 0x0 DUP1 REVERT JUMPDEST POP PUSH2 0x71C PUSH1 0x16 SLOAD DUP2 JUMP JUMPDEST CALLVALUE DUP1 ISZERO PUSH2 0x9FB JUMPI PUSH1 0x0 DUP1 REVERT JUMPDEST POP PUSH2 0x551 PUSH2 0xA0A CALLDATASIZE PUSH1 0x4 PUSH2 0x3A12 JUMP JUMPDEST PUSH2 0x186B JUMP JUMPDEST CALLVALUE DUP1 ISZERO PUSH2 0xA1B JUMPI PUSH1 0x0 DUP1 REVERT JUMPDEST POP PUSH2 0x71C PUSH1 0x7 SLOAD DUP2 JUMP JUMPDEST CALLVALUE DUP1 ISZERO PUSH2 0xA31 JUMPI PUSH1 0x0 DUP1 REVERT JUMPDEST POP PUSH2 0x71C PUSH1 0x1C SLOAD DUP2 JUMP JUMPDEST CALLVALUE DUP1 ISZERO PUSH2 0xA47 JUMPI PUSH1 0x0 DUP1 REVERT JUMPDEST POP PUSH2 0x551 PUSH2 0xA56 CALLDATASIZE PUSH1 0x4 PUSH2 0x3A12 JUMP JUMPDEST PUSH2 0x18B7 JUMP JUMPDEST CALLVALUE DUP1 ISZERO PUSH2 0xA67 JUMPI PUSH1 0x0 DUP1 REVERT JUMPDEST POP PUSH1 0x23 SLOAD PUSH2 0x5AF SWAP1 PUSH1 0xFF AND DUP2 JUMP JUMPDEST CALLVALUE DUP1 ISZERO PUSH2 0xA81 JUMPI PUSH1 0x0 DUP1 REVERT JUMPDEST POP PUSH1 0xC SLOAD PUSH2 0x573 SWAP1 PUSH1 0x1 PUSH1 0x1 PUSH1 0xA0 SHL SUB AND DUP2 JUMP JUMPDEST CALLVALUE DUP1 ISZERO PUSH2 0xAA1 JUMPI PUSH1 0x0 DUP1 REVERT JUMPDEST POP PUSH2 0x551 PUSH2 0xAB0 CALLDATASIZE PUSH1 0x4 PUSH2 0x3BE6 JUMP JUMPDEST PUSH2 0x196E JUMP JUMPDEST CALLVALUE DUP1 ISZERO PUSH2 0xAC1 JUMPI PUSH1 0x0 DUP1 REVERT JUMPDEST POP PUSH2 0x71C PUSH2 0xAD0 CALLDATASIZE PUSH1 0x4 PUSH2 0x3A12 JUMP JUMPDEST PUSH1 0x1 PUSH1 0x1 PUSH1 0xA0 SHL SUB AND PUSH1 0x0 SWAP1 DUP2 MSTORE PUSH1 0x1 PUSH1 0x20 MSTORE PUSH1 0x40 SWAP1 KECCAK256 SLOAD SWAP1 JUMP JUMPDEST CALLVALUE DUP1 ISZERO PUSH2 0xAF7 JUMPI PUSH1 0x0 DUP1 REVERT JUMPDEST POP PUSH2 0x551 PUSH2 0x199D JUMP JUMPDEST CALLVALUE DUP1 ISZERO PUSH2 0xB0C JUMPI PUSH1 0x0 DUP1 REVERT JUMPDEST POP PUSH2 0x551 PUSH2 0xB1B CALLDATASIZE PUSH1 0x4 PUSH2 0x3BE6 JUMP JUMPDEST PUSH2 0x19EF JUMP JUMPDEST CALLVALUE DUP1 ISZERO PUSH2 0xB2C JUMPI PUSH1 0x0 DUP1 REVERT JUMPDEST POP PUSH2 0x551 PUSH2 0xB3B CALLDATASIZE PUSH1 0x4 PUSH2 0x3BE6 JUMP JUMPDEST PUSH2 0x1A1E JUMP JUMPDEST CALLVALUE DUP1 ISZERO PUSH2 0xB4C JUMPI PUSH1 0x0 DUP1 REVERT JUMPDEST POP PUSH2 0x71C PUSH1 0x1E SLOAD DUP2 JUMP JUMPDEST CALLVALUE DUP1 ISZERO PUSH2 0xB62 JUMPI PUSH1 0x0 DUP1 REVERT JUMPDEST POP PUSH2 0x71C PUSH2 0xB71 CALLDATASIZE PUSH1 0x4 PUSH2 0x3A12 JUMP JUMPDEST PUSH1 0x1 PUSH1 0x1 PUSH1 0xA0 SHL SUB AND PUSH1 0x0 SWAP1 DUP2 MSTORE PUSH1 0x12 PUSH1 0x20 MSTORE PUSH1 0x40 SWAP1 KECCAK256 SLOAD SWAP1 JUMP JUMPDEST CALLVALUE DUP1 ISZERO PUSH2 0xB98 JUMPI PUSH1 0x0 DUP1 REVERT JUMPDEST POP PUSH2 0x551 PUSH2 0xBA7 CALLDATASIZE PUSH1 0x4 PUSH2 0x3BE6 JUMP JUMPDEST PUSH2 0x1A4D JUMP JUMPDEST CALLVALUE DUP1 ISZERO PUSH2 0xBB8 JUMPI PUSH1 0x0 DUP1 REVERT JUMPDEST POP PUSH1 0x0 SLOAD PUSH1 0x1 PUSH1 0x1 PUSH1 0xA0 SHL SUB AND PUSH2 0x573 JUMP JUMPDEST CALLVALUE DUP1 ISZERO PUSH2 0xBD6 JUMPI PUSH1 0x0 DUP1 REVERT JUMPDEST POP PUSH2 0x71C PUSH1 0xF SLOAD DUP2 JUMP JUMPDEST CALLVALUE DUP1 ISZERO PUSH2 0xBEC JUMPI PUSH1 0x0 DUP1 REVERT JUMPDEST POP PUSH2 0x551 PUSH2 0xBFB CALLDATASIZE PUSH1 0x4 PUSH2 0x3BE6 JUMP JUMPDEST PUSH2 0x1A7C JUMP JUMPDEST CALLVALUE DUP1 ISZERO PUSH2 0xC0C JUMPI PUSH1 0x0 DUP1 REVERT JUMPDEST POP PUSH2 0x551 PUSH2 0xC1B CALLDATASIZE PUSH1 0x4 PUSH2 0x3BC4 JUMP JUMPDEST PUSH2 0x1AAB JUMP JUMPDEST CALLVALUE DUP1 ISZERO PUSH2 0xC2C JUMPI PUSH1 0x0 DUP1 REVERT JUMPDEST POP PUSH2 0x551 PUSH2 0xC3B CALLDATASIZE PUSH1 0x4 PUSH2 0x3AF2 JUMP JUMPDEST PUSH2 0x1AEF JUMP JUMPDEST CALLVALUE DUP1 ISZERO PUSH2 0xC4C JUMPI PUSH1 0x0 DUP1 REVERT JUMPDEST POP PUSH2 0x551 PUSH2 0xC5B CALLDATASIZE PUSH1 0x4 PUSH2 0x3BC4 JUMP JUMPDEST PUSH2 0x1BCB JUMP JUMPDEST CALLVALUE DUP1 ISZERO PUSH2 0xC6C JUMPI PUSH1 0x0 DUP1 REVERT JUMPDEST POP PUSH2 0x614 PUSH2 0x1C0F JUMP JUMPDEST CALLVALUE DUP1 ISZERO PUSH2 0xC81 JUMPI PUSH1 0x0 DUP1 REVERT JUMPDEST POP PUSH2 0x551 PUSH2 0xC90 CALLDATASIZE PUSH1 0x4 PUSH2 0x3A12 JUMP JUMPDEST PUSH2 0x1C1E JUMP JUMPDEST CALLVALUE DUP1 ISZERO PUSH2 0xCA1 JUMPI PUSH1 0x0 DUP1 REVERT JUMPDEST POP PUSH2 0x71C PUSH2 0xCB0 CALLDATASIZE PUSH1 0x4 PUSH2 0x3A12 JUMP JUMPDEST PUSH1 0x1 PUSH1 0x1 PUSH1 0xA0 SHL SUB AND PUSH1 0x0 SWAP1 DUP2 MSTORE PUSH1 0x11 PUSH1 0x20 MSTORE PUSH1 0x40 SWAP1 KECCAK256 SLOAD SWAP1 JUMP JUMPDEST CALLVALUE DUP1 ISZERO PUSH2 0xCD7 JUMPI PUSH1 0x0 DUP1 REVERT JUMPDEST POP PUSH2 0x551 PUSH2 0xCE6 CALLDATASIZE PUSH1 0x4 PUSH2 0x3BE6 JUMP JUMPDEST PUSH2 0x1C6A JUMP JUMPDEST CALLVALUE DUP1 ISZERO PUSH2 0xCF7 JUMPI PUSH1 0x0 DUP1 REVERT JUMPDEST POP PUSH2 0x71C PUSH1 0x19 SLOAD DUP2 JUMP JUMPDEST CALLVALUE DUP1 ISZERO PUSH2 0xD0D JUMPI PUSH1 0x0 DUP1 REVERT JUMPDEST POP PUSH2 0x551 PUSH2 0xD1C CALLDATASIZE PUSH1 0x4 PUSH2 0x3A12 JUMP JUMPDEST PUSH2 0x1C99 JUMP JUMPDEST CALLVALUE DUP1 ISZERO PUSH2 0xD2D JUMPI PUSH1 0x0 DUP1 REVERT JUMPDEST POP PUSH2 0x551 PUSH2 0xD3C CALLDATASIZE PUSH1 0x4 PUSH2 0x3BE6 JUMP JUMPDEST PUSH2 0x1D4C JUMP JUMPDEST CALLVALUE DUP1 ISZERO PUSH2 0xD4D JUMPI PUSH1 0x0 DUP1 REVERT JUMPDEST POP PUSH2 0x71C PUSH2 0xD5C CALLDATASIZE PUSH1 0x4 PUSH2 0x3A12 JUMP JUMPDEST PUSH1 0x1 PUSH1 0x1 PUSH1 0xA0 SHL SUB AND PUSH1 0x0 SWAP1 DUP2 MSTORE PUSH1 0x13 PUSH1 0x20 MSTORE PUSH1 0x40 SWAP1 KECCAK256 SLOAD SWAP1 JUMP JUMPDEST CALLVALUE DUP1 ISZERO PUSH2 0xD83 JUMPI PUSH1 0x0 DUP1 REVERT JUMPDEST POP PUSH2 0x5AF PUSH2 0xD92 CALLDATASIZE PUSH1 0x4 PUSH2 0x3AC6 JUMP JUMPDEST PUSH2 0x1D7B JUMP JUMPDEST CALLVALUE DUP1 ISZERO PUSH2 0xDA3 JUMPI PUSH1 0x0 DUP1 REVERT JUMPDEST POP PUSH1 0x23 SLOAD PUSH2 0x5AF SWAP1 PUSH3 0x10000 SWAP1 DIV PUSH1 0xFF AND DUP2 JUMP JUMPDEST CALLVALUE DUP1 ISZERO PUSH2 0xDC3 JUMPI PUSH1 0x0 DUP1 REVERT JUMPDEST POP PUSH2 0x551 PUSH2 0xDD2 CALLDATASIZE PUSH1 0x4 PUSH2 0x3AF2 JUMP JUMPDEST PUSH2 0x1D88 JUMP JUMPDEST CALLVALUE DUP1 ISZERO PUSH2 0xDE3 JUMPI PUSH1 0x0 DUP1 REVERT JUMPDEST POP PUSH2 0x71C PUSH1 0x1B SLOAD DUP2 JUMP JUMPDEST CALLVALUE DUP1 ISZERO PUSH2 0xDF9 JUMPI PUSH1 0x0 DUP1 REVERT JUMPDEST POP PUSH2 0x551 PUSH2 0xE08 CALLDATASIZE PUSH1 0x4 PUSH2 0x3BE6 JUMP JUMPDEST PUSH2 0x1F88 JUMP JUMPDEST CALLVALUE DUP1 ISZERO PUSH2 0xE19 JUMPI PUSH1 0x0 DUP1 REVERT JUMPDEST POP PUSH2 0x551 PUSH2 0xE28 CALLDATASIZE PUSH1 0x4 PUSH2 0x3BE6 JUMP JUMPDEST PUSH2 0x1FB7 JUMP JUMPDEST CALLVALUE DUP1 ISZERO PUSH2 0xE39 JUMPI PUSH1 0x0 DUP1 REVERT JUMPDEST POP PUSH2 0x551 PUSH2 0xE48 CALLDATASIZE PUSH1 0x4 PUSH2 0x3BC4 JUMP JUMPDEST PUSH2 0x1FE6 JUMP JUMPDEST CALLVALUE DUP1 ISZERO PUSH2 0xE59 JUMPI PUSH1 0x0 DUP1 REVERT JUMPDEST POP PUSH2 0x71C PUSH1 0x18 SLOAD DUP2 JUMP JUMPDEST CALLVALUE DUP1 ISZERO PUSH2 0xE6F JUMPI PUSH1 0x0 DUP1 REVERT JUMPDEST POP PUSH2 0x551 PUSH2 0xE7E CALLDATASIZE PUSH1 0x4 PUSH2 0x3A12 JUMP JUMPDEST PUSH2 0x2023 JUMP JUMPDEST CALLVALUE DUP1 ISZERO PUSH2 0xE8F JUMPI PUSH1 0x0 DUP1 REVERT JUMPDEST POP PUSH2 0x71C PUSH10 0x152D02C7E14AF6800000 DUP2 JUMP JUMPDEST CALLVALUE DUP1 ISZERO PUSH2 0xEAD JUMPI PUSH1 0x0 DUP1 REVERT JUMPDEST POP PUSH1 0xD SLOAD PUSH2 0x573 SWAP1 PUSH1 0x1 PUSH1 0x1 PUSH1 0xA0 SHL SUB AND DUP2 JUMP JUMPDEST CALLVALUE DUP1 ISZERO PUSH2 0xECD JUMPI PUSH1 0x0 DUP1 REVERT JUMPDEST POP PUSH2 0x71C PUSH1 0x22 SLOAD DUP2 JUMP JUMPDEST CALLVALUE DUP1 ISZERO PUSH2 0xEE3 JUMPI PUSH1 0x0 DUP1 REVERT JUMPDEST POP PUSH2 0x551 PUSH2 0xEF2 CALLDATASIZE PUSH1 0x4 PUSH2 0x3A12 JUMP JUMPDEST PUSH2 0x2071 JUMP JUMPDEST CALLVALUE DUP1 ISZERO PUSH2 0xF03 JUMPI PUSH1 0x0 DUP1 REVERT JUMPDEST POP PUSH2 0x551 PUSH2 0xF12 CALLDATASIZE PUSH1 0x4 PUSH2 0x3A12 JUMP JUMPDEST PUSH2 0x20BD JUMP JUMPDEST CALLVALUE DUP1 ISZERO PUSH2 0xF23 JUMPI PUSH1 0x0 DUP1 REVERT JUMPDEST POP PUSH1 0x28 SLOAD PUSH2 0x5AF SWAP1 PUSH1 0xFF AND DUP2 JUMP JUMPDEST CALLVALUE DUP1 ISZERO PUSH2 0xF3D JUMPI PUSH1 0x0 DUP1 REVERT JUMPDEST POP PUSH2 0x551 PUSH2 0xF4C CALLDATASIZE PUSH1 0x4 PUSH2 0x3A12 JUMP JUMPDEST PUSH2 0x2101 JUMP JUMPDEST CALLVALUE DUP1 ISZERO PUSH2 0xF5D JUMPI PUSH1 0x0 DUP1 REVERT JUMPDEST POP PUSH2 0x551 PUSH2 0xF6C CALLDATASIZE PUSH1 0x4 PUSH2 0x3BE6 JUMP JUMPDEST PUSH2 0x214D JUMP JUMPDEST CALLVALUE DUP1 ISZERO PUSH2 0xF7D JUMPI PUSH1 0x0 DUP1 REVERT JUMPDEST POP PUSH2 0x551 PUSH2 0xF8C CALLDATASIZE PUSH1 0x4 PUSH2 0x3AF2 JUMP JUMPDEST PUSH2 0x217C JUMP JUMPDEST CALLVALUE DUP1 ISZERO PUSH2 0xF9D JUMPI PUSH1 0x0 DUP1 REVERT JUMPDEST POP PUSH1 0x8 SLOAD PUSH2 0x573 SWAP1 PUSH1 0x1 PUSH1 0x1 PUSH1 0xA0 SHL SUB AND DUP2 JUMP JUMPDEST CALLVALUE DUP1 ISZERO PUSH2 0xFBD JUMPI PUSH1 0x0 DUP1 REVERT JUMPDEST POP PUSH2 0x71C PUSH2 0xFCC CALLDATASIZE PUSH1 0x4 PUSH2 0x3A4C JUMP JUMPDEST PUSH1 0x1 PUSH1 0x1 PUSH1 0xA0 SHL SUB SWAP2 DUP3 AND PUSH1 0x0 SWAP1 DUP2 MSTORE PUSH1 0x2 PUSH1 0x20 SWAP1 DUP2 MSTORE PUSH1 0x40 DUP1 DUP4 KECCAK256 SWAP4 SWAP1 SWAP5 AND DUP3 MSTORE SWAP2 SWAP1 SWAP2 MSTORE KECCAK256 SLOAD SWAP1 JUMP JUMPDEST CALLVALUE DUP1 ISZERO PUSH2 0x1003 JUMPI PUSH1 0x0 DUP1 REVERT JUMPDEST POP PUSH2 0x71C PUSH1 0x1F SLOAD DUP2 JUMP JUMPDEST CALLVALUE DUP1 ISZERO PUSH2 0x1019 JUMPI PUSH1 0x0 DUP1 REVERT JUMPDEST POP PUSH2 0x71C PUSH1 0x1A SLOAD DUP2 JUMP JUMPDEST CALLVALUE DUP1 ISZERO PUSH2 0x102F JUMPI PUSH1 0x0 DUP1 REVERT JUMPDEST POP PUSH2 0x551 PUSH2 0x103E CALLDATASIZE PUSH1 0x4 PUSH2 0x3A12 JUMP JUMPDEST PUSH2 0x2252 JUMP JUMPDEST CALLVALUE DUP1 ISZERO PUSH2 0x104F JUMPI PUSH1 0x0 DUP1 REVERT JUMPDEST POP PUSH2 0x71C PUSH1 0x15 SLOAD DUP2 JUMP JUMPDEST CALLVALUE DUP1 ISZERO PUSH2 0x1065 JUMPI PUSH1 0x0 DUP1 REVERT JUMPDEST POP PUSH2 0x551 PUSH2 0x1074 CALLDATASIZE PUSH1 0x4 PUSH2 0x3AF2 JUMP JUMPDEST PUSH2 0x22B5 JUMP JUMPDEST CALLVALUE DUP1 ISZERO PUSH2 0x1085 JUMPI PUSH1 0x0 DUP1 REVERT JUMPDEST POP PUSH2 0x551 PUSH2 0x1094 CALLDATASIZE PUSH1 0x4 PUSH2 0x3BE6 JUMP JUMPDEST PUSH2 0x24B6 JUMP JUMPDEST CALLVALUE DUP1 ISZERO PUSH2 0x10A5 JUMPI PUSH1 0x0 DUP1 REVERT JUMPDEST POP PUSH2 0x551 PUSH2 0x10B4 CALLDATASIZE PUSH1 0x4 PUSH2 0x3A12 JUMP JUMPDEST PUSH2 0x24E5 JUMP JUMPDEST CALLVALUE DUP1 ISZERO PUSH2 0x10C5 JUMPI PUSH1 0x0 DUP1 REVERT JUMPDEST POP PUSH2 0x71C PUSH1 0x21 SLOAD DUP2 JUMP JUMPDEST CALLVALUE DUP1 ISZERO PUSH2 0x10DB JUMPI PUSH1 0x0 DUP1 REVERT JUMPDEST POP PUSH2 0x551 PUSH2 0x10EA CALLDATASIZE PUSH1 0x4 PUSH2 0x3BE6 JUMP JUMPDEST PUSH2 0x2580 JUMP JUMPDEST CALLVALUE DUP1 ISZERO PUSH2 0x10FB JUMPI PUSH1 0x0 DUP1 REVERT JUMPDEST POP PUSH2 0x71C PUSH1 0x25 SLOAD DUP2 JUMP JUMPDEST PUSH1 0x0 SLOAD PUSH1 0x1 PUSH1 0x1 PUSH1 0xA0 SHL SUB AND CALLER EQ PUSH2 0x1138 JUMPI PUSH1 0x40 MLOAD PUSH3 0x461BCD PUSH1 0xE5 SHL DUP2 MSTORE PUSH1 0x4 ADD PUSH2 0x112F SWAP1 PUSH2 0x3CDE JUMP JUMPDEST PUSH1 0x40 MLOAD DUP1 SWAP2 SUB SWAP1 REVERT JUMPDEST PUSH1 0x1 PUSH1 0x1 PUSH1 0xA0 SHL SUB AND PUSH1 0x0 SWAP1 DUP2 MSTORE PUSH1 0x10 PUSH1 0x20 MSTORE PUSH1 0x40 SWAP1 KECCAK256 DUP1 SLOAD PUSH1 0xFF NOT AND SWAP1 SSTORE JUMP JUMPDEST PUSH1 0x0 SLOAD PUSH1 0x1 PUSH1 0x1 PUSH1 0xA0 SHL SUB AND CALLER EQ PUSH2 0x1183 JUMPI PUSH1 0x40 MLOAD PUSH3 0x461BCD PUSH1 0xE5 SHL DUP2 MSTORE PUSH1 0x4 ADD PUSH2 0x112F SWAP1 PUSH2 0x3CDE JUMP JUMPDEST PUSH1 0x1B SSTORE JUMP JUMPDEST PUSH1 0x0 SLOAD PUSH1 0x1 PUSH1 0x1 PUSH1 0xA0 SHL SUB AND CALLER EQ PUSH2 0x11B2 JUMPI PUSH1 0x40 MLOAD PUSH3 0x461BCD PUSH1 0xE5 SHL DUP2 MSTORE PUSH1 0x4 ADD PUSH2 0x112F SWAP1 PUSH2 0x3CDE JUMP JUMPDEST PUSH1 0x8 DUP1 SLOAD PUSH1 0x1 PUSH1 0x1 PUSH1 0xA0 SHL SUB NOT AND PUSH1 0x1 PUSH1 0x1 PUSH1 0xA0 SHL SUB SWAP3 SWAP1 SWAP3 AND SWAP2 SWAP1 SWAP2 OR SWAP1 SSTORE JUMP JUMPDEST PUSH1 0x60 PUSH1 0x4 DUP1 SLOAD PUSH2 0x11E3 SWAP1 PUSH2 0x3DE0 JUMP JUMPDEST DUP1 PUSH1 0x1F ADD PUSH1 0x20 DUP1 SWAP2 DIV MUL PUSH1 0x20 ADD PUSH1 0x40 MLOAD SWAP1 DUP2 ADD PUSH1 0x40 MSTORE DUP1 SWAP3 SWAP2 SWAP1 DUP2 DUP2 MSTORE PUSH1 0x20 ADD DUP3 DUP1 SLOAD PUSH2 0x120F SWAP1 PUSH2 0x3DE0 JUMP JUMPDEST DUP1 ISZERO PUSH2 0x125C JUMPI DUP1 PUSH1 0x1F LT PUSH2 0x1231 JUMPI PUSH2 0x100 DUP1 DUP4 SLOAD DIV MUL DUP4 MSTORE SWAP2 PUSH1 0x20 ADD SWAP2 PUSH2 0x125C JUMP JUMPDEST DUP3 ADD SWAP2 SWAP1 PUSH1 0x0 MSTORE PUSH1 0x20 PUSH1 0x0 KECCAK256 SWAP1 JUMPDEST DUP2 SLOAD DUP2 MSTORE SWAP1 PUSH1 0x1 ADD SWAP1 PUSH1 0x20 ADD DUP1 DUP4 GT PUSH2 0x123F JUMPI DUP3 SWAP1 SUB PUSH1 0x1F AND DUP3 ADD SWAP2 JUMPDEST POP POP POP POP POP SWAP1 POP SWAP1 JUMP JUMPDEST PUSH1 0x0 PUSH2 0x1273 CALLER DUP5 DUP5 PUSH2 0x25AF JUMP JUMPDEST POP PUSH1 0x1 SWAP3 SWAP2 POP POP JUMP JUMPDEST PUSH1 0x0 SLOAD PUSH1 0x1 PUSH1 0x1 PUSH1 0xA0 SHL SUB AND CALLER EQ PUSH2 0x12A6 JUMPI PUSH1 0x40 MLOAD PUSH3 0x461BCD PUSH1 0xE5 SHL DUP2 MSTORE PUSH1 0x4 ADD PUSH2 0x112F SWAP1 PUSH2 0x3CDE JUMP JUMPDEST PUSH1 0x23 DUP1 SLOAD PUSH1 0xFF NOT AND SWAP2 ISZERO ISZERO SWAP2 SWAP1 SWAP2 OR SWAP1 SSTORE JUMP JUMPDEST PUSH1 0x0 SLOAD PUSH1 0x1 PUSH1 0x1 PUSH1 0xA0 SHL SUB AND CALLER EQ PUSH2 0x12E3 JUMPI PUSH1 0x40 MLOAD PUSH3 0x461BCD PUSH1 0xE5 SHL DUP2 MSTORE PUSH1 0x4 ADD PUSH2 0x112F SWAP1 PUSH2 0x3CDE JUMP JUMPDEST PUSH2 0x12EF PUSH1 0x14 PUSH1 0x0 PUSH2 0x39D0 JUMP JUMPDEST JUMP JUMPDEST PUSH1 0x1 PUSH1 0x1 PUSH1 0xA0 SHL SUB AND PUSH1 0x0 SWAP1 DUP2 MSTORE PUSH1 0x3 PUSH1 0x20 MSTORE PUSH1 0x40 SWAP1 KECCAK256 SLOAD PUSH1 0xFF AND SWAP1 JUMP JUMPDEST PUSH1 0x0 SLOAD PUSH1 0x1 PUSH1 0x1 PUSH1 0xA0 SHL SUB AND CALLER EQ PUSH2 0x1339 JUMPI PUSH1 0x40 MLOAD PUSH3 0x461BCD PUSH1 0xE5 SHL DUP2 MSTORE PUSH1 0x4 ADD PUSH2 0x112F SWAP1 PUSH2 0x3CDE JUMP JUMPDEST PUSH1 0x20 SSTORE JUMP JUMPDEST PUSH1 0x0 PUSH2 0x134B DUP5 DUP5 DUP5 PUSH2 0x26D3 JUMP JUMPDEST PUSH1 0x1 PUSH1 0x1 PUSH1 0xA0 SHL SUB DUP5 AND PUSH1 0x0 SWAP1 DUP2 MSTORE PUSH1 0x2 PUSH1 0x20 SWAP1 DUP2 MSTORE PUSH1 0x40 DUP1 DUP4 KECCAK256 CALLER DUP1 DUP6 MSTORE SWAP3 MSTORE SWAP1 SWAP2 KECCAK256 SLOAD PUSH2 0x1385 SWAP2 DUP7 SWAP2 PUSH2 0x1380 SWAP1 DUP7 PUSH2 0x3709 JUMP JUMPDEST PUSH2 0x25AF JUMP JUMPDEST POP PUSH1 0x1 SWAP4 SWAP3 POP POP POP JUMP JUMPDEST PUSH1 0x14 DUP2 DUP2 SLOAD DUP2 LT PUSH2 0x139F JUMPI PUSH1 0x0 DUP1 REVERT JUMPDEST PUSH1 0x0 SWAP2 DUP3 MSTORE PUSH1 0x20 SWAP1 SWAP2 KECCAK256 ADD SLOAD PUSH1 0x1 PUSH1 0x1 PUSH1 0xA0 SHL SUB AND SWAP1 POP DUP2 JUMP JUMPDEST PUSH1 0x0 SLOAD PUSH1 0x1 PUSH1 0x1 PUSH1 0xA0 SHL SUB AND CALLER EQ PUSH2 0x13E3 JUMPI PUSH1 0x40 MLOAD PUSH3 0x461BCD PUSH1 0xE5 SHL DUP2 MSTORE PUSH1 0x4 ADD PUSH2 0x112F SWAP1 PUSH2 0x3CDE JUMP JUMPDEST PUSH1 0xB DUP1 SLOAD PUSH1 0x1 PUSH1 0x1 PUSH1 0xA0 SHL SUB NOT AND PUSH1 0x1 PUSH1 0x1 PUSH1 0xA0 SHL SUB SWAP3 SWAP1 SWAP3 AND SWAP2 SWAP1 SWAP2 OR SWAP1 SSTORE JUMP JUMPDEST PUSH1 0xB SLOAD PUSH1 0x0 SWAP1 DUP2 SWAP1 PUSH1 0x1 PUSH1 0x1 PUSH1 0xA0 SHL SUB AND CALLER PUSH1 0x1 PUSH1 0x1 PUSH1 0xA0 SHL SUB AND EQ ISZERO PUSH2 0x142A JUMPI POP PUSH1 0x1 JUMPDEST PUSH1 0xC SLOAD PUSH1 0x1 PUSH1 0x1 PUSH1 0xA0 SHL SUB AND CALLER PUSH1 0x1 PUSH1 0x1 PUSH1 0xA0 SHL SUB AND EQ ISZERO PUSH2 0x144A JUMPI POP PUSH1 0x1 JUMPDEST PUSH1 0xD SLOAD PUSH1 0x1 PUSH1 0x1 PUSH1 0xA0 SHL SUB AND CALLER PUSH1 0x1 PUSH1 0x1 PUSH1 0xA0 SHL SUB AND EQ ISZERO PUSH2 0x146A JUMPI POP PUSH1 0x1 JUMPDEST DUP1 PUSH2 0x14D6 JUMPI PUSH1 0x40 MLOAD PUSH3 0x461BCD PUSH1 0xE5 SHL DUP2 MSTORE PUSH1 0x20 PUSH1 0x4 DUP3 ADD MSTORE PUSH1 0x36 PUSH1 0x24 DUP3 ADD MSTORE PUSH32 0x46756E6374696F6E2063616E206F6E6C792062652063616C6C65642066726F6D PUSH1 0x44 DUP3 ADD MSTORE PUSH22 0x8185C1C1C9BDD9959081391950810DBDB9D1C9858DD PUSH1 0x52 SHL PUSH1 0x64 DUP3 ADD MSTORE PUSH1 0x84 ADD PUSH2 0x112F JUMP JUMPDEST PUSH1 0x1 PUSH1 0x1 PUSH1 0xA0 SHL SUB DUP5 AND PUSH1 0x0 SWAP1 DUP2 MSTORE PUSH1 0xE PUSH1 0x20 MSTORE PUSH1 0x40 SWAP1 KECCAK256 SLOAD ISZERO PUSH2 0x1536 JUMPI PUSH1 0x1 PUSH1 0x1 PUSH1 0xA0 SHL SUB DUP5 AND PUSH1 0x0 SWAP1 DUP2 MSTORE PUSH1 0xE PUSH1 0x20 MSTORE PUSH1 0x40 SWAP1 KECCAK256 SLOAD PUSH2 0x1518 SWAP1 PUSH1 0x1 PUSH2 0x3709 JUMP JUMPDEST PUSH1 0x1 PUSH1 0x1 PUSH1 0xA0 SHL SUB DUP6 AND PUSH1 0x0 SWAP1 DUP2 MSTORE PUSH1 0xE PUSH1 0x20 MSTORE PUSH1 0x40 SWAP1 KECCAK256 SSTORE PUSH2 0x1653 JUMP JUMPDEST PUSH1 0x1 PUSH1 0x1 PUSH1 0xA0 SHL SUB DUP5 AND PUSH1 0x0 SWAP1 DUP2 MSTORE PUSH1 0x1 PUSH1 0x20 MSTORE PUSH1 0x40 SWAP1 KECCAK256 SLOAD DUP4 GT ISZERO PUSH2 0x15B9 JUMPI PUSH1 0x40 MLOAD PUSH3 0x461BCD PUSH1 0xE5 SHL DUP2 MSTORE PUSH1 0x20 PUSH1 0x4 DUP3 ADD MSTORE PUSH1 0x32 PUSH1 0x24 DUP3 ADD MSTORE PUSH32 0x57616C6C657420646F6573206E6F7420686F6C6420746F6B656E73206F72204E PUSH1 0x44 DUP3 ADD MSTORE PUSH18 0x11950818DC99591A5D1CC81D1BC81B5A5B9D PUSH1 0x72 SHL PUSH1 0x64 DUP3 ADD MSTORE PUSH1 0x84 ADD PUSH2 0x112F JUMP JUMPDEST PUSH2 0xDEAD PUSH1 0x0 MSTORE PUSH1 0x1 PUSH1 0x20 MSTORE PUSH1 0x0 DUP1 MLOAD PUSH1 0x20 PUSH2 0x3E8E DUP4 CODECOPY DUP2 MLOAD SWAP2 MSTORE SLOAD PUSH2 0x15DE SWAP1 DUP5 PUSH2 0x371C JUMP JUMPDEST PUSH1 0x1 PUSH1 0x20 MSTORE PUSH1 0x0 DUP1 MLOAD PUSH1 0x20 PUSH2 0x3E8E DUP4 CODECOPY DUP2 MLOAD SWAP2 MSTORE SSTORE PUSH1 0x1 PUSH1 0x1 PUSH1 0xA0 SHL SUB DUP5 AND PUSH1 0x0 SWAP1 DUP2 MSTORE PUSH1 0x40 SWAP1 KECCAK256 SLOAD PUSH2 0x1611 SWAP1 DUP5 PUSH2 0x3709 JUMP JUMPDEST PUSH1 0x1 PUSH1 0x1 PUSH1 0xA0 SHL SUB DUP6 AND PUSH1 0x0 DUP2 DUP2 MSTORE PUSH1 0x1 PUSH1 0x20 SWAP1 DUP2 MSTORE PUSH1 0x40 SWAP2 DUP3 SWAP1 KECCAK256 SWAP4 SWAP1 SWAP4 SSTORE MLOAD DUP6 DUP2 MSTORE PUSH2 0xDEAD SWAP3 PUSH1 0x0 DUP1 MLOAD PUSH1 0x20 PUSH2 0x3EAE DUP4 CODECOPY DUP2 MLOAD SWAP2 MSTORE SWAP2 ADD PUSH1 0x40 MLOAD DUP1 SWAP2 SUB SWAP1 LOG3 JUMPDEST POP POP POP PUSH1 0x1 PUSH1 0x1 PUSH1 0xA0 SHL SUB AND PUSH1 0x0 SWAP1 DUP2 MSTORE PUSH1 0x12 PUSH1 0x20 MSTORE PUSH1 0x40 SWAP1 KECCAK256 SLOAD SWAP1 JUMP JUMPDEST PUSH1 0x0 SLOAD PUSH1 0x1 PUSH1 0x1 PUSH1 0xA0 SHL SUB AND CALLER EQ PUSH2 0x169B JUMPI PUSH1 0x40 MLOAD PUSH3 0x461BCD PUSH1 0xE5 SHL DUP2 MSTORE PUSH1 0x4 ADD PUSH2 0x112F SWAP1 PUSH2 0x3CDE JUMP JUMPDEST PUSH1 0x23 DUP1 SLOAD SWAP2 ISZERO ISZERO PUSH3 0x10000 MUL PUSH3 0xFF0000 NOT SWAP1 SWAP3 AND SWAP2 SWAP1 SWAP2 OR SWAP1 SSTORE JUMP JUMPDEST PUSH1 0x0 SLOAD PUSH1 0x1 PUSH1 0x1 PUSH1 0xA0 SHL SUB AND CALLER EQ PUSH2 0x16E1 JUMPI PUSH1 0x40 MLOAD PUSH3 0x461BCD PUSH1 0xE5 SHL DUP2 MSTORE PUSH1 0x4 ADD PUSH2 0x112F SWAP1 PUSH2 0x3CDE JUMP JUMPDEST PUSH1 0x1 PUSH1 0x1 PUSH1 0xA0 SHL SUB AND PUSH1 0x0 SWAP1 DUP2 MSTORE PUSH1 0x13 PUSH1 0x20 MSTORE PUSH1 0x40 DUP2 KECCAK256 SSTORE JUMP JUMPDEST PUSH1 0x0 SLOAD PUSH1 0x1 PUSH1 0x1 PUSH1 0xA0 SHL SUB AND CALLER EQ PUSH2 0x1725 JUMPI PUSH1 0x40 MLOAD PUSH3 0x461BCD PUSH1 0xE5 SHL DUP2 MSTORE PUSH1 0x4 ADD PUSH2 0x112F SWAP1 PUSH2 0x3CDE JUMP JUMPDEST PUSH1 0x17 SSTORE JUMP JUMPDEST PUSH1 0x0 SLOAD PUSH1 0x1 PUSH1 0x1 PUSH1 0xA0 SHL SUB AND CALLER EQ PUSH2 0x1754 JUMPI PUSH1 0x40 MLOAD PUSH3 0x461BCD PUSH1 0xE5 SHL DUP2 MSTORE PUSH1 0x4 ADD PUSH2 0x112F SWAP1 PUSH2 0x3CDE JUMP JUMPDEST ADDRESS PUSH1 0x0 SWAP1 DUP2 MSTORE PUSH1 0x1 PUSH1 0x20 MSTORE PUSH1 0x40 SWAP1 KECCAK256 SLOAD DUP2 GT ISZERO PUSH2 0x17AA JUMPI PUSH1 0x40 MLOAD PUSH3 0x461BCD PUSH1 0xE5 SHL DUP2 MSTORE PUSH1 0x20 PUSH1 0x4 DUP3 ADD MSTORE PUSH1 0x14 PUSH1 0x24 DUP3 ADD MSTORE PUSH20 0x2BB0B63632BA103130B630B731B29032B93937B9 PUSH1 0x61 SHL PUSH1 0x44 DUP3 ADD MSTORE PUSH1 0x64 ADD PUSH2 0x112F JUMP JUMPDEST PUSH1 0x1 PUSH1 0x1 PUSH1 0xA0 SHL SUB DUP3 AND PUSH1 0x0 SWAP1 DUP2 MSTORE PUSH1 0x1 PUSH1 0x20 MSTORE PUSH1 0x40 SWAP1 KECCAK256 SLOAD PUSH2 0x17CD SWAP1 DUP3 PUSH2 0x371C JUMP JUMPDEST PUSH1 0x1 PUSH1 0x1 PUSH1 0xA0 SHL SUB DUP4 AND PUSH1 0x0 SWAP1 DUP2 MSTORE PUSH1 0x1 PUSH1 0x20 MSTORE PUSH1 0x40 DUP1 DUP3 KECCAK256 SWAP3 SWAP1 SWAP3 SSTORE ADDRESS DUP2 MSTORE KECCAK256 SLOAD PUSH2 0x17F9 SWAP1 DUP3 PUSH2 0x3709 JUMP JUMPDEST ADDRESS PUSH1 0x0 DUP2 DUP2 MSTORE PUSH1 0x1 PUSH1 0x20 SWAP1 DUP2 MSTORE PUSH1 0x40 SWAP2 DUP3 SWAP1 KECCAK256 SWAP4 SWAP1 SWAP4 SSTORE MLOAD DUP4 DUP2 MSTORE PUSH1 0x1 PUSH1 0x1 PUSH1 0xA0 SHL SUB DUP6 AND SWAP3 PUSH1 0x0 DUP1 MLOAD PUSH1 0x20 PUSH2 0x3EAE DUP4 CODECOPY DUP2 MLOAD SWAP2 MSTORE SWAP2 ADD PUSH1 0x40 MLOAD DUP1 SWAP2 SUB SWAP1 LOG3 POP POP JUMP JUMPDEST PUSH1 0x0 SLOAD PUSH1 0x1 PUSH1 0x1 PUSH1 0xA0 SHL SUB AND CALLER EQ PUSH2 0x1866 JUMPI PUSH1 0x40 MLOAD PUSH3 0x461BCD PUSH1 0xE5 SHL DUP2 MSTORE PUSH1 0x4 ADD PUSH2 0x112F SWAP1 PUSH2 0x3CDE JUMP JUMPDEST PUSH1 0x22 SSTORE JUMP JUMPDEST PUSH1 0x0 SLOAD PUSH1 0x1 PUSH1 0x1 PUSH1 0xA0 SHL SUB AND CALLER EQ PUSH2 0x1895 JUMPI PUSH1 0x40 MLOAD PUSH3 0x461BCD PUSH1 0xE5 SHL DUP2 MSTORE PUSH1 0x4 ADD PUSH2 0x112F SWAP1 PUSH2 0x3CDE JUMP JUMPDEST PUSH1 0xC DUP1 SLOAD PUSH1 0x1 PUSH1 0x1 PUSH1 0xA0 SHL SUB NOT AND PUSH1 0x1 PUSH1 0x1 PUSH1 0xA0 SHL SUB SWAP3 SWAP1 SWAP3 AND SWAP2 SWAP1 SWAP2 OR SWAP1 SSTORE JUMP JUMPDEST PUSH1 0x0 SLOAD PUSH1 0x1 PUSH1 0x1 PUSH1 0xA0 SHL SUB AND CALLER EQ PUSH2 0x18E1 JUMPI PUSH1 0x40 MLOAD PUSH3 0x461BCD PUSH1 0xE5 SHL DUP2 MSTORE PUSH1 0x4 ADD PUSH2 0x112F SWAP1 PUSH2 0x3CDE JUMP JUMPDEST PUSH1 0x1 PUSH1 0x1 PUSH1 0xA0 SHL SUB DUP2 AND PUSH1 0x0 SWAP1 DUP2 MSTORE PUSH1 0x3 PUSH1 0x20 MSTORE PUSH1 0x40 SWAP1 KECCAK256 SLOAD PUSH1 0xFF AND ISZERO PUSH2 0x194A JUMPI PUSH1 0x40 MLOAD PUSH3 0x461BCD PUSH1 0xE5 SHL DUP2 MSTORE PUSH1 0x20 PUSH1 0x4 DUP3 ADD MSTORE PUSH1 0x1D PUSH1 0x24 DUP3 ADD MSTORE PUSH32 0x4163636F756E7420697320616C726561647920746178206578656D7074000000 PUSH1 0x44 DUP3 ADD MSTORE PUSH1 0x64 ADD PUSH2 0x112F JUMP JUMPDEST PUSH1 0x1 PUSH1 0x1 PUSH1 0xA0 SHL SUB AND PUSH1 0x0 SWAP1 DUP2 MSTORE PUSH1 0x3 PUSH1 0x20 MSTORE PUSH1 0x40 SWAP1 KECCAK256 DUP1 SLOAD PUSH1 0xFF NOT AND PUSH1 0x1 OR SWAP1 SSTORE JUMP JUMPDEST PUSH1 0x0 SLOAD PUSH1 0x1 PUSH1 0x1 PUSH1 0xA0 SHL SUB AND CALLER EQ PUSH2 0x1998 JUMPI PUSH1 0x40 MLOAD PUSH3 0x461BCD PUSH1 0xE5 SHL DUP2 MSTORE PUSH1 0x4 ADD PUSH2 0x112F SWAP1 PUSH2 0x3CDE JUMP JUMPDEST PUSH1 0x25 SSTORE JUMP JUMPDEST PUSH1 0x0 SLOAD PUSH1 0x1 PUSH1 0x1 PUSH1 0xA0 SHL SUB AND CALLER EQ PUSH2 0x19C7 JUMPI PUSH1 0x40 MLOAD PUSH3 0x461BCD PUSH1 0xE5 SHL DUP2 MSTORE PUSH1 0x4 ADD PUSH2 0x112F SWAP1 PUSH2 0x3CDE JUMP JUMPDEST ADDRESS PUSH1 0x0 SWAP1 DUP2 MSTORE PUSH1 0x1 PUSH1 0x20 MSTORE PUSH1 0x40 SWAP1 KECCAK256 SLOAD PUSH7 0x4C01DB400B0C9 EQ ISZERO PUSH2 0x12EF JUMPI PUSH2 0x12EF PUSH1 0x0 PUSH2 0x3728 JUMP JUMPDEST PUSH1 0x0 SLOAD PUSH1 0x1 PUSH1 0x1 PUSH1 0xA0 SHL SUB AND CALLER EQ PUSH2 0x1A19 JUMPI PUSH1 0x40 MLOAD PUSH3 0x461BCD PUSH1 0xE5 SHL DUP2 MSTORE PUSH1 0x4 ADD PUSH2 0x112F SWAP1 PUSH2 0x3CDE JUMP JUMPDEST PUSH1 0x7 SSTORE JUMP JUMPDEST PUSH1 0x0 SLOAD PUSH1 0x1 PUSH1 0x1 PUSH1 0xA0 SHL SUB AND CALLER EQ PUSH2 0x1A48 JUMPI PUSH1 0x40 MLOAD PUSH3 0x461BCD PUSH1 0xE5 SHL DUP2 MSTORE PUSH1 0x4 ADD PUSH2 0x112F SWAP1 PUSH2 0x3CDE JUMP JUMPDEST PUSH1 0x24 SSTORE JUMP JUMPDEST PUSH1 0x0 SLOAD PUSH1 0x1 PUSH1 0x1 PUSH1 0xA0 SHL SUB AND CALLER EQ PUSH2 0x1A77 JUMPI PUSH1 0x40 MLOAD PUSH3 0x461BCD PUSH1 0xE5 SHL DUP2 MSTORE PUSH1 0x4 ADD PUSH2 0x112F SWAP1 PUSH2 0x3CDE JUMP JUMPDEST PUSH1 0x18 SSTORE JUMP JUMPDEST PUSH1 0x0 SLOAD PUSH1 0x1 PUSH1 0x1 PUSH1 0xA0 SHL SUB AND CALLER EQ PUSH2 0x1AA6 JUMPI PUSH1 0x40 MLOAD PUSH3 0x461BCD PUSH1 0xE5 SHL DUP2 MSTORE PUSH1 0x4 ADD PUSH2 0x112F SWAP1 PUSH2 0x3CDE JUMP JUMPDEST PUSH1 0x1D SSTORE JUMP JUMPDEST PUSH1 0x0 SLOAD PUSH1 0x1 PUSH1 0x1 PUSH1 0xA0 SHL SUB AND CALLER EQ PUSH2 0x1AD5 JUMPI PUSH1 0x40 MLOAD PUSH3 0x461BCD PUSH1 0xE5 SHL DUP2 MSTORE PUSH1 0x4 ADD PUSH2 0x112F SWAP1 PUSH2 0x3CDE JUMP JUMPDEST PUSH1 0x23 DUP1 SLOAD SWAP2 ISZERO ISZERO PUSH2 0x100 MUL PUSH2 0xFF00 NOT SWAP1 SWAP3 AND SWAP2 SWAP1 SWAP2 OR SWAP1 SSTORE JUMP JUMPDEST PUSH1 0x0 SLOAD PUSH1 0x1 PUSH1 0x1 PUSH1 0xA0 SHL SUB AND CALLER EQ PUSH2 0x1B19 JUMPI PUSH1 0x40 MLOAD PUSH3 0x461BCD PUSH1 0xE5 SHL DUP2 MSTORE PUSH1 0x4 ADD PUSH2 0x112F SWAP1 PUSH2 0x3CDE JUMP JUMPDEST DUP2 MLOAD PUSH1 0x0 JUMPDEST DUP2 DUP2 LT ISZERO PUSH2 0x1BC5 JUMPI DUP3 PUSH1 0xE PUSH1 0x0 DUP7 DUP5 DUP2 MLOAD DUP2 LT PUSH2 0x1B3D JUMPI PUSH2 0x1B3D PUSH2 0x3E4C JUMP JUMPDEST PUSH1 0x20 MUL PUSH1 0x20 ADD ADD MLOAD PUSH1 0x1 PUSH1 0x1 PUSH1 0xA0 SHL SUB AND PUSH1 0x1 PUSH1 0x1 PUSH1 0xA0 SHL SUB AND DUP2 MSTORE PUSH1 0x20 ADD SWAP1 DUP2 MSTORE PUSH1 0x20 ADD PUSH1 0x0 KECCAK256 SLOAD PUSH2 0x1B70 SWAP2 SWAP1 PUSH2 0x3D70 JUMP JUMPDEST PUSH1 0xE PUSH1 0x0 DUP7 DUP5 DUP2 MLOAD DUP2 LT PUSH2 0x1B86 JUMPI PUSH2 0x1B86 PUSH2 0x3E4C JUMP JUMPDEST PUSH1 0x20 MUL PUSH1 0x20 ADD ADD MLOAD PUSH1 0x1 PUSH1 0x1 PUSH1 0xA0 SHL SUB AND PUSH1 0x1 PUSH1 0x1 PUSH1 0xA0 SHL SUB AND DUP2 MSTORE PUSH1 0x20 ADD SWAP1 DUP2 MSTORE PUSH1 0x20 ADD PUSH1 0x0 KECCAK256 DUP2 SWAP1 SSTORE POP DUP1 DUP1 PUSH2 0x1BBD SWAP1 PUSH2 0x3E1B JUMP JUMPDEST SWAP2 POP POP PUSH2 0x1B1E JUMP JUMPDEST POP POP POP POP JUMP JUMPDEST PUSH1 0x0 SLOAD PUSH1 0x1 PUSH1 0x1 PUSH1 0xA0 SHL SUB AND CALLER EQ PUSH2 0x1BF5 JUMPI PUSH1 0x40 MLOAD PUSH3 0x461BCD PUSH1 0xE5 SHL DUP2 MSTORE PUSH1 0x4 ADD PUSH2 0x112F SWAP1 PUSH2 0x3CDE JUMP JUMPDEST PUSH1 0x28 DUP1 SLOAD SWAP2 ISZERO ISZERO PUSH2 0x100 MUL PUSH2 0xFF00 NOT SWAP1 SWAP3 AND SWAP2 SWAP1 SWAP2 OR SWAP1 SSTORE JUMP JUMPDEST PUSH1 0x60 PUSH1 0x5 DUP1 SLOAD PUSH2 0x11E3 SWAP1 PUSH2 0x3DE0 JUMP JUMPDEST PUSH1 0x0 SLOAD PUSH1 0x1 PUSH1 0x1 PUSH1 0xA0 SHL SUB AND CALLER EQ PUSH2 0x1C48 JUMPI PUSH1 0x40 MLOAD PUSH3 0x461BCD PUSH1 0xE5 SHL DUP2 MSTORE PUSH1 0x4 ADD PUSH2 0x112F SWAP1 PUSH2 0x3CDE JUMP JUMPDEST PUSH1 0xA DUP1 SLOAD PUSH1 0x1 PUSH1 0x1 PUSH1 0xA0 SHL SUB NOT AND PUSH1 0x1 PUSH1 0x1 PUSH1 0xA0 SHL SUB SWAP3 SWAP1 SWAP3 AND SWAP2 SWAP1 SWAP2 OR SWAP1 SSTORE JUMP JUMPDEST PUSH1 0x0 SLOAD PUSH1 0x1 PUSH1 0x1 PUSH1 0xA0 SHL SUB AND CALLER EQ PUSH2 0x1C94 JUMPI PUSH1 0x40 MLOAD PUSH3 0x461BCD PUSH1 0xE5 SHL DUP2 MSTORE PUSH1 0x4 ADD PUSH2 0x112F SWAP1 PUSH2 0x3CDE JUMP JUMPDEST PUSH1 0x19 SSTORE JUMP JUMPDEST PUSH1 0x0 SLOAD PUSH1 0x1 PUSH1 0x1 PUSH1 0xA0 SHL SUB AND CALLER EQ PUSH2 0x1CC3 JUMPI PUSH1 0x40 MLOAD PUSH3 0x461BCD PUSH1 0xE5 SHL DUP2 MSTORE PUSH1 0x4 ADD PUSH2 0x112F SWAP1 PUSH2 0x3CDE JUMP JUMPDEST PUSH1 0x1 PUSH1 0x1 PUSH1 0xA0 SHL SUB DUP2 AND PUSH1 0x0 SWAP1 DUP2 MSTORE PUSH1 0x3 PUSH1 0x20 MSTORE PUSH1 0x40 SWAP1 KECCAK256 SLOAD PUSH1 0xFF AND PUSH2 0x1D2B JUMPI PUSH1 0x40 MLOAD PUSH3 0x461BCD PUSH1 0xE5 SHL DUP2 MSTORE PUSH1 0x20 PUSH1 0x4 DUP3 ADD MSTORE PUSH1 0x19 PUSH1 0x24 DUP3 ADD MSTORE PUSH32 0x4163636F756E74206973206E6F7420746178206578656D707400000000000000 PUSH1 0x44 DUP3 ADD MSTORE PUSH1 0x64 ADD PUSH2 0x112F JUMP JUMPDEST PUSH1 0x1 PUSH1 0x1 PUSH1 0xA0 SHL SUB AND PUSH1 0x0 SWAP1 DUP2 MSTORE PUSH1 0x3 PUSH1 0x20 MSTORE PUSH1 0x40 SWAP1 KECCAK256 DUP1 SLOAD PUSH1 0xFF NOT AND SWAP1 SSTORE JUMP JUMPDEST PUSH1 0x0 SLOAD PUSH1 0x1 PUSH1 0x1 PUSH1 0xA0 SHL SUB AND CALLER EQ PUSH2 0x1D76 JUMPI PUSH1 0x40 MLOAD PUSH3 0x461BCD PUSH1 0xE5 SHL DUP2 MSTORE PUSH1 0x4 ADD PUSH2 0x112F SWAP1 PUSH2 0x3CDE JUMP JUMPDEST PUSH1 0x1C SSTORE JUMP JUMPDEST PUSH1 0x0 PUSH2 0x1273 CALLER DUP5 DUP5 PUSH2 0x26D3 JUMP JUMPDEST PUSH1 0x0 SLOAD PUSH1 0x1 PUSH1 0x1 PUSH1 0xA0 SHL SUB AND CALLER EQ PUSH2 0x1DB2 JUMPI PUSH1 0x40 MLOAD PUSH3 0x461BCD PUSH1 0xE5 SHL DUP2 MSTORE PUSH1 0x4 ADD PUSH2 0x112F SWAP1 PUSH2 0x3CDE JUMP JUMPDEST DUP2 MLOAD PUSH1 0x0 JUMPDEST DUP2 DUP2 LT ISZERO PUSH2 0x1BC5 JUMPI PUSH1 0x11 PUSH1 0x0 DUP6 DUP4 DUP2 MLOAD DUP2 LT PUSH2 0x1DD5 JUMPI PUSH2 0x1DD5 PUSH2 0x3E4C JUMP JUMPDEST PUSH1 0x20 MUL PUSH1 0x20 ADD ADD MLOAD PUSH1 0x1 PUSH1 0x1 PUSH1 0xA0 SHL SUB AND PUSH1 0x1 PUSH1 0x1 PUSH1 0xA0 SHL SUB AND DUP2 MSTORE PUSH1 0x20 ADD SWAP1 DUP2 MSTORE PUSH1 0x20 ADD PUSH1 0x0 KECCAK256 SLOAD PUSH1 0x0 EQ ISZERO PUSH2 0x1F32 JUMPI PUSH1 0x14 SLOAD PUSH1 0x0 DUP2 ISZERO PUSH2 0x1EDF JUMPI PUSH1 0x0 JUMPDEST DUP3 DUP2 LT ISZERO PUSH2 0x1E84 JUMPI DUP7 DUP5 DUP2 MLOAD DUP2 LT PUSH2 0x1E2E JUMPI PUSH2 0x1E2E PUSH2 0x3E4C JUMP JUMPDEST PUSH1 0x20 MUL PUSH1 0x20 ADD ADD MLOAD PUSH1 0x1 PUSH1 0x1 PUSH1 0xA0 SHL SUB AND PUSH1 0x14 DUP3 DUP2 SLOAD DUP2 LT PUSH2 0x1E52 JUMPI PUSH2 0x1E52 PUSH2 0x3E4C JUMP JUMPDEST PUSH1 0x0 SWAP2 DUP3 MSTORE PUSH1 0x20 SWAP1 SWAP2 KECCAK256 ADD SLOAD PUSH1 0x1 PUSH1 0x1 PUSH1 0xA0 SHL SUB AND EQ ISZERO PUSH2 0x1E72 JUMPI PUSH1 0x1 SWAP2 POP JUMPDEST DUP1 PUSH2 0x1E7C DUP2 PUSH2 0x3E1B JUMP JUMPDEST SWAP2 POP POP PUSH2 0x1E14 JUMP JUMPDEST POP DUP1 PUSH2 0x1EDA JUMPI PUSH1 0x14 DUP7 DUP5 DUP2 MLOAD DUP2 LT PUSH2 0x1E9E JUMPI PUSH2 0x1E9E PUSH2 0x3E4C JUMP JUMPDEST PUSH1 0x20 SWAP1 DUP2 MUL SWAP2 SWAP1 SWAP2 ADD DUP2 ADD MLOAD DUP3 SLOAD PUSH1 0x1 DUP2 ADD DUP5 SSTORE PUSH1 0x0 SWAP4 DUP5 MSTORE SWAP2 SWAP1 SWAP3 KECCAK256 ADD DUP1 SLOAD PUSH1 0x1 PUSH1 0x1 PUSH1 0xA0 SHL SUB NOT AND PUSH1 0x1 PUSH1 0x1 PUSH1 0xA0 SHL SUB SWAP1 SWAP3 AND SWAP2 SWAP1 SWAP2 OR SWAP1 SSTORE JUMPDEST PUSH2 0x1F2F JUMP JUMPDEST PUSH1 0x14 DUP7 DUP5 DUP2 MLOAD DUP2 LT PUSH2 0x1EF3 JUMPI PUSH2 0x1EF3 PUSH2 0x3E4C JUMP JUMPDEST PUSH1 0x20 SWAP1 DUP2 MUL SWAP2 SWAP1 SWAP2 ADD DUP2 ADD MLOAD DUP3 SLOAD PUSH1 0x1 DUP2 ADD DUP5 SSTORE PUSH1 0x0 SWAP4 DUP5 MSTORE SWAP2 SWAP1 SWAP3 KECCAK256 ADD DUP1 SLOAD PUSH1 0x1 PUSH1 0x1 PUSH1 0xA0 SHL SUB NOT AND PUSH1 0x1 PUSH1 0x1 PUSH1 0xA0 SHL SUB SWAP1 SWAP3 AND SWAP2 SWAP1 SWAP2 OR SWAP1 SSTORE JUMPDEST POP POP JUMPDEST DUP3 PUSH1 0x11 PUSH1 0x0 DUP7 DUP5 DUP2 MLOAD DUP2 LT PUSH2 0x1F49 JUMPI PUSH2 0x1F49 PUSH2 0x3E4C JUMP JUMPDEST PUSH1 0x20 MUL PUSH1 0x20 ADD ADD MLOAD PUSH1 0x1 PUSH1 0x1 PUSH1 0xA0 SHL SUB AND PUSH1 0x1 PUSH1 0x1 PUSH1 0xA0 SHL SUB AND DUP2 MSTORE PUSH1 0x20 ADD SWAP1 DUP2 MSTORE PUSH1 0x20 ADD PUSH1 0x0 KECCAK256 DUP2 SWAP1 SSTORE POP DUP1 DUP1 PUSH2 0x1F80 SWAP1 PUSH2 0x3E1B JUMP JUMPDEST SWAP2 POP POP PUSH2 0x1DB7 JUMP JUMPDEST PUSH1 0x0 SLOAD PUSH1 0x1 PUSH1 0x1 PUSH1 0xA0 SHL SUB AND CALLER EQ PUSH2 0x1FB2 JUMPI PUSH1 0x40 MLOAD PUSH3 0x461BCD PUSH1 0xE5 SHL DUP2 MSTORE PUSH1 0x4 ADD PUSH2 0x112F SWAP1 PUSH2 0x3CDE JUMP JUMPDEST PUSH1 0xF SSTORE JUMP JUMPDEST PUSH1 0x0 SLOAD PUSH1 0x1 PUSH1 0x1 PUSH1 0xA0 SHL SUB AND CALLER EQ PUSH2 0x1FE1 JUMPI PUSH1 0x40 MLOAD PUSH3 0x461BCD PUSH1 0xE5 SHL DUP2 MSTORE PUSH1 0x4 ADD PUSH2 0x112F SWAP1 PUSH2 0x3CDE JUMP JUMPDEST PUSH1 0x16 SSTORE JUMP JUMPDEST PUSH1 0x0 SLOAD PUSH1 0x1 PUSH1 0x1 PUSH1 0xA0 SHL SUB AND CALLER EQ PUSH2 0x2010 JUMPI PUSH1 0x40 MLOAD PUSH3 0x461BCD PUSH1 0xE5 SHL DUP2 MSTORE PUSH1 0x4 ADD PUSH2 0x112F SWAP1 PUSH2 0x3CDE JUMP JUMPDEST PUSH1 0x28 DUP1 SLOAD PUSH1 0xFF NOT AND SWAP2 ISZERO ISZERO SWAP2 SWAP1 SWAP2 OR SWAP1 SSTORE JUMP JUMPDEST PUSH1 0x0 SLOAD PUSH1 0x1 PUSH1 0x1 PUSH1 0xA0 SHL SUB AND CALLER EQ PUSH2 0x204D JUMPI PUSH1 0x40 MLOAD PUSH3 0x461BCD PUSH1 0xE5 SHL DUP2 MSTORE PUSH1 0x4 ADD PUSH2 0x112F SWAP1 PUSH2 0x3CDE JUMP JUMPDEST PUSH1 0x1 PUSH1 0x1 PUSH1 0xA0 SHL SUB AND PUSH1 0x0 SWAP1 DUP2 MSTORE PUSH1 0x10 PUSH1 0x20 MSTORE PUSH1 0x40 SWAP1 KECCAK256 DUP1 SLOAD PUSH1 0xFF NOT AND PUSH1 0x1 OR SWAP1 SSTORE JUMP JUMPDEST PUSH1 0x0 SLOAD PUSH1 0x1 PUSH1 0x1 PUSH1 0xA0 SHL SUB AND CALLER EQ PUSH2 0x209B JUMPI PUSH1 0x40 MLOAD PUSH3 0x461BCD PUSH1 0xE5 SHL DUP2 MSTORE PUSH1 0x4 ADD PUSH2 0x112F SWAP1 PUSH2 0x3CDE JUMP JUMPDEST PUSH1 0xD DUP1 SLOAD PUSH1 0x1 PUSH1 0x1 PUSH1 0xA0 SHL SUB NOT AND PUSH1 0x1 PUSH1 0x1 PUSH1 0xA0 SHL SUB SWAP3 SWAP1 SWAP3 AND SWAP2 SWAP1 SWAP2 OR SWAP1 SSTORE JUMP JUMPDEST PUSH1 0x0 SLOAD PUSH1 0x1 PUSH1 0x1 PUSH1 0xA0 SHL SUB AND CALLER EQ PUSH2 0x20E7 JUMPI PUSH1 0x40 MLOAD PUSH3 0x461BCD PUSH1 0xE5 SHL DUP2 MSTORE PUSH1 0x4 ADD PUSH2 0x112F SWAP1 PUSH2 0x3CDE JUMP JUMPDEST PUSH1 0x1 PUSH1 0x1 PUSH1 0xA0 SHL SUB AND PUSH1 0x0 SWAP1 DUP2 MSTORE PUSH1 0xE PUSH1 0x20 MSTORE PUSH1 0x40 DUP2 KECCAK256 SSTORE JUMP JUMPDEST PUSH1 0x0 SLOAD PUSH1 0x1 PUSH1 0x1 PUSH1 0xA0 SHL SUB AND CALLER EQ PUSH2 0x212B JUMPI PUSH1 0x40 MLOAD PUSH3 0x461BCD PUSH1 0xE5 SHL DUP2 MSTORE PUSH1 0x4 ADD PUSH2 0x112F SWAP1 PUSH2 0x3CDE JUMP JUMPDEST PUSH1 0x9 DUP1 SLOAD PUSH1 0x1 PUSH1 0x1 PUSH1 0xA0 SHL SUB NOT AND PUSH1 0x1 PUSH1 0x1 PUSH1 0xA0 SHL SUB SWAP3 SWAP1 SWAP3 AND SWAP2 SWAP1 SWAP2 OR SWAP1 SSTORE JUMP JUMPDEST PUSH1 0x0 SLOAD PUSH1 0x1 PUSH1 0x1 PUSH1 0xA0 SHL SUB AND CALLER EQ PUSH2 0x2177 JUMPI PUSH1 0x40 MLOAD PUSH3 0x461BCD PUSH1 0xE5 SHL DUP2 MSTORE PUSH1 0x4 ADD PUSH2 0x112F SWAP1 PUSH2 0x3CDE JUMP JUMPDEST PUSH1 0x21 SSTORE JUMP JUMPDEST PUSH1 0x0 SLOAD PUSH1 0x1 PUSH1 0x1 PUSH1 0xA0 SHL SUB AND CALLER EQ PUSH2 0x21A6 JUMPI PUSH1 0x40 MLOAD PUSH3 0x461BCD PUSH1 0xE5 SHL DUP2 MSTORE PUSH1 0x4 ADD PUSH2 0x112F SWAP1 PUSH2 0x3CDE JUMP JUMPDEST DUP2 MLOAD PUSH1 0x0 JUMPDEST DUP2 DUP2 LT ISZERO PUSH2 0x1BC5 JUMPI DUP3 PUSH1 0x13 PUSH1 0x0 DUP7 DUP5 DUP2 MLOAD DUP2 LT PUSH2 0x21CA JUMPI PUSH2 0x21CA PUSH2 0x3E4C JUMP JUMPDEST PUSH1 0x20 MUL PUSH1 0x20 ADD ADD MLOAD PUSH1 0x1 PUSH1 0x1 PUSH1 0xA0 SHL SUB AND PUSH1 0x1 PUSH1 0x1 PUSH1 0xA0 SHL SUB AND DUP2 MSTORE PUSH1 0x20 ADD SWAP1 DUP2 MSTORE PUSH1 0x20 ADD PUSH1 0x0 KECCAK256 SLOAD PUSH2 0x21FD SWAP2 SWAP1 PUSH2 0x3D70 JUMP JUMPDEST PUSH1 0x13 PUSH1 0x0 DUP7 DUP5 DUP2 MLOAD DUP2 LT PUSH2 0x2213 JUMPI PUSH2 0x2213 PUSH2 0x3E4C JUMP JUMPDEST PUSH1 0x20 MUL PUSH1 0x20 ADD ADD MLOAD PUSH1 0x1 PUSH1 0x1 PUSH1 0xA0 SHL SUB AND PUSH1 0x1 PUSH1 0x1 PUSH1 0xA0 SHL SUB AND DUP2 MSTORE PUSH1 0x20 ADD SWAP1 DUP2 MSTORE PUSH1 0x20 ADD PUSH1 0x0 KECCAK256 DUP2 SWAP1 SSTORE POP DUP1 DUP1 PUSH2 0x224A SWAP1 PUSH2 0x3E1B JUMP JUMPDEST SWAP2 POP POP PUSH2 0x21AB JUMP JUMPDEST PUSH1 0x0 SLOAD PUSH1 0x1 PUSH1 0x1 PUSH1 0xA0 SHL SUB AND CALLER EQ PUSH2 0x227C JUMPI PUSH1 0x40 MLOAD PUSH3 0x461BCD PUSH1 0xE5 SHL DUP2 MSTORE PUSH1 0x4 ADD PUSH2 0x112F SWAP1 PUSH2 0x3CDE JUMP JUMPDEST PUSH1 0x40 MLOAD PUSH1 0x1 PUSH1 0x1 PUSH1 0xA0 SHL SUB DUP3 AND SWAP1 SELFBALANCE DUP1 ISZERO PUSH2 0x8FC MUL SWAP2 PUSH1 0x0 DUP2 DUP2 DUP2 DUP6 DUP9 DUP9 CALL SWAP4 POP POP POP POP ISZERO DUP1 ISZERO PUSH2 0x22B1 JUMPI RETURNDATASIZE PUSH1 0x0 DUP1 RETURNDATACOPY RETURNDATASIZE PUSH1 0x0 REVERT JUMPDEST POP POP JUMP JUMPDEST PUSH1 0x0 SLOAD PUSH1 0x1 PUSH1 0x1 PUSH1 0xA0 SHL SUB AND CALLER EQ PUSH2 0x22DF JUMPI PUSH1 0x40 MLOAD PUSH3 0x461BCD PUSH1 0xE5 SHL DUP2 MSTORE PUSH1 0x4 ADD PUSH2 0x112F SWAP1 PUSH2 0x3CDE JUMP JUMPDEST DUP2 MLOAD PUSH1 0x0 JUMPDEST DUP2 DUP2 LT ISZERO PUSH2 0x1BC5 JUMPI PUSH1 0x14 SLOAD PUSH1 0x0 DUP2 ISZERO PUSH2 0x23C5 JUMPI PUSH1 0x0 JUMPDEST DUP3 DUP2 LT ISZERO PUSH2 0x236A JUMPI DUP7 DUP5 DUP2 MLOAD DUP2 LT PUSH2 0x2314 JUMPI PUSH2 0x2314 PUSH2 0x3E4C JUMP JUMPDEST PUSH1 0x20 MUL PUSH1 0x20 ADD ADD MLOAD PUSH1 0x1 PUSH1 0x1 PUSH1 0xA0 SHL SUB AND PUSH1 0x14 DUP3 DUP2 SLOAD DUP2 LT PUSH2 0x2338 JUMPI PUSH2 0x2338 PUSH2 0x3E4C JUMP JUMPDEST PUSH1 0x0 SWAP2 DUP3 MSTORE PUSH1 0x20 SWAP1 SWAP2 KECCAK256 ADD SLOAD PUSH1 0x1 PUSH1 0x1 PUSH1 0xA0 SHL SUB AND EQ ISZERO PUSH2 0x2358 JUMPI PUSH1 0x1 SWAP2 POP JUMPDEST DUP1 PUSH2 0x2362 DUP2 PUSH2 0x3E1B JUMP JUMPDEST SWAP2 POP POP PUSH2 0x22FA JUMP JUMPDEST POP DUP1 PUSH2 0x23C0 JUMPI PUSH1 0x14 DUP7 DUP5 DUP2 MLOAD DUP2 LT PUSH2 0x2384 JUMPI PUSH2 0x2384 PUSH2 0x3E4C JUMP JUMPDEST PUSH1 0x20 SWAP1 DUP2 MUL SWAP2 SWAP1 SWAP2 ADD DUP2 ADD MLOAD DUP3 SLOAD PUSH1 0x1 DUP2 ADD DUP5 SSTORE PUSH1 0x0 SWAP4 DUP5 MSTORE SWAP2 SWAP1 SWAP3 KECCAK256 ADD DUP1 SLOAD PUSH1 0x1 PUSH1 0x1 PUSH1 0xA0 SHL SUB NOT AND PUSH1 0x1 PUSH1 0x1 PUSH1 0xA0 SHL SUB SWAP1 SWAP3 AND SWAP2 SWAP1 SWAP2 OR SWAP1 SSTORE JUMPDEST PUSH2 0x2415 JUMP JUMPDEST PUSH1 0x14 DUP7 DUP5 DUP2 MLOAD DUP2 LT PUSH2 0x23D9 JUMPI PUSH2 0x23D9 PUSH2 0x3E4C JUMP JUMPDEST PUSH1 0x20 SWAP1 DUP2 MUL SWAP2 SWAP1 SWAP2 ADD DUP2 ADD MLOAD DUP3 SLOAD PUSH1 0x1 DUP2 ADD DUP5 SSTORE PUSH1 0x0 SWAP4 DUP5 MSTORE SWAP2 SWAP1 SWAP3 KECCAK256 ADD DUP1 SLOAD PUSH1 0x1 PUSH1 0x1 PUSH1 0xA0 SHL SUB NOT AND PUSH1 0x1 PUSH1 0x1 PUSH1 0xA0 SHL SUB SWAP1 SWAP3 AND SWAP2 SWAP1 SWAP2 OR SWAP1 SSTORE JUMPDEST DUP5 PUSH1 0x11 PUSH1 0x0 DUP9 DUP7 DUP2 MLOAD DUP2 LT PUSH2 0x242C JUMPI PUSH2 0x242C PUSH2 0x3E4C JUMP JUMPDEST PUSH1 0x20 MUL PUSH1 0x20 ADD ADD MLOAD PUSH1 0x1 PUSH1 0x1 PUSH1 0xA0 SHL SUB AND PUSH1 0x1 PUSH1 0x1 PUSH1 0xA0 SHL SUB AND DUP2 MSTORE PUSH1 0x20 ADD SWAP1 DUP2 MSTORE PUSH1 0x20 ADD PUSH1 0x0 KECCAK256 SLOAD PUSH2 0x245F SWAP2 SWAP1 PUSH2 0x3D70 JUMP JUMPDEST PUSH1 0x11 PUSH1 0x0 DUP9 DUP7 DUP2 MLOAD DUP2 LT PUSH2 0x2475 JUMPI PUSH2 0x2475 PUSH2 0x3E4C JUMP JUMPDEST PUSH1 0x20 MUL PUSH1 0x20 ADD ADD MLOAD PUSH1 0x1 PUSH1 0x1 PUSH1 0xA0 SHL SUB AND PUSH1 0x1 PUSH1 0x1 PUSH1 0xA0 SHL SUB AND DUP2 MSTORE PUSH1 0x20 ADD SWAP1 DUP2 MSTORE PUSH1 0x20 ADD PUSH1 0x0 KECCAK256 DUP2 SWAP1 SSTORE POP POP POP DUP1 DUP1 PUSH2 0x24AE SWAP1 PUSH2 0x3E1B JUMP JUMPDEST SWAP2 POP POP PUSH2 0x22E4 JUMP JUMPDEST PUSH1 0x0 SLOAD PUSH1 0x1 PUSH1 0x1 PUSH1 0xA0 SHL SUB AND CALLER EQ PUSH2 0x24E0 JUMPI PUSH1 0x40 MLOAD PUSH3 0x461BCD PUSH1 0xE5 SHL DUP2 MSTORE PUSH1 0x4 ADD PUSH2 0x112F SWAP1 PUSH2 0x3CDE JUMP JUMPDEST PUSH1 0x1A SSTORE JUMP JUMPDEST PUSH1 0x0 SLOAD PUSH1 0x1 PUSH1 0x1 PUSH1 0xA0 SHL SUB AND CALLER EQ PUSH2 0x250F JUMPI PUSH1 0x40 MLOAD PUSH3 0x461BCD PUSH1 0xE5 SHL DUP2 MSTORE PUSH1 0x4 ADD PUSH2 0x112F SWAP1 PUSH2 0x3CDE JUMP JUMPDEST PUSH1 0x1 PUSH1 0x1 PUSH1 0xA0 SHL SUB DUP2 AND PUSH2 0x2574 JUMPI PUSH1 0x40 MLOAD PUSH3 0x461BCD PUSH1 0xE5 SHL DUP2 MSTORE PUSH1 0x20 PUSH1 0x4 DUP3 ADD MSTORE PUSH1 0x26 PUSH1 0x24 DUP3 ADD MSTORE PUSH32 0x4F776E61626C653A206E6577206F776E657220697320746865207A65726F2061 PUSH1 0x44 DUP3 ADD MSTORE PUSH6 0x646472657373 PUSH1 0xD0 SHL PUSH1 0x64 DUP3 ADD MSTORE PUSH1 0x84 ADD PUSH2 0x112F JUMP JUMPDEST PUSH2 0x257D DUP2 PUSH2 0x3728 JUMP JUMPDEST POP JUMP JUMPDEST PUSH1 0x0 SLOAD PUSH1 0x1 PUSH1 0x1 PUSH1 0xA0 SHL SUB AND CALLER EQ PUSH2 0x25AA JUMPI PUSH1 0x40 MLOAD PUSH3 0x461BCD PUSH1 0xE5 SHL DUP2 MSTORE PUSH1 0x4 ADD PUSH2 0x112F SWAP1 PUSH2 0x3CDE JUMP JUMPDEST PUSH1 0x15 SSTORE JUMP JUMPDEST PUSH1 0x1 PUSH1 0x1 PUSH1 0xA0 SHL SUB DUP4 AND PUSH2 0x2611 JUMPI PUSH1 0x40 MLOAD PUSH3 0x461BCD PUSH1 0xE5 SHL DUP2 MSTORE PUSH1 0x20 PUSH1 0x4 DUP3 ADD MSTORE PUSH1 0x24 DUP1 DUP3 ADD MSTORE PUSH32 0x45524332303A20617070726F76652066726F6D20746865207A65726F20616464 PUSH1 0x44 DUP3 ADD MSTORE PUSH4 0x72657373 PUSH1 0xE0 SHL PUSH1 0x64 DUP3 ADD MSTORE PUSH1 0x84 ADD PUSH2 0x112F JUMP JUMPDEST PUSH1 0x1 PUSH1 0x1 PUSH1 0xA0 SHL SUB DUP3 AND PUSH2 0x2672 JUMPI PUSH1 0x40 MLOAD PUSH3 0x461BCD PUSH1 0xE5 SHL DUP2 MSTORE PUSH1 0x20 PUSH1 0x4 DUP3 ADD MSTORE PUSH1 0x22 PUSH1 0x24 DUP3 ADD MSTORE PUSH32 0x45524332303A20617070726F766520746F20746865207A65726F206164647265 PUSH1 0x44 DUP3 ADD MSTORE PUSH2 0x7373 PUSH1 0xF0 SHL PUSH1 0x64 DUP3 ADD MSTORE PUSH1 0x84 ADD PUSH2 0x112F JUMP JUMPDEST PUSH1 0x1 PUSH1 0x1 PUSH1 0xA0 SHL SUB DUP4 DUP2 AND PUSH1 0x0 DUP2 DUP2 MSTORE PUSH1 0x2 PUSH1 0x20 SWAP1 DUP2 MSTORE PUSH1 0x40 DUP1 DUP4 KECCAK256 SWAP5 DUP8 AND DUP1 DUP5 MSTORE SWAP5 DUP3 MSTORE SWAP2 DUP3 SWAP1 KECCAK256 DUP6 SWAP1 SSTORE SWAP1 MLOAD DUP5 DUP2 MSTORE PUSH32 0x8C5BE1E5EBEC7D5BD14F71427D1E84F3DD0314C0F7B2291E5B200AC8C7C3B925 SWAP2 ADD PUSH1 0x40 MLOAD DUP1 SWAP2 SUB SWAP1 LOG3 POP POP POP JUMP JUMPDEST PUSH1 0x0 DUP2 GT PUSH2 0x2735 JUMPI PUSH1 0x40 MLOAD PUSH3 0x461BCD PUSH1 0xE5 SHL DUP2 MSTORE PUSH1 0x20 PUSH1 0x4 DUP3 ADD MSTORE PUSH1 0x29 PUSH1 0x24 DUP3 ADD MSTORE PUSH32 0x5472616E7366657220616D6F756E74206D757374206265206772656174657220 PUSH1 0x44 DUP3 ADD MSTORE PUSH9 0x7468616E207A65726F PUSH1 0xB8 SHL PUSH1 0x64 DUP3 ADD MSTORE PUSH1 0x84 ADD PUSH2 0x112F JUMP JUMPDEST PUSH1 0x1 PUSH1 0x1 PUSH1 0xA0 SHL SUB DUP4 AND PUSH2 0x2799 JUMPI PUSH1 0x40 MLOAD PUSH3 0x461BCD PUSH1 0xE5 SHL DUP2 MSTORE PUSH1 0x20 PUSH1 0x4 DUP3 ADD MSTORE PUSH1 0x25 PUSH1 0x24 DUP3 ADD MSTORE PUSH32 0x45524332303A207472616E736665722066726F6D20746865207A65726F206164 PUSH1 0x44 DUP3 ADD MSTORE PUSH5 0x6472657373 PUSH1 0xD8 SHL PUSH1 0x64 DUP3 ADD MSTORE PUSH1 0x84 ADD PUSH2 0x112F JUMP JUMPDEST PUSH1 0x1 PUSH1 0x1 PUSH1 0xA0 SHL SUB DUP4 AND PUSH2 0xDEAD EQ ISZERO PUSH2 0x2809 JUMPI PUSH1 0x40 MLOAD PUSH3 0x461BCD PUSH1 0xE5 SHL DUP2 MSTORE PUSH1 0x20 PUSH1 0x4 DUP3 ADD MSTORE PUSH1 0x2C PUSH1 0x24 DUP3 ADD MSTORE PUSH32 0x42617365526669546F6B656E3A207472616E736665722066726F6D2074686520 PUSH1 0x44 DUP3 ADD MSTORE PUSH12 0x6275726E2061646472657373 PUSH1 0xA0 SHL PUSH1 0x64 DUP3 ADD MSTORE PUSH1 0x84 ADD PUSH2 0x112F JUMP JUMPDEST PUSH1 0x1 PUSH1 0x1 PUSH1 0xA0 SHL SUB DUP4 AND PUSH1 0x0 SWAP1 DUP2 MSTORE PUSH1 0x1 PUSH1 0x20 MSTORE PUSH1 0x40 SWAP1 KECCAK256 SLOAD DUP2 GT ISZERO PUSH2 0x2868 JUMPI PUSH1 0x40 MLOAD PUSH3 0x461BCD PUSH1 0xE5 SHL DUP2 MSTORE PUSH1 0x20 PUSH1 0x4 DUP3 ADD MSTORE PUSH1 0x14 PUSH1 0x24 DUP3 ADD MSTORE PUSH20 0x496E73756666696369656E742062616C616E6365 PUSH1 0x60 SHL PUSH1 0x44 DUP3 ADD MSTORE PUSH1 0x64 ADD PUSH2 0x112F JUMP JUMPDEST PUSH1 0x0 SLOAD PUSH1 0x1 PUSH1 0x1 PUSH1 0xA0 SHL SUB DUP5 DUP2 AND SWAP2 AND EQ PUSH2 0x28DF JUMPI PUSH1 0x1 PUSH1 0x1 PUSH1 0xA0 SHL SUB DUP3 AND PUSH2 0x28DF JUMPI PUSH1 0x40 MLOAD PUSH3 0x461BCD PUSH1 0xE5 SHL DUP2 MSTORE PUSH1 0x20 PUSH1 0x4 DUP3 ADD MSTORE PUSH1 0x23 PUSH1 0x24 DUP3 ADD MSTORE PUSH32 0x45524332303A207472616E7366657220746F20746865207A65726F2061646472 PUSH1 0x44 DUP3 ADD MSTORE PUSH3 0x657373 PUSH1 0xE8 SHL PUSH1 0x64 DUP3 ADD MSTORE PUSH1 0x84 ADD PUSH2 0x112F JUMP JUMPDEST PUSH1 0x23 DUP1 SLOAD PUSH4 0xFF000000 NOT AND PUSH4 0x1000000 OR SWAP1 SSTORE PUSH1 0x28 SLOAD DUP2 SWAP1 PUSH1 0x0 SWAP1 DUP2 SWAP1 DUP2 SWAP1 DUP2 SWAP1 PUSH3 0x10000 SWAP1 DIV PUSH1 0xFF AND ISZERO PUSH2 0x291C JUMPI PUSH1 0x23 DUP1 SLOAD PUSH4 0xFF000000 NOT AND SWAP1 SSTORE JUMPDEST PUSH1 0x7 SLOAD PUSH1 0x0 SWAP1 PUSH2 0x2941 SWAP1 PUSH2 0x293B PUSH10 0x152D02C7E14AF6800000 PUSH1 0x64 PUSH2 0x3778 JUMP JUMPDEST SWAP1 PUSH2 0x3784 JUMP JUMPDEST SWAP1 POP PUSH2 0x2955 PUSH1 0x0 SLOAD PUSH1 0x1 PUSH1 0x1 PUSH1 0xA0 SHL SUB AND SWAP1 JUMP JUMPDEST PUSH1 0x1 PUSH1 0x1 PUSH1 0xA0 SHL SUB AND DUP9 PUSH1 0x1 PUSH1 0x1 PUSH1 0xA0 SHL SUB AND EQ ISZERO DUP1 ISZERO PUSH2 0x2984 JUMPI POP PUSH1 0x0 SLOAD PUSH1 0x1 PUSH1 0x1 PUSH1 0xA0 SHL SUB DUP11 DUP2 AND SWAP2 AND EQ ISZERO JUMPDEST DUP1 ISZERO PUSH2 0x2996 JUMPI POP PUSH2 0x2994 DUP10 PUSH2 0x12F1 JUMP JUMPDEST ISZERO JUMPDEST DUP1 ISZERO PUSH2 0x29A8 JUMPI POP PUSH2 0x29A6 DUP9 PUSH2 0x12F1 JUMP JUMPDEST ISZERO JUMPDEST DUP1 ISZERO PUSH2 0x29BD JUMPI POP PUSH1 0x23 SLOAD PUSH4 0x1000000 SWAP1 DIV PUSH1 0xFF AND JUMPDEST ISZERO PUSH2 0x2A24 JUMPI DUP1 DUP8 GT ISZERO PUSH2 0x2A24 JUMPI PUSH1 0x40 MLOAD PUSH3 0x461BCD PUSH1 0xE5 SHL DUP2 MSTORE PUSH1 0x20 PUSH1 0x4 DUP3 ADD MSTORE PUSH1 0x29 PUSH1 0x24 DUP3 ADD MSTORE PUSH32 0x5472616E7366657220616D6F756E74206578636565647320746865206D617854 PUSH1 0x44 DUP3 ADD MSTORE PUSH9 0x3C2832B931B2B73A17 PUSH1 0xB9 SHL PUSH1 0x64 DUP3 ADD MSTORE PUSH1 0x84 ADD PUSH2 0x112F JUMP JUMPDEST PUSH32 0x0 PUSH1 0x1 PUSH1 0x1 PUSH1 0xA0 SHL SUB AND DUP10 PUSH1 0x1 PUSH1 0x1 PUSH1 0xA0 SHL SUB AND EQ ISZERO PUSH2 0x2E28 JUMPI PUSH2 0x2A67 DUP9 PUSH2 0x12F1 JUMP JUMPDEST DUP1 PUSH2 0x2A7A JUMPI POP PUSH1 0x23 SLOAD PUSH2 0x100 SWAP1 DIV PUSH1 0xFF AND ISZERO JUMPDEST ISZERO PUSH2 0x2A8D JUMPI PUSH1 0x23 DUP1 SLOAD PUSH4 0xFF000000 NOT AND SWAP1 SSTORE JUMPDEST PUSH1 0x1 PUSH1 0x1 PUSH1 0xA0 SHL SUB DUP9 AND PUSH1 0x0 SWAP1 DUP2 MSTORE PUSH1 0x13 PUSH1 0x20 MSTORE PUSH1 0x40 SWAP1 KECCAK256 SLOAD ISZERO PUSH2 0x2AF6 JUMPI PUSH1 0x23 DUP1 SLOAD PUSH4 0xFF000000 NOT AND SWAP1 SSTORE PUSH1 0x1 PUSH1 0x1 PUSH1 0xA0 SHL SUB DUP9 AND PUSH1 0x0 SWAP1 DUP2 MSTORE PUSH1 0x13 PUSH1 0x20 MSTORE PUSH1 0x40 SWAP1 KECCAK256 SLOAD PUSH2 0x2ADC SWAP1 PUSH1 0x1 PUSH2 0x3709 JUMP JUMPDEST PUSH1 0x1 PUSH1 0x1 PUSH1 0xA0 SHL SUB DUP10 AND PUSH1 0x0 SWAP1 DUP2 MSTORE PUSH1 0x13 PUSH1 0x20 MSTORE PUSH1 0x40 SWAP1 KECCAK256 SSTORE JUMPDEST PUSH1 0x1 PUSH1 0x1 PUSH1 0xA0 SHL SUB DUP9 AND PUSH1 0x0 SWAP1 DUP2 MSTORE PUSH1 0x10 PUSH1 0x20 MSTORE PUSH1 0x40 SWAP1 KECCAK256 SLOAD PUSH1 0xFF AND PUSH2 0x2B86 JUMPI PUSH1 0x1 PUSH1 0x1 PUSH1 0xA0 SHL SUB DUP9 AND PUSH1 0x0 SWAP1 DUP2 MSTORE PUSH1 0x1 PUSH1 0x20 MSTORE PUSH1 0x40 DUP2 KECCAK256 SLOAD PUSH2 0x2B39 SWAP1 DUP10 PUSH2 0x371C JUMP JUMPDEST SWAP1 POP PUSH1 0x0 PUSH2 0x2B61 PUSH1 0xF SLOAD PUSH2 0x293B PUSH1 0x64 PUSH10 0x152D02C7E14AF6800000 PUSH2 0x3778 SWAP1 SWAP2 SWAP1 PUSH4 0xFFFFFFFF AND JUMP JUMPDEST SWAP1 POP DUP1 DUP3 GT ISZERO PUSH2 0x2B83 JUMPI PUSH1 0x40 MLOAD PUSH3 0x461BCD PUSH1 0xE5 SHL DUP2 MSTORE PUSH1 0x4 ADD PUSH2 0x112F SWAP1 PUSH2 0x3C98 JUMP JUMPDEST POP POP JUMPDEST PUSH1 0x18 SLOAD PUSH1 0x1B SLOAD PUSH1 0x1E SLOAD PUSH1 0x21 SLOAD PUSH1 0x28 SLOAD SWAP4 SWAP9 POP SWAP2 SWAP7 POP SWAP5 POP SWAP3 POP PUSH2 0x100 SWAP1 DIV PUSH1 0xFF AND DUP1 ISZERO PUSH2 0x2BBC JUMPI POP PUSH1 0x28 SLOAD PUSH3 0x10000 SWAP1 DIV PUSH1 0xFF AND ISZERO JUMPDEST ISZERO PUSH2 0x2C75 JUMPI PUSH1 0x24 SLOAD ADDRESS PUSH1 0x0 SWAP1 DUP2 MSTORE PUSH1 0x1 PUSH1 0x20 MSTORE PUSH1 0x40 SWAP1 KECCAK256 SLOAD LT ISZERO DUP1 ISZERO PUSH2 0x2BE6 JUMPI POP PUSH1 0x24 SLOAD PUSH1 0x26 SLOAD LT ISZERO JUMPDEST ISZERO PUSH2 0x2C1B JUMPI PUSH1 0x28 DUP1 SLOAD PUSH3 0xFF0000 NOT AND PUSH3 0x10000 OR SWAP1 SSTORE PUSH1 0x24 SLOAD PUSH1 0x9 SLOAD PUSH2 0x2C15 SWAP2 SWAP1 PUSH1 0x1 PUSH1 0x1 PUSH1 0xA0 SHL SUB AND PUSH2 0x3790 JUMP JUMPDEST PUSH1 0x0 PUSH1 0x26 SSTORE JUMPDEST PUSH1 0x25 SLOAD ADDRESS PUSH1 0x0 SWAP1 DUP2 MSTORE PUSH1 0x1 PUSH1 0x20 MSTORE PUSH1 0x40 SWAP1 KECCAK256 SLOAD LT ISZERO DUP1 ISZERO PUSH2 0x2C40 JUMPI POP PUSH1 0x25 SLOAD PUSH1 0x27 SLOAD LT ISZERO JUMPDEST ISZERO PUSH2 0x2C75 JUMPI PUSH1 0x28 DUP1 SLOAD PUSH3 0xFF0000 NOT AND PUSH3 0x10000 OR SWAP1 SSTORE PUSH1 0x25 SLOAD PUSH1 0xA SLOAD PUSH2 0x2C6F SWAP2 SWAP1 PUSH1 0x1 PUSH1 0x1 PUSH1 0xA0 SHL SUB AND PUSH2 0x3790 JUMP JUMPDEST PUSH1 0x0 PUSH1 0x27 SSTORE JUMPDEST PUSH1 0x16 SLOAD DUP8 LT ISZERO DUP1 ISZERO PUSH2 0x2C90 JUMPI POP PUSH1 0x1 PUSH1 0x1 PUSH1 0xA0 SHL SUB DUP9 AND ADDRESS EQ ISZERO JUMPDEST ISZERO PUSH2 0x2E28 JUMPI PUSH1 0x1 PUSH1 0x1 PUSH1 0xA0 SHL SUB DUP9 AND PUSH1 0x0 SWAP1 DUP2 MSTORE PUSH1 0x11 PUSH1 0x20 MSTORE PUSH1 0x40 SWAP1 KECCAK256 SLOAD PUSH2 0x2DBD JUMPI PUSH1 0x14 SLOAD PUSH1 0x0 DUP2 ISZERO PUSH2 0x2D6E JUMPI PUSH1 0x0 JUMPDEST DUP3 DUP2 LT ISZERO PUSH2 0x2D17 JUMPI DUP11 PUSH1 0x1 PUSH1 0x1 PUSH1 0xA0 SHL SUB AND PUSH1 0x14 DUP3 DUP2 SLOAD DUP2 LT PUSH2 0x2CE5 JUMPI PUSH2 0x2CE5 PUSH2 0x3E4C JUMP JUMPDEST PUSH1 0x0 SWAP2 DUP3 MSTORE PUSH1 0x20 SWAP1 SWAP2 KECCAK256 ADD SLOAD PUSH1 0x1 PUSH1 0x1 PUSH1 0xA0 SHL SUB AND EQ ISZERO PUSH2 0x2D05 JUMPI PUSH1 0x1 SWAP2 POP JUMPDEST DUP1 PUSH2 0x2D0F DUP2 PUSH2 0x3E1B JUMP JUMPDEST SWAP2 POP POP PUSH2 0x2CC0 JUMP JUMPDEST POP DUP1 PUSH2 0x2D69 JUMPI PUSH1 0x14 DUP1 SLOAD PUSH1 0x1 DUP2 ADD DUP3 SSTORE PUSH1 0x0 SWAP2 SWAP1 SWAP2 MSTORE PUSH32 0xCE6D7B5282BD9A3661AE061FEED1DBDA4E52AB073B1F9285BE6E155D9C38D4EC ADD DUP1 SLOAD PUSH1 0x1 PUSH1 0x1 PUSH1 0xA0 SHL SUB NOT AND PUSH1 0x1 PUSH1 0x1 PUSH1 0xA0 SHL SUB DUP13 AND OR SWAP1 SSTORE JUMPDEST PUSH2 0x2DBA JUMP JUMPDEST PUSH1 0x14 DUP1 SLOAD PUSH1 0x1 DUP2 ADD DUP3 SSTORE PUSH1 0x0 SWAP2 SWAP1 SWAP2 MSTORE PUSH32 0xCE6D7B5282BD9A3661AE061FEED1DBDA4E52AB073B1F9285BE6E155D9C38D4EC ADD DUP1 SLOAD PUSH1 0x1 PUSH1 0x1 PUSH1 0xA0 SHL SUB NOT AND PUSH1 0x1 PUSH1 0x1 PUSH1 0xA0 SHL SUB DUP13 AND OR SWAP1 SSTORE JUMPDEST POP POP JUMPDEST PUSH1 0x0 PUSH2 0x2DD4 PUSH1 0x16 SLOAD DUP10 PUSH2 0x3778 SWAP1 SWAP2 SWAP1 PUSH4 0xFFFFFFFF AND JUMP JUMPDEST SWAP1 POP PUSH2 0x2E0D PUSH2 0x2DEE DUP3 PUSH1 0x15 SLOAD PUSH2 0x3784 SWAP1 SWAP2 SWAP1 PUSH4 0xFFFFFFFF AND JUMP JUMPDEST PUSH1 0x1 PUSH1 0x1 PUSH1 0xA0 SHL SUB DUP12 AND PUSH1 0x0 SWAP1 DUP2 MSTORE PUSH1 0x11 PUSH1 0x20 MSTORE PUSH1 0x40 SWAP1 KECCAK256 SLOAD SWAP1 PUSH2 0x371C JUMP JUMPDEST PUSH1 0x1 PUSH1 0x1 PUSH1 0xA0 SHL SUB DUP11 AND PUSH1 0x0 SWAP1 DUP2 MSTORE PUSH1 0x11 PUSH1 0x20 MSTORE PUSH1 0x40 SWAP1 KECCAK256 SSTORE POP JUMPDEST PUSH32 0x0 PUSH1 0x1 PUSH1 0x1 PUSH1 0xA0 SHL SUB AND DUP9 PUSH1 0x1 PUSH1 0x1 PUSH1 0xA0 SHL SUB AND EQ ISZERO PUSH2 0x2FCB JUMPI PUSH2 0x2E6B DUP10 PUSH2 0x12F1 JUMP JUMPDEST DUP1 PUSH2 0x2E79 JUMPI POP PUSH1 0x23 SLOAD PUSH1 0xFF AND ISZERO JUMPDEST ISZERO PUSH2 0x2E8C JUMPI PUSH1 0x23 DUP1 SLOAD PUSH4 0xFF000000 NOT AND SWAP1 SSTORE JUMPDEST PUSH1 0x17 SLOAD PUSH1 0x1A SLOAD PUSH1 0x1D SLOAD PUSH1 0x20 SLOAD PUSH1 0x28 SLOAD SWAP4 SWAP9 POP SWAP2 SWAP7 POP SWAP5 POP SWAP3 POP PUSH1 0xFF AND DUP1 ISZERO PUSH2 0x2EBD JUMPI POP PUSH1 0x28 SLOAD PUSH3 0x10000 SWAP1 DIV PUSH1 0xFF AND ISZERO JUMPDEST ISZERO PUSH2 0x2F76 JUMPI PUSH1 0x24 SLOAD ADDRESS PUSH1 0x0 SWAP1 DUP2 MSTORE PUSH1 0x1 PUSH1 0x20 MSTORE PUSH1 0x40 SWAP1 KECCAK256 SLOAD LT ISZERO DUP1 ISZERO PUSH2 0x2EE7 JUMPI POP PUSH1 0x24 SLOAD PUSH1 0x26 SLOAD LT ISZERO JUMPDEST ISZERO PUSH2 0x2F1C JUMPI PUSH1 0x28 DUP1 SLOAD PUSH3 0xFF0000 NOT AND PUSH3 0x10000 OR SWAP1 SSTORE PUSH1 0x24 SLOAD PUSH1 0x9 SLOAD PUSH2 0x2F16 SWAP2 SWAP1 PUSH1 0x1 PUSH1 0x1 PUSH1 0xA0 SHL SUB AND PUSH2 0x3790 JUMP JUMPDEST PUSH1 0x0 PUSH1 0x26 SSTORE JUMPDEST PUSH1 0x25 SLOAD ADDRESS PUSH1 0x0 SWAP1 DUP2 MSTORE PUSH1 0x1 PUSH1 0x20 MSTORE PUSH1 0x40 SWAP1 KECCAK256 SLOAD LT ISZERO DUP1 ISZERO PUSH2 0x2F41 JUMPI POP PUSH1 0x25 SLOAD PUSH1 0x27 SLOAD LT ISZERO JUMPDEST ISZERO PUSH2 0x2F76 JUMPI PUSH1 0x28 DUP1 SLOAD PUSH3 0xFF0000 NOT AND PUSH3 0x10000 OR SWAP1 SSTORE PUSH1 0x25 SLOAD PUSH1 0xA SLOAD PUSH2 0x2F70 SWAP2 SWAP1 PUSH1 0x1 PUSH1 0x1 PUSH1 0xA0 SHL SUB AND PUSH2 0x3790 JUMP JUMPDEST PUSH1 0x0 PUSH1 0x27 SSTORE JUMPDEST PUSH1 0x1 PUSH1 0x1 PUSH1 0xA0 SHL SUB DUP10 AND PUSH1 0x0 SWAP1 DUP2 MSTORE PUSH1 0x11 PUSH1 0x20 MSTORE PUSH1 0x40 SWAP1 KECCAK256 SLOAD ISZERO PUSH2 0x2FB1 JUMPI PUSH1 0x1 PUSH1 0x1 PUSH1 0xA0 SHL SUB DUP10 AND PUSH1 0x0 SWAP1 DUP2 MSTORE PUSH1 0x11 PUSH1 0x20 MSTORE PUSH1 0x40 SWAP1 KECCAK256 PUSH1 0x1 SWAP1 SSTORE JUMPDEST PUSH1 0x1 PUSH1 0x1 PUSH1 0xA0 SHL SUB DUP10 AND PUSH1 0x0 SWAP1 DUP2 MSTORE PUSH1 0x13 PUSH1 0x20 MSTORE PUSH1 0x40 DUP2 KECCAK256 SSTORE JUMPDEST PUSH32 0x0 PUSH1 0x1 PUSH1 0x1 PUSH1 0xA0 SHL SUB AND DUP10 PUSH1 0x1 PUSH1 0x1 PUSH1 0xA0 SHL SUB AND EQ ISZERO DUP1 ISZERO PUSH2 0x303F JUMPI POP PUSH32 0x0 PUSH1 0x1 PUSH1 0x1 PUSH1 0xA0 SHL SUB AND DUP9 PUSH1 0x1 PUSH1 0x1 PUSH1 0xA0 SHL SUB AND EQ ISZERO JUMPDEST ISZERO PUSH2 0x3128 JUMPI PUSH2 0x304D DUP10 PUSH2 0x12F1 JUMP JUMPDEST DUP1 PUSH2 0x305C JUMPI POP PUSH2 0x305C DUP9 PUSH2 0x12F1 JUMP JUMPDEST DUP1 PUSH2 0x3070 JUMPI POP PUSH1 0x23 SLOAD PUSH3 0x10000 SWAP1 DIV PUSH1 0xFF AND ISZERO JUMPDEST ISZERO PUSH2 0x3083 JUMPI PUSH1 0x23 DUP1 SLOAD PUSH4 0xFF000000 NOT AND SWAP1 SSTORE JUMPDEST PUSH1 0x1 PUSH1 0x1 PUSH1 0xA0 SHL SUB DUP9 AND PUSH1 0x0 SWAP1 DUP2 MSTORE PUSH1 0x10 PUSH1 0x20 MSTORE PUSH1 0x40 SWAP1 KECCAK256 SLOAD PUSH1 0xFF AND PUSH2 0x3113 JUMPI PUSH1 0x1 PUSH1 0x1 PUSH1 0xA0 SHL SUB DUP9 AND PUSH1 0x0 SWAP1 DUP2 MSTORE PUSH1 0x1 PUSH1 0x20 MSTORE PUSH1 0x40 DUP2 KECCAK256 SLOAD PUSH2 0x30C6 SWAP1 DUP10 PUSH2 0x371C JUMP JUMPDEST SWAP1 POP PUSH1 0x0 PUSH2 0x30EE PUSH1 0xF SLOAD PUSH2 0x293B PUSH1 0x64 PUSH10 0x152D02C7E14AF6800000 PUSH2 0x3778 SWAP1 SWAP2 SWAP1 PUSH4 0xFFFFFFFF AND JUMP JUMPDEST SWAP1 POP DUP1 DUP3 GT ISZERO PUSH2 0x3110 JUMPI PUSH1 0x40 MLOAD PUSH3 0x461BCD PUSH1 0xE5 SHL DUP2 MSTORE PUSH1 0x4 ADD PUSH2 0x112F SWAP1 PUSH2 0x3C98 JUMP JUMPDEST POP POP JUMPDEST PUSH1 0x19 SLOAD SWAP5 POP PUSH1 0x1C SLOAD SWAP4 POP PUSH1 0x1F SLOAD SWAP3 POP PUSH1 0x22 SLOAD SWAP2 POP JUMPDEST PUSH1 0x23 SLOAD PUSH4 0x1000000 SWAP1 DIV PUSH1 0xFF AND ISZERO PUSH2 0x3668 JUMPI DUP5 ISZERO PUSH2 0x31DA JUMPI PUSH1 0x0 PUSH2 0x3151 DUP7 PUSH2 0x293B DUP11 PUSH1 0x64 PUSH2 0x3778 JUMP JUMPDEST PUSH2 0xDEAD PUSH1 0x0 MSTORE PUSH1 0x1 PUSH1 0x20 MSTORE PUSH1 0x0 DUP1 MLOAD PUSH1 0x20 PUSH2 0x3E8E DUP4 CODECOPY DUP2 MLOAD SWAP2 MSTORE SLOAD SWAP1 SWAP2 POP PUSH2 0x3179 SWAP1 DUP3 PUSH2 0x371C JUMP JUMPDEST PUSH2 0xDEAD PUSH1 0x0 DUP2 SWAP1 MSTORE PUSH1 0x1 PUSH1 0x20 MSTORE PUSH1 0x0 DUP1 MLOAD PUSH1 0x20 PUSH2 0x3E8E DUP4 CODECOPY DUP2 MLOAD SWAP2 MSTORE SWAP2 SWAP1 SWAP2 SSTORE PUSH1 0x40 MLOAD PUSH1 0x1 PUSH1 0x1 PUSH1 0xA0 SHL SUB DUP13 AND SWAP1 PUSH1 0x0 DUP1 MLOAD PUSH1 0x20 PUSH2 0x3EAE DUP4 CODECOPY DUP2 MLOAD SWAP2 MSTORE SWAP1 PUSH2 0x31C4 SWAP1 DUP6 DUP2 MSTORE PUSH1 0x20 ADD SWAP1 JUMP JUMPDEST PUSH1 0x40 MLOAD DUP1 SWAP2 SUB SWAP1 LOG3 PUSH2 0x31D6 DUP8 DUP3 PUSH2 0x3709 JUMP JUMPDEST SWAP7 POP POP JUMPDEST DUP4 ISZERO PUSH2 0x326A JUMPI PUSH1 0x0 PUSH2 0x31F1 DUP6 PUSH2 0x293B DUP11 PUSH1 0x64 PUSH2 0x3778 JUMP JUMPDEST ADDRESS PUSH1 0x0 SWAP1 DUP2 MSTORE PUSH1 0x1 PUSH1 0x20 MSTORE PUSH1 0x40 SWAP1 KECCAK256 SLOAD SWAP1 SWAP2 POP PUSH2 0x320E SWAP1 DUP3 PUSH2 0x371C JUMP JUMPDEST ADDRESS PUSH1 0x0 SWAP1 DUP2 MSTORE PUSH1 0x1 PUSH1 0x20 MSTORE PUSH1 0x40 SWAP1 KECCAK256 SSTORE PUSH1 0x26 SLOAD PUSH2 0x322B SWAP1 DUP3 PUSH2 0x371C JUMP JUMPDEST PUSH1 0x26 SSTORE PUSH1 0x40 MLOAD DUP2 DUP2 MSTORE ADDRESS SWAP1 PUSH1 0x1 PUSH1 0x1 PUSH1 0xA0 SHL SUB DUP13 AND SWAP1 PUSH1 0x0 DUP1 MLOAD PUSH1 0x20 PUSH2 0x3EAE DUP4 CODECOPY DUP2 MLOAD SWAP2 MSTORE SWAP1 PUSH1 0x20 ADD PUSH1 0x40 MLOAD DUP1 SWAP2 SUB SWAP1 LOG3 PUSH2 0x3266 DUP8 DUP3 PUSH2 0x3709 JUMP JUMPDEST SWAP7 POP POP JUMPDEST DUP2 ISZERO PUSH2 0x3376 JUMPI PUSH1 0x0 PUSH2 0x3281 DUP4 PUSH2 0x293B DUP11 PUSH1 0x64 PUSH2 0x3778 JUMP JUMPDEST SWAP1 POP PUSH1 0x0 PUSH2 0x3290 DUP3 PUSH1 0x2 PUSH2 0x3778 JUMP JUMPDEST PUSH1 0xA SLOAD PUSH1 0x1 PUSH1 0x1 PUSH1 0xA0 SHL SUB AND PUSH1 0x0 SWAP1 DUP2 MSTORE PUSH1 0x1 PUSH1 0x20 MSTORE PUSH1 0x40 SWAP1 KECCAK256 SLOAD SWAP1 SWAP2 POP PUSH2 0x32B8 SWAP1 DUP3 PUSH2 0x371C JUMP JUMPDEST PUSH1 0xA SLOAD PUSH1 0x1 PUSH1 0x1 PUSH1 0xA0 SHL SUB AND PUSH1 0x0 SWAP1 DUP2 MSTORE PUSH1 0x1 PUSH1 0x20 MSTORE PUSH1 0x40 DUP1 DUP3 KECCAK256 SWAP3 SWAP1 SWAP3 SSTORE ADDRESS DUP2 MSTORE KECCAK256 SLOAD PUSH2 0x32E6 SWAP1 DUP3 PUSH2 0x371C JUMP JUMPDEST ADDRESS PUSH1 0x0 SWAP1 DUP2 MSTORE PUSH1 0x1 PUSH1 0x20 MSTORE PUSH1 0x40 SWAP1 KECCAK256 SSTORE PUSH1 0x27 SLOAD PUSH2 0x3303 SWAP1 DUP3 PUSH2 0x371C JUMP JUMPDEST PUSH1 0x27 SSTORE PUSH1 0x40 MLOAD DUP2 DUP2 MSTORE ADDRESS SWAP1 PUSH1 0x1 PUSH1 0x1 PUSH1 0xA0 SHL SUB DUP14 AND SWAP1 PUSH1 0x0 DUP1 MLOAD PUSH1 0x20 PUSH2 0x3EAE DUP4 CODECOPY DUP2 MLOAD SWAP2 MSTORE SWAP1 PUSH1 0x20 ADD PUSH1 0x40 MLOAD DUP1 SWAP2 SUB SWAP1 LOG3 PUSH1 0xA SLOAD PUSH1 0x40 MLOAD DUP3 DUP2 MSTORE PUSH1 0x1 PUSH1 0x1 PUSH1 0xA0 SHL SUB SWAP2 DUP3 AND SWAP2 DUP14 AND SWAP1 PUSH1 0x0 DUP1 MLOAD PUSH1 0x20 PUSH2 0x3EAE DUP4 CODECOPY DUP2 MLOAD SWAP2 MSTORE SWAP1 PUSH1 0x20 ADD PUSH1 0x40 MLOAD DUP1 SWAP2 SUB SWAP1 LOG3 PUSH2 0x3371 DUP9 DUP4 PUSH2 0x3709 JUMP JUMPDEST SWAP8 POP POP POP JUMPDEST DUP3 ISZERO PUSH2 0x3668 JUMPI PUSH1 0x0 PUSH2 0x338D DUP5 PUSH2 0x293B DUP11 PUSH1 0x64 PUSH2 0x3778 JUMP JUMPDEST PUSH1 0x1 PUSH1 0x1 PUSH1 0xA0 SHL SUB DUP12 AND PUSH1 0x0 SWAP1 DUP2 MSTORE PUSH1 0x1 PUSH1 0x20 MSTORE PUSH1 0x40 SWAP1 KECCAK256 SLOAD SWAP1 SWAP2 POP DUP5 GT PUSH2 0x3666 JUMPI PUSH1 0x14 SLOAD DUP1 ISZERO PUSH2 0x3664 JUMPI PUSH1 0x0 PUSH2 0x33C4 DUP4 DUP4 PUSH2 0x3778 JUMP JUMPDEST SWAP1 POP PUSH1 0x0 JUMPDEST DUP3 DUP2 LT ISZERO PUSH2 0x3661 JUMPI PUSH1 0x0 PUSH1 0x11 PUSH1 0x0 PUSH1 0x14 DUP5 DUP2 SLOAD DUP2 LT PUSH2 0x33EA JUMPI PUSH2 0x33EA PUSH2 0x3E4C JUMP JUMPDEST PUSH1 0x0 SWAP2 DUP3 MSTORE PUSH1 0x20 DUP1 DUP4 KECCAK256 SWAP1 SWAP2 ADD SLOAD PUSH1 0x1 PUSH1 0x1 PUSH1 0xA0 SHL SUB AND DUP4 MSTORE DUP3 ADD SWAP3 SWAP1 SWAP3 MSTORE PUSH1 0x40 ADD SWAP1 KECCAK256 SLOAD GT ISZERO PUSH2 0x364F JUMPI DUP13 PUSH1 0x1 PUSH1 0x1 PUSH1 0xA0 SHL SUB AND PUSH1 0x14 DUP3 DUP2 SLOAD DUP2 LT PUSH2 0x3432 JUMPI PUSH2 0x3432 PUSH2 0x3E4C JUMP JUMPDEST PUSH1 0x0 SWAP2 DUP3 MSTORE PUSH1 0x20 SWAP1 SWAP2 KECCAK256 ADD SLOAD PUSH1 0x1 PUSH1 0x1 PUSH1 0xA0 SHL SUB AND EQ DUP1 ISZERO SWAP1 PUSH2 0x3485 JUMPI POP DUP12 PUSH1 0x1 PUSH1 0x1 PUSH1 0xA0 SHL SUB AND PUSH1 0x14 DUP3 DUP2 SLOAD DUP2 LT PUSH2 0x346D JUMPI PUSH2 0x346D PUSH2 0x3E4C JUMP JUMPDEST PUSH1 0x0 SWAP2 DUP3 MSTORE PUSH1 0x20 SWAP1 SWAP2 KECCAK256 ADD SLOAD PUSH1 0x1 PUSH1 0x1 PUSH1 0xA0 SHL SUB AND EQ ISZERO JUMPDEST ISZERO PUSH2 0x364F JUMPI PUSH2 0x34D0 DUP3 PUSH1 0x1 PUSH1 0x0 PUSH1 0x14 DUP6 DUP2 SLOAD DUP2 LT PUSH2 0x34A5 JUMPI PUSH2 0x34A5 PUSH2 0x3E4C JUMP JUMPDEST PUSH1 0x0 SWAP2 DUP3 MSTORE PUSH1 0x20 DUP1 DUP4 KECCAK256 SWAP1 SWAP2 ADD SLOAD PUSH1 0x1 PUSH1 0x1 PUSH1 0xA0 SHL SUB AND DUP4 MSTORE DUP3 ADD SWAP3 SWAP1 SWAP3 MSTORE PUSH1 0x40 ADD SWAP1 KECCAK256 SLOAD SWAP1 PUSH2 0x371C JUMP JUMPDEST PUSH1 0x1 PUSH1 0x0 PUSH1 0x14 DUP5 DUP2 SLOAD DUP2 LT PUSH2 0x34E7 JUMPI PUSH2 0x34E7 PUSH2 0x3E4C JUMP JUMPDEST PUSH1 0x0 SWAP2 DUP3 MSTORE PUSH1 0x20 DUP1 DUP4 KECCAK256 SWAP1 SWAP2 ADD SLOAD PUSH1 0x1 PUSH1 0x1 PUSH1 0xA0 SHL SUB AND DUP4 MSTORE DUP3 ADD SWAP3 SWAP1 SWAP3 MSTORE PUSH1 0x40 ADD SWAP1 KECCAK256 SSTORE PUSH1 0x14 DUP1 SLOAD DUP3 SWAP1 DUP2 LT PUSH2 0x3520 JUMPI PUSH2 0x3520 PUSH2 0x3E4C JUMP JUMPDEST PUSH1 0x0 SWAP2 DUP3 MSTORE PUSH1 0x20 SWAP1 SWAP2 KECCAK256 ADD SLOAD PUSH1 0x40 MLOAD PUSH1 0x1 PUSH1 0x1 PUSH1 0xA0 SHL SUB SWAP2 DUP3 AND SWAP2 DUP16 AND SWAP1 PUSH1 0x0 DUP1 MLOAD PUSH1 0x20 PUSH2 0x3EAE DUP4 CODECOPY DUP2 MLOAD SWAP2 MSTORE SWAP1 PUSH2 0x355B SWAP1 DUP7 DUP2 MSTORE PUSH1 0x20 ADD SWAP1 JUMP JUMPDEST PUSH1 0x40 MLOAD DUP1 SWAP2 SUB SWAP1 LOG3 PUSH2 0x356D DUP11 DUP4 PUSH2 0x3709 JUMP JUMPDEST SWAP10 POP PUSH2 0x35B6 PUSH1 0x1 PUSH1 0x11 PUSH1 0x0 PUSH1 0x14 DUP6 DUP2 SLOAD DUP2 LT PUSH2 0x358B JUMPI PUSH2 0x358B PUSH2 0x3E4C JUMP JUMPDEST PUSH1 0x0 SWAP2 DUP3 MSTORE PUSH1 0x20 DUP1 DUP4 KECCAK256 SWAP1 SWAP2 ADD SLOAD PUSH1 0x1 PUSH1 0x1 PUSH1 0xA0 SHL SUB AND DUP4 MSTORE DUP3 ADD SWAP3 SWAP1 SWAP3 MSTORE PUSH1 0x40 ADD SWAP1 KECCAK256 SLOAD SWAP1 PUSH2 0x3709 JUMP JUMPDEST PUSH1 0x11 PUSH1 0x0 PUSH1 0x14 DUP5 DUP2 SLOAD DUP2 LT PUSH2 0x35CD JUMPI PUSH2 0x35CD PUSH2 0x3E4C JUMP JUMPDEST PUSH1 0x0 SWAP2 DUP3 MSTORE PUSH1 0x20 DUP1 DUP4 KECCAK256 SWAP1 SWAP2 ADD SLOAD PUSH1 0x1 PUSH1 0x1 PUSH1 0xA0 SHL SUB AND DUP4 MSTORE DUP3 ADD SWAP3 SWAP1 SWAP3 MSTORE PUSH1 0x40 ADD DUP2 KECCAK256 SWAP2 SWAP1 SWAP2 SSTORE PUSH1 0x14 DUP1 SLOAD PUSH2 0x3612 SWAP3 DUP6 SWAP3 PUSH1 0x12 SWAP3 DUP7 SWAP1 DUP2 LT PUSH2 0x34A5 JUMPI PUSH2 0x34A5 PUSH2 0x3E4C JUMP JUMPDEST PUSH1 0x12 PUSH1 0x0 PUSH1 0x14 DUP5 DUP2 SLOAD DUP2 LT PUSH2 0x3629 JUMPI PUSH2 0x3629 PUSH2 0x3E4C JUMP JUMPDEST PUSH1 0x0 SWAP2 DUP3 MSTORE PUSH1 0x20 DUP1 DUP4 KECCAK256 SWAP1 SWAP2 ADD SLOAD PUSH1 0x1 PUSH1 0x1 PUSH1 0xA0 SHL SUB AND DUP4 MSTORE DUP3 ADD SWAP3 SWAP1 SWAP3 MSTORE PUSH1 0x40 ADD SWAP1 KECCAK256 SSTORE JUMPDEST DUP1 PUSH2 0x3659 DUP2 PUSH2 0x3E1B JUMP JUMPDEST SWAP2 POP POP PUSH2 0x33C9 JUMP JUMPDEST POP POP JUMPDEST POP JUMPDEST POP JUMPDEST PUSH1 0x1 PUSH1 0x1 PUSH1 0xA0 SHL SUB DUP9 AND PUSH1 0x0 SWAP1 DUP2 MSTORE PUSH1 0x1 PUSH1 0x20 MSTORE PUSH1 0x40 SWAP1 KECCAK256 SLOAD PUSH2 0x368B SWAP1 DUP8 PUSH2 0x371C JUMP JUMPDEST PUSH1 0x1 PUSH1 0x1 PUSH1 0xA0 SHL SUB DUP1 DUP11 AND PUSH1 0x0 SWAP1 DUP2 MSTORE PUSH1 0x1 PUSH1 0x20 MSTORE PUSH1 0x40 DUP1 DUP3 KECCAK256 SWAP4 SWAP1 SWAP4 SSTORE SWAP1 DUP12 AND DUP2 MSTORE KECCAK256 SLOAD PUSH2 0x36BA SWAP1 DUP9 PUSH2 0x3709 JUMP JUMPDEST PUSH1 0x1 PUSH1 0x1 PUSH1 0xA0 SHL SUB DUP11 DUP2 AND PUSH1 0x0 DUP2 DUP2 MSTORE PUSH1 0x1 PUSH1 0x20 SWAP1 DUP2 MSTORE PUSH1 0x40 SWAP2 DUP3 SWAP1 KECCAK256 SWAP5 SWAP1 SWAP5 SSTORE MLOAD DUP10 DUP2 MSTORE SWAP2 DUP12 AND SWAP3 SWAP1 SWAP2 PUSH1 0x0 DUP1 MLOAD PUSH1 0x20 PUSH2 0x3EAE DUP4 CODECOPY DUP2 MLOAD SWAP2 MSTORE SWAP2 ADD PUSH1 0x40 MLOAD DUP1 SWAP2 SUB SWAP1 LOG3 POP POP POP POP POP POP POP POP POP JUMP JUMPDEST PUSH1 0x0 PUSH2 0x3715 DUP3 DUP5 PUSH2 0x3DC9 JUMP JUMPDEST SWAP4 SWAP3 POP POP POP JUMP JUMPDEST PUSH1 0x0 PUSH2 0x3715 DUP3 DUP5 PUSH2 0x3D70 JUMP JUMPDEST PUSH1 0x0 DUP1 SLOAD PUSH1 0x1 PUSH1 0x1 PUSH1 0xA0 SHL SUB DUP4 DUP2 AND PUSH1 0x1 PUSH1 0x1 PUSH1 0xA0 SHL SUB NOT DUP4 AND DUP2 OR DUP5 SSTORE PUSH1 0x40 MLOAD SWAP2 SWAP1 SWAP3 AND SWAP3 DUP4 SWAP2 PUSH32 0x8BE0079C531659141344CD1FD0A4F28419497F9722A3DAAFE3B4186F6B6457E0 SWAP2 SWAP1 LOG3 POP POP JUMP JUMPDEST PUSH1 0x0 PUSH2 0x3715 DUP3 DUP5 PUSH2 0x3D88 JUMP JUMPDEST PUSH1 0x0 PUSH2 0x3715 DUP3 DUP5 PUSH2 0x3DAA JUMP JUMPDEST PUSH1 0x40 DUP1 MLOAD PUSH1 0x2 DUP1 DUP3 MSTORE PUSH1 0x60 DUP3 ADD DUP4 MSTORE PUSH1 0x0 SWAP3 PUSH1 0x20 DUP4 ADD SWAP1 DUP1 CALLDATASIZE DUP4 CALLDATACOPY ADD SWAP1 POP POP SWAP1 POP ADDRESS DUP2 PUSH1 0x0 DUP2 MLOAD DUP2 LT PUSH2 0x37C5 JUMPI PUSH2 0x37C5 PUSH2 0x3E4C JUMP JUMPDEST PUSH1 0x20 MUL PUSH1 0x20 ADD ADD SWAP1 PUSH1 0x1 PUSH1 0x1 PUSH1 0xA0 SHL SUB AND SWAP1 DUP2 PUSH1 0x1 PUSH1 0x1 PUSH1 0xA0 SHL SUB AND DUP2 MSTORE POP POP PUSH32 0x0 PUSH1 0x1 PUSH1 0x1 PUSH1 0xA0 SHL SUB AND PUSH4 0xAD5C4648 PUSH1 0x40 MLOAD DUP2 PUSH4 0xFFFFFFFF AND PUSH1 0xE0 SHL DUP2 MSTORE PUSH1 0x4 ADD PUSH1 0x20 PUSH1 0x40 MLOAD DUP1 DUP4 SUB DUP2 DUP7 DUP1 EXTCODESIZE ISZERO DUP1 ISZERO PUSH2 0x383E JUMPI PUSH1 0x0 DUP1 REVERT JUMPDEST POP GAS STATICCALL ISZERO DUP1 ISZERO PUSH2 0x3852 JUMPI RETURNDATASIZE PUSH1 0x0 DUP1 RETURNDATACOPY RETURNDATASIZE PUSH1 0x0 REVERT JUMPDEST POP POP POP POP PUSH1 0x40 MLOAD RETURNDATASIZE PUSH1 0x1F NOT PUSH1 0x1F DUP3 ADD AND DUP3 ADD DUP1 PUSH1 0x40 MSTORE POP DUP2 ADD SWAP1 PUSH2 0x3876 SWAP2 SWAP1 PUSH2 0x3A2F JUMP JUMPDEST DUP2 PUSH1 0x1 DUP2 MLOAD DUP2 LT PUSH2 0x3889 JUMPI PUSH2 0x3889 PUSH2 0x3E4C JUMP JUMPDEST PUSH1 0x20 MUL PUSH1 0x20 ADD ADD SWAP1 PUSH1 0x1 PUSH1 0x1 PUSH1 0xA0 SHL SUB AND SWAP1 DUP2 PUSH1 0x1 PUSH1 0x1 PUSH1 0xA0 SHL SUB AND DUP2 MSTORE POP POP PUSH2 0x38D4 ADDRESS PUSH32 0x0 DUP6 PUSH2 0x25AF JUMP JUMPDEST PUSH2 0x38FF DUP3 PUSH32 0x0 DUP6 PUSH2 0x25AF JUMP JUMPDEST PUSH1 0x40 MLOAD PUSH4 0x791AC947 PUSH1 0xE0 SHL DUP2 MSTORE PUSH1 0x1 PUSH1 0x1 PUSH1 0xA0 SHL SUB PUSH32 0x0 AND SWAP1 PUSH4 0x791AC947 SWAP1 PUSH2 0x3954 SWAP1 DUP7 SWAP1 PUSH1 0x0 SWAP1 DUP7 SWAP1 DUP9 SWAP1 TIMESTAMP SWAP1 PUSH1 0x4 ADD PUSH2 0x3D34 JUMP JUMPDEST PUSH1 0x0 PUSH1 0x40 MLOAD DUP1 DUP4 SUB DUP2 PUSH1 0x0 DUP8 DUP1 EXTCODESIZE ISZERO DUP1 ISZERO PUSH2 0x396E JUMPI PUSH1 0x0 DUP1 REVERT JUMPDEST POP GAS CALL ISZERO DUP1 ISZERO PUSH2 0x3982 JUMPI RETURNDATASIZE PUSH1 0x0 DUP1 RETURNDATACOPY RETURNDATASIZE PUSH1 0x0 REVERT JUMPDEST POP POP POP POP PUSH32 0x32CDE87EB454F3A0B875AB23547023107CFAD454363EC88BA5695E2C24AA52A7 DUP4 DUP3 PUSH1 0x40 MLOAD PUSH2 0x39B7 SWAP3 SWAP2 SWAP1 PUSH2 0x3D13 JUMP JUMPDEST PUSH1 0x40 MLOAD DUP1 SWAP2 SUB SWAP1 LOG1 POP POP PUSH1 0x28 DUP1 SLOAD PUSH3 0xFF0000 NOT AND SWAP1 SSTORE POP JUMP JUMPDEST POP DUP1 SLOAD PUSH1 0x0 DUP3 SSTORE SWAP1 PUSH1 0x0 MSTORE PUSH1 0x20 PUSH1 0x0 KECCAK256 SWAP1 DUP2 ADD SWAP1 PUSH2 0x257D SWAP2 SWAP1 JUMPDEST DUP1 DUP3 GT ISZERO PUSH2 0x39FE JUMPI PUSH1 0x0 DUP2 SSTORE PUSH1 0x1 ADD PUSH2 0x39EA JUMP JUMPDEST POP SWAP1 JUMP JUMPDEST DUP1 CALLDATALOAD PUSH2 0x3A0D DUP2 PUSH2 0x3E78 JUMP JUMPDEST SWAP2 SWAP1 POP JUMP JUMPDEST PUSH1 0x0 PUSH1 0x20 DUP3 DUP5 SUB SLT ISZERO PUSH2 0x3A24 JUMPI PUSH1 0x0 DUP1 REVERT JUMPDEST DUP2 CALLDATALOAD PUSH2 0x3715 DUP2 PUSH2 0x3E78 JUMP JUMPDEST PUSH1 0x0 PUSH1 0x20 DUP3 DUP5 SUB SLT ISZERO PUSH2 0x3A41 JUMPI PUSH1 0x0 DUP1 REVERT JUMPDEST DUP2 MLOAD PUSH2 0x3715 DUP2 PUSH2 0x3E78 JUMP JUMPDEST PUSH1 0x0 DUP1 PUSH1 0x40 DUP4 DUP6 SUB SLT ISZERO PUSH2 0x3A5F JUMPI PUSH1 0x0 DUP1 REVERT JUMPDEST DUP3 CALLDATALOAD PUSH2 0x3A6A DUP2 PUSH2 0x3E78 JUMP JUMPDEST SWAP2 POP PUSH1 0x20 DUP4 ADD CALLDATALOAD PUSH2 0x3A7A DUP2 PUSH2 0x3E78 JUMP JUMPDEST DUP1 SWAP2 POP POP SWAP3 POP SWAP3 SWAP1 POP JUMP JUMPDEST PUSH1 0x0 DUP1 PUSH1 0x0 PUSH1 0x60 DUP5 DUP7 SUB SLT ISZERO PUSH2 0x3A9A JUMPI PUSH1 0x0 DUP1 REVERT JUMPDEST DUP4 CALLDATALOAD PUSH2 0x3AA5 DUP2 PUSH2 0x3E78 JUMP JUMPDEST SWAP3 POP PUSH1 0x20 DUP5 ADD CALLDATALOAD PUSH2 0x3AB5 DUP2 PUSH2 0x3E78 JUMP JUMPDEST SWAP3 SWAP6 SWAP3 SWAP5 POP POP POP PUSH1 0x40 SWAP2 SWAP1 SWAP2 ADD CALLDATALOAD SWAP1 JUMP JUMPDEST PUSH1 0x0 DUP1 PUSH1 0x40 DUP4 DUP6 SUB SLT ISZERO PUSH2 0x3AD9 JUMPI PUSH1 0x0 DUP1 REVERT JUMPDEST DUP3 CALLDATALOAD PUSH2 0x3AE4 DUP2 PUSH2 0x3E78 JUMP JUMPDEST SWAP5 PUSH1 0x20 SWAP4 SWAP1 SWAP4 ADD CALLDATALOAD SWAP4 POP POP POP JUMP JUMPDEST PUSH1 0x0 DUP1 PUSH1 0x40 DUP4 DUP6 SUB SLT ISZERO PUSH2 0x3B05 JUMPI PUSH1 0x0 DUP1 REVERT JUMPDEST DUP3 CALLDATALOAD PUSH8 0xFFFFFFFFFFFFFFFF DUP1 DUP3 GT ISZERO PUSH2 0x3B1D JUMPI PUSH1 0x0 DUP1 REVERT JUMPDEST DUP2 DUP6 ADD SWAP2 POP DUP6 PUSH1 0x1F DUP4 ADD SLT PUSH2 0x3B31 JUMPI PUSH1 0x0 DUP1 REVERT JUMPDEST DUP2 CALLDATALOAD PUSH1 0x20 DUP3 DUP3 GT ISZERO PUSH2 0x3B45 JUMPI PUSH2 0x3B45 PUSH2 0x3E62 JUMP JUMPDEST DUP2 PUSH1 0x5 SHL PUSH1 0x40 MLOAD PUSH1 0x1F NOT PUSH1 0x3F DUP4 ADD AND DUP2 ADD DUP2 DUP2 LT DUP7 DUP3 GT OR ISZERO PUSH2 0x3B6A JUMPI PUSH2 0x3B6A PUSH2 0x3E62 JUMP JUMPDEST PUSH1 0x40 MSTORE DUP4 DUP2 MSTORE DUP3 DUP2 ADD SWAP5 POP DUP6 DUP4 ADD DUP3 DUP8 ADD DUP5 ADD DUP12 LT ISZERO PUSH2 0x3B89 JUMPI PUSH1 0x0 DUP1 REVERT JUMPDEST PUSH1 0x0 SWAP7 POP JUMPDEST DUP5 DUP8 LT ISZERO PUSH2 0x3BB3 JUMPI PUSH2 0x3B9F DUP2 PUSH2 0x3A02 JUMP JUMPDEST DUP7 MSTORE PUSH1 0x1 SWAP7 SWAP1 SWAP7 ADD SWAP6 SWAP5 DUP4 ADD SWAP5 DUP4 ADD PUSH2 0x3B8E JUMP JUMPDEST POP SWAP10 SWAP8 SWAP1 SWAP2 ADD CALLDATALOAD SWAP8 POP POP POP POP POP POP POP JUMP JUMPDEST PUSH1 0x0 PUSH1 0x20 DUP3 DUP5 SUB SLT ISZERO PUSH2 0x3BD6 JUMPI PUSH1 0x0 DUP1 REVERT JUMPDEST DUP2 CALLDATALOAD DUP1 ISZERO ISZERO DUP2 EQ PUSH2 0x3715 JUMPI PUSH1 0x0 DUP1 REVERT JUMPDEST PUSH1 0x0 PUSH1 0x20 DUP3 DUP5 SUB SLT ISZERO PUSH2 0x3BF8 JUMPI PUSH1 0x0 DUP1 REVERT JUMPDEST POP CALLDATALOAD SWAP2 SWAP1 POP JUMP JUMPDEST PUSH1 0x0 DUP2 MLOAD DUP1 DUP5 MSTORE PUSH1 0x20 DUP1 DUP6 ADD SWAP5 POP DUP1 DUP5 ADD PUSH1 0x0 JUMPDEST DUP4 DUP2 LT ISZERO PUSH2 0x3C38 JUMPI DUP2 MLOAD PUSH1 0x1 PUSH1 0x1 PUSH1 0xA0 SHL SUB AND DUP8 MSTORE SWAP6 DUP3 ADD SWAP6 SWAP1 DUP3 ADD SWAP1 PUSH1 0x1 ADD PUSH2 0x3C13 JUMP JUMPDEST POP SWAP5 SWAP6 SWAP5 POP POP POP POP POP JUMP JUMPDEST PUSH1 0x0 PUSH1 0x20 DUP1 DUP4 MSTORE DUP4 MLOAD DUP1 DUP3 DUP6 ADD MSTORE PUSH1 0x0 JUMPDEST DUP2 DUP2 LT ISZERO PUSH2 0x3C70 JUMPI DUP6 DUP2 ADD DUP4 ADD MLOAD DUP6 DUP3 ADD PUSH1 0x40 ADD MSTORE DUP3 ADD PUSH2 0x3C54 JUMP JUMPDEST DUP2 DUP2 GT ISZERO PUSH2 0x3C82 JUMPI PUSH1 0x0 PUSH1 0x40 DUP4 DUP8 ADD ADD MSTORE JUMPDEST POP PUSH1 0x1F ADD PUSH1 0x1F NOT AND SWAP3 SWAP1 SWAP3 ADD PUSH1 0x40 ADD SWAP4 SWAP3 POP POP POP JUMP JUMPDEST PUSH1 0x20 DUP1 DUP3 MSTORE PUSH1 0x26 SWAP1 DUP3 ADD MSTORE PUSH32 0x57616C6C657420776F756C642065786365656420746865206D617857616C6C65 PUSH1 0x40 DUP3 ADD MSTORE PUSH6 0x3A29B4BD3297 PUSH1 0xD1 SHL PUSH1 0x60 DUP3 ADD MSTORE PUSH1 0x80 ADD SWAP1 JUMP JUMPDEST PUSH1 0x20 DUP1 DUP3 MSTORE DUP2 DUP2 ADD MSTORE PUSH32 0x4F776E61626C653A2063616C6C6572206973206E6F7420746865206F776E6572 PUSH1 0x40 DUP3 ADD MSTORE PUSH1 0x60 ADD SWAP1 JUMP JUMPDEST DUP3 DUP2 MSTORE PUSH1 0x40 PUSH1 0x20 DUP3 ADD MSTORE PUSH1 0x0 PUSH2 0x3D2C PUSH1 0x40 DUP4 ADD DUP5 PUSH2 0x3BFF JUMP JUMPDEST SWAP5 SWAP4 POP POP POP POP JUMP JUMPDEST DUP6 DUP2 MSTORE DUP5 PUSH1 0x20 DUP3 ADD MSTORE PUSH1 0xA0 PUSH1 0x40 DUP3 ADD MSTORE PUSH1 0x0 PUSH2 0x3D53 PUSH1 0xA0 DUP4 ADD DUP7 PUSH2 0x3BFF JUMP JUMPDEST PUSH1 0x1 PUSH1 0x1 PUSH1 0xA0 SHL SUB SWAP5 SWAP1 SWAP5 AND PUSH1 0x60 DUP4 ADD MSTORE POP PUSH1 0x80 ADD MSTORE SWAP4 SWAP3 POP POP POP JUMP JUMPDEST PUSH1 0x0 DUP3 NOT DUP3 GT ISZERO PUSH2 0x3D83 JUMPI PUSH2 0x3D83 PUSH2 0x3E36 JUMP JUMPDEST POP ADD SWAP1 JUMP JUMPDEST PUSH1 0x0 DUP3 PUSH2 0x3DA5 JUMPI PUSH4 0x4E487B71 PUSH1 0xE0 SHL PUSH1 0x0 MSTORE PUSH1 0x12 PUSH1 0x4 MSTORE PUSH1 0x24 PUSH1 0x0 REVERT JUMPDEST POP DIV SWAP1 JUMP JUMPDEST PUSH1 0x0 DUP2 PUSH1 0x0 NOT DIV DUP4 GT DUP3 ISZERO ISZERO AND ISZERO PUSH2 0x3DC4 JUMPI PUSH2 0x3DC4 PUSH2 0x3E36 JUMP JUMPDEST POP MUL SWAP1 JUMP JUMPDEST PUSH1 0x0 DUP3 DUP3 LT ISZERO PUSH2 0x3DDB JUMPI PUSH2 0x3DDB PUSH2 0x3E36 JUMP JUMPDEST POP SUB SWAP1 JUMP JUMPDEST PUSH1 0x1 DUP2 DUP2 SHR SWAP1 DUP3 AND DUP1 PUSH2 0x3DF4 JUMPI PUSH1 0x7F DUP3 AND SWAP2 POP JUMPDEST PUSH1 0x20 DUP3 LT DUP2 EQ ISZERO PUSH2 0x3E15 JUMPI PUSH4 0x4E487B71 PUSH1 0xE0 SHL PUSH1 0x0 MSTORE PUSH1 0x22 PUSH1 0x4 MSTORE PUSH1 0x24 PUSH1 0x0 REVERT JUMPDEST POP SWAP2 SWAP1 POP JUMP JUMPDEST PUSH1 0x0 PUSH1 0x0 NOT DUP3 EQ ISZERO PUSH2 0x3E2F JUMPI PUSH2 0x3E2F PUSH2 0x3E36 JUMP JUMPDEST POP PUSH1 0x1 ADD SWAP1 JUMP JUMPDEST PUSH4 0x4E487B71 PUSH1 0xE0 SHL PUSH1 0x0 MSTORE PUSH1 0x11 PUSH1 0x4 MSTORE PUSH1 0x24 PUSH1 0x0 REVERT JUMPDEST PUSH4 0x4E487B71 PUSH1 0xE0 SHL PUSH1 0x0 MSTORE PUSH1 0x32 PUSH1 0x4 MSTORE PUSH1 0x24 PUSH1 0x0 REVERT JUMPDEST PUSH4 0x4E487B71 PUSH1 0xE0 SHL PUSH1 0x0 MSTORE PUSH1 0x41 PUSH1 0x4 MSTORE PUSH1 0x24 PUSH1 0x0 REVERT JUMPDEST PUSH1 0x1 PUSH1 0x1 PUSH1 0xA0 SHL SUB DUP2 AND DUP2 EQ PUSH2 0x257D JUMPI PUSH1 0x0 DUP1 REVERT INVALID 0xB3 TIMESTAMP MULMOD LOG2 PUSH4 0xF6C38FE5 0x5F MULMOD SWAP15 SWAP15 PUSH17 0xF9D67E93982480FF3234A5E0108028AD16 0x4D 0xDD CALLCODE MSTORE 0xAD SHL 0xE2 0xC8 SWAP12 PUSH10 0xC2B068FC378DAA952BA7 CALL PUSH4 0xC4A11628 CREATE2 GAS 0x4D CREATE2 0x23 0xB3 0xEF LOG2 PUSH5 0x6970667358 0x22 SLT KECCAK256 DUP8 0xFC 0xB8 0x5C DUP10 DUP3 NUMBER 0xD8 SWAP10 SWAP6 CALLDATALOAD PUSH8 0xAEE3D759C8DC00C8 0x28 PUSH1 0x6E 0x25 0xEC SDIV PUSH11 0x79E5F6ACD364736F6C6343 STOP ADDMOD SMOD STOP CALLER "
		},
		"gasEstimates": {
			"creation": {
				"codeDepositCost": "3226200",
				"executionCost": "infinite",
				"totalCost": "infinite"
			},
			"external": {
				"_routerAddress()": "2393",
				"_supplyTotal()": "329",
				"addMaxWalletExempt(address)": "26856",
				"addNFTCredits(address[],uint256)": "infinite",
				"addTaxExempt(address)": "29091",
				"addTaxFreeBuyCredits(address[],uint256)": "infinite",
				"addWalletPayoutCount(address[],uint256)": "infinite",
				"addressOfNFT()": "2418",
				"addressOfNFT2()": "2504",
				"addressOfNFT3()": "2482",
				"allowance(address,address)": "infinite",
				"approve(address,uint256)": "24659",
				"balanceOf(address)": "2620",
				"burnTaxB()": "2385",
				"burnTaxS()": "2429",
				"burnTaxT()": "2363",
				"changeBurnOnBuy(uint256)": "24555",
				"changeBurnOnSell(uint256)": "24576",
				"changeBurnOnTransfer(uint256)": "24642",
				"changeClubEntryPrice(uint256)": "24619",
				"changeClubPayout(uint256)": "24618",
				"changeClubTaxOnBuy(uint256)": "24621",
				"changeClubTaxOnSell(uint256)": "24553",
				"changeClubTaxOnTransfer(uint256)": "24641",
				"changeLiqOnBuy(uint256)": "24619",
				"changeLiqOnSell(uint256)": "24555",
				"changeLiqOnTransfer(uint256)": "24620",
				"changeLiqSwapAt(uint256)": "24531",
				"changeLiqWallet(address)": "26839",
				"changeMaxTxPercent(uint256)": "24597",
				"changeMaxWalletSize(uint256)": "24597",
				"changeNFTAddress(address)": "26883",
				"changeNFTAddress2(address)": "26773",
				"changeNFTAddress3(address)": "26772",
				"changeRouterAddress(address)": "26863",
				"changeSwapOnBuy(bool)": "26738",
				"changeSwapOnSell(bool)": "26702",
				"changeTaxOnBuy(uint256)": "24600",
				"changeTaxOnSell(uint256)": "24552",
				"changeTaxOnTransfer(uint256)": "24576",
				"changeTaxSwapAt(uint256)": "24619",
				"changeTaxWallet(address)": "26838",
				"changeTaxesOnBuy(bool)": "26827",
				"changeTaxesOnSell(bool)": "26747",
				"changeTaxesOnTran(bool)": "26783",
				"clearClubList()": "infinite",
				"clubEntryPrice()": "2473",
				"clubList(uint256)": "4782",
				"clubPayout()": "2472",
				"clubTaxB()": "2472",
				"clubTaxS()": "2474",
				"clubTaxT()": "2406",
				"decimals()": "2445",
				"getClubPayoutCount(address)": "2687",
				"getClubPayoutTally(address)": "2600",
				"getNFTCredits(address)": "2599",
				"getTaxFreeBuyCredits(address)": "2665",
				"isMaxWalletExempt(address)": "2634",
				"isTaxExempt(address)": "2734",
				"liqCount()": "2408",
				"liqSwapAt()": "2471",
				"liqTaxB()": "2427",
				"liqTaxS()": "2452",
				"liqTaxT()": "2473",
				"liqWallet()": "2394",
				"maxTxPercent()": "2385",
				"maxWalletSize()": "2430",
				"name()": "infinite",
				"owner()": "2433",
				"removeMaxWalletExempt(address)": "26808",
				"removeTaxExempt(address)": "29038",
				"renounceOwnership()": "30418",
				"resetNFTCredits(address)": "7612",
				"resetTaxFreeBuyCredits(address)": "7613",
				"setWalletPayoutCount(address[],uint256)": "infinite",
				"swapForMint(address,uint256)": "infinite",
				"swapOnBuy()": "2433",
				"swapOnSell()": "2421",
				"symbol()": "infinite",
				"taxCount()": "2408",
				"taxSwapAt()": "2386",
				"taxTaxB()": "2406",
				"taxTaxS()": "2428",
				"taxTaxT()": "2407",
				"taxWallet()": "2416",
				"taxesOnBuy()": "2435",
				"taxesOnSell()": "2466",
				"taxesOnTran()": "2499",
				"totalSupply()": "250",
				"transfer(address,uint256)": "infinite",
				"transferFrom(address,address,uint256)": "infinite",
				"transferOwnership(address)": "infinite",
				"uniswapV2Pair()": "infinite",
				"uniswapV2Router()": "infinite",
				"withdrawContractBNB(address)": "infinite",
				"withdrawContractTokens(address,uint256)": "infinite"
			},
			"internal": {
				"_approve(address,address,uint256)": "infinite",
				"_transfer(address,address,uint256)": "infinite",
				"swapTokensForEth(uint256,address)": "infinite"
			}
		},
		"methodIdentifiers": {
			"_routerAddress()": "d9e66460",
			"_supplyTotal()": "c02556e9",
			"addMaxWalletExempt(address)": "bec385a0",
			"addNFTCredits(address[],uint256)": "9456a425",
			"addTaxExempt(address)": "66e670fe",
			"addTaxFreeBuyCredits(address[],uint256)": "d4f9a29e",
			"addWalletPayoutCount(address[],uint256)": "f2d9e6af",
			"addressOfNFT()": "00e5c668",
			"addressOfNFT2()": "6c17908d",
			"addressOfNFT3()": "c1b757cb",
			"allowance(address,address)": "dd62ed3e",
			"approve(address,uint256)": "095ea7b3",
			"balanceOf(address)": "70a08231",
			"burnTaxB()": "bafc98d4",
			"burnTaxS()": "30dabc04",
			"burnTaxT()": "9fc79cc5",
			"changeBurnOnBuy(uint256)": "8d50f375",
			"changeBurnOnSell(uint256)": "515069ba",
			"changeBurnOnTransfer(uint256)": "9a04f85e",
			"changeClubEntryPrice(uint256)": "b9ca882e",
			"changeClubPayout(uint256)": "f8ae7d99",
			"changeClubTaxOnBuy(uint256)": "8f9ad750",
			"changeClubTaxOnSell(uint256)": "b243a224",
			"changeClubTaxOnTransfer(uint256)": "ba09c102",
			"changeLiqOnBuy(uint256)": "ceda4a32",
			"changeLiqOnSell(uint256)": "1ae430a8",
			"changeLiqOnTransfer(uint256)": "53970c36",
			"changeLiqSwapAt(uint256)": "6ff42269",
			"changeLiqWallet(address)": "95de8ad4",
			"changeMaxTxPercent(uint256)": "72a6e526",
			"changeMaxWalletSize(uint256)": "b87f137a",
			"changeNFTAddress(address)": "340a76ef",
			"changeNFTAddress2(address)": "5f19e33c",
			"changeNFTAddress3(address)": "c623305f",
			"changeRouterAddress(address)": "04db6e68",
			"changeSwapOnBuy(bool)": "9471e30c",
			"changeSwapOnSell(bool)": "ba49bece",
			"changeTaxOnBuy(uint256)": "013e9f49",
			"changeTaxOnSell(uint256)": "f2eef73b",
			"changeTaxOnTransfer(uint256)": "a315a6ff",
			"changeTaxSwapAt(uint256)": "75cc1acf",
			"changeTaxWallet(address)": "cb711595",
			"changeTaxesOnBuy(bool)": "90e21ee0",
			"changeTaxesOnSell(bool)": "0dd277e6",
			"changeTaxesOnTran(bool)": "41eaf9c0",
			"clearClubList()": "0fd9094c",
			"clubEntryPrice()": "5e6e3b1e",
			"clubList(uint256)": "28758ce1",
			"clubPayout()": "e7037a22",
			"clubTaxB()": "789046b8",
			"clubTaxS()": "49d4ec6a",
			"clubTaxT()": "e1cc9a1c",
			"decimals()": "313ce567",
			"getClubPayoutCount(address)": "972f47e3",
			"getClubPayoutTally(address)": "83f43bf7",
			"getNFTCredits(address)": "2a4ce562",
			"getTaxFreeBuyCredits(address)": "a3e76207",
			"isMaxWalletExempt(address)": "0bd11f8a",
			"isTaxExempt(address)": "16c2be6b",
			"liqCount()": "3a9db6fe",
			"liqSwapAt()": "fcbb765b",
			"liqTaxB()": "f4405c18",
			"liqTaxS()": "26ff3e34",
			"liqTaxT()": "c28d16a6",
			"liqWallet()": "4ec39ba9",
			"maxTxPercent()": "62ab61a6",
			"maxWalletSize()": "8f3fa860",
			"name()": "06fdde03",
			"owner()": "8da5cb5b",
			"removeMaxWalletExempt(address)": "00c751e3",
			"removeTaxExempt(address)": "9ff0ebc9",
			"renounceOwnership()": "715018a6",
			"resetNFTCredits(address)": "c9e8ee34",
			"resetTaxFreeBuyCredits(address)": "4edea0f2",
			"setWalletPayoutCount(address[],uint256)": "aa9ad663",
			"swapForMint(address,uint256)": "3456e3eb",
			"swapOnBuy()": "2ec3d76d",
			"swapOnSell()": "ca9ab1f0",
			"symbol()": "95d89b41",
			"taxCount()": "1f7c85cc",
			"taxSwapAt()": "34946dbb",
			"taxTaxB()": "b345a710",
			"taxTaxS()": "e20d1503",
			"taxTaxT()": "647d2d85",
			"taxWallet()": "2dc0562d",
			"taxesOnBuy()": "010a1473",
			"taxesOnSell()": "67d98b96",
			"taxesOnTran()": "a9211d7f",
			"totalSupply()": "18160ddd",
			"transfer(address,uint256)": "a9059cbb",
			"transferFrom(address,address,uint256)": "23b872dd",
			"transferOwnership(address)": "f2fde38b",
			"uniswapV2Pair()": "49bd5a5e",
			"uniswapV2Router()": "1694505e",
			"withdrawContractBNB(address)": "e5eebf46",
			"withdrawContractTokens(address,uint256)": "521dbf65"
		}
	},
	"abi": [
		{
			"inputs": [],
			"stateMutability": "nonpayable",
			"type": "constructor"
		},
		{
			"anonymous": false,
			"inputs": [
				{
					"indexed": true,
					"internalType": "address",
					"name": "owner",
					"type": "address"
				},
				{
					"indexed": true,
					"internalType": "address",
					"name": "spender",
					"type": "address"
				},
				{
					"indexed": false,
					"internalType": "uint256",
					"name": "value",
					"type": "uint256"
				}
			],
			"name": "Approval",
			"type": "event"
		},
		{
			"anonymous": false,
			"inputs": [
				{
					"indexed": true,
					"internalType": "address",
					"name": "previousOwner",
					"type": "address"
				},
				{
					"indexed": true,
					"internalType": "address",
					"name": "newOwner",
					"type": "address"
				}
			],
			"name": "OwnershipTransferred",
			"type": "event"
		},
		{
			"anonymous": false,
			"inputs": [
				{
					"indexed": false,
					"internalType": "uint256",
					"name": "amountIn",
					"type": "uint256"
				},
				{
					"indexed": false,
					"internalType": "address[]",
					"name": "path",
					"type": "address[]"
				}
			],
			"name": "SwapTokensForETH",
			"type": "event"
		},
		{
			"anonymous": false,
			"inputs": [
				{
					"indexed": true,
					"internalType": "address",
					"name": "from",
					"type": "address"
				},
				{
					"indexed": true,
					"internalType": "address",
					"name": "to",
					"type": "address"
				},
				{
					"indexed": false,
					"internalType": "uint256",
					"name": "value",
					"type": "uint256"
				}
			],
			"name": "Transfer",
			"type": "event"
		},
		{
			"inputs": [],
			"name": "_routerAddress",
			"outputs": [
				{
					"internalType": "address",
					"name": "",
					"type": "address"
				}
			],
			"stateMutability": "view",
			"type": "function"
		},
		{
			"inputs": [],
			"name": "_supplyTotal",
			"outputs": [
				{
					"internalType": "uint256",
					"name": "",
					"type": "uint256"
				}
			],
			"stateMutability": "view",
			"type": "function"
		},
		{
			"inputs": [
				{
					"internalType": "address",
					"name": "account",
					"type": "address"
				}
			],
			"name": "addMaxWalletExempt",
			"outputs": [],
			"stateMutability": "nonpayable",
			"type": "function"
		},
		{
			"inputs": [
				{
					"internalType": "address[]",
					"name": "accounts",
					"type": "address[]"
				},
				{
					"internalType": "uint256",
					"name": "creditsToAdd",
					"type": "uint256"
				}
			],
			"name": "addNFTCredits",
			"outputs": [],
			"stateMutability": "nonpayable",
			"type": "function"
		},
		{
			"inputs": [
				{
					"internalType": "address",
					"name": "account",
					"type": "address"
				}
			],
			"name": "addTaxExempt",
			"outputs": [],
			"stateMutability": "nonpayable",
			"type": "function"
		},
		{
			"inputs": [
				{
					"internalType": "address[]",
					"name": "accounts",
					"type": "address[]"
				},
				{
					"internalType": "uint256",
					"name": "taxFreeBuyCredits",
					"type": "uint256"
				}
			],
			"name": "addTaxFreeBuyCredits",
			"outputs": [],
			"stateMutability": "nonpayable",
			"type": "function"
		},
		{
			"inputs": [
				{
					"internalType": "address[]",
					"name": "accounts",
					"type": "address[]"
				},
				{
					"internalType": "uint256",
					"name": "payoutsToAdd",
					"type": "uint256"
				}
			],
			"name": "addWalletPayoutCount",
			"outputs": [],
			"stateMutability": "nonpayable",
			"type": "function"
		},
		{
			"inputs": [],
			"name": "addressOfNFT",
			"outputs": [
				{
					"internalType": "address",
					"name": "",
					"type": "address"
				}
			],
			"stateMutability": "view",
			"type": "function"
		},
		{
			"inputs": [],
			"name": "addressOfNFT2",
			"outputs": [
				{
					"internalType": "address",
					"name": "",
					"type": "address"
				}
			],
			"stateMutability": "view",
			"type": "function"
		},
		{
			"inputs": [],
			"name": "addressOfNFT3",
			"outputs": [
				{
					"internalType": "address",
					"name": "",
					"type": "address"
				}
			],
			"stateMutability": "view",
			"type": "function"
		},
		{
			"inputs": [
				{
					"internalType": "address",
					"name": "owner",
					"type": "address"
				},
				{
					"internalType": "address",
					"name": "spender",
					"type": "address"
				}
			],
			"name": "allowance",
			"outputs": [
				{
					"internalType": "uint256",
					"name": "",
					"type": "uint256"
				}
			],
			"stateMutability": "view",
			"type": "function"
		},
		{
			"inputs": [
				{
					"internalType": "address",
					"name": "spender",
					"type": "address"
				},
				{
					"internalType": "uint256",
					"name": "amount",
					"type": "uint256"
				}
			],
			"name": "approve",
			"outputs": [
				{
					"internalType": "bool",
					"name": "",
					"type": "bool"
				}
			],
			"stateMutability": "nonpayable",
			"type": "function"
		},
		{
			"inputs": [
				{
					"internalType": "address",
					"name": "account",
					"type": "address"
				}
			],
			"name": "balanceOf",
			"outputs": [
				{
					"internalType": "uint256",
					"name": "",
					"type": "uint256"
				}
			],
			"stateMutability": "view",
			"type": "function"
		},
		{
			"inputs": [],
			"name": "burnTaxB",
			"outputs": [
				{
					"internalType": "uint256",
					"name": "",
					"type": "uint256"
				}
			],
			"stateMutability": "view",
			"type": "function"
		},
		{
			"inputs": [],
			"name": "burnTaxS",
			"outputs": [
				{
					"internalType": "uint256",
					"name": "",
					"type": "uint256"
				}
			],
			"stateMutability": "view",
			"type": "function"
		},
		{
			"inputs": [],
			"name": "burnTaxT",
			"outputs": [
				{
					"internalType": "uint256",
					"name": "",
					"type": "uint256"
				}
			],
			"stateMutability": "view",
			"type": "function"
		},
		{
			"inputs": [
				{
					"internalType": "uint256",
					"name": "newBurnTax",
					"type": "uint256"
				}
			],
			"name": "changeBurnOnBuy",
			"outputs": [],
			"stateMutability": "nonpayable",
			"type": "function"
		},
		{
			"inputs": [
				{
					"internalType": "uint256",
					"name": "newBurnTax",
					"type": "uint256"
				}
			],
			"name": "changeBurnOnSell",
			"outputs": [],
			"stateMutability": "nonpayable",
			"type": "function"
		},
		{
			"inputs": [
				{
					"internalType": "uint256",
					"name": "newBurnTax",
					"type": "uint256"
				}
			],
			"name": "changeBurnOnTransfer",
			"outputs": [],
			"stateMutability": "nonpayable",
			"type": "function"
		},
		{
			"inputs": [
				{
					"internalType": "uint256",
					"name": "newPrice",
					"type": "uint256"
				}
			],
			"name": "changeClubEntryPrice",
			"outputs": [],
			"stateMutability": "nonpayable",
			"type": "function"
		},
		{
			"inputs": [
				{
					"internalType": "uint256",
					"name": "newPayout",
					"type": "uint256"
				}
			],
			"name": "changeClubPayout",
			"outputs": [],
			"stateMutability": "nonpayable",
			"type": "function"
		},
		{
			"inputs": [
				{
					"internalType": "uint256",
					"name": "newClubTax",
					"type": "uint256"
				}
			],
			"name": "changeClubTaxOnBuy",
			"outputs": [],
			"stateMutability": "nonpayable",
			"type": "function"
		},
		{
			"inputs": [
				{
					"internalType": "uint256",
					"name": "newClubTax",
					"type": "uint256"
				}
			],
			"name": "changeClubTaxOnSell",
			"outputs": [],
			"stateMutability": "nonpayable",
			"type": "function"
		},
		{
			"inputs": [
				{
					"internalType": "uint256",
					"name": "newClubTax",
					"type": "uint256"
				}
			],
			"name": "changeClubTaxOnTransfer",
			"outputs": [],
			"stateMutability": "nonpayable",
			"type": "function"
		},
		{
			"inputs": [
				{
					"internalType": "uint256",
					"name": "newLiqTax",
					"type": "uint256"
				}
			],
			"name": "changeLiqOnBuy",
			"outputs": [],
			"stateMutability": "nonpayable",
			"type": "function"
		},
		{
			"inputs": [
				{
					"internalType": "uint256",
					"name": "newLiqTax",
					"type": "uint256"
				}
			],
			"name": "changeLiqOnSell",
			"outputs": [],
			"stateMutability": "nonpayable",
			"type": "function"
		},
		{
			"inputs": [
				{
					"internalType": "uint256",
					"name": "newLiqTax",
					"type": "uint256"
				}
			],
			"name": "changeLiqOnTransfer",
			"outputs": [],
			"stateMutability": "nonpayable",
			"type": "function"
		},
		{
			"inputs": [
				{
					"internalType": "uint256",
					"name": "newLiqSwapAt",
					"type": "uint256"
				}
			],
			"name": "changeLiqSwapAt",
			"outputs": [],
			"stateMutability": "nonpayable",
			"type": "function"
		},
		{
			"inputs": [
				{
					"internalType": "address payable",
					"name": "newLiqWallet",
					"type": "address"
				}
			],
			"name": "changeLiqWallet",
			"outputs": [],
			"stateMutability": "nonpayable",
			"type": "function"
		},
		{
			"inputs": [
				{
					"internalType": "uint256",
					"name": "newMaxTxPercent",
					"type": "uint256"
				}
			],
			"name": "changeMaxTxPercent",
			"outputs": [],
			"stateMutability": "nonpayable",
			"type": "function"
		},
		{
			"inputs": [
				{
					"internalType": "uint256",
					"name": "newMaxWalletSize",
					"type": "uint256"
				}
			],
			"name": "changeMaxWalletSize",
			"outputs": [],
			"stateMutability": "nonpayable",
			"type": "function"
		},
		{
			"inputs": [
				{
					"internalType": "address",
					"name": "newAddressOfNFT",
					"type": "address"
				}
			],
			"name": "changeNFTAddress",
			"outputs": [],
			"stateMutability": "nonpayable",
			"type": "function"
		},
		{
			"inputs": [
				{
					"internalType": "address",
					"name": "newAddressOfNFT",
					"type": "address"
				}
			],
			"name": "changeNFTAddress2",
			"outputs": [],
			"stateMutability": "nonpayable",
			"type": "function"
		},
		{
			"inputs": [
				{
					"internalType": "address",
					"name": "newAddressOfNFT",
					"type": "address"
				}
			],
			"name": "changeNFTAddress3",
			"outputs": [],
			"stateMutability": "nonpayable",
			"type": "function"
		},
		{
			"inputs": [
				{
					"internalType": "address",
					"name": "newRouterAddress",
					"type": "address"
				}
			],
			"name": "changeRouterAddress",
			"outputs": [],
			"stateMutability": "nonpayable",
			"type": "function"
		},
		{
			"inputs": [
				{
					"internalType": "bool",
					"name": "newSwapOnBuy",
					"type": "bool"
				}
			],
			"name": "changeSwapOnBuy",
			"outputs": [],
			"stateMutability": "nonpayable",
			"type": "function"
		},
		{
			"inputs": [
				{
					"internalType": "bool",
					"name": "newSwapOnSell",
					"type": "bool"
				}
			],
			"name": "changeSwapOnSell",
			"outputs": [],
			"stateMutability": "nonpayable",
			"type": "function"
		},
		{
			"inputs": [
				{
					"internalType": "uint256",
					"name": "newTax",
					"type": "uint256"
				}
			],
			"name": "changeTaxOnBuy",
			"outputs": [],
			"stateMutability": "nonpayable",
			"type": "function"
		},
		{
			"inputs": [
				{
					"internalType": "uint256",
					"name": "newTax",
					"type": "uint256"
				}
			],
			"name": "changeTaxOnSell",
			"outputs": [],
			"stateMutability": "nonpayable",
			"type": "function"
		},
		{
			"inputs": [
				{
					"internalType": "uint256",
					"name": "newTax",
					"type": "uint256"
				}
			],
			"name": "changeTaxOnTransfer",
			"outputs": [],
			"stateMutability": "nonpayable",
			"type": "function"
		},
		{
			"inputs": [
				{
					"internalType": "uint256",
					"name": "newTaxSwapAt",
					"type": "uint256"
				}
			],
			"name": "changeTaxSwapAt",
			"outputs": [],
			"stateMutability": "nonpayable",
			"type": "function"
		},
		{
			"inputs": [
				{
					"internalType": "address payable",
					"name": "newWallet",
					"type": "address"
				}
			],
			"name": "changeTaxWallet",
			"outputs": [],
			"stateMutability": "nonpayable",
			"type": "function"
		},
		{
			"inputs": [
				{
					"internalType": "bool",
					"name": "newTaxStatus",
					"type": "bool"
				}
			],
			"name": "changeTaxesOnBuy",
			"outputs": [],
			"stateMutability": "nonpayable",
			"type": "function"
		},
		{
			"inputs": [
				{
					"internalType": "bool",
					"name": "newTaxStatus",
					"type": "bool"
				}
			],
			"name": "changeTaxesOnSell",
			"outputs": [],
			"stateMutability": "nonpayable",
			"type": "function"
		},
		{
			"inputs": [
				{
					"internalType": "bool",
					"name": "newTaxStatus",
					"type": "bool"
				}
			],
			"name": "changeTaxesOnTran",
			"outputs": [],
			"stateMutability": "nonpayable",
			"type": "function"
		},
		{
			"inputs": [],
			"name": "clearClubList",
			"outputs": [],
			"stateMutability": "nonpayable",
			"type": "function"
		},
		{
			"inputs": [],
			"name": "clubEntryPrice",
			"outputs": [
				{
					"internalType": "uint256",
					"name": "",
					"type": "uint256"
				}
			],
			"stateMutability": "view",
			"type": "function"
		},
		{
			"inputs": [
				{
					"internalType": "uint256",
					"name": "",
					"type": "uint256"
				}
			],
			"name": "clubList",
			"outputs": [
				{
					"internalType": "address",
					"name": "",
					"type": "address"
				}
			],
			"stateMutability": "view",
			"type": "function"
		},
		{
			"inputs": [],
			"name": "clubPayout",
			"outputs": [
				{
					"internalType": "uint256",
					"name": "",
					"type": "uint256"
				}
			],
			"stateMutability": "view",
			"type": "function"
		},
		{
			"inputs": [],
			"name": "clubTaxB",
			"outputs": [
				{
					"internalType": "uint256",
					"name": "",
					"type": "uint256"
				}
			],
			"stateMutability": "view",
			"type": "function"
		},
		{
			"inputs": [],
			"name": "clubTaxS",
			"outputs": [
				{
					"internalType": "uint256",
					"name": "",
					"type": "uint256"
				}
			],
			"stateMutability": "view",
			"type": "function"
		},
		{
			"inputs": [],
			"name": "clubTaxT",
			"outputs": [
				{
					"internalType": "uint256",
					"name": "",
					"type": "uint256"
				}
			],
			"stateMutability": "view",
			"type": "function"
		},
		{
			"inputs": [],
			"name": "decimals",
			"outputs": [
				{
					"internalType": "uint8",
					"name": "",
					"type": "uint8"
				}
			],
			"stateMutability": "view",
			"type": "function"
		},
		{
			"inputs": [
				{
					"internalType": "address",
					"name": "account",
					"type": "address"
				}
			],
			"name": "getClubPayoutCount",
			"outputs": [
				{
					"internalType": "uint256",
					"name": "",
					"type": "uint256"
				}
			],
			"stateMutability": "view",
			"type": "function"
		},
		{
			"inputs": [
				{
					"internalType": "address",
					"name": "account",
					"type": "address"
				}
			],
			"name": "getClubPayoutTally",
			"outputs": [
				{
					"internalType": "uint256",
					"name": "",
					"type": "uint256"
				}
			],
			"stateMutability": "view",
			"type": "function"
		},
		{
			"inputs": [
				{
					"internalType": "address",
					"name": "account",
					"type": "address"
				}
			],
			"name": "getNFTCredits",
			"outputs": [
				{
					"internalType": "uint256",
					"name": "",
					"type": "uint256"
				}
			],
			"stateMutability": "view",
			"type": "function"
		},
		{
			"inputs": [
				{
					"internalType": "address",
					"name": "account",
					"type": "address"
				}
			],
			"name": "getTaxFreeBuyCredits",
			"outputs": [
				{
					"internalType": "uint256",
					"name": "",
					"type": "uint256"
				}
			],
			"stateMutability": "view",
			"type": "function"
		},
		{
			"inputs": [
				{
					"internalType": "address",
					"name": "account",
					"type": "address"
				}
			],
			"name": "isMaxWalletExempt",
			"outputs": [
				{
					"internalType": "bool",
					"name": "",
					"type": "bool"
				}
			],
			"stateMutability": "view",
			"type": "function"
		},
		{
			"inputs": [
				{
					"internalType": "address",
					"name": "account",
					"type": "address"
				}
			],
			"name": "isTaxExempt",
			"outputs": [
				{
					"internalType": "bool",
					"name": "",
					"type": "bool"
				}
			],
			"stateMutability": "view",
			"type": "function"
		},
		{
			"inputs": [],
			"name": "liqCount",
			"outputs": [
				{
					"internalType": "uint256",
					"name": "",
					"type": "uint256"
				}
			],
			"stateMutability": "view",
			"type": "function"
		},
		{
			"inputs": [],
			"name": "liqSwapAt",
			"outputs": [
				{
					"internalType": "uint256",
					"name": "",
					"type": "uint256"
				}
			],
			"stateMutability": "view",
			"type": "function"
		},
		{
			"inputs": [],
			"name": "liqTaxB",
			"outputs": [
				{
					"internalType": "uint256",
					"name": "",
					"type": "uint256"
				}
			],
			"stateMutability": "view",
			"type": "function"
		},
		{
			"inputs": [],
			"name": "liqTaxS",
			"outputs": [
				{
					"internalType": "uint256",
					"name": "",
					"type": "uint256"
				}
			],
			"stateMutability": "view",
			"type": "function"
		},
		{
			"inputs": [],
			"name": "liqTaxT",
			"outputs": [
				{
					"internalType": "uint256",
					"name": "",
					"type": "uint256"
				}
			],
			"stateMutability": "view",
			"type": "function"
		},
		{
			"inputs": [],
			"name": "liqWallet",
			"outputs": [
				{
					"internalType": "address payable",
					"name": "",
					"type": "address"
				}
			],
			"stateMutability": "view",
			"type": "function"
		},
		{
			"inputs": [],
			"name": "maxTxPercent",
			"outputs": [
				{
					"internalType": "uint256",
					"name": "",
					"type": "uint256"
				}
			],
			"stateMutability": "view",
			"type": "function"
		},
		{
			"inputs": [],
			"name": "maxWalletSize",
			"outputs": [
				{
					"internalType": "uint256",
					"name": "",
					"type": "uint256"
				}
			],
			"stateMutability": "view",
			"type": "function"
		},
		{
			"inputs": [],
			"name": "name",
			"outputs": [
				{
					"internalType": "string",
					"name": "",
					"type": "string"
				}
			],
			"stateMutability": "view",
			"type": "function"
		},
		{
			"inputs": [],
			"name": "owner",
			"outputs": [
				{
					"internalType": "address",
					"name": "",
					"type": "address"
				}
			],
			"stateMutability": "view",
			"type": "function"
		},
		{
			"inputs": [
				{
					"internalType": "address",
					"name": "account",
					"type": "address"
				}
			],
			"name": "removeMaxWalletExempt",
			"outputs": [],
			"stateMutability": "nonpayable",
			"type": "function"
		},
		{
			"inputs": [
				{
					"internalType": "address",
					"name": "account",
					"type": "address"
				}
			],
			"name": "removeTaxExempt",
			"outputs": [],
			"stateMutability": "nonpayable",
			"type": "function"
		},
		{
			"inputs": [],
			"name": "renounceOwnership",
			"outputs": [],
			"stateMutability": "nonpayable",
			"type": "function"
		},
		{
			"inputs": [
				{
					"internalType": "address",
					"name": "account",
					"type": "address"
				}
			],
			"name": "resetNFTCredits",
			"outputs": [],
			"stateMutability": "nonpayable",
			"type": "function"
		},
		{
			"inputs": [
				{
					"internalType": "address",
					"name": "account",
					"type": "address"
				}
			],
			"name": "resetTaxFreeBuyCredits",
			"outputs": [],
			"stateMutability": "nonpayable",
			"type": "function"
		},
		{
			"inputs": [
				{
					"internalType": "address[]",
					"name": "accounts",
					"type": "address[]"
				},
				{
					"internalType": "uint256",
					"name": "payoutC",
					"type": "uint256"
				}
			],
			"name": "setWalletPayoutCount",
			"outputs": [],
			"stateMutability": "nonpayable",
			"type": "function"
		},
		{
			"inputs": [
				{
					"internalType": "address",
					"name": "account",
					"type": "address"
				},
				{
					"internalType": "uint256",
					"name": "amount",
					"type": "uint256"
				}
			],
			"name": "swapForMint",
			"outputs": [
				{
					"internalType": "uint256",
					"name": "",
					"type": "uint256"
				}
			],
			"stateMutability": "nonpayable",
			"type": "function"
		},
		{
			"inputs": [],
			"name": "swapOnBuy",
			"outputs": [
				{
					"internalType": "bool",
					"name": "",
					"type": "bool"
				}
			],
			"stateMutability": "view",
			"type": "function"
		},
		{
			"inputs": [],
			"name": "swapOnSell",
			"outputs": [
				{
					"internalType": "bool",
					"name": "",
					"type": "bool"
				}
			],
			"stateMutability": "view",
			"type": "function"
		},
		{
			"inputs": [],
			"name": "symbol",
			"outputs": [
				{
					"internalType": "string",
					"name": "",
					"type": "string"
				}
			],
			"stateMutability": "view",
			"type": "function"
		},
		{
			"inputs": [],
			"name": "taxCount",
			"outputs": [
				{
					"internalType": "uint256",
					"name": "",
					"type": "uint256"
				}
			],
			"stateMutability": "view",
			"type": "function"
		},
		{
			"inputs": [],
			"name": "taxSwapAt",
			"outputs": [
				{
					"internalType": "uint256",
					"name": "",
					"type": "uint256"
				}
			],
			"stateMutability": "view",
			"type": "function"
		},
		{
			"inputs": [],
			"name": "taxTaxB",
			"outputs": [
				{
					"internalType": "uint256",
					"name": "",
					"type": "uint256"
				}
			],
			"stateMutability": "view",
			"type": "function"
		},
		{
			"inputs": [],
			"name": "taxTaxS",
			"outputs": [
				{
					"internalType": "uint256",
					"name": "",
					"type": "uint256"
				}
			],
			"stateMutability": "view",
			"type": "function"
		},
		{
			"inputs": [],
			"name": "taxTaxT",
			"outputs": [
				{
					"internalType": "uint256",
					"name": "",
					"type": "uint256"
				}
			],
			"stateMutability": "view",
			"type": "function"
		},
		{
			"inputs": [],
			"name": "taxWallet",
			"outputs": [
				{
					"internalType": "address payable",
					"name": "",
					"type": "address"
				}
			],
			"stateMutability": "view",
			"type": "function"
		},
		{
			"inputs": [],
			"name": "taxesOnBuy",
			"outputs": [
				{
					"internalType": "bool",
					"name": "",
					"type": "bool"
				}
			],
			"stateMutability": "view",
			"type": "function"
		},
		{
			"inputs": [],
			"name": "taxesOnSell",
			"outputs": [
				{
					"internalType": "bool",
					"name": "",
					"type": "bool"
				}
			],
			"stateMutability": "view",
			"type": "function"
		},
		{
			"inputs": [],
			"name": "taxesOnTran",
			"outputs": [
				{
					"internalType": "bool",
					"name": "",
					"type": "bool"
				}
			],
			"stateMutability": "view",
			"type": "function"
		},
		{
			"inputs": [],
			"name": "totalSupply",
			"outputs": [
				{
					"internalType": "uint256",
					"name": "",
					"type": "uint256"
				}
			],
			"stateMutability": "pure",
			"type": "function"
		},
		{
			"inputs": [
				{
					"internalType": "address",
					"name": "recipient",
					"type": "address"
				},
				{
					"internalType": "uint256",
					"name": "amount",
					"type": "uint256"
				}
			],
			"name": "transfer",
			"outputs": [
				{
					"internalType": "bool",
					"name": "",
					"type": "bool"
				}
			],
			"stateMutability": "nonpayable",
			"type": "function"
		},
		{
			"inputs": [
				{
					"internalType": "address",
					"name": "sender",
					"type": "address"
				},
				{
					"internalType": "address",
					"name": "recipient",
					"type": "address"
				},
				{
					"internalType": "uint256",
					"name": "amount",
					"type": "uint256"
				}
			],
			"name": "transferFrom",
			"outputs": [
				{
					"internalType": "bool",
					"name": "",
					"type": "bool"
				}
			],
			"stateMutability": "nonpayable",
			"type": "function"
		},
		{
			"inputs": [
				{
					"internalType": "address",
					"name": "newOwner",
					"type": "address"
				}
			],
			"name": "transferOwnership",
			"outputs": [],
			"stateMutability": "nonpayable",
			"type": "function"
		},
		{
			"inputs": [],
			"name": "uniswapV2Pair",
			"outputs": [
				{
					"internalType": "address",
					"name": "",
					"type": "address"
				}
			],
			"stateMutability": "view",
			"type": "function"
		},
		{
			"inputs": [],
			"name": "uniswapV2Router",
			"outputs": [
				{
					"internalType": "contract IUniswapV2Router02",
					"name": "",
					"type": "address"
				}
			],
			"stateMutability": "view",
			"type": "function"
		},
		{
			"inputs": [
				{
					"internalType": "address payable",
					"name": "account",
					"type": "address"
				}
			],
			"name": "withdrawContractBNB",
			"outputs": [],
			"stateMutability": "nonpayable",
			"type": "function"
		},
		{
			"inputs": [
				{
					"internalType": "address",
					"name": "account",
					"type": "address"
				},
				{
					"internalType": "uint256",
					"name": "tokenAmount",
					"type": "uint256"
				}
			],
			"name": "withdrawContractTokens",
			"outputs": [],
			"stateMutability": "nonpayable",
			"type": "function"
		},
		{
			"stateMutability": "payable",
			"type": "receive"
		}
	]
}