{
	"data": {
		"bytecode": {
			"linkReferences": {},
			"object": "608060405234801561001057600080fd5b506103f3806100206000396000f3fe608060405234801561001057600080fd5b506004361061002b5760003560e01c8063eaf723db14610030575b600080fd5b61004a6004803603810190610045919061017f565b610060565b6040516100579190610216565b60405180910390f35b606092915050565b600061007b6100768461025d565b610238565b9050808285602086028201111561009557610094610381565b5b60005b858110156100c557816100ab888261016a565b845260208401935060208301925050600181019050610098565b5050509392505050565b60006100e26100dd84610283565b610238565b9050828152602081018484840111156100fe576100fd610386565b5b6101098482856102da565b509392505050565b600082601f8301126101265761012561037c565b5b600a610133848285610068565b91505092915050565b600082601f8301126101515761015061037c565b5b81356101618482602086016100cf565b91505092915050565b600081359050610179816103a6565b92915050565b600080610160838503121561019757610196610390565b5b60006101a585828601610111565b92505061014083013567ffffffffffffffff8111156101c7576101c661038b565b5b6101d38582860161013c565b9150509250929050565b60006101e8826102b4565b6101f281856102bf565b93506102028185602086016102e9565b61020b81610395565b840191505092915050565b6000602082019050818103600083015261023081846101dd565b905092915050565b6000610242610253565b905061024e828261031c565b919050565b6000604051905090565b600067ffffffffffffffff8211156102785761027761034d565b5b602082029050919050565b600067ffffffffffffffff82111561029e5761029d61034d565b5b6102a782610395565b9050602081019050919050565b600081519050919050565b600082825260208201905092915050565b6000819050919050565b82818337600083830152505050565b60005b838110156103075780820151818401526020810190506102ec565b83811115610316576000848401525b50505050565b61032582610395565b810181811067ffffffffffffffff821117156103445761034361034d565b5b80604052505050565b7f4e487b7100000000000000000000000000000000000000000000000000000000600052604160045260246000fd5b600080fd5b600080fd5b600080fd5b600080fd5b600080fd5b6000601f19601f8301169050919050565b6103af816102d0565b81146103ba57600080fd5b5056fea2646970667358221220d78d911fd90f92cc28b8d9eb31c8c3ecbd6034745191423e32fecad9e39aadb164736f6c63430008070033",
			"opcodes": "PUSH1 0x80 PUSH1 0x40 MSTORE CALLVALUE DUP1 ISZERO PUSH2 0x10 JUMPI PUSH1 0x0 DUP1 REVERT JUMPDEST POP PUSH2 0x3F3 DUP1 PUSH2 0x20 PUSH1 0x0 CODECOPY PUSH1 0x0 RETURN INVALID PUSH1 0x80 PUSH1 0x40 MSTORE CALLVALUE DUP1 ISZERO PUSH2 0x10 JUMPI PUSH1 0x0 DUP1 REVERT JUMPDEST POP PUSH1 0x4 CALLDATASIZE LT PUSH2 0x2B JUMPI PUSH1 0x0 CALLDATALOAD PUSH1 0xE0 SHR DUP1 PUSH4 0xEAF723DB EQ PUSH2 0x30 JUMPI JUMPDEST PUSH1 0x0 DUP1 REVERT JUMPDEST PUSH2 0x4A PUSH1 0x4 DUP1 CALLDATASIZE SUB DUP2 ADD SWAP1 PUSH2 0x45 SWAP2 SWAP1 PUSH2 0x17F JUMP JUMPDEST PUSH2 0x60 JUMP JUMPDEST PUSH1 0x40 MLOAD PUSH2 0x57 SWAP2 SWAP1 PUSH2 0x216 JUMP JUMPDEST PUSH1 0x40 MLOAD DUP1 SWAP2 SUB SWAP1 RETURN JUMPDEST PUSH1 0x60 SWAP3 SWAP2 POP POP JUMP JUMPDEST PUSH1 0x0 PUSH2 0x7B PUSH2 0x76 DUP5 PUSH2 0x25D JUMP JUMPDEST PUSH2 0x238 JUMP JUMPDEST SWAP1 POP DUP1 DUP3 DUP6 PUSH1 0x20 DUP7 MUL DUP3 ADD GT ISZERO PUSH2 0x95 JUMPI PUSH2 0x94 PUSH2 0x381 JUMP JUMPDEST JUMPDEST PUSH1 0x0 JUMPDEST DUP6 DUP2 LT ISZERO PUSH2 0xC5 JUMPI DUP2 PUSH2 0xAB DUP9 DUP3 PUSH2 0x16A JUMP JUMPDEST DUP5 MSTORE PUSH1 0x20 DUP5 ADD SWAP4 POP PUSH1 0x20 DUP4 ADD SWAP3 POP POP PUSH1 0x1 DUP2 ADD SWAP1 POP PUSH2 0x98 JUMP JUMPDEST POP POP POP SWAP4 SWAP3 POP POP POP JUMP JUMPDEST PUSH1 0x0 PUSH2 0xE2 PUSH2 0xDD DUP5 PUSH2 0x283 JUMP JUMPDEST PUSH2 0x238 JUMP JUMPDEST SWAP1 POP DUP3 DUP2 MSTORE PUSH1 0x20 DUP2 ADD DUP5 DUP5 DUP5 ADD GT ISZERO PUSH2 0xFE JUMPI PUSH2 0xFD PUSH2 0x386 JUMP JUMPDEST JUMPDEST PUSH2 0x109 DUP5 DUP3 DUP6 PUSH2 0x2DA JUMP JUMPDEST POP SWAP4 SWAP3 POP POP POP JUMP JUMPDEST PUSH1 0x0 DUP3 PUSH1 0x1F DUP4 ADD SLT PUSH2 0x126 JUMPI PUSH2 0x125 PUSH2 0x37C JUMP JUMPDEST JUMPDEST PUSH1 0xA PUSH2 0x133 DUP5 DUP3 DUP6 PUSH2 0x68 JUMP JUMPDEST SWAP2 POP POP SWAP3 SWAP2 POP POP JUMP JUMPDEST PUSH1 0x0 DUP3 PUSH1 0x1F DUP4 ADD SLT PUSH2 0x151 JUMPI PUSH2 0x150 PUSH2 0x37C JUMP JUMPDEST JUMPDEST DUP2 CALLDATALOAD PUSH2 0x161 DUP5 DUP3 PUSH1 0x20 DUP7 ADD PUSH2 0xCF JUMP JUMPDEST SWAP2 POP POP SWAP3 SWAP2 POP POP JUMP JUMPDEST PUSH1 0x0 DUP2 CALLDATALOAD SWAP1 POP PUSH2 0x179 DUP2 PUSH2 0x3A6 JUMP JUMPDEST SWAP3 SWAP2 POP POP JUMP JUMPDEST PUSH1 0x0 DUP1 PUSH2 0x160 DUP4 DUP6 SUB SLT ISZERO PUSH2 0x197 JUMPI PUSH2 0x196 PUSH2 0x390 JUMP JUMPDEST JUMPDEST PUSH1 0x0 PUSH2 0x1A5 DUP6 DUP3 DUP7 ADD PUSH2 0x111 JUMP JUMPDEST SWAP3 POP POP PUSH2 0x140 DUP4 ADD CALLDATALOAD PUSH8 0xFFFFFFFFFFFFFFFF DUP2 GT ISZERO PUSH2 0x1C7 JUMPI PUSH2 0x1C6 PUSH2 0x38B JUMP JUMPDEST JUMPDEST PUSH2 0x1D3 DUP6 DUP3 DUP7 ADD PUSH2 0x13C JUMP JUMPDEST SWAP2 POP POP SWAP3 POP SWAP3 SWAP1 POP JUMP JUMPDEST PUSH1 0x0 PUSH2 0x1E8 DUP3 PUSH2 0x2B4 JUMP JUMPDEST PUSH2 0x1F2 DUP2 DUP6 PUSH2 0x2BF JUMP JUMPDEST SWAP4 POP PUSH2 0x202 DUP2 DUP6 PUSH1 0x20 DUP7 ADD PUSH2 0x2E9 JUMP JUMPDEST PUSH2 0x20B DUP2 PUSH2 0x395 JUMP JUMPDEST DUP5 ADD SWAP2 POP POP SWAP3 SWAP2 POP POP JUMP JUMPDEST PUSH1 0x0 PUSH1 0x20 DUP3 ADD SWAP1 POP DUP2 DUP2 SUB PUSH1 0x0 DUP4 ADD MSTORE PUSH2 0x230 DUP2 DUP5 PUSH2 0x1DD JUMP JUMPDEST SWAP1 POP SWAP3 SWAP2 POP POP JUMP JUMPDEST PUSH1 0x0 PUSH2 0x242 PUSH2 0x253 JUMP JUMPDEST SWAP1 POP PUSH2 0x24E DUP3 DUP3 PUSH2 0x31C JUMP JUMPDEST SWAP2 SWAP1 POP JUMP JUMPDEST PUSH1 0x0 PUSH1 0x40 MLOAD SWAP1 POP SWAP1 JUMP JUMPDEST PUSH1 0x0 PUSH8 0xFFFFFFFFFFFFFFFF DUP3 GT ISZERO PUSH2 0x278 JUMPI PUSH2 0x277 PUSH2 0x34D JUMP JUMPDEST JUMPDEST PUSH1 0x20 DUP3 MUL SWAP1 POP SWAP2 SWAP1 POP JUMP JUMPDEST PUSH1 0x0 PUSH8 0xFFFFFFFFFFFFFFFF DUP3 GT ISZERO PUSH2 0x29E JUMPI PUSH2 0x29D PUSH2 0x34D JUMP JUMPDEST JUMPDEST PUSH2 0x2A7 DUP3 PUSH2 0x395 JUMP JUMPDEST SWAP1 POP PUSH1 0x20 DUP2 ADD SWAP1 POP SWAP2 SWAP1 POP JUMP JUMPDEST PUSH1 0x0 DUP2 MLOAD SWAP1 POP SWAP2 SWAP1 POP JUMP JUMPDEST PUSH1 0x0 DUP3 DUP3 MSTORE PUSH1 0x20 DUP3 ADD SWAP1 POP SWAP3 SWAP2 POP POP JUMP JUMPDEST PUSH1 0x0 DUP2 SWAP1 POP SWAP2 SWAP1 POP JUMP JUMPDEST DUP3 DUP2 DUP4 CALLDATACOPY PUSH1 0x0 DUP4 DUP4 ADD MSTORE POP POP POP JUMP JUMPDEST PUSH1 0x0 JUMPDEST DUP4 DUP2 LT ISZERO PUSH2 0x307 JUMPI DUP1 DUP3 ADD MLOAD DUP2 DUP5 ADD MSTORE PUSH1 0x20 DUP2 ADD SWAP1 POP PUSH2 0x2EC JUMP JUMPDEST DUP4 DUP2 GT ISZERO PUSH2 0x316 JUMPI PUSH1 0x0 DUP5 DUP5 ADD MSTORE JUMPDEST POP POP POP POP JUMP JUMPDEST PUSH2 0x325 DUP3 PUSH2 0x395 JUMP JUMPDEST DUP2 ADD DUP2 DUP2 LT PUSH8 0xFFFFFFFFFFFFFFFF DUP3 GT OR ISZERO PUSH2 0x344 JUMPI PUSH2 0x343 PUSH2 0x34D JUMP JUMPDEST JUMPDEST DUP1 PUSH1 0x40 MSTORE POP POP POP JUMP JUMPDEST PUSH32 0x4E487B7100000000000000000000000000000000000000000000000000000000 PUSH1 0x0 MSTORE PUSH1 0x41 PUSH1 0x4 MSTORE PUSH1 0x24 PUSH1 0x0 REVERT JUMPDEST PUSH1 0x0 DUP1 REVERT JUMPDEST PUSH1 0x0 DUP1 REVERT JUMPDEST PUSH1 0x0 DUP1 REVERT JUMPDEST PUSH1 0x0 DUP1 REVERT JUMPDEST PUSH1 0x0 DUP1 REVERT JUMPDEST PUSH1 0x0 PUSH1 0x1F NOT PUSH1 0x1F DUP4 ADD AND SWAP1 POP SWAP2 SWAP1 POP JUMP JUMPDEST PUSH2 0x3AF DUP2 PUSH2 0x2D0 JUMP JUMPDEST DUP2 EQ PUSH2 0x3BA JUMPI PUSH1 0x0 DUP1 REVERT JUMPDEST POP JUMP INVALID LOG2 PUSH5 0x6970667358 0x22 SLT KECCAK256 0xD7 DUP14 SWAP2 0x1F 0xD9 0xF SWAP3 0xCC 0x28 0xB8 0xD9 0xEB BALANCE 0xC8 0xC3 0xEC 0xBD PUSH1 0x34 PUSH21 0x5191423E32FECAD9E39AADB164736F6C6343000807 STOP CALLER "
		},
		"gasEstimates": {
			"creation": {
				"codeDepositCost": "202200",
				"executionCost": "245",
				"totalCost": "202445"
			},
			"external": {
				"renderBunny(uint256[10],string)": "infinite"
			}
		},
		"methodIdentifiers": {
			"renderBunny(uint256[10],string)": "eaf723db"
		}
	},
	"abi": [
		{
			"inputs": [
				{
					"internalType": "uint256[10]",
					"name": "renderCode",
					"type": "uint256[10]"
				},
				{
					"internalType": "string",
					"name": "bunnyName",
					"type": "string"
				}
			],
			"name": "renderBunny",
			"outputs": [
				{
					"internalType": "string",
					"name": "",
					"type": "string"
				}
			],
			"stateMutability": "pure",
			"type": "function"
		}
	]
}