{
	"data": {
		"bytecode": {
			"linkReferences": {},
			"object": "608060405234801561001057600080fd5b50615251806100206000396000f3fe608060405234801561001057600080fd5b506004361061002b5760003560e01c8063ad711e9e14610030575b600080fd5b61003861004e565b6040516100459190615166565b60405180910390f35b610056611307565b6100816040518060800160405280606081526020016060815260200160608152602001606081525090565b600060405180606001604052806040518060400160405280600781526020016611b299b19bb11b60c91b81525081526020016040518060400160405280600781526020016608d98cd88d0e1960ca1b81525081526020016040518060400160405280600781526020016611b09a9b1b19b360c91b81525081525061010560036112ba565b6003811061012357634e487b7160e01b600052603260045260246000fd5b602090810291909101516040805160c0810182526007608082018181526611b31a311c9c9b60c91b60a08401528252825180840184528181526608ce4d988d598d60ca1b818701528286015282518084018452818152662337616261396560c81b818701528284015282518084019093528252662366396233623360c81b93820193909352606083015291506000906101bc60046112ba565b600481106101da57634e487b7160e01b600052603260045260246000fd5b60200201519050600060405180606001604052806040518060400160405280600781526020016611991b191b191b60c91b81525081526020016040518060400160405280600781526020016611999a1832189b60c91b815250815260200160405180604001604052806007815260200166119832191b181b60c91b81525081525061026560036112ba565b6003811061028357634e487b7160e01b600052603260045260246000fd5b602002015190506000828460405160200161029f9291906113b5565b604051602081830303815290604052905060006102bc60046112ba565b90506000604051806080016040528088602001516040516020016102e09190612f1b565b60405160208183030381529060405281526020018860200151896020015160405160200161030f92919061181d565b60405160208183030381529060405281526020018860200151604051602001610338919061364c565b604051602081830303815290604052815260200188602001516040516020016103619190613af2565b604051602081830303815290604052815250826004811061039257634e487b7160e01b600052603260045260246000fd5b6020020151905060006103a560046112ba565b905060006040518060800160405280886040516020016103c59190612ca4565b6040516020818303038152906040528152602001886040516020016103ea9190613f2d565b60405160208183030381529060405281526020018860405160200161040f9190611b5a565b604051602081830303815290604052815260200160405180602001604052806000815250815250826004811061045557634e487b7160e01b600052603260045260246000fd5b60200201519050600061046860046112ba565b9050600060405180608001604052806040516020016107ee907f3c7061746820643d226d36352e3632382036382e3739342d322e303439382d3181527f2e363539392d312e3938323220312e3734303622202f3e3c7061746820643d2260208201527f6d36332e3538372036372e323131732d302e32353930332d322e32313332203160408201527f2e383234352d322e3732303463312e393539372d302e343731343520322e393060608201527f353720312e3639343520322e3930353720312e3639343522202f3e3c7061746860808201527f20643d226d36332e3538372036372e32313173302e31373131392d322e32323460a08201527f372d312e393933352d322e36323832632d322e303338352d302e333832372d3260c08201527f2e39313720312e383231332d322e39313720312e3832313322202f3e3c70617460e08201527f6820643d226d35372e3336342037322e353638632d302e353539393120302e346101008201527f363837352d312e3431303620302e34353238322d312e393633392d302e3035306101208201527f362d302e35333931372d302e3530342d302e35353734382d312e333038342d306101408201527f2e303536312d312e383331386c322e3032352d312e3838383620322e303234396101608201527f20312e3838383663302e353031333520302e353233333720302e3438313834206101808201527f312e333331322d302e3035363120312e383331382d302e353836393220302e356101a08201527f373237322d312e3439393320302e34333038332d312e3937333720302e3035306101c08201527f367a22202f3e3c7061746820643d226d36392e3237312037322e3535632d302e6101e08201527f3536303120302e343632352d312e34313120302e34343637372d312e393634366102008201527f2d302e303439392d302e35333933362d302e34393732362d302e35353736382d6102208201527f312e323930392d302e303536322d312e383037336c322e303235362d312e38366102408201527f333420322e3032353620312e3836333463302e353031353320302e35313633396102608201527f20302e34383220312e333133342d302e3035363220312e383037332d302e35386102808201527f37313120302e35363530382d312e3439393820302e34323530392d312e3937346102a08201526c19901817181a1c9cbd1110179f60991b6102c08201526102cd0190565b60405160208183030381529060405281526020016040516020016109fb907f3c7061746820643d226d36312e3237382036392e32333520322e32382d312e3881527f3820322e323820312e383822202f3e3c7061746820643d226d36332e3535382060208201527f36372e323335762d312e383822202f3e3c7061746820643d226d36302e30393360408201527f2036362e32333573332e35342d332e393820362e393320302e31343822202f3e60608201527f3c7061746820643d226d37312e3831382037322e32333563302d312e32372d3060808201527f2e37392d322e33312d312e37362d322e33312d302e39373320302d312e37362060a08201527f312e30332d312e373620322e3331203020312e323720302e37393120322e333160c08201527f20312e373620322e333120302e393735203020312e37362d312e303320312e3760e08201527f362d322e333122202f3e3c7061746820643d226d35382e3831382037322e32336101008201527f3563302d312e32372d302e3738382d322e33312d312e37362d322e33312d302e6101208201527f39373320302d312e373620312e30332d312e373620322e3331203020312e32376101408201527f20302e37393120322e333120312e373620322e333120302e393736203020312e610160820152741b9b16989718199018971b9b16991719989110179f60591b6101808201526101950190565b6040516020818303038152906040528152602001604051602001610bd4907f3c7061746820643d226d36312e3733372036362e33393663302d322e3539203381527f2e38362d322e353620332e38362d302e303234203020322e35342d332e38362060208201527f322e36312d332e383620302e3032347a22202f3e3c7061746820643d226d363860408201527f2e3132372037312e33393663302d312e313120302e3638372d322e303120312e60608201527f35342d322e303120302e383438203020312e353420302e39303120312e35342060808201527f322e3031732d302e36383920322e30312d312e353420322e3031632d302e383560a08201527f20302d312e35342d302e3930312d312e35342d322e303122202f3e3c7061746860c08201527f20643d226d35362e3132372037312e33393663302d312e313120302e3638382d60e08201527f322e303120312e35342d322e303120302e383438203020312e353420302e39306101008201527f3120312e353420322e3031203020312e31312d302e36383920322e30312d312e6101208201527f353420322e30312d302e38343920302d312e35342d302e3930312d312e35342d61014082015267191718189110179f60c11b6101608201526101680190565b6040516020818303038152906040528152602001604051602001610ed3907f3c7061746820643d226d36382e3539362037312e30373663302d312e3035363781527f20302e35373937362d312e3930383520312e323934372d312e3930383520302e60208201527f3731353838203020312e3239343720302e383537363420312e3239343720312e60408201527f39303835732d302e353831363520312e393038352d312e3239343720312e393060608201527f3835632d302e373137373920302d312e323934372d302e38353736342d312e3260808201527f3934372d312e3930383522202f3e3c7061746820643d226d35362e373932203760a08201527f312e30373663302d312e3035363720302e353830372d312e3930383520312e3260c08201527f3934372d312e3930383520302e3731353838203020312e3239343720302e383560e08201527f37363620312e3239343720312e39303835732d302e353831363620312e3930386101008201527f352d312e3239343720312e39303835632d302e373136383320302d312e3239346101208201527f372d302e38353736362d312e323934372d312e3930383522202f3e3c706174686101408201527f20643d226d36332e3938352036372e38323173302e32303836352d322e3731316101608201527f362d322e343239372d332e32303333632d322e343834362d302e34363634342d6101808201527f332e3535353320322e323139382d332e3535353320322e3231393822202f3e3c6101a08201527f7061746820643d226d36332e3938352036372e383231732d302e33313537322d6101c08201527f322e3639373520322e323233382d332e3331353763322e333838352d302e35376101e08201527f34363220332e3534313620322e3036353320332e3534313620322e30363533226102008201527f202f3e3c7061746820643d226d36362e3437322036392e3735312d322e3439386102208201527f342d322e303233312d322e34313620322e3132313522202f3e000000000000006102408201526102590190565b6040516020818303038152906040528152508260048110610f0457634e487b7160e01b600052603260045260246000fd5b602002015190506000610f1760026112ba565b905060006040518060400160405280604051602001610fd8907f3c7061746820643d226d37362e30322034382e30333963302d362e33312d352e81527f332d31312e342d31312e382d31312e342d362e353420302d31312e3820352e3160208201527f322d31312e382031312e34203020362e333120352e332031312e342031312e3860408201527f2031312e3420362e353420302031312e382d352e31322031312e382d31312e346060820152633d11179f60e11b608082015260840190565b60405160208183030381529060405281526020016040516020016110ce907f3c7061746820643d226d36342e3232392035372e30333963322e393220322e3681527f3220372e343320322e35332031302e322d302e32383320322e38312d322e383260208201527f20322e39312d372e333120302e3239332d31302e326c2d31302e352d31302e3660408201527f2d31302e352031302e36632d322e363220322e39332d322e353220372e34332060608201527f302e3239332031302e3220322e383220322e383120372e333220322e3931203160808201526d181719101817191c19bd1110179f60911b60a082015260ae0190565b60405160208183030381529060405281525082600281106110ff57634e487b7160e01b600052603260045260246000fd5b6020020151905060008a6040516020016111199190613bb3565b604051602081830303815290604052905060008b858d8f86604051602001611145959493929190611711565b60408051601f1981840301815282820190915291508061116c8d8c8b86886060870161134a565b604051602081830303815290604052815260200185888d8c60405160200161129494939291907f7b2274726169745f7479706522203a2022486f6c65222c2276616c756522203a815261101160f11b602082015260228101949094527f22207d2c7b2274726169745f7479706522203a202246616365222c2276616c756042850152653291101d101160d11b606285015260688401929092527f22207d2c7b2274726169745f7479706522203a20224963696e67222c2276616c6088840152663ab291101d101160c91b60a884015260af8301527f22207d2c7b2274726169745f7479706522203a2022537072696e6b6c6573222c60cf8301526a113b30b63ab291101d101160a91b60ef83015260fa8201526308881f4b60e21b61011a82015261011e0190565b6040516020818303038152906040528152509f5050505050505050505050505050505090565b60008042446040516020016112d9929190918252602082015260400190565b60408051601f19818403018152919052805160209091012060ff16905061130083826151fb565b9392505050565b60405180604001604052806002905b60608152602001906001900390816113165790505090565b600081516113408185602086016151cb565b9290920192915050565b6000865161135c818460208b016151cb565b865190830190611370818360208b016151cb565b8651910190611383818360208a016151cb565b85519101906113968183602089016151cb565b84519101906113a98183602088016151cb565b01979650505050505050565b7f3c7376672076696577426f783d22302030203132372e3438203132372e34382281527f20786d6c6e733a786c696e6b3d22687474703a2f2f7777772e77332e6f72672f60208201527f313939392f786c696e6b2220786d6c6e733d22687474703a2f2f7777772e773360408201527f2e6f72672f323030302f737667223e3c67207472616e73666f726d3d22726f7460608201527f617465283138302036332e3733392036332e3733392922207374796c653d227360808201527f74726f6b652d6c696e656361703a726f756e643b7374726f6b652d6c696e656a60a08201527f6f696e3a726f756e643b66696c6c3a6e6f6e653b223e3c7265637420636c617360c08201527f733d226267222077696474683d223132372e343822206865696768743d22313260e08201526b1b971a1c11103334b6361e9160a11b610100820152600061010c845161150f81838601602089016151cb565b80840190507f222f3e3c7061746820643d226d3130322e37332039312e32323563382e363220828201527f31362e312d322e32382032382e382d31342e332032342e312d31322e392d352e61012c8201527f30352d31352e322d33302e372d31352e342d33322e312d322e393620302e373161014c8201527f312d362e303620312e30392d392e323520312e30392d332e313720302d362e3261016c8201527f352d302e3338312d392e322d312e30382d302e31343220312e35332d322e352061018c8201527f32372d31352e342033322e312d31322e3120342e372d32332e312d372e36352d6101ac8201527f31342e342d32342e3120342e34382d382e34372031322e372d31362e342031326101cc8201527f2e372d31362e342d372e342d362e36382d31312e382d31362e362d31312e382d6101ec8201527f32372e3120302d32302e322031372e312d33362e362033382e312d33362e367361020c8201527f33382e312031362e342033382e312033362e3663302031302e352d342e33382061022c8201527f32302e342d31312e382032372e3120302e3139372d302e33323220302030203061024c8201527f203073382e313220372e39352031322e362031362e34222066696c6c3d22000061026c8201526117076116f761028a83018761132e565b631110179f60e11b815260040190565b9695505050505050565b7f3c67207374796c653d227374726f6b652d77696474683a313b7374726f6b653a815260006020875161174981838601848c016151cb565b8084019050621d911f60e91b8083830152885161176c8160238501868d016151cb565b7f3c2f673e3c67207374796c653d227374726f6b652d77696474683a333b737472602393909101928301526337b5b29d60e11b604383015287516117b68160478501868c016151cb565b651db334b6361d60d11b6047939091019283015286516117dc81604d8501868b016151cb565b604d92019182015284516117f681605084018589016151cb565b61180f605082840101631e17b39f60e11b815260040190565b9a9950505050505050505050565b6a1e339039ba3937b5b29e9160a91b8152825160009061184481600b8501602088016151cb565b6711103334b6361e9160c11b600b91840191820152835161186c8160138401602088016151cb565b7f22207374726f6b652d77696474683d2232223e3c7061746820643d226d34312e601392909101918201527f342035302e30332d362e39392d332e33732d362e393520342e32332d372e353160338201527f20322e3136632d342e33382d31362e312031362e352d33372e322033372e362d60538201527f33382e3320382e343920302e353820323020352e31312032362e392031312e3760738201527f20362e3220362e39382031312e332031362e382031302e322032362e342d302e60938201527f353320332e31352d382e34362d322e31352d382e34362d322e31356c2d362e3460b38201527f3120332e33352d342e39312d332e30362d352e353120302e3536322d32332e3760d38201527f20302e33372d342e39332d312e34387a22207374796c653d227374726f6b653a60f38201527f6e6f6e653b222f3e3c7061746820643d226d32372e312034392e353163312e356101138201527f3920302e36353820332e353720302e31333120342e39312d312e343920312e376101338201527f392d322e313620342e34382d312e333720352e393720302e34333220312e34396101538201527f20312e3820342e353820312e393220362e35372d302e34333220312e34342d316101738201527f2e3720342e35342d322e343520372e303420302e3031383422207374796c653d6101938201527f2266696c6c3a6e6f6e653b222f3e3c7061746820643d226d3130312e303720346101b38201527f392e3531632d312e363220302e3635382d332e363520302e3133312d352e30326101d38201527f2d312e34392d312e38332d322e31362d342e35382d312e33372d362e313120306101f38201527f2e3433322d312e353320312e382d342e363820312e39322d362e37322d302e346102138201527f33322d312e34372d312e372d342e36352d322e34352d372e3220302e303138346102338201527f22207374796c653d2266696c6c3a6e6f6e653b222f3e3c2f673e00000000000061025382015261026d01949350505050565b6a1e339039ba3937b5b29e9160a91b81528151600090611b8181600b8501602087016151cb565b7f22207374726f6b652d77696474683d22312e3522207374796c653d226d69782d600b9390910192830152507f626c656e642d6d6f64653a20686172642d6c696768743b223e3c706174682064602b8201527f3d226d37372e3632382036312e373138632d312e3531393220312e383130332d604b8201527f322e3138373820342e333035362d312e3737373320362e3633323920302e3236606b8201527f39313320312e3532353920302e393839393220322e3937353420322e30373533608b8201527f20342e3038313120312e3038353420312e3130353720322e3533353120312e3860ab8201527f35373220342e3037303520322e3036343820312e3330363820302e313736363460cb8201527f20322e363634352d302e303431323720332e383439352d302e3631393639203160eb8201527f2e3138352d302e353738343220322e313932342d312e3531353320322e38353361010b8201527f362d322e3635363220302e36363131342d312e3134303920302e39373330382d61012b8201527f322e3438313420302e38383136382d332e373936392d302e303931342d312e3361014b8201527f3135352d302e35383630352d322e363030342d312e343031382d332e3633363561016b8201527f2d302e393934372d312e323633332d322e343037332d322e3131362d332e363161018b8201527f35352d332e3137372d302e36303430382d302e35333035312d312e313634352d6101ab8201527f312e313232352d312e353731382d312e383135372d302e34303732332d302e366101cb8201527f393331392d302e36353532362d312e343935372d302e363035382d322e3239386101eb8201527f3120302e30353134332d302e383334343820302e34323433322d312e3633313561020b8201527f20302e39363833312d322e3236363420302e35343339382d302e36333439203161022b8201527f2e323531382d312e3131353320322e303038352d312e3437303820312e35313361024b8201527f352d302e373130393520332e323032322d302e393332363920342e383136352d61026b8201527f312e3336383620312e343333382d302e333837313920322e383334312d302e3961028b8201527f3535373920342e303336322d312e3832373920312e323032322d302e383732316102ab8201527f3120322e322d322e3036343420322e363837382d332e3436373120302e3438376102cb8201527f38342d312e3430323820302e343238332d332e303230352d302e33303737312d6102eb8201527f342e333130352d302e33363830312d302e36343439392d302e38393833322d3161030b8201527f2e313939372d312e353337352d312e353737362d302e36333932322d302e333761032b8201527f3739352d312e3338372d302e35373538392d322e313238382d302e353432303961034b8201527f2d312e3036373820302e30343836352d322e3037323920302e35363933382d3261036b8201527f2e3837353520312e32373534732d312e3432353620312e353930362d322e303061038b8201527f393220322e34383631632d302e353833363420302e38393534392d312e3133396103ab8201527f3120312e383135332d312e3833363120322e363235372d302e363936393620306103cb8201527f2e38313034322d312e35353420312e3531362d322e3536373420312e383535386103eb8201527f2d302e373434343720302e32343936342d312e3535353220302e32393232312d61040b8201527f322e3332343920302e31333639312d302e373639372d302e313535332d312e3461042b8201527f3937322d302e35303636322d322e313037332d312e3030312d312e323230312d61044b8201527f302e39383837342d312e393335312d322e353339322d322e303130342d342e3161046b8201527f3037382d302e30373532382d312e3536383620302e34363231382d332e31333961048b8201527f3720312e333838382d342e3430373673322e323236312d322e3234303420332e6104ab8201527f363537382d322e3838353763302e39343036372d302e343233393520312e39336104cb8201527f36312d302e373131303920322e3930342d312e3036383473312e393234372d306104eb8201527f2e373935303620322e373033322d312e3437323263302e37323531382d302e3661050b8201527f3330373720312e323734392d312e3435393220312e353834322d322e3336393261052b8201527f20302e33303933332d302e393039393820302e33373836322d312e383939203061054b8201527f2e32303935342d322e383435322d302e33333831362d312e383932332d312e3661056b8201527f3536322d332e353635312d332e333834352d342e343036362d312e373238332d61058b8201527f302e38343134372d332e383230372d302e38353734312d352e353933352d302e6105ab8201527f31313434322d312e3737323820302e3734332d332e3231313120322e323135396105cb8201527f2d332e3938353820332e393735312d302e373037353420312e363036352d302e6105eb8201527f383733343620332e333934322d312e3338373720352e303732362d302e32353761060b8201527f313320302e383339322d302e363036353220312e363539352d312e313330312061062b8201527f322e33363339732d312e3233323120312e323839372d322e3036343520312e3561064b8201527f363831632d302e373934393520302e32363538352d312e3637353520302e323361066b8201527f39362d322e343731382d302e3032322d302e37393633362d302e323631362d3161068b8201527f2e353039322d302e37353131312d322e303831332d312e333633382d312e31346106ab8201527f34312d312e323235332d312e373035342d322e383930392d312e393732382d346106cb8201527f2e35343538732d302e323732362d332e333431332d302e34373435322d352e306106eb8201527f3035352d302e36323239362d332e333532342d312e363134332d342e3730343361070b8201527f632d302e36313437312d302e38333833312d312e343432382d312e353235392d61072b8201527f322e333938342d312e393335312d302e39353536312d302e343039322d322e3061074b8201527f3338322d302e35333332322d332e303532392d302e33303733342d312e30313461076b8201527f3720302e32323538382d312e3935333820302e38303830382d322e353732392061078b8201527f312e363433312d302e363139313520302e38333530342d302e393033393520316107ab8201527f2e393230342d302e373332333320322e3934353620302e3131333320302e36376107cb8201527f36383420302e343135303120312e3331303820302e373932383720312e3838336107eb8201527f3773302e383331393620312e3039303720312e3238313320312e36303934633061080b8201527f2e343439333820302e353138363520302e383937343220312e3034323620312e61082b8201527f3236313120312e3632343620302e333633363320302e353831393920302e363461084b8201527f323320312e3232383420302e373232313420312e393120302e3132373332203161086b8201527f2e3038372d302e323830313920322e323133352d312e30333620332e3030357361088b8201527f2d312e3833383420312e3234372d322e39333220312e323838342d322e3138396108ab8201527f342d302e33323033372d332e303737312d302e3936303435632d302e383837376108cb8201527f332d302e36343030382d312e353639312d312e353439342d312e393837312d326108eb8201527f2e353630392d302e35333235372d312e323838392d302e36343035332d322e3761090b8201527f3035362d302e383630382d342e303832372d302e32323032372d312e3337373161092b8201527f2d302e35383939342d322e373936392d312e353233372d332e383332382d302e61094b8201527f35303635332d302e35363138362d312e313633362d302e39383437382d312e3861096b8201527f3831332d312e323233392d302e37313736392d302e32333931322d312e34393461098b8201527f322d302e32393530372d322e323430372d302e31373235342d312e34393320306109ab8201527f2e32343530362d322e3833313920312e323137362d332e3630303920322e35326109cb8201527f30352d302e373638393520312e3330332d302e3937373620322e393037352d306109eb8201527f2e363531393520342e33383520302e333235363520312e3437373520312e3136610a0b8201527f373120322e3832323420322e3239353820332e3832393820322e303034392031610a2b8201527f2e3738393320342e3736303720322e3436393820362e3939303520332e393639610a4b8201527f3720312e3131343920302e373439393220322e3131333720312e373336322032610a6b8201527f2e3633363520322e39373420302e323631333920302e363138383920302e3339610a8b8201527f38333420312e3239343120302e3336333620312e3936352d302e303334373420610aab8201527f302e36373039322d302e323434373320312e333336362d302e36333031332031610acb8201527f2e383836382d302e343930343820302e37303033322d312e3234393220312e31610aeb8201527f392d322e3036383420312e343334362d302e383139323520302e32343436322d610b0b8201527f312e3639363320302e32353534352d322e3534303620302e31323038362d312e610b2b8201527f363838372d302e32363931372d332e323237352d312e303934322d342e383038610b4b8201527f392d312e373434382d312e343134362d302e35383139322d322e393031362d31610b6b8201527f2e303333332d342e343239312d312e31313135732d332e3130353520302e3233610b8b8201527f38382d342e3337363920312e30383932632d302e383737353420302e35383639610bab8201527f332d312e3538393720312e343138362d322e3033333520322e333736352d302e610bcb8201527f3434333820302e39353739322d302e363137373520322e303339332d302e3439610beb8201527f35353220332e3038373973302e353430343420322e3036313320312e31393437610c0b8201527f20322e3838393963302e363534323720302e383238353520312e353432372031610c2b8201527f2e3437303320322e3533353320312e3832393920312e3733343420302e363238610c4b8201527f333720332e3634343120302e3338323320352e3438363420302e343737343120610c6b8201527f302e393231313520302e303437353620312e3834393920302e31383631392032610c8b8201527f2e3639353720302e353534313120302e383435383220302e333637393220312e610cab8201527f3630373320302e393833353920322e3032303120312e3830383520302e343138610ccb8201527f3220302e383335373220302e343439353920312e3832383820302e3232363033610ceb8201527f20322e373336322d302e323233353620302e39303733392d302e363835363820610d0b8201527f312e373339352d312e3231363920322e353038342d312e3036323320312e3533610d2b8201527f37382d322e3434333920322e393138352d332e3030313320342e373032342d30610d4b8201527f2e353437323620312e373531352d302e313738303920332e3736323320302e39610d6b8201527f35353620352e3230353120312e3133333720312e3434323920332e3030303120610d8b8201527f322e3237373220342e3833313320322e3135393973332e353735382d312e3138610dab8201527f333220342e3531362d322e37353963302e39343032312d312e3537353820312e610dcb8201527f303439362d332e3631373320302e32383332352d352e3238343522202f3e3c2f610deb82015261339f60f11b610e0b820152610e0d01919050565b6a1e339039ba3937b5b29e9160a91b81528151600090612ccb81600b8501602087016151cb565b7f22207374726f6b652d77696474683d2232223e3c7061746820643d226d37312e600b9390910192830152507f32332033332e303920302e3237332d342e303422202f3e3c7061746820643d22602b8201527f6d35362e32332033322e303920332e38322d312e323322202f3e3c7061746820604b8201527f643d226d36312e32332032332e3039203420302e333722202f3e3c7061746820606b8201527f643d226d34342e32332033362e303920312e383220332e363122202f3e3c7061608b8201527f746820643d226d35302e32332032372e30392d312e313420332e383922202f3e60ab8201527f3c7061746820643d226d34312e32332035362e30392d312e313420332e38392260cb8201527f202f3e3c7061746820643d226d38332e32332035382e303920322e393220322e60eb8201527f373822202f3e3c7061746820643d226d34362e32332035302e303920302e363461010b8201527f38203422202f3e3c7061746820643d226d37392e32332035362e303920302e3661012b8201527f37352d3422202f3e3c7061746820643d226d33372e32332034362e303920332e61014b8201527f39392d302e34343122202f3e3c7061746820643d226d38372e32332034382e3061016b8201527f3920332e31312d322e353622202f3e3c7061746820643d226d38302e3233203461018b8201527f312e3039203420302e32383522202f3e3c7061746820643d226d37382e3233206101ab8201527f32392e303920312e373220332e363722202f3e3c2f673e0000000000000000006101cb8201526101e201919050565b6b1e3830ba34103334b6361e9160a11b81528151600090612f4381600c8501602087016151cb565b7f2220643d226d39362e3036332034362e343236632d302e3532323620312e3738600c9390910192830152507f35342d312e3639323520332e323139372d332e3137373120342e313232342032602c8201527f2e30323920312e3738353420322e3936393320342e3633333920322e31353737604c8201527f20372e343032332d302e373431333320322e353437372d322e3738313220342e606c8201527f333633312d352e3139363320342e3936343920302e343738303620312e333634608c8201527f3120302e353535323620322e3837383720302e313139373620342e333633312d60ac8201527f312e3033393320332e353730372d342e3632323220352e373137322d382e323160cc8201527f3520352e303735332d302e333738303920332e363230392d332e34353433203660ec8201527f2e343339342d372e3138353720362e343339342d312e3838303620302d332e3561010c8201527f3832392d302e37313731362d342e383639362d312e383835372d312e3135382061012c8201527f322e343337332d332e3634323320342e313332342d362e3533323420342e313361014c8201527f32342d322e3833303720302d352e323635352d312e363234392d362e3435333361016c8201527f2d332e3938322d312e32353720302e39373239332d322e3835303520312e353461018c8201527f34362d342e3537323720312e353034352d332e393838382d302e30383132342d6101ac8201527f372e3135362d332e333630312d372e303736382d372e3333323120302e3030336101cc8201527f392d302e323134363520302e30323237372d302e3433313320302e30343635336101ec8201527f2d302e36343439342d302e323035383720302e30363331392d302e343135372061020c8201527f302e31313933362d302e363332343620302e31363434392d332e38393937203061022c8201527f2e38303634322d372e373230322d312e363935312d382e353331382d352e353761024c8201527f36382d302e343335352d322e3039363320302e30393530312d342e313532352061026c8201527f312e323736382d352e373437332d302e33343334352d302e30343631342d302e61028c8201527f36393238342d302e31313033332d312e303339332d302e32303836332d332e386102ac8201527f3330342d312e313033332d362e303237372d352e303935332d342e393139312d6102cc8201527f382e3930363820302e34333435312d312e3438343520312e333036352d322e376102ec8201527f32383220322e343434372d332e363230392d312e373132332d312e373835342d61030c8201527f322e343534362d342e343133332d312e373132332d362e3936303920302e383061032c8201527f3536372d322e3736383320332e313337362d342e3637343120352e383039392d61034c8201527f352e303935332d302e37363830362d312e353534372d302e39383837382d332e61036c8201527f333830322d302e34363531392d352e3137353620312e303339332d332e35373061038c8201527f3720342e363232322d352e3731373220382e3231352d352e3037353320302e336103ac8201527f383030372d332e3631303920332e343434342d362e3433393420372e313835376103cc8201527f2d362e3433393420312e35353339203020322e39393920302e3439373520342e6103ec8201527f3137363820312e33323420312e323437312d322e3133363420332e3537332d3361040c8201527f2e3538303820362e323335352d332e3538303820332e30373832203020352e3661042c8201527f39313120312e3931353820362e3734303320342e3630333820312e333436312d61044c8201527f312e33343420332e323136372d322e3137363520352e323735342d322e31323661046c8201527f3420332e3938383820302e303739323420372e31353620332e3336303120372e61048c8201527f3037363820372e333332312d33652d3320302e32313836362d302e30323137386104ac8201527f20302e34333533312d302e303436353320302e363435393420302e32303638366104cc8201527f2d302e303632313920302e34313437312d302e313139333620302e36323934396104ec8201527f2d302e313633343920332e393039362d302e383036343220372e37333031203161050c8201527f2e3639353120382e3533313820352e3538363820302e3433353520322e30393661052c8201527f332d302e303936303120342e313532352d312e3237363820352e37343733203061054c8201527f2e333436343220302e303438313420302e363933383220302e3130383332203161056c8201527f2e3033393320302e323130363320332e3833303420312e3130333320362e303261058c8201527f373720352e3039353320342e3931393120382e39313638222f3e0000000000006105ac8201526105c601919050565b6b1e3830ba34103334b6361e9160a11b8152815160009061367481600c8501602087016151cb565b7f2220643d226d36362e3239352038312e32303963352e303938342d302e353231600c9390910192830152507f303820332e373733382d332e3734383820382e313732342d352e313438332034602c8201527f2e3733362d312e35313220362e3732323820302e37383120392e363834342d31604c8201527f2e3732343420332e383131332d332e3231313520312e323439362d352e333130606c8201527f3820342e323233362d382e3237323320322e3937342d322e3936313520352e38608c8201527f3835362d322e3434393220362e373732382d372e3334373620302e373331303260ac8201527f2d342e303438372d302e39383936382d342e3638362d312e313435392d382e3460cc8201527f3334382d302e313536322d332e3734383820332e343336342d352e333130382060ec8201527f322e333439322d392e3232322d312e303837322d332e393131322d342e36383661010c8201527f2d342e323233362d352e393335362d372e313835322d312e323439362d322e3961012c8201527f36313520302e32313836382d362e313335352d322e383131362d392e3232322d61014c8201527f332e3137342d332e3232342d342e3633362d312e313435392d382e333834382d61016c8201527f322e333939322d332e373438382d312e323533332d322e383131362d352e353261018c8201527f33322d382e333334382d362e3334382d352e353835372d302e38343334382d356101ac8201527f2e3039383420312e3636322d392e33373220322e313836382d342e30333632206101cc8201527f302e34393233342d352e393335362d322e383131362d392e363834342d302e396101ec8201527f3337322d332e3734383820312e383734342d332e31373420362e333937392d3761020c8201527f2e3339373620372e38312d342e3232333620312e3431322d362e32393820302e61022c8201527f3738312d382e3032323420342e333733362d312e3732343420332e353932362061024c8201527f302e383332323320382e303232342d322e323336382031302e3737322d322e3961026c8201527f393920322e363939312d342e3338363120362e383130332d322e31333638203961028c8201527f2e3834363820322e3339393220332e32323420332e3033363520332e393836326102ac8201527f20322e3038363820382e343334382d312e3034303920342e3834383420312e346102cc8201527f313220382e3333343820352e3039383420382e3834373220332e3333363420306102ec8201527f2e343639383520332e3634383820322e3138363820352e3231303820362e323461030c8201527f3820312e35363220342e3036313220352e3236303820352e3039383420382e3861032c8201527f34373220342e3136313220332e353836332d302e3933373220352e303438342d61034c8201527f302e3135363220372e3038353220312e3234393620322e3033363820312e343061036c8201527f353820332e3237333920322e3536313720352e3933353620322e323836387a2261038c82015261179f60f11b6103ac8201526103ae01919050565b6b1e3830ba34103334b6361e9160a11b81528151600090613b1a81600c8501602087016151cb565b7f2220643d226d36332e3537372038302e3535356334332e38383220302e333630600c9390910192830152507f32332034332e3130372d36342e38303320302e33323734322d36342e3939382d602c8201527f34322e3731392d302e31343139342d34342e3236392036342e3630372d302e33604c8201526f191b9a19101b1a171c9c9c3d1110179f60811b606c820152607c01919050565b7f3c673e3c706174682069643d22706174683632343522207374726f6b652d776981526f323a341e9119911039ba3937b5b29e9160811b602082015260008251613c048160308501602087016151cb565b7f2220643d226d3130302e3431203131342e3033632d362e313520342e37322d316030918401918201527f352e3220312e36392d31392e312d342e34372d352e33312d372e372d372e323760508201527f2d31372e322d382e33342d32362e332d362e303320312e34352d31322e34203160708201527f2e34362d31382e3420302e3031332d312e32382031302e322d332e333820323160908201527f2e312d31302e362032382e392d352e313720352e35392d31352e3520352e383460b08201527f2d31392e382d302e3930332d352d372e34352d312e37372d31372e3220322e3960d08201527f342d32332e3920332e30312d342e353120362e35332d382e36362031302e342d60f08201527f31322e352d31332e342d31312e392d31352e382d33342e312d342e37352d34386101108201527f2e332031302e352d31342e362033312e352d31392e352034372e362d31312e386101308201527f2031342e3320362e332032332e362032322e332032312e332033372e392d302e6101508201527f39343920382e342d352e352031372d31312e352032322e3220342e383320342e6101708201527f393320392e33312031302e332031322e362031362e3420342e303420362e39376101908201527f20342e38342031372e342d322e32332032322e387a22202f3e3c7465787420736101b08201527f74796c653d2266696c6c3a2366666666666633333b666f6e742d66616d696c796101d08201527f3a73616e732d73657269663b666f6e742d73697a653a312e333670783b6c696e6101f08201527f652d6865696768743a312e32353b6f7061636974793a2e333b776f72642d73706102108201527f6163696e673a307078223e3c746578745061746820786c696e6b3a687265663d6102308201527f22237061746836323435223e3c747370616e2064783d2230222064793d22302e610250820152621b111f60e91b610270820152613f25613eeb610273830167544553544e414d4560c01b815260080190565b7f3c2f747370616e3e3c2f74657874506174683e3c2f746578743e3c2f673e3c2f815267339f1e17b9bb339f60c11b602082015260280190565b949350505050565b6d1e3830ba341039ba3937b5b29e9160911b81528151600090613f5781600e8501602087016151cb565b7f22207374726f6b652d77696474683d22332e3522207374796c653d227374726f600e9390910192830152507f6b652d6461736861727261793a352c20373b2220643d226d37372e3632382036602e8201527f312e373138632d312e3531383520312e383130372d322e31383720342e333035604e8201527f362d312e3737373320362e3633323920302e323638363620312e353236322030606e8201527f2e393838383620322e3937363320322e3037343320342e3038323320312e3038608e8201527f353420312e31303620322e3533353720312e3835373520342e3037313620322e60ae8201527f3036333520312e3330353520302e3137353120322e363631352d302e3034343460ce8201527f3620332e383434352d302e363233373473322e313838322d312e35313632203260ee8201527f2e3834382d322e3635363263302e36353938342d312e313420302e393731353361010e8201527f2d322e3437383720302e38383138342d332e373932382d302e303839372d312e61012e8201527f333134312d302e353830362d322e353938342d312e333931342d332e3633363561014e8201527f2d302e39383834352d312e323635362d322e333933372d322e313235312d332e61016e8201527f353938342d332e3138372d302e36303233322d302e35333039342d312e31363261018e8201527f2d312e313231382d312e353731332d312e38313236732d302e36363237362d316101ae8201527f2e343839332d302e363233342d322e3239313363302e30343131372d302e38336101ce8201527f38393420302e34303332352d312e3634353120302e393430372d322e323930366101ee8201527f20302e35333734352d302e363435343920312e323432392d312e31333734203261020e8201527f2e303030382d312e3439393420312e353135382d302e373234303420332e323161022e8201527f35312d302e393337353620342e383531382d312e3331353820312e353830352d61024e8201527f302e333635323420332e313431332d302e393030303120342e343938322d312e61026e8201527f3738383920312e333536392d302e383838383820322e353033352d322e31353761028e8201527f3220332e303432322d332e3638373320302e32363933362d302e3736353033206102ae8201527f302e333833322d312e3538373720302e33303232392d322e333934372d302e306102ce8201527f383039312d302e38303730322d302e33353931342d312e353937312d302e38326102ee8201527f3539352d322e323630342d302e343636382d302e36363332372d312e3132333961030e8201527f2d312e313935392d312e383830332d312e343838372d302e37353633382d302e61032e8201527f32393237382d312e363130322d302e33343030382d322e333836352d302e313061034e8201527f3532332d302e373239333420302e32323036342d312e3337303920302e36373861036e8201527f372d312e3839353920312e3233312d302e353234393720302e35353232392d3061038e8201527f2e393431333820312e3139382d312e3332333520312e383537322d302e3736346103ae8201527f323720312e333138352d312e3434303920322e373532342d322e3633373320336103ce8201527f2e363936342d302e363436373620302e35313033362d312e3432343320302e386103ee8201527f3531372d322e3233363220302e3939313532732d312e3635363620302e30373861040e8201527f37332d322e343432382d302e3136373537632d312e353732342d302e3439323661042e8201527f312d322e383734392d312e373339362d332e352d332e323634322d302e36323561044e8201527f30382d312e353234362d302e35383135322d332e3239363520302e303533322d61046e8201527f342e3831373120302e36333437312d312e3532303620312e383430332d322e3761048e8201527f38323120332e323938352d332e3534393420302e393132362d302e34383032346104ae8201527f20312e393130322d302e373730393720322e383832352d312e3131343473312e6104ce8201527f393433342d302e373533303820322e373234372d312e3432363263302e3639376104ee8201527f34372d302e363030393820312e323139372d312e3430303220312e353033342d61050e8201527f322e3237363173302e33323938362d312e3832353620302e31343632372d322e61052e8201527f37323738632d302e33363731372d312e383034342d312e363731322d332e333661054e8201527f38352d332e333338322d342e313530372d312e3636372d302e37383231362d3361056e8201527f2e363534312d302e37393833332d352e333735312d302e31343334332d312e3761058e8201527f323120302e363534392d332e3136393620312e393532362d342e3130363520336105ae8201527f2e353337372d302e373537303520312e323830382d312e3138383420322e37326105ce8201527f38312d312e3838353920342e303432332d302e333438373120302e36353731316105ee8201527f2d302e373637313820312e323833382d312e3330303520312e38303234732d3161060e8201527f2e3138373520302e39323634382d312e3931303620312e313031632d302e373061062e8201527f39353220302e31373132362d312e34363720302e31313135352d322e3135353961064e8201527f2d302e31323936362d302e36383838392d302e32343132312d312e333039392d61066e8201527f302e36353933392d312e383233372d312e313737392d312e303237352d312e3061068e8201527f33372d312e363039362d322e343430342d312e393530352d332e383539382d306106ae8201527f2e33343039342d312e343139342d302e3436342d322e383831312d302e3731346106ce8201527f34382d342e333139332d302e32353034392d312e343338322d302e36343231336106ee8201527f2d322e383833372d312e343535352d342e303935392d302e36303230332d302e61070e8201527f38393733312d312e343333322d312e363438322d322e3431322d322e3130362d61072e8201527f302e39373837362d302e34353738342d322e313035332d302e36313338392d3361074e8201527f2e313631342d302e33383532342d312e3035363120302e32323836362d322e3061076e8201527f33313820302e38353131312d322e3634303420312e373433392d302e3630383661078e8201527f3620302e38393238322d302e383330323720322e3035322d302e3534323738206107ae8201527f332e3039333720302e313835333520302e363731353420302e353636373720316107ce8201527f2e3237343420312e3030393120312e3831323620302e343432333620302e35336107ee8201527f38313820302e393438303620312e3032303220312e3432353620312e3532373461080e8201527f73302e393331393220312e3034363620312e3234383320312e3636373263302e61082e8201527f333136333620302e363230363820302e343838303220312e3333333120302e3361084e8201527f3734333320322e303230342d302e313234383120302e37353435322d302e353961086e8201527f35393320312e343334382d312e3233313120312e383630372d302e363335313961088e8201527f20302e34323539342d312e3432323520302e36303336362d322e31383520302e6108ae8201527f35343436342d302e373632352d302e30353930312d312e343938392d302e33346108ce8201527f3639342d322e313331342d302e37373638342d302e36333235312d302e3432396108ee8201527f392d312e3136342d302e39393833362d312e353937332d312e363238352d302e61090e8201527f35363536362d302e38323236362d302e39363534322d312e373435322d312e3361092e8201527f3936342d322e363435372d302e34333039332d302e39303035372d302e39303461094e8201527f38332d312e373937322d312e353838372d322e353234352d302e39373831352d61096e8201527f312e303430342d322e333734382d312e363739362d332e383032312d312e373261098e8201527f34332d312e343237332d302e30343437352d322e3836363820302e35303935336109ae8201527f2d332e3838343720312e353131732d312e3539363520322e343338362d312e356109ce8201527f34313220332e3836353563302e303535333620312e3432363920302e373438316109ee8201527f3820322e3832303220312e3836323120332e3731333620302e37313939362030610a0e8201527f2e353737343320312e3538383120302e393431393620322e3437303420312e32610a2e8201527f31323720302e3838323320302e323730373620312e3738393120302e34353436610a4e8201527f3720322e3637343820302e373134303920302e3838353720302e323539343220610a6e8201527f312e37363120302e363030353820322e3530323620312e3134393920302e3734610a8e8201527f31363320302e353439333120312e3334333820312e3332363920312e35343120610aae8201527f322e3232383520302e313137323520302e353336313620302e30383739342031610ace8201527f2e313031322d302e303635303220312e363238322d302e313532393620302e35610aee8201527f323730382d302e343237373820312e303136322d302e373833323220312e3433610b0e8201527f34342d302e373130383820302e38333633362d312e3732383420312e33373433610b2e8201527f2d322e3739323120312e363435332d322e3132373420302e35343139362d342e610b4e8201527f3336303620302e30373236322d362e353439372d302e30393331332d312e3236610b6e8201527f39372d302e30393631342d322e353535362d302e30383738342d332e38303439610b8e8201527f20302e31353738322d312e3234393420302e32343536372d322e34363520302e610bae8201527f37333732362d332e34353720312e353335362d302e3731333220302e35373339610bce8201527f362d312e3330333520312e333033312d312e3639393520322e313238352d302e610bee8201527f333935393720302e38323534312d302e353935353120312e373436372d302e35610c0e8201527f3537363620322e3636313420302e303337383620302e393134363920302e3331610c2e8201527f3520312e3832303820302e383131313920322e3539303273312e323131392031610c4e8201527f2e3339383420322e3034363420312e3737343863312e3035313720302e343734610c6e8201527f333620322e3234363420302e353337383620332e3339353120302e3433303134610c8e8201527f20312e313438372d302e313037373220322e323735362d302e33373736342033610cae8201527f2e343137342d302e353432393973322e333233352d302e323233333520332e34610cce8201527f33343620302e303837343963302e353535353420302e313535343220312e3038610cee8201527f383120302e343033353320312e3534353220302e373535343873302e38333639610d0e8201527f3620302e383039373620312e3036393320312e3333373863302e323234323520610d2e8201527f302e3530393720302e333037353520312e3037363720302e323639333520312e610d4e8201527f363332322d302e3033383220302e35353535332d302e313935363720312e3039610d6e8201527f39372d302e343332373820312e363033362d302e343734323120312e30303737610d8e8201527f2d312e3235333520312e383430362d322e3038373520322e353738362d302e38610dae8201527f3334303420302e37333830332d312e3733353320312e333939382d322e353338610dce8201527f3220322e313731352d302e383032393120302e37373137382d312e3531363120610dee8201527f312e363734372d312e3836323420322e373333322d302e343637353520312e34610e0e8201527f3239322d302e313932353320332e3037393720302e373133313920342e323820610e2e8201527f302e393035373220312e3230303420322e3431373320312e3931373820332e39610e4e8201527f3220312e3836303420312e353032362d302e303537333720322e393535312d30610e6e8201527f2e383837393520332e373636372d322e3135333920302e38313135352d312e32610e8e8201527f36353920302e39353939332d322e3933323620302e33383437372d342e333231610eae820152631c91179f60e11b610ece820152610ed201919050565b60208082526000906060830183820185845b60028110156151bf57601f1980888603018452825180518087526151a1818989018a85016151cb565b601f0190911694909401850193509184019190840190600101615178565b50919695505050505050565b60005b838110156151e65781810151838201526020016151ce565b838111156151f5576000848401525b50505050565b60008261521657634e487b7160e01b81526012600452602481fd5b50069056fea2646970667358221220ca1f0b33e8eacc3d8baacf3539b1a482829a9787f039d0c069210f86c57cd2a664736f6c63430008040033",
			"opcodes": "PUSH1 0x80 PUSH1 0x40 MSTORE CALLVALUE DUP1 ISZERO PUSH2 0x10 JUMPI PUSH1 0x0 DUP1 REVERT JUMPDEST POP PUSH2 0x5251 DUP1 PUSH2 0x20 PUSH1 0x0 CODECOPY PUSH1 0x0 RETURN INVALID PUSH1 0x80 PUSH1 0x40 MSTORE CALLVALUE DUP1 ISZERO PUSH2 0x10 JUMPI PUSH1 0x0 DUP1 REVERT JUMPDEST POP PUSH1 0x4 CALLDATASIZE LT PUSH2 0x2B JUMPI PUSH1 0x0 CALLDATALOAD PUSH1 0xE0 SHR DUP1 PUSH4 0xAD711E9E EQ PUSH2 0x30 JUMPI JUMPDEST PUSH1 0x0 DUP1 REVERT JUMPDEST PUSH2 0x38 PUSH2 0x4E JUMP JUMPDEST PUSH1 0x40 MLOAD PUSH2 0x45 SWAP2 SWAP1 PUSH2 0x5166 JUMP JUMPDEST PUSH1 0x40 MLOAD DUP1 SWAP2 SUB SWAP1 RETURN JUMPDEST PUSH2 0x56 PUSH2 0x1307 JUMP JUMPDEST PUSH2 0x81 PUSH1 0x40 MLOAD DUP1 PUSH1 0x80 ADD PUSH1 0x40 MSTORE DUP1 PUSH1 0x60 DUP2 MSTORE PUSH1 0x20 ADD PUSH1 0x60 DUP2 MSTORE PUSH1 0x20 ADD PUSH1 0x60 DUP2 MSTORE PUSH1 0x20 ADD PUSH1 0x60 DUP2 MSTORE POP SWAP1 JUMP JUMPDEST PUSH1 0x0 PUSH1 0x40 MLOAD DUP1 PUSH1 0x60 ADD PUSH1 0x40 MSTORE DUP1 PUSH1 0x40 MLOAD DUP1 PUSH1 0x40 ADD PUSH1 0x40 MSTORE DUP1 PUSH1 0x7 DUP2 MSTORE PUSH1 0x20 ADD PUSH7 0x11B299B19BB11B PUSH1 0xC9 SHL DUP2 MSTORE POP DUP2 MSTORE PUSH1 0x20 ADD PUSH1 0x40 MLOAD DUP1 PUSH1 0x40 ADD PUSH1 0x40 MSTORE DUP1 PUSH1 0x7 DUP2 MSTORE PUSH1 0x20 ADD PUSH7 0x8D98CD88D0E19 PUSH1 0xCA SHL DUP2 MSTORE POP DUP2 MSTORE PUSH1 0x20 ADD PUSH1 0x40 MLOAD DUP1 PUSH1 0x40 ADD PUSH1 0x40 MSTORE DUP1 PUSH1 0x7 DUP2 MSTORE PUSH1 0x20 ADD PUSH7 0x11B09A9B1B19B3 PUSH1 0xC9 SHL DUP2 MSTORE POP DUP2 MSTORE POP PUSH2 0x105 PUSH1 0x3 PUSH2 0x12BA JUMP JUMPDEST PUSH1 0x3 DUP2 LT PUSH2 0x123 JUMPI PUSH4 0x4E487B71 PUSH1 0xE0 SHL PUSH1 0x0 MSTORE PUSH1 0x32 PUSH1 0x4 MSTORE PUSH1 0x24 PUSH1 0x0 REVERT JUMPDEST PUSH1 0x20 SWAP1 DUP2 MUL SWAP2 SWAP1 SWAP2 ADD MLOAD PUSH1 0x40 DUP1 MLOAD PUSH1 0xC0 DUP2 ADD DUP3 MSTORE PUSH1 0x7 PUSH1 0x80 DUP3 ADD DUP2 DUP2 MSTORE PUSH7 0x11B31A311C9C9B PUSH1 0xC9 SHL PUSH1 0xA0 DUP5 ADD MSTORE DUP3 MSTORE DUP3 MLOAD DUP1 DUP5 ADD DUP5 MSTORE DUP2 DUP2 MSTORE PUSH7 0x8CE4D988D598D PUSH1 0xCA SHL DUP2 DUP8 ADD MSTORE DUP3 DUP7 ADD MSTORE DUP3 MLOAD DUP1 DUP5 ADD DUP5 MSTORE DUP2 DUP2 MSTORE PUSH7 0x23376162613965 PUSH1 0xC8 SHL DUP2 DUP8 ADD MSTORE DUP3 DUP5 ADD MSTORE DUP3 MLOAD DUP1 DUP5 ADD SWAP1 SWAP4 MSTORE DUP3 MSTORE PUSH7 0x23663962336233 PUSH1 0xC8 SHL SWAP4 DUP3 ADD SWAP4 SWAP1 SWAP4 MSTORE PUSH1 0x60 DUP4 ADD MSTORE SWAP2 POP PUSH1 0x0 SWAP1 PUSH2 0x1BC PUSH1 0x4 PUSH2 0x12BA JUMP JUMPDEST PUSH1 0x4 DUP2 LT PUSH2 0x1DA JUMPI PUSH4 0x4E487B71 PUSH1 0xE0 SHL PUSH1 0x0 MSTORE PUSH1 0x32 PUSH1 0x4 MSTORE PUSH1 0x24 PUSH1 0x0 REVERT JUMPDEST PUSH1 0x20 MUL ADD MLOAD SWAP1 POP PUSH1 0x0 PUSH1 0x40 MLOAD DUP1 PUSH1 0x60 ADD PUSH1 0x40 MSTORE DUP1 PUSH1 0x40 MLOAD DUP1 PUSH1 0x40 ADD PUSH1 0x40 MSTORE DUP1 PUSH1 0x7 DUP2 MSTORE PUSH1 0x20 ADD PUSH7 0x11991B191B191B PUSH1 0xC9 SHL DUP2 MSTORE POP DUP2 MSTORE PUSH1 0x20 ADD PUSH1 0x40 MLOAD DUP1 PUSH1 0x40 ADD PUSH1 0x40 MSTORE DUP1 PUSH1 0x7 DUP2 MSTORE PUSH1 0x20 ADD PUSH7 0x11999A1832189B PUSH1 0xC9 SHL DUP2 MSTORE POP DUP2 MSTORE PUSH1 0x20 ADD PUSH1 0x40 MLOAD DUP1 PUSH1 0x40 ADD PUSH1 0x40 MSTORE DUP1 PUSH1 0x7 DUP2 MSTORE PUSH1 0x20 ADD PUSH7 0x119832191B181B PUSH1 0xC9 SHL DUP2 MSTORE POP DUP2 MSTORE POP PUSH2 0x265 PUSH1 0x3 PUSH2 0x12BA JUMP JUMPDEST PUSH1 0x3 DUP2 LT PUSH2 0x283 JUMPI PUSH4 0x4E487B71 PUSH1 0xE0 SHL PUSH1 0x0 MSTORE PUSH1 0x32 PUSH1 0x4 MSTORE PUSH1 0x24 PUSH1 0x0 REVERT JUMPDEST PUSH1 0x20 MUL ADD MLOAD SWAP1 POP PUSH1 0x0 DUP3 DUP5 PUSH1 0x40 MLOAD PUSH1 0x20 ADD PUSH2 0x29F SWAP3 SWAP2 SWAP1 PUSH2 0x13B5 JUMP JUMPDEST PUSH1 0x40 MLOAD PUSH1 0x20 DUP2 DUP4 SUB SUB DUP2 MSTORE SWAP1 PUSH1 0x40 MSTORE SWAP1 POP PUSH1 0x0 PUSH2 0x2BC PUSH1 0x4 PUSH2 0x12BA JUMP JUMPDEST SWAP1 POP PUSH1 0x0 PUSH1 0x40 MLOAD DUP1 PUSH1 0x80 ADD PUSH1 0x40 MSTORE DUP1 DUP9 PUSH1 0x20 ADD MLOAD PUSH1 0x40 MLOAD PUSH1 0x20 ADD PUSH2 0x2E0 SWAP2 SWAP1 PUSH2 0x2F1B JUMP JUMPDEST PUSH1 0x40 MLOAD PUSH1 0x20 DUP2 DUP4 SUB SUB DUP2 MSTORE SWAP1 PUSH1 0x40 MSTORE DUP2 MSTORE PUSH1 0x20 ADD DUP9 PUSH1 0x20 ADD MLOAD DUP10 PUSH1 0x20 ADD MLOAD PUSH1 0x40 MLOAD PUSH1 0x20 ADD PUSH2 0x30F SWAP3 SWAP2 SWAP1 PUSH2 0x181D JUMP JUMPDEST PUSH1 0x40 MLOAD PUSH1 0x20 DUP2 DUP4 SUB SUB DUP2 MSTORE SWAP1 PUSH1 0x40 MSTORE DUP2 MSTORE PUSH1 0x20 ADD DUP9 PUSH1 0x20 ADD MLOAD PUSH1 0x40 MLOAD PUSH1 0x20 ADD PUSH2 0x338 SWAP2 SWAP1 PUSH2 0x364C JUMP JUMPDEST PUSH1 0x40 MLOAD PUSH1 0x20 DUP2 DUP4 SUB SUB DUP2 MSTORE SWAP1 PUSH1 0x40 MSTORE DUP2 MSTORE PUSH1 0x20 ADD DUP9 PUSH1 0x20 ADD MLOAD PUSH1 0x40 MLOAD PUSH1 0x20 ADD PUSH2 0x361 SWAP2 SWAP1 PUSH2 0x3AF2 JUMP JUMPDEST PUSH1 0x40 MLOAD PUSH1 0x20 DUP2 DUP4 SUB SUB DUP2 MSTORE SWAP1 PUSH1 0x40 MSTORE DUP2 MSTORE POP DUP3 PUSH1 0x4 DUP2 LT PUSH2 0x392 JUMPI PUSH4 0x4E487B71 PUSH1 0xE0 SHL PUSH1 0x0 MSTORE PUSH1 0x32 PUSH1 0x4 MSTORE PUSH1 0x24 PUSH1 0x0 REVERT JUMPDEST PUSH1 0x20 MUL ADD MLOAD SWAP1 POP PUSH1 0x0 PUSH2 0x3A5 PUSH1 0x4 PUSH2 0x12BA JUMP JUMPDEST SWAP1 POP PUSH1 0x0 PUSH1 0x40 MLOAD DUP1 PUSH1 0x80 ADD PUSH1 0x40 MSTORE DUP1 DUP9 PUSH1 0x40 MLOAD PUSH1 0x20 ADD PUSH2 0x3C5 SWAP2 SWAP1 PUSH2 0x2CA4 JUMP JUMPDEST PUSH1 0x40 MLOAD PUSH1 0x20 DUP2 DUP4 SUB SUB DUP2 MSTORE SWAP1 PUSH1 0x40 MSTORE DUP2 MSTORE PUSH1 0x20 ADD DUP9 PUSH1 0x40 MLOAD PUSH1 0x20 ADD PUSH2 0x3EA SWAP2 SWAP1 PUSH2 0x3F2D JUMP JUMPDEST PUSH1 0x40 MLOAD PUSH1 0x20 DUP2 DUP4 SUB SUB DUP2 MSTORE SWAP1 PUSH1 0x40 MSTORE DUP2 MSTORE PUSH1 0x20 ADD DUP9 PUSH1 0x40 MLOAD PUSH1 0x20 ADD PUSH2 0x40F SWAP2 SWAP1 PUSH2 0x1B5A JUMP JUMPDEST PUSH1 0x40 MLOAD PUSH1 0x20 DUP2 DUP4 SUB SUB DUP2 MSTORE SWAP1 PUSH1 0x40 MSTORE DUP2 MSTORE PUSH1 0x20 ADD PUSH1 0x40 MLOAD DUP1 PUSH1 0x20 ADD PUSH1 0x40 MSTORE DUP1 PUSH1 0x0 DUP2 MSTORE POP DUP2 MSTORE POP DUP3 PUSH1 0x4 DUP2 LT PUSH2 0x455 JUMPI PUSH4 0x4E487B71 PUSH1 0xE0 SHL PUSH1 0x0 MSTORE PUSH1 0x32 PUSH1 0x4 MSTORE PUSH1 0x24 PUSH1 0x0 REVERT JUMPDEST PUSH1 0x20 MUL ADD MLOAD SWAP1 POP PUSH1 0x0 PUSH2 0x468 PUSH1 0x4 PUSH2 0x12BA JUMP JUMPDEST SWAP1 POP PUSH1 0x0 PUSH1 0x40 MLOAD DUP1 PUSH1 0x80 ADD PUSH1 0x40 MSTORE DUP1 PUSH1 0x40 MLOAD PUSH1 0x20 ADD PUSH2 0x7EE SWAP1 PUSH32 0x3C7061746820643D226D36352E3632382036382E3739342D322E303439382D31 DUP2 MSTORE PUSH32 0x2E363539392D312E3938323220312E3734303622202F3E3C7061746820643D22 PUSH1 0x20 DUP3 ADD MSTORE PUSH32 0x6D36332E3538372036372E323131732D302E32353930332D322E323133322031 PUSH1 0x40 DUP3 ADD MSTORE PUSH32 0x2E383234352D322E3732303463312E393539372D302E343731343520322E3930 PUSH1 0x60 DUP3 ADD MSTORE PUSH32 0x353720312E3639343520322E3930353720312E3639343522202F3E3C70617468 PUSH1 0x80 DUP3 ADD MSTORE PUSH32 0x20643D226D36332E3538372036372E32313173302E31373131392D322E323234 PUSH1 0xA0 DUP3 ADD MSTORE PUSH32 0x372D312E393933352D322E36323832632D322E303338352D302E333832372D32 PUSH1 0xC0 DUP3 ADD MSTORE PUSH32 0x2E39313720312E383231332D322E39313720312E3832313322202F3E3C706174 PUSH1 0xE0 DUP3 ADD MSTORE PUSH32 0x6820643D226D35372E3336342037322E353638632D302E353539393120302E34 PUSH2 0x100 DUP3 ADD MSTORE PUSH32 0x363837352D312E3431303620302E34353238322D312E393633392D302E303530 PUSH2 0x120 DUP3 ADD MSTORE PUSH32 0x362D302E35333931372D302E3530342D302E35353734382D312E333038342D30 PUSH2 0x140 DUP3 ADD MSTORE PUSH32 0x2E303536312D312E383331386C322E3032352D312E3838383620322E30323439 PUSH2 0x160 DUP3 ADD MSTORE PUSH32 0x20312E3838383663302E353031333520302E353233333720302E343831383420 PUSH2 0x180 DUP3 ADD MSTORE PUSH32 0x312E333331322D302E3035363120312E383331382D302E353836393220302E35 PUSH2 0x1A0 DUP3 ADD MSTORE PUSH32 0x373237322D312E3439393320302E34333038332D312E3937333720302E303530 PUSH2 0x1C0 DUP3 ADD MSTORE PUSH32 0x367A22202F3E3C7061746820643D226D36392E3237312037322E3535632D302E PUSH2 0x1E0 DUP3 ADD MSTORE PUSH32 0x3536303120302E343632352D312E34313120302E34343637372D312E39363436 PUSH2 0x200 DUP3 ADD MSTORE PUSH32 0x2D302E303439392D302E35333933362D302E34393732362D302E35353736382D PUSH2 0x220 DUP3 ADD MSTORE PUSH32 0x312E323930392D302E303536322D312E383037336C322E303235362D312E3836 PUSH2 0x240 DUP3 ADD MSTORE PUSH32 0x333420322E3032353620312E3836333463302E353031353320302E3531363339 PUSH2 0x260 DUP3 ADD MSTORE PUSH32 0x20302E34383220312E333133342D302E3035363220312E383037332D302E3538 PUSH2 0x280 DUP3 ADD MSTORE PUSH32 0x37313120302E35363530382D312E3439393820302E34323530392D312E393734 PUSH2 0x2A0 DUP3 ADD MSTORE PUSH13 0x19901817181A1C9CBD1110179F PUSH1 0x99 SHL PUSH2 0x2C0 DUP3 ADD MSTORE PUSH2 0x2CD ADD SWAP1 JUMP JUMPDEST PUSH1 0x40 MLOAD PUSH1 0x20 DUP2 DUP4 SUB SUB DUP2 MSTORE SWAP1 PUSH1 0x40 MSTORE DUP2 MSTORE PUSH1 0x20 ADD PUSH1 0x40 MLOAD PUSH1 0x20 ADD PUSH2 0x9FB SWAP1 PUSH32 0x3C7061746820643D226D36312E3237382036392E32333520322E32382D312E38 DUP2 MSTORE PUSH32 0x3820322E323820312E383822202F3E3C7061746820643D226D36332E35353820 PUSH1 0x20 DUP3 ADD MSTORE PUSH32 0x36372E323335762D312E383822202F3E3C7061746820643D226D36302E303933 PUSH1 0x40 DUP3 ADD MSTORE PUSH32 0x2036362E32333573332E35342D332E393820362E393320302E31343822202F3E PUSH1 0x60 DUP3 ADD MSTORE PUSH32 0x3C7061746820643D226D37312E3831382037322E32333563302D312E32372D30 PUSH1 0x80 DUP3 ADD MSTORE PUSH32 0x2E37392D322E33312D312E37362D322E33312D302E39373320302D312E373620 PUSH1 0xA0 DUP3 ADD MSTORE PUSH32 0x312E30332D312E373620322E3331203020312E323720302E37393120322E3331 PUSH1 0xC0 DUP3 ADD MSTORE PUSH32 0x20312E373620322E333120302E393735203020312E37362D312E303320312E37 PUSH1 0xE0 DUP3 ADD MSTORE PUSH32 0x362D322E333122202F3E3C7061746820643D226D35382E3831382037322E3233 PUSH2 0x100 DUP3 ADD MSTORE PUSH32 0x3563302D312E32372D302E3738382D322E33312D312E37362D322E33312D302E PUSH2 0x120 DUP3 ADD MSTORE PUSH32 0x39373320302D312E373620312E30332D312E373620322E3331203020312E3237 PUSH2 0x140 DUP3 ADD MSTORE PUSH32 0x20302E37393120322E333120312E373620322E333120302E393736203020312E PUSH2 0x160 DUP3 ADD MSTORE PUSH21 0x1B9B16989718199018971B9B16991719989110179F PUSH1 0x59 SHL PUSH2 0x180 DUP3 ADD MSTORE PUSH2 0x195 ADD SWAP1 JUMP JUMPDEST PUSH1 0x40 MLOAD PUSH1 0x20 DUP2 DUP4 SUB SUB DUP2 MSTORE SWAP1 PUSH1 0x40 MSTORE DUP2 MSTORE PUSH1 0x20 ADD PUSH1 0x40 MLOAD PUSH1 0x20 ADD PUSH2 0xBD4 SWAP1 PUSH32 0x3C7061746820643D226D36312E3733372036362E33393663302D322E35392033 DUP2 MSTORE PUSH32 0x2E38362D322E353620332E38362D302E303234203020322E35342D332E383620 PUSH1 0x20 DUP3 ADD MSTORE PUSH32 0x322E36312D332E383620302E3032347A22202F3E3C7061746820643D226D3638 PUSH1 0x40 DUP3 ADD MSTORE PUSH32 0x2E3132372037312E33393663302D312E313120302E3638372D322E303120312E PUSH1 0x60 DUP3 ADD MSTORE PUSH32 0x35342D322E303120302E383438203020312E353420302E39303120312E353420 PUSH1 0x80 DUP3 ADD MSTORE PUSH32 0x322E3031732D302E36383920322E30312D312E353420322E3031632D302E3835 PUSH1 0xA0 DUP3 ADD MSTORE PUSH32 0x20302D312E35342D302E3930312D312E35342D322E303122202F3E3C70617468 PUSH1 0xC0 DUP3 ADD MSTORE PUSH32 0x20643D226D35362E3132372037312E33393663302D312E313120302E3638382D PUSH1 0xE0 DUP3 ADD MSTORE PUSH32 0x322E303120312E35342D322E303120302E383438203020312E353420302E3930 PUSH2 0x100 DUP3 ADD MSTORE PUSH32 0x3120312E353420322E3031203020312E31312D302E36383920322E30312D312E PUSH2 0x120 DUP3 ADD MSTORE PUSH32 0x353420322E30312D302E38343920302D312E35342D302E3930312D312E35342D PUSH2 0x140 DUP3 ADD MSTORE PUSH8 0x191718189110179F PUSH1 0xC1 SHL PUSH2 0x160 DUP3 ADD MSTORE PUSH2 0x168 ADD SWAP1 JUMP JUMPDEST PUSH1 0x40 MLOAD PUSH1 0x20 DUP2 DUP4 SUB SUB DUP2 MSTORE SWAP1 PUSH1 0x40 MSTORE DUP2 MSTORE PUSH1 0x20 ADD PUSH1 0x40 MLOAD PUSH1 0x20 ADD PUSH2 0xED3 SWAP1 PUSH32 0x3C7061746820643D226D36382E3539362037312E30373663302D312E30353637 DUP2 MSTORE PUSH32 0x20302E35373937362D312E3930383520312E323934372D312E3930383520302E PUSH1 0x20 DUP3 ADD MSTORE PUSH32 0x3731353838203020312E3239343720302E383537363420312E3239343720312E PUSH1 0x40 DUP3 ADD MSTORE PUSH32 0x39303835732D302E353831363520312E393038352D312E3239343720312E3930 PUSH1 0x60 DUP3 ADD MSTORE PUSH32 0x3835632D302E373137373920302D312E323934372D302E38353736342D312E32 PUSH1 0x80 DUP3 ADD MSTORE PUSH32 0x3934372D312E3930383522202F3E3C7061746820643D226D35362E3739322037 PUSH1 0xA0 DUP3 ADD MSTORE PUSH32 0x312E30373663302D312E3035363720302E353830372D312E3930383520312E32 PUSH1 0xC0 DUP3 ADD MSTORE PUSH32 0x3934372D312E3930383520302E3731353838203020312E3239343720302E3835 PUSH1 0xE0 DUP3 ADD MSTORE PUSH32 0x37363620312E3239343720312E39303835732D302E353831363620312E393038 PUSH2 0x100 DUP3 ADD MSTORE PUSH32 0x352D312E3239343720312E39303835632D302E373136383320302D312E323934 PUSH2 0x120 DUP3 ADD MSTORE PUSH32 0x372D302E38353736362D312E323934372D312E3930383522202F3E3C70617468 PUSH2 0x140 DUP3 ADD MSTORE PUSH32 0x20643D226D36332E3938352036372E38323173302E32303836352D322E373131 PUSH2 0x160 DUP3 ADD MSTORE PUSH32 0x362D322E343239372D332E32303333632D322E343834362D302E34363634342D PUSH2 0x180 DUP3 ADD MSTORE PUSH32 0x332E3535353320322E323139382D332E3535353320322E3231393822202F3E3C PUSH2 0x1A0 DUP3 ADD MSTORE PUSH32 0x7061746820643D226D36332E3938352036372E383231732D302E33313537322D PUSH2 0x1C0 DUP3 ADD MSTORE PUSH32 0x322E3639373520322E323233382D332E3331353763322E333838352D302E3537 PUSH2 0x1E0 DUP3 ADD MSTORE PUSH32 0x34363220332E3534313620322E3036353320332E3534313620322E3036353322 PUSH2 0x200 DUP3 ADD MSTORE PUSH32 0x202F3E3C7061746820643D226D36362E3437322036392E3735312D322E343938 PUSH2 0x220 DUP3 ADD MSTORE PUSH32 0x342D322E303233312D322E34313620322E3132313522202F3E00000000000000 PUSH2 0x240 DUP3 ADD MSTORE PUSH2 0x259 ADD SWAP1 JUMP JUMPDEST PUSH1 0x40 MLOAD PUSH1 0x20 DUP2 DUP4 SUB SUB DUP2 MSTORE SWAP1 PUSH1 0x40 MSTORE DUP2 MSTORE POP DUP3 PUSH1 0x4 DUP2 LT PUSH2 0xF04 JUMPI PUSH4 0x4E487B71 PUSH1 0xE0 SHL PUSH1 0x0 MSTORE PUSH1 0x32 PUSH1 0x4 MSTORE PUSH1 0x24 PUSH1 0x0 REVERT JUMPDEST PUSH1 0x20 MUL ADD MLOAD SWAP1 POP PUSH1 0x0 PUSH2 0xF17 PUSH1 0x2 PUSH2 0x12BA JUMP JUMPDEST SWAP1 POP PUSH1 0x0 PUSH1 0x40 MLOAD DUP1 PUSH1 0x40 ADD PUSH1 0x40 MSTORE DUP1 PUSH1 0x40 MLOAD PUSH1 0x20 ADD PUSH2 0xFD8 SWAP1 PUSH32 0x3C7061746820643D226D37362E30322034382E30333963302D362E33312D352E DUP2 MSTORE PUSH32 0x332D31312E342D31312E382D31312E342D362E353420302D31312E3820352E31 PUSH1 0x20 DUP3 ADD MSTORE PUSH32 0x322D31312E382031312E34203020362E333120352E332031312E342031312E38 PUSH1 0x40 DUP3 ADD MSTORE PUSH32 0x2031312E3420362E353420302031312E382D352E31322031312E382D31312E34 PUSH1 0x60 DUP3 ADD MSTORE PUSH4 0x3D11179F PUSH1 0xE1 SHL PUSH1 0x80 DUP3 ADD MSTORE PUSH1 0x84 ADD SWAP1 JUMP JUMPDEST PUSH1 0x40 MLOAD PUSH1 0x20 DUP2 DUP4 SUB SUB DUP2 MSTORE SWAP1 PUSH1 0x40 MSTORE DUP2 MSTORE PUSH1 0x20 ADD PUSH1 0x40 MLOAD PUSH1 0x20 ADD PUSH2 0x10CE SWAP1 PUSH32 0x3C7061746820643D226D36342E3232392035372E30333963322E393220322E36 DUP2 MSTORE PUSH32 0x3220372E343320322E35332031302E322D302E32383320322E38312D322E3832 PUSH1 0x20 DUP3 ADD MSTORE PUSH32 0x20322E39312D372E333120302E3239332D31302E326C2D31302E352D31302E36 PUSH1 0x40 DUP3 ADD MSTORE PUSH32 0x2D31302E352031302E36632D322E363220322E39332D322E353220372E343320 PUSH1 0x60 DUP3 ADD MSTORE PUSH32 0x302E3239332031302E3220322E383220322E383120372E333220322E39312031 PUSH1 0x80 DUP3 ADD MSTORE PUSH14 0x181719101817191C19BD1110179F PUSH1 0x91 SHL PUSH1 0xA0 DUP3 ADD MSTORE PUSH1 0xAE ADD SWAP1 JUMP JUMPDEST PUSH1 0x40 MLOAD PUSH1 0x20 DUP2 DUP4 SUB SUB DUP2 MSTORE SWAP1 PUSH1 0x40 MSTORE DUP2 MSTORE POP DUP3 PUSH1 0x2 DUP2 LT PUSH2 0x10FF JUMPI PUSH4 0x4E487B71 PUSH1 0xE0 SHL PUSH1 0x0 MSTORE PUSH1 0x32 PUSH1 0x4 MSTORE PUSH1 0x24 PUSH1 0x0 REVERT JUMPDEST PUSH1 0x20 MUL ADD MLOAD SWAP1 POP PUSH1 0x0 DUP11 PUSH1 0x40 MLOAD PUSH1 0x20 ADD PUSH2 0x1119 SWAP2 SWAP1 PUSH2 0x3BB3 JUMP JUMPDEST PUSH1 0x40 MLOAD PUSH1 0x20 DUP2 DUP4 SUB SUB DUP2 MSTORE SWAP1 PUSH1 0x40 MSTORE SWAP1 POP PUSH1 0x0 DUP12 DUP6 DUP14 DUP16 DUP7 PUSH1 0x40 MLOAD PUSH1 0x20 ADD PUSH2 0x1145 SWAP6 SWAP5 SWAP4 SWAP3 SWAP2 SWAP1 PUSH2 0x1711 JUMP JUMPDEST PUSH1 0x40 DUP1 MLOAD PUSH1 0x1F NOT DUP2 DUP5 SUB ADD DUP2 MSTORE DUP3 DUP3 ADD SWAP1 SWAP2 MSTORE SWAP2 POP DUP1 PUSH2 0x116C DUP14 DUP13 DUP12 DUP7 DUP9 PUSH1 0x60 DUP8 ADD PUSH2 0x134A JUMP JUMPDEST PUSH1 0x40 MLOAD PUSH1 0x20 DUP2 DUP4 SUB SUB DUP2 MSTORE SWAP1 PUSH1 0x40 MSTORE DUP2 MSTORE PUSH1 0x20 ADD DUP6 DUP9 DUP14 DUP13 PUSH1 0x40 MLOAD PUSH1 0x20 ADD PUSH2 0x1294 SWAP5 SWAP4 SWAP3 SWAP2 SWAP1 PUSH32 0x7B2274726169745F7479706522203A2022486F6C65222C2276616C756522203A DUP2 MSTORE PUSH2 0x1011 PUSH1 0xF1 SHL PUSH1 0x20 DUP3 ADD MSTORE PUSH1 0x22 DUP2 ADD SWAP5 SWAP1 SWAP5 MSTORE PUSH32 0x22207D2C7B2274726169745F7479706522203A202246616365222C2276616C75 PUSH1 0x42 DUP6 ADD MSTORE PUSH6 0x3291101D1011 PUSH1 0xD1 SHL PUSH1 0x62 DUP6 ADD MSTORE PUSH1 0x68 DUP5 ADD SWAP3 SWAP1 SWAP3 MSTORE PUSH32 0x22207D2C7B2274726169745F7479706522203A20224963696E67222C2276616C PUSH1 0x88 DUP5 ADD MSTORE PUSH7 0x3AB291101D1011 PUSH1 0xC9 SHL PUSH1 0xA8 DUP5 ADD MSTORE PUSH1 0xAF DUP4 ADD MSTORE PUSH32 0x22207D2C7B2274726169745F7479706522203A2022537072696E6B6C6573222C PUSH1 0xCF DUP4 ADD MSTORE PUSH11 0x113B30B63AB291101D1011 PUSH1 0xA9 SHL PUSH1 0xEF DUP4 ADD MSTORE PUSH1 0xFA DUP3 ADD MSTORE PUSH4 0x8881F4B PUSH1 0xE2 SHL PUSH2 0x11A DUP3 ADD MSTORE PUSH2 0x11E ADD SWAP1 JUMP JUMPDEST PUSH1 0x40 MLOAD PUSH1 0x20 DUP2 DUP4 SUB SUB DUP2 MSTORE SWAP1 PUSH1 0x40 MSTORE DUP2 MSTORE POP SWAP16 POP POP POP POP POP POP POP POP POP POP POP POP POP POP POP POP SWAP1 JUMP JUMPDEST PUSH1 0x0 DUP1 TIMESTAMP DIFFICULTY PUSH1 0x40 MLOAD PUSH1 0x20 ADD PUSH2 0x12D9 SWAP3 SWAP2 SWAP1 SWAP2 DUP3 MSTORE PUSH1 0x20 DUP3 ADD MSTORE PUSH1 0x40 ADD SWAP1 JUMP JUMPDEST PUSH1 0x40 DUP1 MLOAD PUSH1 0x1F NOT DUP2 DUP5 SUB ADD DUP2 MSTORE SWAP2 SWAP1 MSTORE DUP1 MLOAD PUSH1 0x20 SWAP1 SWAP2 ADD KECCAK256 PUSH1 0xFF AND SWAP1 POP PUSH2 0x1300 DUP4 DUP3 PUSH2 0x51FB JUMP JUMPDEST SWAP4 SWAP3 POP POP POP JUMP JUMPDEST PUSH1 0x40 MLOAD DUP1 PUSH1 0x40 ADD PUSH1 0x40 MSTORE DUP1 PUSH1 0x2 SWAP1 JUMPDEST PUSH1 0x60 DUP2 MSTORE PUSH1 0x20 ADD SWAP1 PUSH1 0x1 SWAP1 SUB SWAP1 DUP2 PUSH2 0x1316 JUMPI SWAP1 POP POP SWAP1 JUMP JUMPDEST PUSH1 0x0 DUP2 MLOAD PUSH2 0x1340 DUP2 DUP6 PUSH1 0x20 DUP7 ADD PUSH2 0x51CB JUMP JUMPDEST SWAP3 SWAP1 SWAP3 ADD SWAP3 SWAP2 POP POP JUMP JUMPDEST PUSH1 0x0 DUP7 MLOAD PUSH2 0x135C DUP2 DUP5 PUSH1 0x20 DUP12 ADD PUSH2 0x51CB JUMP JUMPDEST DUP7 MLOAD SWAP1 DUP4 ADD SWAP1 PUSH2 0x1370 DUP2 DUP4 PUSH1 0x20 DUP12 ADD PUSH2 0x51CB JUMP JUMPDEST DUP7 MLOAD SWAP2 ADD SWAP1 PUSH2 0x1383 DUP2 DUP4 PUSH1 0x20 DUP11 ADD PUSH2 0x51CB JUMP JUMPDEST DUP6 MLOAD SWAP2 ADD SWAP1 PUSH2 0x1396 DUP2 DUP4 PUSH1 0x20 DUP10 ADD PUSH2 0x51CB JUMP JUMPDEST DUP5 MLOAD SWAP2 ADD SWAP1 PUSH2 0x13A9 DUP2 DUP4 PUSH1 0x20 DUP9 ADD PUSH2 0x51CB JUMP JUMPDEST ADD SWAP8 SWAP7 POP POP POP POP POP POP POP JUMP JUMPDEST PUSH32 0x3C7376672076696577426F783D22302030203132372E3438203132372E343822 DUP2 MSTORE PUSH32 0x20786D6C6E733A786C696E6B3D22687474703A2F2F7777772E77332E6F72672F PUSH1 0x20 DUP3 ADD MSTORE PUSH32 0x313939392F786C696E6B2220786D6C6E733D22687474703A2F2F7777772E7733 PUSH1 0x40 DUP3 ADD MSTORE PUSH32 0x2E6F72672F323030302F737667223E3C67207472616E73666F726D3D22726F74 PUSH1 0x60 DUP3 ADD MSTORE PUSH32 0x617465283138302036332E3733392036332E3733392922207374796C653D2273 PUSH1 0x80 DUP3 ADD MSTORE PUSH32 0x74726F6B652D6C696E656361703A726F756E643B7374726F6B652D6C696E656A PUSH1 0xA0 DUP3 ADD MSTORE PUSH32 0x6F696E3A726F756E643B66696C6C3A6E6F6E653B223E3C7265637420636C6173 PUSH1 0xC0 DUP3 ADD MSTORE PUSH32 0x733D226267222077696474683D223132372E343822206865696768743D223132 PUSH1 0xE0 DUP3 ADD MSTORE PUSH12 0x1B971A1C11103334B6361E91 PUSH1 0xA1 SHL PUSH2 0x100 DUP3 ADD MSTORE PUSH1 0x0 PUSH2 0x10C DUP5 MLOAD PUSH2 0x150F DUP2 DUP4 DUP7 ADD PUSH1 0x20 DUP10 ADD PUSH2 0x51CB JUMP JUMPDEST DUP1 DUP5 ADD SWAP1 POP PUSH32 0x222F3E3C7061746820643D226D3130322E37332039312E32323563382E363220 DUP3 DUP3 ADD MSTORE PUSH32 0x31362E312D322E32382032382E382D31342E332032342E312D31322E392D352E PUSH2 0x12C DUP3 ADD MSTORE PUSH32 0x30352D31352E322D33302E372D31352E342D33322E312D322E393620302E3731 PUSH2 0x14C DUP3 ADD MSTORE PUSH32 0x312D362E303620312E30392D392E323520312E30392D332E313720302D362E32 PUSH2 0x16C DUP3 ADD MSTORE PUSH32 0x352D302E3338312D392E322D312E30382D302E31343220312E35332D322E3520 PUSH2 0x18C DUP3 ADD MSTORE PUSH32 0x32372D31352E342033322E312D31322E3120342E372D32332E312D372E36352D PUSH2 0x1AC DUP3 ADD MSTORE PUSH32 0x31342E342D32342E3120342E34382D382E34372031322E372D31362E34203132 PUSH2 0x1CC DUP3 ADD MSTORE PUSH32 0x2E372D31362E342D372E342D362E36382D31312E382D31362E362D31312E382D PUSH2 0x1EC DUP3 ADD MSTORE PUSH32 0x32372E3120302D32302E322031372E312D33362E362033382E312D33362E3673 PUSH2 0x20C DUP3 ADD MSTORE PUSH32 0x33382E312031362E342033382E312033362E3663302031302E352D342E333820 PUSH2 0x22C DUP3 ADD MSTORE PUSH32 0x32302E342D31312E382032372E3120302E3139372D302E333232203020302030 PUSH2 0x24C DUP3 ADD MSTORE PUSH32 0x203073382E313220372E39352031322E362031362E34222066696C6C3D220000 PUSH2 0x26C DUP3 ADD MSTORE PUSH2 0x1707 PUSH2 0x16F7 PUSH2 0x28A DUP4 ADD DUP8 PUSH2 0x132E JUMP JUMPDEST PUSH4 0x1110179F PUSH1 0xE1 SHL DUP2 MSTORE PUSH1 0x4 ADD SWAP1 JUMP JUMPDEST SWAP7 SWAP6 POP POP POP POP POP POP JUMP JUMPDEST PUSH32 0x3C67207374796C653D227374726F6B652D77696474683A313B7374726F6B653A DUP2 MSTORE PUSH1 0x0 PUSH1 0x20 DUP8 MLOAD PUSH2 0x1749 DUP2 DUP4 DUP7 ADD DUP5 DUP13 ADD PUSH2 0x51CB JUMP JUMPDEST DUP1 DUP5 ADD SWAP1 POP PUSH3 0x1D911F PUSH1 0xE9 SHL DUP1 DUP4 DUP4 ADD MSTORE DUP9 MLOAD PUSH2 0x176C DUP2 PUSH1 0x23 DUP6 ADD DUP7 DUP14 ADD PUSH2 0x51CB JUMP JUMPDEST PUSH32 0x3C2F673E3C67207374796C653D227374726F6B652D77696474683A333B737472 PUSH1 0x23 SWAP4 SWAP1 SWAP2 ADD SWAP3 DUP4 ADD MSTORE PUSH4 0x37B5B29D PUSH1 0xE1 SHL PUSH1 0x43 DUP4 ADD MSTORE DUP8 MLOAD PUSH2 0x17B6 DUP2 PUSH1 0x47 DUP6 ADD DUP7 DUP13 ADD PUSH2 0x51CB JUMP JUMPDEST PUSH6 0x1DB334B6361D PUSH1 0xD1 SHL PUSH1 0x47 SWAP4 SWAP1 SWAP2 ADD SWAP3 DUP4 ADD MSTORE DUP7 MLOAD PUSH2 0x17DC DUP2 PUSH1 0x4D DUP6 ADD DUP7 DUP12 ADD PUSH2 0x51CB JUMP JUMPDEST PUSH1 0x4D SWAP3 ADD SWAP2 DUP3 ADD MSTORE DUP5 MLOAD PUSH2 0x17F6 DUP2 PUSH1 0x50 DUP5 ADD DUP6 DUP10 ADD PUSH2 0x51CB JUMP JUMPDEST PUSH2 0x180F PUSH1 0x50 DUP3 DUP5 ADD ADD PUSH4 0x1E17B39F PUSH1 0xE1 SHL DUP2 MSTORE PUSH1 0x4 ADD SWAP1 JUMP JUMPDEST SWAP11 SWAP10 POP POP POP POP POP POP POP POP POP POP JUMP JUMPDEST PUSH11 0x1E339039BA3937B5B29E91 PUSH1 0xA9 SHL DUP2 MSTORE DUP3 MLOAD PUSH1 0x0 SWAP1 PUSH2 0x1844 DUP2 PUSH1 0xB DUP6 ADD PUSH1 0x20 DUP9 ADD PUSH2 0x51CB JUMP JUMPDEST PUSH8 0x11103334B6361E91 PUSH1 0xC1 SHL PUSH1 0xB SWAP2 DUP5 ADD SWAP2 DUP3 ADD MSTORE DUP4 MLOAD PUSH2 0x186C DUP2 PUSH1 0x13 DUP5 ADD PUSH1 0x20 DUP9 ADD PUSH2 0x51CB JUMP JUMPDEST PUSH32 0x22207374726F6B652D77696474683D2232223E3C7061746820643D226D34312E PUSH1 0x13 SWAP3 SWAP1 SWAP2 ADD SWAP2 DUP3 ADD MSTORE PUSH32 0x342035302E30332D362E39392D332E33732D362E393520342E32332D372E3531 PUSH1 0x33 DUP3 ADD MSTORE PUSH32 0x20322E3136632D342E33382D31362E312031362E352D33372E322033372E362D PUSH1 0x53 DUP3 ADD MSTORE PUSH32 0x33382E3320382E343920302E353820323020352E31312032362E392031312E37 PUSH1 0x73 DUP3 ADD MSTORE PUSH32 0x20362E3220362E39382031312E332031362E382031302E322032362E342D302E PUSH1 0x93 DUP3 ADD MSTORE PUSH32 0x353320332E31352D382E34362D322E31352D382E34362D322E31356C2D362E34 PUSH1 0xB3 DUP3 ADD MSTORE PUSH32 0x3120332E33352D342E39312D332E30362D352E353120302E3536322D32332E37 PUSH1 0xD3 DUP3 ADD MSTORE PUSH32 0x20302E33372D342E39332D312E34387A22207374796C653D227374726F6B653A PUSH1 0xF3 DUP3 ADD MSTORE PUSH32 0x6E6F6E653B222F3E3C7061746820643D226D32372E312034392E353163312E35 PUSH2 0x113 DUP3 ADD MSTORE PUSH32 0x3920302E36353820332E353720302E31333120342E39312D312E343920312E37 PUSH2 0x133 DUP3 ADD MSTORE PUSH32 0x392D322E313620342E34382D312E333720352E393720302E34333220312E3439 PUSH2 0x153 DUP3 ADD MSTORE PUSH32 0x20312E3820342E353820312E393220362E35372D302E34333220312E34342D31 PUSH2 0x173 DUP3 ADD MSTORE PUSH32 0x2E3720342E35342D322E343520372E303420302E3031383422207374796C653D PUSH2 0x193 DUP3 ADD MSTORE PUSH32 0x2266696C6C3A6E6F6E653B222F3E3C7061746820643D226D3130312E30372034 PUSH2 0x1B3 DUP3 ADD MSTORE PUSH32 0x392E3531632D312E363220302E3635382D332E363520302E3133312D352E3032 PUSH2 0x1D3 DUP3 ADD MSTORE PUSH32 0x2D312E34392D312E38332D322E31362D342E35382D312E33372D362E31312030 PUSH2 0x1F3 DUP3 ADD MSTORE PUSH32 0x2E3433322D312E353320312E382D342E363820312E39322D362E37322D302E34 PUSH2 0x213 DUP3 ADD MSTORE PUSH32 0x33322D312E34372D312E372D342E36352D322E34352D372E3220302E30313834 PUSH2 0x233 DUP3 ADD MSTORE PUSH32 0x22207374796C653D2266696C6C3A6E6F6E653B222F3E3C2F673E000000000000 PUSH2 0x253 DUP3 ADD MSTORE PUSH2 0x26D ADD SWAP5 SWAP4 POP POP POP POP JUMP JUMPDEST PUSH11 0x1E339039BA3937B5B29E91 PUSH1 0xA9 SHL DUP2 MSTORE DUP2 MLOAD PUSH1 0x0 SWAP1 PUSH2 0x1B81 DUP2 PUSH1 0xB DUP6 ADD PUSH1 0x20 DUP8 ADD PUSH2 0x51CB JUMP JUMPDEST PUSH32 0x22207374726F6B652D77696474683D22312E3522207374796C653D226D69782D PUSH1 0xB SWAP4 SWAP1 SWAP2 ADD SWAP3 DUP4 ADD MSTORE POP PUSH32 0x626C656E642D6D6F64653A20686172642D6C696768743B223E3C706174682064 PUSH1 0x2B DUP3 ADD MSTORE PUSH32 0x3D226D37372E3632382036312E373138632D312E3531393220312E383130332D PUSH1 0x4B DUP3 ADD MSTORE PUSH32 0x322E3138373820342E333035362D312E3737373320362E3633323920302E3236 PUSH1 0x6B DUP3 ADD MSTORE PUSH32 0x39313320312E3532353920302E393839393220322E3937353420322E30373533 PUSH1 0x8B DUP3 ADD MSTORE PUSH32 0x20342E3038313120312E3038353420312E3130353720322E3533353120312E38 PUSH1 0xAB DUP3 ADD MSTORE PUSH32 0x35373220342E3037303520322E3036343820312E3330363820302E3137363634 PUSH1 0xCB DUP3 ADD MSTORE PUSH32 0x20322E363634352D302E303431323720332E383439352D302E36313936392031 PUSH1 0xEB DUP3 ADD MSTORE PUSH32 0x2E3138352D302E353738343220322E313932342D312E3531353320322E383533 PUSH2 0x10B DUP3 ADD MSTORE PUSH32 0x362D322E3635363220302E36363131342D312E3134303920302E39373330382D PUSH2 0x12B DUP3 ADD MSTORE PUSH32 0x322E3438313420302E38383136382D332E373936392D302E303931342D312E33 PUSH2 0x14B DUP3 ADD MSTORE PUSH32 0x3135352D302E35383630352D322E363030342D312E343031382D332E36333635 PUSH2 0x16B DUP3 ADD MSTORE PUSH32 0x2D302E393934372D312E323633332D322E343037332D322E3131362D332E3631 PUSH2 0x18B DUP3 ADD MSTORE PUSH32 0x35352D332E3137372D302E36303430382D302E35333035312D312E313634352D PUSH2 0x1AB DUP3 ADD MSTORE PUSH32 0x312E313232352D312E353731382D312E383135372D302E34303732332D302E36 PUSH2 0x1CB DUP3 ADD MSTORE PUSH32 0x393331392D302E36353532362D312E343935372D302E363035382D322E323938 PUSH2 0x1EB DUP3 ADD MSTORE PUSH32 0x3120302E30353134332D302E383334343820302E34323433322D312E36333135 PUSH2 0x20B DUP3 ADD MSTORE PUSH32 0x20302E39363833312D322E3236363420302E35343339382D302E363334392031 PUSH2 0x22B DUP3 ADD MSTORE PUSH32 0x2E323531382D312E3131353320322E303038352D312E3437303820312E353133 PUSH2 0x24B DUP3 ADD MSTORE PUSH32 0x352D302E373130393520332E323032322D302E393332363920342E383136352D PUSH2 0x26B DUP3 ADD MSTORE PUSH32 0x312E3336383620312E343333382D302E333837313920322E383334312D302E39 PUSH2 0x28B DUP3 ADD MSTORE PUSH32 0x3535373920342E303336322D312E3832373920312E323032322D302E38373231 PUSH2 0x2AB DUP3 ADD MSTORE PUSH32 0x3120322E322D322E3036343420322E363837382D332E3436373120302E343837 PUSH2 0x2CB DUP3 ADD MSTORE PUSH32 0x38342D312E3430323820302E343238332D332E303230352D302E33303737312D PUSH2 0x2EB DUP3 ADD MSTORE PUSH32 0x342E333130352D302E33363830312D302E36343439392D302E38393833322D31 PUSH2 0x30B DUP3 ADD MSTORE PUSH32 0x2E313939372D312E353337352D312E353737362D302E36333932322D302E3337 PUSH2 0x32B DUP3 ADD MSTORE PUSH32 0x3739352D312E3338372D302E35373538392D322E313238382D302E3534323039 PUSH2 0x34B DUP3 ADD MSTORE PUSH32 0x2D312E3036373820302E30343836352D322E3037323920302E35363933382D32 PUSH2 0x36B DUP3 ADD MSTORE PUSH32 0x2E3837353520312E32373534732D312E3432353620312E353930362D322E3030 PUSH2 0x38B DUP3 ADD MSTORE PUSH32 0x393220322E34383631632D302E353833363420302E38393534392D312E313339 PUSH2 0x3AB DUP3 ADD MSTORE PUSH32 0x3120312E383135332D312E3833363120322E363235372D302E36393639362030 PUSH2 0x3CB DUP3 ADD MSTORE PUSH32 0x2E38313034322D312E35353420312E3531362D322E3536373420312E38353538 PUSH2 0x3EB DUP3 ADD MSTORE PUSH32 0x2D302E373434343720302E32343936342D312E3535353220302E32393232312D PUSH2 0x40B DUP3 ADD MSTORE PUSH32 0x322E3332343920302E31333639312D302E373639372D302E313535332D312E34 PUSH2 0x42B DUP3 ADD MSTORE PUSH32 0x3937322D302E35303636322D322E313037332D312E3030312D312E323230312D PUSH2 0x44B DUP3 ADD MSTORE PUSH32 0x302E39383837342D312E393335312D322E353339322D322E303130342D342E31 PUSH2 0x46B DUP3 ADD MSTORE PUSH32 0x3037382D302E30373532382D312E3536383620302E34363231382D332E313339 PUSH2 0x48B DUP3 ADD MSTORE PUSH32 0x3720312E333838382D342E3430373673322E323236312D322E3234303420332E PUSH2 0x4AB DUP3 ADD MSTORE PUSH32 0x363537382D322E3838353763302E39343036372D302E343233393520312E3933 PUSH2 0x4CB DUP3 ADD MSTORE PUSH32 0x36312D302E373131303920322E3930342D312E3036383473312E393234372D30 PUSH2 0x4EB DUP3 ADD MSTORE PUSH32 0x2E373935303620322E373033322D312E3437323263302E37323531382D302E36 PUSH2 0x50B DUP3 ADD MSTORE PUSH32 0x3330373720312E323734392D312E3435393220312E353834322D322E33363932 PUSH2 0x52B DUP3 ADD MSTORE PUSH32 0x20302E33303933332D302E393039393820302E33373836322D312E3839392030 PUSH2 0x54B DUP3 ADD MSTORE PUSH32 0x2E32303935342D322E383435322D302E33333831362D312E383932332D312E36 PUSH2 0x56B DUP3 ADD MSTORE PUSH32 0x3536322D332E353635312D332E333834352D342E343036362D312E373238332D PUSH2 0x58B DUP3 ADD MSTORE PUSH32 0x302E38343134372D332E383230372D302E38353734312D352E353933352D302E PUSH2 0x5AB DUP3 ADD MSTORE PUSH32 0x31313434322D312E3737323820302E3734332D332E3231313120322E32313539 PUSH2 0x5CB DUP3 ADD MSTORE PUSH32 0x2D332E3938353820332E393735312D302E373037353420312E363036352D302E PUSH2 0x5EB DUP3 ADD MSTORE PUSH32 0x383733343620332E333934322D312E3338373720352E303732362D302E323537 PUSH2 0x60B DUP3 ADD MSTORE PUSH32 0x313320302E383339322D302E363036353220312E363539352D312E3133303120 PUSH2 0x62B DUP3 ADD MSTORE PUSH32 0x322E33363339732D312E3233323120312E323839372D322E3036343520312E35 PUSH2 0x64B DUP3 ADD MSTORE PUSH32 0x363831632D302E373934393520302E32363538352D312E3637353520302E3233 PUSH2 0x66B DUP3 ADD MSTORE PUSH32 0x39362D322E343731382D302E3032322D302E37393633362D302E323631362D31 PUSH2 0x68B DUP3 ADD MSTORE PUSH32 0x2E353039322D302E37353131312D322E303831332D312E333633382D312E3134 PUSH2 0x6AB DUP3 ADD MSTORE PUSH32 0x34312D312E323235332D312E373035342D322E383930392D312E393732382D34 PUSH2 0x6CB DUP3 ADD MSTORE PUSH32 0x2E35343538732D302E323732362D332E333431332D302E34373435322D352E30 PUSH2 0x6EB DUP3 ADD MSTORE PUSH32 0x3035352D302E36323239362D332E333532342D312E363134332D342E37303433 PUSH2 0x70B DUP3 ADD MSTORE PUSH32 0x632D302E36313437312D302E38333833312D312E343432382D312E353235392D PUSH2 0x72B DUP3 ADD MSTORE PUSH32 0x322E333938342D312E393335312D302E39353536312D302E343039322D322E30 PUSH2 0x74B DUP3 ADD MSTORE PUSH32 0x3338322D302E35333332322D332E303532392D302E33303733342D312E303134 PUSH2 0x76B DUP3 ADD MSTORE PUSH32 0x3720302E32323538382D312E3935333820302E38303830382D322E3537323920 PUSH2 0x78B DUP3 ADD MSTORE PUSH32 0x312E363433312D302E363139313520302E38333530342D302E39303339352031 PUSH2 0x7AB DUP3 ADD MSTORE PUSH32 0x2E393230342D302E373332333320322E3934353620302E3131333320302E3637 PUSH2 0x7CB DUP3 ADD MSTORE PUSH32 0x36383420302E343135303120312E3331303820302E373932383720312E383833 PUSH2 0x7EB DUP3 ADD MSTORE PUSH32 0x3773302E383331393620312E3039303720312E3238313320312E363039346330 PUSH2 0x80B DUP3 ADD MSTORE PUSH32 0x2E343439333820302E353138363520302E383937343220312E3034323620312E PUSH2 0x82B DUP3 ADD MSTORE PUSH32 0x3236313120312E3632343620302E333633363320302E353831393920302E3634 PUSH2 0x84B DUP3 ADD MSTORE PUSH32 0x323320312E3232383420302E373232313420312E393120302E31323733322031 PUSH2 0x86B DUP3 ADD MSTORE PUSH32 0x2E3038372D302E323830313920322E323133352D312E30333620332E30303573 PUSH2 0x88B DUP3 ADD MSTORE PUSH32 0x2D312E3833383420312E3234372D322E39333220312E323838342D322E313839 PUSH2 0x8AB DUP3 ADD MSTORE PUSH32 0x342D302E33323033372D332E303737312D302E3936303435632D302E38383737 PUSH2 0x8CB DUP3 ADD MSTORE PUSH32 0x332D302E36343030382D312E353639312D312E353439342D312E393837312D32 PUSH2 0x8EB DUP3 ADD MSTORE PUSH32 0x2E353630392D302E35333235372D312E323838392D302E36343035332D322E37 PUSH2 0x90B DUP3 ADD MSTORE PUSH32 0x3035362D302E383630382D342E303832372D302E32323032372D312E33373731 PUSH2 0x92B DUP3 ADD MSTORE PUSH32 0x2D302E35383939342D322E373936392D312E353233372D332E383332382D302E PUSH2 0x94B DUP3 ADD MSTORE PUSH32 0x35303635332D302E35363138362D312E313633362D302E39383437382D312E38 PUSH2 0x96B DUP3 ADD MSTORE PUSH32 0x3831332D312E323233392D302E37313736392D302E32333931322D312E343934 PUSH2 0x98B DUP3 ADD MSTORE PUSH32 0x322D302E32393530372D322E323430372D302E31373235342D312E3439332030 PUSH2 0x9AB DUP3 ADD MSTORE PUSH32 0x2E32343530362D322E3833313920312E323137362D332E3630303920322E3532 PUSH2 0x9CB DUP3 ADD MSTORE PUSH32 0x30352D302E373638393520312E3330332D302E3937373620322E393037352D30 PUSH2 0x9EB DUP3 ADD MSTORE PUSH32 0x2E363531393520342E33383520302E333235363520312E3437373520312E3136 PUSH2 0xA0B DUP3 ADD MSTORE PUSH32 0x373120322E3832323420322E3239353820332E3832393820322E303034392031 PUSH2 0xA2B DUP3 ADD MSTORE PUSH32 0x2E3738393320342E3736303720322E3436393820362E3939303520332E393639 PUSH2 0xA4B DUP3 ADD MSTORE PUSH32 0x3720312E3131343920302E373439393220322E3131333720312E373336322032 PUSH2 0xA6B DUP3 ADD MSTORE PUSH32 0x2E3633363520322E39373420302E323631333920302E363138383920302E3339 PUSH2 0xA8B DUP3 ADD MSTORE PUSH32 0x38333420312E3239343120302E3336333620312E3936352D302E303334373420 PUSH2 0xAAB DUP3 ADD MSTORE PUSH32 0x302E36373039322D302E323434373320312E333336362D302E36333031332031 PUSH2 0xACB DUP3 ADD MSTORE PUSH32 0x2E383836382D302E343930343820302E37303033322D312E3234393220312E31 PUSH2 0xAEB DUP3 ADD MSTORE PUSH32 0x392D322E3036383420312E343334362D302E383139323520302E32343436322D PUSH2 0xB0B DUP3 ADD MSTORE PUSH32 0x312E3639363320302E32353534352D322E3534303620302E31323038362D312E PUSH2 0xB2B DUP3 ADD MSTORE PUSH32 0x363838372D302E32363931372D332E323237352D312E303934322D342E383038 PUSH2 0xB4B DUP3 ADD MSTORE PUSH32 0x392D312E373434382D312E343134362D302E35383139322D322E393031362D31 PUSH2 0xB6B DUP3 ADD MSTORE PUSH32 0x2E303333332D342E343239312D312E31313135732D332E3130353520302E3233 PUSH2 0xB8B DUP3 ADD MSTORE PUSH32 0x38382D342E3337363920312E30383932632D302E383737353420302E35383639 PUSH2 0xBAB DUP3 ADD MSTORE PUSH32 0x332D312E3538393720312E343138362D322E3033333520322E333736352D302E PUSH2 0xBCB DUP3 ADD MSTORE PUSH32 0x3434333820302E39353739322D302E363137373520322E303339332D302E3439 PUSH2 0xBEB DUP3 ADD MSTORE PUSH32 0x35353220332E3038373973302E353430343420322E3036313320312E31393437 PUSH2 0xC0B DUP3 ADD MSTORE PUSH32 0x20322E3838393963302E363534323720302E383238353520312E353432372031 PUSH2 0xC2B DUP3 ADD MSTORE PUSH32 0x2E3437303320322E3533353320312E3832393920312E3733343420302E363238 PUSH2 0xC4B DUP3 ADD MSTORE PUSH32 0x333720332E3634343120302E3338323320352E3438363420302E343737343120 PUSH2 0xC6B DUP3 ADD MSTORE PUSH32 0x302E393231313520302E303437353620312E3834393920302E31383631392032 PUSH2 0xC8B DUP3 ADD MSTORE PUSH32 0x2E3639353720302E353534313120302E383435383220302E333637393220312E PUSH2 0xCAB DUP3 ADD MSTORE PUSH32 0x3630373320302E393833353920322E3032303120312E3830383520302E343138 PUSH2 0xCCB DUP3 ADD MSTORE PUSH32 0x3220302E383335373220302E343439353920312E3832383820302E3232363033 PUSH2 0xCEB DUP3 ADD MSTORE PUSH32 0x20322E373336322D302E323233353620302E39303733392D302E363835363820 PUSH2 0xD0B DUP3 ADD MSTORE PUSH32 0x312E373339352D312E3231363920322E353038342D312E3036323320312E3533 PUSH2 0xD2B DUP3 ADD MSTORE PUSH32 0x37382D322E3434333920322E393138352D332E3030313320342E373032342D30 PUSH2 0xD4B DUP3 ADD MSTORE PUSH32 0x2E353437323620312E373531352D302E313738303920332E3736323320302E39 PUSH2 0xD6B DUP3 ADD MSTORE PUSH32 0x35353620352E3230353120312E3133333720312E3434323920332E3030303120 PUSH2 0xD8B DUP3 ADD MSTORE PUSH32 0x322E3237373220342E3833313320322E3135393973332E353735382D312E3138 PUSH2 0xDAB DUP3 ADD MSTORE PUSH32 0x333220342E3531362D322E37353963302E39343032312D312E3537353820312E PUSH2 0xDCB DUP3 ADD MSTORE PUSH32 0x303439362D332E3631373320302E32383332352D352E3238343522202F3E3C2F PUSH2 0xDEB DUP3 ADD MSTORE PUSH2 0x339F PUSH1 0xF1 SHL PUSH2 0xE0B DUP3 ADD MSTORE PUSH2 0xE0D ADD SWAP2 SWAP1 POP JUMP JUMPDEST PUSH11 0x1E339039BA3937B5B29E91 PUSH1 0xA9 SHL DUP2 MSTORE DUP2 MLOAD PUSH1 0x0 SWAP1 PUSH2 0x2CCB DUP2 PUSH1 0xB DUP6 ADD PUSH1 0x20 DUP8 ADD PUSH2 0x51CB JUMP JUMPDEST PUSH32 0x22207374726F6B652D77696474683D2232223E3C7061746820643D226D37312E PUSH1 0xB SWAP4 SWAP1 SWAP2 ADD SWAP3 DUP4 ADD MSTORE POP PUSH32 0x32332033332E303920302E3237332D342E303422202F3E3C7061746820643D22 PUSH1 0x2B DUP3 ADD MSTORE PUSH32 0x6D35362E32332033322E303920332E38322D312E323322202F3E3C7061746820 PUSH1 0x4B DUP3 ADD MSTORE PUSH32 0x643D226D36312E32332032332E3039203420302E333722202F3E3C7061746820 PUSH1 0x6B DUP3 ADD MSTORE PUSH32 0x643D226D34342E32332033362E303920312E383220332E363122202F3E3C7061 PUSH1 0x8B DUP3 ADD MSTORE PUSH32 0x746820643D226D35302E32332032372E30392D312E313420332E383922202F3E PUSH1 0xAB DUP3 ADD MSTORE PUSH32 0x3C7061746820643D226D34312E32332035362E30392D312E313420332E383922 PUSH1 0xCB DUP3 ADD MSTORE PUSH32 0x202F3E3C7061746820643D226D38332E32332035382E303920322E393220322E PUSH1 0xEB DUP3 ADD MSTORE PUSH32 0x373822202F3E3C7061746820643D226D34362E32332035302E303920302E3634 PUSH2 0x10B DUP3 ADD MSTORE PUSH32 0x38203422202F3E3C7061746820643D226D37392E32332035362E303920302E36 PUSH2 0x12B DUP3 ADD MSTORE PUSH32 0x37352D3422202F3E3C7061746820643D226D33372E32332034362E303920332E PUSH2 0x14B DUP3 ADD MSTORE PUSH32 0x39392D302E34343122202F3E3C7061746820643D226D38372E32332034382E30 PUSH2 0x16B DUP3 ADD MSTORE PUSH32 0x3920332E31312D322E353622202F3E3C7061746820643D226D38302E32332034 PUSH2 0x18B DUP3 ADD MSTORE PUSH32 0x312E3039203420302E32383522202F3E3C7061746820643D226D37382E323320 PUSH2 0x1AB DUP3 ADD MSTORE PUSH32 0x32392E303920312E373220332E363722202F3E3C2F673E000000000000000000 PUSH2 0x1CB DUP3 ADD MSTORE PUSH2 0x1E2 ADD SWAP2 SWAP1 POP JUMP JUMPDEST PUSH12 0x1E3830BA34103334B6361E91 PUSH1 0xA1 SHL DUP2 MSTORE DUP2 MLOAD PUSH1 0x0 SWAP1 PUSH2 0x2F43 DUP2 PUSH1 0xC DUP6 ADD PUSH1 0x20 DUP8 ADD PUSH2 0x51CB JUMP JUMPDEST PUSH32 0x2220643D226D39362E3036332034362E343236632D302E3532323620312E3738 PUSH1 0xC SWAP4 SWAP1 SWAP2 ADD SWAP3 DUP4 ADD MSTORE POP PUSH32 0x35342D312E3639323520332E323139372D332E3137373120342E313232342032 PUSH1 0x2C DUP3 ADD MSTORE PUSH32 0x2E30323920312E3738353420322E3936393320342E3633333920322E31353737 PUSH1 0x4C DUP3 ADD MSTORE PUSH32 0x20372E343032332D302E373431333320322E353437372D322E3738313220342E PUSH1 0x6C DUP3 ADD MSTORE PUSH32 0x333633312D352E3139363320342E3936343920302E343738303620312E333634 PUSH1 0x8C DUP3 ADD MSTORE PUSH32 0x3120302E353535323620322E3837383720302E313139373620342E333633312D PUSH1 0xAC DUP3 ADD MSTORE PUSH32 0x312E3033393320332E353730372D342E3632323220352E373137322D382E3231 PUSH1 0xCC DUP3 ADD MSTORE PUSH32 0x3520352E303735332D302E333738303920332E363230392D332E343534332036 PUSH1 0xEC DUP3 ADD MSTORE PUSH32 0x2E343339342D372E3138353720362E343339342D312E3838303620302D332E35 PUSH2 0x10C DUP3 ADD MSTORE PUSH32 0x3832392D302E37313731362D342E383639362D312E383835372D312E31353820 PUSH2 0x12C DUP3 ADD MSTORE PUSH32 0x322E343337332D332E3634323320342E313332342D362E3533323420342E3133 PUSH2 0x14C DUP3 ADD MSTORE PUSH32 0x32342D322E3833303720302D352E323635352D312E363234392D362E34353333 PUSH2 0x16C DUP3 ADD MSTORE PUSH32 0x2D332E3938322D312E32353720302E39373239332D322E3835303520312E3534 PUSH2 0x18C DUP3 ADD MSTORE PUSH32 0x34362D342E3537323720312E353034352D332E393838382D302E30383132342D PUSH2 0x1AC DUP3 ADD MSTORE PUSH32 0x372E3135362D332E333630312D372E303736382D372E3333323120302E303033 PUSH2 0x1CC DUP3 ADD MSTORE PUSH32 0x392D302E323134363520302E30323237372D302E3433313320302E3034363533 PUSH2 0x1EC DUP3 ADD MSTORE PUSH32 0x2D302E36343439342D302E323035383720302E30363331392D302E3431353720 PUSH2 0x20C DUP3 ADD MSTORE PUSH32 0x302E31313933362D302E363332343620302E31363434392D332E383939372030 PUSH2 0x22C DUP3 ADD MSTORE PUSH32 0x2E38303634322D372E373230322D312E363935312D382E353331382D352E3537 PUSH2 0x24C DUP3 ADD MSTORE PUSH32 0x36382D302E343335352D322E3039363320302E30393530312D342E3135323520 PUSH2 0x26C DUP3 ADD MSTORE PUSH32 0x312E323736382D352E373437332D302E33343334352D302E30343631342D302E PUSH2 0x28C DUP3 ADD MSTORE PUSH32 0x36393238342D302E31313033332D312E303339332D302E32303836332D332E38 PUSH2 0x2AC DUP3 ADD MSTORE PUSH32 0x3330342D312E313033332D362E303237372D352E303935332D342E393139312D PUSH2 0x2CC DUP3 ADD MSTORE PUSH32 0x382E3930363820302E34333435312D312E3438343520312E333036352D322E37 PUSH2 0x2EC DUP3 ADD MSTORE PUSH32 0x32383220322E343434372D332E363230392D312E373132332D312E373835342D PUSH2 0x30C DUP3 ADD MSTORE PUSH32 0x322E343534362D342E343133332D312E373132332D362E3936303920302E3830 PUSH2 0x32C DUP3 ADD MSTORE PUSH32 0x3536372D322E3736383320332E313337362D342E3637343120352E383039392D PUSH2 0x34C DUP3 ADD MSTORE PUSH32 0x352E303935332D302E37363830362D312E353534372D302E39383837382D332E PUSH2 0x36C DUP3 ADD MSTORE PUSH32 0x333830322D302E34363531392D352E3137353620312E303339332D332E353730 PUSH2 0x38C DUP3 ADD MSTORE PUSH32 0x3720342E363232322D352E3731373220382E3231352D352E3037353320302E33 PUSH2 0x3AC DUP3 ADD MSTORE PUSH32 0x383030372D332E3631303920332E343434342D362E3433393420372E31383537 PUSH2 0x3CC DUP3 ADD MSTORE PUSH32 0x2D362E3433393420312E35353339203020322E39393920302E3439373520342E PUSH2 0x3EC DUP3 ADD MSTORE PUSH32 0x3137363820312E33323420312E323437312D322E3133363420332E3537332D33 PUSH2 0x40C DUP3 ADD MSTORE PUSH32 0x2E3538303820362E323335352D332E3538303820332E30373832203020352E36 PUSH2 0x42C DUP3 ADD MSTORE PUSH32 0x39313120312E3931353820362E3734303320342E3630333820312E333436312D PUSH2 0x44C DUP3 ADD MSTORE PUSH32 0x312E33343420332E323136372D322E3137363520352E323735342D322E313236 PUSH2 0x46C DUP3 ADD MSTORE PUSH32 0x3420332E3938383820302E303739323420372E31353620332E3336303120372E PUSH2 0x48C DUP3 ADD MSTORE PUSH32 0x3037363820372E333332312D33652D3320302E32313836362D302E3032313738 PUSH2 0x4AC DUP3 ADD MSTORE PUSH32 0x20302E34333533312D302E303436353320302E363435393420302E3230363836 PUSH2 0x4CC DUP3 ADD MSTORE PUSH32 0x2D302E303632313920302E34313437312D302E313139333620302E3632393439 PUSH2 0x4EC DUP3 ADD MSTORE PUSH32 0x2D302E313633343920332E393039362D302E383036343220372E373330312031 PUSH2 0x50C DUP3 ADD MSTORE PUSH32 0x2E3639353120382E3533313820352E3538363820302E3433353520322E303936 PUSH2 0x52C DUP3 ADD MSTORE PUSH32 0x332D302E303936303120342E313532352D312E3237363820352E373437332030 PUSH2 0x54C DUP3 ADD MSTORE PUSH32 0x2E333436343220302E303438313420302E363933383220302E31303833322031 PUSH2 0x56C DUP3 ADD MSTORE PUSH32 0x2E3033393320302E323130363320332E3833303420312E3130333320362E3032 PUSH2 0x58C DUP3 ADD MSTORE PUSH32 0x373720352E3039353320342E3931393120382E39313638222F3E000000000000 PUSH2 0x5AC DUP3 ADD MSTORE PUSH2 0x5C6 ADD SWAP2 SWAP1 POP JUMP JUMPDEST PUSH12 0x1E3830BA34103334B6361E91 PUSH1 0xA1 SHL DUP2 MSTORE DUP2 MLOAD PUSH1 0x0 SWAP1 PUSH2 0x3674 DUP2 PUSH1 0xC DUP6 ADD PUSH1 0x20 DUP8 ADD PUSH2 0x51CB JUMP JUMPDEST PUSH32 0x2220643D226D36362E3239352038312E32303963352E303938342D302E353231 PUSH1 0xC SWAP4 SWAP1 SWAP2 ADD SWAP3 DUP4 ADD MSTORE POP PUSH32 0x303820332E373733382D332E3734383820382E313732342D352E313438332034 PUSH1 0x2C DUP3 ADD MSTORE PUSH32 0x2E3733362D312E35313220362E3732323820302E37383120392E363834342D31 PUSH1 0x4C DUP3 ADD MSTORE PUSH32 0x2E3732343420332E383131332D332E3231313520312E323439362D352E333130 PUSH1 0x6C DUP3 ADD MSTORE PUSH32 0x3820342E323233362D382E3237323320322E3937342D322E3936313520352E38 PUSH1 0x8C DUP3 ADD MSTORE PUSH32 0x3835362D322E3434393220362E373732382D372E3334373620302E3733313032 PUSH1 0xAC DUP3 ADD MSTORE PUSH32 0x2D342E303438372D302E39383936382D342E3638362D312E313435392D382E34 PUSH1 0xCC DUP3 ADD MSTORE PUSH32 0x3334382D302E313536322D332E3734383820332E343336342D352E3331303820 PUSH1 0xEC DUP3 ADD MSTORE PUSH32 0x322E333439322D392E3232322D312E303837322D332E393131322D342E363836 PUSH2 0x10C DUP3 ADD MSTORE PUSH32 0x2D342E323233362D352E393335362D372E313835322D312E323439362D322E39 PUSH2 0x12C DUP3 ADD MSTORE PUSH32 0x36313520302E32313836382D362E313335352D322E383131362D392E3232322D PUSH2 0x14C DUP3 ADD MSTORE PUSH32 0x332E3137342D332E3232342D342E3633362D312E313435392D382E333834382D PUSH2 0x16C DUP3 ADD MSTORE PUSH32 0x322E333939322D332E373438382D312E323533332D322E383131362D352E3532 PUSH2 0x18C DUP3 ADD MSTORE PUSH32 0x33322D382E333334382D362E3334382D352E353835372D302E38343334382D35 PUSH2 0x1AC DUP3 ADD MSTORE PUSH32 0x2E3039383420312E3636322D392E33373220322E313836382D342E3033363220 PUSH2 0x1CC DUP3 ADD MSTORE PUSH32 0x302E34393233342D352E393335362D322E383131362D392E363834342D302E39 PUSH2 0x1EC DUP3 ADD MSTORE PUSH32 0x3337322D332E3734383820312E383734342D332E31373420362E333937392D37 PUSH2 0x20C DUP3 ADD MSTORE PUSH32 0x2E3339373620372E38312D342E3232333620312E3431322D362E32393820302E PUSH2 0x22C DUP3 ADD MSTORE PUSH32 0x3738312D382E3032323420342E333733362D312E3732343420332E3539323620 PUSH2 0x24C DUP3 ADD MSTORE PUSH32 0x302E383332323320382E303232342D322E323336382031302E3737322D322E39 PUSH2 0x26C DUP3 ADD MSTORE PUSH32 0x393920322E363939312D342E3338363120362E383130332D322E313336382039 PUSH2 0x28C DUP3 ADD MSTORE PUSH32 0x2E3834363820322E3339393220332E32323420332E3033363520332E39383632 PUSH2 0x2AC DUP3 ADD MSTORE PUSH32 0x20322E3038363820382E343334382D312E3034303920342E3834383420312E34 PUSH2 0x2CC DUP3 ADD MSTORE PUSH32 0x313220382E3333343820352E3039383420382E3834373220332E333336342030 PUSH2 0x2EC DUP3 ADD MSTORE PUSH32 0x2E343639383520332E3634383820322E3138363820352E3231303820362E3234 PUSH2 0x30C DUP3 ADD MSTORE PUSH32 0x3820312E35363220342E3036313220352E3236303820352E3039383420382E38 PUSH2 0x32C DUP3 ADD MSTORE PUSH32 0x34373220342E3136313220332E353836332D302E3933373220352E303438342D PUSH2 0x34C DUP3 ADD MSTORE PUSH32 0x302E3135363220372E3038353220312E3234393620322E3033363820312E3430 PUSH2 0x36C DUP3 ADD MSTORE PUSH32 0x353820332E3237333920322E3536313720352E3933353620322E323836387A22 PUSH2 0x38C DUP3 ADD MSTORE PUSH2 0x179F PUSH1 0xF1 SHL PUSH2 0x3AC DUP3 ADD MSTORE PUSH2 0x3AE ADD SWAP2 SWAP1 POP JUMP JUMPDEST PUSH12 0x1E3830BA34103334B6361E91 PUSH1 0xA1 SHL DUP2 MSTORE DUP2 MLOAD PUSH1 0x0 SWAP1 PUSH2 0x3B1A DUP2 PUSH1 0xC DUP6 ADD PUSH1 0x20 DUP8 ADD PUSH2 0x51CB JUMP JUMPDEST PUSH32 0x2220643D226D36332E3537372038302E3535356334332E38383220302E333630 PUSH1 0xC SWAP4 SWAP1 SWAP2 ADD SWAP3 DUP4 ADD MSTORE POP PUSH32 0x32332034332E3130372D36342E38303320302E33323734322D36342E3939382D PUSH1 0x2C DUP3 ADD MSTORE PUSH32 0x34322E3731392D302E31343139342D34342E3236392036342E3630372D302E33 PUSH1 0x4C DUP3 ADD MSTORE PUSH16 0x191B9A19101B1A171C9C9C3D1110179F PUSH1 0x81 SHL PUSH1 0x6C DUP3 ADD MSTORE PUSH1 0x7C ADD SWAP2 SWAP1 POP JUMP JUMPDEST PUSH32 0x3C673E3C706174682069643D22706174683632343522207374726F6B652D7769 DUP2 MSTORE PUSH16 0x323A341E9119911039BA3937B5B29E91 PUSH1 0x81 SHL PUSH1 0x20 DUP3 ADD MSTORE PUSH1 0x0 DUP3 MLOAD PUSH2 0x3C04 DUP2 PUSH1 0x30 DUP6 ADD PUSH1 0x20 DUP8 ADD PUSH2 0x51CB JUMP JUMPDEST PUSH32 0x2220643D226D3130302E3431203131342E3033632D362E313520342E37322D31 PUSH1 0x30 SWAP2 DUP5 ADD SWAP2 DUP3 ADD MSTORE PUSH32 0x352E3220312E36392D31392E312D342E34372D352E33312D372E372D372E3237 PUSH1 0x50 DUP3 ADD MSTORE PUSH32 0x2D31372E322D382E33342D32362E332D362E303320312E34352D31322E342031 PUSH1 0x70 DUP3 ADD MSTORE PUSH32 0x2E34362D31382E3420302E3031332D312E32382031302E322D332E3338203231 PUSH1 0x90 DUP3 ADD MSTORE PUSH32 0x2E312D31302E362032382E392D352E313720352E35392D31352E3520352E3834 PUSH1 0xB0 DUP3 ADD MSTORE PUSH32 0x2D31392E382D302E3930332D352D372E34352D312E37372D31372E3220322E39 PUSH1 0xD0 DUP3 ADD MSTORE PUSH32 0x342D32332E3920332E30312D342E353120362E35332D382E36362031302E342D PUSH1 0xF0 DUP3 ADD MSTORE PUSH32 0x31322E352D31332E342D31312E392D31352E382D33342E312D342E37352D3438 PUSH2 0x110 DUP3 ADD MSTORE PUSH32 0x2E332031302E352D31342E362033312E352D31392E352034372E362D31312E38 PUSH2 0x130 DUP3 ADD MSTORE PUSH32 0x2031342E3320362E332032332E362032322E332032312E332033372E392D302E PUSH2 0x150 DUP3 ADD MSTORE PUSH32 0x39343920382E342D352E352031372D31312E352032322E3220342E383320342E PUSH2 0x170 DUP3 ADD MSTORE PUSH32 0x393320392E33312031302E332031322E362031362E3420342E303420362E3937 PUSH2 0x190 DUP3 ADD MSTORE PUSH32 0x20342E38342031372E342D322E32332032322E387A22202F3E3C746578742073 PUSH2 0x1B0 DUP3 ADD MSTORE PUSH32 0x74796C653D2266696C6C3A2366666666666633333B666F6E742D66616D696C79 PUSH2 0x1D0 DUP3 ADD MSTORE PUSH32 0x3A73616E732D73657269663B666F6E742D73697A653A312E333670783B6C696E PUSH2 0x1F0 DUP3 ADD MSTORE PUSH32 0x652D6865696768743A312E32353B6F7061636974793A2E333B776F72642D7370 PUSH2 0x210 DUP3 ADD MSTORE PUSH32 0x6163696E673A307078223E3C746578745061746820786C696E6B3A687265663D PUSH2 0x230 DUP3 ADD MSTORE PUSH32 0x22237061746836323435223E3C747370616E2064783D2230222064793D22302E PUSH2 0x250 DUP3 ADD MSTORE PUSH3 0x1B111F PUSH1 0xE9 SHL PUSH2 0x270 DUP3 ADD MSTORE PUSH2 0x3F25 PUSH2 0x3EEB PUSH2 0x273 DUP4 ADD PUSH8 0x544553544E414D45 PUSH1 0xC0 SHL DUP2 MSTORE PUSH1 0x8 ADD SWAP1 JUMP JUMPDEST PUSH32 0x3C2F747370616E3E3C2F74657874506174683E3C2F746578743E3C2F673E3C2F DUP2 MSTORE PUSH8 0x339F1E17B9BB339F PUSH1 0xC1 SHL PUSH1 0x20 DUP3 ADD MSTORE PUSH1 0x28 ADD SWAP1 JUMP JUMPDEST SWAP5 SWAP4 POP POP POP POP JUMP JUMPDEST PUSH14 0x1E3830BA341039BA3937B5B29E91 PUSH1 0x91 SHL DUP2 MSTORE DUP2 MLOAD PUSH1 0x0 SWAP1 PUSH2 0x3F57 DUP2 PUSH1 0xE DUP6 ADD PUSH1 0x20 DUP8 ADD PUSH2 0x51CB JUMP JUMPDEST PUSH32 0x22207374726F6B652D77696474683D22332E3522207374796C653D227374726F PUSH1 0xE SWAP4 SWAP1 SWAP2 ADD SWAP3 DUP4 ADD MSTORE POP PUSH32 0x6B652D6461736861727261793A352C20373B2220643D226D37372E3632382036 PUSH1 0x2E DUP3 ADD MSTORE PUSH32 0x312E373138632D312E3531383520312E383130372D322E31383720342E333035 PUSH1 0x4E DUP3 ADD MSTORE PUSH32 0x362D312E3737373320362E3633323920302E323638363620312E353236322030 PUSH1 0x6E DUP3 ADD MSTORE PUSH32 0x2E393838383620322E3937363320322E3037343320342E3038323320312E3038 PUSH1 0x8E DUP3 ADD MSTORE PUSH32 0x353420312E31303620322E3533353720312E3835373520342E3037313620322E PUSH1 0xAE DUP3 ADD MSTORE PUSH32 0x3036333520312E3330353520302E3137353120322E363631352D302E30343434 PUSH1 0xCE DUP3 ADD MSTORE PUSH32 0x3620332E383434352D302E363233373473322E313838322D312E353136322032 PUSH1 0xEE DUP3 ADD MSTORE PUSH32 0x2E3834382D322E3635363263302E36353938342D312E313420302E3937313533 PUSH2 0x10E DUP3 ADD MSTORE PUSH32 0x2D322E3437383720302E38383138342D332E373932382D302E303839372D312E PUSH2 0x12E DUP3 ADD MSTORE PUSH32 0x333134312D302E353830362D322E353938342D312E333931342D332E36333635 PUSH2 0x14E DUP3 ADD MSTORE PUSH32 0x2D302E39383834352D312E323635362D322E333933372D322E313235312D332E PUSH2 0x16E DUP3 ADD MSTORE PUSH32 0x353938342D332E3138372D302E36303233322D302E35333039342D312E313632 PUSH2 0x18E DUP3 ADD MSTORE PUSH32 0x2D312E313231382D312E353731332D312E38313236732D302E36363237362D31 PUSH2 0x1AE DUP3 ADD MSTORE PUSH32 0x2E343839332D302E363233342D322E3239313363302E30343131372D302E3833 PUSH2 0x1CE DUP3 ADD MSTORE PUSH32 0x38393420302E34303332352D312E3634353120302E393430372D322E32393036 PUSH2 0x1EE DUP3 ADD MSTORE PUSH32 0x20302E35333734352D302E363435343920312E323432392D312E313337342032 PUSH2 0x20E DUP3 ADD MSTORE PUSH32 0x2E303030382D312E3439393420312E353135382D302E373234303420332E3231 PUSH2 0x22E DUP3 ADD MSTORE PUSH32 0x35312D302E393337353620342E383531382D312E3331353820312E353830352D PUSH2 0x24E DUP3 ADD MSTORE PUSH32 0x302E333635323420332E313431332D302E393030303120342E343938322D312E PUSH2 0x26E DUP3 ADD MSTORE PUSH32 0x3738383920312E333536392D302E383838383820322E353033352D322E313537 PUSH2 0x28E DUP3 ADD MSTORE PUSH32 0x3220332E303432322D332E3638373320302E32363933362D302E373635303320 PUSH2 0x2AE DUP3 ADD MSTORE PUSH32 0x302E333833322D312E3538373720302E33303232392D322E333934372D302E30 PUSH2 0x2CE DUP3 ADD MSTORE PUSH32 0x383039312D302E38303730322D302E33353931342D312E353937312D302E3832 PUSH2 0x2EE DUP3 ADD MSTORE PUSH32 0x3539352D322E323630342D302E343636382D302E36363332372D312E31323339 PUSH2 0x30E DUP3 ADD MSTORE PUSH32 0x2D312E313935392D312E383830332D312E343838372D302E37353633382D302E PUSH2 0x32E DUP3 ADD MSTORE PUSH32 0x32393237382D312E363130322D302E33343030382D322E333836352D302E3130 PUSH2 0x34E DUP3 ADD MSTORE PUSH32 0x3532332D302E373239333420302E32323036342D312E3337303920302E363738 PUSH2 0x36E DUP3 ADD MSTORE PUSH32 0x372D312E3839353920312E3233312D302E353234393720302E35353232392D30 PUSH2 0x38E DUP3 ADD MSTORE PUSH32 0x2E393431333820312E3139382D312E3332333520312E383537322D302E373634 PUSH2 0x3AE DUP3 ADD MSTORE PUSH32 0x323720312E333138352D312E3434303920322E373532342D322E363337332033 PUSH2 0x3CE DUP3 ADD MSTORE PUSH32 0x2E363936342D302E363436373620302E35313033362D312E3432343320302E38 PUSH2 0x3EE DUP3 ADD MSTORE PUSH32 0x3531372D322E3233363220302E3939313532732D312E3635363620302E303738 PUSH2 0x40E DUP3 ADD MSTORE PUSH32 0x37332D322E343432382D302E3136373537632D312E353732342D302E34393236 PUSH2 0x42E DUP3 ADD MSTORE PUSH32 0x312D322E383734392D312E373339362D332E352D332E323634322D302E363235 PUSH2 0x44E DUP3 ADD MSTORE PUSH32 0x30382D312E353234362D302E35383135322D332E3239363520302E303533322D PUSH2 0x46E DUP3 ADD MSTORE PUSH32 0x342E3831373120302E36333437312D312E3532303620312E383430332D322E37 PUSH2 0x48E DUP3 ADD MSTORE PUSH32 0x38323120332E323938352D332E3534393420302E393132362D302E3438303234 PUSH2 0x4AE DUP3 ADD MSTORE PUSH32 0x20312E393130322D302E373730393720322E383832352D312E3131343473312E PUSH2 0x4CE DUP3 ADD MSTORE PUSH32 0x393433342D302E373533303820322E373234372D312E3432363263302E363937 PUSH2 0x4EE DUP3 ADD MSTORE PUSH32 0x34372D302E363030393820312E323139372D312E3430303220312E353033342D PUSH2 0x50E DUP3 ADD MSTORE PUSH32 0x322E3237363173302E33323938362D312E3832353620302E31343632372D322E PUSH2 0x52E DUP3 ADD MSTORE PUSH32 0x37323738632D302E33363731372D312E383034342D312E363731322D332E3336 PUSH2 0x54E DUP3 ADD MSTORE PUSH32 0x38352D332E333338322D342E313530372D312E3636372D302E37383231362D33 PUSH2 0x56E DUP3 ADD MSTORE PUSH32 0x2E363534312D302E37393833332D352E333735312D302E31343334332D312E37 PUSH2 0x58E DUP3 ADD MSTORE PUSH32 0x323120302E363534392D332E3136393620312E393532362D342E313036352033 PUSH2 0x5AE DUP3 ADD MSTORE PUSH32 0x2E353337372D302E373537303520312E323830382D312E3138383420322E3732 PUSH2 0x5CE DUP3 ADD MSTORE PUSH32 0x38312D312E3838353920342E303432332D302E333438373120302E3635373131 PUSH2 0x5EE DUP3 ADD MSTORE PUSH32 0x2D302E373637313820312E323833382D312E3330303520312E38303234732D31 PUSH2 0x60E DUP3 ADD MSTORE PUSH32 0x2E3138373520302E39323634382D312E3931303620312E313031632D302E3730 PUSH2 0x62E DUP3 ADD MSTORE PUSH32 0x39353220302E31373132362D312E34363720302E31313135352D322E31353539 PUSH2 0x64E DUP3 ADD MSTORE PUSH32 0x2D302E31323936362D302E36383838392D302E32343132312D312E333039392D PUSH2 0x66E DUP3 ADD MSTORE PUSH32 0x302E36353933392D312E383233372D312E313737392D312E303237352D312E30 PUSH2 0x68E DUP3 ADD MSTORE PUSH32 0x33372D312E363039362D322E343430342D312E393530352D332E383539382D30 PUSH2 0x6AE DUP3 ADD MSTORE PUSH32 0x2E33343039342D312E343139342D302E3436342D322E383831312D302E373134 PUSH2 0x6CE DUP3 ADD MSTORE PUSH32 0x34382D342E333139332D302E32353034392D312E343338322D302E3634323133 PUSH2 0x6EE DUP3 ADD MSTORE PUSH32 0x2D322E383833372D312E343535352D342E303935392D302E36303230332D302E PUSH2 0x70E DUP3 ADD MSTORE PUSH32 0x38393733312D312E343333322D312E363438322D322E3431322D322E3130362D PUSH2 0x72E DUP3 ADD MSTORE PUSH32 0x302E39373837362D302E34353738342D322E313035332D302E36313338392D33 PUSH2 0x74E DUP3 ADD MSTORE PUSH32 0x2E313631342D302E33383532342D312E3035363120302E32323836362D322E30 PUSH2 0x76E DUP3 ADD MSTORE PUSH32 0x33313820302E38353131312D322E3634303420312E373433392D302E36303836 PUSH2 0x78E DUP3 ADD MSTORE PUSH32 0x3620302E38393238322D302E383330323720322E3035322D302E353432373820 PUSH2 0x7AE DUP3 ADD MSTORE PUSH32 0x332E3039333720302E313835333520302E363731353420302E35363637372031 PUSH2 0x7CE DUP3 ADD MSTORE PUSH32 0x2E3237343420312E3030393120312E3831323620302E343432333620302E3533 PUSH2 0x7EE DUP3 ADD MSTORE PUSH32 0x38313820302E393438303620312E3032303220312E3432353620312E35323734 PUSH2 0x80E DUP3 ADD MSTORE PUSH32 0x73302E393331393220312E3034363620312E3234383320312E3636373263302E PUSH2 0x82E DUP3 ADD MSTORE PUSH32 0x333136333620302E363230363820302E343838303220312E3333333120302E33 PUSH2 0x84E DUP3 ADD MSTORE PUSH32 0x3734333320322E303230342D302E313234383120302E37353435322D302E3539 PUSH2 0x86E DUP3 ADD MSTORE PUSH32 0x35393320312E343334382D312E3233313120312E383630372D302E3633353139 PUSH2 0x88E DUP3 ADD MSTORE PUSH32 0x20302E34323539342D312E3432323520302E36303336362D322E31383520302E PUSH2 0x8AE DUP3 ADD MSTORE PUSH32 0x35343436342D302E373632352D302E30353930312D312E343938392D302E3334 PUSH2 0x8CE DUP3 ADD MSTORE PUSH32 0x3639342D322E313331342D302E37373638342D302E36333235312D302E343239 PUSH2 0x8EE DUP3 ADD MSTORE PUSH32 0x392D312E3136342D302E39393833362D312E353937332D312E363238352D302E PUSH2 0x90E DUP3 ADD MSTORE PUSH32 0x35363536362D302E38323236362D302E39363534322D312E373435322D312E33 PUSH2 0x92E DUP3 ADD MSTORE PUSH32 0x3936342D322E363435372D302E34333039332D302E39303035372D302E393034 PUSH2 0x94E DUP3 ADD MSTORE PUSH32 0x38332D312E373937322D312E353838372D322E353234352D302E39373831352D PUSH2 0x96E DUP3 ADD MSTORE PUSH32 0x312E303430342D322E333734382D312E363739362D332E383032312D312E3732 PUSH2 0x98E DUP3 ADD MSTORE PUSH32 0x34332D312E343237332D302E30343437352D322E3836363820302E3530393533 PUSH2 0x9AE DUP3 ADD MSTORE PUSH32 0x2D332E3838343720312E353131732D312E3539363520322E343338362D312E35 PUSH2 0x9CE DUP3 ADD MSTORE PUSH32 0x34313220332E3836353563302E303535333620312E3432363920302E37343831 PUSH2 0x9EE DUP3 ADD MSTORE PUSH32 0x3820322E3832303220312E3836323120332E3731333620302E37313939362030 PUSH2 0xA0E DUP3 ADD MSTORE PUSH32 0x2E353737343320312E3538383120302E393431393620322E3437303420312E32 PUSH2 0xA2E DUP3 ADD MSTORE PUSH32 0x31323720302E3838323320302E323730373620312E3738393120302E34353436 PUSH2 0xA4E DUP3 ADD MSTORE PUSH32 0x3720322E3637343820302E373134303920302E3838353720302E323539343220 PUSH2 0xA6E DUP3 ADD MSTORE PUSH32 0x312E37363120302E363030353820322E3530323620312E3134393920302E3734 PUSH2 0xA8E DUP3 ADD MSTORE PUSH32 0x31363320302E353439333120312E3334333820312E3332363920312E35343120 PUSH2 0xAAE DUP3 ADD MSTORE PUSH32 0x322E3232383520302E313137323520302E353336313620302E30383739342031 PUSH2 0xACE DUP3 ADD MSTORE PUSH32 0x2E313031322D302E303635303220312E363238322D302E313532393620302E35 PUSH2 0xAEE DUP3 ADD MSTORE PUSH32 0x323730382D302E343237373820312E303136322D302E373833323220312E3433 PUSH2 0xB0E DUP3 ADD MSTORE PUSH32 0x34342D302E373130383820302E38333633362D312E3732383420312E33373433 PUSH2 0xB2E DUP3 ADD MSTORE PUSH32 0x2D322E3739323120312E363435332D322E3132373420302E35343139362D342E PUSH2 0xB4E DUP3 ADD MSTORE PUSH32 0x3336303620302E30373236322D362E353439372D302E30393331332D312E3236 PUSH2 0xB6E DUP3 ADD MSTORE PUSH32 0x39372D302E30393631342D322E353535362D302E30383738342D332E38303439 PUSH2 0xB8E DUP3 ADD MSTORE PUSH32 0x20302E31353738322D312E3234393420302E32343536372D322E34363520302E PUSH2 0xBAE DUP3 ADD MSTORE PUSH32 0x37333732362D332E34353720312E353335362D302E3731333220302E35373339 PUSH2 0xBCE DUP3 ADD MSTORE PUSH32 0x362D312E3330333520312E333033312D312E3639393520322E313238352D302E PUSH2 0xBEE DUP3 ADD MSTORE PUSH32 0x333935393720302E38323534312D302E353935353120312E373436372D302E35 PUSH2 0xC0E DUP3 ADD MSTORE PUSH32 0x3537363620322E3636313420302E303337383620302E393134363920302E3331 PUSH2 0xC2E DUP3 ADD MSTORE PUSH32 0x3520312E3832303820302E383131313920322E3539303273312E323131392031 PUSH2 0xC4E DUP3 ADD MSTORE PUSH32 0x2E3339383420322E3034363420312E3737343863312E3035313720302E343734 PUSH2 0xC6E DUP3 ADD MSTORE PUSH32 0x333620322E3234363420302E353337383620332E3339353120302E3433303134 PUSH2 0xC8E DUP3 ADD MSTORE PUSH32 0x20312E313438372D302E313037373220322E323735362D302E33373736342033 PUSH2 0xCAE DUP3 ADD MSTORE PUSH32 0x2E343137342D302E353432393973322E333233352D302E323233333520332E34 PUSH2 0xCCE DUP3 ADD MSTORE PUSH32 0x33343620302E303837343963302E353535353420302E313535343220312E3038 PUSH2 0xCEE DUP3 ADD MSTORE PUSH32 0x383120302E343033353320312E3534353220302E373535343873302E38333639 PUSH2 0xD0E DUP3 ADD MSTORE PUSH32 0x3620302E383039373620312E3036393320312E3333373863302E323234323520 PUSH2 0xD2E DUP3 ADD MSTORE PUSH32 0x302E3530393720302E333037353520312E3037363720302E323639333520312E PUSH2 0xD4E DUP3 ADD MSTORE PUSH32 0x363332322D302E3033383220302E35353535332D302E313935363720312E3039 PUSH2 0xD6E DUP3 ADD MSTORE PUSH32 0x39372D302E343332373820312E363033362D302E343734323120312E30303737 PUSH2 0xD8E DUP3 ADD MSTORE PUSH32 0x2D312E3235333520312E383430362D322E3038373520322E353738362D302E38 PUSH2 0xDAE DUP3 ADD MSTORE PUSH32 0x3334303420302E37333830332D312E3733353320312E333939382D322E353338 PUSH2 0xDCE DUP3 ADD MSTORE PUSH32 0x3220322E313731352D302E383032393120302E37373137382D312E3531363120 PUSH2 0xDEE DUP3 ADD MSTORE PUSH32 0x312E363734372D312E3836323420322E373333322D302E343637353520312E34 PUSH2 0xE0E DUP3 ADD MSTORE PUSH32 0x3239322D302E313932353320332E3037393720302E373133313920342E323820 PUSH2 0xE2E DUP3 ADD MSTORE PUSH32 0x302E393035373220312E3230303420322E3431373320312E3931373820332E39 PUSH2 0xE4E DUP3 ADD MSTORE PUSH32 0x3220312E3836303420312E353032362D302E303537333720322E393535312D30 PUSH2 0xE6E DUP3 ADD MSTORE PUSH32 0x2E383837393520332E373636372D322E3135333920302E38313135352D312E32 PUSH2 0xE8E DUP3 ADD MSTORE PUSH32 0x36353920302E39353939332D322E3933323620302E33383437372D342E333231 PUSH2 0xEAE DUP3 ADD MSTORE PUSH4 0x1C91179F PUSH1 0xE1 SHL PUSH2 0xECE DUP3 ADD MSTORE PUSH2 0xED2 ADD SWAP2 SWAP1 POP JUMP JUMPDEST PUSH1 0x20 DUP1 DUP3 MSTORE PUSH1 0x0 SWAP1 PUSH1 0x60 DUP4 ADD DUP4 DUP3 ADD DUP6 DUP5 JUMPDEST PUSH1 0x2 DUP2 LT ISZERO PUSH2 0x51BF JUMPI PUSH1 0x1F NOT DUP1 DUP9 DUP7 SUB ADD DUP5 MSTORE DUP3 MLOAD DUP1 MLOAD DUP1 DUP8 MSTORE PUSH2 0x51A1 DUP2 DUP10 DUP10 ADD DUP11 DUP6 ADD PUSH2 0x51CB JUMP JUMPDEST PUSH1 0x1F ADD SWAP1 SWAP2 AND SWAP5 SWAP1 SWAP5 ADD DUP6 ADD SWAP4 POP SWAP2 DUP5 ADD SWAP2 SWAP1 DUP5 ADD SWAP1 PUSH1 0x1 ADD PUSH2 0x5178 JUMP JUMPDEST POP SWAP2 SWAP7 SWAP6 POP POP POP POP POP POP JUMP JUMPDEST PUSH1 0x0 JUMPDEST DUP4 DUP2 LT ISZERO PUSH2 0x51E6 JUMPI DUP2 DUP2 ADD MLOAD DUP4 DUP3 ADD MSTORE PUSH1 0x20 ADD PUSH2 0x51CE JUMP JUMPDEST DUP4 DUP2 GT ISZERO PUSH2 0x51F5 JUMPI PUSH1 0x0 DUP5 DUP5 ADD MSTORE JUMPDEST POP POP POP POP JUMP JUMPDEST PUSH1 0x0 DUP3 PUSH2 0x5216 JUMPI PUSH4 0x4E487B71 PUSH1 0xE0 SHL DUP2 MSTORE PUSH1 0x12 PUSH1 0x4 MSTORE PUSH1 0x24 DUP2 REVERT JUMPDEST POP MOD SWAP1 JUMP INVALID LOG2 PUSH5 0x6970667358 0x22 SLT KECCAK256 0xCA 0x1F SIGNEXTEND CALLER 0xE8 0xEA 0xCC RETURNDATASIZE DUP12 0xAA 0xCF CALLDATALOAD CODECOPY 0xB1 LOG4 DUP3 DUP3 SWAP11 SWAP8 DUP8 CREATE CODECOPY 0xD0 0xC0 PUSH10 0x210F86C57CD2A664736F PUSH13 0x63430008040033000000000000 "
		},
		"gasEstimates": {
			"creation": {
				"codeDepositCost": "4214600",
				"executionCost": "4853",
				"totalCost": "4219453"
			},
			"external": {
				"generateSVG()": "infinite"
			},
			"internal": {
				"random(uint256)": "infinite"
			}
		},
		"methodIdentifiers": {
			"generateSVG()": "ad711e9e"
		}
	},
	"abi": [
		{
			"inputs": [],
			"name": "generateSVG",
			"outputs": [
				{
					"internalType": "string[2]",
					"name": "",
					"type": "string[2]"
				}
			],
			"stateMutability": "view",
			"type": "function"
		}
	]
}